:100000000C9418060C9450060C9450060C945D3019
:100010000C9450060C9450060C9450060C94500608
:100020000C9450060C9450060C94052D0C94DD2D68
:100030000C94C11A0C9450060C9450060C94500663
:100040000C9450060C9450060C9450060C945006D8
:100050000C9450060C94E12C0C9450060C94500611
:100060000C9450060C9450060C9450060C945006B8
:100070000C9450060C9450060C9450060C945006A8
:100080000C9450060C9450060C9450060C94500698
:100090000C9450060C9450060C9450060C94500688
:1000A0000C9450060C9450060C945006050109025D
:1000B000A10185020901A1000509190129081500FE
:1000C0002501950875018102050109300931158165
:1000D000257F95027508810609381581257F9501D0
:1000E00075088106050C0A38021581257F95017572
:1000F000088106C0C005010980A101850319012AF4
:10010000B700150126B700950175108100C0050CD8
:100110000901A101850419012AA002150126A002E6
:10012000950175108100C00660FF0961A101096297
:10013000150026FF00952075088102096315002629
:10014000FF00952075089102C005010906A101056F
:100150000719E029E7150025019508750181029529
:1001600001750881010507190029FF150026FF0008
:100170009506750881000508190129059505750181
:100180009102950175039101C000AF00AE09025BB9
:1001900000030100A0FA09040000010301010009A5
:1001A0002111010001224000070581030800010917
:1001B00004010002030000000921110100012222B4
:1001C0000007058203200001070503032000010941
:1001D0000402000103000000092111010001227B3B
:1001E000000705840320000112010002000000083E
:1001F00032FC87120200010200011E0353006F004F
:100200006C00610072006900750073005F005300AC
:100210006F0066006C006500000010034B00650075
:100220007900680069007600650000000403090495
:1002300007087F0807003E5B4F5B3E003E6B4F6B3D
:100240003E001C3E7C3E1C00183C7E3C18001C57A7
:100250007D571C001C5E7F5E1C0000183C180000CF
:10026000FFE7C3E7FF00001824180000FFE7DBE703
:10027000FF0030483A060E00262979292600407FE3
:1002800005050700407F05253F005A3CE73C5A0022
:100290007F3E1C1C0800081C1C3E7F0014227F228D
:1002A00014005F5F005F5F0006097F017F0000664A
:1002B00089956A0060606060600094A2FFA294006B
:1002C00008047E04080010207E20100008082A1C64
:1002D0000800081C2A0808001E10101010000C1E30
:1002E0000C1E0C0030383E383000060E3E0E060064
:1002F00000000000000000005F0000000007000791
:100300000000147F147F1400242A7F2A1200231374
:1003100008646200364956205000000807030000B8
:10032000001C224100000041221C00002A1C7F1CEE
:100330002A0008083E080800008070300000080805
:100340000808080000006060000020100804020097
:100350003E5149453E0000427F40000072494949F4
:1003600046002141494D33001814127F10002745E3
:10037000454539003C4A49493100412111090700EE
:10038000364949493600464949291E0000001400F3
:100390000000004034000000000814224100141442
:1003A0001414140000412214080002015909060027
:1003B0003E415D594E007C1211127C007F49494933
:1003C00036003E41414122007F4141413E007F498C
:1003D000494941007F09090901003E41415173002B
:1003E0007F0808087F0000417F4100002040413F16
:1003F00001007F08142241007F40404040007F02FE
:100400001C027F007F0408107F003E4141413E00F6
:100410007F09090906003E4151215E007F09192923
:10042000460026494949320003017F0103003F404D
:1004300040403F001F2040201F003F4038403F0009
:100440006314081463000304780403006159494DE0
:100450004300007F41414100020408102000004198
:1004600041417F000402010204004040404040003E
:100470000003070800002054547840007F284444BB
:100480003800384444442800384444287F00385415
:100490005454180000087E09020018A4A49C780097
:1004A0007F080404780000447D4000002040403D67
:1004B00000007F102844000000417F4000007C04C1
:1004C000780478007C0804047800384444443800F8
:1004D000FC182424180018242418FC007C080404A8
:1004E000080048545454240004043F4424003C4071
:1004F00040207C001C2040201C003C4030403C0040
:100500004428102844004C9090907C004464544C43
:100510004400000836410000000077000000004160
:10052000360800000201020402003C2623263C009B
:10053000000000000000404040F0F8F8FF38FFF8ED
:10054000F83FF8F8FF38FFF8F8F0404040000000AE
:1005500000000080C0C0C0800000C0C0800000005B
:1005600080C0C000C0C0000080C0C000000000000B
:10057000C0C0C0C0C000C0C000000000000000003B
:10058000000000000000000000000000000000006B
:10059000000000000000000000000000000000005B
:1005A000000000000000000000000000000000C08B
:1005B000F0F8FC3E1E06010000007F4141417F0033
:1005C0007F4141417F000080C0E07E5B4F5BFEC009
:1005D0000000C000DCD7DEDEDED7DC00C00000009B
:1005E000000000000000000000000000000000000B
:1005F000000000000000494949FFFFFFFFE0DFBFA6
:10060000BF00BFBFDFE0FFFFFFFF49494900000017
:1006100000001F3F6060E0BF1F007F7F071E381E85
:10062000077F7F007F7F0E1F3B716000000000008E
:100630007F7F0C0C0C007E7E007F7E0303007F7E9C
:1006400003037E7E03037F7E000F3E703C063C70FA
:100650003E0F00327B49493F7E007F7E0303001E30
:100660003F69696F260000000000000000000003E1
:100670000F1F3F3C7870600000007F4141417F00C8
:100680007F4141417F00307B7F7830202030787F70
:100690003B0003000F7F0F0F0F7F0F0003000000D0
:1006A000000000000000000000000000000000004A
:1006B000000000000000010101070F0F7F0F7F0FF6
:1006C0000F7E0F0F7F0F7F0F0F070101010000004A
:1006D0000000000000000001010000000000000018
:1006E000000000000000000000000000000000000A
:1006F00000000000000000000000000000000000FA
:1007000000000000000000000000000000000000E9
:1007100000000000000000000000000000000000D9
:1007200000000000000000000000000000000000C9
:1007300000000000000000000000000000000000B9
:1007400000000000000000000000000000000000A9
:100750000000000000000000000000000000000099
:100760000000000000000000000000000000000089
:100770001C1004010D190A24232221201F1E1D1BF9
:100780001A18171615141312110F0E0C0B0908075F
:1007900006050302002D3945483C303F2526272811
:1007A000292A2B2C2E2F31323334353637383A3B29
:1007B0003D3E4041424344464749FFAA7F554000E1
:1007C0000101010101010101010202020202020212
:1007D00002020303030303030303040404040404E5
:1007E00004050505050506060606060707070707AB
:1007F00008080808090909090A0A0A0B0B0B0C0C5E
:100800000C0D0D0D0E0E0E0F0F0F101011111112F9
:100810001213131414151516161717181819191A78
:100820001A1B1B1C1D1D1E1E1F20202122222324DB
:1008300024252626272829292A2B2C2D2D2E2F301A
:10084000313232333435363738393A3B3C3D3E3F2E
:10085000404142434445464748494A4C4D4E4F501B
:10086000515354555658595A5B5D5E5F61626465D9
:100870006668696B6C6D6F7072737577787A7B7D63
:100880007E8082838587888A8C8E8F9193959698B7
:100890009A9C9EA0A2A3A5A7A9ABADAFB1B3B5B7D3
:1008A000BABCBEC0C2C4C6C9CBCDCFD1D4D6D8DBAA
:1008B000DDDFE2E4E7E9EBEEF0F3F5F8FAFDFF0047
:1008C000DA02815AD9F1DB20A4A62EAF00A0C00025
:1008D000A1C800AED580A81FD300408D1420000011
:1008E0000004F6B8F8D8F0E0C000000080C0E0E0F6
:1008F000F0F0F0F0E0E0C080000000000000000038
:1009000080C0E1F3FB7F1F0F0000F0FFFF3F0301FA
:1009100000000080C1F3FF7F1F000080C0E0301E98
:100920003F3F7FF9F0F070783C3F1F0F030000005D
:10093000001C3F7F7FFBF1F0783C1E0F030000009E
:10094000000000000000000000E0F0F0F8F8CCCC5F
:10095000F8F8F0F060000000000000000000000067
:100960000000000000000000000F3F7FFCF9F1E1F3
:10097000C181000000000000000000000000000035
:10098000000000000C387060E0E0F0F0F8F9FFFFC4
:10099000FFFFFF7E1C0000000000000000000000C0
:1009A000000000000000000000E0F0F0F8F8CCCCFF
:1009B000F8F8F0F060000000000000000000000007
:1009C0000000000000000000000F3F7FFCF9F1E193
:1009D000C1810000010102060C04000000000000BB
:1009E0000000000000387C60E0E0F0F0F8F9FFFF64
:1009F000FFFFFF7E1C000000000000000000000060
:100A000000000000000000000000000000000000E6
:100A100000000000000000000000000000000000D6
:100A20000000CCF870000000000000C0F0F8F87C76
:100A3000FCEEE6FCFC7878B000000000000000004E
:100A4000003F7FF1F8F87C7CF8F0F0F1E7EFEFFE83
:100A5000FEFEFCFCF8F0600001030602000000004E
:100A60000000000000000000000000000000000086
:100A70000000000000000000000000000000000076
:100A80000080E0F81C000000000000C0F0F8F87CD6
:100A9000FCEEE6FCFC78783000000000000000006E
:100AA000003F7FF0F8F87C7CF8F0F0F1E7EFEFFE24
:100AB000FEFEFCFCF8F060000000000000000000FA
:100AC0000000000080C0C0E0E03070E0E0C0C08006
:100AD0000000000000000000000000000000000016
:100AE0000000001F7FFFFFE7E7EFEFCFCB8383011D
:100AF00000000000000000000000000000000000F6
:100B000000061C3878F1E3E3E7F7F7FFFFFFFF7F0C
:100B10003E00000000000000000000000000000097
:100B200000000000000000000000000000000000C5
:100B30000080C0E0E060E0C0C080800000000000F5
:100B4000000000000000000020F8FEFFFFFF9F0FE4
:100B50000E1F1F3F3F7EE683030F4343908808002C
:100B600000031E3C78F0E0E0F0F0FBFFFFFF7F7F2A
:100B7000380000000000000000000000000000003D
:100B80000000000000000000000000000000000065
:100B90000000000000000000000000000000000055
:100BA0000000007E0F00D4FFFFFFC70000007800A8
:100BB000000000000000002A2B28000000000000B8
:100BC0000000000000000000000029000000002CD0
:100BD0001E3420212224342627252E362D3738276F
:100BE0001E1F202122232425263333362E37381F7B
:100BF0000405060708090A0B0C0D0E0F101112133D
:100C00001415161718191A1B1C1D2F3130232D35DA
:100C10000405060708090A0B0C0D0E0F101112131C
:100C20001415161718191A1B1C1D2F3130354C00BE
:100C300011241FBECFEFDAE0DEBFCDBF04B603FE46
:100C400018C080916A0690916B06A0916C06B091D5
:100C50006D068730904BA740B04B59F410926A064E
:100C600010926B0610926C0610926D06E0E0F8E3AD
:100C7000099512E0A0E0B1E0E6E7F7E602C00590D2
:100C80000D92A832B107D9F726E0A8E2B2E001C080
:100C90001D92AA36B207E1F70E9409250C94883309
:100CA0000C940000A2E1B0E0E8E5F6E00C949C3181
:100CB00096E0E1E6F6E0DE01179601900D929A9536
:100CC000E1F79091620626E0FE013796DE011D965F
:100CD00001900D922A95E1F78823C1F0962B9E870B
:100CE00086E0FE013D96DE01119601900D928A95F7
:100CF000E1F786E0FE013196A1E6B6E001900D92A3
:100D00008A95E1F76296E2E00C94B83160959623FB
:100D1000E6CF982F82958F70882311F0982F84E06A
:100D2000292F26952695222311F08E5F922F9695D6
:100D300091118F5F0895292F9A3098F5873088F5A3
:100D400090E037E0239F800D911D1124282F2770FC
:100D500041E001C0440F2A95EAF723E09695879574
:100D60002A95E1F7FC01EE0FFF1FE80FF91FEC5089
:100D7000FA4F20E030E070E05191DF011197CB0194
:100D8000022E02C0969587950A94E2F781708195AC
:100D90008527842385278C932F5F3F4F2330310590
:100DA00059F70895292F9A3078F5873068F590E043
:100DB00037E0239F800D911D1124682F677023E079
:100DC000969587952A95E1F7FC01EE0FFF1FE80F36
:100DD000F91FEC50FA4F40E050E080E0219130E004
:100DE000062E02C0369527950A94E2F72170332724
:100DF000042E01C0220F0A94EAF7822B4F5F5F4F47
:100E00004330510559F7089580E0089580912A06EE
:100E100090912906981301C008958F5F8770FACFCB
:100E20002091E80522FF06C0982F98719830C1F4F0
:100E3000877F84609091E905392F3170927023FF8C
:100E400021C0482F4871483191F4877E84619923ED
:100E5000B1F0982F9171913191F48E7E88610FC01D
:100E6000982F9471943031F78B7F8860E3CF482FAF
:100E70004471443139F48B7E8861911118C024FD8E
:100E8000877E0895332369F0382F3871383019F48C
:100E9000877F8160DCCF382F3171313011F48E7F44
:100EA0008860992361F3982F9871983191F6877E25
:100EB0008161E5CFCF93DF93EC01803E910509F48A
:100EC00061C070F58133910509F4A7C090F48932AF
:100ED000910509F49BC08A32910509F4A5C00197D8
:100EE00009F463C0CE010497813A910508F056C019
:100EF0005CC089339105F1F182389105D9F18533D0
:100F0000910509F47CC08F3B9105C8F4883A91059E
:100F100008F0E5C0853A910528F3A497D06445C050
:100F2000843E910509F450C070F4823E9105C9F1E8
:100F3000833E9105F1F1C83ED10508F088C0C03E5E
:100F4000D10560F132C0863E910509F448C0873E64
:100F5000910509F449C0811522E5920708F07CC08B
:100F6000811531E5930708F466C0D82FCC27C16FEF
:100F7000D06A1BC08091E80583708823B1F0C0EE71
:100F8000D0E013C08091E80580FDF6C09091E9059E
:100F900090FF0BC0C3EED0E084FF07C0C0E0D0E0FC
:100FA00004C08091E80582FDF5CFCE01DF91CF919D
:100FB00008958091E80582FDE2C09091E90590FDD9
:100FC000DECF84FFF2CFEACF8091E90581FFEDCF3C
:100FD0008091E805C7EED0E084FDE0CFE6CF8091B8
:100FE000E80583FDF7CFE1CF8091E80583FDCAC016
:100FF0009091E90591FFE5CFC4EED0E0D6CF809186
:10100000E80585FFD2CFC9E2D0E0CFCF8091E805D7
:1010100085FFCBCFC5E3D0E0C8CF8091E80586FF40
:10102000C4CFCAE2D0E0C1CF8091E80586FFBDCF32
:10103000C1E3D0E0BACF811540E5940708F05AC06B
:101040008115904408F477CFDF70D06AAECFCE011F
:101050009A958F3F9E414ACFC11589E5D80738F54B
:10106000C11528E5D20708F074C0C11533E5D307D0
:1010700008F45DC0CE0193558F3F910511F008F043
:101080008DCF8C2F8695869520E2829FC0011124FA
:10109000C370DD2721E030E0A90102C0440F551FD5
:1010A000CA95E2F7EA01C82BD92BDA687ECFC115C1
:1010B0004AE5D40708F452C0CE01905681159042FB
:1010C00008F06CCF8D2F8F710E94100790E0982F41
:1010D000882788279F718C2BEC01D06266CFC85A75
:1010E000D0E0CC0FDD1FCE50DE4F0990D881C02D4F
:1010F000D4645BCF9C0164E0369527956A95E1F74F
:10110000237086958695837060E2869FC0011124C6
:10111000922BC37021E030E0A90102C0440F551F9B
:10112000CA95E2F7EA01C82BD92BDC683ECF8C2F99
:101130008695869550E2859FC0011124C370DD27F6
:1011400021E030E0A90102C0440F551FCA95E2F723
:10115000E9CFDC2FCC27C06FD06A27CF8C2F8F70C0
:101160000E94100734E0D695C7953A95E1F7CF7005
:101170009C2FEC01D06919CFC9E3D0E016CFC2EEA5
:10118000D0E013CFC6EED0E010CF80E00895F89401
:10119000E82FE295EF70F0E041A18F7021E030E0A0
:1011A000B90102C0660F771F8A95E2F7CB01962F2F
:1011B0009095942391A392A1892B82A3789408956A
:1011C000A0E0B0E0E6EEF8E00C949431E901E42F01
:1011D000F0E0E154F84F61110BC0E4919E2F8E2F87
:1011E0008983E8839A83CDB7DEB7EAE00C94B03107
:1011F000282F30E0062F10E0F491EF2F86E0829F39
:101200006001839FD00C1124EE24EA94F12CC601D6
:10121000B7010E947831220F331F45E5469FC00178
:10122000479F900D1124281B390B822F880F280F00
:10123000C701801B910BF89FA001F99F500D11244D
:10124000952F209F5001219FB00C1124AB2CBB2463
:10125000D701AA19BB095D01FA9DD001FB9DB00D14
:1012600011248B2F5701A21AB1089501209F50011C
:10127000219FB00C309FB00C1124AB2CBB24EA187A
:10128000FB08FE9D9001FF9D300D11246330710518
:10129000C9F01CEFC11613E0D10650F4613071059E
:1012A00009F49ECF6230710589F08E2FE32F98CF1D
:1012B0006430710571F066307105B9F3E52F9B2F2D
:1012C0008F2F8ECFEB2F852F9F2F8ACF852F932F98
:1012D00087CF832FE52FF8CF80912006823060F4EE
:1012E000817082608093200680912306813A18F0F5
:1012F00080EA8093230608958831B0F38170866177
:10130000F1CFFA01882311F009950895FB01FCCF74
:10131000FC01680F791F8FEF91E3E617F70709F4D7
:1013200008952191822728E030E087FF08C0880FC8
:1013300089272150310921153105B9F7EECF880FE2
:10134000F8CF2091450336E0839FC0011124269FEA
:10135000800D911D1124811522E0920714F080E088
:1013600090E080589C4F90934403809343030895EA
:1013700020915002309151022817390771F0909353
:10138000510280935002E091EA05F091EB0530970D
:1013900021F00680F781E02D0995089520914E02F5
:1013A00030914F022817390771F090934F028093C4
:1013B0004E02E091EA05F091EB05309721F00084B0
:1013C000F185E02D09950895A4E0B0E0EAEEF9E09A
:1013D0000C949C318FB7F89420914A0230914B02C3
:1013E00040914C0250914D0229833A834B835C8398
:1013F0008FBF69817A818B819C812496E2E00C9475
:10140000B8310E94E4090895A4E0B0E0EAE0FAE00F
:101410000C949A31462F572FBC012FB7F894809126
:101420004A0290914B02A0914C02B0914D022FBF05
:101430008C019D01041B150B260B370BC901B8014C
:101440002496E4E00C94B631809149020895089501
:10145000FC019B0180913C0290913D028617970709
:1014600040F0672B29F48091E8008E778093E800A4
:10147000C90140E0009741F4411106C08091E800A5
:1014800082FF2FC080E008952091BD052223A9F19D
:101490002530A9F12091E80023FD2DC02091E8001E
:1014A00022FDECCF2091E80020FFE4CF3091F30043
:1014B0002091F200009719F02830310558F041E0F2
:1014C0002830310509F040E02091E8002E77209384
:1014D000E800D0CF41914093F10001972F5F3F4F3B
:1014E000E9CF8091BD05882341F0853041F080919E
:1014F000E80083FFC3CF81E0089582E0089583E090
:1015000008958091360287FF13C08091E80082FF22
:1015100006C08091E8008B778093E80004C080913A
:10152000BD058111F2CF08958091BD058823D9F3BF
:101530008091E80080FFF8CF8091E8008E77ECCFB3
:101540002091E4003091E50095E6A9018091EC003E
:101550008170882331F08091E80080FF06C080E030
:1015600008952091E80022FD1BC08091BD058823CD
:1015700091F0853091F08091EB0085FD10C02091B5
:10158000E4003091E5004217530701F391509111A7
:10159000DCCF84E0089582E0089583E0089581E03F
:1015A0000895E8EDF0E080818E7F80831092E20064
:1015B0001092DA001092E100A0EEB0E08C91816010
:1015C0008C9380818F77808319BCA7EDB0E08C91DC
:1015D0008E7F8C9380818F7E808310923502089558
:1015E000EF92FF920F931F93CF938C017B010E9488
:1015F000A00AC82F81110EC08091E80085FD11C09E
:101600008091E8008E778093E8000E94A00A8823EA
:1016100099F3C82F8C2FCF911F910F91FF90EF90CE
:101620000895F80180818093F100F1E0EF1AF1084C
:10163000E114F10479F30F5F1F4FDECFCF93DF93F7
:10164000682F2091430330914403D901A058B3403F
:101650002052334021303240C8F020E032E02A1BD3
:101660003B0B4091820550918305E62FF92FCD0168
:101670002A0F3B1FC1E0D0E08217930750F0509330
:10168000830540938205DF91CF91089520E630E0F5
:10169000E8CF6491DC01A058BC4F7C91671779F0CA
:1016A0006C93BC01A5E076956795AA95E1F7DE01FC
:1016B00002C0AA0FBB1F6A95E2F74A2B5B2B01966B
:1016C0003196DACF982FE42FE2709093E9008913D6
:1016D00008C0762F242F50E0E11111C091E0980F3F
:1016E000F4CF7091EC002091ED005091F00021FDBD
:1016F00006C09F5F973049F78093E90008953091C5
:10170000EB003E7F3093EB003091ED003D7F309356
:10171000ED003091EB0031603093EB007093EC0002
:101720002093ED005093F0002091EE0027FDE1CFD3
:101730000895A0E0B0E0EFE9FBE00C949631C8ED2D
:10174000D0E088818F7E8883E7EDF0E08081816042
:10175000808384E082BF81E08093350288818E7F20
:10176000888302EE10E0F80110821092DA0081EE18
:10177000C82ED12CF601108288818F7788838881CA
:101780008068888388818F7D888319BC1092BD050D
:101790001092340210924A031092330290EEE92E16
:1017A000F12CF70180818B7F808388818160888321
:1017B00042E060E080E00E94620BF60180818E7F53
:1017C0008083F8018081816080838081886080834C
:1017D000F70180818E7F8083888180618883CDB787
:1017E000DEB7E8E00C94B2318091BE05811110C0E3
:1017F0008091D80080618093D8008AE18A95F1F7C2
:1018000000C08091D90080FF0AC081E08093BE05AE
:1018100081E09091BE05913009F080E0089582E06A
:101820008093BE050E94D10A1092BD05F1CF0E949F
:10183000F40B882359F0E091EA05F091EB0530971D
:1018400029F00190F081E02D0995089580E0089538
:10185000CF92DF92EF920F931F93CF93DF93CDB789
:10186000DEB7CE5DD1090FB6F894DEBF0FBECDBF97
:10187000409102018091200680FF50C0E0E7F7E030
:101880009E012F5F3F4F8E0101521F4FC90164918E
:1018900070E0DB01AA0FBB1FA60FB71FA85ABD4FF0
:1018A000CD90DD90EC90D901CD92DD92ED929D012D
:1018B0003196A017B10759F72091010130E0B90125
:1018C000660F771F260F371F820F931F539A6BB136
:1018D000677F7BB17860EFB7F89450E09A01220FF0
:1018E000331F240F351F280F391F8217930761F507
:1018F000EFBF8FE594E00197F1F700C00000C252FE
:10190000DF4F0FB6F894DEBF0FBECDBFDF91CF9192
:101910001F910F91EF90DF90CF9008958091030178
:1019200090910401282F30E0F901EE0FFF1FE20F24
:10193000F31FE85AFD4F891708F0A0CF11821082DB
:1019400012828F5F3396F7CFDC014D91CD0158E0C5
:101950007BB9000000C047FF6BB9440F000000C016
:1019600000C000C06BB900C05A9591F7BECFE0E24D
:10197000F6E080818E7F8083EDE1F6E082818160F8
:1019800082832FEF80E792E0215080409040E1F782
:1019900000C000000E94280C0895CF93DF93D82F39
:1019A000C92F81E08093E9008FEF9091E80095FDC9
:1019B00007C095ED9A95F1F7000081508111F5CFA0
:1019C0008091E80085FD03C0DF91CF91089540E04C
:1019D00050E068E070E08D2F9C2F0E94F00A80910B
:1019E000E8008E778093E80088E0ED2FFC2FA1E4DB
:1019F000B2E001900D928A95E1F7E6CF24E02093C2
:101A0000E9002FEF3091E80035FD07C035ED3A953C
:101A1000F1F7000021502111F5CF2091E80025FFBA
:101A20000BC040E050E066E070E00E94F00A809158
:101A3000E8008E778093E800089580933E027093CB
:101A4000400260933F028091BD058430F9F4809399
:101A5000E9008FEF9091E80095FD07C095ED9A950C
:101A6000F1F7000081508111F5CF8091E80085FFEA
:101A70000DC040E050E063E070E08EE392E00E9431
:101A8000F00A8091E8008E778093E8000895BC0109
:101A900083E00E941D0D0895BC0184E00E941D0D8D
:101AA0000895A0E0B0E0E7E5FDE00C949431F82E55
:101AB000E92EB62EA72E8A018091C205CC24C394AC
:101AC000D12C8A3018F48AE0C82ED12CC1E0D0E0A5
:101AD0006B2D7A2D8F2D9E2DF8010995811116C041
:101AE0002196CC16DD0694F0CC9FC001CD9F900DC1
:101AF000900D112420E030E045E34A95F1F7000015
:101B00002F5F3F4F28173907B9F7E2CFCDB7DEB7C0
:101B1000EAE00C94B031A3E0B0E0E1E9FDE00C9420
:101B20009A31182F062F8091200680FF25C09E0134
:101B30002F5F3F4F40EA64E68BE20E94E0081017F7
:101B4000D8F42B8139814A81812F90E0FC01EE0F7E
:101B5000FF1FE80FF91FE85AFD4F418330832283AE
:101B60001F5F33960113F9CF0E94280C8FE99FE085
:101B70000197F1F700C000002396E4E00C94B63121
:101B8000CF93DF93C82FD82FD17081FF04C067E0B7
:101B900084E00E948B0DD11104C06FE18CE10E94A2
:101BA0008B0DC2FF04C063E180E10E948B0DDF91C9
:101BB000CF91089583E290E00E940F32823289F43F
:101BC00084E290E00E940F32873059F485E290E081
:101BD0000E940F3291E0833109F090E0892F8170EB
:101BE000089580E0FCCF0F931F93CF93DF93853050
:101BF00030F56A3020F5473010F5C42FD0E0CC0F17
:101C0000DD1F2EE0629FC00DD11D11243CE8839F93
:101C1000C00DD11D1124CE0187960E940F32082FCE
:101C200010E0102F0027CE0188960E940F329801F5
:101C3000282BC901DF91CF911F910F91089580E06A
:101C400090E0F8CF462F672F853038F47A3028F4AB
:101C5000473018F40E94F30D089580E090E0089555
:101C6000A0E0B0E0E6E3FEE00C9497317C01009147
:101C7000260680912506082BC7E0D0E010E0C801B9
:101C80000C2E02C0959587950A94E2F780FD09C055
:101C90002197A8F7D12C8D2DCDB7DEB7E7E00C94B6
:101CA000B331DC2EB7018C2F0E94220E0E945A07FE
:101CB000019771F3F0CF0F931F93CF93FC018281B3
:101CC00000811181882391F0662381F0C8010E9470
:101CD000300EC82F682FC8010E949B06B8018C2FB8
:101CE0000E94220ECF911F910F910895C8010E946A
:101CF000D206C82FF3CFCF93DF93D82FC92F0E94DE
:101D0000300E6D2F7C2F0E94220E0E945A07DF9109
:101D1000CF9108950E947B0E282F92959F70963048
:101D200091F060F4925F9F70923030F481E0203F38
:101D300079F030F4283E30F080E008959A5FF3CFD8
:101D4000243FD1F7089581E0283EE0F3213FF9CF09
:101D500008958091280690912706892B80932A0266
:101D600048E050E06CEE75E08AE292E00E94F931C2
:101D7000892BA9F088E0EAE2F2E0ACEEB5E0019050
:101D80000D928A95E1F7E091EA05F091EB05309725
:101D900031F00280F381E02D8AE292E00995089506
:101DA0000F931F93CF93C82F882339F18CEF8C0F9B
:101DB000813AB0F50CE212E0F8018191C81709F1FF
:101DC00022E0E233F207C9F7EFEF80E0D8019D91FE
:101DD0008D01C91781F0EF3F19F4911101C0E82F6F
:101DE0008F5F863099F7EF3F31F00E2E000CFF0B1E
:101DF000E65DFD4FC2830E94A90ECF911F910F9106
:101E00000895ECE2F2E08191C81303C0DF0111975D
:101E10001C9232E0E233F307B1F70E94A90ED4CF4F
:101E200080E28C0F883068F4C77081E090E001C0D8
:101E3000880FCA95EAF7C0912806C82BC0932806D8
:101E4000DACF8BE58C0F833038F42C2F2452330BF0
:101E5000C9010E94B809D1CFC85AC73170F6EC2F1A
:101E6000F0E0EE0FFF1FEE50FE4F808191810E9447
:101E7000CE09C3CF8823C1F19CEF980F913A78F433
:101E8000ECE2F2E09191891303C0DF0111971C92FB
:101E900042E0E233F407B1F70E94A90E089590E200
:101EA000980F983088F4877021E030E0A90102C0D3
:101EB000440F551F8A95E2F7CA0180959091280634
:101EC000892380932806E8CF9BE5980F933028F468
:101ED00080E090E00E94B8090895885A873120F484
:101EE00080E090E00E94CE0908951F93CF93DF9386
:101EF000182FEB010E94D00E8FE99FE00197F1F7B8
:101F000000C0000021972097B9F7812F0E943A0F57
:101F1000DF91CF911F910895882339F09091280681
:101F2000892B809328060E94A90E0895882341F0EA
:101F30008095909128068923809328060E94A90EF7
:101F4000089580E090E00E94B80980E090E00E944F
:101F5000CE09109227060E94A90E0895ECE2F2E045
:101F600086E0DF011D928A95E9F70E94A10F08958E
:101F7000AAE2B0E0EEEBFFE00C949B3186E392E046
:101F8000FC0101962091F100208322E08E3392071C
:101F9000B9F780913702893009F458C0C8F482300B
:101FA00009F4B5C0833009F484C0813081F1809197
:101FB000E80083FFE9C080913602909137029A30A1
:101FC00008F0E2C0E92FF0E0E657FC4C0C94E33156
:101FD0008A3009F48BC08B3051F780913602813200
:101FE00031F780913A0290913B02892B01F7809161
:101FF000E800877F8093E8000E94810A8091380280
:1020000080930001109228060E94AE0FD0CF8091DD
:102010003602813A61F68091E800877F8093E8007C
:1020200080913A0290913B02892B61F060E080E060
:1020300090E070E00E94280A8091E8008B778093FE
:10204000E800B5CF68E081E492E0F3CF80913602FA
:10205000813209F0ACCF80913A0290913B028D7FA2
:10206000892B09F0A4CF8091E800877F8093E80056
:102070008091E80082FF18C09091F3008091F200F7
:10208000029731F48091F100813011F0863021F413
:102090008091F100809349028091E8008B778093D2
:1020A000E8000E94810A83CF8091BD058111E0CFB5
:1020B0007ECF80913602813A09F079CF80913A0241
:1020C00090913B02892B09F072CF8091E800877FC5
:1020D0008093E8008091E80080FFFCCF80910001B0
:1020E0008093F1008091E8008E77D9CF80913602FD
:1020F000813209F05CCF8091E800877F8093E8000F
:102100000E94810A809139028093320250CF8091DF
:102110003602813A09F04BCF8091E800877F8093A7
:10212000E8008091E80080FFFCCF80913202D8CF98
:10213000803889F0823841F580913A028F7087307B
:1021400018F58093E9008091EB0085FB882780F9E2
:102150001092E90006C08091330290914A039111D8
:1021600082609091E800977F9093E8008093F1005F
:102170001092F1008091E8008E7723C0811116C083
:1021800080913802813011F18091E80083FF0AC00C
:102190008091E800877F8093E8008091EB00806267
:1021A0008093EB00AA96E3E00C94B731823061F79C
:1021B00080913802882389F01092E9008091E8002C
:1021C000877F8093E8000E94810ADECF81E0933010
:1021D00009F080E080934A03EFCF80913A028F703C
:1021E0002FEF280F263080F68093E9002091EB0036
:1021F00020FFE2CF933031F48091EB008062809336
:10220000EB00DACF9091EB0090619093EB0021E02E
:1022100030E0A90102C0440F551F8A95E2F74093B0
:10222000EA001092EA008091EB008860E8CF81110B
:10223000ABCF109138021F778091E3008078812B1B
:102240008093E3008091E800877F8093E8000E94FC
:10225000810A8091E80080FFFCCF8091E3008068D4
:102260008093E30083E0111101C082E08093BD05FB
:102270008BCF8058823008F087CF40913802509140
:1022800039024C3D83E0580799F583E08A838AE25E
:1022900089834FB7F894DE01139620E03EE051E2C7
:1022A000E32FF0E050935700849120FF03C0829504
:1022B0008F703F5F8F708A30C8F0895C90E08D939B
:1022C0009D932F5F243161F74FBF8091E800877F96
:1022D0008093E8006AE270E0CE0101960E94280A2D
:1022E0008091E8008B778093E8004ECF805DE6CF49
:1022F00080913A0290913B02252F332723303105FC
:1023000009F44AC078F52130310509F479C08BE52C
:1023100090E0EDE8F1E02230310509F035CF209171
:10232000E800277F2093E80020913C0230913D0295
:102330008217930708F49C0140E02115310509F04C
:1023400064C0411162C08091E80082FDC9CF8091D4
:10235000BD05882329F2853019F28091E80083FFBA
:10236000F2CFBECF2132310509F43BC02232310514
:1023700009F00ACF8330910508F006CFFC01EE0F7B
:10238000FF1FE054FE4F0190F081E02D83549E4FDB
:10239000DC018C9190E011C0CA019927413089F08D
:1023A00082309105B1F0892B09F0EECEECE2F2E03B
:1023B000E4918E2F90E0ECE2F2E0009709F4E4CE95
:1023C000AECFEAE1F2E0E4918E2F90E0EAE1F2E0B4
:1023D000F4CFEAEFF1E0E4918E2F90E0EAEFF1E044
:1023E000ECCF8330910508F0CFCEFC01EE0FFF1F3C
:1023F000EA53FE4F0190F081E02D89E090E08FCF0D
:1024000082E190E0E8EEF1E08ACF8091BD0588237B
:1024100009F466CF853009F463CF8091E80083FD2D
:102420005FCF8091E80082FD8ECF8091E80080FF31
:1024300084CF9091F3008091F2002115310519F0BD
:102440008830910550F041E0089709F040E0809114
:10245000E8008E778093E80070CF44914093F100BC
:102460003196215031090196E8CF803809F08CCEA1
:102470008091E800877F8093E80080913402809308
:10248000F10078CE811180CE10913802123008F020
:102490007BCE8091E800877F8093E8001093340220
:1024A0000E94810A1123D1F084E08093BD0542E0AF
:1024B00061EC81E00E94620B42E261EC84E00E94E8
:1024C000620B42E261EC82E00E94620B42E260EC4D
:1024D00083E00E94620B8091BD0556CE8091E3009F
:1024E00087FDE2CF81E0E1CF809325060E94A10F16
:1024F0000895A2E2B0E0EFE7F2E10C949931409147
:102500006106509162066091630670916406809145
:102510006506909166060E946F18209361063093BD
:102520006206409363065093640660936506709359
:10253000660686E0E1E6F6E0DE01179601900D9270
:102540008A95E1F7809163061091640611951987C9
:102550008A8796E0FE013796DE011D9601900D9266
:102560009A95E1F796E0FE013D969E012F5F3F4F61
:10257000D90101900D929A95E1F796E0F901A1E653
:10258000B6E001900D929A95E1F796E0E1E6F6E06B
:10259000DE01599601900D929A95E1F760916506DA
:1025A0009091660646E0FE017996DE01179601904D
:1025B0000D924A95E1F740916701022FF32E4423D3
:1025C00059F1992781950CF490959C01990F440B32
:1025D000550B2F8F38A349A35AA3CA01B9010E94F2
:1025E0008F322AE939E949E95EE36F8F78A389A33D
:1025F0009AA36F8D78A189A19AA10E94F3326F8F5F
:1026000078A389A39AA36F8D78A189A19AA10E942A
:102610005732912F80E010E019878A876B879C875B
:1026200086E0FE013796A02FBF2D01900D928A956E
:10263000E1F786E0E02FFF2DDE01539601900D9229
:102640008A95E1F786E0FE017396DE011796019008
:102650000D928A95E1F786E0FE013796A1E6B6E095
:1026600001900D928A95E1F746E050E06DE373E04A
:1026700081E696E00E94F931892B79F0E091EA0534
:10268000F091EB05309749F082E080936106048079
:10269000F581E02D81E696E009951092630610928F
:1026A0006406109265061092660686E0E1E6F6E0A2
:1026B000ADE3B3E001900D928A95E1F7A296E5E0D3
:1026C0000C94B5310F931F93CF93DF938B01D82FC9
:1026D000C92F0E946C09A8016D2F7C2F88E090E023
:1026E0000E943532DF91CF911F910F910895E0E262
:1026F000F6E083E0808311828FEF828380EA838318
:102700001482EDE1F6E082818360828363E070E011
:102710008FEF90EA0E9462130895A4E0B0E0E3E92D
:10272000F3E10C949C3180912406833018F48F5F80
:10273000809324068091200690912106A091220684
:10274000B0912306BC01CD010E9462132496E2E001
:102750000C94B831A4E0B0E0E0EBF3E10C949C31D0
:1027600080912406882319F081508093240680915B
:10277000200690912106A0912206B0912306BC016B
:10278000CD010E9462132496E2E00C94B831A7E0D8
:10279000B0E0EDECF3E10C949431E82ED62EF42E5B
:1027A000C22E8091200680FF55C0982F9695E92F64
:1027B000F0E0E453FE4F208120931D068E7F82308F
:1027C00009F052C080EA841708F440EA9E012F5FA6
:1027D0003F4F6D2D8E2D0E94E0088091200680FFD6
:1027E00014C04B8159816A81809103019091040149
:1027F000282F30E0F901EE0FFF1FE20FF31FE85A18
:10280000FD4F891758F10E94280C809121068E11E6
:1028100008C0809122068D1104C0809123068F1577
:1028200029F080911F06826080931F06E0922106A6
:10283000D0922206F0922306CC2061F080912006EF
:1028400090912106A0912206B0912306BC01CD01F2
:102850000E9462132796EAE00C94B03161835083A2
:1028600042838F5F3396CDCF223079F6EEEFE90FBA
:102870009170A92EE695F0E0E654F84FE491B12C62
:102880000E2F10E060910501B61608F0BCCF2B2D7D
:1028900030E0B09EC001B19E900D112470E00E9406
:1028A00078318E2DA11017C0860F90910301A901D8
:1028B000490F511D9A01220F331F240F351F285A2B
:1028C0003D4F4F2D90EA9F1508F440EA6D2D0E9470
:1028D000E008B394D7CF861BE8CFE0E2F6E0818131
:1028E00021E043816281885F0E94C7130895E0E27E
:1028F000F6E0818121E04381628188500E94C71304
:102900000895E0E2F6E0628121E1620F08F46FEFE2
:1029100021E0438181810E94C7130895E0E2F6E03F
:10292000628121E1621B08F460E021E04381818142
:102930000E94C7130895E0E2F6E0438121E1420FCF
:1029400008F44FEF21E0628181810E94C71308954E
:10295000E0E2F6E0438121E1421B08F440E021E09F
:10296000628181810E94C713089520E00E94C713ED
:102970000895A4E0B0E0EFEBF4E10C949C31909169
:10298000200690FF27C0882349F18C3048F58F77C7
:10299000880F909120069170892B8093200680915A
:1029A0001F06816080931F06662361F080912006D8
:1029B00090912106A0912206B0912306BC01CD0181
:1029C0000E946213409123066091220680912106A5
:1029D0000E94B5142496E2E00C94B83181E0D8CF7F
:1029E0008BE0D6CF8091200686958F5F8C3008F0E3
:1029F00081E061E00E94B9140895909120069695B7
:102A00008FEF890F913009F48BE061E00E94B914D7
:102A100008958091200680FF08C0869582588F77A0
:102A2000893018F40E94F214089561E082E00E9457
:102A3000B9140895882381F062E283E290E00E9455
:102A4000233267E084E290E00E94233263E185E272
:102A500090E00E94233208956FEF83E290E00E949D
:102A600023326FEF84E290E00E9423326FEFEFCFCA
:102A70001F93CF93DF93962F122F632F8530D8F4B7
:102A80009A30C8F44730B8F4C42FD0E0CC0FDD1F23
:102A90002EE0929FC00DD11D11249CE8899FC00D8E
:102AA000D11D1124CE0187960E942332612FCE01C1
:102AB00088960E942332DF91CF911F910895AF92A3
:102AC000BF92CF92DF92FF920F931F93CF93DF932A
:102AD000A12CB12C00E0650110E013C0FE0125918E
:102AE00034914F2D612F802F0E9438152296F39438
:102AF00087E0F812F3CF87E0C80ED11C1F5F1A30B1
:102B000039F0E601CC0FDD1FC05DDD4FF12CE6CFC3
:102B10000F5F86E4A80EB11C0530E9F6DF91CF9176
:102B20001F910F91FF90DF90CF90BF90AF900895CD
:102B3000CF93DF93C3EED2E060E0CE010E94233258
:102B40002196C11584E0D807B9F7DF91CF91089598
:102B500080E00E941A1560E086E290E00E94233235
:102B60000E945F150E94981581E00E941A15089531
:102B700068EE7EEF80E090E00E94413260E082E00B
:102B800090E00E94233260E083E090E00E942332D4
:102B90001092250660E084E090E00E94233264E019
:102BA00082E290E00E94233260E085E090E00E94A3
:102BB000233260E086E090E00E9423326FEF87E0EE
:102BC00090E00E94233240E050E0BA0188E090E0BB
:102BD0000E94353260E08DE090E00E94233240E0B8
:102BE00050E0BA0188E190E00E94353260E087E170
:102BF00090E00E94233240E050E0BA018CE190E086
:102C00000E94353260E070E080E290E00E94413244
:102C100040E050E0BA0188E190E00E94353280E067
:102C20000E941A150E94A81540E050E0BA018FE0FA
:102C300090E00E94353240E050E0BA0183E190E03C
:102C40000E9435320895A0E0B0E0E9E2F6E10C948C
:102C50009631FA0169017801C82F880FDD0B309792
:102C6000B1F0DE0193E0AA0FBB1F9A95E1F7A25ED7
:102C7000BE4F11968D919C91129788559A4F4C9109
:102C800050E0E417F50708F4AF010E940632CE01C8
:102C90000E940331182F8823D1F0E114F104B9F018
:102CA00083E0CC0FDD1F8A95E1F7FE01E25EFE4F67
:102CB000438150E0E416F50608F4A701C25EDE4F3A
:102CC0006C817D8168557A4FC6010E940632812F42
:102CD000CDB7DEB7E8E00C94B231A8E0B0E0E3E7AE
:102CE000F6E10C949A318091950590919605A0910A
:102CF0009705B0919805BC01CD010E94040A11E02E
:102D0000643671058105910550F10E94F40B88230A
:102D100059F10E94E409462F572FBC014E5F5F4FC7
:102D20006F4F7F4F49835A836B837C8300E010E0B1
:102D300020E030E044E050E0BE016F5F7F4F84E070
:102D40000E942316182F882351F00E94E4096093F3
:102D50009505709396058093970590939805812F1C
:102D60002896E4E00C94B6310E94E4096D837E83DA
:102D70008F8398874091C5055091C6056091C7051E
:102D80007091C8058D819E81AF81B885480F591F0C
:102D90006A1F7B1FC3CFA5E0B0E0E1EDF6E10C9424
:102DA0009031762E6A014901580101E010E09E0140
:102DB0002F5F3F4F40E050E060E070E00E9423163C
:102DC000182F8823B9F1D6018D919D910D90BC915A
:102DD000A02DBC01CD010E94040A698064367105F2
:102DE0008105910530F4B701C5010E948809861557
:102DF00009F18701940140E050E060E070E0872D28
:102E00000E942316182FB701C5010E948809861554
:102E100031F010E0812F2596EEE00C94AC3111706A
:102E20001123C1F30E94E409F60160837183828358
:102E30009383F0CFA701B501C4010E940632EACF07
:102E4000A5E0B0E0E6E2F7E10C9496316B0185E095
:102E5000E82EF12C09EA15E09E012F5F3F4F44EA6E
:102E600055E061E080E00E94CB16882349F095E0B0
:102E7000FE013196AFE9B5E001900D929A95E1F728
:102E800095E0EFE9F5E0D60101900D929A95E1F712
:102E90002596E8E00C94B231AAE0B0E0E2E5F7E173
:102EA0000C949431F82E6D837E83A42ED22EE32EC3
:102EB000B02EC12EAD81BE818D919D910D90BC91A2
:102EC000A02DBC01CD010E94040A64367105810564
:102ED000910510F4AA20A9F000E010E020E030E015
:102EE0004B2D5C2D6D2D7E2D8F2D0E94231688235A
:102EF00049F00E94E409ED81FE8160837183828341
:102F0000938381E02A96EAE00C94B031A8E0B0E027
:102F1000ECE8F7E10C949A3125E0E0E2F6E0CE012E
:102F20000196DC0101900D922A95E1F730911D0682
:102F300020911E0650911F063E832F83588741E043
:102F40009C01511101C040E008E010E061E975E02A
:102F500085E00E944C17811110921F062896E4E02C
:102F60000C94B631A1E0B0E0E8EBF7E10C949A31B3
:102F700080918C0589832091BC0530E090E041E090
:102F80002817390709F440E001E010E09E012F5FA7
:102F90003F4F6DE875E086E00E944C172196E4E013
:102FA0000C94B631A4E0B0E0E8EDF7E10C949A316E
:102FB00089836A834B831C8204E610E024E030E0BE
:102FC000AE014F5F5F4F60E084E10E94372F24968F
:102FD000E4E00C94B63180916701882331F047E634
:102FE00069E98BE20E94D21708958091670647EC49
:102FF0006BE18823B9F341E265EA89EDF3CFCF9322
:10300000C82F0E9489068230F9F088F4811116C019
:1030100040E56AEA83E70E94B5148091660188233F
:1030200021F181E0809367010E94EB1704C0833097
:1030300079F0843089F08C2FCF91089540E56FEFBF
:103040008CEF0E94B514F7CF40E56FEF80E5F9CF24
:1030500040E56FEF80EAF5CF40E56FEF8AED0E9423
:10306000B51480916601882331F310926701DCCF9B
:103070000E94FF17809326060E94A10F089521E069
:1030800030E001C0220F8A95EAF780912606822B54
:103090000E943818089521E030E0A90102C0440FD1
:1030A000551F8A95E2F7CA018095909126068923DB
:1030B0000E943818089580912606982F96709630B1
:1030C00021F488600E9438180895877FFBCF0E9402
:1030D000262E40E060E080E00E94D2170895A1E132
:1030E000B0E0E5E7F8E10C9496314C87888B998B3A
:1030F000F52EC62EE72E85E0D82EAE01495F5F4F34
:10310000FA012D2D11922A95E9F780913C038A301E
:1031100008F07EC004E610E025E030E064E084E1E1
:103120000E94622F9C01892B09F0E1C010923C03A0
:103130008B8587FDD7C0E894F0F880913A03909191
:103140003B03009709F0C8C08F81988540916201C8
:1031500050916301891708F073C0981B999FC001B3
:103160001124D89EF001D99EF00D1124E49FB001E6
:10317000E59F700DF49F700D1124660F672F661F79
:10318000770B7195719561957109809138039091D4
:103190003903680F791F89859A85891708F066C0F9
:1031A000981B999FC0011124A5E0A89FF001A99F39
:1031B000F00D1124E49FC001E59F900DF49F900D48
:1031C0001124880F892F881F990B919591958195CE
:1031D00091094091360350913703840F951F603851
:1031E00071050CF45AC09B012F5731095FE7C52EBA
:1031F0003093390320933803803891050CF459C07B
:103200008F57910990933703809336039FE7E92EF8
:10321000FD86CE86EF8686E0FE013C96DE011196A5
:1032200001900D928A95E1F729813A814B815C8169
:103230006D817E8180E090E06196E8E00C94B2318F
:10324000891B889FC0011124D89EF001D99EF00DE2
:103250001124E49FB001E59F700DF49F700D1124BF
:10326000660F672F661F770B71958FCF891B889F1D
:10327000C0011124A5E0A89FF001A99FF00D112421
:10328000E49FC001E59F900DF49F900D1124880FDD
:10329000892F881F990B91959CCFC62E61384FEFCF
:1032A00074070CF0A5CF9B0121583F4F41E8C42E75
:1032B0009FCF8138EFEF9E074CF481589F4F90933A
:1032C00037038093360381E8E82EA2CFE82E1092D0
:1032D0003703109236039CCF019790933B03809362
:1032E0003A0396CF6894F0F884E190E0F6CF8091AD
:1032F0003C038F5F80933C038BCF1F93CF93DF936F
:10330000282F162F80914303909144032A30C9F44B
:103310002091450380589340622F70E00E947831DD
:10332000281B822F66E00E94C331C82FC15020F4B1
:10333000DF91CF911F91089560E080E20E947D1996
:10334000F5CF2D30F9F49C012058334040914503CE
:10335000642F70E0C9010E947831481B842FA901B5
:10336000480F511D4115524018F080E020E030E038
:10337000820F932F911D80589C4F9093440380930C
:103380004303D6CF36E0FC01A2E5B2E001900D92F6
:103390003A95E1F7203E90F126E0FC0111922A9542
:1033A000E9F7C0914303D0914403111132C046E0C4
:1033B00050E0BE0182E592E00E94F9319E01205862
:1033C0003340892B89F52A5F3F4F40914503642F95
:1033D00070E0C9010E947831481B463010F4240F78
:1033E000311D211572E0370710F020E030E0205841
:1033F0003C4F30934403209343039ACFF6E02F9F32
:10340000B0011124605D7D4F46E050E00E94F03134
:10341000C8CF9E012A5F3F4FFE012E173F0739F2AA
:10342000808180958193F9CFC90145E09695879574
:103430004A95E1F741E050E0BA0102C0660F771FFC
:103440008A95E2F7CB016091820570918305862B06
:10345000972BB9016B5F7F4FE5E076956795EA950D
:10346000E1F702C0440F551F6A95E2F7842B952BB4
:103470009093830580938205A6CFFF920F931F93AD
:10348000CF93DF93EC01F62EFC0101900020E9F7C9
:103490008F0101501109C017D10728F0CDB7DEB751
:1034A000E5E00C94B5316F2D89910E947D19F3CF21
:1034B000A0E0B0E0EEE5FAE10C9496316C017B01FE
:1034C00064E670E088E70E942C2EEC0197FD11C0A5
:1034D0008601EC0CFD1CF801849164E670E00E940A
:1034E000992EEC01892B29F40F5F1F4F0E151F0534
:1034F00091F70E94B52FCE01CDB7DEB7E8E00C946E
:10350000B23180918A05882371F080918C058823DF
:1035100051F062E070E08BE891E00E94581A892B2C
:1035200011F410928C050895A4E0B0E0EAE9FAE104
:103530000C949C3180918A058823F9F00E94E4095B
:10354000DC01CB018058974CAE4FBF4F8093840570
:1035500090938505A0938605B093870580918C058F
:1035600081110BC062E070E089E891E00E94581A76
:10357000892B19F481E080938C052496E2E00C9469
:10358000B8311F921FB61F9211248F939F93AF9350
:10359000BF9380914703811113C080914A0290919B
:1035A0004B02A0914C02B0914D024196A11DB11D5C
:1035B00080934A0290934B02A0934C02B0934D0229
:1035C000BF91AF919F918F911F901FBE1F90189533
:1035D0002FB7F89480914A0290914B02A0914C022F
:1035E000B0914D022FBF0895A8E0B0E0EAEFFAE1F4
:1035F0000C948F317C01DC019C9111968C91119778
:1036000013962D913C91232B09F483C089238F3F7E
:1036100009F47FC061E0C7010E945B0E8C01F701D5
:103620008281882309F4EFC4C80182519F454097E5
:10363000D0F10031FFE51F0709F448C101312FE542
:10364000120709F44DC10E94E409609319067093B2
:103650001A0680931B0690931C06D70112968C9134
:10366000063F110509F49EC208F068C1043E110529
:1036700009F49CC208F041C10C32110509F4A3C23F
:1036800008F030C10E5111090330110508F423C2AE
:10369000882309F0A0C2F701C080D180C6010E9432
:1036A000D206182FA3C28FEF93E00E940F32811130
:1036B00030C0025193EEE92E92E0F92E01112DC097
:1036C0008091680190916901A0916A01B0916B01AC
:1036D00089839A83AB83BC83662463948AE0582EE3
:1036E00087010F5F1F4FC7010E940F3289831A8223
:1036F000882379F09FEF980F9330E8F48A836982EA
:10370000B2E0EB0EF11CC8010E940F328B838111D5
:1037100013C02896EFE00C94AB31E11434E0F306CB
:10372000C1F3C7010E940F32D70111967D018111AB
:10373000F4CF0150C3CF78018E010F5F1F4FF80106
:103740008081882369F2813009F049C091818281AA
:10375000913059F40E5F1F4F6AE070E0893311F425
:1037600060E570E00E94750F06C0923039F40E5F7C
:103770001F4F0E94D00E0F5F1F4FE1CF933029F4EF
:103780000E5F1F4F0E943A0FF6CF943019F00F5F73
:103790001F4FF1CF0E5F1F4F20E030E0A8014F5FB9
:1037A0005F4F8053990B8A30910560F021153105E8
:1037B00011F3EFE9FFE03197F1F700C0000021506D
:1037C0003109F4CF529EB001539E700D11249C011B
:1037D000260F371FD80111968C918A01DFCFE82F71
:1037E000F0E0E155F44F7490282F26952695269504
:1037F00030E0F901E156F44FC4908770D12C082EC7
:1038000002C0D594C7940A94E2F7F1E0CF22DD24F8
:10381000F901E157F44FA490B12C082E02C0B594E1
:10382000A7940A94E2F791E0A922BB24F901E15898
:10383000F44F8490912C02C0959487948A95E2F776
:10384000A1E08A229924C114D10459F5A114B1042C
:10385000E1F086EE0E94D00EB9E36AE070E0872DB9
:103860007B1203C060E570E089E30E94750F86EE6D
:103870000E943A0FC114D10429F58114910409F46E
:103880007ACF6AE070E08CE26DCFE9E360E570E04A
:1038900089E37E1619F06AE070E0872D0E94750FAB
:1038A000ECCF81EE0E94D00EA114B10491F6F9E3A1
:1038B00060E570E089E37F1619F06AE070E0872D1B
:1038C0000E94750F81EE0E943A0FD7CF81E00E94CF
:1038D0003F1803C081E00E944B180E945B1819CF6B
:1038E00082E0F5CF003E110509F460C1013E1105EB
:1038F00009F0CECE80931406AEC0043F110509F442
:103900004BC1053F110509F449C1053E110509F4F4
:10391000A0C0811160C1809128068272023CECE552
:103920001E0708F4B8CEF801E25CFC45E431F1056D
:1039300008F0B1CEEC56FC4C0C94E3310538BFE5F1
:103940001B0709F4DBC0D0F40338FFE51F0709F4B7
:1039500067C004382FE5120709F48AC002383FE532
:10396000130709F445C0882309F409C10E3DECE5AD
:103970001E0709F030C10E94B815CBCE06389FE56E
:10398000190709F4D4C00738AFE51A0709F080CE4B
:10399000882309F4BECE87E20E94D00EBFEFE8EA8A
:1039A000F1E0B150E040F040E1F700C000008CE2EF
:1039B0000E94D00E87E20E943A0F8BE10E94D00E47
:1039C0002FEF30EE80E0215030408040E1F700C022
:1039D00000008CE20E943A0F8BE10E943A0F40E512
:1039E0006FEF84EB0E94B51481E08093130691CEB3
:1039F000882309F450CE81EE0E94D00E83EE0E94FF
:103A0000D00E8FE40E94D00E8FE40E943A0F83EE16
:103A10000E943A0F81EE0E943A0FF701828138CE60
:103A2000882309F438CE81EE0E94D00E83EE0E94E6
:103A3000D00E80E50E94D00E80E50E943A0F83EE02
:103A40000E943A0F81EE0E943A0FD70112968C9194
:103A50001FCE80931806109317060093160688232E
:103A600021F081E080931506D8CF10921506EDCF96
:103A70008823E1F080911406882349F0809116068E
:103A80000E943A0F80EE0E94D00E8AE20CC0809114
:103A900018068823D1F3809116060E943A0F80EE13
:103AA0000E94D00E8CE40E94D00E33CE8AE20E9497
:103AB0003A0F8CE40E943A0F80EE0E943A0F8091F8
:103AC0001406811105C080911806882309F421CEBF
:103AD00080911606E8CF882309F4DDCD8091130686
:103AE000882309F478C00E94E81A90931206809304
:103AF00011061092130610926501A7CF882379F161
:103B000080916701811104C080916601882339F09A
:103B100010926701109266010E94EB177ECF81E040
:103B200080936701809366010E94EB178ECF8823F4
:103B3000E9F080916706882349F081E090E0909356
:103B400063018093620110926706E6CF81E090E006
:103B5000909363018093620180936706E5CF61E0F3
:103B600080E00E945206F701828107C061E080E098
:103B70000E945206D70112968C9181112CC080911F
:103B800028068272063DBCE51B0708F4C7CE0D353A
:103B9000100709F4BECD7FCD61E0E3CF62E00E9463
:103BA000520653CF64E00E94520637CFD7011296D7
:103BB0009C91882329F081E080931006992369CD98
:103BC00010921006FBCF882309F440C081E0809357
:103BD0000F0610926401D701CD90DC90C6010E94BF
:103BE000300E182F682FC6010E949B06B601812F48
:103BF0000E94220E0E945A07182FD70112962C916C
:103C0000129715963C9132953F70492F42954F700F
:103C1000483009F41DC108F08EC0443008F083C05C
:103C2000892F8F70423008F496C0907F903211F047
:103C30008295807F113009F0CEC0222309F4C5C0DF
:103C4000333008F073C00E948C0F70C010920F06C2
:103C500022CD8091200680FF24C08E7F8093200695
:103C60008091200690912106A0912206B091230612
:103C70008D839E83AF83B887BC01CD010E94621300
:103C800080911F06816080931F069FEFA0E7B2E03E
:103C90009150A040B040E1F700C000000E94280C05
:103CA00038CD81608093200661E086950E94B9142A
:103CB00030CD4DEF54E162EF74E10E94810929CDCE
:103CC00042EF54E16DEF74E1F8CF47E754E16DE660
:103CD00074E1F3CF4DE654E167E774E1EECF4EE8CF
:103CE00054E161E874E1E9CF41E854E16EE874E140
:103CF000E4CF48EA54E16BE974E1DFCF4BE954E1EA
:103D000068EA74E1DACF4AEA53E16DE873E1D5CFAE
:103D10004DE853E16AEA73E1D0CF61E081E0C6CFBC
:103D20000E940915F6CC443009F477C060E0C70161
:103D30000E945B0EEECC493009F4FFC04A5F4F7021
:103D40004230A0F7823F09F009C1892F8F712223E9
:103D500009F432C100C1082F903110F00295007FA4
:103D60002223C9F0002369F080E2810F883010F02F
:103D700011110BC080912806802B809328060E9489
:103D8000A90E812F0E94D00ED1CF80912706802BC3
:103D900080932706F4CF812F0E943A0F002331F23F
:103DA000009580E2810F883010F0111108C08091D9
:103DB00028068023809328060E94A90EB7CF809101
:103DC0002706802380932706F7CF323008F0AECF46
:103DD0000E94960FABCF222351F0332309F433CF47
:103DE000F701958190FFCDCF9F7095832CCF332322
:103DF00079F3193369F4FFEF27EE33E0F1502040F7
:103E00003040E1F700C00000812F0E943A0F8ECFB2
:103E10008FE39CE90197F1F7F5CF892F8695869579
:103E20008370882361F0813009F080CF812F9370F7
:103E3000211102C080E090E00E94CE0977CF812F4F
:103E40009370211102C080E090E00E94B8096ECF0B
:103E5000892F8370811138C0211129C0812F82954B
:103E600086958770880F880F212F2F70082E01C02C
:103E7000220F0A94EAF71071112341F04FE050E04D
:103E800001C0440F8A95EAF7142F109596959695E0
:103E900093709230A1F0812F822B933031F080917A
:103EA0002506913049F0212B82230E9474120E9432
:103EB000170C0E94C00D3ACF822B812BF6CF212BFD
:103EC000809125068227F1CF222361F190FFEFCF69
:103ED000812F829586958770880F880F212F2F70EC
:103EE000082E01C0220F0A94EAF71071112341F045
:103EF0004FE050E001C0440F8A95EAF7142F109567
:103F0000969596959370923099F0812F822B9330ED
:103F100031F080912606913041F0212B82230E94BE
:103F20003818C5CF823018F2D3CF822B812BF7CF30
:103F3000212B809126068227F2CF092F0F70222392
:103F400039F0802F0E943F18812F0E948C0FAFCF35
:103F50000E94960F802F0E944B18A9CF833F60F4D8
:103F6000803F99F0813F21F12223B9F1332391F170
:103F7000812F0E94D00E9BCF833F09F12111F6CFF4
:103F800031113CC0892F8F71E6CF222379F0323076
:103F900008F08DCF292F2F7181E090E001C0880FAC
:103FA0002A95EAF7909126068927B9CF3230F0CFCB
:103FB000892F8F71222379F20E943F1878CF80E0F9
:103FC000222309F4ACCF9F7181E001C0880F9A953C
:103FD000EAF7A5CF892F8F71EFCF332399F2893379
:103FE00069F49FEFA7EEB3E09150A040B040E1F735
:103FF00000C00000812F0E943A0F59CFEFE3FCE987
:104000003197F1F7F5CF0031FFE51F0709F462CCD6
:1040100001312FE5120709F020CB82E05CCC1F9321
:10402000CF93DF9380916006803108F04CC080917F
:104030005D06882309F447C080912A06209129064D
:1040400060915B0630915C06C0915E06D0915F0680
:10405000732F76232817B9F190E0209709F443C015
:1040600016E07F3F09F43FC0189FF001199FF00D43
:104070001124DF01A55DB94F11964C9111973413AE
:104080002CC04C91461329C012964C9112974111A5
:104090001EC013964D915C914C1B5D0B403A51052F
:1040A000E0F4809160068F70806180936006E05D2F
:1040B000F94F80818F70806180838BE596E00E944C
:1040C000F41A0E940607DF91CF911F91089501967F
:1040D000877099272813C8CFF6CF01968770992744
:1040E0002813BFCFF0CF01968770B4CFABE0B0E01C
:1040F000ECE7F0E20C9492318C0185E0F801DE01EE
:10410000179601900D928A95E1F7F801C280A3807D
:10411000B4808BE5882E86E0982E80915B06909186
:104120005C0620915E0630915F062115310509F489
:1041300010C1492F48234F3F09F40BC1D0905D06B1
:10414000A501421B530BDD2009F4D4C0F09060069A
:10415000403A510508F0AEC021815FE05F1508F4D8
:104160006BC0EC2C291313C09081981310C0C110A0
:104170001EC08F2D8F70806180936006C4010E94E5
:10418000F41A80916006F8018583E12C50C08F817C
:104190009885A114B10489F0282F29232F3F69F0B5
:1041A000E0912A062091290636E0CC20E1F08091AA
:1041B0006006816080936006E8CFCC2031F3F7CFB2
:1041C0004E2F50E03E9FF0011124E55DF94F6181D3
:1041D000691306C06081861303C062816111D5CF67
:1041E000FA013196E770E213EBCF8F8198850E9438
:1041F0007B0E292F22952F70903248F49F709923BF
:1042000011F08823A1F0805E883088F004C0225F1E
:104210002F70223028F0C8010E94F41AED2C07C03C
:104220009F70992381F3F8019581903160F78E2D6D
:104230002B96ECE00C94AE31291312C090819813A8
:104240000FC0C1100DC0F582C8010E94F41A86E0AB
:10425000F801ABE5B6E001900D928A95E1F727C031
:10426000F801808191810E948A0E882309F46DC033
:10427000CC2009F46AC080916006803270F0809191
:104280005B0690915C069A8389831B82BD82AC8217
:10429000FE82CE0101960E94F41A86E0F801ABE599
:1042A000B6E001900D928A95E1F70E940F20EE246E
:1042B000E394BDCFFFE0FF1550F08BE596E00E9440
:1042C000F41A86E0F40111928A95E9F75ECFF801BD
:1042D00021819213C5CF90819813C2CFC110C0CF56
:1042E000F582C8010E94F41A86E0F40111928A95C1
:1042F000E9F7DDCF403A510520F7CC2031F121819B
:10430000921317C09081981314C08091600680FDAD
:104310009ECF803108F49BCF8583807F803F09F456
:1043200093CF8581982F907F905F8F70892B8583A5
:104330008BCFF801808191810E948A0E8111ADCFCF
:1043400080916006816080936006C8010E94F41A23
:10435000AECFCC20D1F3F801808191810E948A0EEA
:10436000882399F39ACFA7E1B0E0E9EBF1E20C944E
:104370009B314B8B5C8B962F6D8B7E8B8F8B611162
:10438000109227061A8A85E0FE017396DE011D96BB
:1043900001900D928A95E1F79F8786E0FE013D9698
:1043A000DE01179601900D928A95E1F7CE010796EE
:1043B0000E947620811131C086E0FE013796DE0131
:1043C000119601900D928A95E1F78F819885209141
:1043D000290640912A066A857B85672BF1F089239F
:1043E0008F3FD9F030E0C90101968770992750E0DE
:1043F00084179507E9F096E0929FD001939FB00D46
:104400001124A55DB94FFE01319601900D929A9548
:10441000E1F7809329060E94060716E080912A069C
:1044200090912906891314C06796E3E00C94B73184
:10443000109228060E94AE0F1092290610922A06AA
:1044400086E0EBE5F6E0DF011D928A95E9F7E5CF1E
:10445000189FC0011124855D994F0E947620882302
:1044600019F380912A0690E001968770992780932E
:104470002A06D4CFA5E0B0E0E0E4F2E20C94983153
:10448000162FE82EF12CC701880F991F6623F9F02B
:104490008C5D9D4FFC01808191819A83898301E02D
:1044A0000B830E94E81A8160782FF701E859F94FD1
:1044B000812F8027110F182B108349815A816B811E
:1044C000892F0E94B3212596E6E00C94B431805EDA
:1044D0009D4FE0CFA1E0B0E0E0E7F2E20C9495312F
:1044E000EE24E394F12C0FEA15E09E012F5F3F4F7D
:1044F0004BE955E063E082E00E94CB16082F882349
:1045000039F1D12C80E01DC0C0909A05CD0C2C2D26
:1045100030E0A90143535A4F7A01E1E0F0E0EC0F9B
:10452000FD1FED0DF11D1081FA019081191BB12EB7
:104530001B149CF0912F17FD90E0191B111118C04E
:10454000D39490919905D916F8F281110E94010A2D
:10455000802F2196E9E00C94B131BA94F701808163
:104560008F5F808360E08C2D0E943A22802FE0CF05
:104570001F5FF70180818150808361E08C2D0E9454
:104580003A22802FDBCF9C014FB7F89480914A02EA
:1045900090914B02A0914C02B0914D024FBF821BF3
:1045A000930B0895A8E1B0E0E8EDF2E20C948F31AE
:1045B0001A821982FE01339688E0DF011D928A95E6
:1045C000E9F796E5E92E91E0F92E8E010F5F1F4F76
:1045D0002BE5C22E21E0D22E3801AA24A394B12CBF
:1045E00042E6842E41E0942EF70181917F018F3FB6
:1045F00009F441C0F894E82FE295EF70F0E021A1B2
:104600008F70A50102C0440F551F8A95E2F7CA01B9
:10461000922F982B91A392A18095892382A37894BD
:1046200000C0EBE5F1E031E0512C21912F3F09F47E
:1046300050C0A22FA295AF70A05EB0E08C9190E028
:104640002F7002C0959587952A95E2F781708111A8
:1046500040C0832F582A330F8E169F0631F7F7017B
:10466000319780818F3F11F00E94C70850EA5A9518
:10467000F1F7D8015C920F5F1F4FCE14DF0409F0F1
:10468000B3CF4AE050E0B3018EED95E00E94F931DE
:104690007C011091DD05892BF1F08AE0F301AEED8C
:1046A000B5E001900D928A95E1F781E08093C10514
:1046B0000E94E81A8093BF059093C0050E94C32210
:1046C000069708F0A0C081E090E06896EFE00C94B7
:1046D000AB3180E0BFCF8091C10581118BC00E94BA
:1046E000F40BF82EE091DD0581119FC0F0E0ED5252
:1046F000FA4F85E0A9EAB5E001900D928A95E1F7BD
:1047000065E070E089EA95E00E9488098093A80539
:104710004091D00550E06091CF0570E063537A4F2F
:10472000CE010B960E9406328B858093AF0561E027
:1047300070E0CE010B960E9488098093AE05C09070
:10474000B005D090B105E090B205F090B30580912E
:10475000C9059091CA05A091CB05B091CC05C816AA
:10476000D906EA06FB06D1F0C092C905D092CA0567
:10477000E092CB05F092CC050E94F40B81110EC0A3
:104780000E94E409C61AD70AE80AF90AC092C505C8
:10479000D092C605E092C705F092C8058091BB058E
:1047A0008823F1F080FF0DC08091B40580FF2BC1FC
:1047B0009091200691609093200660E086950E947B
:1047C000B9148091BB0581FF09C020E04091B70575
:1047D0006091B6058091B5050E94C7131092BB0584
:1047E0008091BC05882309F411C10E94941A80E0CD
:1047F00090E06BCF8091BF059091C0050E94C322CD
:10480000069708F46CCFA12FB0E0AD52BA4F85E007
:10481000EEEDF5E001900D928A95E1F71092C10559
:10482000E114F10409F04FCF5ACF198A188A9E017A
:104830002E5E3F4F83E0D9011D928A95E9F70E2F36
:1048400010E00D521A4F8091C2058A3008F09EC0C8
:104850006E01B0E1CB0ED11C40E257E1B601C801B8
:104860000E94510DBC2CED2C882309F4B4C04AE6FB
:1048700052E2B601C8010E94510D882309F4ABC071
:104880004DE656E1B601C8010E94510D882309F496
:10489000A2C046E857E1B601C8010E94510D882325
:1048A00009F499C042EB57E1B601C8010E94510DCD
:1048B000882309F490C01092C2058091D20590E03F
:1048C00045E050E06B2D7E2D8D529A4F0E94F931BC
:1048D00021E02093D105892B09F070C0F12C809143
:1048E0006501811111C080911106909112060E94FC
:1048F000C322813A9F4040F040E56FEF8CEF0E9469
:10490000B51481E08093650188E6C82E86E0D82E34
:1049100000E010E0F60181916F018823D9F08695BF
:10492000F801882309F46CC0EC5DFD4F8081918112
:104930009C878B871D860E94E81A8160782F9F874D
:104940008E87F601319710824B855C856D85892FA6
:104950000E94B3210230110509F04FC08091190661
:1049600090911A06A0911B06B0911C06BC01CD01C6
:104970000E94040A61367A4E8105910528F040E0D4
:1049800060E080E00E94D2178F2D9FCE8091C305FA
:104990009091C4050E94C322843F914008F058CFF3
:1049A0008091D105882309F499CFFE01709685E0A6
:1049B000DF011D928A95E9F71092D105A091D205E9
:1049C000B0E0AD52BA4F85E0FE01709601900D92B5
:1049D0008A95E1F784CF8091C2058F3F39F40E9418
:1049E000E81A9093C4058093C305DACF8F5F809354
:1049F000C2058A3008F461CFF2CF02E010E08ACF1E
:104A0000E05EFD4F93CF0E94B70CDBCE0E94811A6F
:104A1000EECECDB7DEB7A9970FB6F894DEBF0FBEC6
:104A2000CDBF85B7806885BF85B7806885BF84B7EF
:104A3000877F84BF0FB6F894A89580916000886145
:104A400080936000109260000FBE80E890E00FB687
:104A5000F89480936100909361000FBE85EC98E01C
:104A600090932902809328020E94D10A0E94990BF8
:104A70008091E20084608093E20078948091BD058B
:104A8000882399F08091E9001091EC001795112787
:104A900017958F70182B1092E9008091E80083FD24
:104AA0000E94B80F1F701093E90082E084BD93E06C
:104AB00095BD9AEF97BD80936E001092C505109238
:104AC000C6051092C7051092C8050E94DA0D811123
:104AD00002C00E94A8150E94F40B809306018091E9
:104AE00006018111C7C085E28093010185E28093B0
:104AF00002010E94F40B81110E9415308091060181
:104B0000811124C085E0EFEAF1E0DE019196019089
:104B10000D928A95E1F785E0FE01B196A6E5B1E038
:104B200001900D928A95E1F787E0E5EBF1E0DE0177
:104B3000119601900D928A95E1F787E0FE0131967A
:104B4000ABE5B1E001900D928A95E1F78091060105
:104B500090E0811101C095E09093DD0585E0891B0F
:104B60008093D20506E511E0ABE5EA2EA1E0FA2E2E
:104B7000D8018D918D018F3F11F00E94C708E0167A
:104B8000F106B1F70BE511E0F2E6EF2EF1E0FF2EB2
:104B9000F80181918F018F3F11F00E94C708E01644
:104BA000F106B1F78AE0E3EDF5E0DF01282F1D9271
:104BB0002A95E9F7EEEDF5E0DF011D928A95E9F718
:104BC00080E090E00E941D32883E9E4F21F40E94BA
:104BD000DA0D811102C00E94B81582E090E00E94B7
:104BE0000F3280934B0384E090E00E940F32182F25
:104BF00082E290E00E940F32982F812F9093E90576
:104C00008093E8050E94D222EFE7FBEB3197F1F7A2
:104C100000C000000E94D2228091D30580FF2CC0EA
:104C20006FEF7FEF80E090E00E94413281E080935F
:104C3000E00080E28093D8001092C9008FE19EE4EA
:104C40000197F1F700C0000087E090EBDC01809352
:104C50006A0690936B06A0936C06B0936D0688E18C
:104C60009CE00FB6F894A895809360000FBE9093D7
:104C70006000FFCF80E038CF83E090E00E940F32E9
:104C80000E947412809126060E94FF1783E0809391
:104C9000800580E2809345030E94262E6DE070E03F
:104CA00082ED98E00E94581A892B09F043C0809148
:104CB000800563E070E081FD57C18FEC98E00E94B1
:104CC000581A892BB9F56DE070E08FEB98E00E94DF
:104CD000581A892B79F50E94E4096EA37FA388A74F
:104CE00099A7DC01CB018058974CAE4FBF4F809302
:104CF000840590938505A0938605B0938705E0E829
:104D0000F3E080E092E0DF019C011D9221503040F1
:104D1000E1F7F0934403E09343038FEF9FEF909309
:104D200083058093820581E080938A0580938C05BA
:104D3000109281058091460381113DC080E090E092
:104D40000E941D32883E9E4F21F40E94DA0D81118F
:104D500004C00E94B8150E94771388E090E00E947A
:104D60001732609320067093210680932206909359
:104D7000230680911F06836080931F06623070F4C3
:104D80000E94771388E090E00E941732609320061B
:104D90007093210680932206909323060E946C094B
:104DA0008091200680FF04C060E086950E94B914BF
:104DB00081E0809346038091060191E089278093EA
:104DC000CF05492F481B40939A0580910601909387
:104DD000D00580910601909399058091060181117B
:104DE00006C084EF8093160185EF8093150182E061
:104DF0008093140180911601E82FE295EF70F0E0A6
:104E000041A18F7021E030E0B90102C0660F771F29
:104E10008A95E2F7CB01962F9095942391A392A1C6
:104E2000892B82A380911501E82FE295EF70F0E0C5
:104E300041A18F70D90102C0AA0FBB1F8A95E2F76A
:104E4000CD019A2F9095942391A392A1892B82A3AF
:104E5000EFE8F1E03197F1F700C000001091D005C4
:104E600066E171E045E151E0E8E5EE2EE3E0FE2E7B
:104E7000FB018E2F861B811708F479C00E946718EA
:104E80000E94F40B811102C00E94183060E08AE099
:104E90000E94B91481E00E94381881E090E090935C
:104EA0006301809362010E94EB1787E091E0909389
:104EB000EB058093EA05662463948091BD058530F7
:104EC000F1F48091BD05853009F479C0109228066F
:104ED0000E94AE0F0E94170C0E94C00D1092490351
:104EE00080914803882349F0809120068160809357
:104EF000200660E086950E94B9140E94EB170E947C
:104F0000D222F82E81110E94E409A3EDB5E0ECE471
:104F1000F3E000E010E0DD9081918D1579F08D25B2
:104F2000382F3170E32E311110C191E0CC24C3949D
:104F3000CE0CE92EEE0C47E0C412AFC00F5F1F4F3E
:104F40000A30110541F78FEF89838A831B820E9403
:104F5000E81A8160782F9D838C8349815A816B8107
:104F6000892F0E94B321BCC08CEC98E0A8CE01919F
:104F7000802F82958F70805E90E0DC012C91DA01A9
:104F80003D91AD01832F82958F70805E90E0DC01B2
:104F90008C9190E03F7002C0959587953A95E2F725
:104FA0008170880F30E00F7002C0359527950A9503
:104FB000E2F72170822BD7018D937D015ACF80912A
:104FC000BD05843009F43DC040E060E080E00E940F
:104FD000D21780E00E94C00D80914903811109C061
:104FE00060924903809120068170809348030E945B
:104FF000B70C0E94811A0E94791210924703E8E1CF
:10500000F0E020E40FB6F894A895E09360000FBE9E
:105010002093600083B7817F846083BF83B7816002
:1050200083BF7894889583B78E7F83BF0FB6F8943B
:10503000A895809160008861809360001092600064
:105040000FBE80914A03882309F43BCF0E94D222ED
:10505000E3EDF5E08DED95E02191211104C08E176F
:105060009F07D1F72ECF80E189BD82E189BD09B4C8
:1050700000FEFDCF8091D8008F7D8093D800809175
:10508000E00082608093E0008091E00081FDFCCF31
:10509000109228060E94AE0F14CF982F9E219923BC
:1050A00009F455C00E94F40B8823A1F0C9820A8339
:1050B000DE2081E0D11001C080E08B830E94E81ADD
:1050C0008160782F9D838C8349815A816B81892FE0
:1050D0000E94B321F801E45BFC4F80818E25808320
:1050E0000E94F40BA12CE12C8091D005A81690F120
:1050F00010918A05EE2009F4ADC00E94010A111139
:10510000AFC00E94941A0E9479120E94170C9091CD
:105110008B05891721F080938B050E94C00D80912B
:10512000BD05843009F0C9CE83E08093E900809109
:10513000E80082FFC2CE8091E80085FD9CC280918C
:10514000E8008B778093E800B8CEC12CABCF9E2DC2
:10515000EC2CECCE0A2D10E0F801EA5EFE4F408107
:10516000E42FE295EF70E05EF0E02081F801EB5E65
:10517000FE4F3081E32FE295EF70E05EF0E080813A
:1051800090E03F7002C0959587953A95E2F781705F
:10519000880F30E04F7002C0359527954A95E2F7A9
:1051A0002170822BD801A85ABC4FEC919E2F93708E
:1051B000891709F44DC0EE0FEE0FE82BEC93D801E0
:1051C000AD5EBE4FCC90B090CF05BA0CEF70F0E062
:1051D000E852FE4F0A5A1C4F8081D8019C91890FDA
:1051E0008C93D12C082E000C990B20E08C159D057A
:1051F00064F0EB2DF0E0E353FA4F80818F5F808302
:1052000060E08B2D0E943A2221E0F8018081082E77
:10521000000C990B442755274C195D09481759076D
:1052200064F0EB2DF0E0E353FA4F808181508083EE
:1052300061E08B2D0E943A2221E0D8018C91082E4A
:10524000000C990BB6010E94CF31F8018083E22A4D
:10525000A3944ACF111104C0FF2009F052CF53CFBD
:1052600080918805909189050E94C322C29750F1D0
:105270000E94E81A909389058093880560E080E099
:105280000E94A1090E94170C80935F030E94F40BF7
:10529000882309F416C12091190630911A0640910D
:1052A0001B0650911C062EA33FA348A759A7CA016D
:1052B000B9010E94040A6133754781059105D8F14F
:1052C0000E94811A80918A05882371F020918205BD
:1052D000309183052115310539F08091810561E018
:1052E00070E0882309F407C180918C058823F9F0C8
:1052F0000E94E4096EA37FA388A799A780918405E3
:1053000090918505A0918605B09187054EA15FA17A
:1053100068A579A5481B590B6A0B7B0BDB01CA01F9
:105320008F3F9F4FAF4FBF4710F40E94811AF1107B
:10533000E8CEEE2092CF0E94941A61E080E00E94B5
:10534000A10960E08CE691E00E943D1A62E080E0F5
:105350000E94A109809126060E948906833009F4E3
:1053600094C048F460E0813009F488C082E791E09D
:105370000E943D1A03C0843009F483C065E080E0D8
:105380000E94A10960E08AE891E00E943D1A66E06F
:1053900080E00E94A10960915F03669561708FE8CB
:1053A00091E00E943D1A67E080E00E94A1096091AF
:1053B0005F03617041E0642784E991E00E943D1A37
:1053C00068E080E00E94A10960915F0362FB6627AC
:1053D00060F988E991E00E943D1A60915B03709149
:1053E0005C0380915D0390915E036EA37FA388A709
:1053F00099A70E94040A6D3271408105910508F455
:1054000061CF0E94E40960935B0370935C03809317
:105410005D0390935E0380910F06811104C080911B
:105420006401811136C06DE080E00E94A10960E056
:105430008DE991E00E943D1A6AE080E00E94A10996
:10544000B1E0B093640180915A0390E001968170BD
:10545000992780935A0321E030E0281B390B40E65E
:10546000429FC001439F900D1124209115062223D5
:10547000F1F08154954F0E941E0B24CF88E791E0F4
:1054800077CF60E08EE791E073CF60E084E891E051
:105490006FCF6AE080E00E94A10960E08DE991E0B1
:1054A0000E943D1A6BE080E00E94A109CCCF2091C0
:1054B0001006222319F08150964FDDCF815C964F64
:1054C000DACF64E080E00E94A10960E083EA91E025
:1054D0000E943D1A65E080E00E94A10960E089EA2F
:1054E00091E00E943D1A69E080E00E94A1098FEDE1
:1054F00098E0C1CF8F5F082F10E02B01082E02C06B
:10550000440C551C0A94E2F7A90144215521452B6E
:1055100089F3909180059170911144C0980136955E
:105520002795369527958295880F80763FE1380F2D
:105530008093190120931C0130931A0190931D014F
:1055400024E630E047E050E067E171E088E70E9440
:10555000102F892B09F0C8CEA80125E0440F551F54
:105560002A95E1F78091800580FD24C040585C4F6A
:1055700004E610E020E230E060E488E70E94372F84
:10558000892B09F0B1CE0E94941A409450948091D6
:1055900082059091830584219521909383058093C2
:1055A0008205A2CE880F880F880F37E0380F20E0E1
:1055B00093E0BECFE0E6F3E080E2DF011D928A9542
:1055C000E9F7ECEEF1E0FFA3EEA308EE11E097E0BF
:1055D000A92E99249394AEA1BFA16D91BFA3AEA3B0
:1055E000F80181918F01840F952F911D9C01205806
:1055F0003C4F1901E62FF0E0E05AFC4F20E030E08C
:105600007A2C721AB92C022E01C0BB0C0A94EAF74C
:10561000610180E0D6019D916D019B21672D681B82
:10562000677070E0B92F062E01C0BB0F0A94EAF72D
:105630007195619571096770772701C096956A9594
:10564000EAF79B2B6081692B60838F5F883011F7AD
:105650002F5F3F4F31962830310591F6EEA1FFA123
:10566000E05FF14009F0B7CF04E610E020E230E05F
:1056700040E653E081CF0E94A00A882379F0809110
:10568000E8008B778093E800E981E150E33108F08E
:1056900087C0F0E0E855FC4C0C94E33180E2E82E42
:1056A000F12C8E010F5F1F4F8091E80085FD0AC02D
:1056B0008091E8008B778093E8000E94A00A8823FD
:1056C00099F3DDCF8091F100D8018C93B1E0EB1A12
:1056D000F108E114F10499F20F5F1F4FE5CF1A8230
:1056E00089E08B8310C08A81823099F18330D1F1B7
:1056F000813009F055C00E94E4090E94E9316B83B2
:105700007C838D839E838091BD05843009F0D5CB49
:105710008091E9001091EC001795112717958F7073
:10572000182B82E08093E9008091E80080FF0DC093
:1057300040E050E060E270E0CE0101960E94F00A85
:105740008091E8008E778093E8001F701093E90045
:10575000B4CB86E290E00E940F321B821C821D8235
:105760008E83D1CF8AE0E3EDF5E0DE011396019060
:105770000D928A95E1F7C7CF8A81823089F42B8117
:105780003C814D815E812EA33FA348A759A7CA0142
:10579000B9010E94E93186E290E00E942332B3CF42
:1057A0008FEF8983B0CF4C816B818A810E94F30D8A
:1057B0009827892798279E838D83A5CF2D813E81A9
:1057C0003227232732274C816B818A810E9438152A
:1057D0009ACF0E945F1597CF8A81823851F178F471
:1057E0008038A9F0813809F08ECF60E08B810E946B
:1057F000B9148B81811113C00E94B70C84CF8338F8
:1058000009F081CF409123066C818B8105C04B81CB
:1058100060912206809121060E94B51474CF809178
:10582000200681608093200660E086950E94B9146E
:105830006ACF8B818093240666CF8A818238D9F023
:1058400058F4803899F0813809F05DCF80912006B6
:1058500080FF0FC0869545CF833809F054CF8091E3
:1058600021068B83809122068C834DCF8091230665
:1058700038CF80E036CF8091240633CF4091200688
:105880005091210660912206709123064EA35FA3DA
:1058900068A779A7CB01BA010E94621334CF80E1D7
:1058A0008A8331CF81E08A838DE11BCFCA80DB8080
:1058B000DC24CD24DC248C817601E80EF11C8E01E1
:1058C0000B5F1F4FCE14DF0409F41DCF80E05DE1B4
:1058D000C51651E0D50628F4C6018D519D4F0E9492
:1058E0000F32D8018D938D01BFEFCB1ADB0AEACFBF
:1058F0000A811B81102701271027FE0131966F01B5
:10590000EC80EE0EFF2EF11CCE14DF0409F4FBCE6A
:105910000D31F1E01F0740F4D60114966C91C801D7
:105920008D519D4F0E9423320F5F1F4FBFEFCB1A47
:10593000DB0AEACF0E949815E6CE85E0B1CFCA8097
:10594000DB80DC24CD24DC248C817601E80EF11C84
:105950008E010B5F1F4FCE14DF0409F4D4CE80E01C
:10596000ECEBCE16E2E0DE0620F4C60187960E943C
:105970000F32D8018D938D01BFEFCB1ADB0AEBCF2D
:105980000A811B81102701271027FE0131966F0124
:10599000EC80EE0EFF2EF11CCE14DF0409F4B3CE22
:1059A0000C3BF2E01F0738F4D60114966C91C80145
:1059B00087960E9423320F5F1F4FBFEFCB1ADB0A7F
:1059C000EBCF78941F921FB61F9211248F939F9351
:1059D000AF93BF9380914A0290914B02A0914C02E9
:1059E000B0914D020196A11DB11D80934A02909382
:1059F0004B02A0934C02B0934D02BF91AF919F9187
:105A00008F911F901FBE1F9018951F920F920FB677
:105A10000F9211242F933F934F935F936F937F9334
:105A20008F939F93AF93BF93EF93FF938091E10088
:105A300082FF09C08091E20082FF05C08091E100F1
:105A40008B7F8093E1008091DA0080FF24C08091F9
:105A5000D80080FF20C08091DA008E7F8093DA002A
:105A60008091D90080FF9BC080E189BD82E189BD22
:105A700009B400FEFDCF81E08093BD058091350221
:105A8000811109C00E94D10A0E94990B8091E20005
:105A900084608093E2008091E10080FF17C08091D4
:105AA000E20080FF13C08091E2008E7F8093E200CD
:105AB0008091E20080618093E2008091D800806252
:105AC0008093D80019BC85E08093BD058091E100EA
:105AD00084FF29C08091E20084FF25C080E189BD58
