:100000000C9444060C9461060C9461060C94A02E8A
:100010000C9461060C9461060C9461060C946106C4
:100020000C9461060C9461060C94E02B0C94B82C93
:100030000C94671F0C9461060C9461060C94610685
:100040000C9461060C9461060C9461060C94610694
:100050000C9461060C94BC2B0C9461060C94610604
:100060000C9461060C9461060C9461060C94610674
:100070000C9461060C9461060C9461060C94610664
:100080000C9461060C9461060C9461060C94610654
:100090000C9461060C9461060C9461060C94610644
:1000A0000C9461060C9461060C94610605010980AC
:1000B000A101850319012AB700150126B700950192
:1000C00075108100C0050C0901A101850419012AE0
:1000D000A002150126A002950175108100C005013E
:1000E0000906A1018506050719E029E71500250184
:1000F0009508750181020507190029EF15002501F2
:1001000095F075018102050819012905950575010C
:100110009102950175039101C00660FF0961A1017B
:100120000962150026FF00952075088102096315F4
:100130000026FF00952075089102C005010906A15F
:1001400001050719E029E7150025019508750181CA
:10015000029501750881010507190029FF15002680
:10016000FF00950675088100050819012905950508
:1001700075019102950175039101C000AF00AE09B0
:10018000025B00030100A0FA090400000103010161
:100190000009211101000122400007058103080028
:1001A00001090401000203000000092111010001FE
:1001B0002222000705820320000107050303200017
:1001C00001090402000103000000092111010001DE
:1001D000226D0007058403200001120100020000C7
:1001E000000832FC87120200010200011E035300C6
:1001F0006F006C00610072006900750073005F00A1
:1002000053006F0066006C006500000010034B0097
:10021000650079006800690076006500000004034D
:10022000090407087F0807003E5B4F5B3E003E6BFA
:100230004F6B3E001C3E7C3E1C00183C7E3C180070
:100240001C577D571C001C5E7F5E1C0000183C186C
:100250000000FFE7C3E7FF00001824180000FFE7D5
:10026000DBE7FF0030483A060E00262979292600F0
:10027000407F05050700407F05253F005A3CE73CCD
:100280005A007F3E1C1C0800081C1C3E7F001422E4
:100290007F2214005F5F005F5F0006097F017F001F
:1002A000006689956A0060606060600094A2FFA2A9
:1002B000940008047E04080010207E201000080826
:1002C0002A1C0800081C2A0808001E101010100024
:1002D0000C1E0C1E0C0030383E383000060E3E0E50
:1002E000060000000000000000005F0000000007A2
:1002F00000070000147F147F1400242A7F2A1200B4
:100300002313086462003649562050000008070392
:100310000000001C224100000041221C00002A1C99
:100320007F1C2A0008083E0808000080703000008A
:100330000808080808000000606000002010080499
:1003400002003E5149453E0000427F400000724994
:10035000494946002141494D33001814127F1000CD
:100360002745454539003C4A494931004121110999
:100370000700364949493600464949291E00000010
:100380001400000000403400000000081422410066
:100390001414141414000041221408000201590915
:1003A00006003E415D594E007C1211127C007F49CF
:1003B000494936003E41414122007F4141413E00D2
:1003C0007F49494941007F09090901003E414151E6
:1003D00073007F0808087F0000417F410000204033
:1003E000413F01007F08142241007F40404040000F
:1003F0007F021C027F007F0408107F003E414141C4
:100400003E007F09090906003E4151215E007F0937
:100410001929460026494949320003017F0103009A
:100420003F4040403F001F2040201F003F403840D9
:100430003F00631408146300030478040300615947
:10044000494D4300007F4141410002040810200053
:10045000004141417F00040201020400404040404D
:1004600040000003070800002054547840007F2813
:1004700044443800384444442800384444287F0029
:1004800038545454180000087E09020018A4A49C93
:1004900078007F080404780000447D40000020407C
:1004A000403D00007F102844000000417F400000D4
:1004B0007C04780478007C080404780038444444C0
:1004C0003800FC182424180018242418FC007C0888
:1004D0000404080048545454240004043F442400F5
:1004E0003C4040207C001C2040201C003C40304010
:1004F0003C004428102844004C9090907C004464B8
:10050000544C440000083641000000007700000011
:100510000041360800000201020402003C262326A6
:100520003C00000000000000404040F0F8F8FF38B8
:10053000FFF8F83FF8F8FF38FFF8F8F040404000C7
:10054000000000000080C0C0C0800000C0C080006B
:10055000000080C0C000C0C0000080C0C00000001B
:100560000000C0C0C0C0C000C0C00000000000004B
:10057000000000000000000000000000000000007B
:10058000000000000000000000000000000000006B
:10059000000000000000000000000000000000005B
:1005A00000C0F0F8FC3E1E06010000007F41414102
:1005B0007F007F4141417F000080C0E07E5B4F5B58
:1005C000FEC00000C000DCD7DEDEDED7DC00C000ED
:1005D000000000000000000000000000000000001B
:1005E0000000000000000000494949FFFFFFFFE054
:1005F000DFBFBF00BFBFDFE0FFFFFFFF494949008A
:10060000000000001F3F6060E0BF1F007F7F071EEB
:10061000381E077F7F007F7F0E1F3B716000000048
:1006200000007F7F0C0C0C007E7E007F7E030300A9
:100630007F7E03037E7E03037F7E000F3E703C06B9
:100640003C703E0F00327B49493F7E007F7E0303B2
:10065000001E3F69696F26000000000000000000D6
:1006600000030F1F3F3C7870600000007F41414154
:100670007F007F4141417F00307B7F7830202030F8
:10068000787F3B0003000F7F0F0F0F7F0F000300E9
:10069000000000000000000000000000000000005A
:1006A0000000000000000000010101070F0F7F0F94
:1006B0007F0F0F7E0F0F7F0F7F0F0F0701010100CC
:1006C0000000000000000000000101000000000028
:1006D000000000000000000000000000000000001A
:1006E000000000000000000000000000000000000A
:1006F00000000000000000000000000000000000FA
:1007000000000000000000000000000000000000E9
:1007100000000000000000000000000000000000D9
:1007200000000000000000000000000000000000C9
:1007300000000000000000000000000000000000B9
:1007400000000000000000000000000000000000A9
:100750000000000000000000000000000000000099
:1007600000001C1004010D190A24232221201F1E41
:100770001D1B1A18171615141312110F0E0C0B0946
:10078000080706050302002D3945483C303F252661
:100790002728292A2B2C2E2F31323334353637385F
:1007A0003A3B3D3E4041424344464749FFAA7F55BC
:1007B00040000101010101010101010202020202E6
:1007C00002020202030303030303030304040404F9
:1007D00004040405050505050606060606070707C1
:1007E000070708080808090909090A0A0A0B0B0B78
:1007F0000C0C0C0D0D0D0E0E0E0F0F0F1010111115
:100800001112121313141415151616171718181998
:10081000191A1A1B1B1C1D1D1E1E1F2020212222FF
:10082000232424252626272829292A2B2C2D2D2E42
:100830002F30313232333435363738393A3B3C3D5C
:100840003E3F404142434445464748494A4C4D4E4D
:100850004F50515354555658595A5B5D5E5F616213
:1008600064656668696B6C6D6F7072737577787AA2
:100870007B7D7E8082838587888A8C8E8F919395FD
:1008800096989A9C9EA0A2A3A5A7A9ABADAFB1B321
:10089000B5B7BABCBEC0C2C4C6C9CBCDCFD1D4D601
:1008A000D8DBDDDFE2E4E7E9EBEEF0F3F5F8FAFDA3
:1008B000FF00DA02815AD9F1DB20A4A62EAF00A0F6
:1008C000C000A1C800AED580A81FD300408D142061
:1008D0000057504D3A200000000000E0100808C802
:1008E000B08080808080808040403C140408901854
:1008F0000408B040800000000000000102C4A4FC15
:10090000000000008000000000000000000080C81F
:1009100058282A100F000000000000000E090404EF
:10092000040402030201010202040810262B32040F
:1009300005060000000000000000E01010F00000BC
:100940000000000000008080807828081020300817
:10095000102040800000000000000304081011F97E
:100960000101010101010000000000000000011070
:10097000B05055201F0000000000000000000000E3
:1009800001020C10202837021E2020180C141E0112
:100990000000000000000000000000008040201067
:1009A000909090A0C080808070081408901010086B
:1009B000A478800000000000000000000708FC018F
:1009C0000000000080000001000000000000081886
:1009D000EA100F0000000000000000000000031CEF
:1009E00020203C0F111F03061820203C0C121E0172
:1009F0000000000000000000000000000080402017
:100A00002020408000000000E0102810202020104E
:100A100048F0000000000000000000001F20F80265
:100A2000010101010101010300000000010010307B
:100A3000D5201F00000000000000000000003F2043
:100A4000300C020509121E021C140810202C320161
:100A50000000000000000000000000000000000096
:100A60000000000000E01C02050224040402A91E8C
:100A7000E0000000000000000000000000E010089E
:100A80006810080403000000000000000206827CD9
:100A9000030000000000000000000000000102044C
:100AA0000C1010202020283E1C20203E0F111F007B
:100AB0000000000000000000000000000000000036
:100AC0000000000000E01C02050224040402A91E2C
:100AD000E00000000000000000000000E0900818A6
:100AE000601008040300000000000000020E827C79
:100AF00003000000000000000000000000010204EC
:100B00000C1010202020283E1C20203E0F111F001A
:100B10000000000000000000C02010D030000000E5
:100B2000000000008080403C14040890180408B0C5
:100B300040800000000000000304081011F90101CA
:100B4000010101010000000000000080C848282ABF
:100B5000100F000000000000000000000000010273
:100B60000C102028370202040810262B3204050638
:100B70000000000000000000E01010F00000000085
:100B800000000000808040402C14040890180408E5
:100B9000B0408000000000000304081011F90101BA
:100BA00001010101000000000000000080C0482891
:100BB0002A100F204A091000000000000000010266
:100BC0000C102028370202040810262B32040506D8
:100BD0000000000000000000000000000000000015
:100BE0000000000000000000000000000000000005
:100BF00000000000000000000000007E0F00D4FF95
:100C0000FFFFC70000007800000000000000002A7D
:100C10002B28000000000000000000000000000081
:100C2000000029000000002C1E342021222434263C
:100C300027252E362D3738271E1F20212223242535
:100C4000263333362E37381F0405060708090A0BEA
:100C50000C0D0E0F101112131415161718191A1B5C
:100C60001C1D2F3130232D350405060708090A0BFA
:100C70000C0D0E0F101112131415161718191A1B3C
:100C80001C1D2F3130354C0011241FBECFEFDAE090
:100C9000DEBFCDBF12E0A0E0B1E0E2E6F2E602C0C6
:100CA00005900D92AA32B107D9F726E0AAE2B2E088
:100CB00001C01D92A53EB207E1F70E9443220C94A9
:100CC000FD300C940000982F82958F70882311F0CE
:100CD000982F84E0292F26952695222311F08E5FE8
:100CE000922F969591118F5F08958093A70608958E
:100CF000292F9A3098F5873088F590E037E0239FC8
:100D0000800D911D1124282F277041E001C0440F50
:100D10002A95EAF723E0969587952A95E1F7FC0155
:100D2000EE0FFF1FE80FF91FEB5BF94F20E030E0FB
:100D300070E05191DF011197CB01022E02C0969510
:100D400087950A94E2F7817081958527842385270A
:100D50008C932F5F3F4F2330310559F70895292F8A
:100D60009A3078F5873068F590E037E0239F800D62
:100D7000911D1124682F677023E0969587952A9519
:100D8000E1F7FC01EE0FFF1FE80FF91FEB5BF94FD6
:100D900040E050E080E0219130E0062E02C0369520
:100DA00027950A94E2F721703327042E01C0220F01
:100DB0000A94EAF7822B4F5F5F4F4330510559F792
:100DC000089580E008958091AC069091AB06981349
:100DD00001C008958F5F8770FACF2091600622FFCF
:100DE00006C0982F98719830C1F4877F84609091E5
:100DF0006106392F3170927023FF21C0482F48714E
:100E0000483191F4877E84619923B1F0982F9171D4
:100E1000913191F48E7E88610FC0982F9471943037
:100E200031F78B7F8860E3CF482F4471443139F428
:100E30008B7E8861911118C024FD877E089533232D
:100E400069F0382F3871383019F4877F8160DCCF32
:100E5000382F3171313011F48E7F8860992361F31E
:100E6000982F9871983191F6877E8161E5CFCF9365
:100E7000DF93EC01803E910509F46FC080F581336A
:100E8000910509F4B4C088F48932910509F4A4C02D
:100E90008A32910509F4B2C0019781F1CE0104971D
:100EA000813A910508F065C029C08933910509F49C
:100EB00048C08238910509F444C08533910509F48E
:100EC00086C08D3C910508F0E4C0883A910508F091
:100ED0009CC0853A910510F3A497D0640FC0843E5E
:100EE000910509F459C070F4823E910509F444C09B
:100EF000833E910509F445C0C1EED0E0CE01DF91FB
:100F0000CF910895863E910509F451C0873E910521
:100F100009F452C0811522E5920708F097C08115A7
:100F200040E5940708F481C08F710E94ED0635E01A
:100F3000D695C7953A95E1F7CF709C2FEC01D06913
:100F4000DDCF8091600683708111F7C080916106CA
:100F500083FFD4CFC9E2D0E0D1CF8091600680FD7D
:100F600043C09091610690FFC9CFC3EED0E084FFEB
:100F7000C5CFC0E0D0E0C2CF8091600682FDF5CF42
:100F8000BDCF8091600682FDD5C09091610690FD35
:100F9000D4C084FFB3CFEDCF8091610681FFAECF87
:100FA00080916006C7EED0E084FDE3CFA7CF8091AB
:100FB000600683FDF7CFA2CF8091600683FDC0C09D
:100FC0009091610691FFE5CFC4EED0E097CF80917C
:100FD000600685FF93CFBECF8091600685FDB3C0CC
:100FE0008091610683FF8ACFC9E3D0E087CF8091EB
:100FF000600686FF83CFCAE2D0E080CF8091600692
:1010000086FF7CCFC1E3D0E079CF885A9109499718
:1010100008F0AFCFC85AD0E0CC0FDD1FC151DE4F72
:101020000990D881C02DD46469CF8115904498F57A
:10103000C11580E2D80708F070C0C83ED10508F499
:1010400085C0CE019A958F3F9E412CCF803642E5D8
:10105000940778F4803452E59507A8F5C03282E50C
:10106000D807E0F0CF71D0E0DC2FCC27C16FD06A79
:1010700045CF803822E59207D8F1805C9245809771
:1010800008F077CFDC2FCC27CC27DF71C06FD06A78
:1010900035CFD06533CFDF70D06A30CF8C2F8695B7
:1010A000869540E2849FC0011124C37021E030E0A6
:1010B000A90102C0440F551FCA95E2F7EA01C82BE7
:1010C000D92BDD681BCF86958695877050E2859F6A
:1010D000C0011124C37021E030E0A90102C0440F17
:1010E000551FCA95E2F7EA01C82BD92BDC6806CF59
:1010F00086958695877050E2859FC0011124C37044
:1011000021E030E0A90102C0440F551FCA95E2F763
:10111000EA01C82BD92BDA68F1CE8D2F8F710E948E
:10112000ED0690E0982F882788279F718C2BEC0183
:10113000D062E4CEC2EED0E0E1CEC0EED0E0DECEB2
:10114000C6EED0E0DBCEC5E3D0E0D8CEC5EED0E031
:10115000D5CE80E00895F894E82FE295EF70F0E0A6
:1011600041A18F7021E030E0B90102C0660F771F06
:101170008A95E2F7CB01962F9095942391A392A1A3
:10118000892B82A378940895A0E0B0E0EAECF8E01F
:101190000C94D72FE901E42FF0E0EF54F84F6111E0
:1011A0000BC0E4919E2F8E2F8983E8839A83CDB75D
:1011B000DEB7EAE00C94F32F282F30E0062F10E082
:1011C000F491EF2F86E0829F6001839FD00C112461
:1011D000EE24EA94F12CC601B7010E94BB2F220F26
:1011E000331F45E5469FC001479F900D1124281BE2
:1011F000390B822F880F280FC701801B910BF89F96
:10120000A001F99F500D1124952F209F5001219F7F
:10121000B00C1124AB2CBB24D701AA19BB095D016A
:10122000FA9DD001FB9DB00D11248B2F5701A21AFE
:10123000B1089501209F5001219FB00C309FB00C48
:101240001124AB2CBB24EA18FB08FE9D9001FF9DE6
:10125000300D112463307105C9F01CEFC11613E085
:10126000D10650F46130710509F49ECF62307105EA
:1012700089F08E2FE32F98CF6430710571F06630BE
:101280007105B9F3E52F9B2F8F2F8ECFEB2F852F75
:101290009F2F8ACF852F932F87CF832FE52FF8CFCE
:1012A0008091A206823060F4817082608093A206F1
:1012B0008091A506813A18F080EA8093A5060895EA
:1012C0008831B0F381708661F1CFFA01882311F083
:1012D00009950895FB01FCCFFC01680F791F8FEF82
:1012E00091E3E617F70709F408952191822728E092
:1012F00030E087FF08C0880F892721503109211568
:101300003105B9F7EECF880FF8CF20917E0336E094
:10131000839FC0011124269F800D911D11248115EA
:1013200022E0920714F080E090E082539C4F90936B
:101330007D0380937C030895A3E0B0E0E2EAF9E046
:101340000C94DF2F9C0180918A0290918B0282176E
:101350009307A1F030938B0220938A02E091230639
:10136000F0912406309751F083E089833B832A83F0
:101370000680F781E02DCE01019609952396E2E0E3
:101380000C94FB2FA3E0B0E0E8ECF9E00C94DF2F25
:101390009C01809188029091890282179307A1F0A5
:1013A0003093890220938802E0912306F09124066D
:1013B000309751F084E089833B832A830680F7814C
:1013C000E02DCE01019609952396E2E00C94FB2FC7
:1013D0009C01809167018823C9F08091600687FF96
:1013E00015C0862F869586958695603FE0F4F901B5
:1013F000E80FF11D677081E090E001C0880F6A95E9
:10140000EAF780959281892382830895F9013296C3
:10141000285F3F4F8191681303C0DF0111971C9231
:10142000E217F307B9F70895A4E0B0E0EAE1FAE0C3
:101430000C94DF2F8FB7F8942091840230918502AD
:10144000409186025091870229833A834B835C83C3
:101450008FBF69817A818B819C812496E2E00C9414
:10146000FB2F0E94140A0895A4E0B0E0EAE3FAE03A
:101470000C94DD2F462F572FBC012FB7F894809185
:10148000840290918502A0918602B09187022FBFBD
:101490008C019D01041B150B260B370BC901B801EC
:1014A0002496E4E00C94F92F809183020895089526
:1014B000FC019B018091610290916202861797075F
:1014C00040F0672B29F48091E8008E778093E80044
:1014D000C90140E0009741F4411106C08091E80045
:1014E00082FF2FC080E00895209121062223A9F1D8
:1014F0002530A9F12091E80023FD2DC02091E800BE
:1015000022FDECCF2091E80020FFE4CF3091F300E2
:101510002091F200009719F02830310558F041E091
:101520002830310509F040E02091E8002E77209323
:10153000E800D0CF41914093F10001972F5F3F4FDA
:10154000E9CF80912106882341F0853041F08091D8
:10155000E80083FFC3CF81E0089582E0089583E02F
:10156000089580915B0287FF13C08091E80082FF9D
:1015700006C08091E8008B778093E80004C08091DA
:1015800021068111F2CF0895809121068823D9F395
:101590008091E80080FFF8CF8091E8008E77ECCF53
:1015A0002091E4003091E50095E6A9018091EC00DE
:1015B0008170882331F08091E80080FF06C080E0D0
:1015C00008952091E80022FD1BC080912106882308
:1015D00091F0853091F08091EB0085FD10C0209155
:1015E000E4003091E5004217530701F39150911147
:1015F000DCCF84E0089582E0089583E0089581E0DF
:101600000895E8EDF0E080818E7F80831092E20003
:101610001092DA001092E100A0EEB0E08C918160AF
:101620008C9380818F77808319BCA7EDB0E08C917B
:101630008E7F8C9380818F7E808310925A020895D2
:10164000CF93DF93682F20917C0330917D03D901E4
:10165000AE5CB3402E56334021303240C8F020E01B
:1016600032E02A1B3B0B4091D0055091D105E62F6B
:10167000F92FCD012A0F3B1FC1E0D0E0821793075D
:1016800050F05093D1054093D005DF91CF9108954C
:1016900020E630E0E8CF6491DC01A253BC4F7C919E
:1016A000671779F06C93BC01A5E076956795AA95CC
:1016B000E1F7DE0102C0AA0FBB1F6A95E2F74A2BD1
:1016C0005B2B01963196DACF982FE42FE27090933E
:1016D000E900891308C0762F242F50E0E11111C0D2
:1016E00091E0980FF4CF7091EC002091ED005091B3
:1016F000F00021FD06C09F5F973049F78093E90015
:1017000008953091EB003E7F3093EB003091ED0077
:101710003D7F3093ED003091EB0031603093EB0072
:101720007093EC002093ED005093F0002091EE00B8
:1017300027FDE1CF0895A0E0B0E0E1EAFBE00C94E2
:10174000D92FC8EDD0E088818F7E8883E7EDF0E067
:1017500080818160808384E082BF81E080935A022F
:1017600088818E7F888302EE10E0F801108210924B
:10177000DA0081EEC82ED12CF601108288818F7795
:10178000888388818068888388818F7D888319BC5D
:10179000109221061092590210928303109258025F
:1017A00090EEE92EF12CF70180818B7F8083888178
:1017B0008160888342E060E080E00E94640BF60173
:1017C00080818E7F8083F801808181608083808129
:1017D00088608083F70180818E7F8083888180612B
:1017E0008883CDB7DEB7E8E00C94F52F8091220610
:1017F000811110C08091D80080618093D8008AE167
:101800008A95F1F700C08091D90080FF0AC081E07D
:101810008093220681E090912206913009F080E0C9
:10182000089582E0809322060E94010B1092210607
:10183000F1CF0E94F60B882359F0E0912306F09136
:101840002406309729F00190F081E02D0995089544
:1018500080E00895CF92DF92EF920F931F93CF9382
:10186000DF93CDB7DEB7CE5DD1090FB6F894DEBFFA
:101870000FBECDBF409101018091A20680FF50C0F4
:10188000E2E6F7E09E012F5F3F4F8E0101521F4FAE
:10189000C901649170E0DB01AA0FBB1FA60FB71F3F
:1018A000AE56BD4FCD90DD90EC90D901CD92DD923A
:1018B000ED929D013196A017B10759F720910001D3
:1018C00030E0B901660F771F260F371F820F931F75
:1018D000539A6BB1677F7BB17860EFB7F89450E0B3
:1018E0009A01220F331F240F351F280F391F82172B
:1018F000930761F5EFBF8FE594E00197F1F700C022
:101900000000C252DF4F0FB6F894DEBF0FBECDBF4E
:10191000DF91CF911F910F91EF90DF90CF900895BD
:101920008091020190910301282F30E0F901EE0F20
:10193000FF1FE20FF31FEE56FD4F891708F0A0CFEF
:101940001182108212828F5F3396F7CFDC014D91A6
:10195000CD0158E07BB9000000C047FF6BB9440FD0
:10196000000000C000C000C06BB900C05A9591F7DC
:10197000BECFE2EAF6E080818E7F8083EFE9F6E079
:101980008281816082830E942A0C0895A3E0B0E0E6
:10199000ECECFCE00C94DD2F182F062F8091A206B2
:1019A00080FF1FC09E012F5F3F4F40EA64E68BE23D
:1019B0000E94C4081017A8F42B8139814A81812F15
:1019C00090E0FC01EE0FFF1FE80FF91FEE56FD4FF0
:1019D0004183308322831F5F33960113F9CF0E9426
:1019E0002A0C2396E4E00C94F92FCF93DF93C82FB1
:1019F000D82FD17081FF04C067E084E00E94C60C3C
:101A0000D11104C06FE18CE10E94C60CC2FF04C07A
:101A100063E180E10E94C60CDF91CF9108950F939E
:101A20001F93CF93DF93EB018A01909121069430AD
:101A300079F58093E9008FEF9091E80095FD07C05C
:101A400095ED9A95F1F7000081508111F5CF8091C5
:101A5000E80085FF1DC00E94D00A811114C080914A
:101A6000E80085FD06C08091E8008E778093E8004D
:101A7000F2CF88818093F100015011090115110501
:101A800011F02196ECCF8091E8008E778093E800EA
:101A9000DF91CF911F910F910895CF93DF93D82FAE
:101AA000C92F80916701811113C048E050E06D2F6C
:101AB000792F81E00E940F0D80E2ED2FFC2FA3E62D
:101AC000B2E001900D928A95E1F7DF91CF910895F0
:101AD0008091600687FD06C048E081E050E06D2FF0
:101AE0007C2FE8CF40E284E0F9CFBC0143E050E036
:101AF00084E00E940F0D0895A0E0B0E0E2E8FDE070
:101B00000C94D72FF82EE92EB62EA72E8A0180919D
:101B10005602CC24C394D12C8A3018F48AE0C82E03
:101B2000D12CC1E0D0E06B2D7A2D8F2D9E2DF801A8
:101B30000995811116C02196CC16DD0694F0CC9F34
:101B4000C001CD9F900D900D112420E030E045E3C1
:101B50004A95F1F700002F5F3F4F28173907B9F773
:101B6000E2CFCDB7DEB7EAE00C94F32F82E290E04B
:101B70000E94B530833289F483E290E00E94B53050
:101B8000813059F484E290E00E94B53091E08931CF
:101B900009F090E0892F8170089580E0FCCF0F93C9
:101BA0001F93CF93DF93823030F56A3020F54730B2
:101BB00010F5C42FD0E0CC0FDD1F2EE0629FC00DCA
:101BC000D11D11243CE8839FC00DD11D1124CE01ED
:101BD00086960E94B530082F10E0102F0027CE0106
:101BE00087960E94B5309801282BC901DF91CF91CB
:101BF0001F910F91089580E090E0F8CF462F672F56
:101C00007A3038F4473028F4823018F40E94CF0D2F
:101C1000089580E090E00895A0E0B0E0E2E1FEE009
:101C20000C94DA2F7C010091A8068091A706082B5E
:101C3000C7E0D0E010E0C8010C2E02C09595879552
:101C40000A94E2F780FD09C02197A8F7D12C8D2DC9
:101C5000CDB7DEB7E7E00C94F62FDC2EB7018C2F62
:101C60000E94FE0D0E943707019771F3F0CF0F938A
:101C70001F93CF93FC01828100811181882391F011
:101C8000662381F0C8010E940C0EC82F682FC8017E
:101C90000E947806B8018C2F0E94FE0DCF911F91F3
:101CA0000F910895C8010E94AF06C82FF3CFCF93BC
:101CB000DF93D82FC92F0E940C0E6D2F7C2F0E940E
:101CC000FE0D0E943707DF91CF910895FC018381BB
:101CD0009481892BC9F08181908189238F3FA1F064
:101CE000808191810E94570E282F92959F70963087
:101CF00091F060F4925F9F70923030F481E0203F69
:101D000079F030F4283E30F080E004C09A5FF3CFE1
:101D1000243FD1F7089581E0283E18F0213FF9CF04
:101D200008950895CF93C091AA068091A906C82B63
:101D3000C0932C0240E250E065E276E08CE292E053
:101D40000E949F30892B11F180E2ECE2F2E0A5E2E3
:101D5000B6E001900D928A95E1F7E0912306F091AB
:101D60002406309799F080916701882349F080918B
:101D7000600687FF05C0C0932D0286E080932C0289
:101D80000280F381E02D8CE292E00995CF910895D5
:101D9000CF93C82F882309F452C08CEF8C0F813A5F
:101DA00008F067C080916701882311F18091600677
:101DB00087FF1EC0EC2FE695E695E695F0E0E45D22
:101DC000FD4F828190E04C2F477021E030E002C04F
:101DD000220F331F4A95E2F782239323892BA9F020
:101DE0006C2F8CE292E00E94E8090E94920E09C0DA
:101DF000EEE2F2E08191C81799F322E0E433F207B2
:101E0000C9F7809167018823E1F08091600687FF20
:101E100018C0AC2FA695A695A695B0E0A45DBD4FC1
:101E2000C77081E090E001C0880FCA95EAF712966A
:101E3000CC911297C82B1296CC930E94920ECF9100
:101E40000895AEE2B2E0EFEF80E09D91C917A9F3EB
:101E5000EF3F19F4911101C0E82F8F5F8630A9F789
:101E6000EF3F59F30E2E000CFF0BE45DFD4FC283D4
:101E7000E4CF80E28C0F883068F4C77081E090E096
:101E800001C0880FCA95EAF7C091AA06C82BC09373
:101E9000AA06D3CF8BE58C0F833038F42C2F245235
:101EA000330BC9010E949C09CACFC85AC93138F600
:101EB000EC2FF0E0EE0FFF1FE151FE4F808191818A
:101EC0000E94C209BCCF682F882369F18CEF860F6E
:101ED000813A38F48CE292E00E94E8090E94920E66
:101EE000089580E2860F883070F4677081E090E09A
:101EF00001C0880F6A95EAF780959091AA06892318
:101F00008093AA06EBCF8BE5860F833028F480E020
:101F100090E00E949C090895685A693120F480E09D
:101F200090E00E94C20908951F93CF93DF93182F6A
:101F3000EB010E94C80E8FE99FE00197F1F700C006
:101F4000000021972097B9F7812F0E94630FDF913E
:101F5000CF911F910895882339F09091AA06892B7B
:101F60008093AA060E94920E0895882341F08095DE
:101F70009091AA0689238093AA060E94920E089542
:101F800080916701EEE2F2E08823B1F08091600673
:101F900087FF12C08EE1DF011D928A95E9F780E08C
:101FA00090E00E949C0980E090E00E94C20910929B
:101FB000A9060E94920E089586E0EDCFAAE2B0E055
:101FC000E4EEFFE00C94DE2F8BE592E0FC0101963D
:101FD0002091F100208322E083369207B9F78091A7
:101FE0005C02893009F458C0C8F4823009F4B5C0E5
:101FF000833009F484C0813081F18091E80083FF4F
:10200000E9C080915B0290915C029A3008F0E2C0D6
:10201000E92FF0E0E150FF4C0C9467308A3009F46E
:102020008BC08B3051F780915B02813231F7809108
:102030005F0290916002892B01F78091E800877F11
:102040008093E8000E94B10A80915D02809367014D
:102050001092AA060E94C00FD0CF80915B02813AF5
:1020600061F68091E800877F8093E80080915F02AD
:1020700090916002892B61F060E080E090E070E078
:102080000E94580A8091E8008B778093E800B5CFD2
:1020900060E283E692E0F3CF80915B02813209F047
:1020A000ACCF80915F02909160028D7F892B09F007
:1020B000A4CF8091E800877F8093E8008091E800BA
:1020C00082FF18C09091F3008091F200029731F4E2
:1020D0008091F100813011F0863021F48091F1007F
:1020E000809383028091E8008B778093E8000E94C0
:1020F000B10A83CF809121068111E0CF7ECF8091FC
:102100005B02813A09F079CF80915F029091600281
:10211000892B09F072CF8091E800877F8093E800D7
:102120008091E80080FFFCCF809167018093F100EF
:102130008091E8008E77D9CF80915B02813209F0DF
:102140005CCF8091E800877F8093E8000E94B10A0D
:1021500080915E028093570250CF80915B02813A5A
:1021600009F04BCF8091E800877F8093E800809151
:10217000E80080FFFCCF80915702D8CF803889F0EB
:10218000823841F580915F028F70873018F5809317
:10219000E9008091EB0085FB882780F91092E90027
:1021A00006C08091580290918303911182609091B2
:1021B000E800977F9093E8008093F1001092F1007F
:1021C0008091E8008E7723C0811116C080915D0256
:1021D000813011F18091E80083FF0AC08091E8000E
:1021E000877F8093E8008091EB0080628093EB0012
:1021F000AA96E3E00C94FA2F823061F780915D0299
:10220000882389F01092E9008091E800877F80930D
:10221000E8000E94B10ADECF81E0933009F080E04F
:1022200080938303EFCF80915F028F702FEF280F91
:10223000263080F68093E9002091EB0020FFE2CF6A
:10224000933031F48091EB0080628093EB00DACF21
:102250009091EB0090619093EB0021E030E0A901B8
:1022600002C0440F551F8A95E2F74093EA0010928E
:10227000EA008091EB008860E8CF8111ABCF10912C
:102280005D021F778091E3008078812B8093E300CB
:102290008091E800877F8093E8000E94B10A8091D6
:1022A000E80080FFFCCF8091E30080688093E3002A
:1022B00083E0111101C082E0809321068BCF80580A
:1022C000823008F087CF40915D0250915E024C3D14
:1022D00083E0580799F583E08A838AE289834FB7C0
:1022E000F894DE01139620E03EE051E2E32FF0E0A7
:1022F00050935700849120FF03C082958F703F5FF9
:102300008F708A30C8F0895C90E08D939D932F5F29
:10231000243161F74FBF8091E800877F8093E80008
:102320006AE270E0CE0101960E94580A8091E800AE
:102330008B778093E8004ECF805DE6CF80915F027F
:1023400090916002252F33272330310509F44AC0CC
:1023500078F52130310509F479C08BE590E0EFE79D
:10236000F1E02230310509F035CF2091E800277FD8
:102370002093E80020916102309162028217930756
:1023800008F49C0140E02115310509F064C04111B9
:1023900062C08091E80082FDC9CF80912106882328
:1023A00029F2853019F28091E80083FFF2CFBECF89
:1023B0002132310509F43BC02232310509F00ACF40
:1023C0008330910508F006CFFC01EE0FFF1FE354A8
:1023D000FE4F0190F081E02D86549E4FDC018C91E0
:1023E00090E011C0CA019927413089F082309105EF
:1023F000B1F0892B09F0EECEEEE1F2E0E4918E2F00
:1024000090E0EEE1F2E0009709F4E4CEAECFECE02C
:10241000F2E0E4918E2F90E0ECE0F2E0F4CFECEE0D
:10242000F1E0E4918E2F90E0ECEEF1E0ECCF833020
:10243000910508F0CFCEFC01EE0FFF1FED53FE4FCC
:102440000190F081E02D89E090E08FCF82E190E073
:10245000EAEDF1E08ACF80912106882309F466CF66
:10246000853009F463CF8091E80083FD5FCF8091D0
:10247000E80082FD8ECF8091E80080FF84CF9091AC
:10248000F3008091F2002115310519F08830910593
:1024900050F041E0089709F040E08091E8008E7725
:1024A0008093E80070CF44914093F1003196215021
:1024B00031090196E8CF803809F08CCE8091E80090
:1024C000877F8093E800809159028093F10078CE55
:1024D000811180CE10915D02123008F07BCE809188
:1024E000E800877F8093E800109359020E94B10AA8
:1024F0001123D1F084E08093210642E061EC81E079
:102500000E94640B42E261EC84E00E94640B42E2B0
:1025100061EC82E00E94640B42E260EC83E00E9486
:10252000640B8091210656CE8091E30087FDE2CFB7
:1025300081E0E1CF0F931F93CF93DF938B01D82FCF
:10254000C92F0E945009A8016D2F7C2F88E090E0D0
:102550000E94DB30DF91CF911F910F910895E2EA45
:10256000F6E083E0808311828FEF828380EA8383A9
:102570001482EFE9F6E082818360828363E070E099
:102580008FEF90EA0E949A120895A4E0B0E0EBEC7D
:10259000F2E10C94DF2F8091A606833018F48F5F50
:1025A0008093A6068091A2069091A306A091A4060E
:1025B000B091A506BC01CD010E949A122496E2E0DA
:1025C0000C94FB2FA4E0B0E0E8EEF2E10C94DF2FD6
:1025D0008091A606882319F081508093A6068091E9
:1025E000A2069091A306A091A406B091A506BC01F5
:1025F000CD010E949A122496E2E00C94FB2FA7E0F2
:10260000B0E0E5E0F3E10C94D72FE82ED62EF42EBF
:10261000C22E8091A20680FF56C09091A3069E1103
:1026200008C09091A406961304C09091A506941733
:1026300029F09091A10692609093A106982F96950B
:10264000E92FF0E0E753FE4F208120939F068E7F15
:10265000823009F042C04F2D80EA8F1508F440EA1D
:102660009E012F5F3F4F6D2D8E2D0E94C4088091DB
:10267000A20680FF14C04B8159816A8180910201BA
:1026800090910301282F30E0F901EE0FFF1FE20FB8
:10269000F31FEE56FD4F8917D0F00E942A0CE092EE
:1026A000A306D092A406F092A506CC2061F08091FA
:1026B000A2069091A306A091A406B091A506BC0124
:1026C000CD010E949A122796EAE00C94F32F6183C1
:1026D000508342838F5F3396DECF223001F7EEEFD7
:1026E000E90F9170A92EE695F0E0E455F84FE491DA
:1026F000B12C0E2F10E060910401B61670F62B2D50
:1027000030E0B09EC001B19E900D112470E00E9497
:10271000BB2F8E2DA11017C0860F90910201A90129
:10272000490F511D9A01220F331F240F351F2E56BA
:102730003D4F4F2D90EA9F1508F440EA6D2D0E9401
:10274000C408B394D8CF861BE8CFA4E0B0E0EBEA8E
:10275000F3E10C94DF2F9091A20690FF28C088230C
:1027600051F18C3050F58F77880F9091A2069170BF
:10277000892B8093A2068091A10681608093A10697
:10278000662361F08091A2069091A306A091A40611
:10279000B091A506BC01CD010E949A1220E04091A3
:1027A000A5066091A4068091A3060E94FF122496BC
:1027B000E2E00C94FB2F81E0D7CF8BE0D5CF809166
:1027C000A20686958F5F8C3008F081E061E00E9460
:1027D000A51308959091A20696958FEF890F9130D9
:1027E00009F48BE061E00E94A5130895E2EAF6E0A7
:1027F00080818160808360E086950E94A5130895A2
:102800008091A20680FF08C0869582588F77893014
:1028100018F40E94DF13089561E082E00E94A5137E
:102820000895CF93C82F0E9463068230B1F048F418
:1028300081110EC020E040E56AEA83E70E94FF12A2
:1028400004C0833079F0843091F08C2FCF910895BB
:1028500020E040E56FEF8CEFF1CF20E040E56FEF37
:1028600080E5ECCF20E040E56FEF80EAE7CF20E0A5
:1028700040E56FEF8AEDE2CF0E9411148093A80625
:10288000089521E030E001C0220F8A95EAF7809197
:10289000A806822B0E943C14089521E030E0A90193
:1028A00002C0440F551F8A95E2F7CA0180959091A6
:1028B000A80689230E943C1408958091A806982FA9
:1028C0009670963021F488600E943C140895877FAA
:1028D000FBCFE2EAF6E0818121E043816281885FFB
:1028E0000E94FF120895E2EAF6E0818121E043812F
:1028F000628188500E94FF120895E2EAF6E0628148
:1029000021E1620F08F46FEF21E0438181810E9491
:10291000FF120895E2EAF6E0628121E1621B08F409
:1029200060E021E0438181810E94FF120895E2EA84
:10293000F6E0438121E1420F08F44FEF21E062818C
:1029400081810E94FF120895E2EAF6E0438121E1CD
:10295000421B08F440E021E0628181810E94FF1265
:102960000895882381F063E282E290E00E94C930FA
:1029700061E083E290E00E94C93069E184E290E086
:102980000E94C93008956FEF82E290E00E94C93042
:102990006FEF83E290E00E94C9306FEFEFCF1F939B
:1029A000CF93DF93962F122F632F8230D8F49A3073
:1029B000C8F44730B8F4C42FD0E0CC0FDD1F2EE0B0
:1029C000929FC00DD11D11249CE8899FC00DD11D7F
:1029D0001124CE0186960E94C930612FCE018796C0
:1029E0000E94C930DF91CF911F910895CF93DF935B
:1029F000C0E0D0E021E030E04D2F6C2F80E00E945D
:102A0000CF14DF5FD730B1F7CF5FCA3091F7D0E096
:102A1000C0E021E030E04C2F6D2F81E00E94CF1408
:102A2000CF5FC730B1F7DF5FDA3091F7DF91CF9139
:102A30000895CF93DF93CEE3D1E060E0CE010E9412
:102A4000C9302196C11584E0D807B9F7DF91CF913D
:102A5000089580E00E94B11460E085E290E00E9459
:102A6000C9300E94F6140E94191581E00E94B11429
:102A7000089567EE7EEF80E090E00E94E73060E02E
:102A800082E090E00E94C93060E083E090E00E9424
:102A9000C9301092A70660E074E184E090E00E94E3
:102AA000E73060E086E090E00E94C9306FEF87E099
:102AB00090E00E94C93040E050E0BA0188E090E028
:102AC0000E94DB3060E08DE090E00E94C93040E081
:102AD00050E0BA0188E190E00E94DB3060E087E1DD
:102AE00090E00E94C93040E050E0BA018CE190E0F3
:102AF0000E94DB3060E070E080E290E00E94E7300E
:102B000040E050E0BA0188E190E00E94DB3080E0D4
:102B10000E94B1140E94291540E050E0BA018FE0F4
:102B200090E00E94DB3040E050E0BA0183E190E0A9
:102B30000E94DB300895ACE0B0E0E1EAF5E10C94EE
:102B4000D32F7C01DC019C9111968C9111971396E7
:102B50002D913C91232B09F4D9C089238F3F09F48F
:102B6000D5C061E0C7010E94370E8C01F701828158
:102B7000882309F46BC4C8019A9581159F4408F015
:102B80008EC0C80199279C01245031092432310597
:102B900018F08B970E9780F4E0919406F0E0EE0F1A
:102BA000FF1FEE59F94F808191818F3F2FE79207E8
:102BB00019F0019691838083C8018250974740970E
:102BC00008F061C18FEF93E00E94B53081119EC083
:102BD00002502EE3E22EFF24F394011167C01A8203
:102BE0001982FE01339686E0DF011D928A95E9F78E
:102BF0009AE0692E6701BFEFCB1ADB0AC7010E947A
:102C0000B53089831A82882309F480C0813009F0A5
:102C100081C087010E5F1F4FC6010E94B5308A83B5
:102C2000882309F473C09FEF980F933008F04CC0CD
:102C3000E3E0EE0EF11CC8010E94B5308B838823BF
:102C400009F464C01C828E010F5F1F4FD8018C9164
:102C5000882381F2813009F09FC011968C911197E1
:102C6000813009F059C06801B2E0CB0ED11CF801E7
:102C700082816AE070E0893311F460E570E00E94BF
:102C8000940F86010F5F1F4F8AE0AFE9BFE01197F5
:102C9000F1F700C0000081508111F7CFD7CF0F3F6F
:102CA000110511F008F088CFC8016DCFE11434E0B0
:102CB000F30661F1C7010E94B530D70111967D017D
:102CC0008111F4CF015089CF8430B9F482E0E82E2D
:102CD000F12CC8010F5F1F4F0E94B530E1E0F0E01A
:102CE000EC0FFD1FEE0DFF1D8083882379F08C37DC
:102CF00031F4FE01EE0DFF1D12827801A4CFFFEF2B
:102D0000EF1AFF0A27E0E216F10419F72C96EEE01D
:102D10000C94EF2F760197CF823049F46801F2E0EE
:102D2000CF0ED11C12968C910E94C80EAACF833070
:102D300049F46801B2E0CB0ED11CF80182810E94F7
:102D4000630F9FCF843019F00F5F1F4F9BCF1296F8
:102D50002C910E5F1F4F80E090E0A8014F5F5F4F06
:102D60002053330B2A30310558F0009709F48ACFED
:102D7000AFE9BFE01197F1F700C000000197F5CF70
:102D8000689EB001699E700D1124C901860F971FBE
:102D9000F80121818A01E1CFE82FF0E0E95FF34FEC
:102DA0007490282F26952695269530E0F901E95054
:102DB000F44FC4908770D12C082E02C0D594C794CC
:102DC0000A94E2F7B1E0CB22DD24F901E951F44F96
:102DD000A490B12C082E02C0B594A7940A94E2F7EF
:102DE000E1E0AE22BB24F901E952F44F8490912C2A
:102DF00002C0959487948A95E2F7F1E08F22992496
:102E0000C114D10479F5A114B104B9F086EE0E9481
:102E1000C80E29E36AE070E0872D721203C060E5F6
:102E200070E089E30E94940F86EE0E94630FCD2824
:102E300079F081EE0E94630F0BC039E360E570E02A
:102E400089E3731619F06AE070E0872D0E94940FF1
:102E50008114910409F416CF6AE070E08CE20E94BC
:102E6000940F10CF81EE0E94C80EA114B10471F628
:102E700089E360E570E0781619F06AE070E0872D6C
:102E80000E94940FD6CF0115B7E71B0799F182E096
:102E90000130E7E71E0779F10E94140A60939B0650
:102EA00070939C0680939D0690939E06D701129680
:102EB0008C910230BFE71B0799F130F5013E1105F7
:102EC00009F4AEC0053E110509F45AC00C321105D3
:102ED00009F4DCC0811142C18091AA068272F80116
:102EE000E052F847E531F10508F063C0E75FFE4CBA
:102EF0000C94673081E00E94411403C081E00E947D
:102F00004D140E945D1402CF0330FFE71F0709F143
:102F100004302FE7120709F486C081113CC049C074
:102F2000882309F446C081EE0E94C80E83EE0E94F9
:102F3000C80E8FE40E94C80E8FE40E94630F83EED8
:102F40000E94630F81EE0E94630FD70112968C914D
:102F5000E4CF882371F181EE0E94C80E83EE0E94B7
:102F6000C80E80E50E94C80E80E50E94630F83EEC4
:102F70000E94630F81EE0E94630FF7018281CDCF23
:102F800080939A061093990600939806882379F007
:102F900081E080939706F701C080D180C6010E942E
:102FA0000C0E182F682FC6010E94780609C01092D7
:102FB0009706D701CD90DC90C6010E94AF06182F6E
:102FC000B601812F0E94FE0D0E943707182FD701EE
:102FD00012962C91129715963C9132953F70492F7D
:102FE00042954F70483009F456C108F0C7C04430CC
:102FF00008F0BCC0892F8F70423008F4CFC0907F9A
:10300000903211F08295807F113009F007C12223A0
:1030100009F4FEC0333008F0ACC00E94AB0FA9C069
:1030200080939606AFCF8823E1F08091960688239F
:1030300049F0809198060E94630F80EE0E94C80EAE
:103040008AE20CC080919A068823D1F38091980679
:103050000E94630F80EE0E94C80E8CE40E94C80E8E
:1030600055CE8AE20E94630F8CE40E94630F80EECB
:103070000E94630F80919606811105C080919A0687
:10308000882309F443CE80919806E8CF882331F055
:1030900081E080939506109268017DCF109295068D
:1030A00088CF8091A20680FF17C08E7F8093A206F2
:1030B0008091A2069091A306A091A406B091A506C6
:1030C000BC01CD010E949A128091A106816080937B
:1030D000A1060E942A0C1ACE81608093A20661E0AC
:1030E00086950E94A51312CE4AEE53E16FED73E16F
:1030F0000E9465090BCE4FED53E16AEE73E1F8CF04
:1031000043E754E169E674E1F3CF49E654E163E74C
:1031100074E1EECF4AE854E16DE774E1E9CF4DE7A1
:1031200054E16AE874E1E4CF44EA54E167E974E108
:10313000DFCF47E954E164EA74E1DACF42EE52E1CD
:1031400065EC72E1D5CF45EC52E162EE72E1D0CF91
:1031500061E081E0C6CF0E940014D8CD03309CE727
:10316000190709F018CF0E943915D0CD443009F461
:1031700077C060E0C7010E94370EC8CD493009F41E
:10318000FFC04A5F4F704230A0F7823F09F009C18B
:10319000892F8F71222309F432C100C1082F903189
:1031A00010F00295007F2223C9F0002369F080E22D
:1031B000810F883010F011110BC08091AA06802B6E
:1031C0008093AA060E94920E812F0E94C80ED1CF32
:1031D0008091A906802B8093A906F4CF812F0E94AD
:1031E000630F002331F2009580E2810F883010F0E8
:1031F000111108C08091AA0680238093AA060E941C
:10320000920EB7CF8091A90680238093A906F7CFAD
:10321000323008F0AECF0E94B50FABCF222351F071
:10322000332309F4FACEF701958190FFCDCF9F703B
:103230009583F3CE332379F3193369F4FFEF27EE47
:1032400033E0F15020403040E1F700C00000812F12
:103250000E94630F8ECF8FE39CE90197F1F7F5CFC2
:10326000892F869586958370882361F0813009F0D7
:1032700080CF812F9370211102C080E090E00E94E6
:10328000C20977CF812F9370211102C080E090E0B6
:103290000E949C096ECF892F8370811138C0211143
:1032A00029C0812F829586958770880F880F212FDE
:1032B0002F70082E01C0220F0A94EAF71071112313
:1032C00041F04FE050E001C0440F8A95EAF7142F17
:1032D00010959695969593709230A1F0812F822B40
:1032E000933031F08091A706913049F0212B822351
:1032F0000E9475060E94190C0E94F50C3ACF822B91
:10330000812BF6CF212B8091A7068227F1CF222394
:1033100061F190FFEFCF812F829586958770880F9E
:10332000880F212F2F70082E01C0220F0A94EAF770
:103330001071112341F04FE050E001C0440F8A9515
:10334000EAF7142F1095969596959370923099F010
:10335000812F822B933031F08091A806913041F07B
:10336000212B82230E943C14C5CF823018F2D3CF88
:10337000822B812BF7CF212B8091A8068227F2CFB9
:10338000092F0F70222339F0802F0E944114812FC2
:103390000E94AB0FAFCF0E94B50F802F0E944D143B
:1033A000A9CF833F60F4803F99F0813F21F1222330
:1033B000B9F1332391F1812F0E94C80E9BCF833F37
:1033C00009F12111F6CF31113CC0892F8F71E6CF61
:1033D000222379F0323008F08DCF292F2F7181E030
:1033E00090E001C0880F2A95EAF79091A8068927F6
:1033F000B9CF3230F0CF892F8F71222379F20E941A
:10340000411478CF80E0222309F4ACCF9F7181E092
:1034100001C0880F9A95EAF7A5CF892F8F71EFCF5A
:10342000332399F2893369F49FEFA7EEB3E091500B
:10343000A040B040E1F700C00000812F0E94630F60
:1034400059CFEFE3FCE93197F1F7F5CF0115F7E735
:103450001F0709F453CD013027E7120709F026CDE5
:1034600082E04DCD1F93CF93DF938091E2068031B0
:1034700008F04CC08091DF06882309F447C0809192
:10348000AC062091AB066091DD063091DE06C0915E
:10349000E006D091E106732F76232817B9F190E06A
:1034A000209709F443C016E07F3F09F43FC0189FFE
:1034B000F001199FF00D1124DF01A355B94F1196AA
:1034C0004C91119734132CC04C91461329C012967D
:1034D0004C91129741111EC013964D915C914C1B5B
:1034E0005D0B403A5105E0F48091E2068F708061F7
:1034F0008093E206EE54F94F80818F708061808363
:103500008DED96E00E949B150E94E306DF91CF911E
:103510001F9108950196877099272813C8CFF6CF79
:103520000196877099272813BFCFF0CF0196877037
:10353000B4CFABE0B0E0EFE9FAE10C94D52F8C0109
:1035400085E0F801DE01179601900D928A95E1F76A
:10355000F801C280A380B4808DED882E86E0982E7D
:103560008091DD069091DE062091E0063091E10623
:103570002115310509F40CC1492F48234F3F09F4A7
:1035800007C1D090DF06A501421B530BDD2009F4D3
:10359000D2C0F090E206403A510508F0ACC021815B
:1035A0005FE05F1508F46BC0EC2C291313C0908109
:1035B000981310C0C1101EC08F2D8F708061809332
:1035C000E206C4010E949B158091E206F801858302
:1035D000E12C50C08F819885A114B10489F0282F67
:1035E00029232F3F69F0E091AC062091AB0636E02D
:1035F000CC20E1F08091E20681608093E206E8CF82
:10360000CC2031F3F7CF4E2F50E03E9FF001112434
:10361000E355F94F6181691306C06081681303C0E7
:1036200062816111D5CFFA013196E770E213EBCFD9
:103630008F8198850E94570E292F22952F709032E6
:1036400048F49F70992311F08823A1F0805E8830A0
:1036500088F004C0225F2F70223028F0C8010E9439
:103660009B15ED2C07C09F70992381F3F80195817C
:10367000903160F78E2D2B96ECE00C94F12F2913EE
:1036800012C0908198130FC0C1100DC0F582C801FF
:103690000E949B1586E0F801ADEDB6E001900D9219
:1036A0008A95E1F725C0C8010E94660E882309F4B7
:1036B0006BC0CC2009F468C08091E206803270F0C3
:1036C0008091DD069091DE069A8389831B82BD82FC
:1036D000AC82FE82CE0101960E949B1586E0F80125
:1036E000ADEDB6E001900D928A95E1F70E94321A95
:1036F000EE24E394BFCFFFE0FF1550F08DED96E090
:103700000E949B1586E0F40111928A95E9F760CF3B
:10371000F80121819213C7CF90819813C4CFC110B3
:10372000C2CFF582C8010E949B1586E0F401119278
:103730008A95E9F7DDCF403A510520F7CC2021F1F9
:103740002181921317C09081981314C08091E206D2
:1037500080FDA0CF803108F49DCF8583807F803F9E
:1037600009F495CF8581982F907F905F8F70892B7A
:1037700085838DCFC8010E94660E8111AFCF8091E5
:10378000E20681608093E206C8010E949B15B0CFDB
:10379000CC20D1F3C8010E94660E8823A9F39ECFE6
:1037A000A7E1B0E0E6EDFBE10C94DE2F4B8B5C8BE8
:1037B000962F6D8B7E8B8F8B61111092A9061A8AC2
:1037C00085E0FE017396DE011D9601900D928A95AB
:1037D000E1F79F8786E0FE013D96DE011796019096
:1037E0000D928A95E1F7CE0107960E94991A8111F0
:1037F00031C086E0FE013796DE01119601900D92F0
:103800008A95E1F78F8198852091AB064091AC06AF
:103810006A857B85672BF1F089238F3FD9F030E0F3
:10382000C90101968770992750E084179507E9F040
:1038300096E0929FD001939FB00D1124A355B94FEC
:10384000FE01319601900D929A95E1F78093AB06B7
:103850000E94E30616E08091AC069091AB068913B6
:1038600014C06796E3E00C94FA2F1092AA060E9407
:10387000C00F1092AB061092AC0686E0EDEDF6E0BC
:10388000DF011D928A95E9F7E5CF189FC001112449
:103890008355994F0E94991A882319F38091AC0699
:1038A00090E00196877099278093AC06D4CFA0E072
:1038B000B0E0EDE5FCE10C94D92FFA016901780143
:1038C000C82F880FDD0B3097B1F0DE0193E0AA0F0F
:1038D000BB1F9A95E1F7A95DBE4F11968D919C9102
:1038E0001297855F994F4C9150E0E417F50708F463
:1038F000AF010E94AC30CE010E94462F182F8823C2
:10390000D1F0E114F104B9F083E0CC0FDD1F8A950A
:10391000E1F7FE01E95DFE4F438150E0E416F50654
:1039200008F4A701C95DDE4F6C817D81655F794F29
:10393000C6010E94AC30812FCDB7DEB7E8E00C9411
:10394000F52FA5E0B0E0E7EAFCE10C94D32F762E4A
:103950006A014901580101E010E09E012F5F3F4FCD
:1039600040E050E060E070E00E94571C182F882370
:10397000B9F1D6018D919D910D90BC91A02DBC0106
:10398000CD010E94340A6980643671058105910574
:1039900030F4B701C5010E946C09861509F1870151
:1039A000940140E050E060E070E0872D0E94571CD9
:1039B000182FB701C5010E946C09861531F010E07F
:1039C000812F2596EEE00C94EF2F11701123C1F397
:1039D0000E94140AF6016083718382839383F0CF7F
:1039E000A701B501C4010E94AC30EACFA5E0B0E068
:1039F000ECEFFCE10C94D92F6B0185E0E82EF12C63
:103A00000CE016E09E012F5F3F4F47E056E061E07B
:103A100080E00E94A11C882349F095E0FE013196C8
:103A2000A2E0B6E001900D929A95E1F795E0E2E010
:103A3000F6E0D60101900D929A95E1F72596E8E01F
:103A40000C94F52FAAE0B0E0E8E2FDE10C94D72F4A
:103A5000F82E6D837E83A42ED22EE32EB02EC12E9F
:103A6000AD81BE818D919D910D90BC91A02DBC0129
:103A7000CD010E94340A643671058105910510F468
:103A8000AA20A9F000E010E020E030E04B2D5C2DF2
:103A90006D2D7E2D8F2D0E94571C882349F00E948A
:103AA000140AED81FE81608371838283938381E0B8
:103AB0002A96EAE00C94F32FA8E0B0E0E2E6FDE1FC
:103AC0000C94DD2F25E0E2EAF6E0CE010196DC0160
:103AD00001900D922A95E1F730919F062091A00662
:103AE0005091A1063E832F83588741E09C015111DC
:103AF00001C040E008E010E06EEE75E085E00E9455
:103B0000221D81111092A1062896E4E00C94F92F51
:103B1000A1E0B0E0EEE8FDE10C94DD2F8091E90535
:103B2000898341E090911F06981301C040E001E0B5
:103B300010E09E012F5F3F4F6AEE75E086E00E9425
:103B4000221D2196E4E00C94F92FA1E0B0E0EBEA0D
:103B5000FDE10C94DD2F8091E405898320912006FE
:103B600030E090E041E02817390709F440E001E037
:103B700010E09E012F5F3F4F65EE75E087E00E94E9
:103B8000221D2196E4E00C94F92FA8E0B0E0EBECC4
:103B9000FDE10C94DD2F8091F6059091F705A09141
:103BA000F805B091F905BC01CD010E94340A11E07D
:103BB000643671058105910550F10E94F60B88234A
:103BC00059F10E94140A462F572FBC014E5F5F4FD8
:103BD0006F4F7F4F49835A836B837C8300E010E0F3
:103BE00020E030E044E050E0BE016F5F7F4F84E0B2
:103BF0000E94571C182F882351F00E94140A6093CA
:103C0000F6057093F7058093F8059093F905812FD9
:103C10002896E4E00C94F92F0E94140A6D837E83A9
:103C20008F8398874091F2055091F3056091F405D8
:103C30007091F5058D819E81AF81B885480F591F20
:103C40006A1F7B1FC3CF1F93CF93DF93282F162F9D
:103C500080917C0390917D032A30C9F420917E03EA
:103C60008E5C9340622F70E00E94BB2F281B822F36
:103C700066E00E940630C82FC15020F4DF91CF913A
:103C80001F91089560E080E20E94231EF5CF2D3041
:103C9000F9F49C012E5C334040917E03642F70E068
:103CA000C9010E94BB2F481B842FA901480F511D39
:103CB0004115524018F080E020E030E0820F932F51
:103CC000911D82539C4F90937D0380937C03D6CFAC
:103CD00036E0FC01ACE8B2E001900D923A95E1F7D4
:103CE000203E90F126E0FC0111922A95E9F7C0915F
:103CF0007C03D0917D03111132C046E050E0BE013B
:103D00008CE892E00E949F309E012E5C3340892B0C
:103D100089F52A5F3F4F40917E03642F70E0C9010F
:103D20000E94BB2F481B463010F4240F311D211573
:103D300072E0370710F020E030E022533C4F309320
:103D40007D0320937C039ACFF6E02F9FB0011124CE
:103D50006E5D7D4F46E050E00E949630C8CF9E01D8
:103D60002A5F3F4FFE012E173F0739F28081809571
:103D70008193F9CFC90145E0969587954A95E1F77A
:103D800041E050E0BA0102C0660F771F8A95E2F762
:103D9000CB016091D0057091D105862B972BB9018D
:103DA0006B5F7F4FE5E076956795EA95E1F702C096
:103DB000440F551F6A95E2F7842B952B9093D105FC
:103DC0008093D005A6CFFF920F931F93CF93DF93DD
:103DD000EC01F62EFC0101900020E9F78F01015063
:103DE0001109C017D10728F0CDB7DEB7E5E00C9474
:103DF000F82F6F2D89910E94231EF3CFA0E0B0E031
:103E0000E4E0FFE10C94D92F6C017B0164E670E0E3
:103E100088E70E94072DEC0197FD11C08601EC0C8C
:103E2000FD1CF801849164E670E00E94762DEC019F
:103E3000892B29F40F5F1F4F0E151F0591F70E9464
:103E4000F82DCE01CDB7DEB7E8E00C94F52F8091C8
:103E5000D805882371F08091E405882351F062E051
:103E600070E08DE791E00E94FE1E892B11F4109204
:103E7000E4050895A4E0B0E0E0E4FFE10C94DF2F56
:103E80008091D8058823F9F00E94140ADC01CB0147
:103E90008058974CAE4FBF4F8093D2059093D30577
:103EA000A093D405B093D5058091E40581110BC092
:103EB00062E070E08BE791E00E94FE1E892B19F40E
:103EC00081E08093E4052496E2E00C94FB2F1F929E
:103ED0001FB61F9211248F939F93AF93BF9380912E
:103EE0008003811113C08091840290918502A0917A
:103EF0008602B09187024196A11DB11D8093840274
:103F000090938502A0938602B0938702BF91AF91F0
:103F10009F918F911F901FBE1F9018952FB7F894F7
:103F20008091840290918502A0918602B0918702CF
:103F30002FBF0895A5E0B0E0E0EAFFE10C94DB2F8D
:103F4000162FE82EF12CC701880F991F6623F9F070
:103F50008B5D9D4FFC01808191819A83898301E073
:103F60000B830E948E1F8160782FF701ED51F94F6E
:103F7000812F8027110F182B108349815A816B8163
:103F8000892F0E94D01B2596E6E00C94F72F8F5DB9
:103F90009D4FE0CFA1E0B0E0E0EDFFE10C94D82F21
:103FA000EE24E394F12C02E116E09E012F5F3F4FD7
:103FB0004EEF55E063E082E00E94A11C082F8823A9
:103FC00039F1D12C80E01DC0C090FD05CD0C2C2D09
:103FD00030E0A90145505A4F7A01E1E0F0E0EC0FE2
:103FE000FD1FED0DF11D1081FA019081191BB12EFD
:103FF0001B149CF0912F17FD90E0191B111118C094
:10400000D3949091FA05D916F8F281110E94310AE1
:10401000802F2196E9E00C94F42FBA94F701808167
:104020008F5F808360E08C2D0E949A1F802FE0CFED
:104030001F5FF70180818150808361E08C2D0E9499
:104040009A1F802FDBCF9C014FB7F8948091840298
:1040500090918502A0918602B09187024FBF821B8A
:10406000930B0895ABE1B0E0E8E3F0E20C94D62FB7
:104070001A821982FE01339688E0DF011D928A952B
:10408000E9F79CE0E92E91E0F92E8E010F5F1F4FBA
:104090005801CC24C394D12CF70181917F018F3F2B
:1040A00009F442C0F894E82FE295EF70F0E021A106
:1040B0008F70A60102C0440F551F8A95E2F7CA010E
:1040C000922F982B91A392A18095892382A3789413
:1040D00000C0E5E0F1E031E0912C21912F3F09F49F
:1040E00066C0A22FA295AF70A05EB0E08C9190E068
:1040F0002F7002C0959587952A95E2F781708111FE
:1041000056C0832F982A330F51E0EC30F50729F77A
:10411000F701319780818F3F11F00E94AB0880EA50
:104120008A95F1F7D8019C920F5F1F4FB1E1EB1612
:10413000B1E0FB0609F0B0CF4AE050E0B50180E7FE
:1041400093E00E949F3000917B03892B91F18AE0DC
:10415000F501A0E7B3E001900D928A95E1F781E0C7
:10416000809355020E948E1F9093540280935302B5
:1041700080915302909154020E9423200697E8F008
:1041800010E006521A4F45E050E060E773E0C801C6
:104190000E949F30892B41F085E0E0E7F3E0D801F1
:1041A00001900D928A95E1F71092550206C080E0C9
:1041B000A9CF809155028111DBCF0E94F60BE091CF
:1041C0007B03882309F4C9C01C8A1B8A9E012B5ECD
:1041D0003F4F83E0D9011D928A95E9F70E2F10E039
:1041E00006521A4F809156028A3008F07AC07E013A
:1041F000B3E1EB0EF11C46EF5CE1B701C8010E9490
:104200007C0D6701882309F490C04AEC5FE1B70197
:10421000C8010E947C0D882309F487C045EC5DE14C
:10422000B701C8010E947C0D882309F47EC04CE5CB
:104230005DE1B701C8010E947C0D882309F475C0B7
:1042400048E85DE1B701C8010E947C0D882309F4AC
:104250006CC045EA5DE1B701C8010E947C0D88236E
:1042600009F463C01092560280917A0390E045E011
:1042700050E0B60186529A4F0E949F3021E0209371
:104280005202892B09F044C083EEE82E86E0F82E16
:1042900000E010E0F70181917F018823D9F0869535
:1042A000F801882309F456C0EB5DFD4F80819181B0
:1042B0009C878B871D860E948E1F8160782F9F8729
:1042C0008E87F701319710824B855C856D85892F2C
:1042D0000E94D01B02301105D1F56B96EBE00C94D7
:1042E000F22F80915002909151020E942320843F2E
:1042F000914008F07CCF80915202882329F2FE0180
:10430000739685E0DF011D928A95E9F710925202BB
:10431000A0917A03B0E0A652BA4F85E0FE017396F1
:1043200001900D928A95E1F7AFCF809156028F3FB1
:1043300039F40E948E1F9093510280935002DBCF7C
:104340008F5F809356028A3008F48ECFF2CF02E05E
:1043500010E0A0CFEF5DFD4FA9CFF0E0E652FA4F9D
:1043600085E0ACE0B6E001900D928A95E1F765E05A
:1043700070E08CE096E00E946C0980930B064091FF
:104380009E0350E060919D0370E065507A4FCE012E
:104390000B960E94AC308B858093120661E070E032
:1043A000CE010B960E946C0980931106C0901306F3
:1043B000D0901406E0901506F090160680914C02FD
:1043C00090914D02A0914E02B0914F02C816D906AD
:1043D000EA06FB06D1F0C0924C02D0924D02E09268
:1043E0004E02F0924F020E94F60B81110EC00E9405
:1043F000140AC61AD70AE80AF90AC092F205D0923E
:10440000F305E092F405F092F50588E0E7E1F6E0C7
:10441000DE011B9601900D928A95E1F780911706B7
:10442000869500911806F0901906E0901A061091F2
:104430001E0610921E061123A9F010FF0BC09B85CB
:1044400090FF1BC09091A20691609093A20660E03D
:104450000E94A51311FF06C020E04E2D6F2D802F66
:104460000E94FF1280911F068093E905809120062B
:10447000882331F00E943A1F30CF0E94B90CEACF56
:104480000E94271F2ACFCDB7DEB7AD970FB6F8949D
:10449000DEBF0FBECDBF85B7806885BF85B780689A
:1044A00085BF84B7877F84BF0FB6F894A8958091A5
:1044B0006000886180936000109260000FBE80E809
:1044C00090E00FB6F89480936100909361000FBE66
:1044D00089EA98E090932B0280932A020E94010BB4
:1044E0000E949B0B8091E20084608093E2007894AC
:1044F00080912106882399F08091E9001091EC00C9
:104500001795112717958F70182B1092E90080913D
:10451000E80083FD0E94DE0F1F701093E90082E027
:1045200084BD93E095BD9AEF97BD80936E00109285
:10453000F2051092F3051092F4051092F5050E9411
:10454000B60D811102C00E9429150E94F60B8093BE
:10455000110180911101811110C185E28093000148
:1045600085E2809301010E94F60B81110E94582E72
:104570008091110191E0892780939D03292E281AAB
:104580002092FD058091110190939E03809111016D
:104590009093FA0580911101811106C084EF8093F8
:1045A0001E0185EF80931D0182E080931C018091A4
:1045B0001E01E82FE295EF70F0E041A18F7021E03D
:1045C00030E0290102C0440C551C8A95E2F7C20173
:1045D000942D9095942391A392A1892B82A38091ED
:1045E0001D01E82FE295EF70F0E041A18F70B90155
:1045F00002C0660F771F8A95E2F7CB01962F909540
:10460000942391A392A1892B82A38FE891E0019733
:10461000F1F700C0000010919E036EE171E04DE1E2
:1046200051E03FE9E32E33E0F32EFB018E2F861B92
:10463000811708F4A4C080911101811124C085E084
:10464000ECEAF1E0DE01919601900D928A95E1F796
:1046500085E0FE01B196ACE0B1E001900D928A9543
:10466000E1F787E0E2EBF1E0DE01119601900D92B7
:104670008A95E1F787E0FE013196A5E0B1E001906F
:104680000D928A95E1F78091110190E0811101C0AE
:1046900095E090937B0385E0891B80937A030CE07F
:1046A00011E021E1E22E21E0F22EF80181918F014B
:1046B0008F3F11F00E94AB08E016F106B1F705E05C
:1046C00011E09CE0E92E91E0F92ED8018D918D0149
:1046D0008F3F11F00E94AB08E016F106B1F78AE0B7
:1046E000EAEDF5E0DF01282E1D922A94E9F7E0E7D4
:1046F000F3E0DF011D928A95E9F780E090E00E94E7
:10470000C330873E9E4F21F40E94B60D811102C036
:104710000E94391582E090E00E94B53080938603B4
:1047200084E090E00E94C33090936106809360061D
:104730000E943220EFE7FBEB3197F1F700C0000059
:104740000E9432208091DA0580FF41C06FEF7FEF39
:1047500080E090E00E94E73087E797E790930108B8
:104760008093000888E19AE00FB6F894A8958093AA
:1047700060000FBE90936000FFCF80E0EFCE01910C
:10478000802F82958F70805E90E0DC012C91DA01A1
:104790003D91AD01832F82958F70805E90E0DC01AA
:1047A0008C9190E03F7002C0959587953A95E2F71D
:1047B0008170880F30E00F7002C0359527950A95FB
:1047C000E2F72170822BD7018D937D012FCF83E0FB
:1047D00090E00E94B5300E9475068091A8060E9464
:1047E000111483E08093CE0580E280937E030E94C3
:1047F000012D6DE070E084EC98E00E94FE1E892B94
:1048000009F043C08091CE0563E070E081FD09C1ED
:1048100081EC98E00E94FE1E892BB9F56DE070E0F6
:1048200081EB98E00E94FE1E892B79F50E94140A04
:104830006EA37FA388A799A7DC01CB018058974C72
:10484000AE4FBF4F8093D2059093D305A093D4056C
:10485000B093D505EEECF3E080E092E0DF019C013F
:104860001D9221503040E1F7F0937D03E0937C03EB
:104870008FEF9FEF9093D1058093D00581E08093D7
:10488000D8058093E4051092CF0580917F038111B4
:104890003DC080E090E00E94C330873E9E4F21F4EF
:1048A0000E94B60D811104C00E9439150E94AF12FA
:1048B00088E090E00E94BD306093A2067093A3064A
:1048C0008093A4069093A5068091A10683608093AF
:1048D000A106623070F40E94AF1288E090E00E945E
:1048E000BD306093A2067093A3068093A4069093B4
:1048F000A5060E9450098091A20680FF04C060E0D6
:1049000086950E94A51381E080937F0380916006C5
:10491000806880936006609160067091610684E013
:1049200090E00E94E7300E94F60B811102C00E94C5
:104930005B2E60E082E00E94A51381E00E943C149F
:1049400082E191E090932406809323066624639489
:10495000809121068530A1F480912106853009F4EB
:1049600063C01092AA060E94C00F0E94190C0E94F8
:10497000F50C109282038091810381110E94F6133D
:104980000E94322007E813E08AEDE82E85E0F82E39
:1049900021E933E0D701F80191918D912E173F075E
:1049A00009F4A9C09817C1F30E94F60B882ED12CE8
:1049B000D701CD907D01F80191908F019C1439F1C0
:1049C0009C24B12CAA24A394892D8A218823B9F090
:1049D0008820A9F0B982DA8291E08C2D8A21811198
:1049E00001C090E09B830E948E1F8160782F9D8381
:1049F0008C8349815A816B81892F0E94D01BB3948B
:104A0000AA0CF7E0BF12E0CFF8013197C082D3942F
:104A1000BAE02B2ED210CCCF0E94140A77247394C4
:104A20008BC08EEB98E0F6CE80912106843009F49D
:104A300036C080E00E94F50C80918203811109C08C
:104A4000609282038091A2068170809381030E940C
:104A5000B90C0E94271F1092800348E150E060E4E7
:104A60000FB6F894A895409360000FBE6093600065
:104A700083B7817F846083BF83B7816083BF78946D
:104A8000889583B78E7F83BF0FB6F894A8958091E1
:104A90006000886180936000109260000FBE80917A
:104AA0008303882309F458CF0E943220EAEDF5E011
:104AB00084EE95E02191211104C08E179F07D1F754
:104AC0004BCF80E189BD82E189BD09B400FEFDCFF5
:104AD0008091D8008F7D8093D8008091E000826023
:104AE0008093E0008091E00081FDFCCF1092AA0647
:104AF0000E94C00F31CF981357CF0E948E1F8C0198
:104B0000809184039091850308171907A1F08FEF16
:104B100089838A831B820E948E1F8160782F9D83E8
:104B20008C8349815A816B81892F0E94D01B1093FD
:104B3000850300938403712C0E94F60B882309F4EB
:104B4000C9C0C0906206D09063060D2C000CEE0820
:104B5000FF0810911A01A12EB12CE2E6F6E081E0E7
:104B600090E03296A816B9060CF0B7C020919703D2
:104B7000309198034091990350919A03CA01B90169
:104B80000E94340A1B012C019601A701F7FE04C004
:104B900020E030E040E050E0A0E6BAEE0E94743041
:104BA0006EA37FA388A799A788EC8A9D90018B9D0F
:104BB000300D1124032E000C440B550B220D331D18
:104BC000441D551DA5E0B0E00E9474306AA77BA784
:104BD0008CA79DA76EA17FA188A599A52AA53BA515
:104BE0004CA55DA50E94263049015A0131EF83167C
:104BF0009104A104B10428F0A0EF8A2E912CA12CDD
:104C0000B12C49EC24163104410451040CF180917B
:104C1000940690E0019669E170E00E941230809362
:104C20009406880F991FFC01EE59F94F11821082EA
:104C3000183108F017E11F5F10931A010E94140A3F
:104C400060939703709398038093990390939A03CA
:104C500052E0C516D104E104F1041CF4812C912C1E
:104C60005401609193037091940380919503909106
:104C700096030E94340A6B017C0175E6C716D104C5
:104C8000E104F10484F00E94140A6093930370938A
:104C9000940380939503909396038091E905809304
:104CA00092038092910310919203A0919103A11B12
:104CB000BB0BA70196010E947F306EA37FA388A73C
:104CC00099A724E630E040E050E00E944830120FFF
:104CD0001093E905B12CD12C93C040815181052E50
:104CE000000C660B770BC40ED51EE61EF71E019650
:104CF00038CF0B2D10E0F801E25EFE4F4081E42F2B
:104D0000E295EF70E05EF0E02081F801E35EFE4F97
:104D10003081E32FE295EF70E05EF0E0808190E07B
:104D20003F7002C0959587953A95E2F78170880F9C
:104D300030E04F7002C0359527954A95E2F7217013
:104D4000822BD801A156BC4FEC919E2F93708917EE
:104D500009F455C0EE0FEE0FE82BEC93D801A55ED9
:104D6000BE4FEC90C0909D03CB0CEF70F0E0EB5287
:104D7000FE4F05561C4F8081D8019C91890F8C9362
:104D8000F12C082E000C990B20E08E159F0584F065
:104D9000EC2DF0E0E550FA4F80818F5F80830E9418
:104DA000F60B882321F060E08C2D0E949A1F21E0F1
:104DB000F8018081082E000C990B442755274E19C5
:104DC0005F094817590784F0EC2DF0E0E550FA4FE1
:104DD0008081815080830E94F60B882321F061E05E
:104DE0008C2D0E949A1F21E0D8018C91082E000C76
:104DF000990BB7010E941230F8018083D22AB39434
:104E000080919E03B81608F474CF1091D805DD2068
:104E100051F10E94310A11112BC00E943A1F0E94C9
:104E2000190C182F8091D905181739F01093D9054E
:104E30000E94140A812F0E94F50C80912106843073
:104E400009F086CD83E08093E9008091E80082FF3D
:104E50007FCD8091E80085FDDEC28091E8008B77F0
:104E60008093E80075CD111103C07720B1F6D7CF3C
:104E70008091D6059091D7050E942320C29790F18A
:104E80000E948E1F9093D7058093D60560E080E046
:104E90000E9485098091E90590E09093AD0380938D
:104EA000AC030E94190C8093AB030E94F60B88237D
:104EB00009F45CC020909B0630909C0640909D06B3
:104EC00050909E062EA23FA248A659A6C201B1014B
:104ED0000E94340A613375478105910508F444C086
:104EE0000E94271F8091D0059091D105892BA9F0B0
:104EF0008091D805882389F08091CF0581110DC05C
:104F00000E943A1F2091D0053091D10580E061E0E8
:104F100070E02115310509F0BBC18091E4058823BB
:104F2000F9F00E94140A6EA37FA388A799A7809125
:104F3000D2059091D305A091D405B091D5052EA0AE
:104F40003FA048A459A4281A390A4A0A5B0A2FEF3D
:104F50002216320642062FE7520610F40E94271F3F
:104F600071105BCFDD2082CF0E943A1F0E94F60BAA
:104F7000882309F4CFC062E080E00E94850960E0E8
:104F800089E691E00E94E31E63E080E00E948509CB
:104F90008091A8060E946306833009F496C048F405
:104FA00060E0813009F48AC08FE691E00E94E31E40
:104FB00003C0843009F485C066E080E00E94850962
:104FC00060E087E891E00E94E31E67E080E00E94D5
:104FD00085096091AB03669561708CE891E00E9451
:104FE000E31E68E080E00E9485096091AB03617078
:104FF00031E0632781E991E00E94E31E69E080E0EF
:105000000E9485096091AB0362FB662760F985E920
:1050100091E00E94E31E4091A7035091A803609184
:10502000A9037091AA034EA35FA368A779A7CB0138
:10503000BA010E94340A693C71058105910508F4A2
:1050400051CF0E94140A6093A7037093A803809322
:10505000A9039093AA0380919506811104C08091C1
:105060006801811136C06FE080E00E94850960E030
:105070008AE991E00E94E31E6CE080E00E948509CD
:1050800051E0509368018091A60390E001968170F1
:1050900099278093A60321E030E0281B390B40E6D6
:1050A000429FC001439F900D112420919706222317
:1050B000F1F0895E944F0E94200B14CF85E791E0B8
:1050C00075CF60E08BE791E071CF60E081E891E01F
:1050D0006DCF6CE080E00E94850960E08AE991E094
:1050E0000E94E31E6DE080E00E948509CCCF2091F4
:1050F000AC033091AD032B3031051CF4895A954F28
:10510000DACF293231051CF48956964FD4CF895213
:10511000974FD1CF63E080E00E94850960E080EA8C
:1051200091E00E94E31E64E080E00E94850960E057
:1051300086EA91E00E94E31E6AE080E00E94850911
:10514000E1EDF8E084918F01811110C08091E905B3
:1051500090911F01981312C09091A503903271F4A1
:1051600060E081EA93E00E94E31EBCCE60E00E9412
:10517000231E0F5F1F4FF8018491E6CF80931F011C
:1051800090E29093A503282E312C412C512C2EA275
:105190003FA248A659A61092A40374EAE72E73E032
:1051A000F72EEAE08E2E912CA12CB12CC201B10178
:1051B000A50194010E9426306AA77BA78CA79DA712
:1051C000862F805D2AA43BA44CA45DA400E010E0DF
:1051D00023282428252861F563EAE62E63E0F62ECD
:1051E0008093A3032EA33FA348A759A76EA17FA135
:1051F00088A599A5A50194010E9426306AA77BA7DE
:105200008CA79DA7862F805D2AA53BA54CA55DA5F3
:1052100001E010E0232B242B252B51F480E24EA13A
:105220005FA168A579A5452B462B472B09F080E3A4
:105230005AE0852E912CA12CB12CD7018E937D01A3
:105240006EA17FA188A599A5A50194010E94263091
:105250002EA33FA348A759A70F5F1F4F0330110587
:1052600009F47ECFCA01B901A50194010E9426303C
:105270006AA77BA78CA79DA7862F805D2AA43BA445
:105280004CA45DA4232824282528B9F6C7CF8F5F16
:10529000A82EB12C4B01082E02C0880C991C0A9430
:1052A000E2F7A40142235323452B89F39091CE05C5
:1052B0009170911142C095013695279536952795A5
:1052C0008295880F80763FE1380F809322012093EA
:1052D0002501309323019093260124E630E047E036
:1052E00050E060E271E088E70E94A62D892B09F06A
:1052F00014CE25E0AA0CBB1C2A95E1F78091CE05BF
:1053000080FD23C0A50142535C4F04E610E020E27B
:1053100030E060E488E70E94CD2D892B09F0FDCDB7
:10532000809490948091D0059091D1058821992105
:105330009093D1058093D005F0CD880F880F880F0A
:1053400037E0380F20E093E0C0CFEEEAF3E080E2F0
:10535000DF011D928A95E9F7E9EEF1E0FBA7EAA7E4
:1053600065EE71E09DEE292E91E0392E07E0FF24D5
:10537000F394AAA5BBA54D91BBA7AAA7FB01819158
:10538000BF018A0D9B2D911D9C0122533C4F3FA3D1
:105390002EA3E42FF0E0E255FC4F20E030E0C02ED9
:1053A000C21A1F2D022E01C0110F0A94EAF74EA057
:1053B0005FA090E0D2018D912D0181234C2D491BDE
:1053C000477050E0B82F042E01C0BB0F0A94EAF7D3
:1053D0005195419551094770552701C086954A95C9
:1053E000EAF78B2B4081482B40839F5F983011F761
:1053F0002F5F3F4F31962830310589F6EAA5FBA58E
:105400002E163F0609F0B5CF04E610E020E230E0AA
:105410004EEA53E07ECF0E94D00A882379F0809133
:10542000E8008B778093E8008981EFEFE80FE331A4
:1054300090F5F0E0E25EFE4C0C94673080E2E82EDE
:10544000F12C8E010F5F1F4F8091E80085FD0AC08F
:105450008091E8008B778093E8000E94D00A88232F
:1054600099F3DDCF8091F100D8018C93B1E0EB1A74
:10547000F108E114F10499F20F5F1F4FE5CF1A8292
:105480008BE08B831AC08A81833049F138F48130F4
:1054900061F08230D9F08FEF89830FC08430D9F763
:1054A0001B821C821D821E8208C00E94140A0E9458
:1054B0006D306B837C838D839E8340E250E0BE0120
:1054C0006F5F7F4F82E00E940F0D42CA85E290E03D
:1054D0000E94B5301B821C821D828E83EECF8AE033
:1054E000EAEDF5E0DE01139601900D928A95E1F761
:1054F000E4CF8A81823049F0853069F68091A20636
:1055000080FF14C00E94B90CD8CF2B803C804D8006
:105510005E802EA23FA248A659A6C201B1010E94F8
:105520006D3085E290E00E94C930C7CF0E94F6132B
:10553000C4CF4C816B818A810E94CF0D9827892727
:1055400098279E838D83B9CF2D813E8132272327D3
:1055500032274C816B818A810E94CF14AECF0E948A
:10556000F614ABCF9A81923009F095CF8830B1F123
:10557000893009F45EC08B81833061F180F4813021
:10558000B9F0823009F099CF8C81882309F4BACF21
:105590000E94F61360E08C810E94A5138ECF8430A8
:1055A00009F08BCF20E04091A5066D818C810FC062
:1055B0008C8120EA829FC00111246FEF70E00E946D
:1055C000BB2F462F20E06091A4068091A3060E9485
:1055D000FF1273CF8C818093A6066FCF8B818330AF
:1055E00029F160F48130A1F0823009F066CF80911A
:1055F000A20680FF19C086958C835FCF843009F0A6
:105600005CCF8091A3068C838091A4068D8355CFB7
:105610008091A5063FEF839FC001112460EA70E0EE
:105620000E94BB2F6C8349CF80E0E6CF8091A60615
:10563000E3CF4091A2065091A3066091A406709119
:10564000A5064EA35FA368A779A7CB01BA010E9464
:105650009A1233CF80E18A8330CF82E08A8382EC52
:1056600010CFCA80DB80DC24CD24DC248C81760141
:10567000E80EF11C8E010B5F1F4FCE14DF0409F4FE
:105680001CCF80E052ECC51652E0D50628F4C601C6
:10569000825C9E4F0E94B530D8018D938D01BFEF83
:1056A000CB1ADB0AEACF0A811B81102701271027BA
:1056B000FE0131966F01EC80EE0EFF2EF11CEC1412
:1056C000FD0409F4FACE023CF2E01F0740F4D601D3
:1056D00014966C91C801825C9E4F0E94C9300F5F86
:1056E0001F4FBFEFCB1ADB0AEACF0E941915E5CE98
:1056F00082E0B1CFCA80DB80DC24CD24DC248C8125
:105700007601E80EF11C8E010B5F1F4FCE14DF04F3
:1057100009F4D3CE80E0E8E1CE16E1E0DE0620F425
:10572000C60186960E94B530D8018D938D01BFEFDA
:10573000CB1ADB0AEBCF0A811B8110270127102728
:10574000FE0131966F01EC80EE0EFF2EF11CCE149F
:10575000DF0409F4B2CE0831F1E01F0738F4D601B6
:1057600014966C91C80186960E94C9300F5F1F4F36
:10577000BFEFCB1ADB0AEBCF78941F921FB61F92B4
:1057800011248F939F93AF93BF9380918402909144
:105790008502A0918602B09187020196A11DB11DDC
:1057A0008093840290938502A0938602B09387022F
:1057B000BF91AF919F918F911F901FBE1F90189521
:1057C0001F920F920FB60F9211242F933F934F9376
:1057D0005F936F937F938F939F93AF93BF93EF9359
:1057E000FF938091E10082FF09C08091E20082FF77
:1057F00005C08091E1008B7F8093E1008091DA0009
:1058000080FF24C08091D80080FF20C08091DA0002
:105810008E7F8093DA008091D90080FF9BC080E169
:1058200089BD82E189BD09B400FEFDCF81E080938E
:10583000210680915A02811109C00E94010B0E9429
:105840009B0B8091E20084608093E2008091E100F4
:1058500080FF17C08091E20080FF13C08091E200BA
:105860008E7F8093E2008091E20080618093E2006D
:105870008091D80080628093D80019BC85E0809325
:1058800021068091E10084FF29C08091E20084FF1D
:1058900025C080E189BD82E189BD09B400FEFDCF4C
:1058A0008091D8008F7D8093D8008091E1008F7E19
:1058B0008093E1008091E2008F7E8093E2008091EE
:1058C000E20081608093E20080915902882309F40C
:1058D00047C084E080932106809121068091E100F9
:1058E00083FF27C08091E20083FF23C08091E10005
:1058F000877F8093E10082E0809321061092590215
:105900008091E1008E7F8093E1008091E2008E7FA4
:105910008093E2008091E20080618093E20042E0A7
:1059200060E080E00E94640B8091F00088608093CA
:10593000F000FF91EF91BF91AF919F918F917F9177
:105940006F915F914F913F912F910F900FBE0F90EC
:105950001F90189519BC1092210610925A0276CF0A
:105960008091E30087FF02C083E0B4CF81E0B2CF33
:105970001F920F920FB60F921124FF920F931F9355
:105980002F933F934F935F936F937F938F939F9347
:10599000AF93BF93CF93DF93EF93FF9309EE10E0A4
:1059A000F8018081C091EC00C795CC27C7958F7016
:1059B000FC2EF82A1082C0EFD0E08881877F888390
:1059C00078940E94DE0FF8011082888188608883B5
:1059D000CF2DCF70C083FF91EF91DF91CF91BF9119
:1059E000AF919F918F917F916F915F914F913F9177
:1059F0002F911F910F91FF900F900FBE0F901F904E
:105A000018951092B9008CE08093B8000895A0E03A
:105A1000B0E0EDE0FDE20C94D62FB82EEB010E9431
:105A20008E1F6C01EE24E394F12CC431D10560F09B
:105A300025E0E22EF12CCF3FDC0731F0CE0164E10E
:105A400070E00E94BB2F7B0184EAA82E94E8992E77
:105A50001092BC00A092BC000E948E1F182F092F2C
:105A60008091BC0087FF0CC08091B900887F88308E
:105A7000F9F08091B900887F8031D1F00FEF08C034
:105A8000812F902F0E942320E816F90648F70EEF89
:105A90001FEFCF3FDC07E1F2C6010E942320C817A9
:105AA000D907B0F6C801CDB7DEB7EBE00C94F22F02
:105AB000B092BB009092BC000E948E1F182F092F3D
:105AC0008091BC0087FF0AC02091B900287F28314F
:105AD00011F0203499F600E010E0E4CF812F902FF0
