:100000000C949E030C94E5030C94E5030C94E50317
:100010000C94E5030C94E5030C94E5030C94E503C0
:100020000C94E5030C94E5030C94F6260C94B2268C
:100030000C94F1270C94E5030C94E5030C94E50370
:100040000C94E5030C94E5030C94E5030C94E50390
:100050000C94E5030C94CD270C94E5030C94E50374
:100060000C94E5030C94E5030C94E5030C94E50370
:100070000C94E5030C94E5030C94E5030C94E50360
:100080000C94E5030C94E5030C94E5030C94E50350
:100090000C94E5030C94E5030C94E5030C94E50340
:1000A0000C94E5030C94E5030C94E5035800600000
:1000B000000058005E00000058005D00000058007D
:1000C0005C00000057006000000057005F00000067
:1000D00005010902A10185020901A1000509190113
:1000E00029081500250195087501810205010930CF
:1000F00009311581257F950275088106093815811A
:10010000257F950175088106050C0A3802158125A1
:100110007F950175088106C0C005010980A1018590
:100120000319012AB700150126B700950175108142
:1001300000C0050C0901A101850419012AA00215BE
:100140000126A002950175108100C005010906A1D4
:10015000018505050719E029E715002501950875B2
:100160000181020507190029EF1500250195F07599
:10017000018102050819012905950575019102956E
:100180000175039101C00660FF0961A101096215B3
:100190000026FF009520750881020963150026FFDF
:1001A00000952075089102C005010906A101050707
:1001B00019E029E7150025019508750181029501CF
:1001C000750881010507190029FF150026FF009514
:1001D0000675088100050819012905950575019125
:1001E00002950175039101C00000000000000000AD
:1001F00000000000000000000000000000000000FF
:100200000000000000000000000000007E0F00D48D
:10021000FFFFFFC7000000780000000000000000A2
:100220002A2B280000000000000000000000000051
:1002300000000029000000002C1E3420212224345C
:100240002627252E362D3738271E1F20212223242E
:1002500025263333362E37381F0405060708090ACA
:100260000B0C0D0E0F101112131415161718191A66
:100270001B1C1D2F3130232D350405060708090AE4
:100280000B0C0D0E0F101112131415161718191A46
:100290001B1C1D2F3130354C00047F3F1F6432146E
:1002A000643214783C1E1E140A050001010101018C
:1002B000010101010202020202020202020303031F
:1002C00003030303030404040404040405050505EF
:1002D00005060606060607070707070808080809AF
:1002E0000909090A0A0A0B0B0B0C0C0C0D0D0D0E5B
:1002F0000E0E0F0F0F1010111111121213131414F0
:10030000151516161717181819191A1A1B1B1C1D64
:100310001D1E1E1F202021222223242425262627BD
:100320002829292A2B2C2D2D2E2F303132323334EF
:1003300035363738393A3B3C3D3E3F4041424344F5
:1003400045464748494A4C4D4E4F505153545556D7
:1003500058595A5B5D5E5F616264656668696B6C83
:100360006D6F7072737577787A7B7D7E80828385FE
:1003700087888A8C8E8F91939596989A9C9EA0A23E
:10038000A3A5A7A9ABADAFB1B3B5B7BABCBEC0C248
:10039000C4C6C9CBCDCFD1D4D6D8DBDDDFE2E4E70C
:1003A000E9EBEEF0F3F5F8FAFDFFFFAA7F55400800
:1003B0000706050D0C0B0A11100F161514131A1849
:1003C0001B120903010002040E17192223252628F7
:1003D000292A2C2D2F3032333536383A3B3D3E40DA
:1003E00042434547494A4C4E5051535557595A5C20
:1003F0005E6062646668696B6D6F71737577797B37
:100400007D7F81838587898A8C8E90929496989A35
:100410009C9E9FA1A3A5A7A8AAACAEAFB1B3B4B64A
:10042000B8B9BBBCBEBFC1C2C3C5C6C7C9CACBCCA5
:10043000CDCED0D1D2D2D3D4D5D6D7D7D8D9D9DA78
:10044000DADBDBDBDCDCDCDCDCDDDDDDDDDCDCDCED
:10045000DCDCDBDBDBDADAD9D9D8D7D7D6D5D4D315
:10046000D2D2D1D0CECDCCCBCAC9C7C6C5C3C2C1EA
:10047000BFBEBCBBB9B8B6B4B3B1AFAEACAAA8A747
:10048000A5A3A19F9E9C9A98969492908E8C8A89FF
:10049000878583817F7D7B79777573716F6D6B69DC
:1004A00068666462605E5C5A5957555351504E4CB1
:1004B0004A4947454342403E3D3B3A383635333260
:1004C000302F2D2C2A2928262523224E007F004B51
:1004D00000000001515400550056005F00600061AB
:1004E0000057005C005D005E00000059005A005B90
:1004F00000580062000000630000004F000100503F
:100500000000000100AD002C005300145002530302
:10051000532A000100010001000000010001000158
:1005200000005C005C000001000000300001002FB2
:1005300000000010500500170011030D0016000701
:10054000002D01060119011000000011011D03E139
:100550000057012C000000E2000000805F010081D4
:100560005F00001050B9004A0017012B0352002B06
:10057000011A01500051004F000000B6002C00B7D6
:100580000028004E0000004B000000805F01008149
:100590005F00001050010001000100010052000145
:1005A000000100500051004F00000010033D080101
:1005B0000053006800000069000000010001000114
:1005C0000000000100010001000100010001000124
:1005D0000001000100010001000000010001000114
:1005E0000001000100000001000000010001000105
:1005F00000000001000100010001000100010001F4
:1006000000010001000100010000000100010001E3
:1006100000010001000000010000000100010001D4
:1006200000000001000100010001000100010001C3
:1006300000010001000100010000000100010001B3
:1006400000010001000000010000000100010001A4
:100650000000000100010001000100010001000193
:100660000001000100010001000000010001000183
:100670000001000100000001000000010001000174
:100680000000000100010001000100010001000163
:100690000001000100010001000000010001000153
:1006A000000100010000000100000009025B0003DE
:1006B0000100A0FA09040000010301010009211151
:1006C0000100012240000705810308000A09040116
:1006D000000203000000092111010001222200078D
:1006E000058203200001070503032000010904021D
:1006F00000010300000009211101000122B60007DA
:1007000005840320000A12010002000000084B418A
:1007100015000200010200010A03500053003100DD
:10072000370000001203410054004C0041004E000D
:1007300054004900530000000403090411241FBEA3
:10074000CFEFDAE0DEBFCDBF04B603FE27C0809155
:10075000940390919503A0919603B09197038730ED
:10076000904BA740B04BD1F4109294031092950394
:10077000109296031092970314BE84B7877F84BFAC
:100780000FB6F894A895809160008861809360000E
:10079000109260000FBEE0E0F8E3099511E0A0E0E0
:1007A000B1E0E4ECFEE502C005900D92A43CB10777
:1007B000D9F723E0A4ECB1E001C01D92A439B2073F
:1007C000E1F70E9418280C94292F0C940000E8ED02
:1007D000F0E080818E7F80831092E2001092DA0038
:1007E0001092E100A0EEB0E08C9181608C9380814A
:1007F0008F77808319BCA7EDB0E08C918E7F8C93AE
:1008000080818F7E80831092070308952091E400F9
:100810003091E50095E6A9012091EC00822F8170CE
:1008200020FF06C08091E80080FF06C080E00895A8
:100830002091E80022FD1AC080912C03882389F0C2
:10084000853089F08091EB0085FD0FC02091E40098
:100850003091E50042175307F9F29150E1F684E038
:10086000089582E0089583E0089581E00895EF926D
:10087000FF920F931F93CF937C018B010E9406047C
:10088000C82F811117C08091E80085FD0BC08091B1
:10089000E8008E778093E8000E940604882399F38D
:1008A000C82F08C0F70181917F018093F1000150AA
:1008B000110949F78C2FCF911F910F91FF90EF9065
:1008C000089580912E0387FF13C08091E80082FF76
:1008D00006C08091E8008B778093E80004C0809187
:1008E0002C038111F2CF089580912C038823D9F332
:1008F0008091E80080FFF8CF8091E8008E77ECCF00
:10090000982F9093E900242F762F50E0891731F02B
:100910007091EC002091ED005091F00021FD07C096
:100920009F5F973071F78093E90081E008953091DF
:10093000EB003E7F3093EB003091ED003D7F309334
:10094000ED003091EB0031603093EB007093EC00E0
:100950002093ED005093F0002091EE0027FDE0CFB2
:1009600080E00895CF92DF92EF92FF920F931F9352
:10097000CF93DF93C8EDD0E088818F7E8883E7ED49
:10098000F0E080818160808384E082BF81E0809399
:10099000070388818E7F888302EE10E0F8011082C1
:1009A0001092DA0081EEC82ED12CF60110828881D7
:1009B0008F77888388818068888388818F7D88830A
:1009C00019BC10922C0310922D0310922B0310923D
:1009D0002A0390EEE92EF12CF70180818B7F808332
:1009E00088818160888342E060E080E00E9480042A
:1009F000F60180818E7F8083F80180818160808311
:100A0000808188608083F70180818E7F80838881E8
:100A100080618883DF91CF911F910F91FF90EF90BC
:100A2000DF90CF900895FC018091340390913503BD
:100A300086179707A0F06115710529F49091E800D9
:100A40009E779093E80090E06115710551F4911143
:100A500008C08091E80082FF34C080E00895BC01A6
:100A6000F2CF80912C038823C1F18530C1F18091B0
:100A7000E80083FD30C08091E80082FDEACF8091DC
:100A8000E80080FFE1CF8091F3002091F200382F41
:100A90006115710519F02830310558F091E02830C2
:100AA000310509F090E02091E8002E772093E800CE
:100AB000CBCF81918093F100615071092F5F3F4F3F
:100AC000E7CF80912C03882341F0853041F080915D
:100AD000E80083FFBECF81E0089582E0089583E0BF
:100AE00008958091090308959C014FB7F89480916F
:100AF000FE029091FF02A0910003B09101034FBF4D
:100B0000821B930B08952FB7F8948091FE02909169
:100B1000FF02A0910003B09101032FBF089520911F
:100B2000FB023091FC022817390771F09093FC0208
:100B30008093FB02E091F902F091FA02309721F0E4
:100B40000084F185E02D099408952091F7023091F9
:100B5000F8022817390771F09093F8028093F70292
:100B6000E091F902F091FA02309721F00680F781C6
:100B7000E02D09940895E091F902F091FA0230977E
:100B800021F00190F081E02D099480E00895DC01CE
:100B90006091F3028091F402962F891301C00895A9
:100BA000292F30E0F901EE0FFF1FE551FD4F408185
:100BB00051814A175B07A1F487E08A9FA0018B9FB0
:100BC000500D1124485E5E4F81E0FA018483961334
:100BD000E6CF2F5F3F4F237033272093F302089512
:100BE0002F5F3F4F922F9370D8CF109288021092B0
:100BF0008702E8E1F1E08581811102C0148216824A
:100C0000379681E0E234F807B1F70895FA018111CF
:100C100001C0FB010994089580918C03982F9E7F59
:100C200061F48170826080938C0380918F03853B97
:100C300018F084EB80938F0308958A34B0F38170A9
:100C40008864F1CFAF92BF92DF92EF92FF920F9341
:100C50001F93CF93DF93182F062FE901453B08F030
:100C600044EBE42FF0E0E655FD4F011110C0E49194
:100C70005E2F4E2F4983E8835A83DF91CF911F91D6
:100C80000F91FF90EF90DF90BF90AF900895202FCD
:100C900030E04491D42EE42EF12C56E0159FC00193
:100CA0001124EFEFF0E0BF010E94332E812F90E07E
:100CB000880F991F55E5569FD001579FB00D1124FD
:100CC0008A1B9B0B982F990F890F5F01A21AB30AF9
:100CD000AE9CD001AF9CB00DBE9CB00D11245B2F1B
:100CE000089F80011124012F11275F01A01AB10A6A
:100CF000AE9C8001AF9C100DBE9C100D11245F01B5
:100D0000A81AB108A29EC001A39E900DB29E900D9C
:100D10001124892F9927E81BF90BEE9DC001EF9D47
:100D2000900DFE9D900D1124E92F62307105A1F008
:100D300050F46115710509F49DCF6130710581F0A2
:100D4000EB2F512F97CF6430710569F080F066303A
:100D5000710509F48FCFF4CFE42F4B2F592F8ACF91
:100D6000E42F412F87CFEB2F542F492F83CF4B2FC9
:100D70005D2DE12F7FCF0E9483059C01909176022B
:100D800080917702982B21F03093730220937202A6
:100D90009091780280917902982B21F03093710222
:100DA00020937002E091F902F091FA02309749F035
:100DB00082E0809374020480F581E02D84E792E064
:100DC0000994089540917602803F59F4809177020A
:100DD00087FF0DC01092770241110BC010926E0276
:100DE00008C0813F81F48091770218169CF3442358
:100DF00081F08091780290917902892B09F05AC094
:100E000010926D020895823F49F447FFF0CF10928F
:100E10007602809177028111ECCFE0CF833F19F405
:100E20001416ACF3E4CF90917802893F29F4191697
:100E3000F4F610927802DBCF8A3F19F497FFD7CFF0
:100E4000F8CF909179028B3F29F497FFD0CF109281
:100E50007902CDCF8C3F19F41916CCF3C8CF9CE0A2
:100E6000980F953090F4845F990B21E030E0B90140
:100E700002C0660F771F8A95E2F7CB0180959091AB
:100E80007502892380937502B2CF8D3F31F4809132
:100E90006F028E7F80936F02AACF8E3F21F48091E4
:100EA0006F028D7FF7CF8F3F09F0A1CF80916F0246
:100EB0008B7FF0CF089580916F0280FD16C081FD79
:100EC00016C082FD16C080916D028823A1F0883281
:100ED00080F428E0829FC001112468E270E00E9443
:100EE000472E862F672B39F0089582E0089584E01D
:100EF000089588E0089581E0089580916F0280FD53
:100F000014C081FD14C082FD16C080916E0288233A
:100F100081F0843180F422E3829FC001112464E1D6
:100F200070E00E94472E862F08958CE0089589E195
:100F3000089585E0089582E30895803F31F40E948A
:100F40007D078195809377020895813F19F40E946F
:100F50007D07F8CF823F31F40E947D078195809311
:100F600076020895833F19F40E947D07F8CF893FE8
:100F700029F40E945B078093780208958A3F21F448
:100F80000E945B078195F7CF8B3F31F40E945B078E
:100F900081958093790208958C3F19F40E945B0734
:100FA000F8CF9CE0980F953070F4845F990B21E0A6
:100FB00030E001C0220F8A95EAF780917502822BFA
:100FC0008093750208958D3F31F480916F028160A6
:100FD00080936F0208958E3F21F480916F028260AA
:100FE000F7CF8F3FB9F780916F028460F1CF80E037
:100FF0000895F894E82FE295EF70F0E031A1282FE2
:101000002F7081E090E001C0880F2A95EAF7982FB1
:101010009095932391A392A1892B82A3789408950C
:101020009091020392FF06C0282F28712830F9F40E
:10103000877F846093FF06C0282F28712831F1F440
:10104000877E84612091030320FF06C0382F38710A
:101050003830D9F4877F816021FF06C0282F28719E
:101060002831D1F4877E816194FD877E0895282FF1
:1010700024712430F9F68B7F8860DCCF282F24710F
:10108000243101F78B7E8861DDCF382F317131300B
:1010900019F78E7F8860E0CF282F2171213121F749
:1010A0008E7E8861E1CFCF93DF93EC01823891058A
:1010B000A9F1D8F58133910509F496C048F5893234
:1010C000910509F48AC08A9709F495C0C11521E5F4
:1010D000D20708F0BCC0C11530E5D30708F014C131
:1010E000C83ED10508F09CC0C03ED10560F5C83AA5
:1010F000D10508F087C0C53AD10508F0FDC0C13060
:10110000D10509F12097F9F0C430D105E0F440C0D1
:101110008533910509F45AC0C997C1F6809102033D
:10112000837089F0C0EED0E00EC0833E910599F146
:1011300070F4803E910501F1823E910539F680916F
:10114000020382FD21C0CE01DF91CF910895863E3A
:10115000910561F1873E910571F1843E910509F099
:10116000B5CF8091030381FFEECF80910203C7EEDC
:10117000D0E084FD0DC0E7CF8091020380FD12C155
:101180009091030390FFDFCFC3EED0E084FFDBCF6D
:10119000D0E0C0E0D8CF8091020382FD06C19091DB
:1011A000030390FDBFCF84FFCECFF2CF8091020327
:1011B00083FDDDCFC8CF8091020383FDF9C09091FC
:1011C000030391FFF0CFC4EED0E0BDCF80910203C6
:1011D00085FFB9CFC9E2D0E0B6CF8091020385FF89
:1011E000B2CFC5E3D0E0AFCF8091020386FFABCF93
:1011F000CAE2D0E0A8CF8091020386FFA4CFC1E36A
:10120000D0E0A1CFCF3BD10518F6C85AD0E0CC0F23
:10121000DD1FC95BDE4F0990D881C02DD46493CF08
:10122000C11540E2D40758F4C11581E0D80708F091
:101230008ACFC03FD10508F4ABCFD06584CFC115AC
:1012400090E4D90708F4A4CFDF70D06A7CCFC11531
:1012500025E5D20700F5C11534E5D30708F08AC0AB
:10126000C11543E5D40708F071C0C11582E5D80760
:1012700008F467C0CE018370992721E030E002C0F6
:10128000220F331F8A95E2F7C695C69580E2C89F64
:10129000E001112452C0C11599E5D907A8F4C11580
:1012A00028E5D20708F06BC0C11536E5D30708F072
:1012B0006FCF8C2F0E941008C82FD0E0DC2FCC27D6
:1012C000CC27DF71D0623FCFC1154AE5D40708F4BF
:1012D0005BC0CE0190568115904208F059CF8D2FFA
:1012E0008F710E94100890E0982F882788279F719F
:1012F0009C012C2BE901E6CFC55AD0E0CC5BDE4F38
:10130000C881D0E0D0641FCFCE01E4E096958795E8
:10131000EA95E1F783702C2F26952695237040E2FD
:10132000249F90011124382B8C2F8370C1E0D0E0D2
:1013300002C0CC0FDD1F8A95E2F7C22BD32BDC68ED
:1013400002CFDC2FCC27C16FD06AFDCECE018370D7
:10135000992721E030E002C0220F331F8A95E2F77F
:10136000C695C69590E2C99FE0011124C22BD32BEC
:10137000DA68E9CEDC2FCC27C46FD06AE4CEDC2F4C
:10138000CC27C06FD06ADFCE8C2F8F700E941008E0
:1013900034E0D695C7953A95E1F7CF709C2FEC01D4
:1013A000D069D1CEC9E3D0E0CECEC2EED0E0CBCE74
:1013B000C6EED0E0C8CE8091440281111092440262
:1013C00008958091430290914202892B90914102AD
:1013D000892B8093C601909144029923A1F0892B17
:1013E0008093C60180914301882341F180910203DB
:1013F00087FF24C08EE1E8ECF1E090E0815000F539
:1014000091110E94DB09E091F902F091FA02309704
:10141000E1F080914301882359F08091020387FF16
:1014200007C08091C6018093C70185E08093C60103
:101430000280F381E02D86EC91E0099486E0DBCF19
:1014400021912223D9F29F5FD9CF08959091430132
:101450009923D1F09091020397FF16C0E82FE695EB
:10146000E695E695EE31E0F4F0E0EA53FE4F282FE2
:10147000277081E090E001C0880F2A95EAF78095F7
:101480009281892382830895E8ECF1E09191891398
:1014900003C0DF0111971C9291E0EE3CF907B1F710
:1014A0000895909143019923C1F09091020397FF11
:1014B00014C0E82FE695E695E695EE31F8F4F0E0F5
:1014C000EA53FE4F877021E030E001C0220F8A9579
:1014D000EAF78281822B82830895A8ECB1E0EFEFD6
:1014E00090E02D91821751F0EF3F19F4211101C0C6
:1014F000E92F9F5F9630A9F7EF3F09F408950E2E6C
:10150000000CFF0BEA53FE4FE6CF80913F02909113
:10151000FE01981301C008958F5F8770FACF990F6D
:10152000990F890F982F977086958695869524E058
:10153000829FF0011124E651FE4F50E040E080E030
:10154000219130E0092E02C0369527950A94E2F7E2
:1015500021703327042E01C0220F0A94EAF7822B50
:101560004F5F5F4F4430510559F70895990F990F18
:10157000890F982F977041E001C0440F9A95EAF7C0
:1015800086958695869594E0899FF0011124E65111
:10159000FE4F30E020E070E05191DF011197CB0168
:1015A000022E02C0969587950A94E2F78170819584
:1015B0008527842385278C932F5F3F4F2430310567
:1015C00059F7089590E080E00E94A50590E080E042
:1015D0000E948F0510924202109241020E94E1097E
:1015E00086E0E4E7F2E0DF011D928A95E9F71092C8
:1015F0006E0210926D0210926F020C94BB069093D3
:101600004602809345020C94E20A882341F08095BB
:10161000909142028923809342020C94E10908953B
:10162000882339F090914202982B909342020C94B7
:10163000E1090895882341F0809590914302892320
:10164000809343020C94E1090895882339F0909126
:101650004302982B909343020C94E1090895882348
:1016600009F459C0823871F40E94BB0581FF53C050
:1016700089E30E94510A0E94E10989E30E94260A37
:101680000C94E109833859F40E94BB0580FF43C0E4
:1016900083E50E94510A0E94E10983E5EFCF843877
:1016A00059F40E94BB0582FF36C087E40E94510AAC
:1016B0000E94E10987E4E2CF9CEF980F913AF0F2A3
:1016C00090E2980F983088F4877021E030E0A9010B
:1016D00002C0440F551F8A95E2F7CA018095909188
:1016E0004302892380934302CBCF9BE5980F93302D
:1016F00020F490E080E00C94A50598E5980F9731D0
:1017000020F490E080E00C948F05803F20F00E9450
:10171000E2060C94BB060895809580FF08C0589A95
:1017200081FF07C05D9A82FF06C05C9A08955898B1
:10173000F7CF5D98F8CF5C98089590912C03943082
:1017400029F5809304037093060360930503909337
:10175000E9008FEF9091E800815095FD06C095ED6E
:101760009A95F1F700008111F5CF8091E80085FF8F
:101770000DC050E040E063E070E084E093E00E9440
:1017800037048091E8008E778093E8000895BC01CB
:1017900084E00C949D0BBC0183E00C949D0B9C0198
:1017A00084E08093E9009FEF8091E800915085FDEF
:1017B00006C085ED8A95F1F700009111F5CF809173
:1017C000E80085FF0CC050E040E066E070E0C90131
:1017D0000E9437048091E8008E778093E800089596
:1017E000CF93DF93EC01809143018823B1F1809185
:1017F000020387FF32C060E284E08093E9008FEF4C
:101800009091E800815095FD06C095ED9A95F1F70D
:1018100000008111F5CF8091E80085FF1BC0809109
:10182000430170E050E040E0811104C050E040E02E
:1018300068E070E0CE010E9437048091E8008E7766
:101840008093E80080E2FE01AAE0B3E001900D92EF
:101850008A95E1F7DF91CF91089568E081E0CDCFDF
:1018600081E08093E00080E28093D8001092C9006C
:101870008FE19EE40197F1F700C0000087E090EB54
:10188000DC018093940390939503A0939603B09307
:10189000970388E19CE00FB6F894A89580936000C8
:1018A0000FBE90936000FFCFCF93C82F882309F419
:1018B000AEC08238C1F40E94BB0581FDA8C089E397
:1018C0000E94510A0E94E1092FEF81EE94E021501D
:1018D00080409040E1F700C0000089E30E94260AA2
:1018E000CF910C94E1098338A1F40E94BB0580FDDF
:1018F0008EC083E50E94510A0E94E1092FEF81EE1C
:1019000094E0215080409040E1F700C0000083E562
:10191000E5CF8438A1F40E94BB0582FD78C087E43E
:101920000E94510A0E94E1092FEF81EE94E02150BC
:1019300080409040E1F700C0000087E4CFCF8CEFFB
:101940008C0F813A88F580914301882301F18091C1
:10195000020387FF1CC0EC2FE695E695E695F0E0C4
:10196000EA53FE4F828190E04C2F477021E030E037
:1019700002C0220F331F4A95E2F782239323892B5B
:1019800079F08C2F0E94260A0E94E10909C0E8EC38
:10199000F1E08191C817A9F321E0EE3CF207C9F705
:1019A0008C2F0E94510A9CCF80E28C0F883068F403
:1019B000C77021E030E001C0220FCA95EAF780919C
:1019C0004302822B809343028BCFEBE5EC0FE33095
:1019D00040F4F0E0EC5BFE4F808190E0CF910C94FE
:1019E000A505E8E5EC0FE73150F4F0E0EE0FFF1F3E
:1019F000E95BFE4F80819181CF910C948F05C03FB0
:101A000030F08C2F0E949D07CF910C94BB06CF9194
:101A100008951F93CF93DF93182FD0E0C0E0893350
:101A200011F4C0E5D0E0812F0E94540C209731F4CE
:101A3000812FDF91CF911F910C942F0B8FE99FE0A5
:101A40000197F1F700C000002197F0CF0F931F938B
:101A5000CF93DF93C62FD42F022FFC0182818823DE
:101A6000A1F0609393030E94830590939203809367
:101A70009103C77081E001C0880FCA95EAF7DF9132
:101A8000CF911F910F910C94250B809193036813B4
:101A900035C080919103909192030E947405883C17
:101AA000910560F510E21D0FCD17B9F080E28C0FA3
:101AB000883040F4C77081E001C0880FCA95EAF70A
:101AC0000E941A0B183048F481E09D2F977001C0D6
:101AD000880F9A95EAF70E94250B802F0E94090D26
:101AE000183098F4D77081E001C0880FDA95EAF7D2
:101AF000DF91CF911F910F910C941A0BC77081E069
:101B000001C0880FCA95EAF7F3CFDF91CF911F91FB
:101B10000F910895DF92EF92FF920F931F93CF934F
:101B2000DF93E82FF0E0E85EFD4FD490282F269554
:101B30002695269530E0F901E85FFD4F0491877006
:101B400010E0082E02C0159507950A94E2F701707F
:101B50001127F901E850FE4FE490F12C082E02C045
:101B6000F594E7940A94E2F791E0E922FF24F90161
:101B7000E851FE4FC491D0E002C0D595C7958A9533
:101B8000E2F7C170DD270115110519F081EE0E9401
:101B9000540CE114F10419F086EE0E94540C8D2DC2
:101BA0000E94090DEF2819F086EE0E942F0B012BE1
:101BB00019F081EE0E942F0BCD2B51F08CE2DF91BA
:101BC000CF911F910F91FF90EF90DF900C94090D32
:101BD000DF91CF911F910F91FF90EF90DF900895CB
:101BE000CF93DF93C7E0D2E060E0CE010E94F52EF4
:101BF0002196C11584E0D807B9F7DF91CF910895F8
:101C00006F927F928F929F92AF92BF92CF92DF920C
:101C1000EF92FF920F931F93CF93DF938BECC82E1D
:101C200084E0D82E0FE510E0E801E09736011CC0F3
:101C3000F50185909490692DC7010E94F52E682DBD
:101C4000C70101960E94F52E82E0A80EB11C82E029
:101C5000E80EF11CCE15DF0559F788E0680E711CFF
:101C600028960C171D0731F07E0188E0E81AF1086C
:101C70005301DECF005D1F4F80E3C80ED11C0F3330
:101C800082E0180789F6DF91CF911F910F91FF90A5
:101C9000EF90DF90CF90BF90AF909F908F907F900C
:101CA0006F900895CF93C82F6FEF811161E283E2A7
:101CB00090E00E94F52E6FEFC11161E184E290E0A7
:101CC0000E94F52E6FEFC11168E085E290E0CF91A0
:101CD0000C94F52E80E00E94520E60E086E290E0C7
:101CE0000E94F52E0E94000E0E94F00D81E00C94DF
:101CF000520ECF93C0910303C2FB992790F9981716
:101D000081F080FBC2F9C09303036091020384E079
:101D100090E00E94F52E6C2F82E290E0CF910C941F
:101D2000F52ECF9108950F931F93CF93DF9328E063
:101D3000629FE001112450E0440F551FC40FD51FCE
:101D400030E3839FC00DD11D1124CE0187960E94E0
:101D5000E12E082F10E0102F0027CE0188960E9458
:101D6000E12E9801282BC901DF91CF911F910F918E
:101D70000895462F8A3038F4763028F4643018F409
:101D8000672F0C94930E90E080E00895BF92CF925D
:101D9000DF92EF92FF920F931F93CF93DF937C011B
:101DA00000913603109137038091450290914602CD
:101DB000082B192BCFE0D0E0CC24C394D12CBC2E1F
:101DC000C6010C2E02C0880F991F0A94E2F78023E7
:101DD0009123892B71F4219790F7B12C8B2DDF91F2
:101DE000CF911F910F91FF90EF90DF90CF90BF9018
:101DF0000895B7018C2F0E94B90E0E9453080197D5
:101E000051F3ECCFCF93DF93EC010E94C60EBE01DD
:101E10000E94B90EDF91CF910C945308FC0186818A
:101E20009781009779F00E945308292F2F7092957F
:101E30009F7092509E30A0F4E92FF0E0E55DF04DE8
:101E40000C947D2E808191810E94020FEECF803F05
:101E500019F020F4883E20F481E00895843FE1F3F6
:101E600080E00895883EC0F3813FD1F7F5CF822FFF
:101E700086958695869508951F93CF93DF9300D01E
:101E800000D00F92CDB7DEB7FC0126813781211536
:101E9000310541F525E0DE01119601900D922A955C
:101EA000E1F7FC01228189819A812223B9F066231E
:101EB000A9F00E94C60E182F682F89819A810E946E
:101EC000B60A69817A81812F0F900F900F900F9041
:101ED0000F90DF91CF911F910C94B90E0E948F0A41
:101EE000182FEFCFC9010F900F900F900F900F9008
:101EF000DF91CF911F91089583E290E00E94E12E3F
:101F0000813289F484E290E00E94E12E813159F41B
:101F100085E290E00E94E12E91E0883009F090E0A7
:101F2000892F8170089580E0FCCFCF9384E090E00A
:101F30000E94E12EC82F82E290E00E94E12E982FAD
:101F40008C2FCF91089560918C03669570E04BE0E3
:101F500050E08AE091E00E94C72E892B19F481E0BD
:101F6000809382020E94830590937C0280937B027F
:101F70000895AF92BF92CF92DF92EF921F93CF93CB
:101F8000DF93CDB7DEB7C455D1090FB6F894DEBFE5
:101F90000FBECDBF80918C0380FD0AC0E8E3F3E063
:101FA000118210821282339683E0EC38F807C1F771
:101FB0007FEAA72E73E0B72EDE011196AE014B5AD1
:101FC0005F4F1A2F7B2FF5018491282F30E0C90134
:101FD000880F991F820F931F885C9C4FFC01C08063
:101FE000D180E280CD92DD92ED92FFEFAF1ABF0A71
:101FF000A417B50741F7279A35B13F7725B1206877
:102000006FB7F894812F972FFC017191CF01E8E011
:1020100025B9000000C077FF35B9770F000000C078
:1020200000C000C035B900C0EA9591F78417950744
:1020300059F76FBF8FE594E00197F1F700C00000FA
:10204000CC5ADF4F0FB6F894DEBF0FBECDBFDF9185
:10205000CF911F91EF90DF90CF90BF90AF900895F8
:102060001F93CF93DF9300D00F92CDB7DEB7162F1B
:1020700090918C0390FF18C09E012F5F3F4F48E75F
:102080006FEF0E9422068B819981612F70E0FB0126
:10209000EE0FFF1FE60FF71FE85CFC4F2A8121833C
:1020A000908382830E94B90F0F900F900F90DF9161
:1020B000CF911F910895EF92FF920F931F93CF93AB
:1020C000DF938C01C8E3D3E0F12CE12CF80194817B
:1020D00060918E0380918D03FEE0EF16F104FCF415
:1020E0009923F9F09E0140918F030E9422062FEF61
:1020F000E21AF20A23968CE1E816F10439F70E94FD
:10210000B90FF801848190E001968170992784834A
:10211000DF91CF911F910F91FF90EF900895992338
:1021200009F39E0140E0E1CF8F929F92AF92BF9260
:10213000CF92DF92EF92FF920F931F93CF93DF9393
:10214000EC014C81042F10E09801D8010E94922EDE
:102150009B01AC010E94A82E4B015C01E0E2F0E083
:10216000E01BF10BA5E5B0E0AC019B010E94A82E9D
:102170006B017C019F01DF010E948A2E9B01AC0153
:102180000E94B32E9B01AC01280D391D4A1D5B1D19
:10219000C701B6010E945B2EF22E822F90E039E239
:1021A0003F15D8F143E0249F9001112435952795E0
:1021B000122F109598E3C92E93E0D92E00E085E503
:1021C000E82EEF188E2D01FD8F2D9601412F609185
:1021D0008E030E9422060F5F53E0C50ED11C0C3106
:1021E00089F70E94B90F9C8181E0992319F0903200
:1021F00019F48FEF8093170180911701890F8C8359
:10220000DF91CF911F910F91FF90EF90DF90CF90D2
:10221000BF90AF909F908F90089525E530E0A90181
:10222000481B590BCA019A01220F331F280F391F6F
:1022300037FFBCCF2F5F3F4FB9CF0F931F93CF9383
:10224000DF93C8E3D3E0FE0111821082128233963D
:1022500083E0EC38F807C1F710E000E080918502D8
:10226000082E000C990B081719078CF180911601A4
:10227000082E000C990B801791074CF19E0140919C
:102280008F0360918E0380918D030E9422060F5F61
:102290001F4F23960C31110509F70E94B90F809149
:1022A000150190918502980F909385022091160157
:1022B000280F20931601121614F49B311CF08195FF
:1022C00080931501DF91CF911F910F91089519828D
:1022D00018821A82DCCFBF92CF92DF92EF92FF92E8
:1022E0000F931F93CF93DF93FC018281DD24DA9457
:1022F00080FD02C0DD24D39408E313E0D0E0C0E009
:102300002CE1B22EF80111821082128294E0E92EA3
:10231000F12CC12C809184028C0D8D310CF43DC0C8
:102320006B2D0E94252E892F082E000C990B8C17DF
:102330009D0791F480918F038E9DA0018F9D500D7C
:1023400011245595479555954795980160918E03B1
:1023500080918D030E942206CD0CF1E0EF1AF10866
:10236000C9F621960D5F1F4FCC31D10559F60E9459
:10237000B90F8091840291E0D91215C0811111C06A
:102380008BE180938402DF91CF911F910F91FF9099
:10239000EF90DF90CF90BF90089587FFC5CF845E08
:1023A000C3CF8150EECF90E00196BE010E94472E30
:1023B000E8CFEF92FF921F93CF93DF93EC0188E376
:1023C000E82E83E0F82E10E08C81970140918F0376
:1023D00060918E03810F0E942206175F83E0E80E52
:1023E000F11C1C3F89F70E94B90F9A818C8190FFE4
:1023F00008C08F5F8C83DF91CF911F91FF90EF908A
:1024000008958150F7CF90918C0390FF0CC0E8E3C2
:10241000F3E0818360834283339693E0EC38F907DD
:10242000C1F70C94B90F08950F931F93CF93DF93C7
:1024300000D00F92CDB7DEB78C018091860281115A
:102440000AC09E012F5F3F4F44EB6FEF0E942206B0
:102450008A8180938602F8016481613069F08091FD
:10246000860240E0662361F040E0623011F4409162
:10247000860280E060E004C06091860240E080E077
:102480000E940312F801848190E0019663E070E0FD
:102490000E94472E84830F900F900F90DF91CF9171
:1024A0001F910F910895CF93DF9300D00F92CDB776
:1024B000DEB790918C0390FF0AC09E012F5F3F4FC3
:1024C0000E9422064B8169818A810E9403120F902B
:1024D0000F900F90DF91CF910895CF93DF93EC0190
:1024E000ECE8F3E0438162818C810E9453128C817D
:1024F0008F5F8C83DF91CF910895CF93DF93EC01B1
:10250000EC81F0E0E553FC4F4491ECE8F3E06281AC
:1025100081810E9453128C818F5F8C83DF91CF91D8
:102520000895CF92DF92EF92FF926B017C010E949F
:102530000C06B701A60188E090E0FF90EF90DF90D5
:10254000CF900C94072F5F926F927F928F929F9201
:10255000AF92BF92CF92DF92EF92FF920F931F93B1
:10256000CF93DF9300D00F92CDB7DEB7182F762E22
:10257000042F622E90918C0390FF29C0E92FE695DD
:10258000AE2FB0E0A157BE4F8C91809381029E7F09
:10259000923081F59E012F5F3F4F812F0E942206CE
:1025A0004B8169818A810E94031210938D0370927E
:1025B0008E0300938F03662051F060918C0370911D
:1025C0008D0380918E0390918F030E9491120F9042
:1025D0000F900F90DF91CF911F910F91FF90EF908F
:1025E000DF90CF90BF90AF909F908F907F906F9033
:1025F0005F900895823019F400918F03D6CF863012
:1026000019F410918D03D1CF8930D9F3893169F64E
:10261000E9518E2F8170582EE695F0E0E655FC4F7B
:10262000A590B490BB2488E3E82E83E0F82ED12C4B
:10263000C12C9CE1892E912CC601B4010E94332E3D
:10264000812F511013C0860F9701402F672D0E94D4
:102650002206CA0CDB1C83E0E80EF11C8CE8E816AD
:1026600083E0F80649F70E94B90F9FCF861BECCF95
:10267000ECE8F3E0438128E0421B08F440E021E06D
:10268000628181810C94A312ECE8F3E0438128E09D
:10269000420F08F44FEF21E0628181810C94A31274
:1026A000ECE8F3E0628128E0621B08F460E021E0DE
:1026B000438181810C94A312ECE8F3E0628128E06D
:1026C000620F08F46FEF21E0438181810C94A31223
:1026D000ECE8F3E0818121E04381628188500C9431
:1026E000A312ECE8F3E0818121E043816281885FFD
:1026F0000C94A31280919003882319F08150809349
:10270000900360918C0370918D0380918E03909162
:102710008F030C94911280919003833018F48F5F93
:102720008093900360918C0370918D0380918E0350
:1027300090918F030C94911290918C0390FF36C06E
:102740009170811129C0926090938C03662351F09F
:1027500060918C0370918D0380918E0390918F0313
:102760000E94911260918C03669570E04BE050E0FE
:102770008AE091E00E94C72E892BA9F01092820274
:1027800081E080937E0220E040918F0360918E0370
:1027900080918D030C94A312853210F09864D4CFED
:1027A000880F982BD1CF0E94A30FEACF089521E084
:1027B00030E0A90102C0440F551F8A95E2F7CA0113
:1027C00020918302662399F0822B8093830280916B
:1027D0008202811106C080918C0360E086950E9480
:1027E0009C1380918C0380FD05C00C94B90F8095DB
:1027F0008223EBCF08950F931F93CF93DF93EC01C8
:1028000061E0009709F0682F617080E00E94D713A3
:1028100060E0209721F0BE0176956795617081E0B8
:102820000E94D71360E0209731F0BE01769567953E
:1028300076956795617082E00E94D71360E02097DB
:1028400039F0BE0113E0769567951A95E1F761704E
:1028500083E00E94D71360E0209739F0BE01B4E016
:1028600076956795BA95E1F7617084E00E94D71379
:10287000AE0170E060E0BB27A72F962F852F009751
:10288000A105B105D9F1AC01BD0188E08A019B0128
:10289000F4E03695279517950795FA95D1F7011528
:1028A00011052105310519F08C5FB901A8018A01D4
:1028B0009B01E2E03695279517950795EA95D1F7A4
:1028C000011511052105310519F08E5FB901A80127
:1028D0007695679557954795452B462B472B09F0DD
:1028E0008F5F823019F160F4882399F08130C1F054
:1028F000CE01DF91CF911F910F91089580E0C6CF57
:102900008330C9F08430A1F720E044E66FEF8FE018
:1029100004C020E044E66FEF82E30E94A312E8CFF8
:1029200020E044E66FEF85E00E94A31220E044E639
:102930006FEF80E8F2CF20E044E66FEF87EDEDCF58
:102940000E94FB1390933703809336030C94E20AA2
:1029500080913603909137039C01267033272630EF
:10296000310519F488600C94A014877FFCCF21E016
:1029700030E002C0220F331F8A95E2F72095309590
:102980008091360390913703822393230C94A014F3
:10299000909140028095892380934002282F2770D0
:1029A00039F4282F082E000C330B9217130621F44C
:1029B0009091030392FF07C08595859585950E94A8
:1029C000B71410924002089521E030E002C0220FB7
:1029D000331F8A95E2F78091360390913703822B5B
:1029E000932B0C94A01480918C038695815009F44C
:1029F00084E261E00C949C1380918C0386958F5F38
:102A0000853208F081E061E00C949C1390918C0376
:102A100090FF07C09695981720F0961710F40C9425
:102A2000FC1461E00C949C13ECE8F3E083E08083F9
:102A300011828FEF828388E28383148260817181A7
:102A4000828193810C94911269EE7EEF90E080E098
:102A50000E94132F60E082E090E00E94F52E60E07B
:102A600083E090E00E94F52E1092460210924502FB
:102A700060E084E090E00E94F52E60E082E290E069
:102A80000E94F52E60E085E090E00E94F52E60E067
:102A900086E090E00E94F52E6FEF87E090E00E94C4
:102AA000F52E40E050E0BA0188E090E00E94072F48
:102AB00060E08DE090E00E94F52E40E050E0BA0129
:102AC00088E190E00E94072F60E087E190E00E949B
:102AD000F52E40E050E0BA018CE190E00E94072F13
:102AE00070E060E080E290E00E94132F40E050E050
:102AF000BA0188E190E00E94072F80E00E94520E08
:102B00000E946A0E40E050E0BA018FE090E00E941F
:102B1000072F40E050E0BA0183E190E00C94072FCA
:102B200090E080E00E94EF2E893E9E4F11F40C94BD
:102B30007C0F80E008951092430280914301E8ECFD
:102B4000F1E0882359F08091020387FF07C08EE1EE
:102B5000DF011D928A95E9F70C94E20A86E0F8CF2E
:102B60001F93CF93DF93CDB7DEB7AA970FB6F89434
:102B7000DEBF0FBECDBF8EE293E02091F100DC01FD
:102B80002D93CD01B3E086339B07B9F780912F03D6
:102B9000833009F471C0B8F4813009F448C0823040
:102BA00009F4B2C08091E80083FF3AC180912E03FE
:102BB00090912F039A3008F033C1E92FF0E0E75CE1
:102BC000F04D0C947D2E8A3009F48DC08B3009F4C1
:102BD00070C0893039F780912E03813219F78091C6
:102BE000320390913303009711F00297D9F6809148
:102BF000E800877F8093E8008091E80082FF37C07B
:102C00009091F3008091F200029729F48091F100F5
:102C10008B7F813021F48091F100809309038091B2
:102C2000E8008B778093E8000E946104BBCF80911D
:102C30002E03813A09F0B6CF8091E800877F809318
:102C4000E8008091320390913303892B61F460E2B4
:102C50008AE093E070E00E9413058091E8008B7792
:102C60008093E8009FCF60E090E080E0F3CF809118
:102C70002C038111C1CF96CF80912E03813A09F0A8
:102C800091CF8091320390913303892B09F08ACF41
:102C90008091E800877F8093E8008091E80080FFC2
:102CA000FCCF809143018093F1008091E8008E7702
:102CB000B9CF80912E03813209F074CF8091320315
:102CC00090913303892B09F06DCF8091E800877FC5
:102CD0008093E8000E946104809130038093430157
:102CE0000E949B155FCF80912E03813209F05ACF4D
:102CF0008091E800877F8093E8000E9461048091C2
:102D00003103809308034ECF80912E03813A09F05E
:102D100049CF8091E800877F8093E8008091E800A8
:102D200080FFFCCF80910803BECF803899F08238B5
:102D300009F076C0809132038F70873008F070C040
:102D40008093E9008091EB0085FB882780F9109241
:102D5000E90006C080912A0390912B0391118260B3
:102D60009091E800977F9093E8008093F100109293
:102D7000F1008091E8008E77B5C1882309F4A2C1E3
:102D8000823009F04DC0809130038111A6C180913D
:102D900032038F702FEF280F263008F041C0809348
:102DA000E9002091EB0020FF98C1933031F480912D
:102DB000EB0080628093EB0090C19091EB009061FA
:102DC0009093EB0021E030E001C0220F8A95EAF7F2
:102DD0002093EA001092EA008091EB008860EACF2D
:102DE00081111EC0109130031F778091E30080781D
:102DF000812B8093E3008091E800877F8093E80037
:102E00000E9461048091E80080FFFCCF8091E30084
:102E100080688093E30082E0111183E080932C03AB
:102E20008091E80083FF0AC08091E800877F80934B
:102E3000E8008091EB0080628093EB00AA960FB6C9
:102E4000F894DEBF0FBECDBFDF91CF911F910895E3
:102E50008058823028F720913003309131032C3D87
:102E6000E3E03E07A1F583E08A838AE289834FB7D6
:102E7000F894DE01139620E03EE051E2E32FF0E00B
:102E800050935700E49120FF03C0E295EF703F5F3D
:102E9000EF708E2F90E0EA30C0F0C7968D939D932F
:102EA0002F5F243159F74FBF8091E800877F8093CF
:102EB000E8006AE270E0CE0101960E94130580915D
:102EC000E8008B778093E800ABCFC096E7CF809186
:102ED000320390913303432F55274330510509F4B2
:102EE0004AC078F54130510509F47AC08BE590E08D
:102EF000EBEAF6E04230510509F092CF2091E8006C
:102F0000277F2093E8002091340330913503821706
:102F1000930708F49C0140E02115310509F065C0D4
:102F2000411163C08091E80082FDC9CF80912C03DC
:102F3000882329F2853019F28091E80083FFF2CFCF
:102F4000BECF4132510509F43CC04232510509F06F
:102F500067CF8330910508F063CFFC01EE0FFF1FB0
:102F6000E954FE4F0190F081E02D8C549E4FDC011E
:102F70008C9190E01AC0332721303105D1F0211512
:102F8000310561F02230310509F04ACFE8E1F7E080
:102F9000E4918E2F90E0E8E1F7E007C0E8E3F7E086
:102FA000E4918E2F90E0E8E3F7E0009709F438CF42
:102FB000A5CFE4E2F7E0E4918E2F90E0E4E2F7E0C1
:102FC000F4CF8330910508F02BCF880F991FFC01B7
:102FD000E354FE4F0190F081E02D89E090E08ECF28
:102FE00082E190E0E6E0F7E089CF80912C0388232E
:102FF00009F465CF853009F462CF8091E80083FD44
:103000005ECF8091E80082FD8DCF8091E80080FF47
:1030100083CF9091F3008091F2002115310519F0D2
:103020008830910550F041E0089709F040E0809128
:10303000E8008E778093E8006FCF44914093F100D1
:103040003196215031090196E8CF803809F0E8CE59
:103050008091E800877F8093E80080912D03809322
:10306000F10087CE8111DCCE10913003123008F0D0
:10307000D7CE8091E800877F8093E80010932D03DE
:103080000E946104112311F084E005C08091E300E7
:1030900087FDFACF81E080932C0342E061EC81E070
:1030A0000E94800442E261EC84E00E94800442E2DB
:1030B00061EC82E00E94800442E260EC83E00E94C6
:1030C0008004AECE80913003813009F0A9CE81E03A
:1030D000933009F080E080932B031092E9008091F7
:1030E000E800877F8093E8000E94610499CE9F9258
:1030F000AF92BF92CF92DF92EF92FF920F931F9306
:10310000CF93DF9300D000D0CDB7DEB77C01FC01B8
:1031100083819481892B31F08081918189238F3F34
:1031200009F060C60F900F900F900F90DF91CF9134
:103130001F910F91FF90EF90DF90CF90BF90AF90D5
:103140009F900895980122513F452031310508F0A4
:103150003EC68FEF93E00E94E12E025167E0C62E3B
:1031600062E0D62E882339F1809140028770D1F237
:10317000F70182818823B1F282E00F900F900F90C7
:103180000F90DF91CF911F910F91FF90EF90DF9003
:10319000CF90BF90AF909F900C94C814C114F4E0EE
:1031A000DF0611F3C6010E94E12E811101C001501A
:1031B0002FEFC21AD20A0111F1CF1C821B82BB244D
:1031C000B3945AE0A52E86010F5F1F4FC6010E94DF
:1031D000E12E89831A82882339F29FEF980F93306A
:1031E00008F58A83B98232E0C30ED11CC8010E945F
:1031F000E12E8B83882309F4B7CF8E010F5F1F4F19
:10320000F80180818823F9F2813009F043C091816F
:103210008281913049F40E5F1F4F0E94090D0F5FAC
:103220001F4FEECF6801E9CF923029F40E5F1F4F98
:103230000E94540CF4CF933029F40E5F1F4F0E946C
:103240002F0BEDCF943019F00F5F1F4FE8CF0E5FBB
:103250001F4F30E020E0B8016F5F7F4FF8014181E0
:103260008053990B8A30910550F021503109B8F202
:103270008FE99FE00197F1F700C00000F6CFA29E12
:10328000F001A39EF00D11249C012E0F3F1F842FEF
:103290008B01E1CF0E948A0DC2CF81E00E94E4142D
:1032A0000E94A81461CF81E00E94B714F9CF82E098
:1032B000FBCF04389FE5190709F483C008F473C0F5
:1032C0000538FFE51F0709F0B1C5882309F4AEC52D
:1032D00080EE0E94540C81EE0E94540C80E10E940A
:1032E000540C80E10E942F0B81EE0E942F0B80EE88
:1032F0000E942F0B8091E60191E062E18927809383
:10330000E601882309F48DC08FE00E94301066E149
:103310008FE00E9430108AC5882369F180914F02A6
:10332000811106C081E080934F0282EE0E94540C0E
:103330000E94830590934E0280934D028BE20E947F
:10334000540C74C58823A1F080914F02811106C0EE
:1033500081E080934F0282EE0E94540C0E9483050C
:1033600090934E0280934D0281EE0E94540CE6CF62
:1033700081EE0E942F0B8BE20E942F0B57C58823F2
:1033800009F454C581EE0E94540C83EE0E94540C43
:103390008FE40E94540C8FE40E942F0B83EE0E9456
:1033A0002F0B81EEE9CF882309F440C581EE0E94FE
:1033B000540C83EE0E94540C80E50E94540C80E56E
:1033C000EBCF882309F4D0CE10914C0281E018276E
:1033D00010934C020E94830590934B0280934A0203
:1033E00068E1112381F08FE00E94301069E18FE0E5
:1033F0000E9430106AE18FE00E9430106BE18FE094
:103400000E943010B1CE84EB0E94301069E184EB51
:103410000E9430106AE184EB0E9430106BE184EB73
:10342000EFCF8FEA0E94301066E18FEA72CF82EE12
:103430000E94540C36C583E00E94100B88E10E9464
:10344000540C88E10E942F0B83E00E94050B29C5D4
:1034500082EE0E94540C87E50E94090D22C586EE7B
:103460000E94090D88E1F8CF895A35C582EE0E9485
:103470002F0B49C58CE20E94090D8091E801882339
:1034800009F441C589E30E94090D3DC588E2FBCFDF
:10349000033FFCE51F0739F1A0F4083D3CE51307A5
:1034A000F1F0093D8CE5180751F1073D9CE519073E
:1034B00009F02DC526E241EE61EEC7010E94260DFE
:1034C00053CE053FECE51E07B1F088F0063F2CE532
:1034D000120709F01CC527E245EE66EEEECF27E2A3
:1034E00045EE65EEEACF26E241EE60EEE6CF27E25A
:1034F00045EE64EEE2CF26E241EE62EEDECF28E258
:1035000041E0EFCF01363DE5130709F417C5063159
:103510002CE5120709F444C18091430282720C3CED
:10352000ECE51E0709F404C208F084C1063C2CE552
:10353000120709F4E9C108F05BC1033C9CE51907D7
:1035400009F4D8C108F043C1023CFCE51F0709F4A7
:10355000ACC10A353DE5130709F426C208F002C2E2
:1035600001159CE5190709F40FC20E3D1C4509F42D
:1035700018C2F70186819781009709F419C20E9449
:1035800053088C01F701D280C580C2943FE0C3226A
:10359000809140028770A1F0AD2CDD2091F0812F49
:1035A000807F803421F080E2800F883048F082E014
:1035B0000E94C814809140028770AA24A3948111AC
:1035C000A12C912E92942FE09222FBE0F91508F4A1
:1035D0003CC2E92DF0E0ED5BF04D0C947D2E809126
:1035E000020380610630ECE51E0709F491C080916A
:1035F0000203886007301C4508F48AC080910203EA
:10360000806286C0809102038D7F0C302CE512070A
:1036100009F47EC058F40A308CE5180709F493C009
:1036200008F48BC0809102038E7F72C080910203E8
:10363000877F0E30ECE51E0709F46AC08091020313
:103640008B7F0F301C4508F463C0809102038F7E8E
:103650005FC00C3F2CE5120709F479C068F504310E
:103660008CE5180709F48BC080F40231ECE51E07E5
:1036700009F475C0809102038F7B03311C4508F467
:1036800047C080910203837F43C00A3F2CE51207A5
:1036900009F445C008F049C005311C4509F075C45E
:1036A0008091020382FB992790F921E0922790FBF9
:1036B00082F990FB83F92CC001159DE5190709F4E7
:1036C00054C088F48091030383600E3FFCE51F071C
:1036D00049F1809103038D7F0F3F1C4518F18091C4
:1036E00003038C7F1FC002303DE5130709F456C069
:1036F00008F44EC001361D4509F047C490910203FD
:10370000892F8F7E94FF806103C0809102038160C6
:10371000809302033AC4809102038460F9CF8091C0
:10372000030381608093030330C4809103038260AC
:10373000F9CF809102038064EBCF0E949B158091AA
:1037400002038068E5CF809102038C60E1CF809115
:1037500003038E7FE7CF809102038F7DD9CF0E9434
:103760009B15809102038F77D3CF80910303982F0D
:10377000909591708E7F892B90FB81F9D3CF0E9419
:103780009B1590910203892F97FB87F98058C0CF32
:1037900061E08EE090E00E94F52EF7C360E0F9CF83
:1037A000882309F406C4809143028A7A91E009F4DF
:1037B00090E09093E901811106C089E20E94510ACC
:1037C0000E94E109D1CC85E3F9CF85E3F7C3043C3E
:1037D0002CE5120709F493C048E653E161E773E171
:1037E000053C3CE5130709F0B4CE0E940606BCCCAC
:1037F000093C9CE5190709F491C070F4073CFCE50D
:103800001F0709F486C04CE553E160E573E1083C0D
:103810002CE5120751F39DCE0A3C3CE5130709F451
:1038200082C04AE753E16BE873E10B3C9CE5190762
:10383000E1F28FCE013DECE51E0709F487C0B0F43C
:103840000E3C2CE5120709F47BC008F476C00F3C4F
:103850008CE5180709F477C06EE089E0003D9CE52F
:10386000190709F076CE0E9406157ECC043DECE5E2
:103870001E0709F471C078F4023D2CE5120709F423
:1038800068C061E088E1033D3CE5130709F061CEC3
:103890000E949C1369CC053D8CE5180709F45FC0B4
:1038A0000D35100709F460CC54CE80918C0380FF55
:1038B0001BC08E7F80938C0360918C0370918D036D
:1038C00080918E0390918F030E9491121092820238
:1038D000EFEFF0E722E0E150F0402040E1F700C0D8
:1038E00000000E94B90F40CC816080938C0361E09E
:1038F0008695CECF43EF54E16CEF74E176CF4CEF79
:1039000054E163EF74E171CF41E753E168E673E19D
:103910006CCF40E553E16CE573E167CF48E353E1D9
:1039200064E473E162CF44E453E168E373E15DCFA3
:103930004BE853E16AE773E158CF61E081E0A8CF3B
:1039400065E082E090CF68E086E08DCF64E18FE0B3
:103950008ACF67E185E187CF62E289E184CF61E0C8
:1039600083E296CF0B35FDE51F0701F10C351D45B0
:1039700009F0FFCD8091030382FB882780F991E055
:1039800089270E94790EF5CD0E949B153FEF84E3B5
:103990009CE0315080409040E1F700C000000E9460
:1039A000300C0E942415E0CB81E0EBCF80E0E9CF22
:1039B000828100811181882369F0C8010E94C60EAE
:1039C000D82E682FC8010E94B60AB8018D2D0E941A
:1039D000B90ED5CDC8010E948F0AD82EF6CF212F5F
:1039E0002F70C22E107F19F0C29490EFC922DD20F3
:1039F000C9F0CC2069F080E2800F883010F001110E
:103A00000BC080914302C82AC09243020E94E10980
:103A1000802F0E94540C19C080914202C82AC09283
:103A20004202F4CF802F0E942F0BCC2071F0C09463
:103A300080E2800F883010F001113AC0809143027B
:103A4000C822C09243020E94E109E92DE850FF0B11
:103A5000349720F40E94BB050E948C0BAA20A9F089
:103A60008091400280FD11C0F701128285958595F5
:103A700085950E94E414C7010E9477188091400246
:103A80008595859585950E94B71460E0C7010F90D4
:103A90000F900F900F90DF91CF911F910F91FF909A
:103AA000EF90DF90CF90BF90AF909F900C943C0F21
:103AB00080914202C822C0924202C5CF312F3F708E
:103AC000B32E107F103219F0B29480EFB822002389
:103AD00069F0013081F1DD20D9F1CC2091F1F701BD
:103AE000858180FF95CF8F7085832BC0DD20B1F05D
:103AF00090914402892F8B29C11003C00E94250B8D
:103B0000A4CFE1E0CE12FACF2091030322FD9DCF96
:103B1000981709F49ACF8093440297CFC11006C03A
:103B20000E94DB098B2D0E941A0B8FCFF1E0CF167C
:103B300009F48BCFF5CFDD2031F025E02C1508F40A
:103B400084CF8B2DDBCF34E03C1508F47ECFEACF59
:103B5000CC2041F3093349F4FFEF27EE33E0F15075
:103B600020403040E1F700C00000802F0E942F0B62
:103B70006CCF812F86958695837061F0813009F036
:103B800064CFC8019370D11002C090E080E00E9421
:103B90008F055BCFC8019370D11002C090E080E028
:103BA0000E94A50552CF802FDD2029F00E949D079D
:103BB0000E94BB064ACF0E94E206FACF812F837093
:103BC00009F03FC0D11041CF402F42954695477034
:103BD000440F440F802F8F7090E0042E02C0880F96
:103BE000991F0A94E2F730E020E004FF09C02FE0BB
:103BF00030E002C0220F331F4A95E2F7209530953E
:103C0000169516951370123099F078F4409145028C
:103C100050914602113039F0822B932B8423952347
:103C20000E94FF0A12CF842B952B822B932BF8CF67
:103C3000822B932B209145023091460282279327B5
:103C4000EFCF8695DD2011F0812F8170882309F454
:103C5000FCCE402F429546954770440F440F802F6D
:103C60008F7090E0042E02C0880F991F0A94E2F72B
:103C700030E020E004FF09C02FE030E002C0220F56
:103C8000331F4A95E2F720953095169516951370D7
:103C9000123099F078F44091360350913703113087
:103CA00039F0822B932B842395230E94A014CDCE30
:103CB000842B952B822B932BF8CF822B932B209147
:103CC00036033091370382279327EFCF1F70DD2013
:103CD00029F0812F0E94E414802F10CF802F0E94A2
:103CE0001A0B812F0E94B714B0CE023F09F441C0D5
:103CF00060F4003F11F1013FA1F1DD2009F457C04C
:103D0000C11086CE812F8F7131C0033FB9F1043FBE
:103D1000A1F7DD2009F440C01F71812F0E94E41437
:103D20008091030382FD07C0E8E01E9FC0011124BB
:103D3000836080934002812F19C0DD2069F084E008
:103D40008C1508F482CE1F7181E090E002C0880FCC
:103D5000991F1A95E2F7B3CF95E09C1508F475CE3C
:103D6000F2CF812F8F71DD2009F4BCCF0E94E414C3
:103D70006CCE812F8F71DD20C9F3B4CF90E080E04D
:103D8000DD2009F492CF1F7181E090E002C0880F1E
:103D9000991F1A95E2F789CF81E00E94C814F1E0DB
:103DA000FC1508F052CE82E00E94C8144ECECC2002
:103DB00059F0093309F0D9CE2FEF37EE83E02150C7
:103DC00030408040E1F7CFCE812F8F718BCF003113
:103DD0003FE5130709F461CA01319FE51907A9F40A
:103DE00082E05CCA61E0C7010E943C0F8C01F701D0
:103DF00082818111A7C90031FFE51F0709F453CA69
:103E000001312FE5120709F452CA0238EFE51E0707
:103E100009F4B5CA08F04DCA00382FE5120709F4B5
:103E20007BCA01383FE5130709F48CCAF701828188
:103E3000882369F0C801815E9C45059740F46FE1D5
:103E4000600F609350028CE090E00E94F52E17FF07
:103E50001FCBF7018281882309F459C00E94BB055A
:103E6000869581708093E80190915002913029F4F9
:103E7000882319F089E30E94090D80914302809301
:103E8000E7011092430280915002813009F4D3CAB5
:103E9000882309F4CCCA823009F4DACA843009F4E0
:103EA000DECA8FE39CE90197F1F700C000005801DA
:103EB000E894B7F84CE0C42ED12CC5010C2C02C0FC
:103EC000969587950A94E2F78F7096EF980F963043
:103ED00008F4CACA805D0E948A0D94E0C91AD1080C
:103EE000ECEFCE16EFEFDE0641F780915002813005
:103EF00009F4C0CA882309F4B9CA823009F4B6CAE1
:103F0000843009F4C3CA8091E70180934302F7012A
:103F10008281882309F449C0109293030330FDE5A0
:103F20001F0708F0EFCA0A3F2CE5120738F4980182
:103F300022503C452431310508F0E9CA0E94950F12
:103F4000909303038093020300318CE5180709F472
:103F500002CC08F07ECB0830ECE51E0709F4E9CB73
:103F600008F050CB04302CE5120709F4D4CB08F04C
:103F700036CB02308CE5180709F4C7CB80910203D9
:103F8000826003301C4509F4C3CB60910203109199
:103F9000030384E090E00E94F52E612F82E290E01E
:103FA0000E94F52E0E949B15DFC806311C4509F0C2
:103FB000E0CA8091E901811108CC89E20E94260AB9
:103FC000FFCBCF93DF938091FB01807FA1F48091A1
:103FD000F801882381F080913F02D091FE01609129
:103FE000F6017091F701A091F901B091FA01C62F85
:103FF000C723D81303C0DF91CF91089590E01097A5
:1040000011F0CF3F19F401968770F3CF9C0143E084
:10401000220F331F4A95E1F7F901E150FE4F41812C
:104020004713F1CF40814613EECF42814111EBCFD0
:10403000438154814A1B5B0B483C510520F780911A
:10404000FB018F7080618093FB01F901EC5FFD4FF4
:1040500080818F708061808386EF91E00E94771865
:10406000DF91CF910C94850AAF92BF92CF92DF92ED
:10407000EF92FF920F931F93CF93DF93CDB7DEB7ED
:1040800065970FB6F894DEBF0FBECDBF8C0185E0FB
:10409000F801DE01519601900D928A95E1F7F80141
:1040A000E28066EFA62E61E0B62E6091F901709174
:1040B000FA016115710509F468C19091F60140910A
:1040C000F701892F84238F3F09F45FC1208131815B
:1040D000C380D480F090F801F601E61BF70BFF20B7
:1040E00009F41DC18091FB01582F507FE83CF10578
:1040F00008F0D0C0511181C0FE2C43132BC0921385
:1041000029C06091FC017091FD01F8014681578141
:1041100064177507F9F4E1101DC08F7080618093FA
:10412000FB01C5010E9477188091FB01F80185838E
:104130008F2D65960FB6F894DEBF0FBECDBFDF9111
:10414000CF911F910F91FF90EF90DF90CF90BF9094
:10415000AF900895CD2829F0822F83238F3F09F057
:104160002FC180E0F82FF170DF2E80FF3CC08091DE
:104170003F024091FE01841315C0298B3A8B898937
:104180009A890E94020F292F22952F702230F8F071
:10419000243020F59F70F9F0F8019581907FD9F4D3
:1041A000D12C1FC090E0FC0153E0EE0FFF1F5A9589
:1041B000E1F7E150FE4F5181351306C050812513C0
:1041C00003C05281E5120FC001968770D4CF9F7053
:1041D00011F0882329F3805E883010F3C8010E9413
:1041E0007718FD2CA5CFEE2009F4A2CF8091FB011A
:1041F00081608093FB01F12C9BCF43131BC0921372
:1042000019C04091FC015091FD01F80126813781D0
:104210004217530779F4E1100DC08583C8010E944D
:10422000771888E0F801A6EFB1E001900D928A9529
:10423000E1F77ECFC8010E940E0F882339F1EE20EE
:1042400029F18091FB018032A0F02091F60130919C
:10425000F7013A8729871B86DD86CC868E87809179
:10426000FC019091FD01988B8F87CE0109960E94E9
:10427000771888E0F801A6EFB1E001900D928A95D9
:10428000E1F70E94E11FFF24F39452CFC8010E947E
:104290007718F9CF51110AC086EF91E00E94771884
:1042A00088E0F50111928A95E9F7A5CF431318C06C
:1042B000921316C04091FC015091FD01F801268136
:1042C00037814217530761F4E1100AC08583C801A2
:1042D0000E94771888E0F50111928A95E9F728CFB6
:1042E000C8010E940E0F882389F2EE2079F2809196
:1042F000FB01803208F4BDCF2091F6013091F70127
:104300003A8329831B82DD82CC828E838091FC01DB
:104310009091FD0198878F83CE010196A8CFE83C4C
:10432000F105C0F6FE2CEE2009F4B0CF43131FC0F8
:1043300092131DC02091FC013091FD01F80186818E
:1043400097812817390799F49091FB0190FD69CF67
:10435000907F09F466CF8091FB018583903F09F43B
:104360005DCF982F907F905F8F70892B56CFC801BB
:104370000E940E0F81117DCF8091FB01816080939F
:10438000FB01C8010E947718D3CEEE2009F47ECF3E
:10439000C8010E940E0FF82E882309F477CF88E019
:1043A000F801A6EFB1E001900D928A95E1F78091B6
:1043B000F6019091F7010E94020F0E94E11FB8CE12
:1043C00081E08E25CFCECF93DF93CDB7DEB7609758
:1043D0000FB6F894DEBF0FBECDBF29873A874B8753
:1043E0005C876D877E878F87988BCE0109960E94A8
:1043F0003420811112C088E0FE013996DE01119649
:1044000001900D928A95E1F78C859D85892B29F085
:1044100089859A8589238F3FA9F580913F029091E4
:10442000FE0189131CC060960FB6F894DEBF0FBE64
:10443000CDBFDF91CF91089593E0AA0FBB1F9A954E
:10444000E1F7A150BE4F98E0FE01319601900D9228
:104450009A95E1F78093FE010E94850ADECFB8E0CD
:104460008B9FC001112481509E4F0E9434208823CD
:10447000D1F280913F0290E0019687709927809356
:104480003F02CBCFA091FE01B0E0CD010196877035
:10449000992720913F022817190671F60E949B1553
:1044A0001092FE0110923F0288E0E6EFF1E0DF019A
:1044B0001D928A95E9F7B1CF0F931F93CF93DF93A6
:1044C00080918A02E0918902CCE081111AC0DF91CB
:1044D000CF911F910F910895D1E0DE0FD093890203
:1044E0000E2F10E0EC9FF0011124E557FD4F838162
:1044F0009481892B29F08081918189238F3F51F408
:10450000ED2F80918A02E81738F310928A021092F8
:104510008902DDCFC09FD001C19FB00D1124A557E6
:10452000BD4F16968D919C911797892B29F418965B
:104530008D919C91019651F420813181428153816A
:1045400064817581868197810E94E321C09FF0017B
:10455000C19FF00D1124E557FD4F14821382D0CF77
:104560001092F6021092F502109242018091F4022C
:104570008093F3020E94F5050C945C222F923F92E7
:104580004F925F926F927F928F929F92AF92BF9263
:10459000CF92DF92EF92FF920F931F93CF93DF930F
:1045A000C091F302E7E0FE2E01E010E0FCE02F2EC8
:1045B000AEEFEA2E8091F4028C1316C00E945C22AA
:1045C000DF91CF911F910F91FF90EF90DF90CF90EF
:1045D000BF90AF909F908F907F906F905F904F9023
:1045E0003F902F900C94F505D0E0FE01EE0FFF1FD9
:1045F000E551FD4F80819181F89EF001F99EF00D0B
:104600001124E85EFE4F2481211158C030908A02A7
:10461000ABE8B2E030E020E0412C5F01231508F068
:104620004BC01A966D907C901B97F501808091800D
:104630004FEF5FEF512CC52CD12CF601EE0FFF1F71
:10464000E80DF91D659174916616770609F4A601C7
:10465000672B11F05394EFCF4F3F5407B1F1B801DE
:1046600002C0660F771F4A95E2F7462AA80102C0EA
:10467000440F551F5A94E2F741505109441615064C
:1046800001F5229EF001239EF00D1124E557FD4F08
:10469000F89ED001F99EB00D1124A85EBE4F12966F
:1046A0002D913C91139737832683E082E182918795
:1046B000808771E015967C930E94C7052196C37090
:1046C00079CF14961C921E9213972F5F3F4F1C9622
:1046D000A5CF9F92AF92BF92CF92DF92EF92FF92BF
:1046E0000F931F93CF93DF9300D000D000D0CDB7AE
:1046F000DEB78E010F5F1F4F86E0F80111928A9599
:10470000E9F785E7C82E81E0D82EF12CE12CAA2408
:10471000A394B12CF60181916F018F3F09F449C038
:10472000F894E82FE295EF70F0E021A18F70A501D9
:1047300002C0440F551F8A95E2F7CA01922F982BA9
:1047400091A392A18095892382A3789400C0EBE77E
:10475000F1E030E020E0912C41914F3F09F473C02B
:10476000A42FA295AF70B0E090968C9190E04F701E
:1047700002C0959587954A95E2F780FD64C08A2D21
:10478000022E01C0880F0A94EAF7982A2F5F3F4F44
:104790002430310509F7F601319780818F3F11F000
:1047A0000E94F90750EA5A95F1F7F801EE0DFF1D46
:1047B00090828FEFE81AF80AE6E0EE16F10409F0AD
:1047C000A9CF46E050E0B80184E592E00E94D42EE3
:1047D000FF24F394009709F4F12C892BB1F186E0C2
:1047E000F801A4E5B2E001900D928A95E1F781E02D
:1047F000809349020E948305909348028093470268
:1048000080914702909148020E947405059708F133
:1048100080915402809367028091550280936802D0
:1048200080915602809369028091570280936A02B8
:104830008091580280936B028091590280936C02A0
:104840001092490206C080E0A0CF809149028111F8
:10485000D7CF80914201882301F18091F502909198
:10486000F6020097D1F00E947405209187023091E2
:1048700088022817390788F49091F3028091F40296
:10488000981709F445C00E94BE2210928802109227
:1048900087021092F6021092F50280914F0288234F
:1048A00071F080914D0290914E020E947405893EF4
:1048B000934028F082EE0E942F0B10924F028091BD
:1048C0004C02882391F080914A0290914B020E9401
:1048D0007405883E934048F00E94830590934B02F4
:1048E00080934A0283E70E94090D8F2D26960FB60A
:1048F000F894DEBF0FBECDBFDF91CF911F910F9116
:10490000FF90EF90DF90CF90BF90AF909F90089571
:104910000E945C221092F6021092F5020E94F505A8
:10492000BCCF2F923F924F925F926F927F928F9265
:104930009F92AF92BF92CF92DF92EF92FF920F932E
:104940001F93CF93DF93CDB7DEB769970FB6F89477
:10495000DEBF0FBECDBF498B5A8B6B8B7C8B8D8B93
:104960006111109242021D861E861F86188A85E0FC
:10497000FE017196DE01199601900D928A95E1F77C
:104980008C859D85892B31F089859A8589238F3F78
:1049900009F0D4C129853A854B855C856D857E8576
:1049A0008F8598890E94E321C3C028EFC2162CE5A9
:1049B000D20629F4882379F00E94B022EBCF39EF98
:1049C000C3163CE5D30639F4882329F080914201CF
:1049D0008111F2CFC3C108E111E0E12CB12CA12C6F
:1049E00088248394912C9EEF592E44244394F801FB
:1049F0006081718166246A94762C20E0422F50E019
:104A0000FA01EE0FFF1FE60FF71F85919491C8166C
:104A1000D90609F43A01892B11F02F5FEFCFF12C61
:104A2000FFEF6F167F0609F445C0F8014481F0904E
:104A300042018F2D411180E0F82FF170FF2EF80117
:104A4000258086819B85992309F408C1FF2009F4FC
:104A500005C1211014C0A40101C0440F6A94EAF7F3
:104A6000842B8683809187029091880280399140BF
:104A700030F440E951E05093880240938702C4012A
:104A800002C0880F991F2A95E2F70197F801268145
:104A90002817190679F48091F5029091F602009793
:104AA00009F45FC00E9474058139914008F459C02F
:104AB000F8014482EF28FFEFAF1ABF0A095F1F4FCA
:104AC00026E0A216B10409F092CF8B85882309F461
:104AD00020C1EE2009F41DC10E9483059093F602C7
:104AE0008093F50280918A02883010F591E0980F4A
:104AF00090938A0298E0FE013996DE0111960190AA
:104B00000D929A95E1F73CE0839FC00111248557EF
:104B10009D4F28E0FE013196DC0101900D922A950F
:104B2000E1F72FEF3FEFFC0131872087D386C28664
:104B300069960FB6F894DEBF0FBECDBFDF91CF915F
:104B40001F910F91FF90EF90DF90CF90BF90AF90AB
:104B50009F908F907F906F905F904F903F902F909D
:104B600008958091F3026090F402982FF0E0E0E065
:104B7000861114C09093F3020E171F0709F49ACF01
:104B800090E0FC01EE0FFF1FE551FD4FB182A082C6
:104B90000196837099278093F4028CCF282E312CB4
:104BA000F101EE0FFF1FE551FD4F20813181F7E04C
:104BB000F29FD001F39FB00D1124A85EBE4F2D913E
:104BC0003C911197398F288F712C60E070E0E72FAE
:104BD000F0E0EE0FFF1F288D398DE20FF31F2591B6
:104BE000349121153105E1F0F8010190F081E02DBB
:104BF000FF8BEE8B60E005C02417350709F47F2C8E
:104C00006F5FE62FF0E0EE0FFF1F4E895F89E40F24
:104C1000F51F459154914115510571F77F5FD7CF2D
:104C20007720C9F0F801671708F0FD0144820E17DC
:104C30001F0721F49093F302F72C3CCF981305C083
:104C4000AE17BF0711F49F5F937091012F5F3F4F25
:104C5000822F83708DCFF0E0E0E0F7CF90E021105D
:104C60001FC0B40102C0660F771F2A95E2F79B01AF
:104C7000215031092817390731F4442309F447C07A
:104C8000C5010E94C705C40101C0880F6A94EAF7F4
:104C9000982F9095F801868189238683F22C0ACF7C
:104CA0009C01062C02C0359527950A94E2F7A901CC
:104CB00041705527BC016150710986239723892BC8
:104CC00011F5452B01F1F80182819381892BC1F007
:104CD0001B821C821D821E8259825A820E94830579
:104CE0008160582F9D838C83F801828193818F830B
:104CF000988729813A814B816D817E810E94E321D1
:104D0000F8011582C0CFF22FF1702F2EBCCF2F2CBF
:104D1000BACF9091F3028091F402981731F00E947B
:104D2000BE22EE2009F436CE03CF0E945C22109200
:104D3000F6021092F5020E94F505F3CF61E0CE0174
:104D400009960E943C0F6C018B85F7EFCF16FCE5AE
:104D5000DF0609F02ACE882309F43DCE81E0809356
:104D6000420118CE1F920F920FB60F9211242F936B
:104D70003F934F935F936F937F938F939F93AF93E3
:104D8000BF93CF93DF93EF93FF93D091E900DF7050
:104D90008091EC00C82FC17080FDC0E81092E9003E
:104DA0008091F000877F8093F00078940E94B01586
:104DB0001092E9008091F00088608093F000CD2B84
:104DC000CF70C093E900FF91EF91DF91CF91BF9138
:104DD000AF919F918F917F916F915F914F913F9193
:104DE0002F910F900FBE0F901F9018951F920F924A
:104DF0000FB60F9211242F933F934F935F936F93AE
:104E00007F938F939F93AF93BF93EF93FF93809183
:104E1000E10082FF09C08091E20082FF05C080911D
:104E2000E1008B7F8093E1008091DA0080FF24C055
:104E30008091D80080FF20C08091DA008E7F80931F
:104E4000DA008091D90080FF9BC080E189BD82E1BA
:104E500089BD09B400FEFDCF81E080932C038091D1
:104E60000703811109C00E94E7030E94B2048091E8
:104E7000E20084608093E2008091E10080FF17C02F
:104E80008091E20080FF13C08091E2008E7F8093CA
:104E9000E2008091E20080618093E2008091D8007E
:104EA00080628093D80019BC85E080932C038091A8
:104EB000E10084FF29C08091E20084FF25C080E1E9
:104EC00089BD82E189BD89B5982F917080FFFBCFA4
:104ED0008091D8008F7D8093D8008091E1008F7EF3
:104EE0008093E1008091E2008F7E8093E2008091C8
:104EF000E20081608093E20080912D03882309F411
:104F000045C084E080932C038091E10083FF27C09B
:104F10008091E20083FF23C08091E100877F80932E
:104F2000E10082E080932C0310922D038091E10038
:104F30008E7F8093E1008091E2008E7F8093E2007B
:104F40008091E20080618093E20042E060E080E0D6
:104F50000E9480048091F00088608093F000FF91AF
:104F6000EF91BF91AF919F918F917F916F915F91E1
:104F70004F913F912F910F900FBE0F901F9018955A
:104F800019BC10922C031092070376CF8091E30096
:104F900087FD93E090932C03B7CF78941F921FB6B0
:104FA0001F9211248F939F93AF93BF938091FE0222
:104FB0009091FF02A0910003B09101030196A11D01
:104FC000B11D8093FE029093FF02A0930003B09363
:104FD0000103BF91AF919F918F911F901FBE1F90B2
:104FE00018951F921FB61F9211248F939F93AF9312
:104FF000BF938091FD02811113C08091FE029091B8
:10500000FF02A0910003B09101034196A11DB11DC3
:105010008093FE029093FF02A0930003B0930103DC
:10502000BF91AF919F918F911F901FBE1F901895B8
:10503000CDB7DEB7EE970FB6F894DEBF0FBECDBF8B
:1050400084B7877F84BF0FB6F894A89580916000DD
:10505000886180936000109260000FBE80E890E04D
:105060000FB6F89480936100909361000FBE85B7EE
:10507000806885BF85B7806885BF87EF97E090938C
:10508000C5018093C4010E94E7030E94B20480918D
:10509000E20084608093E200789480912C0388235E
:1050A000A1F01091E9001F709091EC00892F8170A0
:1050B00090FD80E8182B1092E9008091E80083FDB4
:1050C0000E94B0151F701093E90082E084BD93E048
:1050D00095BD9AEF97BD80936E000E947C0F811161
:1050E00002C00E946A0E05E711E02BE7C22E21E004
:1050F000D22EF80181918F018F3F11F00E94F907A4
:10510000C016D106B1F786EF0E94F90787EF0E941B
:10511000F90783E90E94F90786E90E94F907E4E5A7
:10512000F2E08AE592E0A7E6B2E011921D928E17B6
:105130009F07D9F70E949015811102C00E94241583
:1051400082E090E00E94E12E809360020E94950F21
:1051500090930303809302030E9469238FE39CE9E9
:105160000197F1F700C000000E9469238091670257
:1051700080FF08C06FEF7FEF90E080E00E94132F68
:105180000E94300C83E090E00E94E12E90E00E94AB
:10519000FF0A80913603909137030E94FB13509AC7
:1051A000589A559A5D9A549A5C9A8CE090E00E94C5
:1051B000E12E90E0B0E0A0E0809350029093510285
:1051C000A0935202B093530280915A02811133C0CE
:1051D0000E949015811104C00E9424150E9414158C
:1051E00088E090E00E94E92E60938C0370938D0319
:1051F00080938E0390938F036E7F71F40E94141539
:1052000088E090E00E94E92E60938C0370938D03F8
:1052100080938E0390938F030E940C06109282025B
:1052200080918C0380FF04C060E086950E949C13EF
:1052300081E080935A025198599A52985A9A89B1AA
:10524000869581704A9922C290E0892B80935E02F4
:1052500060E081E20E949C1381E090E00E94A01433
:1052600080E091E09093FA028093F90218E1C12E58
:10527000D12C00E4A02E87E692E096E0B92EB80E7D
:1052800080912C039924939400E112E1853009F474
:1052900051C20E946923882359F08FB7F894409136
:1052A000FE025091FF0260910003709101038FBFD5
:1052B000E1E6F2E0A7E6B2E010E000E0302F8D91E9
:1052C0009191981709F45FC2292F282790E099241B
:1052D0009394422F492109F451C29DAB3EAB8921E1
:1052E00091E009F490E09FAB0E9483058160782FE4
:1052F00099AF88AF4DA95EA96FA989AD0E9491248D
:10530000F801EF59FD4F80819826908280918202AA
:105310008823D1F180918102E0918C03E695E81B0E
:10532000E0937D02823009F045C2F0E0EA55FD4F7E
:10533000E4910E2F10E0BDE78B2EB2E19B2E809101
:105340007E02882361F010927E020E948305909372
:105350007C0280937B021092800210927F020E9456
:105360008305E0917B02F0917C028E1B9F0B8F3FA7
:105370009F4750F4E00FF11FF0937C02E0937B0213
:105380008BE792E0F4010995E0915E02EE0FEE0FDB
:10539000E0935E0289B181FBEE24E0F84A9964C291
:1053A00080E08E29E82BE0935E02EF70F0E0E15898
:1053B000FE4F808190915D02890F80935D0220E015
:1053C000843034F180915C028F5F80935C0212E044
:1053D00018AB19AA81E08AAB0E9483058160782FFF
:1053E0009CAB8BAB48A959A96AA98CA90E949124AE
:1053F0001BA71CA61DA60E9483058160782F9FA76E
:105400008EA74BA55CA56DA58FA50E94912421E0D8
:1054100080915D028D3F2CF580915C0281508093DC
:105420005C021EA21FA281E088A70E948305816002
:10543000782F9AA789A74EA15FA168A58AA50E9487
:10544000912419A21AA21BA20E9483058160782FC1
:105450009DA38CA349A15AA16BA18DA10E94912467
:1054600021E080915D02082E000C990B64E070E051
:105470000E94472E80935D02222359F08FB7F89443
:105480004091FE025091FF02609100037091010370
:105490008FBF86E0E4E7F2E0DE01119601900D9205
:1054A0008A95E1F7909076028090770210917802C9
:1054B000009179021092760210927702109278028F
:1054C00010927902892D882909F448C080917202CE
:1054D000909173020E9474059C0190916E02992331
:1054E00009F4AEC323333105C8F19F3F19F09F5F24
:1054F00090936E02992059F00E947D079FEF191436
:105500000CF491E0899F802D1124809376028820ED
:1055100059F00E947D079FEF18140CF491E0899FC9
:10552000802D112480937702309176023323B1F0DD
:1055300020917702222391F045EB3403C00111241E
:10554000992309F494C19093760245EB24039001CA
:105550001124332309F48FC130937702812F802BDC
:1055600009F448C080917002909171020E94740504
:105570009C0190916D02992309F45DC32536310594
:10558000C8F19F3F19F09F5F90936D02112359F06E
:105590000E945B079FEF11160CF491E0899F802D0C
:1055A000112480937802002359F00E945B079FEF3B
:1055B00010160CF491E0899F802D112480937902BC
:1055C000309178023323B1F020917902222391F0B7
:1055D00045EB3403C0011124992309F450C1909381
:1055E000780245EB240390011124332309F44BC1C5
:1055F000309379028091760290917702892B909175
:105600007802892B90917902892B11F00E94BB06B8
:1056100086E0FE013196A4E7B2E001900D928A95F2
:10562000E1F70E94BB0590915F02891731F00E945B
:10563000BB0580935F020E948C0B80912C03843009
:1056400009F01ECE83E08093E9008091E80082FF9C
:1056500017CE8091E80090E085FF06C00E94060406
:10566000882309F414C191E08091E8008B7780933E
:10567000E800992309F404CEE981E150E33108F010
:1056800088C1F0E0E15BF04D0C947D2E92E0DDCD21
:1056900080912C03843009F440C080E00E948C0B80
:1056A0001092820280917A02811116C090927A0241
:1056B00080918C03982F917090935B028E7F8093E2
:1056C0008C039FEFE0E7F2E09150E040F040E1F71B
:1056D00000C000000E94B90F1092FD020FB6F894AE
:1056E000A895C09260000FBEA092600083B7817F32
:1056F000846083BF83B7816083BF7894889583B7C4
:105700008E7F83BF0FB6F894A89580916000886162
:1057100080936000109260000FBE80912B0388235D
:1057200049F00E946923E7E6F2E08191811164C2A9
:10573000BE12FBCF80912C03853009F4A9CF0E94C3
:105740009B150E94BB050E948C0B10927A028091DF
:105750005B02882361F080918C03816080938C03CD
:1057600060E086950E949C130E94A30F92CD8091C9
:1057700083028823C9F30E94B90FF6CF9F5F990C6B
:10578000943009F0A6CD0F5F1F4F0630110509F0C8
:1057900095CD8FEF8AAF8BAF1CAE0E9483058160E1
:1057A000782F9EAF8DAF4AAD5BAD6CAD8EAD0E94D4
:1057B0009124ACCD863059F4F0E0ED55FD4FE491E5
:1057C0000E2F10E0ADE68A2EA2E19A2EB8CD8930D8
:1057D00061F4E695F0E0E056FD4FE4910E2F10E005
:1057E000F9ED8F2EF1E19F2EAACD8F3061F4E69571
:1057F000F0E0E356FD4FE4910E2F10E0EBE68E2E25
:10580000E1E19E2E9CCD853159F4F0E0E656FD4F46
:10581000E4910E2F10E07DE1872E71E1972E8FCD60
:1058200008E210E044E9842E40E1942E883109F426
:1058300086CD833249F4E8E9F2E00591149164E100
:10584000862E62E1962E7BCD04EF11E05BE5852E7E
:1058500050E1952E843209F472CD00ED17E03BE063
:10586000832E36E0932E6BCD82E090E09ACD81E0DE
:10587000809376026ACE81E0809377026FCE81E0DA
:1058800080937802AECE81E080937902B3CE00E2BD
:1058900010E0CE0101964C018091E80085FD0AC020
:1058A0008091E8008B778093E8000E9406048823AB
:1058B00099F3D9CE8091F100F40181934F01015009
:1058C000110951F7D0CE1A8289E08B832DC08A81CD
:1058D000823009F4A7C18330A9F0813009F059C0A2
:1058E0002FB7F8946091FE027091FF02809100033F
:1058F000909101032FBF0E94832E6B837C838D8345
:105900009E8312C0809167028B83809168028C8392
:10591000809169028D8380916A028E8380916B02EF
:105920008F8380916C02888780912C03843009F0EA
:10593000A7CC1091E9001F709091EC00892F817025
:1059400090FD80E8182B82E08093E9008091E800C8
:1059500080FF0DC050E040E060E270E0CE010196B3
:105960000E9437048091E8008E778093E8001F70D2
:105970001093E90085CC8A81823059F46B817C8157
:105980008D819E810E94832E86E290E00E94F52EFA
:10599000CBCF8FEF8983C8CF4C816B818A810E94E6
:1059A000930E9827892798279E838D83BDCF8D805E
:1059B0009E809824892498248A810B81F8E00F9F87
:1059C0008001112420E3829F000D111D11248C8180
:1059D00090E0880F991F080F191F692DC80187963D
:1059E0000E94F52E682DC8018896D0CF0E94000E27
:1059F0009BCF8A818138C1F060F4803809F094CF60
:105A000020E04B8160918E0380918D030E94A31250
:105A10008BCF823859F1833809F086CF20E040914E
:105A20008F036C818B81F2CF60E08B810E949C138D
:105A30009B8180918C03911111C08E7F80938C0388
:105A4000109282024FEF80E792E0415080409040F8
:105A5000E1F700C000000E94B90F66CF816080931B
:105A60008C0360E086950E949C135ECF8B818093AF
:105A700090035ACF8A81813899F030F4803809F048
:105A800053CF80918F0321CF823891F0833809F072
:105A90004BCF80918D038B8380918E038C8344CF79
:105AA00080918C0380FF02C086950FCF80E00DCFE0
:105AB000809190030ACF60918C0370918D03809147
:105AC0008E0390918F030E9491122ECF80E18A83E2
:105AD0002BCF81E08A8389EFF8CE0A811B811027C2
