:100000000C949E030C94E5030C94E5030C94E50317
:100010000C94E5030C94E5030C94E5030C94E503C0
:100020000C94E5030C94E5030C94A7250C9463252C
:100030000C94A4260C94E5030C94E5030C94E503BE
:100040000C94E5030C94E5030C94E5030C94E50390
:100050000C94E5030C9480260C94E5030C94E503C2
:100060000C94E5030C94E5030C94E5030C94E50370
:100070000C94E5030C94E5030C94E5030C94E50360
:100080000C94E5030C94E5030C94E5030C94E50350
:100090000C94E5030C94E5030C94E5030C94E50340
:1000A0000C94E5030C94E5030C94E5035800600000
:1000B000000058005E00000058005D00000058007D
:1000C0005C00000057006000000057005F00000067
:1000D00005010902A10185020901A1000509190113
:1000E00029081500250195087501810205010930CF
:1000F00009311581257F950275088106093815811A
:10010000257F950175088106050C0A3802158125A1
:100110007F950175088106C0C005010980A1018590
:100120000319012AB700150126B700950175108142
:1001300000C0050C0901A101850419012AA00215BE
:100140000126A002950175108100C005010906A1D4
:10015000018506050719E029E715002501950875B1
:100160000181020507190029EF1500250195F07599
:10017000018102050819012905950575019102956E
:100180000175039101C00660FF0961A101096215B3
:100190000026FF009520750881020963150026FFDF
:1001A00000952075089102C005010906A101050707
:1001B00019E029E7150025019508750181029501CF
:1001C000750881010507190029FF150026FF009514
:1001D0000675088100050819012905950575019125
:1001E00002950175039101C00000000000000000AD
:1001F00000000000000000000000000000000000FF
:100200000000000000000000000000007E0F00D48D
:10021000FFFFFFC7000000780000000000000000A2
:100220002A2B280000000000000000000000000051
:1002300000000029000000002C1E3420212224345C
:100240002627252E362D3738271E1F20212223242E
:1002500025263333362E37381F0405060708090ACA
:100260000B0C0D0E0F101112131415161718191A66
:100270001B1C1D2F3130232D350405060708090AE4
:100280000B0C0D0E0F101112131415161718191A46
:100290001B1C1D2F3130354C00047F3F1F6432146E
:1002A000643214783C1E1E140A050001010101018C
:1002B000010101010202020202020202020303031F
:1002C00003030303030404040404040405050505EF
:1002D00005060606060607070707070808080809AF
:1002E0000909090A0A0A0B0B0B0C0C0C0D0D0D0E5B
:1002F0000E0E0F0F0F1010111111121213131414F0
:10030000151516161717181819191A1A1B1B1C1D64
:100310001D1E1E1F202021222223242425262627BD
:100320002829292A2B2C2D2D2E2F303132323334EF
:1003300035363738393A3B3C3D3E3F4041424344F5
:1003400045464748494A4C4D4E4F505153545556D7
:1003500058595A5B5D5E5F616264656668696B6C83
:100360006D6F7072737577787A7B7D7E80828385FE
:1003700087888A8C8E8F91939596989A9C9EA0A23E
:10038000A3A5A7A9ABADAFB1B3B5B7BABCBEC0C248
:10039000C4C6C9CBCDCFD1D4D6D8DBDDDFE2E4E70C
:1003A000E9EBEEF0F3F5F8FAFDFFFFAA7F55400800
:1003B0000706050D0C0B0A11100F161514131A1849
:1003C0001B120903010002040E17192223252628F7
:1003D000292A2C2D2F3032333536383A3B3D3E40DA
:1003E00042434547494A4C4E5051535557595A5C20
:1003F0005E6062646668696B6D6F71737577797B37
:100400007D7F81838587898A8C8E90929496989A35
:100410009C9E9FA1A3A5A7A8AAACAEAFB1B3B4B64A
:10042000B8B9BBBCBEBFC1C2C3C5C6C7C9CACBCCA5
:10043000CDCED0D1D2D2D3D4D5D6D7D7D8D9D9DA78
:10044000DADBDBDBDCDCDCDCDCDDDDDDDDDCDCDCED
:10045000DCDCDBDBDBDADAD9D9D8D7D7D6D5D4D315
:10046000D2D2D1D0CECDCCCBCAC9C7C6C5C3C2C1EA
:10047000BFBEBCBBB9B8B6B4B3B1AFAEACAAA8A747
:10048000A5A3A19F9E9C9A98969492908E8C8A89FF
:10049000878583817F7D7B79777573716F6D6B69DC
:1004A00068666462605E5C5A5957555351504E4CB1
:1004B0004A4947454342403E3D3B3A383635333260
:1004C000302F2D2C2A2928262523224E007F004B51
:1004D00000000001515400550056005F00600061AB
:1004E0000057005C005D005E00000059005A005B90
:1004F00000580062000000630000004F000100503F
:100500000000000100AD002C005300145002530302
:10051000532A000100010001000000010001000158
:1005200000005C005C000001000000300001002FB2
:1005300000000010500500170011030D0016000701
:10054000002D01060119011000000011011D03E139
:100550000057012C000000E2000000805F010081D4
:100560005F00001050B9004A0017012B0352002B06
:10057000011A01500051004F000000B6002C00B7D6
:100580000028004E0000004B000000805F01008149
:100590005F00001050010001000100010052000145
:1005A000000100500051004F00000010033D080101
:1005B0000053006800000069000000010001000114
:1005C0000000000100010001000100010001000124
:1005D0000001000100010001000000010001000114
:1005E0000001000100000001000000010001000105
:1005F00000000001000100010001000100010001F4
:1006000000010001000100010000000100010001E3
:1006100000010001000000010000000100010001D4
:1006200000000001000100010001000100010001C3
:1006300000010001000100010000000100010001B3
:1006400000010001000000010000000100010001A4
:100650000000000100010001000100010001000193
:100660000001000100010001000000010001000183
:100670000001000100000001000000010001000174
:100680000000000100010001000100010001000163
:100690000001000100010001000000010001000153
:1006A000000100010000000100000009025B0003DE
:1006B0000100A0FA09040000010301010009211151
:1006C0000100012240000705810308000A09040116
:1006D000000203000000092111010001222200078D
:1006E000058203200001070503032000010904021D
:1006F00000010300000009211101000122B60007DA
:1007000005840320000A12010002000000084B418A
:1007100015000200010200010A03500053003100DD
:10072000370000001203410054004C0041004E000D
:1007300054004900530000000403090411241FBEA3
:10074000CFEFDAE0DEBFCDBF04B603FE27C0809155
:100750009C0390919D03A0919E03B0919F038730CD
:10076000904BA740B04BD1F410929C0310929D0384
:1007700010929E0310929F0314BE84B7877F84BF9C
:100780000FB6F894A895809160008861809360000E
:10079000109260000FBEE0E0F8E3099511E0A0E0E0
:1007A000B1E0E8E6FCE502C005900D92AA3CB10775
:1007B000D9F723E0AAECB1E001C01D92AC39B20731
:1007C000E1F70E94CB260C94F42D0C940000E8ED88
:1007D000F0E080818E7F80831092E2001092DA0038
:1007E0001092E100A0EEB0E08C9181608C9380814A
:1007F0008F77808319BCA7EDB0E08C918E7F8C93AE
:1008000080818F7E808310926A0308952091E40096
:100810003091E50095E6A9012091EC00822F8170CE
:1008200020FF06C08091E80080FF06C080E00895A8
:100830002091E80022FD1AC080919003882389F05E
:10084000853089F08091EB0085FD0FC02091E40098
:100850003091E50042175307F9F29150E1F684E038
:10086000089582E0089583E0089581E00895EF926D
:10087000FF920F931F93CF937C018B010E9406047C
:10088000C82F811117C08091E80085FD0BC08091B1
:10089000E8008E778093E8000E940604882399F38D
:1008A000C82F08C0F70181917F018093F1000150AA
:1008B000110949F78C2FCF911F910F91FF90EF9065
:1008C00008958091920387FF13C08091E80082FF12
:1008D00006C08091E8008B778093E80004C0809187
:1008E00090038111F2CF0895809190038823D9F36A
:1008F0008091E80080FFF8CF8091E8008E77ECCF00
:10090000982F9093E900242F762F50E0891731F02B
:100910007091EC002091ED005091F00021FD07C096
:100920009F5F973071F78093E90081E008953091DF
:10093000EB003E7F3093EB003091ED003D7F309334
:10094000ED003091EB0031603093EB007093EC00E0
:100950002093ED005093F0002091EE0027FDE0CFB2
:1009600080E00895CF92DF92EF92FF920F931F9352
:10097000CF93DF93C8EDD0E088818F7E8883E7ED49
:10098000F0E080818160808384E082BF81E0809399
:100990006A0388818E7F888302EE10E0F80110825E
:1009A0001092DA0081EEC82ED12CF60110828881D7
:1009B0008F77888388818068888388818F7D88830A
:1009C00019BC109290031092910310928F03109211
:1009D0008E0390EEE92EF12CF70180818B7F8083CE
:1009E00088818160888342E060E080E00E9480042A
:1009F000F60180818E7F8083F80180818160808311
:100A0000808188608083F70180818E7F80838881E8
:100A100080618883DF91CF911F910F91FF90EF90BC
:100A2000DF90CF900895FC018091980390919903F5
:100A300086179707A0F06115710529F49091E800D9
:100A40009E779093E80090E06115710551F4911143
:100A500008C08091E80082FF34C080E00895BC01A6
:100A6000F2CF809190038823C1F18530C1F180914C
:100A7000E80083FD30C08091E80082FDEACF8091DC
:100A8000E80080FFE1CF8091F3002091F200382F41
:100A90006115710519F02830310558F091E02830C2
:100AA000310509F090E02091E8002E772093E800CE
:100AB000CBCF81918093F100615071092F5F3F4F3F
:100AC000E7CF80919003882341F0853041F08091F9
:100AD000E80083FFBECF81E0089582E0089583E0BF
:100AE0000895089580916D0308959C014FB7F8947F
:100AF0008091610390916203A0916303B0916403BC
:100B00004FBF821B930B08952FB7F8948091610318
:100B100090916203A0916303B09164032FBF089585
:100B200020914A012223C9F02091650327FF15C0B7
:100B3000E62FE695E695E695EE31D8F4E80FF92F25
:100B4000F11D677021E030E001C0220F6A95EAF7DD
:100B500020958281282322830895FC0132960896ED
:100B60002191621303C0DF0111971C92E817F90766
:100B7000B9F7089520915E0330915F032817390774
:100B800071F090935F0380935E03E0915C03F091BA
:100B90005D03309721F00084F185E02D09940895DC
:100BA00020915A0330915B032817390771F0909315
:100BB0005B0380935A03E0915C03F0915D033097EF
:100BC00021F00680F781E02D09940895E0915C03FF
:100BD000F0915D03309721F00190F081E02D0994B0
:100BE00080E00895DC016091560380915703962FB1
:100BF000891301C00895292F30E0F901EE0FFF1F7E
:100C0000E25BFC4F408151814A175B07A1F487E00A
:100C10008A9FA0018B9F500D1124415E5E4F81E0A1
:100C2000FA0184839613E6CF2F5F3F4F237033275B
:100C30002093560308952F5F3F4F922F9370D8CF84
:100C40001092EB021092EA02EFE1F1E0858181114E
:100C500002C014821682379681E0E934F807B1F7B2
:100C60000895FA01811101C0FB0109940895809152
:100C7000E502982F9E7F61F4817082608093E50287
:100C80008091E802853B18F084EB8093E802089598
:100C90008A34B0F381708864F1CFAF92BF92DF9253
:100CA000EF92FF920F931F93CF93DF93182F062F8E
:100CB000E901453B08F044EBE42FF0E0E655FD4F39
:100CC000011110C0E4915E2F4E2F4983E8835A83AF
:100CD000DF91CF911F910F91FF90EF90DF90BF9028
:100CE000AF900895202F30E04491D42EE42EF12CC3
:100CF00056E0159FC0011124EFEFF0E0BF010E9404
:100D0000FE2C812F90E0880F991F55E5569FD0014A
:100D1000579FB00D11248A1B9B0B982F990F890F99
:100D20005F01A21AB30AAE9CD001AF9CB00DBE9C6D
:100D3000B00D11245B2F089F80011124012F112772
:100D40005F01A01AB10AAE9C8001AF9C100DBE9C41
:100D5000100D11245F01A81AB108A29EC001A39E24
:100D6000900DB29E900D1124892F9927E81BF90B45
:100D7000EE9DC001EF9D900DFE9D900D1124E92F79
:100D800062307105A1F050F46115710509F49DCF31
:100D90006130710581F0EB2F512F97CF64307105D1
:100DA00069F080F06630710509F48FCFF4CFE42F3D
:100DB0004B2F592F8ACFE42F412F87CFEB2F542F62
:100DC000492F83CF4B2F5D2DE12F7FCF0E948405CC
:100DD0009C019091820280918302982B21F03093A4
:100DE0007F0220937E029091840280918502982B4D
:100DF00021F030937D0220937C02E0915C03F0911E
:100E00005D03309749F082E0809380020480F58191
:100E1000E02D80E892E00994089540918202803F9D
:100E200059F48091830287FF0DC010928302411113
:100E30000BC010927A0208C0813F81F48091830236
:100E400018169CF3442381F08091840290918502CE
:100E5000892B09F05AC0109279020895823F49F413
:100E600047FFF0CF10928202809183028111ECCF74
:100E7000E0CF833F19F41416ACF3E4CF90918402D1
:100E8000893F29F41916F4F610928402DBCF8A3FC9
:100E900019F497FFD7CFF8CF909185028B3F29F4B3
:100EA00097FFD0CF10928502CDCF8C3F19F4191641
:100EB000CCF3C8CF9CE0980F953090F4845F990BE9
:100EC00021E030E0B90102C0660F771F8A95E2F792
:100ED000CB01809590918102892380938102B2CFCA
:100EE0008D3F31F480917B028E7F80937B02AACF6D
:100EF0008E3F21F480917B028D7FF7CF8F3F09F0E9
:100F0000A1CF80917B028B7FF0CF089580917B02EF
:100F100080FD16C081FD16C082FD16C08091790249
:100F20008823A1F0883280F428E0829FC001112438
:100F300068E270E00E94122D862F672B39F0089529
:100F400082E0089584E0089588E0089581E008959E
:100F500080917B0280FD14C081FD14C082FD16C00B
:100F600080917A02882381F0843180F422E3829F89
:100F7000C001112464E170E00E94122D862F0895B3
:100F80008CE0089589E1089585E0089582E308954D
:100F9000803F31F40E94A8078195809383020895D1
:100FA000813F19F40E94A807F8CF823F31F40E94D4
:100FB000A8078195809382020895833F19F40E94C7
:100FC000A807F8CF893F29F40E94860780938402FE
:100FD00008958A3F21F40E9486078195F7CF8B3FC1
:100FE00031F40E94860781958093850208958C3F95
:100FF00019F40E948607F8CF9CE0980F953070F4A2
:10100000845F990B21E030E001C0220F8A95EAF756
:1010100080918102822B8093810208958D3F31F46B
:1010200080917B02816080937B0208958E3F21F442
:1010300080917B028260F7CF8F3FB9F780917B026E
:101040008460F1CF80E00895F894E82FE295EF7086
:10105000F0E031A1282F2F7081E090E001C0880FCF
:101060002A95EAF7982F9095932391A392A1892B23
:1010700082A3789408959091650392FF06C0282F6B
:1010800028712830F9F4877F846093FF06C0282FE9
:1010900028712831F1F4877E84612091660320FF56
:1010A00006C0382F38713830D9F4877F816021FF2E
:1010B00006C0282F28712831D1F4877E816194FDE4
:1010C000877E0895282F24712430F9F68B7F88605D
:1010D000DCCF282F2471243101F78B7E8861DDCF8E
:1010E000382F3171313019F78E7F8860E0CF282F8B
:1010F0002171213121F78E7E8861E1CFCF93DF937B
:10110000EC0182389105A9F1D8F58133910509F4F4
:1011100096C048F58932910509F48AC08A9709F486
:1011200095C0C11521E5D20708F0BCC0C11530E556
:10113000D30708F014C1C83ED10508F09CC0C03EDA
:10114000D10560F5C83AD10508F087C0C53AD10588
:1011500008F0FDC0C130D10509F12097F9F0C43085
:10116000D105E0F440C08533910509F45AC0C99710
:10117000C1F680916503837089F0C0EED0E00EC0A7
:10118000833E910599F170F4803E910501F1823E14
:10119000910539F68091650382FD21C0CE01DF9172
:1011A000CF910895863E910561F1873E910571F1D9
:1011B000843E910509F0B5CF8091660381FFEECFA3
:1011C00080916503C7EED0E084FD0DC0E7CF80912C
:1011D000650380FD12C19091660390FFDFCFC3EEDF
:1011E000D0E084FFDBCFD0E0C0E0D8CF80916503B2
:1011F00082FD06C19091660390FDBFCF84FFCECFE4
:10120000F2CF8091650383FDDDCFC8CF8091650368
:1012100083FDF9C09091660391FFF0CFC4EED0E05A
:10122000BDCF8091650385FFB9CFC9E2D0E0B6CFCD
:101230008091650385FFB2CFC5E3D0E0AFCF809149
:10124000650386FFABCFCAE2D0E0A8CF80916503EB
:1012500086FFA4CFC1E3D0E0A1CFCF3BD10518F6E4
:10126000C85AD0E0CC0FDD1FC25BDE4F0990D88199
:10127000C02DD46493CFC11540E2D40758F4C115F2
:1012800081E0D80708F08ACFC03FD10508F4ABCF82
:10129000D06584CFC11590E4D90708F4A4CFDF70DE
:1012A000D06A7CCFC11525E5D20700F5C11534E51C
:1012B000D30708F08AC0C11543E5D40708F071C010
:1012C000C11582E5D80708F467C0CE01837099275D
:1012D00021E030E002C0220F331F8A95E2F7C69565
:1012E000C69580E2C89FE001112452C0C11599E55E
:1012F000D907A8F4C11528E5D20708F06BC0C115BD
:1013000036E5D30708F06FCF8C2F0E943B08C82F1B
:10131000D0E0DC2FCC27CC27DF71D0623FCFC115C6
:101320004AE5D40708F45BC0CE019056811590427F
:1013300008F059CF8D2F8F710E943B0890E0982FB5
:10134000882788279F719C012C2BE901E6CFC55A7D
:10135000D0E0C55BDE4FC881D0E0D0641FCFCE01A6
:10136000E4E096958795EA95E1F783702C2F269512
:101370002695237040E2249F90011124382B8C2F56
:101380008370C1E0D0E002C0CC0FDD1F8A95E2F788
:10139000C22BD32BDC6802CFDC2FCC27C16FD06AE5
:1013A000FDCECE018370992721E030E002C0220FEC
:1013B000331F8A95E2F7C695C69590E2C99FE00172
:1013C0001124C22BD32BDA68E9CEDC2FCC27C46FD3
:1013D000D06AE4CEDC2FCC27C06FD06ADFCE8C2F52
:1013E0008F700E943B0834E0D695C7953A95E1F797
:1013F000CF709C2FEC01D069D1CEC9E3D0E0CECE26
:10140000C2EED0E0CBCEC6EED0E0C8CE809148028E
:101410008111109248020895809590916B03982352
:1014200090936B03089580916B0390914702892BF1
:1014300090914602892B8093CC0190914802992388
:10144000A1F0892B8093CC0180914A01882341F13E
:101450008091650387FF24C08EE1EEECF1E090E01F
:10146000815000F591110E94060AE0915C03F09111
:101470005D033097E1F080914A01882359F0809113
:10148000650387FF07C08091CC018093CD0186E082
:101490008093CC010280F381E02D8CEC91E00994E3
:1014A00086E0DBCF21912223D9F29F5FD9CF089527
:1014B0008091440290910302981301C008958F5FB8
:1014C0008770FACF990F990F890F982F977086958B
:1014D0008695869524E0829FF0011124E151FE4F0C
:1014E00050E040E080E0219130E0092E02C03695C6
:1014F00027950A94E2F721703327042E01C0220FAA
:101500000A94EAF7822B4F5F5F4F4430510559F739
:101510000895990F990F890F982F977041E001C096
:10152000440F9A95EAF786958695869594E0899F6B
:10153000F0011124E151FE4F30E020E070E05191C4
:10154000DF011197CB01022E02C0969587950A9470
:10155000E2F7817081958527842385278C932F5FFF
:101560003F4F2430310559F7089590E080E00E9404
:10157000D00590E080E00E94BA05109247021092D8
:1015800046020E94130A86E0E0E8F2E0DF011D92C5
:101590008A95E9F710927A021092790210927B02F2
:1015A0000C94E60690934A02809349020C94B50A83
:1015B000882341F0809590914702892380934702C8
:1015C0000C94130A0895882339F090914702982BC0
:1015D000909347020C94130A0895882321F00E94E7
:1015E0000C0A0C94130A0895882339F090916B0328
:1015F000982B90936B030C94130A0895882379F128
:101600009CEF980F913A38F4682F8CEC91E00E948F
:1016100090050C94130A90E2980F983050F487705C
:1016200091E001C0990F8A95EAF7892F0E940C0A70
:10163000F0CF9BE5980F933020F490E080E00C947D
:10164000D00598E5980F973120F490E080E00C9455
:10165000BA05803F20F00E940D070C94E60608951D
:10166000CF93C82F882309F49CC08CEF8C0F813A4C
:1016700008F064C080914A018823D1F1809165030C
:1016800087FF36C0EC2FE695E695E695F0E0E4534B
:10169000FE4F828190E04C2F477021E030E002C085
:1016A000220F331F4A95E2F782239323892B61F09F
:1016B0006C2F8CEC91E00E9490050E94130A22C0CE
:1016C0008091650387FF22C0EC2FE695E695E695AD
:1016D000F0E0E453FE4FC77021E030E001C0220F7C
:1016E000CA95EAF78281822B8283CF910C94130AE8
:1016F000EEECF1E084ED91E02191C217C9F28E1772
:101700009F07D1F780914A018111DACFAEECB1E0A9
:10171000EFEF80E09D91C91741F3EF3F19F491116C
:1017200001C0E82F8F5F8630A9F7EF3FF1F20E2E50
:10173000000CFF0BE453FE4FC283D7CF80E28C0F27
:10174000883068F4C77021E030E001C0220FCA95EC
:10175000EAF780916B03822B80936B03C6CFEBE596
:10176000EC0FE33040F4F0E0E55BFE4F808190E069
:10177000CF910C94D005E8E5EC0FE73150F4F0E0A0
:10178000EE0FFF1FE25BFE4F80819181CF910C94A1
:10179000BA05C03F30F08C2F0E94C807CF910C943F
:1017A000E606CF910895809580FF08C0589A81FF82
:1017B00007C05D9A82FF06C05C9A08955898F7CFDB
:1017C0005D98F8CF5C9808958093670370936903E0
:1017D00060936803809190038430F9F48093E9006A
:1017E0008FEF9091E800815095FD06C095ED9A9598
:1017F000F1F700008111F5CF8091E80085FF0DC061
:1018000050E040E063E070E087E693E00E94370438
:101810008091E8008E778093E8000895BC0184E011
:101820000C94E40BBC0183E00C94E40B9C0184E079
:101830008093E9009FEF8091E800915085FD06C0FC
:1018400085ED8A95F1F700009111F5CF8091E800C0
:1018500085FF0CC050E040E066E070E0C9010E94E6
:1018600037048091E8008E778093E8000895CF9345
:10187000DF93EC0180914A018823B1F180916503E7
:1018800087FF32C060E284E08093E9008FEF90919F
:10189000E800815095FD06C095ED9A95F1F700009E
:1018A0008111F5CF8091E80085FF1BC080914A012E
:1018B00070E050E040E0811104C050E040E068E09A
:1018C00070E0CE010E9437048091E8008E7780930B
:1018D000E80080E2FE01AEE6B3E001900D928A9549
:1018E000E1F7DF91CF91089568E081E0CDCF81E00D
:1018F0008093E00080E28093D8001092C9008FE1CD
:101900009EE40197F1F700C0000087E090EBDC0156
:1019100080939C0390939D03A0939E03B0939F0399
:1019200088E19CE00FB6F894A895809360000FBE04
:1019300090936000FFCFCF92DF92EF920F931F93AF
:10194000CF93DF93CDB7DEB7C455D1090FB6F89466
:10195000DEBF0FBECDBF60911B018091E50280FF0D
:101960004CC0EFEAF3E09E012F5F3F4F8E010B5A10
:101970001F4FC901A4914A2F50E0DA01AA0FBB1FE3
:10198000A40FB51FAF56BD4FCD90DD90EC90D9019F
:10199000CD92DD92ED929D013196A017B10751F7DE
:1019A00020911A0143E0249F800D911D1124279A54
:1019B00025B12F7735B130685FB7F894FC01649F8B
:1019C000E00DF11D1124BF018617970749F55FBF90
:1019D000EFE5F4E03197F1F700C00000CC5ADF4F9B
:1019E0000FB6F894DEBF0FBECDBFDF91CF911F9130
:1019F0000F91EF90DF90CF90089580911C0190910E
:101A00001D0123E0829FF0011124EF56FD4F89173D
:101A100008F0A7CF1182108212828F5F3396F7CF22
:101A2000DC014D91CD01E8E035B9000000C047FF71
:101A300025B9440F000000C000C000C025B900C097
:101A4000EA9591F7C1CF0F931F93CF93DF93EC01EA
:101A500010E000E090911E019017110609F06CF45F
:101A60000E949B0C8C8190E00196817099278C8359
:101A7000DF91CF911F910F91089520911C01A80132
:101A8000420F511D9A01220F331F240F351F2F566D
:101A90003D4F4C816091E7028091E6029695901748
:101AA000110651F04CF0442349F04091E8020E94A5
:101AB0004D060F5F1F4FCECF4423B9F340E0F7CF61
:101AC0008F929F92AF92BF92CF92DF92EF92FF924E
:101AD0000F931F93CF93DF93EC014C81042F10E001
:101AE0009801D8010E945D2D9B01AC010E94732DCD
:101AF0004B015C01E0E2F0E0E01BF10BA5E5B0E09A
:101B0000AC019B010E94732D6B017C019F01DF01E1
:101B10000E94552D9B01AC010E947E2D9B01AC01C2
:101B2000280D391D4A1D5B1DC701B6010E94262DD7
:101B3000F22E822F90E039E23F1560F143E0249FBE
:101B40009001112435952795122F109500E085E519
:101B5000E82EEF1880911E01081758F10E949B0C87
:101B60009C8181E0992319F0903219F48FEF8093D2
:101B7000190180911901890F8C83DF91CF911F91F9
:101B80000F91FF90EF90DF90CF90BF90AF909F901C
:101B90008F90089525E530E0B901681B790B9B0112
:101BA000220F331F260F371F37FFCCCF2F5F3F4F3A
:101BB000C9CF8E2D01FD8F2D20911C01622F600F4A
:101BC0007727771F9B01220F331F260F371F2F56B2
:101BD0003D4F412F6091E7020E944D060F5FBACF43
:101BE0000F931F93CF93DF9380911C0190911D0160
:101BF00023E0829FF0011124EF56FD4F891740F139
:101C0000C0E0D3E060911E01C61740F10E949B0C1A
:101C10002091170180918F02820F80938F02909103
:101C20001801920F90931801191654F4082E000C05
:101C3000990B40911E014150550B841795071CF0DC
:101C4000219520931701DF91CF911F910F91089556
:101C50001182108212828F5F3396D0CF0C2F10E04A
:101C600070E0C8010E94122D20911C01820F482FA4
:101C700050E020918F02022E000C330B0217130745
:101C8000BCF020911801022E000C330B20173107F5
:101C90007CF08D9F900111242F563D4F4091E8021A
:101CA0006091E7028091E6020E944D06CF5FAACFC5
:101CB000FA01EE0FFF1FE40FF51FEF56FD4F1182E3
:101CC00010821282F3CF9F92AF92BF92CF92DF9297
:101CD000EF92FF920F931F93CF93DF93FC018281CA
:101CE0000FEF80FF01E010E04CE1942EA0901E0168
:101CF0001A15D0F00E949B0C80918E02013009F0E1
:101D000054C0811102C080911E01815080938E02C7
:101D1000DF91CF911F910F91FF90EF90DF90CF90C7
:101D2000BF90AF909F900895C0911C01C12ED12CFF
:101D3000CC0DDD2DD11DCE01880F991FC80FD91FE5
:101D4000CF56DD4F198218821A8234E0E32EF12C2F
:101D5000B12C80918E028B0D8D311CF1692D0E946A
:101D6000F02C892F082E000C990BC816D90691F477
:101D70008091E8028E9DA0018F9D500D11245595F4
:101D80004795559547959E016091E7028091E6023F
:101D90000E944D06B00EF1E0EF1AF108D1F61F5F78
:101DA000A5CF87FFDFCF8A0DDDCF90E00196609150
:101DB0001E0170E00E94122DA9CFEF92FF921F9397
:101DC000CF93DF93EC0110E0EE24EA94F12C6091C4
:101DD0001E01161770F00E949B0C9A818C8190FF57
:101DE00027C08F5F8C83DF91CF911F91FF90EF9081
:101DF000089520911C01422F410F5527551FCA01FC
:101E00009A01220F331F280F391F2F563D4F70E0C4
:101E1000C7010E94122D962F8C814091E80260919B
:101E2000E702199F800D11240E944D061F5FCFCF3E
:101E30008150D8CF1F93CF93DF9300D00F92CDB7AF
:101E4000DEB7122F9091E50290FF16C09E012F5F22
:101E50003F4F0E944D068B819981212F30E0F9017F
:101E6000EE0FFF1FE20FF31FEF56FD4F2A81218374
:101E7000908382830E949B0C0F900F900F90DF91B4
:101E8000CF911F9108959091E50290FF14C0909119
:101E90001C0120911D0133E0939FF0011124EF56A6
:101EA000FD4F921710F00C949B0C8183608342834A
:101EB0009F5F3396F6CF08950F931F93CF93DF93D1
:101EC00000D00F92CDB7DEB78C01809190028111C6
:101ED0000AC09E012F5F3F4F44EB6FEF0E944D06FB
:101EE0008A8180939002F8016481613069F0809169
:101EF000900240E0662361F040E0623011F44091CE
:101F0000900280E060E004C06091900240E080E0D8
:101F10000E94430FF801848190E0019663E070E035
:101F20000E94122D84830F900F900F90DF91CF911C
:101F30001F910F910895CF93DF9300D00F92CDB7EB
:101F4000DEB79091E50290FF0AC09E012F5F3F4FE0
:101F50000E944D064B8169818A810E94430F0F9038
:101F60000F900F90DF91CF910895CF93DF93EC0105
:101F7000E5EEF2E0438162818C810E949B0F8C81AF
:101F80008F5F8C83DF91CF910895CF93DF93EC0126
:101F9000EC81F0E0E553FC4F4491E5EEF2E0628124
:101FA00081810E949B0F8C818F5F8C83DF91CF9109
:101FB00008951F93CF93DF93182FCAE0D0E08933A1
:101FC00011F4C0E5D0E0812F0E94300B8FE99FE033
:101FD0000197F1F700C000002197C1F7812FDF9131
:101FE000CF911F910C94FE0ADF92EF92FF920F9314
:101FF0001F93CF93DF93E82FF0E0E85EFD4FD4907E
:10200000282F26952695269530E0F901E85FFD4FAB
:102010000491877010E0082E02C0159507950A9468
:10202000E2F701701127F901E850FE4FE490F12C1E
:10203000082E02C0F594E7940A94E2F791E0E922B1
:10204000FF24F901E851FE4FC491D0E002C0D595BC
:10205000C7958A95E2F7C170DD270115110519F0C2
:1020600081EE0E94300BE114F10419F086EE0E941B
:10207000300B8D2D0E94D90FEF2819F086EE0E94AB
:10208000FE0A012B19F081EE0E94FE0ACD2B51F0C1
:102090008CE2DF91CF911F910F91FF90EF90DF9035
:1020A0000C94D90FDF91CF911F910F91FF90EF907A
:1020B000DF900895CF93DF93C7E0D2E060E0CE01D8
:1020C0000E94A62D2196C11584E0D807B9F7DF91AB
:1020D000CF9108956F927F928F929F92AF92BF920D
:1020E000CF92DF92EF92FF920F931F93CF93DF93E4
:1020F0008BECC82E84E0D82E0FE510E0E801E097C5
:1021000036011CC0F50185909490692DC7010E948D
:10211000A62D682DC70101960E94A62D82E0A80E6B
:10212000B11C82E0E80EF11CCE15DF0559F788E0FE
:10213000680E711C28960C171D0731F07E0188E08F
:10214000E81AF1085301DECF005D1F4F80E3C80E8F
:10215000D11C0F3382E0180789F6DF91CF911F91D0
:102160000F91FF90EF90DF90CF90BF90AF909F9036
:102170008F907F906F900895CF93C82F6FEF81114C
:1021800062E283E290E00E94A62D6FEFC11161E050
:1021900084E290E00E94A62D6FEFC11162E085E21B
:1021A00090E0CF910C94A62D80E00E94BC1060E0DE
:1021B00086E290E00E94A62D0E946A100E945A10AA
:1021C00081E00C94BC100F931F93CF93DF9328E012
:1021D000629FE001112450E0440F551FC40FD51F2A
:1021E00030E3839FC00DD11D1124CE0187960E943C
:1021F000922D082F10E0102F0027CE0188960E9404
:10220000922D9801282BC901DF91CF911F910F9139
:102210000895462F8A3038F4763028F4643018F464
:10222000672F0C94E31090E080E00895BF92CF9266
:10223000DF92EF92FF920F931F93CF93DF937C0176
:1022400000919A0310919B038091490290914A0258
:10225000082B192BCFE0D0E0CC24C394D12CBC2E7A
:10226000C6010C2E02C0880F991F0A94E2F7802342
:102270009123892B71F4219790F7B12C8B2DDF914D
:10228000CF911F910F91FF90EF90DF90CF90BF9073
:102290000895B7018C2F0E9409110E947E080197B2
:1022A00051F3ECCFCF93DF93EC010E941611BE01E6
:1022B0000E940911DF91CF910C947E08FC01868168
:1022C0009781009779F00E947E08292F2F709295B0
:1022D0009F7092509E30A0F4E92FF0E0EA50F24D4A
:1022E0000C94482D808191810E945211EECF803F45
:1022F00019F020F4883E20F481E00895843FE1F352
:1023000080E00895883EC0F3813FD1F7F5CF822F5A
:1023100086958695869508951F93CF93DF9300D079
:1023200000D00F92CDB7DEB7FC0126813781211591
:10233000310541F525E0DE01119601900D922A95B7
:10234000E1F7FC01228189819A812223B9F0662379
:10235000A9F00E941611182F682F89819A810E9476
:10236000890A69817A81812F0F900F900F900F90C9
:102370000F90DF91CF911F910C9409110E94620A76
:10238000182FEFCFC9010F900F900F900F900F9063
:10239000DF91CF911F91089583E290E00E94922DEA
:1023A000823289F484E290E00E94922D813059F4C7
:1023B00085E290E00E94922D91E0823009F090E059
:1023C000892F8170089580E0FCCF6091E5026695C9
:1023D00070E04BE050E08CE091E00E94DA2D892B18
:1023E00019F481E080938D020E9484059093870206
:1023F000809386020895CF92DF92EF92FF926B0155
:102400007C010E943706B701A60188E090E0FF90AA
:10241000EF90DF90CF900C94B82DAF92BF92CF92F7
:10242000DF92EF92FF920F931F93CF93DF9300D031
:102430000F92CDB7DEB7182FF62E042FE22E909113
:10244000E50290FF29C0E92FE695AE2FB0E0AA562D
:10245000BE4F8C9180938C029E7F923059F59E01E5
:102460002F5F3F4F812F0E944D064B8169818A81EA
:102470000E94430F1093E602F092E7020093E802F5
:10248000EE2051F06091E5027091E6028091E70242
:102490009091E8020E94FB110F900F900F90DF9136
:1024A000CF911F910F91FF90EF90DF90CF90BF9051
:1024B000AF900895823019F40091E802DBCF8630A6
:1024C00019F41091E602D6CF8930D9F3893191F60B
:1024D000E9518E2F8170D82EE695F0E0E655FC4F3D
:1024E000A590B490C12CBB2460911E01C61618F0B3
:1024F0000E949B0CBFCF2C2D30E0A29EC001A39E5A
:10250000900DB29E900D112470E00E94FE2C812F40
:10251000D11013C0860F40911C01420F532F511D43
:102520009A01220F331F240F351F2F563D4F402F86
:102530006F2D0E944D06C394D7CF861BECCFE5EEDE
:10254000F2E0438128E0421B08F440E021E0628190
:1025500081810C940D12E5EEF2E0438128E0420FF8
:1025600008F44FEF21E0628181810C940D12E5EEB9
:10257000F2E0628128E0621B08F460E021E0438120
:1025800081810C940D12E5EEF2E0628128E0620F89
:1025900008F46FEF21E0438181810C940D12E5EE88
:1025A000F2E0818121E04381628188500C940D1218
:1025B000E5EEF2E0818121E043816281885F0C9445
:1025C0000D12CF93DF93D82FC92F292F30E088E049
:1025D0002115310519F42D2F392F80E0A90174E060
:1025E000569547957A95E1F74115510511F08C5FA5
:1025F0009A01A9015695479556954795411551055C
:1026000011F08E5F9A0136952795232B09F08F5F85
:10261000823001F148F4882381F08130A9F08D2FB8
:102620009C2FDF91CF9108958330C9F08430B9F7A2
:1026300020E044E66FEF8FE004C020E044E668EC61
:1026400083E70E940D12EBCF20E044E66FEF85E0B8
:102650000E940D1220E044E66FEF80EAF2CF20E006
:1026600044E66FEF87EDEDCF0E94E11290939B035C
:1026700080939A030C94B50A80919A0390919B03DE
:102680009C01267033272630310519F488600C949C
:102690003413877FFCCF21E030E002C0220F331FCC
:1026A0008A95E2F72095309580919A0390919B034B
:1026B000822393230C9434139091450280958923AF
:1026C00080934502282F277091F4282F082E000CA4
:1026D000330B9217130659F09091660392FD07C0D1
:1026E0008595859585950E944B1310924502089516
:1026F000CF93C0916603C2FB992790F9981799F080
:1027000080FBC2F9C09366036091650384E090E0AA
:102710000E94A62D6C2F82E290E00E94A62D82E0FE
:10272000CF910C945C13CF91089521E030E002C06A
:10273000220F331F8A95E2F780919A0390919B03B1
:10274000822B932B0C9434138091E902882319F087
:1027500081508093E9026091E5027091E6028091D8
:10276000E7029091E8020C94FB118091E90283301A
:1027700018F48F5F8093E9026091E5027091E602A0
:102780008091E7029091E8020C94FB119091E50290
:1027900090FF36C09170811129C092609093E5023C
:1027A000662351F06091E5027091E6028091E702A4
:1027B0009091E8020E94FB116091E502669570E03D
:1027C0004BE050E08CE091E00E94DA2D892BA9F0DB
:1027D00010928D0281E08093890220E04091E8020E
:1027E0006091E7028091E6020C940D12853210F0A0
:1027F0009864D4CF880F982BD1CF0E94E511EACFEF
:10280000089560E00C94C6138091E502869581508E
:1028100009F484E261E00C94C6138091E502869588
:102820008F5F853208F081E061E00C94C6139091CF
:10283000E50290FF07C09695981720F0961710F4C0
:102840000C940D1461E00C94C613E5EEF2E083E005
:10285000808311828FEF828388E283831482608178
:102860007181828193810C94FB1180914A01EEEC7D
:10287000F1E0882359F08091650387FF07C08EE15E
:10288000DF011D928A95E9F70C94B50A86E0F8CF2E
:102890001F93CF93DF93CDB7DEB7AA970FB6F89407
:1028A000DEBF0FBECDBF82E993E02091F100DC01D5
:1028B0002D93CD01B3E08A399B07B9F7809193033B
:1028C000833009F472C0B8F4813009F449C0823011
:1028D00009F4B5C08091E80083FF8DC28091920316
:1028E000909193039A3008F086C2E92FF0E0EC5FF4
:1028F000F14D0C94482D8A3009F490C08B3009F4C6
:1029000071C0893039F780919203813219F7809133
:10291000960390919703009711F00297D9F6809152
:10292000E800877F8093E8008091E80082FF38C04C
:102930009091F3008091F200029731F48091F100C0
:10294000813011F0863021F48091F10080936D0385
:102950008091E8008B778093E8000E946104BACFF1
:1029600080919203813A09F0B5CF8091E800877F8A
:102970008093E8008091960390919703892B61F4EE
:1029800060E28EE693E070E00E9413058091E8001B
:102990008B778093E8009ECF60E090E080E0F3CFFB
:1029A000809190038111C0CF95CF80919203813A9D
:1029B00009F090CF8091960390919703892B09F0AD
:1029C00089CF8091E800877F8093E8008091E800BC
:1029D00080FFFCCF80914A018093F1008091E80054
:1029E0008E77B9CF80919203813209F073CF8091B5
:1029F000960390919703892B09F06CCF8091E800A2
:102A0000877F8093E8000E94610480919403809303
:102A10004A0110926B030E9435145CCF809192039F
:102A2000813209F057CF8091E800877F8093E800DA
:102A30000E9461048091950380936C034BCF809139
:102A40009203813A09F046CF8091E800877F809316
:102A5000E8008091E80080FFFCCF80916C03BCCF40
:102A6000803899F0823809F0C6C1809196038F7042
:102A7000873008F0C0C18093E9008091EB0085FBAE
:102A8000882780F91092E90006C080918E0390910A
:102A90008F03911182609091E800977F9093E800F6
:102AA0008093F1001092F1008091E8008E779FC131
:102AB000882309F48DC1823009F09DC1809194036F
:102AC000811190C1809196038F702FEF280F2630CF
:102AD00008F091C18093E9002091EB0020FF82C1B2
:102AE000933031F48091EB0080628093EB007AC1E7
:102AF0009091EB0090619093EB0021E030E001C0F9
:102B0000220F8A95EAF72093EA001092EA0080915A
:102B1000EB008860EACF81116EC1109194031F779A
:102B20008091E3008078812B8093E3008091E8001E
:102B3000877F8093E8000E9461048091E80080FF15
:102B4000FCCF8091E30080688093E30082E0111164
:102B500083E0809390034FC18058823008F04BC1CE
:102B600020919403309195032C3DE3E03E07A1F5BD
:102B700083E08A838AE289834FB7F894DE01139653
:102B800020E03EE051E2E32FF0E050935700E49163
:102B900020FF03C0E295EF703F5FEF708E2F90E053
:102BA000EA30C0F0C7968D939D932F5F243159F77B
:102BB0004FBF8091E800877F8093E8006AE270E071
:102BC000CE0101960E9413058091E8008B778093D7
:102BD000E80011C1C096E7CF8091960390919703CA
:102BE000432F55274330510509F44AC078F5413049
:102BF000510509F47AC08BE590E0EBEAF6E042304B
:102C0000510509F0F8C02091E800277F2093E800E3
:102C100020919803309199038217930708F49C013F
:102C200040E02115310509F065C0411163C0809174
:102C3000E80082FDC9CF80919003882329F2853076
:102C400019F28091E80083FFF2CFBECF41325105E7
:102C500009F43CC04232510509F0CDC083309105E2
:102C600008F0C9C0FC01EE0FFF1FE254FE4F0190B7
:102C7000F081E02D85549E4FDC018C9190E01AC0CC
:102C8000332721303105D1F02115310561F0223093
:102C9000310509F0B0C0E8E1F7E0E4918E2F90E053
:102CA000E8E1F7E007C0E8E3F7E0E4918E2F90E079
:102CB000E8E3F7E0009709F49EC0A5CFE4E2F7E06F
:102CC000E4918E2F90E0E4E2F7E0F4CF83309105B9
:102CD00008F091C0880F991FFC01EC53FE4F019042
:102CE000F081E02D89E090E08ECF82E190E0E6E097
:102CF000F7E089CF80919003882309F465CF853070
:102D000009F462CF8091E80083FD5ECF8091E800F6
:102D100082FD8DCF8091E80080FF83CF9091F300FA
:102D20008091F2002115310519F08830910550F09D
:102D300041E0089709F040E08091E8008E778093A9
:102D4000E8006FCF44914093F10031962150310952
:102D50000196E8CF803809F04EC08091E800877F67
:102D60008093E800809191038093F1009DCE8111C2
:102D700042C0109194031230F0F58091E800877FF3
:102D80008093E800109391030E946104112311F0D5
:102D900084E005C08091E30087FDFACF81E0809355
:102DA000900342E061EC81E00E94800442E261EC29
:102DB00084E00E94800442E261EC82E00E94800490
:102DC00042E260EC83E00E9480048091900313C093
:102DD00080919403813079F481E0933009F080E0B0
:102DE00080938F031092E9008091E800877F8093A1
:102DF000E8000E9461048091E80083FF0AC080918E
:102E0000E800877F8093E8008091EB0080628093E8
:102E1000EB00AA960FB6F894DEBF0FBECDBFDF91D0
:102E2000CF911F91089569EE7EEF90E080E00E94BF
:102E3000C42D60E082E090E00E94A62D60E083E077
:102E400090E00E94A62D10924A021092490260E082
:102E500084E090E00E94A62D60E082E290E00E9473
:102E6000A62D60E085E090E00E94A62D60E086E05F
:102E700090E00E94A62D6FEF87E090E00E94A62DC3
:102E800040E050E0BA0188E090E00E94B82D60E098
:102E90008DE090E00E94A62D40E050E0BA0188E16C
:102EA00090E00E94B82D60E087E190E00E94A62D9E
:102EB00040E050E0BA018CE190E00E94B82D70E053
:102EC00060E080E290E00E94C42D40E050E0BA0152
:102ED00088E190E00E94B82D80E00E94BC100E9422
:102EE000D41040E050E0BA018FE090E00E94B82D8D
:102EF00040E050E0BA0183E190E00C94B82D8F924D
:102F00009F92AF92BF92CF92DF92EF92FF920F9378
:102F10001F93CF93DF9300D000D0CDB7DEB76C0105
:102F2000FC0183819481892B31F0808191818923F7
:102F30008F3F09F057C60F900F900F900F90DF91C1
:102F4000CF911F910F91FF90EF90DF90CF90BF90A6
:102F5000AF909F908F900895980122513F45203166
:102F6000310508F034C68FEF93E00E94922D025194
:102F700077E0E72E72E0F72E882361F18091450219
:102F80008770C9F2F60182818823A9F280916603D5
:102F900082FDD1CF82E00F900F900F900F90DF91C4
:102FA000CF911F910F91FF90EF90DF90CF90BF9046
:102FB000AF909F908F900C945C13E114F4E0FF06A7
:102FC000E9F2C7010E94922D811101C001502FEF3B
:102FD000E21AF20A0111F1CF1C821B82BB24B394C6
:102FE0006AE0A62E87010F5F1F4FC7010E94922D36
:102FF00089831A82882311F29FEF980F933008F586
:103000008A83B98232E0E30EF11CC8010E94922D3E
:103010008B83882309F4B2CF8E010F5F1F4FF80115
:1030200080818823F9F2813009F043C09181828147
:10303000913049F40E5F1F4F0E94D90F0F5F1F4F51
:10304000EECF7801E9CF923029F40E5F1F4F0E9436
:10305000300BF4CF933029F40E5F1F4F0E94FE0A0D
:10306000EDCF943019F00F5F1F4FE8CF0E5F1F4F69
:1030700030E020E0B8016F5F7F4FF801418180535D
:10308000990B8A30910550F021503109B8F28FE93F
:103090009FE00197F1F700C00000F6CFA29EF0017B
:1030A000A39EF00D11249C012E0F3F1F842F8B0136
:1030B000E1CF0E94F40FC2CF81E00E9495130E94DD
:1030C0003C135CCF81E00E944B13F9CF82E0FBCF31
:1030D000882309F41AC180915A02811106C081E047
:1030E00080935A0282EE0E94300B0E9484059093D6
:1030F0005902809358028BE20E94300BF6018281C4
:10310000882369F0C801815E9C45059740F46FE112
:10311000600F60935B028CE090E00E94A62D17FF89
:1031200070C0F6018281882309F46BC00E94E60515
:10313000869581708093EE010E94E60581708093F0
:10314000ED0180915B02813039F48091EE0188239A
:1031500019F089E30E94D90F80916B038093EC01F1
:1031600010926B0380915B02813009F4B7C1882310
:1031700009F4B0C1823009F4C4C1843009F4D5C166
:103180008FE39CE90197F1F700C000005801E89433
:10319000B7F84CE0E42EF12C5AE0852E912CC501B5
:1031A0000E2C02C0969587950A94E2F78F70909145
:1031B0005B02923009F0C0C18A3008F0BBC190E0D8
:1031C0000996B4010E94122D875A0E94D90F94E0EB
:1031D000E91AF108ECEFEE16EFEFFE0601F7809129
:1031E0005B02813009F4B6C1882309F4AFC1823093
:1031F00009F4BCC1843009F4C2C18091EC01809310
:103200006B03F6018281882369F180916B038272DE
:103210000C3CFCE51F0709F465C208F0E5C1063C5B
:103220003CE5130709F44AC208F0BCC1033CECE5D5
:103230001E0709F439C208F0A4C1023C2CE51207AC
:1032400009F40BC20A358DE5180709F489C208F0A4
:1032500063C20115ECE51E0709F470C20E3D1C4562
:1032600009F47BC2F60186819781009709F47CC23C
:103270000E947E088C01F601F280B580B2943FE096
:10328000B322809145028770C1F0AF2CFF20B1F0CE
:10329000812F807F803421F080E2800F883068F0B9
:1032A0008091660382FD09C082E00E945C138091D8
:1032B00045028770AA24A3948111A12C912E929487
:1032C0002FE09222FBE0F91508F4CDC2E92DF0E0E1
:1032D000E25FF14D0C94482D8823A1F080915A02B1
:1032E000811106C081E080935A0282EE0E94300B69
:1032F0000E948405909359028093580281EE0E94A7
:10330000300BF9CE81EE0E94FE0A8BE20E94FE0A8B
:10331000F5CE882309F4F2CE81EE0E94300B83EEC5
:103320000E94300B8FE40E94300B8FE40E94FE0A53
:1033300083EE0E94FE0A81EEE9CF882309F4DECEF7
:1033400081EE0E94300B83EE0E94300B80E50E94DC
:10335000300B80E5EBCF882309F410CE1091570293
:1033600081E01827109357020E948405909356021B
:10337000809355021123C9F028E148E76FEF8FE0F1
:103380000E941A0F29E148E76FEF8FE00E941A0FA1
:103390002AE148E76FEF8FE00E941A0F2BE148E720
:1033A0006FEF8FE00E941A0FE9CD10921C018CE1A3
:1033B00080931D0180931E0181E20E940114DECDE5
:1033C000882309F49BCE80EE0E94300B81EE0E9490
:1033D000300B80E10E94300B80E10E94FE0A81EEFA
:1033E0000E94FE0A80EE0E94FE0A80914E0291E049
:1033F00022E148E76FEF892780934E02882351F03E
:103400008FE00E941A0F26E148E76FEF8FE00E94DD
:103410001A0F74CE8FEC0E941A0F26E148E76FEF67
:103420008FECF5CF882309F4A9CD1091540201E067
:103430001027109354020E948405909352028093A7
:1034400051028091530210921C01882319F18CE1E2
:1034500080931D0180931E0181E20E94011428E0E7
:1034600044E666EE80E00E941A0F29E044E666EE2C
:1034700080E00E941A0F2DE044E666EE80E00E9494
:103480001A0F00935402109253021092500210929D
:103490004F0274CD8CE180931D0180931E0181E267
:1034A0001123A9F00E94011428E044E666EE80E0B2
:1034B0000E941A0F29E044E666EE80E00E941A0F8F
:1034C0002DE044E666EE80E00E941A0FDCCF0E94F9
:1034D0000114D9CF82EE0E94300B52CE83E00E94BD
:1034E000E30A88E10E94300B8FE39CE90197F1F732
:1034F00000C0000088E10E94FE0A83E00E94D80A12
:103500003FCE8091ED01811103C083E50E94D90F68
:1035100082EE0E94300BEFE3FCE93197F1F700C037
:10352000000087E50E94D90F2BCE86EE0E94D90FAE
:1035300088E1F8CF865049CE96EF980F963020F06C
:10354000805D0E94F40F43CE895AFBCF82EE0E9429
:10355000FE0A53CE8CE20E94D90F8091EE0188239F
:1035600009F44BCE89E30E94D90F47CE82EE0E9428
:10357000FE0A8091ED01811140CE83E5F4CF88E20F
:10358000F2CF043C3CE5130709F493C04FEC52E141
:1035900068ED72E1053C9CE5190709F053CE0E94E5
:1035A0003106ECCC093CECE51E0709F491C070F43F
:1035B000073C2CE5120709F486C043EC52E167EBA7
:1035C00072E1083C3CE5130751F33CCE0A3C9CE514
:1035D000190709F482C044EA53E165EB73E10B3C3F
:1035E000ECE51E07E1F22ECE013DFCE51F0709F4D4
:1035F00087C0B0F40E3C3CE5130709F47BC008F427
:1036000076C00F3C9CE5190709F477C06EE089E0AD
:10361000003DECE51E0709F015CE0E941714AECC54
:10362000043DFCE51F0709F471C068F4023D3CE568
:10363000130709F468C0033D8CE5180709F002CEB2
:1036400061E088E12EC0053D9CE5190709F461C0E1
:103650000D35100709F492CCF5CD8091E50280FF7D
:103660001BC08E7F8093E5026091E5027091E602B7
:103670008091E7029091E8020E94FB1110928D0266
:10368000FFEF20E732E0F15020403040E1F700C08A
:1036900000000E949B0C72CC81608093E50261E087
:1036A00086950E94C6136ACC44E054E16DE074E153
:1036B00076CF4DE054E164E074E171CF48ED52E122
:1036C0006FEC72E16CCF47EB52E163EC72E167CFD4
:1036D0004FE952E16BEA72E162CF4BEA52E16FE9E6
:1036E00072E15DCF45EB53E164EA73E158CF61E0ED
:1036F00081E0D7CF65E082E090CF68E086E08DCFB3
:1037000064E18FE08ACF67E185E187CF62E289E1FA
:1037100084CF61E083E2C5CF0B352DE5120711F1AF
:103720000C351D4509F09ECD8091660382FB8827EC
:1037300080F991E089270E94781394CD10926B0351
:103740000E9435148FEF94E3ECE081509040E0400C
:10375000E1F700C000000E94770C0E9413170ECC06
:1037600081E0E9CF80E0E7CF828100811181882369
:1037700069F0C8010E941611F82E682FC8010E9436
:10378000890AB8018F2D0E94091172CDC8010E94CB
:10379000620AF82EF6CF212F2F70E22E107F19F03B
:1037A000E29490EFE922FF20B9F0EE2069F080E288
:1037B000800F883010F0011109C080916B03E82A56
:1037C000E0926B030E94130A802F4BC08091470246
:1037D000E82AE0924702F6CF802F0E94FE0AEE20F0
:1037E00009F441C080E2800F883010F0011104C05C
:1037F0008E2D0E940C0A06C0E09480914702E822B8
:10380000E09247020E94130A2EC0312F3F70E32E30
:10381000107F103219F0E29480EFE822002381F04B
:10382000013009F47EC0FF2009F488C0BB2009F4F0
:103830007EC0F601858180FFC7CF8F70858377C0FA
:103840002091660322FF4AC0FF2009F441C0EE2008
:1038500039F080916B03E82AE0926B030E94130A0F
:1038600080E00E94300B292D2850330B2430310585
:1038700020F40E94E6050E94D30BAA20A9F08091B3
:10388000450280FD11C0F6011282859585958595CA
:103890000E949513C6010E947F178091450285956D
:1038A000859585950E944B1360E0C6010F900F909F
:1038B0000F900F90DF91CF911F910F91FF90EF909C
:1038C000DF90CF90BF90AF909F908F900C948C1111
:1038D00080E00E94FE0AEE2031F28ACFFF20A1F0A4
:1038E000909148028E2D892BB11003C00E94F40ADA
:1038F000BACFE1E0BE12FACF22FDB5CF891709F4A5
:10390000B2CF80934802AFCFB11006C00E94060A22
:103910008E2D0E94ED0AA7CFF1E0BF1609F4A3CFC8
:10392000F5CFFF2031F022E02B1508F49CCF8E2D2F
:10393000DDCF31E03B1508F496CFEACFBB2041F351
:10394000093369F4FFEF27EE33E0F15020403040B7
:10395000E1F700C00000802F0E94FE0A84CF8FE3B1
:103960009CE90197F1F7F5CF812F869586958370B5
:1039700061F0813009F077CFC8019370F11002C077
:1039800090E080E00E94BA056ECFC8019370F110FC
:1039900002C090E080E00E94D00565CF802FFF201C
:1039A00029F00E94C8070E94E6065DCF0E940D071D
:1039B000FACF812F837009F03FC0F11054CF402F10
:1039C000429546954770440F440F802F8F7090E0CA
:1039D000042E02C0880F991F0A94E2F730E020E01D
:1039E00004FF09C02FE030E002C0220F331F4A95C8
:1039F000E2F720953095169516951370123099F0D0
:103A000078F44091490250914A02113039F0822BEA
:103A1000932B842395230E94D20A25CF842B952BA8
:103A2000822B932BF8CF822B932B2091490230913C
:103A30004A0282279327EFCF8695FF2011F0812F2E
:103A40008170882309F40FCF402F42954695477027
:103A5000440F440F802F8F7090E0042E02C0880F17
:103A6000991F0A94E2F730E020E004FF09C02FE03C
:103A700030E002C0220F331F4A95E2F720953095BF
:103A8000169516951370123099F078F440919A03B8
:103A900050919B03113039F0822B932B8423952373
:103AA0000E943413E0CE842B952B822B932BF8CFDE
:103AB000822B932B20919A0330919B03822793278B
:103AC000EFCF1F70FF2029F0812F0E949513802FC8
:103AD0000DCF802F0E94ED0A812F0E944B13C3CE81
:103AE000023F71F160F4003FB9F0013F81F0FF2027
:103AF00009F459C0B11068CE812F8F7125C0033FE2
:103B000031F1043FA1F78091660382FF2EC0812F1F
:103B10008F71FF2011F318C0FF2069F091E09B1511
:103B200008F4A1CE1F7181E090E002C0880F991FB8
:103B30001A95E2F7BFCFE2E0EB1508F494CEF2CF8E
:103B4000812F8F71F110C9CF0E9495138CCE90E018
:103B500080E0FF2009F4A4CF1F7181E090E002C053
:103B6000880F991F1A95E2F79BCFFF2089F01F71EC
:103B7000812F0E9495138091660382FD07C0F8E0B3
:103B80001F9FC0011124836080934502812FDCCFE9
:103B900081E00E945C1321E02B1508F064CE82E0E6
:103BA0000E945C1360CEBB2079F0093341F43FEFF3
:103BB00087EE93E0315080409040E1F7CACEEFE3CA
:103BC000FCE93197F1F7C5CE812F8F7186CF003197
:103BD0003FE5130709F470CA01319FE51907A9F4FD
:103BE00082E06BCA61E0C6010E948C118C01F60173
:103BF00082818111B1C90031FFE51F0709F462CA52
:103C000001312FE5120709F461CAF801E058FF45B8
:103C1000E730F10508F072CAE65EF14D0C94482DCC
:103C2000CF93DF9380910002807FA1F48091FD010A
:103C3000882381F080914402D09103026091FB01BE
:103C40007091FC01A091FE01B091FF01C62FC72326
:103C5000D81303C0DF91CF91089590E0109711F031
:103C6000CF3F19F401968770F3CF9C0143E0220FF8
:103C7000331F4A95E1F7F901EC5FFD4F418147138E
:103C8000F1CF40814613EECF42814111EBCF43810A
:103C900054814A1B5B0B403A510520F7809100028A
:103CA0008F70806180930002F901E75FFD4F808192
:103CB0008F70806180838BEF91E00E947F17DF918E
:103CC000CF910C94580AAF92BF92CF92DF92EF92AD
:103CD000FF920F931F93CF93DF93CDB7DEB7659716
:103CE0000FB6F894DEBF0FBECDBF8C0185E0F801A2
:103CF000DE01519601900D928A95E1F7F801E2807C
:103D00006BEFA62E61E0B62E6091FE017091FF016F
:103D10006115710509F468C19091FB014091FC01A6
:103D2000892F84238F3F09F45FC120813181C380B3
:103D3000D480F090FD01F601E61BF70BFF2009F49B
:103D40001DC180910002582F507FE03AF10508F024
:103D5000D0C0511181C0FE2C43132BC0921329C037
:103D60006091010270910202F80146815781641747
:103D70007507F9F4E1101DC08F7080618093000217
:103D8000C5010E947F1780910002F80185838F2D65
:103D900065960FB6F894DEBF0FBECDBFDF91CF9111
:103DA0001F910F91FF90EF90DF90CF90BF90AF9059
:103DB0000895CD2829F0822F83238F3F09F02FC14A
:103DC00080E0F82FF170DF2E80FF3CC0809144022C
:103DD00040910302841315C0298B3A8B89899A89F3
:103DE0000E945211292F22952F702230F8F0243092
:103DF00020F59F70F9F0F8019581907FD9F4D12CCE
:103E00001FC090E0FC0153E0EE0FFF1F5A95E1F751
:103E1000EC5FFD4F5181351306C05081251303C05F
:103E20005281E5120FC001968770D4CF9F7011F0B8
:103E3000882329F3805E883010F3C8010E947F1721
:103E4000FD2CA5CFEE2009F4A2CF80910002816065
:103E500080930002F12C9BCF43131BC0921319C017
:103E60004091010250910202F801268137814217E8
:103E7000530779F4E1100DC08583C8010E947F17B4
:103E800088E0F801ABEFB1E001900D928A95E1F77F
:103E90007ECFC8010E945E11882339F1EE2029F1FE
:103EA000809100028032A0F02091FB013091FC0152
:103EB0003A8729871B86DD86CC868E878091010212
:103EC00090910202988B8F87CE0109960E947F17EE
:103ED00088E0F801ABEFB1E001900D928A95E1F72F
:103EE0000E94101EFF24F39452CFC8010E947F1736
:103EF000F9CF51110AC08BEF91E00E947F1788E043
:103F0000F50111928A95E9F7A5CF431318C09213D2
:103F100016C04091010250910202F80126813781BA
:103F20004217530761F4E1100AC08583C8010E945B
:103F30007F1788E0F50111928A95E9F728CFC8012B
:103F40000E945E11882389F2EE2079F280910002AE
:103F5000803208F4BDCF2091FB013091FC013A83FF
:103F600029831B82DD82CC828E8380910102909115
:103F7000020298878F83CE010196A8CFE03AF1051F
:103F8000C0F6FE2CEE2009F4B0CF43131FC09213ED
:103F90001DC02091010230910202F80186819781B3
:103FA0002817390799F49091000290FD69CF907F0E
:103FB00009F466CF809100028583903F09F45DCFBC
:103FC000982F907F905F8F70892B56CFC8010E94E9
:103FD0005E1181117DCF809100028160809300028B
:103FE000C8010E947F17D3CEEE2009F47ECFC8010E
:103FF0000E945E11F82E882309F477CF88E0F8013B
:10400000ABEFB1E001900D928A95E1F78091FB0151
:104010009091FC010E9452110E94101EB8CE81E0C6
:104020008E25CFCECF93DF93CDB7DEB760970FB697
:10403000F894DEBF0FBECDBF29873A874B875C87D8
:104040006D877E878F87988BCE0109960E94631EAD
:10405000811112C088E0FE013996DE0111960190AF
:104060000D928A95E1F78C859D85892B29F08985AC
:104070009A8589238F3FA9F580914402909103028C
:1040800089131CC060960FB6F894DEBF0FBECDBF7B
:10409000DF91CF91089593E0AA0FBB1F9A95E1F7A6
:1040A000AC5FBD4F98E0FE01319601900D929A955C
:1040B000E1F7809303020E94580ADECFB8E08B9F9D
:1040C000C00111248C5F9D4F0E94631E8823D1F292
:1040D0008091440290E00196877099278093440272
:1040E000CBCFA0910302B0E0CD0101968770992754
:1040F000209144022817190671F610926B030E9452
:104100003514109203021092440288E0EBEFF1E0C4
:10411000DF011D928A95E9F7AFCF0F931F93CF93DD
:10412000DF938091ED02E091EC02CCE081111AC0A6
:10413000DF91CF911F910F910895D1E0DE0FD093C1
:10414000EC020E2F10E0EC9FF0011124E251FD4F24
:1041500083819481892B29F08081918189238F3FEC
:1041600051F4ED2F8091ED02E81738F31092ED0233
:104170001092EC02DDCFC09FD001C19FB00D112481
:10418000A251BD4F16968D919C911797892B29F4BA
:1041900018968D919C91019651F420813181428134
:1041A000538164817581868197810E941220C09F0E
:1041B000F001C19FF00D1124E251FD4F14821382D2
:1041C000D0CF109259031092580310924901809158
:1041D0005703809356030E9420060C948D202F9243
:1041E0003F924F925F926F927F928F929F92AF9287
:1041F000BF92CF92DF92EF92FF920F931F93CF93D4
:10420000DF93C0915603E7E0FE2E01E010E0FCE0F2
:104210002F2EAEEFEA2E809157038C1316C00E940A
:104220008D20DF91CF911F910F91FF90EF90DF9044
:10423000CF90BF90AF909F908F907F906F905F9046
:104240004F903F902F900C942006D0E0FE01EE0F8F
:10425000FF1FE25BFC4F80819181F89EF001F99E87
:10426000F00D1124E15EFE4F2481211158C03090E1
:10427000ED02AEEEB2E030E020E0412C5F0123150C
:1042800008F04BC01A966D907C901B97F5018080CA
:1042900091804FEF5FEF512CC52CD12CF601EE0F22
:1042A000FF1FE80DF91D659174916616770609F4F4
:1042B000A601672B11F05394EFCF4F3F5407B1F194
:1042C000B80102C0660F771F4A95E2F7462AA80197
:1042D00002C0440F551F5A94E2F741505109441649
:1042E000150601F5229EF001239EF00D1124E251E6
:1042F000FD4FF89ED001F99EB00D1124A15EBE4F76
:1043000012962D913C91139737832683E082E182A8
:104310009187808771E015967C930E94F205219623
:10432000C37079CF14961C921E9213972F5F3F4F44
:104330001C96A5CF2F923F924F925F926F927F92E1
:104340008F929F92AF92BF92CF92DF92EF92FF92A5
:104350000F931F93CF93DF93CDB7DEB769970FB657
:10436000F894DEBF0FBECDBF498B5A8B6B8B7C8B15
:104370008D8B6111109247021D861E861F86188A3A
:1043800085E0FE017196DE01199601900D928A95E5
:10439000E1F78C859D85892B31F089859A85892364
:1043A0008F3F09F0D4C129853A854B855C856D85A1
:1043B0007E858F8598890E941220C3C028EFC2167F
:1043C0002CE5D20629F4882379F00E94E120EBCF76
:1043D00039EFC3163CE5D30639F4882329F08091E0
:1043E00049018111F2CFC3C10FE111E0E12CB12CE1
:1043F000A12C88248394912C9EEF592E442443941D
:10440000F8016081718166246A94762C20E0422F45
:1044100050E0FA01EE0FFF1FE60FF71F8591949110
:10442000C816D90609F43A01892B11F02F5FEFCF96
:10443000F12CFFEF6F167F0609F445C0F8014481A7
:10444000F09049018F2D411180E0F82FF170FF2E7F
:10445000F801258086819B85992309F408C1FF20F6
:1044600009F405C1211014C0A40101C0440F6A94CD
:10447000EAF7842B86838091EA029091EB028039DF
:10448000914030F440E951E05093EB024093EA024E
:10449000C40102C0880F991F2A95E2F70197F8011D
:1044A00026812817190679F48091580390915903B1
:1044B000009709F45FC00E9475058139914008F4A6
:1044C00059C0F8014482EF28FFEFAF1ABF0A095F15
:1044D0001F4F26E0A216B10409F092CF8B858823E6
:1044E00009F420C1EE2009F41DC10E9484059093B7
:1044F0005903809358038091ED02883010F591E0C4
:10450000980F9093ED0298E0FE013996DE01119626
:1045100001900D929A95E1F73CE0839FC001112430
:1045200082519D4F28E0FE013196DC0101900D92F1
:104530002A95E1F72FEF3FEFFC0131872087D386E3
:10454000C28669960FB6F894DEBF0FBECDBFDF916D
:10455000CF911F910F91FF90EF90DF90CF90BF9080
:10456000AF909F908F907F906F905F904F903F9013
:104570002F9008958091560360905703982FF0E094
:10458000E0E0861114C0909356030E171F0709F43C
:104590009ACF90E0FC01EE0FFF1FE25BFC4FB1826F
:1045A000A082019683709927809357038CCF282E81
:1045B000312CF101EE0FFF1FE25BFC4F20813181B6
:1045C000F7E0F29FD001F39FB00D1124A15EBE4F22
:1045D0002D913C911197398F288F712C60E070E0FC
:1045E000E72FF0E0EE0FFF1F288D398DE20FF31F4C
:1045F0002591349121153105E1F0F8010190F08108
:10460000E02DFF8BEE8B60E005C02417350709F421
:104610007F2C6F5FE62FF0E0EE0FFF1F4E895F8962
:10462000E40FF51F459154914115510571F77F5FD6
:10463000D7CF7720C9F0F801671708F0FD01448251
:104640000E171F0721F490935603F72C3CCF9813B5
:1046500005C0AE17BF0711F49F5F937091012F5FE4
:104660003F4F822F83708DCFF0E0E0E0F7CF90E0F6
:1046700021101FC0B40102C0660F771F2A95E2F710
:104680009B01215031092817390731F4442309F4DB
:1046900047C0C5010E94F205C40101C0880F6A9499
:1046A000EAF7982F9095F801868189238683F22C6A
:1046B0000ACF9C01062C02C0359527950A94E2F793
:1046C000A90141705527BC016150710986239723C8
:1046D000892B11F5452B01F1F80182819381892BFA
:1046E000C1F01B821C821D821E8259825A820E9446
:1046F00084058160582F9D838C83F801828193818A
:104700008F83988729813A814B816D817E810E94B8
:104710001220F8011582C0CFF22FF1702F2EBCCFDE
:104720002F2CBACF9091560380915703981731F0F0
:104730000E94EF20EE2009F436CE03CF0E948D2098
:1047400010925903109258030E942006F3CF61E0A3
:10475000CE0109960E948C116C018B85F7EFCF1664
:10476000FCE5DF0609F02ACE882309F43DCE81E07E
:104770008093490118CE9F92AF92BF92CF92DF9261
:10478000EF92FF920F931F93CF93DF9300D000D04F
:1047900000D0CDB7DEB78E010F5F1F4F86E0F80166
:1047A00011928A95E9F78CE7C82E81E0D82EF12C7A
:1047B000E12CAA24A394B12CF60181916F018F3FC3
:1047C00009F443C0F894E82FE295EF70F0E021A1DE
:1047D0008F70A50102C0440F551F8A95E2F7CA01E8
:1047E000922F982B91A392A18095892382A37894EC
:1047F00000C0E2E8F1E0912C31E021912F3F09F473
:104800006EC0A22FA295AF70B0E090968C9190E010
:104810002F7002C0959587952A95E2F780FD5FC0BD
:10482000832F982A330F51E0E638F50731F7F60168
:10483000319780818F3F11F00E94240880EA8A9589
:10484000F1F7F801EE0DFF1D9082EFEFEE1AFE0A70
:10485000F6E0EF16F10409F0AFCF46E050E0B80102
:104860008FE592E00E94E72DFF24F394009709F46E
:10487000F12C892BB1F186E0F801AFE5B2E00190AF
:104880000D928A95E1F781E080934D020E948405A4
:1048900090934C0280934B0280914B0290914C027A
:1048A0000E947505059708F180915F02809373025D
:1048B00080916002809374028091610280937502FE
:1048C00080916202809376028091630280937702E6
:1048D000809164028093780210924D0206C080E0BD
:1048E000A0CF80914D028111D7CF809149018823BB
:1048F00001F180915803909159030097D1F00E94E3
:1049000075052091EA023091EB022817390788F4E7
:104910009091560380915703981709F47EC00E9426
:10492000EF201092EB021092EA02109259031092BB
:10493000580380915A02882371F080915802909117
:1049400059020E947505893E934028F082EE0E942C
:10495000FE0A10925A0280915702882391F08091AA
:104960005502909156020E947505883E934048F08A
:104970000E948405909356028093550283E70E941B
:10498000D90F8091530290915402992309F44EC09B
:10499000811130C080915102909152020E947505A0
:1049A00081369A4E78F080914F0290915002019694
:1049B0009093500280934F020E948405909352027C
:1049C0008093510280914F02909150024F9708F4CA
:1049D0005CC010921C018CE180931D0180931E012C
:1049E0008FE00E94011481E08093530210925002E4
:1049F00010924F028F2D26960FB6F894DEBF0FBE91
:104A0000CDBFDF91CF911F910F91FF90EF90DF907D
:104A1000CF90BF90AF909F9008950E948D201092EC
:104A20005903109258030E94200683CF8111E2CFD0
:104A300080914E02882361F022E148E76FEF8FE01A
:104A40000E941A0F26E148E76FEF8FE00E941A0FCD
:104A500080915702882371F228E148E76FEF8FE0D9
:104A60000E941A0F29E148E76FEF8FE00E941A0FAA
:104A70002AE148E76FEF8FE00E941A0F2BE148E729
:104A80006FEF8FE00E941A0FB5CF28E044E666EE84
:104A900080E00E941A0F29E044E666EE80E00E9462
:104AA0001A0F2DE044E666EE80E00E941A0FC0CF98
:104AB00090E080E00E94A02D893E9E4F11F40C945E
:104AC000CC1180E008951F920F920FB60F9211241F
:104AD0002F933F934F935F936F937F938F939F9306
:104AE000AF93BF93CF93DF93EF93FF93D091E90000
:104AF000DF708091EC00C82FC17080FDC0E810927B
:104B0000E9008091F000877F8093F00078940E9404
:104B100048141092E9008091F00088608093F000C2
:104B2000CD2BCF70C093E900FF91EF91DF91CF9132
:104B3000BF91AF919F918F917F916F915F914F91B5
:104B40003F912F910F900FBE0F901F9018951F92BD
:104B50000F920FB60F9211242F933F934F935F93B1
:104B60006F937F938F939F93AF93BF93EF93FF9335
:104B70008091E10082FF09C08091E20082FF05C0C0
:104B80008091E1008B7F8093E1008091DA0080FFCB
:104B900024C08091D80080FF20C08091DA008E7FF1
:104BA0008093DA008091D90080FF9DC080E189BDAB
:104BB00082E189BD09B400FEFDCF81E080939003BE
:104BC00080916A03811109C00E94E7030E94B20428
:104BD0008091E20084608093E2008091E10080FF98
:104BE00017C08091E20080FF13C08091E2008E7FA9
:104BF0008093E2008091E20080618093E2008091E6
:104C0000D80080628093D80019BC85E0809390031F
:104C10008091E10084FF2BC08091E20084FF27C0D7
:104C200080E189BD82E189BD89B5982F917080FFAF
:104C3000FBCF8091D8008F7D8093D8008091E100D8
:104C40008F7E8093E1008091E2008F7E8093E2006E
:104C50008091E20081608093E2008091910388233B
:104C600009F447C084E08093900380919003809181
:104C7000E10083FF27C08091E20083FF23C0809181
:104C8000E100877F8093E10082E08093900310929F
:104C900091038091E1008E7F8093E1008091E2009A
:104CA0008E7F8093E2008091E20080618093E20039
:104CB00042E060E080E00E9480048091F000886023
:104CC0008093F000FF91EF91BF91AF919F918F91F1
:104CD0007F916F915F914F913F912F910F900FBEF8
:104CE0000F901F90189519BC1092900310926A03B0
:104CF00074CF8091E30087FD93E090939003B5CF4C
:104D000078941F921FB61F9211248F939F93AF9395
:104D1000BF938091610390916203A0916303B0916E
:104D200064030196A11DB11D8093610390936203FA
:104D3000A0936303B0936403BF91AF919F918F9150
:104D40001F901FBE1F9018951F921FB61F9211240F
:104D50008F939F93AF93BF9380916003811113C092
:104D60008091610390916203A0916303B091640309
:104D70004196A11DB11D8093610390936203A0939E
:104D80006303B0936403BF91AF919F918F911F9084
:104D90001FBE1F901895CDB7DEB7EE970FB6F894EB
:104DA000DEBF0FBECDBF84B7877F84BF0FB6F89438
:104DB000A8958091600088618093600010926000E7
:104DC0000FBE80E890E00FB6F89480936100909356
:104DD00061000FBE85B7806885BF85B7806885BFD5
:104DE00082E298E09093CB018093CA010E94E7038E
:104DF0000E94B2048091E20084608093E200789483
:104E0000809190038823A1F01091E9001F70909188
:104E1000EC00892F817090FD80E8182B1092E9003A
:104E20008091E80083FD0E9448141F701093E900F0
:104E300082E084BD93E095BD9AEF97BD80936E00AC
:104E40000E94CC11811102C00E94D4100CE711E025
:104E500022E8C22E21E0D22ED8018D918D018F3F04
:104E600011F00E942408C016D106B1F786EF0E9407
:104E7000240887EF0E94240883E90E94240886E919
:104E80000E94240886E0E3E7F2E0DF01282F1D926C
:104E90002A95E9F7EFE5F2E0DF011D928A95E9F73F
:104EA0000E945825811102C00E94131782E090E0F1
:104EB0000E94922D80936C0284E090E00E94922DDB
:104EC000182F82E290E00E94922D982F812F9093CC
:104ED0006603809365030E94BB23EFE3FCE93197EF
:104EE000F1F700C000000E94BB238091730280FF95
:104EF00008C06FEF7FEF90E080E00E94C42D0E9419
:104F0000770C83E090E00E94922D90E00E94D20AFC
:104F100080919A0390919B030E94E112509A589AB3
:104F2000559A5D9A549A5C9A8CE090E00E94922D7A
:104F300090E0B0E0A0E080935B0290935C02A093CD
:104F40005D02B0935E0280916502811132C00E94C1
:104F50005825811104C00E9413170E94251488E06F
:104F600090E00E949A2D6093E5027093E602809390
:104F7000E7029093E8026E7F71F40E94251488E0A6
:104F800090E00E949A2D6093E5027093E602809370
:104F9000E7029093E8020E94370610928D028091FA
:104FA000E50280FF03C086950E94011481E0809392
:104FB00065025198599A52985A9A89B1869581708A
:104FC0004A994DC290E0892B80936A0260916503F3
:104FD0006068609365031091660384E090E00E942E
:104FE000A62D612F82E290E00E94A62D81E20E9410
:104FF000011481E090E00E94341380E091E09093EE
:105000005D0380935C0308E1C02ED12C83E792E01E
:1050100096E0B92EB80E80919003853019F510E412
:10502000912E8824839400E112E1809190038530D1
:1050300009F417C210926B030E9435140E94E60512
:105040000E94D30B1092670280916602882341F080
:105050008091E50281608093E50286950E940114AB
:105060000E94E5110E94BB23882359F08FB7F89462
:1050700040916103509162036091630370916403F6
:105080008FBFA3E7B2E0EDE6F2E010E000E0302FE2
:105090008D919191981709F43DC2292F282790E00E
:1050A00099249394422F492109F42FC29DAB3EAB22
:1050B000892191E009F490E09FAB0E948405816012
:1050C000782F99AF88AF4DA95EA96FA989AD0E94CD
:1050D0009A21F801E359FD4F8081982690828091B2
:1050E0008D028823D1F180918C02E091E502E69552
:1050F000E81BE0938802823009F023C2F0E0EA5511
:10510000FD4FE4910E2F10E0B5EC8B2EBFE09B2EEF
:1051100080918902882361F0109289020E9484059F
:10512000909387028093860210928B0210928A02DB
:105130000E948405E0918602F09187028E1B9F0BEE
:105140008F3F9F4750F4E00FF11FF0938702E093E9
:10515000860286E892E0F4010995E0916A02EE0F7A
:10516000EE0FE0936A0289B181FBEE24E0F84A99E0
:1051700042C280E08E29E82BE0936A02EF70F0E0F3
:10518000EA57FE4F808190916902890F80936902EE
:1051900020E0843034F1809168028F5F8093680250
:1051A00012E018AB19AA81E08AAB0E9484058160E5
:1051B000782F9CAB8BAB48A959A96AA98CA90E94EE
:1051C0009A211BA71CA61DA60E9484058160782F2A
:1051D0009FA78EA74BA55CA56DA58FA50E949A21C0
:1051E00021E0809169028D3F2CF580916802815009
:1051F000809368021EA21FA281E088A70E948405F6
:105200008160782F9AA789A74EA15FA168A58AA57A
:105210000E949A2119A21AA21BA20E9484058160F1
:10522000782F9DA38CA349A15AA16BA18DA10E94A7
:105230009A2121E080916902082E000C990B64E00C
:1052400070E00E94122D80936902222359F08FB7DB
:10525000F8944091610350916203609163037091EF
:1052600064038FBF86E0E0E8F2E0DE011196019072
:105270000D928A95E1F790908202809083021091BE
:105280008402009185021092820210928302109291
:10529000840210928502892D882909F448C08091E2
:1052A0007E0290917F020E9475059C0190917A0286
:1052B000992309F490C323333105C8F19F3F19F0B6
:1052C0009F5F90937A02992059F00E94A8079FEF60
:1052D00019140CF491E0899F802D1124809382028F
:1052E000882059F00E94A8079FEF18140CF491E051
:1052F000899F802D11248093830230918202332371
:10530000B1F020918302222391F045EB3403C001D8
:105310001124992309F472C19093820245EB24036E
:1053200090011124332309F46DC130938302812F3E
:10533000802B09F448C080917C0290917D020E94EC
:1053400075059C0190917902992309F43FC3253694
:105350003105C8F19F3F19F09F5F909379021123A7
:1053600059F00E9486079FEF11160CF491E0899F77
:10537000802D112480938402002359F00E94860717
:105380009FEF10160CF491E0899F802D11248093DB
:105390008502309184023323B1F0209185022223CB
:1053A00091F045EB3403C0011124992309F42EC177
:1053B0009093840245EB240390011124332309F4D4
:1053C00029C1309385028091820290918302892BBA
:1053D00090918402892B90918502892B11F00E9473
:1053E000E60686E0FE013196A0E8B2E001900D925B
:1053F0008A95E1F70E94E60590916B02891731F0DA
:105400000E94E60580936B020E94D30B809190036B
:10541000843009F000CE83E08093E9008091E800B9
:1054200082FFF9CD8091E80090E085FF06C00E94E0
:105430000604882309F4F2C091E08091E8008B779C
:105440008093E800992309F4E6CDE981E150E33146
:1054500008F066C1F0E0EF5DF14D0C94482D92E04C
:10546000B2CD80919003843009F440C080E00E9466
:10547000D30B10928D0280916702811116C0809229
:1054800067028091E502982F9170909366028E7F5B
:105490008093E502FFEF20E742E0F15020404040DA
:1054A000E1F700C000000E949B0C109260030FB651
:1054B000F894A895C09260000FBE9092600083B7E8
:1054C000817F846083BF83B7816083BF7894889530
:1054D00083B78E7F83BF0FB6F894A8958091600044
:1054E000886180936000109260000FBE80918F03EE
:1054F000882309F49ACD0E94BB23E3E7F2E081916F
:10550000811143C2BE12FBCF90CD9F5F990C9430A6
:1055100009F0C8CD0F5F1F4F0630110509F0B7CD58
:105520008FEF8AAF8BAF1CAE0E9484058160782F0D
:105530009EAF8DAF4AAD5BAD6CAD8EAD0E949A2132
:10554000CECD863059F4F0E0ED55FD4FE4910E2FAD
:1055500010E0A5EB8A2EAFE09A2EDACD893061F407
:10556000E695F0E0E056FD4FE4910E2F10E0FDEDE2
:105570008F2EFEE09F2ECCCD8F3061F4E695F0E0CB
:10558000E356FD4FE4910E2F10E0E3E68E2EEEE0A1
:105590009E2EBECD853159F4F0E0E656FD4FE491E4
:1055A0000E2F10E070EF872E7DE0972EB1CD08E230
:1055B00010E040E6842E4DE0942E883109F4A8CD09
:1055C000833249F4E8E9F2E0059114916CE5862E06
:1055D0006FE0962E9DCD04EF11E053E2852E5DE045
:1055E000952E843209F494CD00ED17E036E3832E36
:1055F00036E0932E8DCD82E090E0BCCD81E08093AB
:1056000082028CCE81E08093830291CE81E08093F0
:105610008402D0CE81E080938502D5CE00E210E0F6
:10562000CE0101964C018091E80085FD0AC0809171
:10563000E8008B778093E8000E940604882399F3A2
:10564000FBCE8091F100D4018D934D0101501109E1
:1056500051F7F2CE1A8289E08B832DC08A81823085
:1056600009F4ABC18330A9F0813009F059C02FB7DC
:10567000F89460916103709162038091630390914B
:1056800064032FBF0E944E2D6B837C838D839E838A
:1056900012C0809173028B83809174028C838091FD
:1056A00075028D83809176028E83809177028F833D
:1056B00080917802888780919003843009F0ABCC88
:1056C0001091E9001F709091EC00892F817090FD7E
:1056D00080E8182B82E08093E9008091E80080FF49
:1056E0000DC050E040E060E270E0CE0101960E9403
:1056F00037048091E8008E778093E8001F70109344
:10570000E90089CC8A81823059F46B817C818D815A
:105710009E810E944E2D86E290E00E94A62DCBCF66
:105720008FEF8983C8CF4C816B818A810E94E310FF
:105730009827892798279E838D83BDCF8D809E8053
:105740009824892498248A810B81B8E00B9F8001DA
:105750001124E0E38E9F000D111D11248C8190E037
:10576000880F991F080F191F692DC80187960E947D
:10577000A62D682DC8018896D0CF0E946A109BCFB5
:105780008A818138C1F060F4803809F094CF20E03C
:105790004B816091E7028091E6020E940D128BCF4F
:1057A000823849F1833809F086CF20E04091E80241
:1057B0006C818B81F2CF8B810E9401149B8180913F
:1057C000E502911111C08E7F8093E50210928D0247
:1057D000FFEF20E742E0F15020404040E1F700C0F9
:1057E00000000E949B0C67CF81608093E502869544
:1057F0000E94011460CF8B818093E9025CCF8A8183
:10580000813899F030F4803809F055CF8091E80262
:1058100023CF823891F0833809F04DCF8091E60292
:105820008B838091E7028C8346CF8091E50280FFD5
:1058300002C0869511CF80E00FCF8091E9020CCF96
:105840006091E5027091E6028091E7029091E80292
:105850000E94FB1130CF80E18A832DCF81E08A83C3
:1058600089EFFACE0A811B81102701271027CE016C
:1058700001963C018C80DC01A80DB11D4D01C801D1
:10588000895F9D4F8614970409F415CF093FB1E055
:105890001B0750F40E94922DF30184830F5F1F4F6A
:1058A000BFEF6B1A7B0AEBCFD30114961C92F6CF95
:1058B0000A811B81102701271027FE0131963F0125
:1058C0008C80800E912E911CC801895F9D4F80169F
:1058D000910609F4F0CE093FF1E01F0728F4D30147
:1058E00014966C910E94A62DBFEF6B1A7B0A0F5F76
:1058F0001F4FEACF0E945A10DECE8AE0ADCF0A8158
:105900001B81102701271027FE0131963F018C8053
:10591000CF01880D911D4C01C8018796861497040C
:1059200009F4C9CE003EA1E01A0750F40E94922D5E
:10593000F30184830F5F1F4FBFEF6B1A7B0AECCF1D
:10594000D30114961C92F6CF0A811B8110270127E0
:105950001027FE0131963F018C80800E912E911C04
:10596000C80187968016910609F4A5CE003EF1E0A5
:105970001F0728F4D30114966C910E94A62DBFEF47
:105980006B1A7B0A0F5F1F4FEBCF09BD19BD09B41E
:1059900000FEFDCF8091D8008F7D8093D80080914C
:1059A000E00082608093E0008091E00081FDFCCF08
:1059B00010926B030E94351438CB86E290E00E946F
:1059C000922D1B821C821D828E8375CE2D3231401A
:1059D00008F0C2CCF8CC2D32314008F071CCA7CC05
:1059E00087FB082E062687FD819567FD61950E943D
:1059F000862D0EF4919507FC81950895AA1BBB1B7B
:105A000051E107C0AA1FBB1FA617B70710F0A61BBE
:105A1000B70B881F991F5A95A9F780959095BC01DF
:105A2000CD01089597FB072E16F4009407D077FD5B
:105A300009D00E94FE2C07FC05D03EF4909581957C
:105A40009F4F0895709561957F4F0895A1E21A2E9A
:105A5000AA1BBB1BFD010DC0AA1FBB1FEE1FFF1F12
:105A6000A217B307E407F50720F0A21BB30BE40B62
:105A7000F50B661F771F881F991F1A9469F76095A9
:105A80007095809590959B01AC01BD01CF01089563
:105A9000EE0FFF1F0590F491E02D099469279627DA
:105AA000692778278727782708950E945D2D33235B
:105AB00012F48A1B9B0B0C946E2DA29FB001B39F16
:105AC000C001A39F700D811D1124911DB29F700D07
:105AD000811D1124911D08950E945D2DB7FF089529
