:100000000C94A3040C94EA040C94EA040C94EA04FF
:100010000C94EA040C94EA040C94EA040C94EA04A8
:100020000C94EA040C94EA040C94A2290C945E2922
:100030000C949D2A0C94EA040C94EA040C94EA04AF
:100040000C94EA040C94EA040C94EA040C94EA0478
:100050000C94EA040C94792A0C94EA040C94EA04B3
:100060000C94EA040C94EA040C94EA040C94EA0458
:100070000C94EA040C94EA040C94EA040C94EA0448
:100080000C94EA040C94EA040C94EA040C94EA0438
:100090000C94EA040C94EA0406022B64A0FF00000E
:1000A000000008022B6496FF0000000004022B648D
:1000B000A0FF000000000412D7FF78FF000000003E
:1000C000041280FF64FF0000000004121EFF78FF8E
:1000D0000000000004125FFF5AFF0000000005014D
:1000E0000902A10185020901A100050919012908D8
:1000F00015002501950875018102050109300931B6
:100100001581257F95027508810609381581257F9F
:10011000950175088106050C0A38021581257F9521
:100120000175088106C0C005010980A10185031978
:10013000012AB700150126B700950175108100C08E
:10014000050C0901A101850419012AA00215012647
:10015000A002950175108100C005010906A1018565
:1001600005050719E029E7150025019508750181A6
:10017000020507190029EF1500250195F075018189
:10018000020508190129059505750191029501756A
:10019000039101C00660FF0961A1010962150026F3
:1001A000FF009520750881020963150026FF009560
:1001B0002075089102C005010906A101050719E093
:1001C00029E715002501950875018102950175083B
:1001D00081010507190029FF150026FF0095067506
:1001E00008810005081901290595057501910295F9
:1001F0000175039101C00000000000000000000034
:1002000000000000000000000000000000000000EE
:10021000000000000000000000007E0F00D4FFFF7F
:10022000FFC70000007800000000000000002A2B3B
:100230002800000000000000000000000000000096
:100240000029000000002C1E3420212224342627FF
:10025000252E362D3738271E1F2021222324252620
:100260003333362E37381F0405060708090A0B0CEE
:100270000D0E0F101112131415161718191A1B1C36
:100280001D2F3130232D350405060708090A0B0CF4
:100290000D0E0F101112131415161718191A1B1C16
:1002A0001D2F3130354CD400CA00C000B600AC0060
:1002B000A2009800000000047F3F1F6432146432E3
:1002C00014783C1E1E140A05000101010101010100
:1002D00001010202020202020202020303030303FB
:1002E00003030304040404040404050505050506CA
:1002F0000606060607070707070808080809090988
:10030000090A0A0A0B0B0B0C0C0C0D0D0D0E0E0E30
:100310000F0F0F10101111111212131314141515C1
:1003200016161717181819191A1A1B1B1C1D1D1E33
:100330001E1F202021222223242425262627282987
:10034000292A2B2C2D2D2E2F3031323233343536B5
:100350003738393A3B3C3D3E3F40414243444546B5
:100360004748494A4C4D4E4F505153545556585991
:100370005A5B5D5E5F616264656668696B6C6D6F38
:100380007072737577787A7B7D7E808283858788AB
:100390008A8C8E8F91939596989A9C9EA0A2A3A5E5
:1003A000A7A9ABADAFB1B3B5B7BABCBEC0C2C4C6E6
:1003B000C9CBCDCFD1D4D6D8DBDDDFE2E4E7E9EBA2
:1003C000EEF0F3F5F8FAFDFFFFAA7F5540090807A4
:1003D0000605040F0E0D0C0B0A1514131211100351
:1003E000000102191617181D1A1B1C25242322218F
:1003F000201E292827262223252628292A2C2D2F8E
:100400003032333536383A3B3D3E4042434547492A
:100410004A4C4E5051535557595A5C5E606264665F
:1004200068696B6D6F71737577797B7D7F8183856B
:1004300087898A8C8E90929496989A9C9E9FA1A36D
:10044000A5A7A8AAACAEAFB1B3B4B6B8B9BBBCBE91
:10045000BFC1C2C3C5C6C7C9CACBCCCDCED0D1D20D
:10046000D2D3D4D5D6D7D7D8D9D9DADADBDBDBDC0F
:10047000DCDCDCDCDDDDDDDDDCDCDCDCDCDBDBDBBB
:10048000DADAD9D9D8D7D7D6D5D4D3D2D2D1D0CE1B
:10049000CDCCCBCAC9C7C6C5C3C2C1BFBEBCBBB920
:1004A000B8B6B4B3B1AFAEACAAA8A7A5A3A19F9E9E
:1004B0009C9A98969492908E8C8A89878583817F66
:1004C0007D7B79777573716F6D6B69686664626047
:1004D0005E5C5A5957555351504E4C4A4947454313
:1004E00042403E3D3B3A3836353332302F2D2C2AB0
:1004F00029282625232250007F004F00115012503A
:1005000013505F0060006100CA5C2C00C95CC45CD1
:10051000C25CC35C3900470053005C005D005E00B4
:10052000C65C3D04C55C815FAD00805FB900B3006F
:10053000620059005A005B00F9001A01FA0000003D
:10054000000000002B034A002B0156017F005701D9
:100550002B0317012B0101000100010010500100C5
:100560000100010001000100010001000100010083
:100570000100010001000100010001000100010073
:100580000100010001000100010001000100010063
:100590000100010001000100010001000100000054
:1005A0000000000001000100010001000100010045
:1005B00001000100010001000100010010500100D4
:1005C0000100010001000100010001000100010023
:1005D0000100010001000100010001000100010013
:1005E0000100010001000100010001000100010003
:1005F00001000100010001000100010001000000F4
:1006000000000000010001000100010001000100E4
:100610000100010001000100010001001050010073
:1006200001000100010001000100010001000100C2
:1006300001000100010001000100010001000100B2
:1006400001000100010001000100010001000100A2
:100650000100010001000100010001000100000093
:100660000000000001000100010001000100010084
:100670000100010001000100010001000100010072
:100680000100010001000100010001000100010062
:100690000100010001000100010001000100010052
:1006A0000100010001000100010001000100010042
:1006B0000100010001000100010001000100000033
:1006C0000000000001000100010001000100010024
:1006D0000100010001000100010001000100010012
:1006E0000100010001000100010001000100010002
:1006F00001000100010001000100010001000100F2
:1007000001000100010001000100010001000100E1
:1007100001000100010001000100010001000000D2
:1007200000000000010001000100010001000100C3
:1007300001000100010001000100010001000100B1
:1007400001000100010001000100010001000100A1
:100750000100010001000100010001000100010091
:100760000100010001000100010001000100010081
:100770000100010001000100010001000100000072
:100780000000000001000100010001000100010063
:100790000100010001000100010001000100010051
:1007A0000100010001000100010001000100010041
:1007B0000100010001000100010001000100010031
:1007C0000100010001000100010001000100010021
:1007D0000100010001000100010001000100000012
:1007E0000000000001000100010001000100010003
:1007F00001000100010001000100010001000100F1
:1008000001000100010001000100010001000100E0
:1008100001000100010001000100010001000100D0
:1008200001000100010001000100010001000100C0
:1008300001000100010001000100010001000000B1
:1008400000000000010001000100010001000100A2
:100850000100010001000100010001000100010090
:100860000100010001000100010001000100010080
:100870000100010001000100010001000100010070
:100880000100010001000100010001000100010060
:100890000100010001000100010001000100000051
:1008A0000000000001000100010001000100010042
:1008B00001000100010009025B00030100A0FA0928
:1008C000040000010301010009211101000122407F
:1008D000000705810308000A090401000203000063
:1008E00000092111010001222200070582032000D6
:1008F00001070503032000010904020001030000B1
:100900000009211101000122B6000705840320001F
:100910000A12010002000000084B41090001000119
:100920000200010803410039006500000012034184
:100930000074006C0061006E0074006900730000B8
:1009400000040309040011241FBECFEFD0E1DEBF75
:10095000CDBF04B603FE27C0809164039091650368
:10096000A0916603B09167038730904BA740B04BCE
:10097000D1F41092640310926503109266031092F2
:10098000670314BE84B7877F84BF0FB6F894A89519
:1009900080916000886180936000109260000FBEBB
:1009A000E0E0F8E7099523E0AEEBB1E001C01D926D
:1009B000A436B207E1F711E0A0E0B1E0EAE4F5E621
:1009C00002C005900D92AE3BB107D9F70E94C42A30
:1009D0000C946C320C940000E8EDF0E080818C7F88
:1009E00080831092E2001092DA001092E100A0EEF3
:1009F000B0E08C9181608C9380818F77808319BC6B
:100A0000A7EDB0E08C918E7F8C9380818F7E808368
:100A10001092AD0208952091E4003091E50095E632
:100A2000A9012091EC00822F817020FF06C08091E7
:100A3000E80080FF06C080E008952091E80022FDD4
:100A40001AC08091D202882389F0853089F0809184
:100A5000EB0085FD0FC02091E4003091E5004217C6
:100A60005307F9F29150E1F684E0089582E0089589
:100A700083E0089581E00895EF92FF920F931F9312
:100A8000CF937C018B010E940B05C82F811117C0E9
:100A90008091E80085FD0BC08091E8008E778093FF
:100AA000E8000E940B05882399F3C82F08C0F701BE
:100AB00081917F018093F1000150110949F78C2F3A
:100AC000CF911F910F91FF90EF9008958091D402E4
:100AD00087FF13C08091E80082FF06C08091E80084
:100AE0008B778093E80004C08091D2028111F2CF0D
:100AF00008958091D2028823D9F38091E80080FF85
:100B0000F8CF8091E8008E77ECCF982F9093E90092
:100B1000242F762F50E0891731F07091EC0020914E
:100B2000ED005091F00021FD07C09F5F973071F7F5
:100B30008093E90081E008953091EB003E7F30938F
:100B4000EB003091ED003D7F3093ED003091EB00F4
:100B500031603093EB007093EC002093ED005093E4
:100B6000F0002091EE0027FDE0CF80E00895CF92C5
:100B7000DF92EF92FF920F931F93CF93DF93C8ED15
:100B8000D0E088818F7E8883E7EDF0E0808181600E
:100B9000808381E08093AD0288818C7F888302EE20
:100BA00010E0D8011C921092DA0081EEC82ED12CF0
:100BB000D6011C9288818F7788838881806888839A
:100BC00088818F7D888380818068808319BC1092A2
:100BD000D2021092D3021092D1021092D00290EE63
:100BE000E92EF12CF70180818B7F808388818160E1
:100BF000888342E060E080E00E948505D6018C9108
:100C00008E7F8C93F80180818160808380818860F1
:100C10008083D7018C918E7F8C93888180618883BB
:100C2000DF91CF911F910F91FF90EF90DF90CF90C8
:100C30000895FC018091DA029091DB0286179707F4
:100C4000A0F06115710529F49091E8009E779093CA
:100C5000E80090E06115710551F4911108C0809190
:100C6000E80082FF33C080E00895BC01F2CF80919C
:100C7000D2028823B9F18530B9F18091E80083FD73
:100C80002FC08091E80082FDEACF8091E80080FFCC
:100C9000E1CF2091F2003091F3006115710519F058
:100CA0002830310558F091E02830310509F090E006
:100CB0002091E8002E772093E800CCCF819180939B
:100CC000F100615071092F5F3F4FE7CF8091D20251
:100CD000882341F0853041F08091E80083FFBFCF49
:100CE00081E0089582E0089583E008958091AF0245
:100CF00008959C014FB7F8948091A4029091A502A9
:100D0000A091A602B091A7024FBF821B930B08953A
:100D10002FB7F8948091A4029091A502A091A60209
:100D2000B091A7022FBF08952091A1023091A20295
:100D30002817390771F09093A2028093A102E091E5
:100D40009F02F091A002309721F00084F185E02D00
:100D50000994089520919D0230919E022817390729
:100D600071F090939E0280939D02E0919F02F0911A
:100D7000A002309721F00680F781E02D09940895B4
:100D8000E0919F02F091A002309721F00190F08154
:100D9000E02D099480E00895FA01811101C0FB0162
:100DA0000994089580915F03982F9E7F61F481706C
:100DB000826080935F0380916203853B18F084EB2F
:100DC0008093620308958A34B0F381708864F1CF10
:100DD000AF92BF92DF92EF92FF920F931F93CF9348
:100DE000DF93182F062FE901453B08F044EBE42F71
:100DF000F0E0E853FD4F011110C0E4915E2F4E2F3B
:100E00004983E8835A83DF91CF911F910F91FF901F
:100E1000EF90DF90BF90AF900895202F30E0449185
:100E2000D42EE42EF12C56E0159FC0011124EFEFD3
:100E3000F0E0BF010E946D31812F90E0880F991F73
:100E400055E5569FD001579FB00D11248A1B9B0B6F
:100E5000982F990F890F5F01A21AB30AAE9CD00197
:100E6000AF9CB00DBE9CB00D11245B2F089F80017C
:100E70001124012F11275F01A01AB10AAE9C800135
:100E8000AF9C100DBE9C100D11245F01A81AB10873
:100E9000A29EC001A39E900DB29E900D1124892F99
:100EA0009927E81BF90BEE9DC001EF9D900DFE9D6B
:100EB000900D1124E92F62307105A1F050F46115F5
:100EC000710509F49DCF6130710581F0EB2F512F31
:100ED00097CF6430710569F080F06630710509F4D0
:100EE0008FCFF4CFE42F4B2F592F8ACFE42F412FF0
:100EF00087CFEB2F542F492F83CF4B2F5D2DE12F21
:100F00007FCF0E9488069C0190918A0280918B027B
:100F1000982B21F0309387022093860290918C02C7
:100F200080918D02982B21F03093850220938402CA
:100F3000E0919F02F091A002309749F082E0809307
:100F400088020480F581E02D88E892E009940895F4
:100F500040918A02803F59F480918B0287FF0DC037
:100F600010928B0241110BC01092820208C0813F87
:100F700081F480918B0218169CF3442381F08091B8
:100F80008C0290918D02892B09F05AC01092810237
:100F90000895823F49F447FFF0CF10928A02809172
:100FA0008B028111ECCFE0CF833F19F41416ACF320
:100FB000E4CF90918C02893F29F41916F4F610922F
:100FC0008C02DBCF8A3F19F497FFD7CFF8CF9091EF
:100FD0008D028B3F29F497FFD0CF10928D02CDCF99
:100FE0008C3F19F41916CCF3C8CF9CE0980F9530BC
:100FF00090F4845F990B21E030E0B90102C0660FE4
:10100000771F8A95E2F7CB01809590918902892319
:1010100080938902B2CF8D3F31F4809183028E7F1D
:1010200080938302AACF8E3F21F4809183028D7F2B
:10103000F7CF8F3F09F0A1CF809183028B7FF0CF54
:1010400008958091830280FD16C081FD16C082FD47
:1010500016C0809181028823A1F0883280F428E0B4
:10106000829FC001112468E270E00E948131862FC6
:10107000672B39F0089582E0089584E0089588E0B0
:10108000089581E008958091830280FD14C081FD60
:1010900014C082FD16C080918202882381F08431C1
:1010A00080F422E3829FC001112464E170E00E9479
:1010B0008131862F08958CE0089589E1089585E0B7
:1010C000089582E30895803F31F40E94430881959A
:1010D00080938B020895813F19F40E944308F8CF52
:1010E000823F31F40E944308819580938A020895DB
:1010F000833F19F40E944308F8CF893F29F40E94E6
:10110000210880938C0208958A3F21F40E942108CF
:101110008195F7CF8B3F31F40E9421088195809310
:101120008D0208958C3F19F40E942108F8CF9CE0AD
:10113000980F953070F4845F990B21E030E001C086
:10114000220F8A95EAF780918902822B8093890287
:1011500008958D3F31F480918302816080938302F2
:1011600008958E3F21F4809183028260F7CF8F3FF4
:10117000B9F7809183028460F1CF80E00895F894FC
:10118000E82FE295EF70F0E031A1282F2F7081E079
:1011900090E001C0880F2A95EAF7982F9095932345
:1011A00091A392A1892B82A3789408959091A8028B
:1011B00092FF06C0282F28712830F9F4877F8460B9
:1011C00093FF06C0282F28712831F1F4877E8461AF
:1011D0002091A90220FF06C0382F38713830D9F489
:1011E000877F816021FF06C0282F28712831D1F424
:1011F000877E816194FD877E0895282F2471243095
:10120000F9F68B7F8860DCCF282F2471243101F719
:101210008B7E8861DDCF382F3171313019F78E7FA9
:101220008860E0CF282F2171213121F78E7E8861DF
:10123000E1CFCF93DF93EC0182389105A9F1D8F586
:101240008133910509F496C048F58932910509F476
:101250008AC08A9709F495C0C11521E5D20708F024
:10126000BCC0C11530E5D30708F014C1C83ED10594
:1012700008F09CC0C03ED10560F5C83AD10508F021
:1012800087C0C53AD10508F0FDC0C130D10509F1CC
:101290002097F9F0C430D105E0F440C085339105C2
:1012A00009F45AC0C997C1F68091A802837089F0E9
:1012B000C0EED0E00EC0833E910599F170F4803EFF
:1012C000910501F1823E910539F68091A80282FDD7
:1012D00021C0CE01DF91CF910895863E910561F145
:1012E000873E910571F1843E910509F0B5CF80915B
:1012F000A90281FFEECF8091A802C7EED0E084FD65
:101300000DC0E7CF8091A80280FD12C19091A90283
:1013100090FFDFCFC3EED0E084FFDBCFD0E0C0E0B2
:10132000D8CF8091A80282FD06C19091A90290FDBC
:10133000BFCF84FFCECFF2CF8091A80283FDDDCF57
:10134000C8CF8091A80283FDF9C09091A90291FFB6
:10135000F0CFC4EED0E0BDCF8091A80285FFB9CF19
:10136000C9E2D0E0B6CF8091A80285FFB2CFC5E335
:10137000D0E0AFCF8091A80286FFABCFCAE2D0E029
:10138000A8CF8091A80286FFA4CFC1E3D0E0A1CF6F
:10139000CF3BD10518F6C85AD0E0CC0FDD1FCF5D8A
:1013A000DE4F0990D881C02DD46493CFC11540E29F
:1013B000D40758F4C11581E0D80708F08ACFC03FA0
:1013C000D10508F4ABCFD06584CFC11590E4D9071F
:1013D00008F4A4CFDF70D06A7CCFC11525E5D20711
:1013E00000F5C11534E5D30708F08AC0C11543E5FF
:1013F000D40708F071C0C11582E5D80708F467C0AA
:10140000CE018370992721E030E002C0220F331F04
:101410008A95E2F7C695C69580E2C89FE00111243F
:1014200052C0C11599E5D907A8F4C11528E5D2071E
:1014300008F06BC0C11536E5D30708F06FCF8C2FCD
:101440000E94D608C82FD0E0DC2FCC27CC27DF7134
:10145000D0623FCFC1154AE5D40708F45BC0CE0186
:1014600090568115904208F059CF8D2F8F710E94B0
:10147000D60890E0982F882788279F719C012C2BF5
:10148000E901E6CFC55AD0E0C25EDE4FC881D0E0A8
:10149000D0641FCFCE01E4E096958795EA95E1F7F9
:1014A00083702C2F26952695237040E2249F90016F
:1014B0001124382B8C2F8370C1E0D0E002C0CC0FF8
:1014C000DD1F8A95E2F7C22BD32BDC6802CFDC2F1D
:1014D000CC27C16FD06AFDCECE018370992721E061
:1014E00030E002C0220F331F8A95E2F7C695C695F9
:1014F00090E2C99FE0011124C22BD32BDA68E9CE18
:10150000DC2FCC27C46FD06AE4CEDC2FCC27C06F91
:10151000D06ADFCE8C2F8F700E94D60834E0D6952B
:10152000C7953A95E1F7CF709C2FEC01D069D1CEE9
:10153000C9E3D0E0CECEC2EED0E0CBCEC6EED0E056
:10154000C8CE8091350281111092350208958091A4
:10155000340290913302892B90913202892B80932F
:10156000C001909135029923A1F0892B8093C0018D
:1015700080911D01882341F18091A80287FF24C03A
:101580008EE1E2ECF1E090E0815000F591110E94D3
:10159000A10AE0919F02F091A0023097E1F08091C2
:1015A0001D01882359F08091A80287FF07C0809110
:1015B000C0018093C10185E08093C0010280F38166
:1015C000E02D80EC91E0099486E0DBCF219122238D
:1015D000D9F29F5FD9CF089590911D019923D1F041
:1015E0009091A80297FF16C0E82FE695E695E6953C
:1015F000EE31E0F4F0E0E054FE4F282F277081E058
:1016000090E001C0880F2A95EAF78095928189239E
:1016100082830895E2ECF1E09191891303C0DF0128
:1016200011971C9291E0E83CF907B1F70895909169
:101630001D019923C1F09091A80297FF14C0E82FD3
:10164000E695E695E695EE31F8F4F0E0E054FE4FCD
:10165000877021E030E001C0220F8A95EAF782818D
:10166000822B82830895A2ECB1E0EFEF90E02D9100
:10167000821751F0EF3F19F4211101C0E92F9F5F4C
:101680009630A9F7EF3F09F408950E2E000CFF0BDA
:10169000E054FE4FE6CF809130029091FF01981305
:1016A00001C008958F5F8770FACF2CE0929F800D64
:1016B0001124982F977086958695869524E0829FB1
:1016C000F0011124EF51FE4F50E040E080E0219105
:1016D00030E0092E02C0369527950A94E2F7217072
:1016E0003327042E01C0220F0A94EAF7822B4F5FA2
:1016F0005F4F4430510559F708952CE0929F800DBB
:101700001124982F977041E001C0440F9A95EAF791
:1017100086958695869594E0899FF0011124EF5176
:10172000FE4F90E080E070E05191DF0111979B0146
:10173000082E02C0369527950A94E2F7217021956C
:101740002527242325272C9301968430910561F7C2
:10175000089590E080E00E94AA0690E080E00E9458
:10176000940610923302109232020E94A70A86E079
:10177000E8E8F2E0DF011D928A95E9F71092820213
:1017800010928102109283020C9481079093370289
:10179000809336020C94A90B882341F08095909198
:1017A00034028923809334020C94A70A0895882375
:1017B00039F090913402982B909334020C94A70A3C
:1017C0000895882309F459C0823871F40E94C00634
:1017D00081FF53C089E30E94170B0E94A70A89E387
:1017E0000E94EC0A0C94A70A833859F40E94C006A0
:1017F00080FF43C083E50E94170B0E94A70A83E580
:10180000EFCF843859F40E94C00682FF36C087E4C7
:101810000E94170B0E94A70A87E4E2CF9CEF980F63
:10182000913AF0F290E2980F983088F4877021E0B6
:1018300030E0A90102C0440F551F8A95E2F7CA01A2
:10184000809590913402892380933402CBCF9BE51D
:10185000980F933020F490E080E00C94AA0698E56D
:10186000980F973120F490E080E00C949406803F2C
:1018700020F00E94A8070C94810708959091D2024D
:10188000943029F58093AA027093AC026093AB0266
:101890009093E9008FEF9091E800815095FD06C08C
:1018A00095ED9A95F1F700008111F5CF8091E80050
:1018B00085FF0DC050E040E063E070E08AEA92E00E
:1018C0000E943C058091E8008E778093E80008959F
:1018D000BC0184E00C943E0CBC0183E00C943E0CF3
:1018E0009C0184E08093E9009FEF8091E800915093
:1018F00085FD06C085ED8A95F1F700009111F5CFC1
:101900008091E80085FF0CC050E040E066E070E0A8
:10191000C9010E943C058091E8008E778093E80021
:101920000895CF93DF93EC0180911D018823B1F1DD
:101930008091A80287FF32C060E284E08093E900D2
:101940008FEF9091E800815095FD06C095ED9A9536
:10195000F1F700008111F5CF8091E80085FF1BC0F1
:1019600080911D0170E050E040E0811104C050E022
:1019700040E068E070E0CE010E943C058091E80004
:101980008E778093E80080E2FE01A0EBB2E0019048
:101990000D928A95E1F7DF91CF91089568E081E09B
:1019A000CDCF81E08093E00080E28093D800109258
:1019B000C9008FE19EE40197F1F700C0000087E0C5
:1019C00090EBDC018093640390936503A09366031E
:1019D000B093670388E19CE00FB6F894A8958093D4
:1019E00060000FBE90936000FFCFCF93C82F882375
:1019F00009F4AEC08238C1F40E94C00681FDA8C0BF
:101A000089E30E94170B0E94A70A2FEF81EE94E052
:101A1000215080409040E1F700C0000089E30E941F
:101A2000EC0ACF910C94A70A8338A1F40E94C00657
:101A300080FD8EC083E50E94170B0E94A70A2FEF3E
:101A400081EE94E0215080409040E1F700C000001A
:101A500083E5E5CF8438A1F40E94C00682FD78C0FA
:101A600087E40E94170B0E94A70A2FEF81EE94E0F3
:101A7000215080409040E1F700C0000087E4CFCFC4
:101A80008CEF8C0F813A88F580911D01882301F13C
:101A90008091A80287FF1CC0EC2FE695E695E6959D
:101AA000F0E0E054FE4F828190E04C2F477021E03F
:101AB00030E002C0220F331F4A95E2F782239323BE
:101AC000892B79F08C2F0E94EC0A0E94A70A09C08A
:101AD000E2ECF1E08191C817A9F321E0E83CF207BC
:101AE000C9F78C2F0E94170B9CCF80E28C0F883097
:101AF00068F4C77021E030E001C0220FCA95EAF710
:101B000080913402822B809334028BCFEBE5EC0F73
:101B1000E33040F4F0E0E25EFE4F808190E0CF9150
:101B20000C94AA06E8E5EC0FE73150F4F0E0EE0F74
:101B3000FF1FEF5DFE4F80819181CF910C94940641
:101B4000C03F30F08C2F0E946308CF910C94810726
:101B5000CF9108951F93CF93DF93182FD0E0C0E06B
:101B6000893311F4C0E5D0E0812F0E94F50C209755
:101B700031F4812FDF91CF911F910C94E10B8FE90C
:101B80009FE00197F1F700C000002197F0CF0F937D
:101B90001F93CF93DF93C62FD42F022FFC01828196
:101BA0008823A1F06093E0020E9488069093DF02F0
:101BB0008093DE02C77081E001C0880FCA95EAF702
:101BC000DF91CF911F910F910C94D70B8091E00280
:101BD000681335C08091DE029091DF020E94790681
:101BE000883C910560F510E21D0FCD17B9F080E239
:101BF0008C0F883040F4C77081E001C0880FCA950F
:101C0000EAF70E94CC0B183048F481E09D2F9770C2
:101C100001C0880F9A95EAF70E94D70B802F0E9487
:101C2000AA0D183098F4D77081E001C0880FDA95BA
:101C3000EAF7DF91CF911F910F910C94CC0BC770F5
:101C400081E001C0880FCA95EAF7F3CFDF91CF9109
:101C50001F910F910895CF93DF93C7EED3E060E01B
:101C6000CE010E94F4312196C11588E0D807B9F75A
:101C7000DF91CF9108956F927F928F929F92AF9252
:101C8000BF92CF92DF92EF92FF920F931F93CF9369
:101C9000DF9386EFC82E84E0D82E9FE9E92EF12C41
:101CA000E701C056D10936011BC0F501859094901B
:101CB000692DC8010E94F431682DC80101960E9467
:101CC000F43182E0A80EB11C0E5F1F4FC017D10780
:101CD00061F788E1680E711C6896CE15DF0529F062
:101CE0008E01085111095301E0CF7E0180E6E80E14
:101CF000F11C80E6C80ED11C8FE5E81684E0F806DA
:101D000079F6DF91CF911F910F91FF90EF90DF90C7
:101D1000CF90BF90AF909F908F907F906F900895DD
:101D2000CF93C82F6FEF811161E283E290E00E94B0
:101D3000F4316FEFC11161E184E290E00E94F4316F
:101D40006FEFC11165E085E290E0CF910C94F43122
:101D500080E00E94900E60E086E290E00E94F43104
:101D60000E943B0E0E942B0E81E00C94900ECF93AC
:101D7000C091A902C2FB992790F9981781F080FBC6
:101D8000C2F9C093A9026091A80284E090E00E9489
:101D9000F4316C2F82E290E0CF910C94F431CF912A
:101DA00008950F931F93CF93DF93C42FD0E0CC0FF0
:101DB000DD1F28E1629FC00DD11D112430E6839FF5
:101DC000C00DD11D1124CE0187960E94E031082F4D
:101DD00010E0102F0027CE0188960E94E031980174
:101DE000282BC901DF91CF911F910F910895462FA4
:101DF0008A3038F4743028F46C3018F4672F0C945F
:101E0000D10E90E080E00895BF92CF92DF92EF92E2
:101E1000FF920F931F93CF93DF937C010091DC021D
:101E20001091DD028091360290913702082B192B18
:101E3000CFE0D0E0CC24C394D12CBC2EC6010C2E14
:101E400002C0880F991F0A94E2F780239123892BFF
:101E500071F4219790F7B12C8B2DDF91CF911F91C9
:101E60000F91FF90EF90DF90CF90BF900895B70152
:101E70008C2F0E94F70E0E941909019751F3ECCFA5
:101E8000CF93DF93EC010E94040FBE010E94F70E76
:101E9000DF91CF910C941909FC01808191810E94FE
:101EA000400F292F2F7092959F7092509E3078F49A
:101EB000E92FF0E0E259FD4C0C949531803F19F088
:101EC00020F4883E20F481E00895843FE1F380E02F
:101ED0000895883EC0F3813FD1F7F5CF822F8695D4
:101EE00086958695089583E290E00E94E0318132E4
:101EF00089F484E290E00E94E031813159F485E276
:101F000090E00E94E03191E0853009F090E0892F67
:101F10008170089580E0FCCFCF9384E090E00E9430
:101F2000E031C82F82E290E00E94E031982F8C2FA0
:101F3000CF91089560915F03669570E04BE050E0AB
:101F40008AE091E00E94C631892B19F481E08093E8
:101F500098020E94880690939202809391020895BD
:101F60004F925F926F927F928F929F92AF92BF92A9
:101F7000CF92DF92EF92FF920F931F93CF93DF9355
:101F8000CDB7DEB7CE57D1090FB6F894DEBF0FBE7E
:101F9000CDBF5090190180915F0380FF5DC080909C
:101FA0008F02909090028114910409F068C0EDECCA
:101FB000F3E09E012F5F3F4FBE0161587F4FC90183
:101FC000A4914A2F50E0DA01AA0FBB1FA40FB51F3E
:101FD000AF51BD4FCD90DD90EC90D901CD92DD9207
:101FE000ED929D0131966A177B0751F720911801F8
:101FF00043E0249F800D911D11246E9A2EB12F7BFA
:102000003EB130645FB7F894BC01549E600D711D01
:1020100011248617970709F08DC05FBF8FE594E004
:102020000197F1F700C00000C258DF4F0FB6F894D7
:10203000DEBF0FBECDBFDF91CF911F910F91FF90FB
:10204000EF90DF90CF90BF90AF909F908F907F9058
:102050006F905F904F90089580911A0190911B01AD
:1020600023E0829FF0011124EF51FD4F891708F002
:1020700096CF1182108212828F5F3396F7CF8091B4
:102080008E02811194CFD12CC12C66246394712CC3
:1020900053E0452E8091990293010C2C01C0220F30
:1020A0000A94EAF7822309F43CC0F601EE0FFF1F01
:1020B000E80DF91DE590F490E114F10409F477CFEF
:1020C00045E050E0B701CE0101960E94BD31098183
:1020D0000F3F39F18A81800F9927991F8B32910523
:1020E00014F08AE290E05C01AA0CBB1C8A0D9B1DD7
:1020F000DC01AF51BD4F5D01049D800111240F51E2
:102100001D4F0A151B0520F0B5E0EB0EF11CD8CFD2
:1021100098014D816C818B810E94E8060D5F1F4FF5
:10212000F0CFEFEFCE1ADE0AF8E0CF16D10409F0B7
:10213000B1CF3DCFFC014191CF01E8E03EB90000B5
:1021400000C047FF2EB9440F000000C000C000C00F
:102150002EB900C0EA9591F75CCFCF93DF9300D002
:102160000F92CDB7DEB780915F0380FF13C09E0151
:102170002F5F3F4F44E666EE80E00E94E8068B81C9
:1021800099812A8120935A039093590380935B038A
:102190000E94B00F0F900F900F90DF91CF91089594
:1021A0000F931F93CF93DF93EC0110E000E0909129
:1021B0001C019017110609F06CF40E94B00F8C817D
:1021C00090E00196817099278C83DF91CF911F91C8
:1021D0000F91089520911A01A801420F511D9A01F3
:1021E000220F331F240F351F2F513D4F4C8160911B
:1021F00061038091600396959017110651F04CF0A1
:10220000442349F0409162030E94E8060F5F1F4F8C
:10221000CECF4423B9F340E0F7CF8F929F92AF9295
:10222000BF92CF92DF92EF92FF920F931F93CF93C3
:10223000DF93EC014C81042F10E09801D8010E943B
:102240005D329B01AC010E9428324B015C01E0E24F
:10225000F0E0E01BF10BA5E5B0E0AC019B010E94B2
:1022600028326B017C019F01DF010E94A2319B019A
:10227000AC010E9433329B01AC01280D391D4A1D6F
:102280005B1DC701B6010E943B32F22E822F90E007
:1022900039E23F1560F143E0249F90011124359508
:1022A0002795122F109500E085E5E82EEF18809114
:1022B0001C01081758F10E94B00F9C8181E09923FE
:1022C00019F0903219F48FEF809317018091170164
:1022D000890F8C83DF91CF911F910F91FF90EF9029
:1022E000DF90CF90BF90AF909F908F90089525E59D
:1022F00030E0B901681B790B9B01220F331F260FB9
:10230000371F37FFCCCF2F5F3F4FC9CF8E2D01FD39
:102310008F2D20911A01622F600F7727771F9B0165
:10232000220F331F260F371F2F513D4F412F609132
:1023300061030E94E8060F5FBACF0F931F93CF93FC
:10234000DF9380911A0190911B0123E0829FF0019D
:102350001124EF51FD4F891740F1C0E0D3E06091A7
:102360001C01C61740F10E94B00F20911501809109
:102370009B02820F80939B0290911601920F909383
:102380001601191654F4082E000C990B40911C01EB
:102390004150550B841795071CF02195209315018A
:1023A000DF91CF911F910F910895118210821282B7
:1023B0008F5F3396D0CF0C2F10E070E0C8010E94E1
:1023C000813120911A01820F482F50E020919B0209
:1023D000022E000C330B02171307BCF020911601DC
:1023E000022E000C330B201731077CF08D9F9001DB
:1023F00011242F513D4F4091620360916103809100
:1024000060030E94E806CF5FAACFFA01EE0FFF1F1C
:10241000E40FF51FEF51FD4F118210821282F3CFAE
:102420001F93CF93DF93FC018281DFEF80FFD1E028
:10243000C0E01AE290911C01C91788F00E94B00F09
:1024400080919A02D130C9F5811102C080911C019E
:10245000815080939A02DF91CF911F910895E0916E
:102460001A014C2F50E09A012E0F311DF901EE0F89
:10247000FF1FE20FF31FEF51FD4F118210821282F6
:1024800080919A028B32ACF0612F0E945F31892FCC
:10249000082E000C990B4817590749F49F014091E9
:1024A000620360916103809160030E94E806CF5F40
:1024B000C1CF87FFEDCF890FEBCF90E00196609100
:1024C0001C0170E00E948131C4CFEF92FF921F93F4
:1024D000CF93DF93EC0110E0EE24EA94F12C6091AD
:1024E0001C01161770F00E94B00F9A818C8190FF2A
:1024F00027C08F5F8C83DF91CF911F91FF90EF906A
:10250000089520911A01422F410F5527551FCA01E6
:102510009A01220F331F280F391F2F513D4F70E0B2
:10252000C7010E948131962F8C8140916203609196
:102530006103199F800D11240E94E8061F5FCFCF11
:102540008150D8CF90915F0390FF14C090911A01F1
:1025500020911B0133E0939FF0011124EF51FD4FB7
:10256000921710F00C94B00F8183608342839F5FB9
:102570003396F6CF08950F931F93CF93DF9300D038
:102580000F92CDB7DEB78C0180919C0281110AC0F9
:102590009E012F5F3F4F44EB6FEF0E94E8068A8158
:1025A00080939C02F8016481613069F080919C0203
:1025B00040E0662361F040E0623011F440919C02FB
:1025C00080E060E004C060919C0240E080E00E94F6
:1025D000A212F801848190E0019663E070E00E940D
:1025E000813184830F900F900F90DF91CF911F91D5
:1025F0000F910895CF93DF9300D00F92CDB7DEB740
:1026000090915F0390FF0AC09E012F5F3F4F0E9491
:10261000E8064B8169818A810E94A2120F900F9077
:102620000F90DF91CF910895CF93DF93EC01EFE509
:10263000F3E0438162818C810E94FA128C818F5F6A
:102640008C83DF91CF910895CF93DF93EC01EC81E0
:10265000F0E0EA50FC4F4491EFE5F3E062818181C4
:102660000E94FA128C818F5F8C83DF91CF91089545
:10267000CF92DF92EF92FF926B017C010E94D20613
:10268000B701A60188E090E0FF90EF90DF90CF9037
:102690000C940632AF92BF92CF92DF92EF92FF92EC
:1026A0000F931F93CF93DF9300D00F92CDB7DEB778
:1026B000182FF62E042FE22E90915F0390FF29C071
:1026C000E92FE695AE2FB0E0A657BE4F8C918093D0
:1026D00097029E7F923059F59E012F5F3F4F812FC9
:1026E0000E94E8064B8169818A810E94A2121093A0
:1026F0006003F092610300936203EE2051F0609159
:102700005F037091600380916103909162030E9466
:1027100038130F900F900F90DF91CF911F910F9171
:10272000FF90EF90DF90CF90BF90AF9008958230F0
:1027300019F400916203DBCF863019F41091600325
:10274000D6CF8930D9F3893191F6E9518E2F817036
:10275000D82EE695F0E0E853FC4FA590B490C12C3C
:10276000BB2460911C01C61618F00E94B00FBFCFA9
:102770002C2D30E0A29EC001A39E900DB29E900D24
:10278000112470E00E946D31812FD11013C0860F8B
:1027900040911A01420F532F511D9A01220F331FEE
:1027A000240F351F2F513D4F402F6F2D0E94E806FB
:1027B000C394D7CF861BECCFEFE5F3E0438128E04D
:1027C000421B08F440E021E0628181810C944A13AD
:1027D000EFE5F3E0438128E0420F08F44FEF21E0FA
:1027E000628181810C944A13EFE5F3E0628128E075
:1027F000621B08F460E021E0438181810C944A135C
:10280000EFE5F3E0628128E0620F08F46FEF21E06A
:10281000438181810C944A13EFE5F3E0818121E04B
:102820004381628188500C944A13EFE5F3E0818183
:1028300021E043816281885F0C944A138091630395
:10284000882319F081508093630360915F03709136
:10285000600380916103909162030C94381380911E
:102860006303833018F48F5F8093630360915F0389
:102870007091600380916103909162030C9438130E
:1028800090915F0390FF36C09170811129C09260D2
:1028900090935F03662351F060915F037091600332
:1028A00080916103909162030E94381360915F03ED
:1028B000669570E04BE050E08AE091E00E94C631FE
:1028C000892BA9F01092980281E08093940220E075
:1028D0004091620360916103809160030C944A13FC
:1028E000853210F09864D4CF880F982BD1CF0E94F6
:1028F0009A0FEACF089560E00C94401421E030E094
:10290000A90102C0440F551F8A95E2F7CA01209120
:102910009902662391F0822B80939902809198020C
:10292000811105C080915F0386950E947B14809180
:102930005F0380FD05C00C94B00F80958223ECCF1F
:102940000895CF93DF93C82FC17082FBDD27D0F9A4
:1029500081FB662760F984E00E947E1461E06C27A9
:1029600085E00E947E146D2F86E0DF91CF910C945C
:102970007E140F931F93CF93DF93EC0161E00097D8
:1029800009F0682F617080E00E947E1460E020975B
:1029900021F0BE0176956795617081E00E947E14FA
:1029A00060E0209731F0BE01769567957695679542
:1029B000617082E00E947E1460E0209739F0BE01D1
:1029C000B3E076956795BA95E1F7617083E00E9470
:1029D0007E14AE0170E060E0BB27A72F962F852FF5
:1029E0000097A105B105D9F1AC01BD0188E08A01CC
:1029F0009B01F4E03695279517950795FA95D1F741
:102A0000011511052105310519F08C5FB901A801E7
:102A10008A019B01E2E03695279517950795EA957F
:102A2000D1F7011511052105310519F08E5FB901A6
:102A3000A8017695679557954795452B462B472BCB
:102A400009F08F5F8130C9F0882359F08230D1F0CE
:102A50008330E9F020E04EE16FEF80E406C080E0D3
:102A6000C6CF20E04EE16FEF82E30E944A13CE0111
:102A7000DF91CF911F910F91089520E04EE16FEF0C
:102A80008EE1F3CF20E04EE16FEF8AE6EECF20E05B
:102A90004EE16FEF87EDE9CF0E94B9149093DD020C
:102AA0008093DC020C94A90B8091DC029091DD02F2
:102AB0009C01267033272630310519F488600C9468
:102AC0004C15877FFCCF21E030E002C0220F331F7E
:102AD0008A95E2F7209530958091DC029091DD0295
:102AE000822393230C944C15909131028095892375
:102AF00080933102282F277039F4282F082E000CDC
:102B0000330B9217130621F49091A90292FF07C08C
:102B10008595859585950E946315109231020895DB
:102B200021E030E002C0220F331F8A95E2F7809146
:102B3000DC029091DD02822B932B0C944C1580913A
:102B40005F038695815009F484E261E00C9440149F
:102B500080915F0386958F5F853208F081E061E0A8
:102B60000C94401490915F0390FF07C096959817BE
:102B700020F0961710F40C94A81561E00C94401402
:102B8000EFE5F3E083E0808311828FEF828384EBB3
:102B90008383148260817181828193810C943813C4
:102BA00069EE7EEF90E080E00E94123260E082E009
:102BB00090E00E94F43160E083E090E00E94F43104
:102BC000109237021092360260E084E090E00E949A
:102BD000F43160E082E290E00E94F43160E085E050
:102BE00090E00E94F43160E086E090E00E94F431D1
:102BF0006FEF87E090E00E94F43140E050E0BA01CE
:102C000088E090E00E94063260E08DE090E00E9453
:102C1000F43140E050E0BA0188E190E00E940632D1
:102C200060E087E190E00E94F43140E050E0BA01BA
:102C30008CE190E00E94063270E060E080E290E07B
:102C40000E94123240E050E0BA0188E190E00E9418
:102C5000063280E00E94900E0E94A80E40E050E0F4
:102C6000BA018FE090E00E94063240E050E0BA01E5
:102C700083E190E00C9406326F927F928F929F9244
:102C8000AF92BF92CF92DF92EF92FF920F931F937A
:102C9000CF93DF93CDB7DEB728970FB6F894DEBF9A
:102CA0000FBECDBF8E010F5F1F4F88E0F80111925C
:102CB0008A95E9F78FE4E82E81E0F82E680193E524
:102CC000692E91E0792E88248394912CF7018191CB
:102CD0007F018F3F09F44BC0F894E82FE295EF7025
:102CE000F0E021A18F70A40102C0440F551F8A9506
:102CF000E2F7CA01922F982B91A392A18095892384
:102D000082A3789400C0E3E5F1E030E020E0B12C4C
:102D1000A12C81918F3F09F47CC0A82FA295AF70A0
:102D2000B0E090964C9150E08F7002C05595479559
:102D30008A95E2F740FD6DC0C401022E02C0880FE3
:102D4000991F0A94E2F7A82AB92A2F5F3F4F2C3027
:102D50003105F9F6F701319780818F3F11F00E941C
:102D6000BF0850EA5A95F1F7F601B182A082F2E06D
:102D7000CF0ED11C6E147F0409F0A8CF48E050E0BC
:102D8000B8018AE492E00E94D331FF24F3940097C3
:102D900009F4F12C892B09F43FC088E0F801AAE47A
:102DA000B2E001900D928A95E1F781E080933A02BA
:102DB0000E948806909339028093380280913802ED
:102DC000909139020E947906059750F180914A024C
:102DD00090914B0290937A028093790280914C02F9
:102DE00090914D0290937C0280937B0280914E02E1
:102DF00090914F0290937E0280937D0280915002C9
:102E0000909151029093800280937F0210923A0237
:102E100007C090E080E097CF80913A028111CECF39
:102E200080914902882371F0809147029091480275
:102E30000E947906893E934028F082EE0E94E10BC1
:102E4000109249021091460280914502111185C0ED
:102E5000882309F45CC010921A0184E080931B015E
:102E600080931C018FE00E947B141092450281E048
:102E70008093460280913F02882399F1809140021D
:102E800081112FC080913D0290913E020E947906EF
:102E900081369A4E78F080913B0290913C020196E7
:102EA00090933C0280933B020E94880690933E02DE
:102EB00080933D0280913B0290913C024F9788F0B5
:102EC00010921A018AE280931B0180931C018FE00B
:102ED0000E947B1481E08093400210923C02109289
:102EE0003B028F2D28960FB6F894DEBF0FBECDBFE4
:102EF000DF91CF911F910F91FF90EF90DF90CF90D6
:102F0000BF90AF909F908F907F906F900895809129
:102F10004402882379F086E180931A018AE1809344
:102F20001B0184E080931C018FE00E947B141092AF
:102F300044029DCF809143028823A9F08AE18093C7
:102F40001A018EE180931B0184E080931C018FE0C5
:102F50000E947B14109243028ACF81112BC0809172
:102F60004402811127C080914302811123C08091C6
:102F70004102909142020E947906853F9140D0F033
:102F8000112379F010921A018AE280931B01809339
:102F90001C0181E20E947B148091400281110E94F9
:102FA000AD1010924502109244021092430210920A
:102FB000460260CF109245021092440210924302E2
:102FC00059CF90E080E00E94EE31893E9E4F11F48F
:102FD0000C94730F80E008951092340280911D01CB
:102FE000E2ECF1E0882359F08091A80287FF07C046
:102FF0008EE1DF011D928A95E9F70C94A90B86E01A
:10300000F8CF1F93CF93DF93CDB7DEB7AA970FB654
:10301000F894DEBF0FBECDBF84ED92E02091F100A9
:10302000DC012D93CD01B2E08C3D9B07B9F7809177
:10303000D502833009F471C0B8F4813009F448C076
:10304000823009F4B2C08091E80083FF3AC18091D8
:10305000D4029091D5029A3008F033C1E92FF0E004
:10306000E458FD4C0C9495318A3009F48DC08B30B6
:1030700009F470C0893039F78091D402813219F790
:103080008091D8029091D902009711F00297D9F659
:103090008091E800877F8093E8008091E80082FFBC
:1030A00037C08091F2009091F300029729F480914B
:1030B000F1008B7F813021F48091F1008093AF0289
:1030C0008091E8008B778093E8000E946605BBCF73
:1030D0008091D402813A09F0B6CF8091E800877FD1
:1030E0008093E8008091D8029091D902892B61F4F5
:1030F00060E280EB92E070E00E9419068091E800A7
:103100008B778093E8009FCF60E090E080E0F3CF82
:103110008091D2028111C1CF96CF8091D402813AA1
:1031200009F091CF8091D8029091D902892B09F0B2
:103130008ACF8091E800877F8093E8008091E80043
:1031400080FFFCCF80911D018093F1008091E80009
:103150008E77B9CF8091D402813209F074CF8091FB
:10316000D8029091D902892B09F06DCF8091E800A7
:10317000877F8093E8000E9466058091D602809345
:103180001D010E94EC175FCF8091D402813209F0BB
:103190005ACF8091E800877F8093E8000E946605FF
:1031A0008091D7028093AE024ECF8091D402813AB3
:1031B00009F049CF8091E800877F8093E8008091F3
:1031C000E80080FFFCCF8091AE02BECF803899F03E
:1031D000823809F076C08091D8028F70873008F06D
:1031E00070C08093E9008091EB0085FB882780F90F
:1031F0001092E90006C08091D0029091D102911105
:1032000082609091E800977F9093E8008093F100AE
:103210001092F1008091E8008E77B5C1882309F4FF
:10322000A2C1823009F04DC08091D6028111A6C1A1
:103230008091D8028F702FEF280F263008F041C000
:103240008093E9002091EB0020FF98C1933031F486
:103250008091EB0080628093EB0090C19091EB0035
:1032600090619093EB0021E030E001C0220F8A953D
:10327000EAF72093EA001092EA008091EB00886060
:10328000EACF81111EC01091D6021F778091E30012
:103290008078812B8093E3008091E800877F809382
:1032A000E8000E9466058091E80080FFFCCF8091D5
:1032B000E30080688093E30082E0111183E0809353
:1032C000D2028091E80083FF0AC08091E800877FE6
:1032D0008093E8008091EB0080628093EB00AA96D7
:1032E0000FB6F894DEBF0FBECDBFDF91CF911F9117
:1032F00008958058823028F72091D6023091D70265
:103300002C3DE3E03E07A1F583E08A838AE28983CE
:103310004FB7F894DE01139620E03EE051E2E32F30
:10332000F0E050935700E49120FF03C0E295EF7066
:103330003F5FEF708E2F90E0EA30C0F0C7968D931C
:103340009D932F5F243159F74FBF8091E800877F0D
:103350008093E8006AE270E0CE0101960E941906AF
:103360008091E8008B778093E800ABCFC096E7CFE1
:103370008091D8029091D902432F552743305105AF
:1033800009F44AC078F54130510509F47AC08BE55B
:1033900090E0E6EBF8E04230510509F092CF209141
:1033A000E800277F2093E8002091DA023091DB02C9
:1033B0008217930708F49C0140E02115310509F0BC
:1033C00065C0411163C08091E80082FDC9CF809142
:1033D000D202882329F2853019F28091E80083FF18
:1033E000F2CFBECF4132510509F43CC04232510503
:1033F00009F067CF8330910508F063CFFC01EE0F31
:10340000FF1FEE54FE4F0190F081E02D81559E4F3D
:10341000DC018C9190E01AC0332721303105D1F0C6
:103420002115310561F02230310509F04ACFE3E280
:10343000F9E0E4918E2F90E0E3E2F9E007C0E1E4E7
:10344000F9E0E4918E2F90E0E1E4F9E0009709F4CF
:1034500038CFA5CFEDE2F9E0E4918E2F90E0EDE2D8
:10346000F9E0F4CF8330910508F02BCF880F991F36
:10347000FC01E854FE4F0190F081E02D89E090E0DE
:103480008ECF82E190E0E1E1F9E089CF8091D20234
:10349000882309F465CF853009F462CF8091E80074
:1034A00083FD5ECF8091E80082FD8DCF8091E800A2
:1034B00080FF83CF8091F2009091F30021153105B8
:1034C00019F08830910550F041E0089709F040E08C
:1034D0008091E8008E778093E8006FCF449140930D
:1034E000F1003196215031090196E8CF803809F07A
:1034F000E8CE8091E800877F8093E8008091D30236
:103500008093F10087CE8111DCCE1091D60212306B
:1035100008F0D7CE8091E800877F8093E800109371
:10352000D3020E946605112311F084E005C080914A
:10353000E30087FDFACF81E08093D20242E061ECA4
:1035400081E00E94850542E261EC84E00E948505ED
:1035500042E261EC82E00E94850542E260EC83E099
:103560000E948505AECE8091D602813009F0A9CEA9
:1035700081E0933009F080E08093D1021092E9005D
:103580008091E800877F8093E8000E94660599CECD
:103590003F924F925F926F927F928F929F92AF92E3
:1035A000BF92CF92DF92EF92FF920F931F93CF9330
:1035B000DF9300D000D00F92CDB7DEB78C01FC01B5
:1035C00083819481892B31F08081918189238F3F80
:1035D00009F052C60F900F900F900F900F90DF914F
:1035E000CF911F910F91FF90EF90DF90CF90BF9000
:1035F000AF909F908F907F906F905F904F903F9093
:1036000008950E94040FF82E682F89819A810E94E4
:103610007D0B69817A818F2D0E94F70E7C01F80164
:103620008281882309F41AC6970122513F4520312F
:10363000310508F0D2C58FEF97E00E94E031FEEE31
:10364000EF0E57EE852E53E0952E882381F1809161
:103650003102877009F4BECFF8018281882309F412
:10366000B9CF82E00F900F900F900F900F90DF91E5
:10367000CF911F910F91FF90EF90DF90CF90BF906F
:10368000AF909F908F907F906F905F904F903F9002
:103690000C947415811428E09206C9F2C4010E94AA
:1036A000E031811101C0EA943FEF831A930AE110DF
:1036B000F1CF1C821B82442443944AE0342E7401CF
:1036C0004FEFE41AF40AC4010E94E03189831A82A0
:1036D000882309F4BCCF9FEF980F933000F58A83BD
:1036E000498252E0850E911CC7010E94E0318B8314
:1036F000882309F4ACCFCE0101967C01F70120812B
:103700002223E9F2213009F049C091818281913070
:1037100041F4F2E0EF0EF11C0E94AA0D09C047012E
:10372000EACF923049F422E0E20EF11C0E94F50C3F
:103730003FEFE31AF30AE2CF933031F432E0E30EC5
:10374000F11C0E94E10BF4CF943021F04FEFE41A0A
:10375000F40AEECF52E0E50EF11C30E020E0B701B4
:103760006F5F7F4FF70141818053990B8A3091053C
:1037700050F021503109E0F28FE99FE00197F1F715
:1037800000C00000F6CF329EF001339EF00D1124F0
:103790009C012E0F3F1F842F7B01E1CFE22FF0E031
:1037A000EA5DFD4F5490822F86958695869590E030
:1037B000FC01EA5EFD4F64902770712C022E02C05E
:1037C000759467940A94E2F7E1E06E227724FC0195
:1037D000EA5FFD4FA490B12C022E02C0B594A794CD
:1037E0000A94E2F7F1E0AF22BB24FC01EA50FE4F5D
:1037F000C490D12C02C0D594C7942A95E2F721E059
:10380000C222DD246114710419F081EE0E94F50CCE
:10381000A114B10419F086EE0E94F50C852D0E94CA
:10382000AA0DAB2819F086EE0E94E10B672819F06B
:1038300081EE0E94E10BCD2809F47ACF8CE26CCFA7
:1038400081E00E9490150E94541501CF81E00E94F2
:103850006315F9CF82E0F5CFF3E8EF16FFE5FF0639
:1038600009F4CCC024E8E2162FE5F20609F0D5C42D
:10387000882309F4ECCEF0903F02EE24E394FE247A
:10388000F0923F020E94880690933E0280933D0290
:103890008091400210921A01882309F4BDC08AE287
:1038A00080931B0180931C0181E20E947B140E9483
:1038B000AD10E0923F021092400210923C02109232
:1038C0003B02C5CE882309F481C080914902811151
:1038D00006C081E08093490282EE0E94F50C0E94AE
:1038E000880690934802809347028BE20E94F50C71
:1038F000F8018281882309F4D0C41092E002F2E03A
:10390000EF16FCE5FF0608F4ACC126E1E2162CE553
:10391000F20630F0C7018A5F9C45099708F0A1C103
:103920000E948C0F9093A9028093A80230E1E316C5
:103930003CE5F30609F464C108F0E6C058E0E5167A
:103940005CE5F50609F44EC108F0AFC094E0E91655
:103950009CE5F90609F43EC108F091C0F2E0EF16CB
:10396000FCE5FF0609F430C18091A802826023E0E3
:10397000E2162CE5F20609F42AC16091A802F09043
:10398000A90284E090E00E94F4316F2D82E290E081
:103990000E94F4310E94EC175ACE8823A1F0809146
:1039A0004902811106C081E08093490282EE0E94A3
:1039B000F50C0E948806909348028093470281EE9E
:1039C0000E94F50C92CF81EE0E94E10B8BE20E94E7
:1039D000E10B8ECF882309F48BCF81EE0E94F50C8A
:1039E00083EE0E94F50C8FE40E94F50C8FE40E9498
:1039F000E10B83EE0E94E10B81EEE9CF882309F40D
:103A000077CF81EE0E94F50C83EE0E94F50C80E5E5
:103A10000E94F50C80E5EBCF8AE280931B01809336
:103A20001C0181E2FF2029F00E947B140E94AD104E
:103A300042CF0E947B143FCFE5EFEE16ECE5FE0689
:103A4000B9F090F026EFE2162CE5F20609F050CF1F
:103A500027E245EE66EEFEC327E245EE65EEFAC3C9
:103A600026E241EE60EEF6C327E245EE64EEF2C3D5
:103A700026E241EE62EEEEC328E241E0EFCF809114
:103A8000A802806136E0E3163CE5F30609F49FC026
:103A90008091A802886047E0E4164CE5F40608F43B
:103AA00096C08091A802806292C08091A8028D7F0A
:103AB0005CE0E5165CE5F50609F489C078F48091D0
:103AC000A8028C609AE0E9169CE5F90609F47FC02B
:103AD00008F48CC08091A8028E7F79C08091A802E2
:103AE000877FFEE0EF16FCE5FF0609F470C08091C9
:103AF000A8028B7F2FE0E2162CE5F20608F467C0DF
:103B00008091A8028F7E63C03BEFE3163CE5F3068D
:103B100009F464C068F553E1E5165CE5F50609F4BF
:103B200077C090F491E1E9169CE5F90609F46CC0C0
:103B3000E2E1EE16ECE5FE0609F01FCF0E94EC175D
:103B40008091A8028F7743C0F5E1EF16FCE5FF06F0
:103B500009F466C008F47AC08091A90281603AEF46
:103B6000E3163CE5F30609F008CF8093A90205CFE0
:103B70004FEFE4164CE5F40609F44EC088F48DEFDF
:103B8000E8168CE5F806C1F18091A9028E7F9EEFC0
:103B9000E9169CE5F90648F38091A9028360E5CF18
:103BA000E1E0EE16EDE5FE0609F459C008F444C064
:103BB00060E022E0E2162DE5F20609F0DECE8EE0AE
:103BC00090E00E94F431D9CE8091A8028160809368
:103BD000A802D3CE8091A8028460F9CF8091A90277
:103BE0008260C3CF8091A8028064F1CF0E94EC175D
:103BF0008091A8028068EBCF8091A9028D7FB5CF1C
:103C00008091A8028F7DE3CF8091A8028F7BDFCFC8
:103C10008091A802837FDBCF8091A9028C7FA5CF02
:103C20008091A80282FB992790F921E0922790FBCE
:103C300082F990FB83F9CBCF8091A902982F9095C0
:103C400091708E7F892B90FB81F98FCF0E94EC17AA
:103C50009091A802892F97FB87F98058B8CF61E02F
:103C6000AECF8091340236E1E3163CE5F30609F06D
:103C700021C38A7A91E009F490E09093E0018111E8
:103C800006C089E20E94170B0E94A70AE0CC85E3D8
:103C9000F9CF85E30CC380915F0380FF1BC08E7F4B
:103CA00080935F0360915F03709160038091610373
:103CB000909162030E943813109298024FEF50E7E0
:103CC00082E0415050408040E1F700C000000E9477
:103CD000B00FBDCC816080935F0361E086950E9448
:103CE0004014B5CC4FE955E168EA75E10E94CC0675
:103CF000AECC48EA55E16FE975E1F8CF45E154E112
:103D00006CE074E1F3CF44EF53E160E074E1EECF97
:103D10004CED53E168EE73E1E9CF48EE53E16CED11
:103D200073E1E4CF4FE254E16EE174E1DFCF61E093
:103D300081E0D5CF65E082E00E94B21588CC68E0D2
:103D400086E0FACF64E18FE0F7CF67E185E1F4CF59
:103D500062E289E1F1CF61E083E2C1CF3BE5E316A6
:103D60003DE5F30611F14CE5E4164DE5F40609F0E6
:103D7000D3C28091A90282FB882780F991E089272C
:103D80000E94B70EC9C20E94EC175FEF84E39CE06B
:103D9000515080409040E1F700C000000E94D10CDB
:103DA0000E94D01554CC81E0EBCF80E0E9CFC70171
:103DB0000E94550BD82EBFC22F2D2F70C22E8F2DD3
:103DC000807F19F0C29490EFC922DD20C9F0CC2089
:103DD00069F080E28E0D883010F081100BC0809168
:103DE0003402C82AC09234020E94A70A8E2D0E9473
:103DF000F50C19C080913302C82AC0923302F4CF67
:103E00008E2D0E94E10BCC2071F0C09480E28E0DCB
:103E1000883010F081103EC080913402C822C092D8
:103E200034020E94A70AE92DE850FF0B349720F4D2
:103E30000E94C0060E94A114AA2009F4CBCB809155
:103E4000310280FDC7CBF801128285958595859555
:103E50000E949015C8010E94C81A80913102859570
:103E6000859585950F900F900F900F900F90DF9193
:103E7000CF911F910F91FF90EF90DF90CF90BF9067
:103E8000AF909F908F907F906F905F904F903F90FA
:103E90000C94631580913302C822C0923302C1CFC3
:103EA0003F2D3F70B32E8F2D807F803219F0B2945A
:103EB00080EFB822882071F041E0841681F1DD2086
:103EC000D9F1CC2091F1F801858180FF8FCF8F70DF
:103ED00085832BC0DD20B1F0909135028B2D892B8D
:103EE000C11003C00E94D70B9ECF51E0C512FACF7C
:103EF0002091A90222FD97CF981709F494CF8093BF
:103F0000350291CFC11006C00E94A10A8B2D0E94DC
:103F1000CC0B89CF81E0C81609F485CFF5CFDD2021
:103F200031F095E09C1508F47ECF8B2DDBCFE4E0DB
:103F3000EC1508F478CFEACFCC2041F3F9E38F12E7
:103F400009C02FEF37EE43E0215030404040E1F709
:103F500000C000008E2D0E94E10B65CF8F2D86954D
:103F60008695837061F0813009F05DCFC701937051
:103F7000D11002C090E080E00E94940654CFC701A7
:103F80009370D11002C090E080E00E94AA064BCF4F
:103F90008E2DDD2029F00E9463080E94810743CF07
:103FA0000E94A807FACF8F2D837009F040C0D1106E
:103FB0003ACF4E2D429546954770440F440F8E2DB3
:103FC0008F7090E0042E02C0880F991F0A94E2F7C8
:103FD00030E020E0E4FE09C02FE030E002C0220F14
:103FE000331F4A95E2F7209530954F2D469546951B
:103FF0004370423099F078F4609136027091370244
:10400000413039F0822B932B862397230E94C60BD5
:104010000ACF862B972B822B932BF8CF822B932BB7
:10402000209136023091370282279327EFCF869571
:10403000DD2011F08F2D8170882309F4F4CE4E2DF0
:10404000429546954770440F440F8E2D8F7090E037
:10405000042E02C0880F991F0A94E2F730E020E096
:10406000E4FE09C02FE030E002C0220F331F4A9562
:10407000E2F7209530954F2D469546954370423096
:1040800099F078F46091DC027091DD02413039F0F2
:10409000822B932B862397230E944C15C4CE862B0C
:1040A000972B822B932BF8CF822B932B2091DC0222
:1040B0003091DD0282279327EFCF5F2D5F70F52EC1
:1040C000DD2029F0852F0E9490158E2D0BCF8E2D8F
:1040D0000E94CC0B8F2D0E946315A5CE8E2D92EFE2
:1040E000891609F449C0981570F0E0EF8E1639F181
:1040F000F1EF8F16C9F1DD2009F45FC0C11076CE53
:104100008F2D8F7136C023EF8216D9F134EF8312D1
:10411000F2CFDD2009F446C0FF2DFF71FF2E8F2F57
:104120000E9490158091A90282FD07C028E0F29EAE
:10413000C00111248360809331028F2D1AC0DD20CD
:1041400071F044E04C1508F46ECE2F2D2F7181E0F4
:1041500090E002C0880F991F2A95E2F7A7CF55E09B
:104160005C1508F460CEF1CF8F2D8F71DD2009F43E
:10417000B2CF0E94901557CE8F2D8F71DD20C9F3DD
:10418000AACF90E080E0DD2009F486CF9F2D9F71BB
:1041900021E030E0F90102C0EE0FFF1F9A95E2F72F
:1041A000CF017ACF81E00E94741531E03C1508F010
:1041B0003ACE82E00E94741536CECC2059F0893375
:1041C00009F0C8CE4FEF57EE83E041505040804099
:1041D000E1F7BECE8F2D8F717ECFF0E1EF16FFE5B8
:1041E000FF0609F42DCB21E1E2162FE5F20609F4D2
:1041F00031CB42E8E4164FE5F40609F4EBCB08F0C6
:104200002BCB90E8E9169FE5F90609F45BCBE1E8D2
:10421000EE16EFE5FE0609F4C0CB33EFE3163CE5FE
:10422000F30609F41DCC08F007CC58EDE5165CE563
:10423000F50609F411CC89EDE8168CE5F80609F4C9
:104240001BCC97EDE9169CE5F90609F051CB26E267
:1042500041EE61EEC8010E94C70DF9C930E1E316D5
:104260003FE5F30609F4F2CA41E1E4164FE5F4062E
:1042700009F0BFCF82E0EBCA85E0DE011196019024
:104280000D928A95E1F7F801228189819A812111A5
:10429000B8C90E94550BF82EBCC9F6E1EF16FCE533
:1042A000FF06D1F58091E0018111F3CC89E20E94F3
:1042B000EC0AEACC82722CECE2162CE5F20609F448
:1042C00031CD08F0A7C046ECE4164CE5F40609F43D
:1042D00015CD08F076C093ECE9169CE5F90609F4D3
:1042E00001CD08F05DC0F2ECEF16FCE5FF0609F425
:1042F000D2CC9AE5E9169DE5F90609F454CD08F00B
:104300002DCDE114FCE5FF0609F43DCD2EEDE216BE
:104310002CE5F20609F444CDF8018281E080F180B9
:10432000882309F444CDC7010E94040FD82E682FBA
:10433000C7010E947D0BB7018D2D0E94F70E0E94D0
:1043400019097C01882EF801D280C580C2943FE013
:10435000C322809131028770A1F0AD2CDD2091F055
:104360008F2D807F803421F080E28E0D883048F0E0
:1043700082E00E947415809131028770AA24A39470
:104380008111A12C9F2C92942FE09222FBE0F91531
:1043900008F449CDE92DF0E0EA57FD4C0C94953135
:1043A00024ECE2162CE5F20609F4A3CC4CE054E12F
:1043B00065E174E135ECE3163CE5F30609F496CCCF
:1043C00098CF49ECE4164CE5F40609F4A1CC88F446
:1043D00097ECE9169CE5F90609F495CC40E054E128
:1043E00064EF73E1E8ECEE16ECE5FE0609F47ECC32
:1043F00080CFFAECEF16FCE5FF0609F48ECC4EE117
:1044000054E16FE274E12BECE2162CE5F20609F4BC
:104410006DCC6FCF31EDE3163CE5F30609F492CC99
:10442000B8F45EECE5165CE5F50609F483CC08F417
:104430007ECC9FECE9169CE5F90609F480CC6EE091
:1044400089E0E0EDEE16ECE5FE0609F475CC51CFFF
:10445000F4EDEF16FCE5FF0609F47ACC78F432EDC2
:10446000E3163CE5F30609F470CC61E088E143ED26
:10447000E4164CE5F40609F432CC3BCF55EDE516D5
:104480005CE5F50609F467CC8DE5E816F80609F455
:10449000DEC82FCF1F93CF93DF938091FE01807FE3
:1044A000A9F48091FB01882389F080913002D0919A
:1044B000FF016091F9017091FA01A091FC01B091A6
:1044C000FD01C62FC72316E0D81304C0DF91CF919A
:1044D0001F91089590E0109711F0CF3F19F40196C5
:1044E0008770F2CF189F9001199F300D1124F901A8
:1044F000E050FE4F41814713F2CF40814613EFCF8A
:1045000042814111ECCF438154814A1B5B0B483CF3
:10451000510528F78091FE018F7080618093FE0124
:10452000F901EB5FFD4F80818F708061808389EF9F
:1045300091E00E94C81ADF91CF911F910C944B0B10
:10454000AF92BF92CF92DF92EF92FF920F931F93A1
:10455000CF93DF93CDB7DEB761970FB6F894DEBF88
:104560000FBECDBF8C0185E0F801DE011D960190E4
:104570000D928A95E1F7F801E28089EFA82E81E09B
:10458000B82E6091FC017091FD016115710509F46F
:1045900032C19091F9014091FA01892F84238F3F14
:1045A00009F429C120813181C380D480F090FB01BE
:1045B000F601E61BF70BFF2009F4E8C08091FE012D
:1045C000582F507FE83CF10508F0ABC0511177C07F
:1045D000FE2C431321C092131FC0E1101DC08F7029
:1045E00080618093FE01C5010E94C81A8091FE017E
:1045F000F80185838F2D61960FB6F894DEBF0FBE4C
:10460000CDBFDF91CF911F910F91FF90EF90DF9081
:10461000CF90BF90AF900895CD2829F0822F8323AB
:104620008F3F09F003C180E0F82FF170DF2E80FF8B
:104630003CC0809130024091FF0156E0841315C0C8
:104640002D873E878D859E850E94400F292F2295BC
:104650002F702230F0F0243018F59F70F1F0F8013F
:104660009581907FD1F4D12C1EC090E0589FF0012D
:10467000599FF00D1124E050FE4F6181361306C0A2
:104680006081261303C06281E6120FC00196877015
:10469000D5CF9F7011F0882331F3805E883018F3F6
:1046A000C8010E94C81AFD2CA5CFEE2009F4A2CFA4
:1046B0008091FE0181608093FE01F12C9BCF43131A
:1046C00006C0921304C0F801EE2009F479C0C801B5
:1046D0000E944C0F882309F1EE20F9F08091FE0131
:1046E000803270F02091F9013091FA0138872F83E0
:1046F0001986DB86CA868C87CE0107960E94C81A67
:1047000086E0F801A9EFB1E001900D928A95E1F7FA
:104710000E944A22FF24F3946DCFC8010E94C81A58
:10472000F9CF51110AC089EF91E00E94C81A86E0C2
:10473000F50111928A95E9F7C0CF43130FC0921388
:104740000DC0E1100BC0F8018583C8010E94C81A92
:1047500086E0F50111928A95E9F74CCFC8010E94D5
:104760004C0F8823D1F2EE20C1F28091FE018032FD
:1047700038F22091F9013091FA013A8329831B82A2
:10478000DD82CC828E83CE010196B8CFE83CF10564
:10479000F8F6FE2CEE2009F243131FC092131DC041
:1047A0008091FE0180FD10C0982F907F69F0F80184
:1047B0008583903F31F0982F907F905F8F70892B89
:1047C0008583C8010E94C81A86E0F801A9EFB1E00C
:1047D00001900D928A95E1F70DCFC8010E944C0F10
:1047E00081118ECF8091FE0181608093FE01C8010E
:1047F0000E94C81AFFCEEE2009F48FCFC8010E9494
:104800004C0FF82E882309F488CF86E0F801A9EF31
:10481000B1E001900D928A95E1F78091F9019091B4
:10482000FA010E94400F0E944A22E4CE81E08E25C8
:10483000FBCE1F93CF93DF93CDB7DEB767970FB64D
:10484000F894DEBF0FBECDBF4B8B5C8B6D8B7E8B28
:104850008F8B6111109233021A8A198A85E0FE014A
:104860007396DE011D9601900D928A95E1F786E020
:10487000FE013D96DE01179601900D928A95E1F7B3
:10488000CE0107960E94A022882389F016E080912D
:1048900030029091FF01891349C067960FB6F894D2
:1048A000DEBF0FBECDBFDF91CF911F91089586E08F
:1048B000FE013796DE01119601900D928A95E1F77F
:1048C0008A859B85892B11F38F81988589238F3F5A
:1048D000E9F22091FF0130E0C90101968770992724
:1048E000409130024817190671F40E94EC1710929B
:1048F000FF011092300286E0E9EFF1E0DF011D9246
:104900008A95E9F7C3CF96E0929FD001939FB00DAF
:104910001124A050BE4FFE01319601900D929A9540
:10492000E1F78093FF010E944B0BB0CF819FC00144
:10493000112480509E4F0E94A022882309F4ADCFFD
:104940008091300290E00196877099278093300221
:104950009ECFFF920F931F93CF93DF93CDB7DEB718
:10496000C45BD1090FB6F894DEBF0FBECDBF182FC0
:104970008111D7C0662309F475C0C055DF4F188276
:10498000C05BD040CF54DF4F1882C15BD04011E0F4
:10499000CE54DF4F1883C25BD0400E9488068160EE
:1049A000782FCD54DF4F99838883C35BD040C055A7
:1049B000DF4F4881C05BD040CF54DF4F5881C15B8F
:1049C000D040CE54DF4F6881C25BD040CC54DF4F23
:1049D0008881C45BD0400E941924C555DF4F1882DE
:1049E000CB5AD040C455DF4F1882CC5AD040C35563
:1049F000DF4F1882CD5AD0400E9488068160782F00
:104A0000C255DF4F99838883CE5AD040C555DF4FBA
:104A10004881CB5AD040C455DF4F5881CC5AD04042
:104A2000C355DF4F6881CD5AD040C155DF4F8881D3
:104A3000CF5AD0400E941924109345020E94880644
:104A4000909342028093410281E0CC54DF4F0FB635
:104A5000F894DEBF0FBECDBFDF91CF911F910F91B4
:104A6000FF90089502E0CA55DF4F0883C65AD04030
:104A7000C955DF4F1882C75AD04011E0C855DF4FE3
:104A80001883C85AD0400E9488068160782FC75585
:104A9000DF4F99838883C95AD040CA55DF4F488178
:104AA000C65AD040C955DF4F5881C75AD040C85563
:104AB000DF4F6881C85AD040C655DF4F8881CA5A37
:104AC000D0400E941924CF55DF4F0883C15AD040EF
:104AD000CE55DF4F1882C25AD040CD55DF4F1882D5
:104AE000C35AD0400E9488068160782FCC55DF4F92
:104AF00099838883C45AD040CF55DF4F4881C15A2B
:104B0000D040CE55DF4F5881C25AD040CD55DF4FEF
:104B10006881C35AD040CB55DF4F8881C55AD040F9
:104B200089CF813009F0C0C0662309F45FC0C45644
:104B3000DF4F1882CC59D040C356DF4F8883CD5900
:104B4000D040C256DF4F8883CE59D0400E9488069D
:104B50008160782FC156DF4F99838883CF59D04029
:104B6000C456DF4F4881CC59D040C356DF4F5881DF
:104B7000CD59D040C256DF4F6881CE59D040C05683
:104B8000DF4F8881C05AD0400E941924C956DF4F98
:104B90001882C759D040C856DF4F1883C859D04033
:104BA000C756DF4F1882C959D0400E9488068160DD
:104BB000782FC656DF4F99838883CA59D040C9568B
:104BC000DF4F4881C759D040C856DF4F5881C85978
:104BD000D040C756DF4F6881C959D040C556DF4F16
:104BE0008881CB59D0400E9419242ECF02E0CE56A6
:104BF000DF4F0883C259D040CD56DF4F8883C35959
:104C0000D040CC56DF4F8883C459D0400E948806DC
:104C10008160782FCB56DF4F99838883C559D04068
:104C2000CE56DF4F4881C259D040CD56DF4F588114
:104C3000C359D040CC56DF4F6881C459D040CA56C2
:104C4000DF4F8881C659D0400E941924C357DF4FD7
:104C50000883CD58D040C257DF4F1883CE58D0407C
:104C6000C157DF4F1882CF58D0400E94880681601C
:104C7000782FC057DF4F99838883C059D040C357DE
:104C8000DF4F4881CD58D040C257DF4F5881CE58B2
:104C9000D040C157DF4F6881CF58D040CF56DF4F4B
:104CA0008881C159D0409FCF823009F0ABC06623C4
:104CB00009F45EC0C857DF4F1882C858D040C757A4
:104CC000DF4F8883C958D04081E0C657DF4F8883C3
:104CD000CA58D0400E9488068160782FC557DF4FA0
:104CE00099838883CB58D040C857DF4F4881C85834
:104CF000D040C757DF4F5881C958D040C657DF4F03
:104D00006881CA58D040C457DF4F8881CC58D04002
:104D10000E941924CD57DF4F1882C358D040CC577A
:104D2000DF4F1883C458D040CB57DF4F1882C55887
:104D3000D0400E9488068160782FCA57DF4F998340
:104D40008883C658D040CD57DF4F4881C358D040E4
:104D5000CC57DF4F5881C458D040CB57DF4F6881C4
:104D6000C558D040C957DF4F8881C758D0403BCF86
:104D7000EF968FAFEF97C158DF4F8883CF57D04062
:104D800081E0C058DF4F8883C058D0400E94880619
:104D90008160782FCF57DF4F99838883C158D040E7
:104DA000EF964FADEF97C158DF4F5881CF57D040A6
:104DB000C058DF4F6881C058D040CE57DF4F888140
:104DC000C258D0400E941924EA961FAFEA97EB968A
:104DD0001FAFEB97EC961FAEEC970E9488068160A0
:104DE000782FEE969FAF8EAFEE97EA964FADEA978B
:104DF000EB965FADEB97EC966FADEC97EE968FADC3
:104E0000EE97F1CE833009F081C0662309F43FC0EC
:104E100019E0E5961FAFE597E6961FAEE69781E0AD
:104E2000E7968FAFE7970E9488068160782FE99612
:104E30009FAF8EAFE997E5964FADE597E6965FADEC
:104E4000E697E7966FADE797E9968FADE9970E94F1
:104E50001924E0961FAFE097E1961FAEE197E29626
:104E60001FAEE2970E9488068160782FE4969FAF7C
:104E70008EAFE497E0964FADE097E1965FADE19796
:104E8000E2966FADE297E4968FADE497ACCE1BE06F
:104E9000AB961FAFAB97AC961FAEAC9781E0AD96CB
:104EA0008FAFAD970E9488068160782FAF969FAF35
:104EB0008EAFAF97AB964FADAB97AC965FADAC975F
:104EC000AD966FADAD97AF968FADAF970E94192499
:104ED000A6961FAFA697A7961FAEA797A8961FAE38
:104EE000A8970E9488068160782FAA969FAF8EAF00
:104EF000AA97A6964FADA697A7965FADA797A89637
:104F00006FADA897AA968FADAA976DCE843009F0A1
:104F100081C0662309F43FC009E0A1960FAFA197B5
:104F200011E0A2961FAFA297A3961FAFA3970E946E
:104F300088068160782FA5969FAF8EAFA597A19622
:104F40004FADA197A2965FADA297A3966FADA39721
:104F5000A5968FADA5970E9419246C960FAF6C97FC
:104F60006D961FAF6D976E961FAE6E970E94880666
:104F70008160782FA0969FAF8EAFA0976C964FADB3
:104F80006C976D965FAD6D976E966FAD6E97A096B0
:104F90008FADA09728CE0BE067960FAF679711E013
:104FA00068961FAF689769961FAF69970E94880639
:104FB0008160782F6B969FAF8EAF6B9767964FADE2
:104FC000679768965FAD689769966FAD69976B96BE
:104FD0008FAD6B970E94192462960FAF629763960C
:104FE0001FAF639764961FAE64970E948806816026
:104FF000782F66969FAF8EAF669762964FAD629799
:1050000063965FAD639764966FAD649766968FAD58
:105010006697E9CD853009F07DC0662309F445C067
:1050200039E0F32E2D96FFAE2D9702E02E960FAFAE
:105030002E9711E02F961FAF2F970E948806816050
:10504000782F61969FAF8EAF61972D964FAD2D97BC
:105050002E965FAD2E972F966FAD2F9761968FADE1
:1050600061970E9419242896FFAE289729960FAFC2
:1050700029972A961FAE2A970E9488068160782F6A
:105080002C969FAF8EAF2C9728964FAD28972996D8
:105090005FAD29972A966FAD2A972C968FAD2C97E6
:1050A0000E94192410934402C9CC2BE0F22E2396BF
:1050B000FFAE239702E024960FAF249711E02596C8
:1050C0001FAF25970E9488068160782F27969FAF93
:1050D0008EAF279723964FAD239724965FAD2497E5
:1050E00025966FAD259727968FAD27970E94192497
:1050F000FDAE0EAF1FAE0E9488068160782F22960B
:105100009FAF8EAF22974DAD5EAD6FAD22968FAD46
:105110002297C6CF863009F048C0662329F199E06E
:10512000F92EF8AE03E009AF11E01AAF0E9488062D
:105130008160782F9CAF8BAF48AD59AD6AAD8CAD17
:105140000E941924FBAA0CAB1DAA0E94880681604C
:10515000782F9FAB8EAB4BA95CA96DA98FA90E943C
:105160001924109343026ACC8BE0F82EFEA603E0CC
:105170000FA711E018AB0E9488068160782F9AABC8
:1051800089AB4EA55FA568A98AA90E941924F9A632
:105190000AA71BA60E9488068160782F9DA78CA76E
:1051A00049A55AA56BA58DA5DACF873009F041C076
:1051B0006623F9F013E01CA31DA381E08EA30E94D7
:1051C00088068160782F98A78FA34CA15DA16EA15E
:1051D00088A50E9419241F8F18A319A20E9488066F
:1051E0008160782F9BA38AA34F8D58A169A18BA1C1
:1051F000FACC05E00A8F13E01B8F81E08C8F0E94B0
:1052000088068160782F9E8F8D8F4A8D5B8D6C8D87
:105210008E8D0E9419240D8B1E8B1F8A0E9488067A
:105220008160782F998F888F4D895E896F89898DEC
:10523000DACC883009F008CC662301F106E0088B4F
:1052400013E0198B81E08A8B0E9488068160782F99
:105250009C8B8B8B488959896A898C890E94192477
:105260000B871C871D860E9488068160782F9F8788
:105270008E874B855C856D858F85B5CC08E00E8368
:1052800013E01F8381E088870E9488068160782F61
:105290009A8789874E815F8168858A850E94192453
:1052A00009831A831B820E9488068160782F9D8360
:1052B0008C8349815A816B818D8195CC1F920F928D
:1052C0000FB60F9211242F933F934F935F936F93D9
:1052D0007F938F939F93AF93BF93CF93DF93EF937E
:1052E000FF93D091E900DF708091EC00C82FC1706E
:1052F00080FDC0E81092E9008091F000877F8093E4
:10530000F00078940E9401181092E9008091F0005A
:1053100088608093F000CD2BCF70C093E900FF919F
:10532000EF91DF91CF91BF91AF919F918F917F913D
:105330006F915F914F913F912F910F900FBE0F9002
:105340001F9018951F920F920FB60F9211242F9352
:105350003F934F935F936F937F938F939F93AF93FD
:10536000BF93EF93FF938091E10082FF09C080918A
:10537000E20082FF05C08091E1008B7F8093E10015
:105380008091DA0080FF24C08091D80080FF20C087
:105390008091DA008E7F8093DA008091D90080FFBF
:1053A0009BC088E189BD8AE189BD09B400FEFDCFBB
:1053B00081E08093D2028091AD02811109C00E94E8
:1053C000EC040E94B7058091E20084608093E200C3
:1053D0008091E10080FF17C08091E20080FF13C040
:1053E0008091E2008E7F8093E2008091E2008061F4
:1053F0008093E2008091D80080628093D80019BC2D
:1054000085E08093D2028091E10084FF29C08091E1
:10541000E20084FF25C088E189BD8AE189BD89B5A4
:10542000982F917080FFFBCF8091D8008F7D809363
:10543000D8008091E1008F7E8093E1008091E200AE
:105440008F7E8093E2008091E20081608093E20091
:105450008091D302882309F445C084E08093D2026E
:105460008091E10083FF27C08091E20083FF23C089
:105470008091E100877F8093E10082E08093D202F7
:105480001092D3028091E1008E7F8093E1008091A1
:10549000E2008E7F8093E2008091E2008061809341
:1054A000E20042E060E080E00E9485058091F0002B
:1054B00088608093F000FF91EF91BF91AF919F9131
:1054C0008F917F916F915F914F913F912F910F90AD
:1054D0000FBE0F901F90189519BC1092D202109217
:1054E000AD0276CF8091E30087FD93E09093D202E6
:1054F000B7CF78941F921FB61F9211248F939F935A
:10550000AF93BF938091A4029091A502A091A602AF
:10551000B091A7020196A11DB11D8093A4029093A2
:10552000A502A093A602B093A702BF91AF919F914D
:105530008F911F901FBE1F9018951F921FB61F922C
:1055400011248F939F93AF93BF938091A3028111F6
:1055500013C08091A4029091A502A091A602B091DF
:10556000A7024196A11DB11D8093A4029093A502AC
:10557000A093A602B093A702BF91AF919F918F9184
:105580001F901FBE1F901895CDB7DEB7AA970FB614
:10559000F894DEBF0FBECDBF84B7877F84BF0FB640
:1055A000F894A895809160008861809360001092C3
:1055B00060000FBE80E890E00FB6F8948093610021
:1055C000909361000FBE85B7806885BF85B78068FE
:1055D00085BF8DEB98E09093BF018093BE010E9440
:1055E000EC040E94B7058091E20084608093E200A1
:1055F00078948091D2028823A1F01091E9001F7065
:105600009091EC00892F817090FD80E8182B10920A
:10561000E9008091E80083FD0E9401181F7010933B
:10562000E90082E084BD93E095BD9AEF97BD809339
:105630006E000E94730F811102C00E94A80E80EFBD
:105640000E94BF0881EF0E94BF0882EF0E94BF083E
:1056500083EF0E94BF0803E511E06FE5E62E61E0ED
:10566000F62ED8018D918D018F3F11F00E94BF0859
:10567000E016F106B1F710924B0210924A02109216
:105680007A021092790210924D0210924C021092FE
:105690007C0210927B0210924F0210924E021092E6
:1056A0007E0210927D0210925102109250021092CE
:1056B000800210927F020E94E117811102C00E94B5
:1056C000D01582E090E00E94E031809370020E9449
:1056D0008C0F9093A9028093A8020E943C16EFE3DE
:1056E000FCE93197F1F700C000000E943C16809160
:1056F000790280FF08C06FEF7FEF90E080E00E94AA
:1057000012320E94D10C83E090E00E94E03190E0E0
:105710000E94C60B8091DC029091DD020E94B914B8
:1057200080915202811132C00E94E117811104C0A0
:105730000E94D0150E94C01588E090E00E94E831D8
:1057400060935F037093600380936103909362039F
:105750006E7F71F40E94C01588E090E00E94E831ED
:1057600060935F037093600380936103909362037F
:105770000E94D2061092980280915F0380FF03C0BE
:1057800086950E947B1481E0809352026AE871E062
:1057900056E6852E52E0952E28E731E0E1E8F1E06B
:1057A00041E050E01191812F82958F7090E0DC01F3
:1057B0009196FC9091971F70E12E6A0101C0CC0C6C
:1057C0001A95EAF70C2D00950F2191960C9391975D
:1057D00092961C9192971C2992961C93D901FD9048
:1057E0009D010F2D02950F7010E0D8019196BC908D
:1057F000BF2DBF70FB2E6A0101C0CC0CBA95EAF731
:10580000DC2CD094DB20D8019196DC929197929673
:10581000DC909297DC289296DC92DC0190968C9139
:1058200090E002C095958795EA94E2F78170D801DF
:1058300090960C9110E002C015950795FA94E2F746
:1058400090E000FD92E0892BD4018D934D016E17FD
:105850007F0709F0A7CF86EA92E0909390028093A9
:105860008F0281E20E947B1481E090E00E944C153F
:1058700080E091E09093A00280939F028091D202F9
:10588000FF24F39408E11AE1853009F47CC20E94F8
:105890003C16882359F08FB7F8944091A402509198
:1058A000A5026091A6027091A7028FBFA9E7B2E09E
:1058B000E1E7F2E010E000E0702F8D919D912191E1
:1058C00031912817390709F487C22827392760E062
:1058D000EE24E394F12CA9014E215F21452B09F41C
:1058E00075C269A37AA39C012E213F2191E0232B4D
:1058F00009F490E09BA30E9488068160782F9DA305
:105900008CA349A15AA16BA18DA10E941924000F5B
:10591000111FF801EF58FD4F80819181E826F9268B
:10592000F182E082809198028823D1F180919702E0
:10593000E0915F03E695E81BE0939302823009F063
:1059400062C2F0E0EC53FD4FE4910E2F10E044E210
:10595000E42E43E1F42E80919402882361F01092AA
:1059600094020E9488069093920280939102109272
:105970009602109295020E948806E0919102F091A1
:1059800092028E1B9F0B8F3F9F4750F4E00FF11F39
:10599000F0939202E093910281E992E0F701099578
:1059A0003DE5E32E32E0F32E04E512E04FE6442E0F
:1059B00041E0542E58E7652E51E0752E61E8862EA1
:1059C00061E0962E76E6A72E72E0B72E212C312CC0
:1059D000D501ED915D01EE0FEE0FD4012D914D013A
:1059E000A22FA295AF70B0E090968C9190E02F70AE
:1059F00002C0959587952A95E2F781709927D30182
:105A00004D913D01A42FA295AF70B0E090962C91DE
:105A100030E04F7002C0359527954A95E2F7A9010D
:105A20004170552720FF02C042E050E0842BE82B54
:105A3000D5011197EC93D201CD902D01EF70F0E0DC
:105A4000E15AFE4F8081F7019081890F8083D12C2C
:105A5000082E000C990B20E08C159D054CF0D80108
:105A60008C918F5F8C9360E0832D0E94A92421E0AC
:105A7000F7018081082E000C990B442755274C19FB
:105A80005D09481759074CF0D8018C9181508C93CF
:105A900061E0832D0E94A92421E0F7018081082E76
:105AA000000C990BB6010E948131D7018D937D01C5
:105AB000222A33940F5F1F4FB9E03B1289CF222077
:105AC00059F08FB7F8944091A4025091A5026091CB
:105AD000A6027091A7028FBF86E0E8E8F2E0DE013F
