:100000000C94A3040C94EA040C94EA040C94EA04FF
:100010000C94EA040C94EA040C94EA040C94EA04A8
:100020000C94EA040C94EA040C9443250C94FF24E9
:100030000C943E260C94EA040C94EA040C94EA0412
:100040000C94EA040C94EA040C94EA040C94EA0478
:100050000C94EA040C941A260C94EA040C94EA0416
:100060000C94EA040C94EA040C94EA040C94EA0458
:100070000C94EA040C94EA040C94EA040C94EA0448
:100080000C94EA040C94EA040C94EA040C94EA0438
:100090000C94EA040C94EA0406022B64A0FF00000E
:1000A000000008022B6496FF0000000004022B648D
:1000B000A0FF000000000412D7FF78FF000000003E
:1000C000041280FF64FF0000000004121EFF78FF8E
:1000D0000000000004125FFF5AFF0000000005014D
:1000E0000902A10185020901A100050919012908D8
:1000F00015002501950875018102050109300931B6
:100100001581257F95027508810609381581257F9F
:10011000950175088106050C0A38021581257F9521
:100120000175088106C0C005010980A10185031978
:10013000012AB700150126B700950175108100C08E
:10014000050C0901A101850419012AA00215012647
:10015000A002950175108100C005010906A1018565
:1001600005050719E029E7150025019508750181A6
:10017000020507190029EF1500250195F075018189
:10018000020508190129059505750191029501756A
:10019000039101C00660FF0961A1010962150026F3
:1001A000FF009520750881020963150026FF009560
:1001B0002075089102C005010906A101050719E093
:1001C00029E715002501950875018102950175083B
:1001D00081010507190029FF150026FF0095067506
:1001E00008810005081901290595057501910295F9
:1001F0000175039101C00000000000000000000034
:1002000000000000000000000000000000000000EE
:10021000000000000000000000007E0F00D4FFFF7F
:10022000FFC70000007800000000000000002A2B3B
:100230002800000000000000000000000000000096
:100240000029000000002C1E3420212224342627FF
:10025000252E362D3738271E1F2021222324252620
:100260003333362E37381F0405060708090A0B0CEE
:100270000D0E0F101112131415161718191A1B1C36
:100280001D2F3130232D350405060708090A0B0CF4
:100290000D0E0F101112131415161718191A1B1C16
:1002A0001D2F3130354CD400CA00C000B600AC0060
:1002B000A2009800000000047F3F1F6432146432E3
:1002C00014783C1E1E140A05000101010101010100
:1002D00001010202020202020202020303030303FB
:1002E00003030304040404040404050505050506CA
:1002F0000606060607070707070808080809090988
:10030000090A0A0A0B0B0B0C0C0C0D0D0D0E0E0E30
:100310000F0F0F10101111111212131314141515C1
:1003200016161717181819191A1A1B1B1C1D1D1E33
:100330001E1F202021222223242425262627282987
:10034000292A2B2C2D2D2E2F3031323233343536B5
:100350003738393A3B3C3D3E3F40414243444546B5
:100360004748494A4C4D4E4F505153545556585991
:100370005A5B5D5E5F616264656668696B6C6D6F38
:100380007072737577787A7B7D7E808283858788AB
:100390008A8C8E8F91939596989A9C9EA0A2A3A5E5
:1003A000A7A9ABADAFB1B3B5B7BABCBEC0C2C4C6E6
:1003B000C9CBCDCFD1D4D6D8DBDDDFE2E4E7E9EBA2
:1003C000EEF0F3F5F8FAFDFFFFAA7F5540090807A4
:1003D0000605040F0E0D0C0B0A1514131211100351
:1003E000000102191617181D1A1B1C25242322218F
:1003F000201E292827262223252628292A2C2D2F8E
:100400003032333536383A3B3D3E4042434547492A
:100410004A4C4E5051535557595A5C5E606264665F
:1004200068696B6D6F71737577797B7D7F8183856B
:1004300087898A8C8E90929496989A9C9E9FA1A36D
:10044000A5A7A8AAACAEAFB1B3B4B6B8B9BBBCBE91
:10045000BFC1C2C3C5C6C7C9CACBCCCDCED0D1D20D
:10046000D2D3D4D5D6D7D7D8D9D9DADADBDBDBDC0F
:10047000DCDCDCDCDDDDDDDDDCDCDCDCDCDBDBDBBB
:10048000DADAD9D9D8D7D7D6D5D4D3D2D2D1D0CE1B
:10049000CDCCCBCAC9C7C6C5C3C2C1BFBEBCBBB920
:1004A000B8B6B4B3B1AFAEACAAA8A7A5A3A19F9E9E
:1004B0009C9A98969492908E8C8A89878583817F66
:1004C0007D7B79777573716F6D6B69686664626047
:1004D0005E5C5A5957555351504E4C4A4947454313
:1004E00042403E3D3B3A3836353332302F2D2C2AB0
:1004F00029282625232250007F004F00115012503A
:1005000013505F0060006100CA5C2C00C95CC45CD1
:10051000C25CC35C3900470053005C005D005E00B4
:10052000C65C3D04C55C815FAD00805FB900845F3F
:10053000620059005A005B00F9001A01FA0000003D
:10054000000000002B034A002B0156017F005701D9
:100550002B0317012B0101000100010010500100C5
:100560000100010001000100010001000100010083
:100570000100010001000100010001000100010073
:100580000100010001000100010001000100010063
:100590000100010001000100010001000100000054
:1005A0000000000001000100010001000100010045
:1005B00001000100010001000100010010500100D4
:1005C0000100010001000100010001000100010023
:1005D0000100010001000100010001000100010013
:1005E0000100010001000100010001000100010003
:1005F00001000100010001000100010001000000F4
:1006000000000000010001000100010001000100E4
:100610000100010001000100010001001050010073
:1006200001000100010001000100010001000100C2
:1006300001000100010001000100010001000100B2
:1006400001000100010001000100010001000100A2
:100650000100010001000100010001000100000093
:100660000000000001000100010001000100010084
:100670000100010001000100010001000100010072
:100680000100010001000100010001000100010062
:100690000100010001000100010001000100010052
:1006A0000100010001000100010001000100010042
:1006B0000100010001000100010001000100000033
:1006C0000000000001000100010001000100010024
:1006D0000100010001000100010001000100010012
:1006E0000100010001000100010001000100010002
:1006F00001000100010001000100010001000100F2
:1007000001000100010001000100010001000100E1
:1007100001000100010001000100010001000000D2
:1007200000000000010001000100010001000100C3
:1007300001000100010001000100010001000100B1
:1007400001000100010001000100010001000100A1
:100750000100010001000100010001000100010091
:100760000100010001000100010001000100010081
:100770000100010001000100010001000100000072
:100780000000000001000100010001000100010063
:100790000100010001000100010001000100010051
:1007A0000100010001000100010001000100010041
:1007B0000100010001000100010001000100010031
:1007C0000100010001000100010001000100010021
:1007D0000100010001000100010001000100000012
:1007E0000000000001000100010001000100010003
:1007F00001000100010001000100010001000100F1
:1008000001000100010001000100010001000100E0
:1008100001000100010001000100010001000100D0
:1008200001000100010001000100010001000100C0
:1008300001000100010001000100010001000000B1
:1008400000000000010001000100010001000100A2
:100850000100010001000100010001000100010090
:100860000100010001000100010001000100010080
:100870000100010001000100010001000100010070
:100880000100010001000100010001000100010060
:100890000100010001000100010001000100000051
:1008A0000000000001000100010001000100010042
:1008B00001000100010009025B00030100A0FA0928
:1008C000040000010301010009211101000122407F
:1008D000000705810308000A090401000203000063
:1008E00000092111010001222200070582032000D6
:1008F00001070503032000010904020001030000B1
:100900000009211101000122B6000705840320001F
:100910000A12010002000000084B41090001000119
:100920000200010803410039006500000012034184
:100930000074006C0061006E0074006900730000B8
:1009400000040309040011241FBECFEFD0E1DEBF75
:10095000CDBF04B603FE27C080919103909192030E
:10096000A0919303B09194038730904BA740B04B74
:10097000D1F410929103109292031092930310926B
:10098000940314BE84B7877F84BF0FB6F894A895EC
:1009900080916000886180936000109260000FBEBB
:1009A000E0E0F8E7099523E0A2EEB1E001C01D9276
:1009B000A139B207E1F711E0A0E0B1E0E0E0FDE528
:1009C00002C005900D92A23EB107D9F70E9465269C
:1009D0000C94472E0C940000E8EDF0E080818C7FB1
:1009E00080831092E2001092DA001092E100A0EEF3
:1009F000B0E08C9181608C9380818F77808319BC6B
:100A0000A7EDB0E08C918E7F8C9380818F7E808368
:100A10001092DA0208952091E4003091E50095E605
:100A2000A9012091EC00822F817020FF06C08091E7
:100A3000E80080FF06C080E008952091E80022FDD4
:100A40001AC08091FF02882389F0853089F0809157
:100A5000EB0085FD0FC02091E4003091E5004217C6
:100A60005307F9F29150E1F684E0089582E0089589
:100A700083E0089581E00895EF92FF920F931F9312
:100A8000CF937C018B010E940B05C82F811117C0E9
:100A90008091E80085FD0BC08091E8008E778093FF
:100AA000E8000E940B05882399F3C82F08C0F701BE
:100AB00081917F018093F1000150110949F78C2F3A
:100AC000CF911F910F91FF90EF90089580910103B6
:100AD00087FF13C08091E80082FF06C08091E80084
:100AE0008B778093E80004C08091FF028111F2CFE0
:100AF00008958091FF028823D9F38091E80080FF58
:100B0000F8CF8091E8008E77ECCF982F9093E90092
:100B1000242F762F50E0891731F07091EC0020914E
:100B2000ED005091F00021FD07C09F5F973071F7F5
:100B30008093E90081E008953091EB003E7F30938F
:100B4000EB003091ED003D7F3093ED003091EB00F4
:100B500031603093EB007093EC002093ED005093E4
:100B6000F0002091EE0027FDE0CF80E00895CF92C5
:100B7000DF92EF92FF920F931F93CF93DF93C8ED15
:100B8000D0E088818F7E8883E7EDF0E0808181600E
:100B9000808381E08093DA0288818C7F888302EEF3
:100BA00010E0D8011C921092DA0081EEC82ED12CF0
:100BB000D6011C9288818F7788838881806888839A
:100BC00088818F7D888380818068808319BC1092A2
:100BD000FF02109200031092FE021092FD0290EEAE
:100BE000E92EF12CF70180818B7F808388818160E1
:100BF000888342E060E080E00E948505D6018C9108
:100C00008E7F8C93F80180818160808380818860F1
:100C10008083D7018C918E7F8C93888180618883BB
:100C2000DF91CF911F910F91FF90EF90DF90CF90C8
:100C30000895FC0180910703909108038617970798
:100C4000A0F06115710529F49091E8009E779093CA
:100C5000E80090E06115710551F4911108C0809190
:100C6000E80082FF33C080E00895BC01F2CF80919C
:100C7000FF028823B9F18530B9F18091E80083FD46
:100C80002FC08091E80082FDEACF8091E80080FFCC
:100C9000E1CF2091F2003091F3006115710519F058
:100CA0002830310558F091E02830310509F090E006
:100CB0002091E8002E772093E800CCCF819180939B
:100CC000F100615071092F5F3F4FE7CF8091FF0224
:100CD000882341F0853041F08091E80083FFBFCF49
:100CE00081E0089582E0089583E008958091DC0218
:100CF00008959C014FB7F8948091D1029091D2024F
:100D0000A091D302B091D4024FBF821B930B0895E0
:100D10002FB7F8948091D1029091D202A091D30282
:100D2000B091D4022FBF08952091CE023091CF020E
:100D30002817390771F09093CF028093CE02E0918B
:100D4000CC02F091CD02309721F00084F185E02DA6
:100D5000099408952091CA023091CB0228173907CF
:100D600071F09093CB028093CA02E091CC02F09193
:100D7000CD02309721F00680F781E02D0994089587
:100D8000E091CC02F091CD02309721F00190F081FA
:100D9000E02D099480E00895FA01811101C0FB0162
:100DA0000994089580918903982F9E7F61F4817042
:100DB00082608093890380918C03853B18F084EBDB
:100DC00080938C0308958A34B0F381708864F1CFE6
:100DD000AF92BF92DF92EF92FF920F931F93CF9348
:100DE000DF93182F062FE901453B08F044EBE42F71
:100DF000F0E0E853FD4F011110C0E4915E2F4E2F3B
:100E00004983E8835A83DF91CF911F910F91FF901F
:100E1000EF90DF90BF90AF900895202F30E0449185
:100E2000D42EE42EF12C56E0159FC0011124EFEFD3
:100E3000F0E0BF010E94482D812F90E0880F991F9C
:100E400055E5569FD001579FB00D11248A1B9B0B6F
:100E5000982F990F890F5F01A21AB30AAE9CD00197
:100E6000AF9CB00DBE9CB00D11245B2F089F80017C
:100E70001124012F11275F01A01AB10AAE9C800135
:100E8000AF9C100DBE9C100D11245F01A81AB10873
:100E9000A29EC001A39E900DB29E900D1124892F99
:100EA0009927E81BF90BEE9DC001EF9D900DFE9D6B
:100EB000900D1124E92F62307105A1F050F46115F5
:100EC000710509F49DCF6130710581F0EB2F512F31
:100ED00097CF6430710569F080F06630710509F4D0
:100EE0008FCFF4CFE42F4B2F592F8ACFE42F412FF0
:100EF00087CFEB2F542F492F83CF4B2F5D2DE12F21
:100F00007FCF0E9488069C019091B7028091B80221
:100F1000982B21F03093B4022093B3029091B90240
:100F20008091BA02982B21F03093B2022093B10243
:100F3000E091CC02F091CD02309749F082E08093AD
:100F4000B5020480F581E02D85EB92E009940895C7
:100F50004091B702803F59F48091B80287FF0DC0DD
:100F60001092B80241110BC01092AF0208C0813F2D
:100F700081F48091B80218169CF3442381F080918B
:100F8000B9029091BA02892B09F05AC01092AE02B0
:100F90000895823F49F447FFF0CF1092B702809145
:100FA000B8028111ECCFE0CF833F19F41416ACF3F3
:100FB000E4CF9091B902893F29F41916F4F6109202
:100FC000B902DBCF8A3F19F497FFD7CFF8CF9091C2
:100FD000BA028B3F29F497FFD0CF1092BA02CDCF3F
:100FE0008C3F19F41916CCF3C8CF9CE0980F9530BC
:100FF00090F4845F990B21E030E0B90102C0660FE4
:10100000771F8A95E2F7CB0180959091B6028923EC
:101010008093B602B2CF8D3F31F48091B0028E7FC3
:101020008093B002AACF8E3F21F48091B0028D7FD1
:10103000F7CF8F3F09F0A1CF8091B0028B7FF0CF27
:1010400008958091B00280FD16C081FD16C082FD1A
:1010500016C08091AE028823A1F0883280F428E087
:10106000829FC001112468E270E00E945C2D862FEF
:10107000672B39F0089582E0089584E0089588E0B0
:10108000089581E008958091B00280FD14C081FD33
:1010900014C082FD16C08091AF02882381F0843194
:1010A00080F422E3829FC001112464E170E00E9479
:1010B0005C2D862F08958CE0089589E1089585E0E0
:1010C000089582E30895803F31F40E94430881959A
:1010D0008093B8020895813F19F40E944308F8CF25
:1010E000823F31F40E94430881958093B7020895AE
:1010F000833F19F40E944308F8CF893F29F40E94E6
:1011000021088093B90208958A3F21F40E942108A2
:101110008195F7CF8B3F31F40E9421088195809310
:10112000BA0208958C3F19F40E942108F8CF9CE080
:10113000980F953070F4845F990B21E030E001C086
:10114000220F8A95EAF78091B602822B8093B6022D
:1011500008958D3F31F48091B00281608093B00298
:1011600008958E3F21F48091B0028260F7CF8F3FC7
:10117000B9F78091B0028460F1CF80E00895F894CF
:10118000E82FE295EF70F0E031A1282F2F7081E079
:1011900090E001C0880F2A95EAF7982F9095932345
:1011A00091A392A1892B82A3789408959091D5025E
:1011B00092FF06C0282F28712830F9F4877F8460B9
:1011C00093FF06C0282F28712831F1F4877E8461AF
:1011D0002091D60220FF06C0382F38713830D9F45C
:1011E000877F816021FF06C0282F28712831D1F424
:1011F000877E816194FD877E0895282F2471243095
:10120000F9F68B7F8860DCCF282F2471243101F719
:101210008B7E8861DDCF382F3171313019F78E7FA9
:101220008860E0CF282F2171213121F78E7E8861DF
:10123000E1CFCF93DF93EC0182389105A9F1D8F586
:101240008133910509F496C048F58932910509F476
:101250008AC08A9709F495C0C11521E5D20708F024
:10126000BCC0C11530E5D30708F014C1C83ED10594
:1012700008F09CC0C03ED10560F5C83AD10508F021
:1012800087C0C53AD10508F0FDC0C130D10509F1CC
:101290002097F9F0C430D105E0F440C085339105C2
:1012A00009F45AC0C997C1F68091D502837089F0BC
:1012B000C0EED0E00EC0833E910599F170F4803EFF
:1012C000910501F1823E910539F68091D50282FDAA
:1012D00021C0CE01DF91CF910895863E910561F145
:1012E000873E910571F1843E910509F0B5CF80915B
:1012F000D60281FFEECF8091D502C7EED0E084FD0B
:101300000DC0E7CF8091D50280FD12C19091D60229
:1013100090FFDFCFC3EED0E084FFDBCFD0E0C0E0B2
:10132000D8CF8091D50282FD06C19091D60290FD62
:10133000BFCF84FFCECFF2CF8091D50283FDDDCF2A
:10134000C8CF8091D50283FDF9C09091D60291FF5C
:10135000F0CFC4EED0E0BDCF8091D50285FFB9CFEC
:10136000C9E2D0E0B6CF8091D50285FFB2CFC5E308
:10137000D0E0AFCF8091D50286FFABCFCAE2D0E0FC
:10138000A8CF8091D50286FFA4CFC1E3D0E0A1CF42
:10139000CF3BD10518F6C85AD0E0CC0FDD1FCF5D8A
:1013A000DE4F0990D881C02DD46493CFC11540E29F
:1013B000D40758F4C11581E0D80708F08ACFC03FA0
:1013C000D10508F4ABCFD06584CFC11590E4D9071F
:1013D00008F4A4CFDF70D06A7CCFC11525E5D20711
:1013E00000F5C11534E5D30708F08AC0C11543E5FF
:1013F000D40708F071C0C11582E5D80708F467C0AA
:10140000CE018370992721E030E002C0220F331F04
:101410008A95E2F7C695C69580E2C89FE00111243F
:1014200052C0C11599E5D907A8F4C11528E5D2071E
:1014300008F06BC0C11536E5D30708F06FCF8C2FCD
:101440000E94D608C82FD0E0DC2FCC27CC27DF7134
:10145000D0623FCFC1154AE5D40708F45BC0CE0186
:1014600090568115904208F059CF8D2F8F710E94B0
:10147000D60890E0982F882788279F719C012C2BF5
:10148000E901E6CFC55AD0E0C25EDE4FC881D0E0A8
:10149000D0641FCFCE01E4E096958795EA95E1F7F9
:1014A00083702C2F26952695237040E2249F90016F
:1014B0001124382B8C2F8370C1E0D0E002C0CC0FF8
:1014C000DD1F8A95E2F7C22BD32BDC6802CFDC2F1D
:1014D000CC27C16FD06AFDCECE018370992721E061
:1014E00030E002C0220F331F8A95E2F7C695C695F9
:1014F00090E2C99FE0011124C22BD32BDA68E9CE18
:10150000DC2FCC27C46FD06AE4CEDC2FCC27C06F91
:10151000D06ADFCE8C2F8F700E94D60834E0D6952B
:10152000C7953A95E1F7CF709C2FEC01D069D1CEE9
:10153000C9E3D0E0CECEC2EED0E0CBCEC6EED0E056
:10154000C8CE80915902811110925902089580915C
:10155000580290915702892B90915602892B8093C3
:10156000E401909159029923A1F0892B8093E40121
:1015700080911D01882341F18091D50287FF24C00D
:101580008EE1E6EEF1E090E0815000F591110E94CD
:10159000A10AE091CC02F091CD023097E1F0809168
:1015A0001D01882359F08091D50287FF07C08091E3
:1015B000E4018093E50185E08093E4010280F381FA
:1015C000E02D84EE91E0099486E0DBCF2191222387
:1015D000D9F29F5FD9CF089590911D019923D1F041
:1015E0009091D50297FF16C0E82FE695E695E6950F
:1015F000EE31E0F4F0E0EC51FE4F282F277081E04F
:1016000090E001C0880F2A95EAF78095928189239E
:1016100082830895E6EEF1E09191891303C0DF0122
:1016200011971C9291E0EC3EF907B1F70895909163
:101630001D019923C1F09091D50297FF14C0E82FA6
:10164000E695E695E695EE31F8F4F0E0EC51FE4FC4
:10165000877021E030E001C0220F8A95EAF782818D
:10166000822B82830895A6EEB1E0EFEF90E02D91FA
:10167000821751F0EF3F19F4211101C0E92F9F5F4C
:101680009630A9F7EF3F09F408950E2E000CFF0BDA
:10169000EC51FE4FE6CF80915402909123029813B3
:1016A00001C008958F5F8770FACF2CE0929F800D64
:1016B0001124982F977086958695869524E0829FB1
:1016C000F0011124EB5FFD4F50E040E080E02191FC
:1016D00030E0092E02C0369527950A94E2F7217072
:1016E0003327042E01C0220F0A94EAF7822B4F5FA2
:1016F0005F4F4430510559F708952CE0929F800DBB
:101700001124982F977041E001C0440F9A95EAF791
:1017100086958695869594E0899FF0011124EB5F6C
:10172000FD4F90E080E070E05191DF0111979B0147
:10173000082E02C0369527950A94E2F7217021956C
:101740002527242325272C9301968430910561F7C2
:10175000089590E080E00E94AA0690E080E00E9458
:10176000940610925702109256020E94A70A86E031
:10177000E5EBF2E0DF011D928A95E9F71092AF02E6
:101780001092AE021092B0020C94810790935B020B
:1017900080935A020C94A90B882341F08095909174
:1017A00058028923809358020C94A70A089588232D
:1017B00039F090915802982B909358020C94A70AF4
:1017C0000895882309F459C0823871F40E94C00634
:1017D00081FF53C089E30E94170B0E94A70A89E387
:1017E0000E94EC0A0C94A70A833859F40E94C006A0
:1017F00080FF43C083E50E94170B0E94A70A83E580
:10180000EFCF843859F40E94C00682FF36C087E4C7
:101810000E94170B0E94A70A87E4E2CF9CEF980F63
:10182000913AF0F290E2980F983088F4877021E0B6
:1018300030E0A90102C0440F551F8A95E2F7CA01A2
:10184000809590915802892380935802CBCF9BE5D5
:10185000980F933020F490E080E00C94AA0698E56D
:10186000980F973120F490E080E00C949406803F2C
:1018700020F00E94A8070C94810708959091FF0220
:10188000943029F58093D7027093D9026093D802DF
:101890009093E9008FEF9091E800815095FD06C08C
:1018A00095ED9A95F1F700008111F5CF8091E80050
:1018B00085FF0DC050E040E063E070E087ED92E00E
:1018C0000E943C058091E8008E778093E80008959F
:1018D000BC0184E00C943E0CBC0183E00C943E0CF3
:1018E0009C0184E08093E9009FEF8091E800915093
:1018F00085FD06C085ED8A95F1F700009111F5CFC1
:101900008091E80085FF0CC050E040E066E070E0A8
:10191000C9010E943C058091E8008E778093E80021
:101920000895CF93DF93EC0180911D018823B1F1DD
:101930008091D50287FF32C060E284E08093E900A5
:101940008FEF9091E800815095FD06C095ED9A9536
:10195000F1F700008111F5CF8091E80085FF1BC0F1
:1019600080911D0170E050E040E0811104C050E022
:1019700040E068E070E0CE010E943C058091E80004
:101980008E778093E80080E2FE01ADEDB2E0019039
:101990000D928A95E1F7DF91CF91089568E081E09B
:1019A000CDCF81E08093E00080E28093D800109258
:1019B000C9008FE19EE40197F1F700C0000087E0C5
:1019C00090EBDC018093910390939203A093930397
:1019D000B093940388E19CE00FB6F894A8958093A7
:1019E00060000FBE90936000FFCFCF93C82F882375
:1019F00009F4AEC08238C1F40E94C00681FDA8C0BF
:101A000089E30E94170B0E94A70A2FEF81EE94E052
:101A1000215080409040E1F700C0000089E30E941F
:101A2000EC0ACF910C94A70A8338A1F40E94C00657
:101A300080FD8EC083E50E94170B0E94A70A2FEF3E
:101A400081EE94E0215080409040E1F700C000001A
:101A500083E5E5CF8438A1F40E94C00682FD78C0FA
:101A600087E40E94170B0E94A70A2FEF81EE94E0F3
:101A7000215080409040E1F700C0000087E4CFCFC4
:101A80008CEF8C0F813A88F580911D01882301F13C
:101A90008091D50287FF1CC0EC2FE695E695E69570
:101AA000F0E0EC51FE4F828190E04C2F477021E036
:101AB00030E002C0220F331F4A95E2F782239323BE
:101AC000892B79F08C2F0E94EC0A0E94A70A09C08A
:101AD000E6EEF1E08191C817A9F321E0EC3EF207B0
:101AE000C9F78C2F0E94170B9CCF80E28C0F883097
:101AF00068F4C77021E030E001C0220FCA95EAF710
:101B000080915802822B809358028BCFEBE5EC0F2B
:101B1000E33040F4F0E0E25EFE4F808190E0CF9150
:101B20000C94AA06E8E5EC0FE73150F4F0E0EE0F74
:101B3000FF1FEF5DFE4F80819181CF910C94940641
:101B4000C03F30F08C2F0E946308CF910C94810726
:101B5000CF9108951F93CF93DF93182FD0E0C0E06B
:101B6000893311F4C0E5D0E0812F0E94F50C209755
:101B700031F4812FDF91CF911F910C94E10B8FE90C
:101B80009FE00197F1F700C000002197F0CF0F937D
:101B90001F93CF93DF93C62FD42F022FFC01828196
:101BA0008823A1F0609390030E94880690938F038E
:101BB00080938E03C77081E001C0880FCA95EAF751
:101BC000DF91CF911F910F910C94D70B80919003CF
:101BD000681335C080918E0390918F030E9479061F
:101BE000883C910560F510E21D0FCD17B9F080E239
:101BF0008C0F883040F4C77081E001C0880FCA950F
:101C0000EAF70E94CC0B183048F481E09D2F9770C2
:101C100001C0880F9A95EAF70E94D70B802F0E9487
:101C2000AA0D183098F4D77081E001C0880FDA95BA
:101C3000EAF7DF91CF911F910F910C94CC0BC770F5
:101C400081E001C0880FCA95EAF7F3CFDF91CF9109
:101C50001F910F910895CF93DF93C7EED3E060E01B
:101C6000CE010E94CF2D2196C11588E0D807B9F783
:101C7000DF91CF9108956F927F928F929F92AF9252
:101C8000BF92CF92DF92EF92FF920F931F93CF9369
:101C9000DF9386EFC82E84E0D82E9FE9E92EF12C41
:101CA000E701C056D10936011BC0F501859094901B
:101CB000692DC8010E94CF2D682DC80101960E9490
:101CC000CF2D82E0A80EB11C0E5F1F4FC017D107A9
:101CD00061F788E1680E711C6896CE15DF0529F062
:101CE0008E01085111095301E0CF7E0180E6E80E14
:101CF000F11C80E6C80ED11C8FE5E81684E0F806DA
:101D000079F6DF91CF911F910F91FF90EF90DF90C7
:101D1000CF90BF90AF909F908F907F906F900895DD
:101D2000CF93C82F6FEF811161E283E290E00E94B0
:101D3000CF2D6FEFC11161E184E290E00E94CF2DC1
:101D40006FEFC11167E085E290E0CF910C94CF2D49
:101D500080E00E94900E60E086E290E00E94CF2D2D
:101D60000E943B0E0E942B0E81E00C94900ECF93AC
:101D7000C091D602C2FB992790F9981781F080FB99
:101D8000C2F9C093D6026091D50284E090E00E942F
:101D9000CF2D6C2F82E290E0CF910C94CF2DCF917C
:101DA00008950F931F93CF93DF93C42FD0E0CC0FF0
:101DB000DD1F28E1629FC00DD11D112430E6839FF5
:101DC000C00DD11D1124CE0187960E94BB2D082F76
:101DD00010E0102F0027CE0188960E94BB2D98019D
:101DE000282BC901DF91CF911F910F910895462FA4
:101DF0008A3038F4743028F46C3018F4672F0C945F
:101E0000D10E90E080E00895BF92CF92DF92EF92E2
:101E1000FF920F931F93CF93DF937C0100910903EF
:101E200010910A0380915A0290915B02082B192BA2
:101E3000CFE0D0E0CC24C394D12CBC2EC6010C2E14
:101E400002C0880F991F0A94E2F780239123892BFF
:101E500071F4219790F7B12C8B2DDF91CF911F91C9
:101E60000F91FF90EF90DF90CF90BF900895B70152
:101E70008C2F0E94F70E0E941909019751F3ECCFA5
:101E8000CF93DF93EC010E94040FBE010E94F70E76
:101E9000DF91CF910C941909FC01808191810E94FE
:101EA000400F292F2F7092959F7092509E3078F49A
:101EB000E92FF0E0E75BF14D0C94702D803F19F0B5
:101EC00020F4883E20F481E00895843FE1F380E02F
:101ED0000895883EC0F3813FD1F7F5CF822F8695D4
:101EE00086958695089583E290E00E94BB2D81320D
:101EF00089F484E290E00E94BB2D813159F485E29F
:101F000090E00E94BB2D91E0873009F090E0892F8E
:101F10008170089580E0FCCFCF9384E090E00E9430
:101F2000BB2DC82F82E290E00E94BB2D982F8C2FF2
:101F3000CF91089560918903669570E04BE050E081
:101F40008AE091E00E94A12D892B19F481E0809311
:101F5000C5020E9488069093BF028093BE02089536
:101F60004F925F926F927F928F929F92AF92BF92A9
:101F7000CF92DF92EF92FF920F931F93CF93DF9355
:101F8000CDB7DEB7CE57D1090FB6F894DEBF0FBE7E
:101F9000CDBF509019018091890380FF5DC0809072
:101FA000BC029090BD028114910409F068C0EDEC70
:101FB000F3E09E012F5F3F4FBE0161587F4FC90183
:101FC000A4914A2F50E0DA01AA0FBB1FA40FB51F3E
:101FD000A55FBC4FCD90DD90EC90D901CD92DD9204
:101FE000ED929D0131966A177B0751F720911801F8
:101FF00043E0249F800D911D11246E9A2EB12F7BFA
:102000003EB130645FB7F894BC01549E600D711D01
:1020100011248617970709F08DC05FBF8FE594E004
:102020000197F1F700C00000C258DF4F0FB6F894D7
:10203000DEBF0FBECDBFDF91CF911F910F91FF90FB
:10204000EF90DF90CF90BF90AF909F908F907F9058
:102050006F905F904F90089580911A0190911B01AD
:1020600023E0829FF0011124E55FFC4F891708F0FF
:1020700096CF1182108212828F5F3396F7CF8091B4
:10208000BB02811194CFD12CC12C66246394712C96
:1020900053E0452E8091C60293010C2C01C0220F03
:1020A0000A94EAF7822309F43CC0F601EE0FFF1F01
:1020B000E80DF91DE590F490E114F10409F477CFEF
:1020C00045E050E0B701CE0101960E94982D0981AC
:1020D0000F3F39F18A81800F9927991F8B32910523
:1020E00014F08AE290E05C01AA0CBB1C8A0D9B1DD7
:1020F000DC01A55FBC4F5D01049D80011124055FDB
:102100001C4F0A151B0520F0B5E0EB0EF11CD8CFD3
:1021100098014D816C818B810E94E8060D5F1F4FF5
:10212000F0CFEFEFCE1ADE0AF8E0CF16D10409F0B7
:10213000B1CF3DCFFC014191CF01E8E03EB90000B5
:1021400000C047FF2EB9440F000000C000C000C00F
:102150002EB900C0EA9591F75CCFCF93DF9300D002
:102160000F92CDB7DEB78091890380FF13C09E0127
:102170002F5F3F4F44E666EE80E00E94E8068B81C9
:1021800099812A812093840390938303809385030C
:102190000E94B00F0F900F900F90DF91CF91089594
:1021A0000F931F93CF93DF93EC0110E000E0909129
:1021B0001C019017110609F06CF40E94B00F8C817D
:1021C00090E00196817099278C83DF91CF911F91C8
:1021D0000F91089520911A01A801420F511D9A01F3
:1021E000220F331F240F351F255F3C4F4C81609118
:1021F0008B0380918A0396959017110651F04CF04D
:10220000442349F040918C030E94E8060F5F1F4F62
:10221000CECF4423B9F340E0F7CF8F929F92AF9295
:10222000BF92CF92DF92EF92FF920F931F93CF93C3
:10223000DF93EC014C81042F10E09801D8010E943B
:10224000382E9B01AC010E94032E4B015C01E0E2A1
:10225000F0E0E01BF10BA5E5B0E0AC019B010E94B2
:10226000032E6B017C019F01DF010E947D2D9B01EC
:10227000AC010E940E2E9B01AC01280D391D4A1D98
:102280005B1DC701B6010E94162EF22E822F90E030
:1022900039E23F1560F143E0249F90011124359508
:1022A0002795122F109500E085E5E82EEF18809114
:1022B0001C01081758F10E94B00F9C8181E09923FE
:1022C00019F0903219F48FEF809317018091170164
:1022D000890F8C83DF91CF911F910F91FF90EF9029
:1022E000DF90CF90BF90AF909F908F90089525E59D
:1022F00030E0B901681B790B9B01220F331F260FB9
:10230000371F37FFCCCF2F5F3F4FC9CF8E2D01FD39
:102310008F2D20911A01622F600F7727771F9B0165
:10232000220F331F260F371F255F3C4F412F60912F
:102330008B030E94E8060F5FBACF0F931F93CF93D2
:10234000DF9380911A0190911B0123E0829FF0019D
:102350001124E55FFC4F891740F1C0E0D3E06091A4
:102360001C01C61740F10E94B00F20911501809109
:10237000C802820F8093C80290911601920F909329
:102380001601191654F4082E000C990B40911C01EB
:102390004150550B841795071CF02195209315018A
:1023A000DF91CF911F910F910895118210821282B7
:1023B0008F5F3396D0CF0C2F10E070E0C8010E94E1
:1023C0005C2D20911A01820F482F50E02091C80205
:1023D000022E000C330B02171307BCF020911601DC
:1023E000022E000C330B201731077CF08D9F9001DB
:1023F0001124255F3C4F40918C0360918B038091A9
:102400008A030E94E806CF5FAACFFA01EE0FFF1FF2
:10241000E40FF51FE55FFC4F118210821282F3CFAB
:102420001F93CF93DF93FC018281DFEF80FFD1E028
:10243000C0E01AE290911C01C91788F00E94B00F09
:102440008091C702D130C9F5811102C080911C0171
:1024500081508093C702DF91CF911F910895E09141
:102460001A014C2F50E09A012E0F311DF901EE0F89
:10247000FF1FE20FF31FE55FFC4F118210821282F3
:102480008091C7028B32ACF0612F0E943A2D892FC8
:10249000082E000C990B4817590749F49F014091E9
:1024A0008C0360918B0380918A030E94E806CF5FC2
:1024B000C1CF87FFEDCF890FEBCF90E00196609100
:1024C0001C0170E00E945C2DC4CFEF92FF921F931D
:1024D000CF93DF93EC0110E0EE24EA94F12C6091AD
:1024E0001C01161770F00E94B00F9A818C8190FF2A
:1024F00027C08F5F8C83DF91CF911F91FF90EF906A
:10250000089520911A01422F410F5527551FCA01E6
:102510009A01220F331F280F391F255F3C4F70E0AF
:10252000C7010E945C2D962F8C8140918C03609195
:102530008B03199F800D11240E94E8061F5FCFCFE7
:102540008150D8CF9091890390FF14C090911A01C7
:1025500020911B0133E0939FF0011124E55FFC4FB4
:10256000921710F00C94B00F8183608342839F5FB9
:102570003396F6CF08950F931F93CF93DF9300D038
:102580000F92CDB7DEB78C018091C90281110AC0CC
:102590009E012F5F3F4F44EB6FEF0E94E8068A8158
:1025A0008093C902F8016481613069F08091C902A9
:1025B00040E0662361F040E0623011F44091C902CE
:1025C00080E060E004C06091C90240E080E00E94C9
:1025D000A212F801848190E0019663E070E00E940D
:1025E0005C2D84830F900F900F90DF91CF911F91FE
:1025F0000F910895CF93DF9300D00F92CDB7DEB740
:102600009091890390FF0AC09E012F5F3F4F0E9467
:10261000E8064B8169818A810E94A2120F900F9077
:102620000F90DF91CF910895CF93DF93EC01E9E80C
:10263000F3E0438162818C810E94FA128C818F5F6A
:102640008C83DF91CF910895CF93DF93EC01EC81E0
:10265000F0E0EA50FC4F4491E9E8F3E062818181C7
:102660000E94FA128C818F5F8C83DF91CF91089545
:10267000CF92DF92EF92FF926B017C010E94D20613
:10268000B701A60188E090E0FF90EF90DF90CF9037
:102690000C94E12DAF92BF92CF92DF92EF92FF9216
:1026A0000F931F93CF93DF9300D00F92CDB7DEB778
:1026B000182FF62E042FE22E9091890390FF29C047
:1026C000E92FE695AE2FB0E0A255BE4F8C918093D6
:1026D000C4029E7F923059F59E012F5F3F4F812F9C
:1026E0000E94E8064B8169818A810E94A2121093A0
:1026F0008A03F0928B0300938C03EE2051F06091DB
:10270000890370918A0380918B0390918C030E94BE
:1027100038130F900F900F90DF91CF911F910F9171
:10272000FF90EF90DF90CF90BF90AF9008958230F0
:1027300019F400918C03DBCF863019F410918A03D1
:10274000D6CF8930D9F3893191F6E9518E2F817036
:10275000D82EE695F0E0E853FC4FA590B490C12C3C
:10276000BB2460911C01C61618F00E94B00FBFCFA9
:102770002C2D30E0A29EC001A39E900DB29E900D24
:10278000112470E00E94482D812FD11013C0860FB4
:1027900040911A01420F532F511D9A01220F331FEE
:1027A000240F351F255F3C4F402F6F2D0E94E806F8
:1027B000C394D7CF861BECCFE9E8F3E0438128E050
:1027C000421B08F440E021E0628181810C944A13AD
:1027D000E9E8F3E0438128E0420F08F44FEF21E0FD
:1027E000628181810C944A13E9E8F3E0628128E078
:1027F000621B08F460E021E0438181810C944A135C
:10280000E9E8F3E0628128E0620F08F46FEF21E06D
:10281000438181810C944A13E9E8F3E0818121E04E
:102820004381628188500C944A13E9E8F3E0818186
:1028300021E043816281885F0C944A1380918D036B
:10284000882319F0815080938D03609189037091E2
:102850008A0380918B0390918C030C9438138091A0
:102860008D03833018F48F5F80938D03609189030B
:1028700070918A0380918B0390918C030C94381390
:102880009091890390FF36C09170811129C09260A8
:1028900090938903662351F06091890370918A03B4
:1028A00080918B0390918C030E943813609189036F
:1028B000669570E04BE050E08AE091E00E94A12D27
:1028C000892BA9F01092C50281E08093C10220E01B
:1028D00040918C0360918B0380918A030C944A137E
:1028E000853210F09864D4CF880F982BD1CF0E94F6
:1028F0009A0FEACF089560E00C94401421E030E094
:10290000A90102C0440F551F8A95E2F7CA01209120
:10291000C602662391F0822B8093C6028091C50285
:10292000811105C08091890386950E947B14809156
:10293000890380FD05C00C94B00F80958223ECCFF5
:102940000895CF93DF93C82FC17082FBDD27D0F9A4
:1029500081FB662760F984E00E947E1461E06C27A9
:1029600085E00E947E146D2F86E0DF91CF910C945C
:102970007E140F931F93CF93DF93EC0161E00097D8
:1029800009F0682F617080E00E947E1460E020975B
:1029900021F0BE0176956795617081E00E947E14FA
:1029A00060E0209731F0BE01769567957695679542
:1029B000617082E00E947E1460E0209739F0BE01D1
:1029C000B3E076956795BA95E1F7617083E00E9470
:1029D0007E14AE0170E060E0BB27A72F962F852FF5
:1029E0000097A105B105D9F1AC01BD0188E08A01CC
:1029F0009B01F4E03695279517950795FA95D1F741
:102A0000011511052105310519F08C5FB901A801E7
:102A10008A019B01E2E03695279517950795EA957F
:102A2000D1F7011511052105310519F08E5FB901A6
:102A3000A8017695679557954795452B462B472BCB
:102A400009F08F5F8130C9F0882359F08230D1F0CE
:102A50008330E9F020E04EE16FEF80E406C080E0D3
:102A6000C6CF20E04EE16FEF82E30E944A13CE0111
:102A7000DF91CF911F910F91089520E04EE16FEF0C
:102A80008EE1F3CF20E04EE16FEF8AE6EECF20E05B
:102A90004EE16FEF87EDE9CF0E94B91490930A03DE
:102AA000809309030C94A90B8091090390910A0368
:102AB0009C01267033272630310519F488600C9468
:102AC0004C15877FFCCF21E030E002C0220F331F7E
:102AD0008A95E2F7209530958091090390910A0339
:102AE000822393230C944C15909155028095892351
:102AF00080935502282F277039F4282F082E000CB8
:102B0000330B9217130621F49091D60292FF07C05F
:102B10008595859585950E946315109255020895B7
:102B200021E030E002C0220F331F8A95E2F7809146
:102B3000090390910A03822B932B0C944C158091DE
:102B400089038695815009F484E261E00C94401475
:102B50008091890386958F5F853208F081E061E07E
:102B60000C9440149091890390FF07C09695981794
:102B700020F0961710F40C94A81561E00C94401402
:102B8000E9E8F3E083E0808311828FEF828384EBB6
:102B90008383148260817181828193810C943813C4
:102BA00069EE7EEF90E080E00E94ED2D60E082E033
:102BB00090E00E94CF2D60E083E090E00E94CF2D56
:102BC00010925B0210925A0260E084E090E00E9452
:102BD000CF2D60E082E290E00E94CF2D60E085E0A2
:102BE00090E00E94CF2D60E086E090E00E94CF2D23
:102BF0006FEF87E090E00E94CF2D40E050E0BA01F7
:102C000088E090E00E94E12D60E08DE090E00E947D
:102C1000CF2D40E050E0BA0188E190E00E94E12D24
:102C200060E087E190E00E94CF2D40E050E0BA01E3
:102C30008CE190E00E94E12D70E060E080E290E0A5
:102C40000E94ED2D40E050E0BA0188E190E00E9442
:102C5000E12D80E00E94900E0E94A80E40E050E01E
:102C6000BA018FE090E00E94E12D40E050E0BA010F
:102C700083E190E00C94E12D90E080E00E94C92D6A
:102C8000893E9E4F11F40C94730F80E008951092CA
:102C9000580280911D01E6EEF1E0882359F0809101
:102CA000D50287FF07C08EE1DF011D928A95E9F703
:102CB0000C94A90B86E0F8CF1F93CF93DF93CDB789
:102CC000DEB7AA970FB6F894DEBF0FBECDBF81E086
:102CD00093E02091F100DC012D93CD01B3E0893028
:102CE0009B07B9F780910203833009F471C0B8F4EF
:102CF000813009F448C0823009F4B2C08091E80004
:102D000083FF3AC180910103909102039A3008F049
:102D100033C1E92FF0E0E95AF14D0C94702D8A305F
:102D200009F48DC08B3009F470C0893039F7809177
:102D30000103813219F780910503909106030097F2
:102D400011F00297D9F68091E800877F8093E80020
:102D50008091E80082FF37C08091F2009091F300EB
:102D6000029729F48091F1008B7F813021F48091CA
:102D7000F1008093DC028091E8008B778093E8007B
:102D80000E946605BBCF80910103813A09F0B6CF5E
:102D90008091E800877F8093E800809105039091FF
:102DA0000603892B61F460E28DED92E070E00E94F1
:102DB00019068091E8008B778093E8009FCF60E050
:102DC00090E080E0F3CF8091FF028111C1CF96CFD8
:102DD00080910103813A09F091CF80910503909190
:102DE0000603892B09F08ACF8091E800877F8093C2
:102DF000E8008091E80080FFFCCF80911D01809366
:102E0000F1008091E8008E77B9CF80910103813283
:102E100009F074CF8091050390910603892B09F086
:102E20006DCF8091E800877F8093E8000E9466055F
:102E30008091030380931D010E9447165FCF80910C
:102E40000103813209F05ACF8091E800877F809397
:102E5000E8000E946605809104038093DB024ECF58
:102E600080910103813A09F049CF8091E800877F82
:102E70008093E8008091E80080FFFCCF8091DB0226
:102E8000BECF803899F0823809F076C08091050372
:102E90008F70873008F070C08093E9008091EB005C
:102EA00085FB882780F91092E90006C08091FD0219
:102EB0009091FE02911182609091E800977F90932B
:102EC000E8008093F1001092F1008091E8008E7785
:102ED000B5C1882309F4A2C1823009F04DC08091A8
:102EE00003038111A6C1809105038F702FEF280F76
:102EF000263008F041C08093E9002091EB0020FFCC
:102F000098C1933031F48091EB0080628093EB00A4
:102F100090C19091EB0090619093EB0021E030E044
:102F200001C0220F8A95EAF72093EA001092EA0086
:102F30008091EB008860EACF81111EC010910303DD
:102F40001F778091E3008078812B8093E30080914C
:102F5000E800877F8093E8000E9466058091E80082
:102F600080FFFCCF8091E30080688093E30082E0E3
:102F7000111183E08093FF028091E80083FF0AC073
:102F80008091E800877F8093E8008091EB00806269
:102F90008093EB00AA960FB6F894DEBF0FBECDBFAC
:102FA000DF91CF911F9108958058823028F72091AA
:102FB0000303309104032C3DE3E03E07A1F583E0D9
:102FC0008A838AE289834FB7F894DE01139620E062
:102FD0003EE051E2E32FF0E050935700E49120FFF0
:102FE00003C0E295EF703F5FEF708E2F90E0EA3004
:102FF000C0F0C7968D939D932F5F243159F74FBF33
:103000008091E800877F8093E8006AE270E0CE015B
:1030100001960E9419068091E8008B778093E80062
:10302000ABCFC096E7CF8091050390910603432F65
:1030300055274330510509F44AC078F54130510510
:1030400009F47AC08BE590E0E6EBF8E042305105F8
:1030500009F092CF2091E800277F2093E80020918B
:103060000703309108038217930708F49C0140E09E
:103070002115310509F065C0411163C08091E80058
:1030800082FDC9CF8091FF02882329F2853019F291
:103090008091E80083FFF2CFBECF4132510509F4A1
:1030A0003CC04232510509F067CF8330910508F0EA
:1030B00063CFFC01EE0FFF1FEA52FE4F0190F0813B
:1030C000E02D8D529E4FDC018C9190E01AC0332789
:1030D00021303105D1F02115310561F02230310563
:1030E00009F04ACFE3E2F9E0E4918E2F90E0E3E2C9
:1030F000F9E007C0E1E4F9E0E4918E2F90E0E1E42B
:10310000F9E0009709F438CFA5CFEDE2F9E0E491BA
:103110008E2F90E0EDE2F9E0F4CF8330910508F0D6
:103120002BCF880F991FFC01E452FE4F0190F081D4
:10313000E02D89E090E08ECF82E190E0E1E1F9E0DE
:1031400089CF8091FF02882309F465CF853009F487
:1031500062CF8091E80083FD5ECF8091E80082FD20
:103160008DCF8091E80080FF83CF8091F200909115
:10317000F3002115310519F08830910550F041E038
:10318000089709F040E08091E8008E778093E8008E
:103190006FCF44914093F10031962150310901964F
:1031A000E8CF803809F0E8CE8091E800877F8093EF
:1031B000E800809100038093F10087CE8111DCCE7E
:1031C00010910303123008F0D7CE8091E800877F7A
:1031D0008093E800109300030E946605112311F00C
:1031E00084E005C08091E30087FDFACF81E0809301
:1031F000FF0242E061EC81E00E94850542E261EC61
:1032000084E00E94850542E261EC82E00E9485052F
:1032100042E260EC83E00E948505AECE809103031C
:10322000813009F0A9CE81E0933009F080E08093ED
:10323000FE021092E9008091E800877F8093E80009
:103240000E94660599CE3F924F925F926F927F9255
:103250008F929F92AF92BF92CF92DF92EF92FF92A6
:103260000F931F93CF93DF9300D000D00F92CDB771
:10327000DEB78C01FC0183819481892B31F0808140
:10328000918189238F3F09F05DC60F900F900F90B9
:103290000F900F90DF91CF911F910F91FF90EF90C2
:1032A000DF90CF90BF90AF909F908F907F906F9066
:1032B0005F904F903F9008950E94040FF82E682F62
:1032C00089819A810E947D0B69817A818F2D0E946C
:1032D000F70E7C01F8018281882309F425C6970145
:1032E00022513F452031310508F0DDC58FEF97E0D1
:1032F0000E94BB2DFEEEEF0E57EE852E53E0952E6D
:10330000882381F180915502877009F4BECFF801BE
:103310008281882309F4B9CF82E00F900F900F903B
:103320000F900F90DF91CF911F910F91FF90EF9031
:10333000DF90CF90BF90AF909F908F907F906F90D5
:103340005F904F903F900C947415811428E0920682
:10335000C9F2C4010E94BB2D811101C0EA943FEF64
:10336000831A930AE110F1CF1C821B8244244394F8
:103370004AE0342E74014FEFE41AF40AC4010E94AB
:10338000BB2D89831A82882309F4BCCF9FEF980F45
:10339000933000F58A83498252E0850E911CC70163
:1033A0000E94BB2D8B83882309F4ACCFCE010196FC
:1033B0007C01F70120812223E9F2213009F049C084
:1033C00091818281913041F4F2E0EF0EF11C0E9474
:1033D000AA0D09C04701EACF923049F422E0E20E7B
:1033E000F11C0E94F50C3FEFE31AF30AE2CF933091
:1033F00031F432E0E30EF11C0E94E10BF4CF943083
:1034000021F04FEFE41AF40AEECF52E0E50EF11C82
:1034100030E020E0B7016F5F7F4FF70141818053BB
:10342000990B8A30910550F021503109E0F28FE973
:103430009FE00197F1F700C00000F6CF329EF00147
:10344000339EF00D11249C012E0F3F1F842F7B0112
:10345000E1CFE22FF0E0EA5DFD4F5490822F869598
:103460008695869590E0FC01EA5EFD4F649027709A
:10347000712C022E02C0759467940A94E2F7E1E081
:103480006E227724FC01EA5FFD4FA490B12C022E3E
:1034900002C0B594A7940A94E2F7F1E0AF22BB24EE
:1034A000FC01EA50FE4FC490D12C02C0D594C794C1
:1034B0002A95E2F721E0C222DD246114710419F09B
:1034C00081EE0E94F50CA114B10419F086EE0E9461
:1034D000F50C852D0E94AA0DAB2819F086EE0E94EE
:1034E000E10B672819F081EE0E94E10BCD2809F469
:1034F0007ACF8CE26CCF81E00E9490150E94541527
:1035000001CF81E00E946315F9CF82E0F5CFF3E8A7
:10351000EF16FFE5FF0609F4CCC024E8E2162FE51C
:10352000F20609F0E0C4882309F4ECCEF0906A02B8
:10353000EE24E394FE24F0926A020E94880690939F
:103540006802809367028091690210921A018823B1
:1035500009F4BDC08AE280931B0180931C0181E2C3
:103560000E947B140E94AD10E0926A0210926902E0
:103570001092660210926502C5CE882309F481C0BC
:1035800080916D02811106C081E080936D0282EE10
:103590000E94F50C0E94880690936C0280936B0247
:1035A0008BE20E94F50CF8018281882309F4DBC4C8
:1035B00010929003F3E0EF16FDE5FF0608F0BAC0A5
:1035C0002AEFE2162CE5F20630F4C70182509C4542
:1035D000449708F0B5C00E948C0F9093D602809358
:1035E000D50240E1E4164CE5F40609F491C108F077
:1035F000FFC088E0E8168CE5F80609F477C108F00A
:10360000CBC0E4E0EE16ECE5FE0609F461C108F07B
:10361000ADC022E0E2162CE5F20609F453C1809118
:10362000D502826033E0E3163CE5F30609F44DC1B0
:103630006091D502F090D60284E090E00E94CF2DF8
:103640006F2D82E290E00E94CF2D0E9447165ACE45
:103650008823A1F080916D02811106C081E08093E2
:103660006D0282EE0E94F50C0E94880690936C0217
:1036700080936B0281EE0E94F50C92CF81EE0E9446
:10368000E10B8BE20E94E10B8ECF882309F48BCFF4
:1036900081EE0E94F50C83EE0E94F50C8FE40E94EF
:1036A000F50C8FE40E94E10B83EE0E94E10B81EEAA
:1036B000E9CF882309F477CF81EE0E94F50C83EEE1
:1036C0000E94F50C80E50E94F50C80E5EBCF8AE2C4
:1036D00080931B0180931C0181E2FF2029F00E944E
:1036E0007B140E94AD1042CF0E947B143FCFE5EFC8
:1036F000EE16ECE5FE06B9F090F026EFE2162CE5AA
:10370000F20609F050CF27E245EE66EE09C427E243
:1037100045EE65EE05C426E241EE60EE01C427E207
:1037200045EE64EEFDC326E241EE62EEF9C328E207
:1037300041E0EFCF31E6E3163DE5F30609F44BCF68
:103740008091580246E1E4164CE5F40609F018C4ED
:103750008A7A91E009F490E0909304028111FDC00F
:1037600089E20E94170B0E94A70ACCCD8091D50256
:10377000806146E0E4164CE5F40609F4A6C08091A9
:10378000D502886057E0E5165CE5F50608F49DC0B3
:103790008091D502806299C08CE0E8168CE5F8062D
:1037A00009F4AEC078F48091D5028C60EAE0EE16A0
:1037B000ECE5FE0609F489C008F49CC08091D502AE
:1037C0008E7F83C08091D502877F2EE0E2162CE5A4
:1037D000F20609F47AC08091D5028B7F3FE0E316B0
:1037E0003CE5F30608F471C08091D5028F7E6DC070
:1037F0004CEFE4164CE5F40609F486C0A0F584E12C
:10380000E8168CE5F80609F497C098F4E2E1EE16A4
:10381000ECE5FE0609F480C08091D5028F7BF3E1D0
:10382000EF16FCE5FF0608F450C08091D502837FB7
:103830004CC02AEFE2162CE5F20609F44DC008F060
:1038400051C045E1E4164CE5F40609F0F1CE809153
:10385000D50282FB992790F921E0922790FB82F90B
:1038600090FB83F932C0E1145DE5F50609F45AC016
:10387000A0F48091D60283609EEFE9169CE5F906DC
:1038800071F18091D6028D7FEFEFEE16ECE5FE062A
:1038900030F18091D6028C7F22C0F2E0EF16FDE578
:1038A000FF0609F458C008F450C031E6E3163DE5C0
:1038B000F30609F0BDCE9091D502892F8F7E94FF3B
:1038C000806103C08091D50281608093D502B0CE23
:1038D0008091D5028460F9CF8091D6028160809377
:1038E000D602A6CE8091D6028260F9CF8091D50211
:1038F0008064EBCF0E9447168091D5028068E5CFA7
:103900008091D5028D7FE1CF8091D6028E7FE7CF67
:103910008091D5028F7DD9CF0E9447168091D50224
:103920008F77D3CF8091D602982F909591708E7F0C
:10393000892B90FB81F9D3CF0E9447169091D50235
:10394000892F97FB87F98058C0CF61E08EE090E027
:103950000E94CF2D6DCE60E0F9CF85E302CF85E3E5
:103960000CC38091890380FF1BC08E7F80938903E5
:103970006091890370918A0380918B0390918C03ED
:103980000E9438131092C5025FEF80E792E0515019
:1039900080409040E1F700C000000E94B00FB2CC20
:1039A00081608093890361E086950E944014AACCCF
:1039B0004FE955E168EA75E10E94CC06A3CC48EADC
:1039C00055E16FE975E1F8CF45E154E16CE074E150
:1039D000F3CF44EF53E160E074E1EECF4CED53E1FF
:1039E00068EE73E1E9CF48EE53E16CED73E1E4CFAB
:1039F0004FE254E16EE174E1DFCF61E081E0D5CFC9
:103A000065E082E00E94B2157DCC68E086E0FACFE6
:103A100064E18FE0F7CF67E185E1F4CF62E289E10D
:103A2000F1CF61E083E2C1CF4BE5E4164DE5F4064A
:103A300011F15CE5E5165DE5F50609F0D3C280916C
:103A4000D60282FB882780F991E089270E94B70E71
:103A5000C9C20E9447168FEF94E3ECE0815090407A
:103A6000E040E1F700C000000E94D10C0E94D01598
:103A700049CC81E0EBCF80E0E9CFC7010E94550B34
:103A8000D82EBFC22F2D2F70C22E8F2D807F19F000
:103A9000C29490EFC922DD20C9F0CC2069F080E209
:103AA0008E0D883010F081100BC080915802C82A0A
:103AB000C09258020E94A70A8E2D0E94F50C19C0D0
:103AC00080915702C82AC0925702F4CF8E2D0E94CF
:103AD000E10BCC2071F0C09480E28E0D883010F0A4
:103AE00081103EC080915802C822C09258020E94A4
:103AF000A70AE92DE850FF0B349720F40E94C00676
:103B00000E94A114AA2009F4C0CB8091550280FD27
:103B1000BCCBF80112828595859585950E949015FC
:103B2000C8010E9423198091550285958595859538
:103B30000F900F900F900F900F90DF91CF911F91EA
:103B40000F91FF90EF90DF90CF90BF90AF909F903C
:103B50008F907F906F905F904F903F900C94631583
:103B600080915702C822C0925702C1CF3F2D3F70AB
:103B7000B32E8F2D807F803219F0B29480EFB8225F
:103B8000882071F041E0841681F1DD20D9F1CC204C
:103B900091F1F801858180FF8FCF8F7085832BC0D5
:103BA000DD20B1F0909159028B2D892BC11003C0FB
:103BB0000E94D70B9ECF51E0C512FACF2091D602BA
:103BC00022FD97CF981709F494CF8093590291CF93
:103BD000C11006C00E94A10A8B2D0E94CC0B89CF78
:103BE00081E0C81609F485CFF5CFDD2031F095E0EE
:103BF0009C1508F47ECF8B2DDBCFE4E0EC1508F4A8
:103C000078CFEACFCC2041F3F9E38F1209C02FEF30
:103C100037EE43E0215030404040E1F700C0000063
:103C20008E2D0E94E10B65CF8F2D86958695837032
:103C300061F0813009F05DCFC7019370D11002C0EF
:103C400090E080E00E94940654CFC7019370D11099
:103C500002C090E080E00E94AA064BCF8E2DDD20AE
:103C600029F00E9463080E94810743CF0E94A807A1
:103C7000FACF8F2D837009F040C0D1103ACF4E2D6E
:103C8000429546954770440F440F8E2D8F7090E0FB
:103C9000042E02C0880F991F0A94E2F730E020E05A
:103CA000E4FE09C02FE030E002C0220F331F4A9526
:103CB000E2F7209530954F2D46954695437042305A
:103CC00099F078F460915A0270915B02413039F0BA
:103CD000822B932B862397230E94C60B0ACF862B19
:103CE000972B822B932BF8CF822B932B20915A0268
:103CF00030915B0282279327EFCF8695DD2011F06C
:103D00008F2D8170882309F4F4CE4E2D429546956F
:103D10004770440F440F8E2D8F7090E0042E02C028
:103D2000880F991F0A94E2F730E020E0E4FE09C012
:103D30002FE030E002C0220F331F4A95E2F72095B2
:103D400030954F2D469546954370423099F078F462
:103D50006091090370910A03413039F0822B932B53
:103D6000862397230E944C15C4CE862B972B822B3B
:103D7000932BF8CF822B932B2091090330910A03C8
:103D800082279327EFCF5F2D5F70F52EDD2029F07E
:103D9000852F0E9490158E2D0BCF8E2D0E94CC0B5F
:103DA0008F2D0E946315A5CE8E2D92EF891609F4F2
:103DB00049C0981570F0E0EF8E1639F1F1EF8F16CB
:103DC000C9F1DD2009F45FC0C11076CE8F2D8F714F
:103DD00036C023EF8216D9F134EF8312F2CFDD2003
:103DE00009F446C0FF2DFF71FF2E8F2F0E94901502
:103DF0008091D60282FD07C028E0F29EC001112406
:103E00008360809355028F2D1AC0DD2071F044E04D
:103E10004C1508F46ECE2F2D2F7181E090E002C07A
:103E2000880F991F2A95E2F7A7CF55E05C1508F493
:103E300060CEF1CF8F2D8F71DD2009F4B2CF0E94BB
:103E4000901557CE8F2D8F71DD20C9F3AACF90E04A
:103E500080E0DD2009F486CF9F2D9F7121E030E0C6
:103E6000F90102C0EE0FFF1F9A95E2F7CF017ACF5A
:103E700081E00E94741531E03C1508F03ACE82E0F2
:103E80000E94741536CECC2059F0893309F0C8CE83
:103E90004FEF57EE83E0415050408040E1F7BECEF7
:103EA0008F2D8F717ECFF0E1EF16FFE5FF0609F44D
:103EB00022CB21E1E2162FE5F20609F426CB42E8F7
:103EC000E4164FE5F40609F4E0CB08F020CB90E8C7
:103ED000E9169FE5F90609F450CBE1E8EE16EFE5A7
:103EE000FE0609F4B5CB33EFE3163CE5F30609F41F
:103EF00012CC08F0FCCB58EDE5165CE5F50609F4AC
:103F000006CC89EDE8168CE5F80609F410CC97ED9F
:103F1000E9169CE5F90609F046CB26E241EE61EE92
:103F2000C8010E94C70DEEC930E1E3163FE5F30674
:103F300009F4E7CA41E1E4164FE5F40609F0BFCF02
:103F400082E0E0CA85E0DE01119601900D928A952B
:103F5000E1F7F801228189819A812111ADC90E947E
:103F6000550BF82EB1C9F6E1EF16FCE5FF06D1F5C9
:103F7000809104028111F3CC89E20E94EC0AF3CB18
:103F800082722CECE2162CE5F20609F431CD08F031
:103F9000A7C046ECE4164CE5F40609F415CD08F08C
:103FA00076C093ECE9169CE5F90609F401CD08F01A
:103FB0005DC0F2ECEF16FCE5FF0609F4D2CCEAE5B1
:103FC000EE16EDE5FE0609F454CD08F02DCDE11412
:103FD0002CE5F20609F43DCD3EEDE3163CE5F30693
:103FE00009F444CDF8018281E080F180882309F44E
:103FF00044CDC7010E94040FD82E682FC7010E942C
:104000007D0BB7018D2D0E94F70E0E9419097C01CE
:10401000882EF801D280C580C2943FE0C3228091EF
:1040200055028770A1F0AD2CDD2091F08F2D807F9F
:10403000803421F080E28E0D883048F082E00E94CA
:104040007415809155028770AA24A3948111A12C24
:104050009F2C92942FE09222FBE0F91508F449CDB1
:10406000E92DF0E0EF59F14D0C94702D24ECE2169F
:104070002CE5F20609F4A3CC4CE054E165E174E1CF
:1040800035ECE3163CE5F30609F496CC98CF49EC01
:10409000E4164CE5F40609F4A1CC88F497ECE91693
:1040A0009CE5F90609F495CC40E054E164EF73E136
:1040B000E8ECEE16ECE5FE0609F47ECC80CFFAECD7
:1040C000EF16FCE5FF0609F48ECC4EE154E16FE2F9
:1040D00074E12BECE2162CE5F20609F46DCC6FCFFF
:1040E00031EDE3163CE5F30609F492CCB8F45EEC4E
:1040F000E5165CE5F50609F483CC08F47ECC9FEC6C
:10410000E9169CE5F90609F480CC6EE089E0E0ED63
:10411000EE16ECE5FE0609F475CC51CFF4EDEF1682
:10412000FCE5FF0609F47ACC78F432EDE3163CE5C1
:10413000F30609F470CC61E088E143EDE4164CE548
:10414000F40609F432CC3BCF55EDE5165CE5F506F7
:1041500009F467CC8DE5E816F80609F4D3C82FCF2B
:104160001F93CF93DF9380912202807FA9F48091E7
:104170001F02882389F080915402D091230260911C
:104180001D0270911E02A0912002B0912102C62F43
:10419000C72316E0D81304C0DF91CF911F91089573
:1041A00090E0109711F0CF3F19F401968770F2CF8D
:1041B000189F9001199F300D1124F901EC5DFD4FFE
:1041C00041814713F2CF40814613EFCF4281411125
:1041D000ECCF438154814A1B5B0B483C510528F7C7
:1041E000809122028F70806180932202F901E75D45
:1041F000FD4F80818F70806180838DE192E00E940D
:104200002319DF91CF911F910C944B0BAF92BF926A
:10421000CF92DF92EF92FF920F931F93CF93DF9392
:10422000CDB7DEB761970FB6F894DEBF0FBECDBF36
:104230008C0185E0F801DE011D9601900D928A95B2
:10424000E1F7F801E2808DE1A82E82E0B82E6091BE
:104250002002709121026115710509F432C190911B
:104260001D0240911E02892F84238F3F09F429C12A
:1042700020813181C380D480F0901F02F601E61BBB
:10428000F70BFF2009F4E8C080912202582F507FDD
:10429000E83CF10508F0ABC0511177C0FE2C431388
:1042A00021C092131FC0E1101DC08F7080618093E8
:1042B0002202C5010E94231980912202F801858300
:1042C0008F2D61960FB6F894DEBF0FBECDBFDF9184
:1042D000CF911F910F91FF90EF90DF90CF90BF9003
:1042E000AF900895CD2829F0822F83238F3F09F0C6
:1042F00003C180E0F82FF170DF2E80FF3CC0809179
:1043000054024091230256E0841315C02D873E8746
:104310008D859E850E94400F292F22952F70223077
:10432000F0F0243018F59F70F1F0F8019581907F3E
:10433000D1F4D12C1EC090E0589FF001599FF00D90
:104340001124EC5DFD4F6181361306C06081261398
:1043500003C06281E6120FC001968770D5CF9F70AF
:1043600011F0882331F3805E883018F3C8010E9471
:104370002319FD2CA5CFEE2009F4A2CF80912202B3
:10438000816080932202F12C9BCF431306C09213CD
:1043900004C0F801EE2009F479C0C8010E944C0F56
:1043A000882309F1EE20F9F080912202803270F02A
:1043B00020911D0230911E0238872F831986DB86DB
:1043C000CA868C87CE0107960E94231986E0F801E1
:1043D000ADE1B2E001900D928A95E1F70E94B02024
:1043E000FF24F3946DCFC8010E942319F9CF511116
:1043F0000AC08DE192E00E94231986E0F501119236
:104400008A95E9F7C0CF43130FC092130DC0E11096
:104410000BC0F8018583C8010E94231986E0F501CD
:1044200011928A95E9F74CCFC8010E944C0F88235E
:10443000D1F2EE20C1F280912202803238F2209136
:104440001D0230911E023A8329831B82DD82CC82B9
:104450008E83CE010196B8CFE83CF105F8F6FE2C2C
:10446000EE2009F243131FC092131DC08091220257
:1044700080FD10C0982F907F69F0F8018583903FF0
:1044800031F0982F907F905F8F70892B8583C801C2
:104490000E94231986E0F801ADE1B2E001900D928F
:1044A0008A95E1F70DCFC8010E944C0F81118ECF84
:1044B00080912202816080932202C8010E94231908
:1044C000FFCEEE2009F48FCFC8010E944C0FF82ECA
:1044D000882309F488CF86E0F801ADE1B2E00190CD
:1044E0000D928A95E1F780911D0290911E020E9423
:1044F000400F0E94B020E4CE81E08E25FBCE1F93BA
:10450000CF93DF93CDB7DEB767970FB6F894DEBFD2
:104510000FBECDBF4B8B5C8B6D8B7E8B8F8B6111F8
:10452000109257021A8A198A85E0FE017396DE01FD
:104530001D9601900D928A95E1F786E0FE013D9669
:10454000DE01179601900D928A95E1F7CE0107964C
:104550000E940621882389F016E0809154029091F0
:104560002302891349C067960FB6F894DEBF0FBEC9
:10457000CDBFDF91CF911F91089586E0FE01379660
:10458000DE01119601900D928A95E1F78A859B854F
:10459000892B11F38F81988589238F3FE9F2209130
:1045A000230230E0C9010196877099274091540297
:1045B0004817190671F40E944716109223021092B0
:1045C000540286E0EDE1F2E0DF011D928A95E9F701
:1045D000C3CF96E0929FD001939FB00D1124AC5DA4
:1045E000BD4FFE01319601900D929A95E1F78093AF
:1045F00023020E944B0BB0CF819FC00111248C5D20
:104600009D4F0E940621882309F4ADCF809154026A
:1046100090E0019687709927809354029ECF6F9205
:104620007F928F929F92AF92BF92CF92DF92EF9242
:10463000FF920F931F93CF93DF93CDB7DEB72D97E4
:104640000FB6F894DEBF0FBECDBF8E010F5F1F4FB8
:1046500088E0F80111928A95E9F74FE4E42E41E0F1
:10466000F42E680153E5652E51E0752E882483945D
:10467000912CF70181917F018F3F09F44BC0F89491
:10468000E82FE295EF70F0E021A18F70A40102C045
:10469000440F551F8A95E2F7CA01922F982B91A3D8
:1046A00092A18095892382A3789400C0E3E5F1E08C
:1046B00030E020E0B12CA12C81918F3F09F47CC027
:1046C000A82FA295AF70B0E090964C9150E08F70FB
:1046D00002C0559547958A95E2F740FD6DC0C4012B
:1046E000022E02C0880F991F0A94E2F7A82AB92A5D
:1046F0002F5F3F4F2C303105F9F6F701319780815C
:104700008F3F11F00E94BF0850EA5A95F1F7F60169
:10471000B182A082F2E0CF0ED11C6E147F0409F0AA
:10472000A8CF48E050E0B8018EE692E00E94AE2D9E
:10473000CC24C394009709F4C12C892B09F43FC001
:1047400088E0F801AEE6B2E001900D928A95E1F7BB
:1047500081E080935E020E94880690935D028093C0
:104760005C0280915C0290915D020E94790605973F
:1047700050F180916E0290916F029093A702809306
:10478000A60280917002909171029093A902809389
:10479000A80280917202909173029093AB02809371
:1047A000AA0280917402909175029093AD02809359
:1047B000AC0210925E0207C090E080E097CF80913B
:1047C0005E028111CECF80916D02882371F08091BD
:1047D0006B0290916C020E947906893E934028F00A
:1047E00082EE0E94E10B10926D0280916A02882392
:1047F00099F18091690281112FC080916702909197
:1048000068020E94790681369A4E78F0809165029E
:1048100090916602019690936602809365020E94D1
:104820008806909368028093670280916502909158
:1048300066024F9788F010921A018AE280931B015A
:1048400080931C018FE00E947B1481E080936902B9
:10485000109266021092650238E7E32E32E0F32EE2
:1048600010E000E0BB24B394F701D1907F01DD207C
:1048700051F10115110509F058C0B09263020E9470
:1048800088069093600280935F02D694C801880FD7
:10489000991FDD2009F456C08F589E4FFC0180817E
:1048A00091819A8789871B860E9488068160782F6C
:1048B0009D878C87F7013197108249855A856B85D2
:1048C0008D850E947F220F5F1F4F0930110561F611
:1048D000109164028091630211115DC08823A9F1D7
:1048E00010921A0184E080931B0180931C018FE0D9
:1048F0000E947B141092630281E0809364028C2DED
:104900002D960FB6F894DEBF0FBECDBFDF91CF91CD
:104910001F910F91FF90EF90DF90CF90BF90AF90DD
:104920009F908F907F906F9008950530110519F436
:10493000B0926202A4CF0630110509F0A6CFB09262
:1049400061029DCF815A9E4FA9CF80916202882338
:1049500079F086E180931A018AE180931B0184E05B
:1049600080931C018FE00E947B1410926202C4CFDE
:10497000809161028823A9F08AE180931A018EE177
:1049800080931B0184E080931C018FE00E947B14C4
:1049900010926102B1CF81112BC08091620281110E
:1049A00027C080916102811123C080915F029091A4
:1049B00060020E947906853F9140D0F0112379F082
:1049C00010921A018AE280931B0180931C0181E2FC
:1049D0000E947B1480916A0281110E94AD10109296
:1049E000630210926202109261021092640287CFF9
:1049F00010926302109262021092610280CF1F92A5
:104A00000F920FB60F9211242F933F934F935F9302
:104A10006F937F938F939F93AF93BF93CF93DF93C6
:104A2000EF93FF93D091E900DF708091EC00C82FE5
:104A3000C17080FDC0E81092E9008091F000877F8E
:104A40008093F00078940E945C161092E9008091A7
:104A5000F00088608093F000CD2BCF70C093E90008
:104A6000FF91EF91DF91CF91BF91AF919F918F9186
:104A70007F916F915F914F913F912F910F900FBE5A
:104A80000F901F9018951F920F920FB60F9211243E
:104A90002F933F934F935F936F937F938F939F9346
:104AA000AF93BF93EF93FF938091E10082FF09C022
:104AB0008091E20082FF05C08091E1008B7F8093AE
:104AC000E1008091DA0080FF24C08091D80080FF4F
:104AD00020C08091DA008E7F8093DA008091D90027
:104AE00080FF9BC088E189BD8AE189BD09B400FED1
:104AF000FDCF81E08093FF028091DA02811109C02D
:104B00000E94EC040E94B7058091E20084608093CB
:104B1000E2008091E10080FF17C08091E20080FFF9
:104B200013C08091E2008E7F8093E2008091E200CA
:104B300080618093E2008091D80080628093D800E9
:104B400019BC85E08093FF028091E10084FF29C0B9
:104B50008091E20084FF25C088E189BD8AE189BD9A
:104B600089B5982F917080FFFBCF8091D8008F7D01
:104B70008093D8008091E1008F7E8093E100809146
:104B8000E2008F7E8093E2008091E200816080935A
:104B9000E20080910003882309F445C084E08093FB
:104BA000FF028091E10083FF27C08091E20083FF34
:104BB00023C08091E100877F8093E10082E08093B1
:104BC000FF02109200038091E1008E7F8093E1004C
:104BD0008091E2008E7F8093E2008091E20080610C
:104BE0008093E20042E060E080E00E9485058091D1
:104BF000F00088608093F000FF91EF91BF91AF913A
:104C00009F918F917F916F915F914F913F912F91E4
:104C10000F900FBE0F901F90189519BC1092FF02B5
:104C20001092DA0276CF8091E30087FD93E09093B3
:104C3000FF02B7CF78941F921FB61F9211248F9353
:104C40009F93AF93BF938091D1029091D202A09194
:104C5000D302B091D4020196A11DB11D8093D1025F
:104C60009093D202A093D302B093D402BF91AF919C
:104C70009F918F911F901FBE1F9018951F921FB676
:104C80001F9211248F939F93AF93BF938091D00273
:104C9000811113C08091D1029091D202A091D302D0
:104CA000B091D4024196A11DB11D8093D102909381
:104CB000D202A093D302B093D402BF91AF919F913F
:104CC0008F911F901FBE1F901895CDB7DEB7E0974C
:104CD0000FB6F894DEBF0FBECDBF84B7877F84BF09
:104CE0000FB6F894A8958091600088618093600069
:104CF000109260000FBE80E890E00FB6F8948093A9
:104D00006100909361000FBE85B7806885BF85B74D
:104D1000806885BF8DEB98E09093E3018093E2017A
:104D20000E94EC040E94B7058091E20084608093A9
:104D3000E20078948091FF028823A1F01091E900AD
:104D40001F709091EC00892F817090FD80E8182BE6
:104D50001092E9008091E80083FD0E945C161F70AC
:104D60001093E90082E084BD93E095BD9AEF97BD72
:104D700080936E000E94730F811102C00E94A80EE2
:104D800080EF0E94BF0881EF0E94BF0882EF0E945F
:104D9000BF0883EF0E94BF0803E511E0FFE5EF2E97
:104DA000F1E0FF2ED8018D918D018F3F11F00E940F
:104DB000BF08E016F106B1F710926F0210926E0272
:104DC0001092A7021092A602109271021092700225
:104DD0001092A9021092A80210927302109272020D
:104DE0001092AB021092AA021092750210927402F5
:104DF0001092AD021092AC020E943C16811102C0CA
:104E00000E94D01582E090E00E94BB2D80939D020D
:104E10000E948C0F9093D6028093D5020E940F239C
:104E2000EFE3FCE93197F1F700C000000E940F2387
:104E30008091A60280FF08C06FEF7FEF90E080E0D6
:104E40000E94ED2D0E94D10C83E090E00E94BB2DCA
:104E500090E00E94C60B8091090390910A030E9482
:104E6000B91480917602811132C00E943C168111E2
:104E700004C00E94D0150E94C01588E090E00E94F6
:104E8000C32D6093890370938A0380938B0390935F
:104E90008C036E7F71F40E94C01588E090E00E9440
:104EA000C32D6093890370938A0380938B0390933F
:104EB0008C030E94D2061092C5028091890380FF64
:104EC00003C086950E947B1481E0809376026EEA8F
:104ED00071E0E3E98E2EE2E09E2E2CE931E0E5EA76
:104EE000F1E041E050E01191812F82958F7090E0C8
:104EF000DC019196FC9091971F70E12E6A0101C030
:104F0000CC0C1A95EAF70C2D00950F2191960C9375
:104F1000919792961C9192971C2992961C93D90175
:104F2000FD909D010F2D02950F7010E0D801919614
:104F3000BC90BF2DBF70FB2E6A0101C0CC0CBA958E
:104F4000EAF7DC2CD094DB20D8019196DC92919783
:104F50009296DC909297DC289296DC92DC019096F7
:104F60008C9190E002C095958795EA94E2F7817064
:104F7000D80190960C9110E002C015950795FA940F
:104F8000E2F790E000FD92E0892BD4018D934D0172
:104F90006E177F0709F0A7CF86EA92E09093BD02D3
:104FA0008093BC0281E20E947B1481E090E00E9429
:104FB0004C1580E091E09093CD028093CC0258E1B3
:104FC000252E312C8091FF02FF24F39408E11AE191
:104FD000853009F4B3C20E940F23882359F08FB79C
:104FE000F8944091D1025091D2026091D302709115
:104FF000D4028FBFA6EAB2E0EEE9F2E010E000E0F2
:10500000702F8D919D91219131912817390709F4C5
:10501000BEC22827392760E0EE24E394F12CA901D1
:105020004E215F21452B09F4ACC269A37AA39C01F0
:105030002E213F2191E0232B09F490E09BA30E94B5
:1050400088068160782F9DA38CA349A15AA16BA1EA
:105050008DA10E947F22000F111FF801E256FD4F23
:1050600080819181E826F926F182E0828091C50253
:105070008823D1F18091C402E0918903E695E81B71
:10508000E093C002823009F099C2F0E0EC53FD4F8A
:10509000E4910E2F10E024E2E22E23E1F22E809123
:1050A000C102882361F01092C1020E948806909389
:1050B000BF028093BE021092C3021092C2020E94ED
:1050C0008806E091BE02F091BF028E1B9F0B8F3FBE
:1050D0009F4750F4E00FF11FF093BF02E093BE0230
:1050E0008EEB92E0F70109953AE8E32E32E0F32ED9
:1050F00001E812E048E7842E42E0942E83E991E033
:105100009CA78BA7D12CC12CACE9B1E0BEA7ADA761
:10511000E5EAF1E0F8ABEFA753E9652E52E0752E12
:10512000512C44244394D301ED913D01EE0FEE0F39
:10513000AFA5B8A92D91B8ABAFA7A22FA295AF701C
:10514000B0E090968C9190E02F7002C09595879575
:105150002A95E2F781709927ADA5BEA54D91BEA70E
:10516000ADA7A42FA295AF70B0E090962C9130E03F
:105170004F7002C0359527954A95E2F7A901417015
:10518000552720FF02C042E050E0842BE82BD301DA
:105190001197EC93ABA5BCA5AD90BCA7ABA7EF70E6
:1051A000F0E0ED57FE4F8081F7019081890F8083F9
:1051B000B12C082E000C990B20E08A159B05DCF021
:1051C000D8018C918F5F8C93F601E15AFE4F80815C
:1051D00091819A8389834B820E9488068160782F0F
:1051E0009D838C83F401408249815A816B818D813A
:1051F0000E947F2221E0D7018C91082E000C990B90
:10520000442755274A195B0948175907E4F0F80164
:10521000808181508083F601EF58FE4F808191811B
:105220009A8389834B820E9488068160782F9D83B0
:105230008C83E2E0D401EC9349815A816B818D81AA
:105240000E947F2221E0D7018C91082E000C990B3F
:10525000B5010E945C2DF70181937F01522A0F5FF7
:105260001F4FFFEF8F1A9F0A22E0C20ED11C42E1AE
:10527000C416D10409F057CF552059F08FB7F894D0
:105280004091D1025091D2026091D3027091D40228
:105290008FBF86E0E5EBF2E0DE01119601900D9202
:1052A0008A95E1F7F090B702E090B8021091B90248
:1052B0000091BA021092B7021092B8021092B9028D
:1052C0001092BA028F2D8E2909F448C08091B30242
:1052D0009091B4020E9479069C019091AF029923AB
:1052E00009F4C3C323333105C8F19F3F19F09F5F11
:1052F0009093AF02FF2059F00E9443089FEF1F14C4
:105300000CF491E0899F802D11248093B702EE2048
:1053100059F00E9443089FEF1E140CF491E0899FFE
:10532000802D11248093B8023091B7023323B1F05D
:105330002091B802222391F045EB3403C0011124DF
:10534000992309F495C19093B70245EB240390018A
:105350001124332309F490C13093B802812F802B9C
:1053600009F448C08091B1029091B2020E9479067E
:105370009C019091AE02992309F472C32536310540
:10538000C8F19F3F19F09F5F9093AE02112359F02F
:105390000E9421089FEF11160CF491E0899F802D47
:1053A00011248093B902002359F00E9421089FEF35
:1053B00010160CF491E0899F802D11248093BA027D
:1053C0003091B9023323B1F02091BA02222391F037
:1053D00045EB3403C0011124992309F451C1909382
:1053E000B90245EB240390011124332309F44CC185
:1053F0003093BA028091B7029091B802892B9091B4
:10540000B902892B9091BA02892B11F00E94810771
:1054100086E0FE013196A5EBB2E001900D928A95EF
:10542000E1F70E94C00690919C02891731F00E941A
:10543000C00680939C020E94A1148091FF028430D8
:1054400009F0C0CD83E08093E9008091E80082FFFD
:10545000B9CD8091E80090E085FF06C00E940B0561
:10546000882309F415C191E08091E8008B7780933F
:10547000E800992309F4A6CDE981E150E33108F071
:105480009BC1F0E0E359F14D0C94702D8091FF0227
:10549000843009F441C080E00E94A1141092C5023A
:1054A0008091BB02811116C0F092BB0280918903EA
:1054B000982F9170909377028E7F80938903BFEF2E
:1054C000E0E7F2E0B150E040F040E1F700C000005A
:1054D0000E94B00F1092D00220E40FB6F894A89565
:1054E000209260000FBE2093600083B7817F8460AC
:1054F00083BF83B7816083BF7894889583B78E7F9D
:1055000083BF0FB6F894A89580916000886180935E
:105510006000109260000FBE8091FE02882371F03F
:105520000E940F23E6EAF2E081919191892B09F024
:1055300078C28EEA92E08E179F07B1F78091FF0242
:10554000853009F4A3CF0E9447160E94C0060E942E
:10555000A1141092BB0280917702882359F08091A8
:10556000890381608093890386950E947B140E9441
:105570009A0F31CD8091C6028823C9F30E94B00FE3
:10558000F6CF6F5FEE0CFF1C6C3009F048CD0F5F5B
:105590001F4F0430110509F033CD8FEF8EA38FA379
:1055A00018A60E9488068160782F9AA789A74EA125
:1055B0005FA168A58AA50E947F2258CD863059F444
:1055C000F0E0EF53FD4FE4910E2F10E094E1E92E4F
:1055D00093E1F92E64CD893061F4E695F0E0E25470
:1055E000FD4FE4910E2F10E085E6E82E82E1F82EC3
:1055F00056CD8F3061F4E695F0E0E554FD4FE4912F
:105600000E2F10E0B0E1EB2EB2E1FB2E48CD85313C
:1056100059F4F0E0E854FD4FE4910E2F10E0ADE9AD
:10562000EA2EA1E1FA2E3BCD08E210E07DE0E72E64
:1056300071E1F72E883109F432CD833249F4E6EB7B
:10564000F2E005911491FBEBEF2EF2E1FF2E27CD56
:1056500004EF11E0E0EDEE2EE0E1FE2E843209F4DD
:105660001ECD00ED17E061EDE62E66E0F62E17CDBB
:1056700081E08093B70269CE81E08093B8026ECE5C
:1056800081E08093B902ADCE81E08093BA02B2CEC0
:1056900000E210E0CE0101967C018091E80085FDDA
:1056A0000AC08091E8008B778093E8000E940B0588
:1056B000882399F3D8CE8091F100D7018D937D0195
:1056C0000150110951F7CFCE1A8289E08B833FC078
:1056D0008A81823009F4BBC18330A9F0813009F09E
:1056E0006BC02FB7F8946091D1027091D202809173
:1056F000D3029091D4022FBF0E94762D6B837C83BE
:105700008D839E8324C08091A6029091A702982742
:10571000892798279C838B838091A8029091A90266
:105720009827892798279E838D838091AA0290913C
:10573000AB0298278927982798878F838091AC029E
:105740009091AD029827892798279A878987809119
:10575000FF02843009F036CC1091E9001F7090915F
:10576000EC00892F817090FD80E8182B82E08093F7
:10577000E9008091E80080FF0DC050E040E060E269
:1057800070E0CE0101960E943C058091E8008E7782
:105790008093E8001F701093E90014CC8A81823056
:1057A00059F46B817C818D819E810E94762D86E2E9
:1057B00090E00E94CF2DCBCF8FEF8983C8CF4C8153
:1057C0006B818A810E94D10E9827892798279E8312
:1057D0008D83BDCFED80FE80FE24EF24FE248A81E0
:1057E0000B81B8E10B9F80011124E0E68E9F000D34
:1057F000111D11248C8190E0880F991F080F191F2B
:105800006F2DC80187960E94CF2D6E2DC8018896F6
:10581000D0CF0E943B0E9BCF8A818138C1F060F4CB
:10582000803809F094CF20E04B8160918B03809108
:105830008A030E944A138BCF823849F1833809F0DA
:1058400086CF20E040918C036C818B81F2CF8B81DD
:105850000E947B149B8180918903911111C08E7FDE
:10586000809389031092C502FFEF20E742E0F150D8
:1058700020404040E1F700C000000E94B00F67CF19
:1058800081608093890386950E947B1460CF8B8111
:1058900080938D035CCF8A81813899F030F4803811
:1058A00009F055CF80918C0311CF823891F0833865
:1058B00009F04DCF80918A038B8380918B038C8379
:1058C00046CF8091890380FF02C08695FFCE80E09D
:1058D000FDCE80918D03FACE6091890370918A0389
:1058E00080918B0390918C030E94381330CF80E11C
:1058F0008A832DCF84E08A8389E1E8CE0A811B81E7
:10590000102701271027CE0101966C01EC80DC01E5
:10591000AE0DB11D7D01C80189519C4FEC14FD04F1
:1059200009F415CF0931B4E01B0750F40E94BB2DD8
:10593000F60184830F5F1F4FBFEFCB1ADB0AEBCF5B
:10594000D60114961C92F6CF0A811B8110270127DD
:105950001027FE0131966F01EC80E00EF12EF11C54
:10596000C80189519C4FE016F10609F4F0CE0931C7
:10597000F4E01F0728F4D60114966C910E94CF2DF5
:10598000BFEFCB1ADB0A0F5F1F4FEACF0E942B0E2F
:10599000DECE8AE0ADCF0A811B81102701271027B8
:1059A000FE0131966F01EC80CF018E0D911D7C01BF
:1059B000C8018796EC14FD0409F4C9CE003CA3E0AD
:1059C0001A0750F40E94BB2DF60184830F5F1F4F0E
:1059D000BFEFCB1ADB0AECCFD60114961C92F6CFA0
:1059E0000A811B81102701271027FE0131966F01C4
:1059F000EC80E00EF12EF11CC8018796E016F1064E
:105A000009F4A5CE003CF3E01F0728F4D601149654
:105A10006C910E94CF2DBFEFCB1ADB0A0F5F1F4F97
:105A2000EBCF09BD19BD09B400FEFDCF8091D800B0
:105A30008F7D8093D8008091E00082608093E000A9
:105A40008091E00081FDFCCF0E94471677CD86E271
:105A500090E00E94BB2D1B821C821D828E8377CE1C
:105A60002D32314008F08FCCC5CC2D32314008F0BA
:105A70003ECC74CC87FB082E062687FD819567FDFA
:105A800061950E948C2D0EF4919507FC81950895E7
:105A9000AA1BBB1B51E107C0AA1FBB1FA617B70754
:105AA00010F0A61BB70B881F991F5A95A9F7809570
:105AB0009095BC01CD01089597FB072E16F4009434
:105AC00007D077FD09D00E94482D07FC05D03EF491
:105AD000909581959F4F0895709561957F4F08959A
