:100000000C94E4060C942B070C942B070C940A30E8
:100010000C942B070C942B070C942B070C942B0798
:100020000C942B070C942B070C94F9190C94B5190C
:100030000C9461260C942B070C942B070C942B0723
:100040000C942B070C942B070C942B070C942B0768
:100050000C942B070C94D01A0C942B070C942B07A0
:100060000C942B070C942B070C942B070C942B0748
:100070000C942B070C942B070C942B070C942B0738
:100080000C942B070C942B070C942B070C942B0728
:100090000C942B070C942B070C942B070C942B0718
:1000A0000C942B070C942B070C942B0737032B6411
:1000B000AAFF000000001C032B64AAFF0000000040
:1000C00004032B64AAFF000000000000D7FF78FFA4
:1000D00000000000000080FF64FF0000000000003E
:1000E0005FFF5AFF000000000000FCFF7DFF0000E2
:1000F000000000005FFF5AFF0000000005010980BA
:10010000A101850319012AB700150126B700950141
:1001100075108100C0050C0901A101850419012A8F
:10012000A002150126A002950175108100C006608D
:10013000FF0961A1010962150026FF0095207508DD
:1001400081020963150026FF00952075089102C001
:1001500005010906A101050719E029E71500250198
:10016000950875018102950175088101050719003F
:1001700029FF150026FF009506750881000508195E
:10018000012905950575019102950175039101C03D
:10019000000000000000000000000000000000005F
:1001A000000000000000000000000000000000004F
:1001B000000000007E0F00D4FFFFFFC700000078A2
:1001C00000000000000000002A2B280000000000B2
:1001D00000000000000000000000002900000000F6
:1001E0002C1E3420212224342627252E362D373864
:1001F000271E1F202122232425263333362E37386D
:100200001F0405060708090A0B0C0D0E0F1011122A
:10021000131415161718191A1B1C1D2F3130232DF6
:10022000350405060708090A0B0C0D0E0F101112F4
:10023000131415161718191A1B1C1D2F3130354CA5
:1002400000DA02815AD9F1DB20A4A62EAF00A0C0AB
:1002500000A1C800AED580A81FD300408D14200097
:10026000F200E800DE00D400CA00C000B600AC0016
:10027000000000000000000000000000000000007E
:10028000000080C0E0F0F0F898F8F8F8F070200076
:10029000000000000060C08000000000C0F0F0F02E
:1002A000E0C0877FFFFFF1C30303030101000000EB
:1002B00000000000000103071F3E78F7FF7F3D03A9
:1002C000070F1E3D7FFFFFFFFC78000000000000CD
:1002D000000000000000000000000000000000001E
:1002E0000000000080E0F0F0F898F8F8F8F07020D6
:1002F0000000008000000000C0F8FC3EDEFEFCF8BC
:100300000000E0FEFF7F070103030301010000007E
:10031000000000071E3C78FFFF7F0100071F3F7CA5
:1003200078FFFF7F070000000000000000000000D1
:1003300000000000000000000000000000000000BD
:1003400000000000000000000000808000000000AD
:1003500000000000C00000000000000000000000DD
:1003600000000000F8FCFEFE1F3F39393F3F1E1E13
:100370000C000000010F3E7870F8FCFE7E3E3C3C15
:10038000787878F0F1FF7F7F3E00000000000000E9
:10039000000000000000000000000000000000005D
:1003A000000000008080C0C06060C0C0C08000004D
:1003B000000000002060C08000000000000000007D
:1003C00000003E7FFFFFE7C70E0E0F0F0707030079
:1003D00000000000000001071F3E78F0FC7E1E1F99
:1003E0000F0E1E1C3D7FFFFFFFFC78000000000089
:1003F000000000000000000000000000E0F0F0F845
:10040000F8CCCCF8F8F0F06000000000000000002C
:100410000000000000000000000000000F3F7FFC13
:10042000F9F1E1C1810000000000000000000000BF
:10043000000000000000000C387060E0E0F0F0F810
:10044000F9FFFFFFFFFF7E1C00000000000000001E
:10045000000000000000000000000000E0F0F0F8E4
:10046000F8CCCCF8F8F0F0600000000000000000CC
:100470000000000000000000000000000F3F7FFCB3
:10048000F9F1E1C1810000010102060C0400000045
:100490000000000000000000387C60E0E0F0F0F8B0
:1004A000F9FFFFFFFFFF7E1C0000000000000000BE
:1004B000000000000000000000000000000000003C
:1004C000000000000000000000000000000000002C
:1004D0000000000000CCF870000000000000C0F038
:1004E000F8F87CFCEEE6FCFC7878B0000000000038
:1004F000000000003F7FF1F8F87C7CF8F0F0F1E7B5
:10050000EFEFFEFEFEFCFCF8F060000103060200C7
:1005100000000000000000000000000000000000DB
:1005200000000000000000000000000000000000CB
:100530000000000080E0F81C000000000000C0F097
:10054000F8F87CFCEEE6FCFC787830000000000057
:10055000000000003F7FF0F8F87C7CF8F0F0F1E755
:10056000EFEFFEFEFEFCFCF8F06000000000000073
:100570000000000000000080C0C0E0E03070E0E05B
:10058000C0C080000000000000000000000000006B
:100590000000000000001F7FFFFFE7E7EFEFCFCB79
:1005A0008383010000000000000000000000000044
:1005B00000000000061C3878F1E3E3E7F7F7FFFFDF
:1005C000FFFF7F3E00000000000000000000000070
:1005D000000000000000000000000000000000001B
:1005E0000000000080C0E0E060E0C0C0808000004B
:1005F000000000000000000000000020F8FEFFFFE7
:10060000FF9F0F0E1F1F3F3F7EE683030F43439064
:1006100088080000031E3C78F0E0E0F0F0FBFFFFEC
:10062000FF7F7F3800000000000000000000000095
:100630000000000004F6B8F8D8F0E0C00000008028
:10064000C0E0E0F0F0F0F0E0E0C08000000000006A
:1006500000000080C0E1F3FB7F1F0F0000F0FFFFF0
:100660003F030100000080C1F3FF7F1F000080C036
:10067000E0301E3F3F7FF9F0F070783C3F1F0F03E2
:10068000000000001C3F7F7FFBF1F0783C1E0F0351
:100690000000000101010101010101010202020249
:1006A000020202020203030303030303030404041C
:1006B00004040404050505050506060606060707E5
:1006C00007070708080808090909090A0A0A0B0B9D
:1006D0000B0C0C0C0D0D0D0E0E0E0F0F0F1010113C
:1006E00011111212131314141515161617171818C2
:1006F00019191A1A1B1B1C1D1D1E1E1F202021222A
:1007000022232424252626272829292A2B2C2D2D6F
:100710002E2F30313232333435363738393A3B3C8C
:100720003D3E3F404142434445464748494A4C4D7F
:100730004E4F50515354555658595A5B5D5E5F6148
:100740006264656668696B6C6D6F707273757778DB
:100750007A7B7D7E8082838587888A8C8E8F919339
:100760009596989A9C9EA0A2A3A5A7A9ABADAFB160
:10077000B3B5B7BABCBEC0C2C4C6C9CBCDCFD1D445
:10078000D6D8DBDDDFE2E4E7E9EBEEF0F3F5F8FAEB
:10079000FDFFFFAA7F55401C1004010D190A2423F8
:1007A0002221201F1E1D1B1A1817161514131211B3
:1007B0000F0E0C0B09080706050302002D394548EA
:1007C0003C303F25262728292A2B2C2E2F31323347
:1007D00034353637383A3B3D3E4041424344464744
:1007E0004907087F0807003E5B4F5B3E003E6B4FAA
:1007F0006B3E001C3E7C3E1C00183C7E3C18001CDE
:10080000577D571C001C5E7F5E1C0000183C1800C2
:1008100000FFE7C3E7FF00001824180000FFE7DB34
:10082000E7FF0030483A060E0026297929260040C5
:100830007F05050700407F05253F005A3CE73C5AED
:10084000007F3E1C1C0800081C1C3E7F0014227FF9
:100850002214005F5F005F5F0006097F017F0000D8
:100860006689956A0060606060600094A2FFA2944F
:100870000008047E04080010207E20100008082ACA
:100880001C0800081C2A0808001E10101010000C7C
:100890001E0C1E0C0030383E383000060E3E0E0690
:1008A0000000000000000000005F000000000700E2
:1008B000070000147F147F1400242A7F2A120023CB
:1008C00013086462003649562050000008070300F0
:1008D00000001C224100000041221C00002A1C7F55
:1008E0001C2A0008083E080800008070300000083C
:1008F00008080808000000606000002010080402DA
:10090000003E5149453E0000427F40000072494987
:100910004946002141494D33001814127F10002729
:1009200045454539003C4A494931004121110907F3
:1009300000364949493600464949291E000000143D
:1009400000000000403400000000081422410014A0
:10095000141414140000412214080002015909065D
:10096000003E415D594E007C1211127C007F4949C6
:100970004936003E41414122007F4141413E007FD6
:1009800049494941007F09090901003E414151732C
:10099000007F0808087F0000417F4100002040419F
:1009A0003F01007F08142241007F40404040007F0B
:1009B000021C027F007F0408107F003E4141413E3F
:1009C000007F09090906003E4151215E007F091997
:1009D00029460026494949320003017F0103003FAF
:1009E0004040403F001F2040201F003F4038403F14
:1009F0000063140814630003047804030061594978
:100A00004D4300007F4141410002040810200000D6
:100A10004141417F00040201020400404040404047
:100A2000000003070800002054547840007F284449
:100A3000443800384444442800384444287F00386F
:100A4000545454180000087E09020018A4A49C788D
:100A5000007F080404780000447D400000204040EE
:100A60003D00007F102844000000417F4000007CD2
:100A700004780478007C080404780038444444383E
:100A800000FC182424180018242418FC007C0804F6
:100A900004080048545454240004043F4424003CF7
:100AA0004040207C001C2040201C003C4030403C4A
:100AB000004428102844004C9090907C00446454DA
:100AC0004C440000083641000000007700000000A0
:100AD00041360800000201020402003C2623263CA5
:100AE00000000000000000404040F0F8F8FF38FF30
:100AF000F8F83FF8F8FF38FFF8F8F0404040000001
:100B00000000000080C0C0C0800000C0C0800000A5
:100B10000080C0C000C0C0000080C0C00000000055
:100B200000C0C0C0C0C000C0C00000000000000085
:100B300000000000000000000000000000000000B5
:100B400000000000000000000000000000000000A5
:100B50000000000000000000000000000000000095
:100B6000C0F0F8FC3E1E06010000007F4141417FBD
:100B7000007F4141417F000080C0E07E5B4F5BFE13
:100B8000C00000C000DCD7DEDEDED7DC00C0000025
:100B90000000000000000000000000000000000055
:100BA00000000000000000494949FFFFFFFFE0DFAF
:100BB000BFBF00BFBFDFE0FFFFFFFF4949490000A3
:100BC0000000001F3F6060E0BF1F007F7F071E38EE
:100BD0001E077F7F007F7F0E1F3B716000000000BB
:100BE000007F7F0C0C0C007E7E007F7E0303007F65
:100BF0007E03037E7E03037F7E000F3E703C063C37
:100C0000703E0F00327B49493F7E007F7E03030028
:100C10001E3F69696F260000000000000000000010
:100C2000030F1F3F3C7870600000007F4141417F0F
:100C3000007F4141417F00307B7F78302020307839
:100C40007F3B0003000F7F0F0F0F7F0F000300009B
:100C50000000000000000000000000000000000094
:100C600000000000000000010101070F0F7F0F7F4F
:100C70000F0F7E0F0F7F0F7F0F0F07010101000085
:100C80000000000000000000010100000000000062
:100C90000000000000000000000000000000000054
:100CA0000000000000000000000000000000000044
:100CB0000000000000000000000000000000000034
:100CC0000000000000000000000000000000000024
:100CD0000000000000000000000000000000000014
:100CE0000000000000000000000000000000000004
:100CF00000000000000000000000000000000000F4
:100D000000000000000000000000000000000000E3
:100D100000000000000000000000000000000000D3
:100D20000000AF00AE09025B00030100A0FA090455
:100D3000000001030101000921110100012240000E
:100D40000705810308000A090401000203000000EE
:100D50000921110100012222000705820320000160
:100D6000070503032000010904020001030000003D
:100D70000921110100012232000705840320000A25
:100D8000120100020000000832FC8712020001027A
:100D900000011E0353006F006C00610072006900C7
:100DA000750073005F0053006F0066006C00650003
:100DB000000010034B0065007900680069007600B0
:100DC000650000000403090411241FBECFEFDAE020
:100DD000DEBFCDBF04B603FE27C0809167069091A9
:100DE0006806A0916906B0916A068730904BA740CB
:100DF000B04BD1F410926706109268061092690603
:100E000010926A0614BE84B7877F84BF0FB6F89429
:100E1000A8958091600088618093600010926000C6
:100E20000FBEE0E0F8E3099512E0A0E0B1E0ECEBE2
:100E3000FEE602C005900D92A833B107D9F726E06F
:100E4000A8E3B2E001C01D92A736B207E1F70E9405
:100E500088260C9425370C940000CF93DF934091A3
:100E6000650650916606455654409A01205A3F4FF8
:100E700021303240C0F020E032E0241B350B60917D
:100E8000630470916404FC01CA01240F351FC1E0A2
:100E9000D0E08217930750F070936404609363046A
:100EA000DF91CF91089520E630E0E9CF4491DC0155
:100EB000AB59BB4F5C91451781F04C93AC01A5E059
:100EC00056954795AA95E1F7DE0102C0AA0FBB1F10
:100ED0004A95E2F7AD016A2B752B01963196D9CF71
:100EE000E8EDF0E080818E7F80831092E200109226
:100EF000DA001092E100A0EEB0E08C9181608C935A
:100F000080818F77808319BCA7EDB0E08C918E7FB4
:100F10008C9380818F7E8083109245040895209168
:100F2000E4003091E50095E6A9012091EC00822FC4
:100F3000817020FF06C08091E80080FF06C080E03D
:100F400008952091E80022FD1AC08091530488235F
:100F500089F0853089F08091EB0085FD0FC02091EC
:100F6000E4003091E50042175307F9F29150E1F6A1
:100F700084E0089582E0089583E0089581E0089573
:100F8000EF92FF920F931F93CF937C018B010E94EE
:100F90008F07C82F811117C08091E80085FD0BC015
:100FA0008091E8008E778093E8000E948F07882365
:100FB00099F3C82F08C0F70181917F018093F10058
:100FC0000150110949F78C2FCF911F910F91FF907C
:100FD000EF9008958091550487FF13C08091E80039
:100FE00082FF06C08091E8008B778093E80004C000
:100FF000809153048111F2CF089580915304882386
:10100000D9F38091E80080FFF8CF8091E8008E77D7
:10101000ECCF982F9093E900242F762F50E089177A
:1010200031F07091EC002091ED005091F00021FD25
:1010300007C09F5F973071F78093E90081E00895C2
:101040003091EB003E7F3093EB003091ED003D7F1F
:101050003093ED003091EB0031603093EB007093F2
:10106000EC002093ED005093F0002091EE0027FD5E
:10107000E0CF80E00895CF92DF92EF92FF920F933E
:101080001F93CF93DF93C8EDD0E088818F7E888354
:10109000E7EDF0E080818160808384E082BF81E0C1
:1010A0008093450488818E7F888302EE10E0F801EA
:1010B00010821092DA0081EEC82ED12CF601108237
:1010C00088818F77888388818068888388818F7DF5
:1010D000888319BC10925304109254041092520445
:1010E0001092510490EEE92EF12CF70180818B7F54
:1010F000808388818160888342E060E080E00E9494
:101100000908F60180818E7F8083F80180818160EB
:101110008083808188608083F70180818E7F8083D7
:10112000888180618883DF91CF911F910F91FF901B
:10113000EF90DF90CF900895FC0180915B04909137
:101140005C0486179707A0F06115710529F490914A
:10115000E8009E779093E80090E06115710551F4E6
:10116000911108C08091E80082FF34C080E00895AA
:10117000BC01F2CF809153048823C1F18530C1F1C5
:101180008091E80083FD30C08091E80082FDEACFC5
:101190008091E80080FFE1CF8091F3002091F20080
:1011A000382F6115710519F02830310558F091E09C
:1011B0002830310509F090E02091E8002E77209347
:1011C000E800CBCF81918093F100615071092F5FCE
:1011D0003F4FE7CF80915304882341F0853041F0A1
:1011E0008091E80083FFBECF81E0089582E00895FA
:1011F00083E0089508958091480408952FB7F894E6
:1012000060913E0470913F048091400490914104AC
:101210002FBF089520913B0430913C0428173907D3
:1012200071F090933C0480933B04E0913904F09179
:101230003A04309721F00084F185E02D0994089557
:1012400020913704309138042817390771F09093B2
:10125000380480933704E0913904F0913A043097D0
:1012600021F00680F781E02D0994089520912A0449
:1012700036E0839FC0011124629F800D911D1124CF
:10128000811522E0920714F090E080E08B599B4F8B
:1012900090936606809365060895FC01680F791F98
:1012A0008FEF91E32191822728E030E087FF09C08A
:1012B000880F892721503109C9F7E617F70791F7F9
:1012C0000895880FF7CFFA01811101C0FB0109943D
:1012D00080915E04982F9E7F61F48170826080937C
:1012E0005E0480916104813A18F080EA8093610481
:1012F00008958831B0F381708661F1CFAF92BF92CB
:10130000DF92EF92FF920F931F93CF93DF93082FFB
:10131000162FE901E42FF0E0EE56F94F611110C0ED
:10132000E4915E2F4E2F4983E8835A83DF91CF915A
:101330001F910F91FF90EF90DF90BF90AF900895B5
:10134000E62EF12C4491D42EE42FF0E026E0829F8B
:10135000C00111242FEF30E0B9010E948431802FA9
:1013600090E0880F991F55E5569FD001579FB00D0B
:1013700011248A1B9B0B982F990F890F5901AE18C6
:10138000BF08AE9ED001AF9EB00DBE9EB00D112421
:101390005B2F189F80011124012F11275901A01ADA
:1013A000B10AAE9E8001AF9E100DBE9E100D11249D
:1013B0005901A81AB108AE9CC001AF9C900DBE9C0B
:1013C000900D1124892F9927281B390B2E9FC001BE
:1013D0002F9F900D3E9F900D1124E92F62307105D3
:1013E000A1F050F46115710509F49DCF61307105CC
:1013F00081F0EB2F512F97CF6430710569F080F0A9
:101400006630710509F48FCFF4CFE42F4B2F592F9D
:101410008ACFE42F412F87CFEB2F542F492F83CF33
:101420004B2F5D2DE12F7FCF80E0089578940895B4
:10143000F894E82FE295EF70F0E031A1282F2F709B
:1014400081E090E001C0880F2A95EAF7982F9095E7
:10145000932391A392A1892B82A30C94160A9091B5
:10146000E50292FF06C0282F28712830F9F4877F03
:10147000846093FF06C0282F28712831F1F4877EFD
:1014800084612091E60220FF06C0382F3871383081
:10149000D9F4877F816021FF06C0282F2871283169
:1014A000D1F4877E816194FD877E0895282F247171
:1014B0002430F9F68B7F8860DCCF282F247124310B
:1014C00001F78B7E8861DDCF382F3171313019F70C
:1014D0008E7F8860E0CF282F2171213121F78E7E09
:1014E0008861E1CFCF93DF93EC018238910581F1E0
:1014F000B0F58133910509F491C020F58932910549
:1015000009F485C08A9709F490C0C11521E5D20776
:1015100008F0AAC0C11530E5D30708F0F2C0CF3BF0
:10152000D10508F089C0C83AD10508F0DFC0C53A36
:10153000D10508F0D3C0C430D105F8F4C130D105CD
:10154000E1F040C08533910509F45AC0C997E9F626
:101550008091E502837089F0C0EED0E00EC0833E3A
:10156000910599F170F4803E910501F1823E91055B
:1015700061F68091E50282FD21C0CE01DF91CF911D
:101580000895863E910561F1873E910571F1843E93
:10159000910509F0BACF8091E60281FFEECF8091EC
:1015A000E502C7EED0E084FD0DC0E7CF8091E502F3
:1015B00080FDF7C09091E60290FFDFCFC3EED0E050
:1015C00084FFDBCFD0E0C0E0D8CF8091E50282FD80
:1015D000EBC09091E60290FDBFCF84FFCECFF2CF5B
:1015E0008091E50283FDDDCFC8CF8091E50283FDC8
:1015F000DEC09091E60291FFF0CFC4EED0E0BDCF07
:101600008091E50285FFB9CFC9E2D0E0B6CF8091E5
:10161000E50285FFB2CFC5E3D0E0AFCF8091E50210
:1016200086FFABCFCAE2D0E0A8CF8091E50286FF6B
:10163000A4CFC1E3D0E0A1CFC11540E2D40760F44C
:10164000C11581E0D80708F098CFCE01815E9109DD
:10165000079708F492CFB6CFC11590E4D90708F4E4
:10166000B1CFDF70D06A89CFC11524E5D20778F4F5
:10167000C11533E5D30708F072C0C11542E5D407A0
:1016800008F05CC0DC2FCC27C16FD06A76CFC115C3
:101690008AE5D80778F4C11599E5D90708F073C031
:1016A000C11528E5D20708F48DCFDC2FCC27C06FF9
:1016B000D06A63CFCE0190568115904208F082CF58
:1016C0008D2F8F710E942F0A90E0982F88278827EE
:1016D0009F719C012C2BE901D0624FCFC55AD0E0FD
:1016E000CF52DE4FC881D0E0D06447CFC85AD0E097
:1016F000CC0FDD1FCC52DE4F0990D881C02DD464B1
:101700003CCFCE0164E0969587956A95E1F78370AA
:101710002C2F26952695237040E2249F90011124BA
:10172000382B8C2F8370C1E0D0E002C0CC0FDD1FBE
:101730008A95E2F7C22BD32BDC681FCFCE018370D2
:10174000992721E030E002C0220F331F8A95E2F78B
:10175000C695C69580E2C89FE0011124EBCFCE016B
:101760008370992721E030E002C0220F331F8A9551
:10177000E2F7C695C69590E2C99FE0011124C22BFD
:10178000D32BDA68FACE8C2F8F700E942F0A34E0A8
:10179000D695C7953A95E1F7CF709C2FEC01D069AB
:1017A000ECCEC9E3D0E0E9CEC2EED0E0E6CEC6EEA4
:1017B000D0E0E3CE0C94FE088091460490919B0209
:1017C000892B90919A02892B80933A02E0913904F7
:1017D000F0913A04309731F00280F381E02D8AE3F2
:1017E00092E009940895809199029091680298136B
:1017F00001C008958F5F8770FACF27E0929F800D18
:101800001124982F977086958695869523E0829F60
:10181000F0011124E95BFD4F50E040E080E02191B0
:1018200030E0092E02C0369527950A94E2F7217020
:101830003327042E01C0220F0A94EAF7822B4F5F50
:101840005F4F4330510559F7089527E0929F800D6F
:101850001124982F977041E001C0440F9A95EAF740
:1018600086958695869593E0899FF0011124E95B22
:10187000FD4F90E080E070E05191DF0111979B01F6
:10188000082E02C0369527950A94E2F7217021951B
:101890002527242325272C9301968330910561F772
:1018A000089590E080E00E94200990E080E00E948E
:1018B0000A0910929B0210929A020C94DC0B8093FE
:1018C0009C020C94510C882341F080959091460421
:1018D0008923809346040C94DC0B0895882339F007
:1018E00090914604982B909346040C94DC0B089539
:1018F0008823B1F19CEF980F913A70F4ECE3F2E099
:101900009191891303C0DF0111971C9242E0E234E8
:10191000F407B1F70C94DC0B90E2980F983088F440
:10192000877021E030E0A90102C0440F551F8A955D
:10193000E2F7CA018095909146048923809346047A
:10194000E9CF9BE5980F933020F490E080E00C9471
:101950002009885A873120F490E080E00C940A092D
:1019600008950F931F93CF93C82F882309F469C05C
:101970008CEF8C0F813AB0F50CE312E082E492E038
:10198000F8012191C21701F122E0E234F207C9F710
:10199000EFEF80E0D8019D918D01C91781F0EF3FF5
:1019A00019F4911101C0E82F8F5F863099F7EF3F4E
:1019B00031F00E2E000CFF0BE65CFD4FC283CF9181
:1019C0001F910F910C94DC0BECE3F2E02191C21318
:1019D00003C0DF0111971C928E179F07B9F70E9471
:1019E000DC0BD6CF80E28C0F883068F4C77021E022
:1019F00030E001C0220FCA95EAF780914604822B9D
:101A000080934604DCCFEBE5EC0FE33050F4F0E0DC
:101A1000EF52FE4F808190E0CF911F910F910C9477
:101A20002009C85AC73168F4EC2FF0E0EE0FFF1F11
:101A3000EC52FE4F80819181CF911F910F910C94B8
:101A40000A09CF911F910F910895982F92959F7039
:101A500011F0892F94E0282F2695269511F09E5F8E
:101A6000822F869509F09F5F892F0895CF92DF928C
:101A7000EF92FF920F931F93CF93DF936C017B0143
:101A800064E670E088E70E94612EEC0197FD12C0C9
:101A900010E000E0F601E00FF11F849164E670E0D1
:101AA0000E94DB2EEC01892B29F40F5F1F4F0E15CE
:101AB0001F0581F70E945E2FCE01DF91CF911F910C
:101AC0000F91FF90EF90DF90CF90089580913504B3
:101AD00090913604911103C091E0892708958823DD
:101AE00069F062E070E083E29DE00E94360D892B90
:101AF00019F08091350408951092350480913504D1
:101B0000EBCFCF93C0913504809136048823D1F078
:101B10000E94FE086058774C8E4F9F4F60933104AF
:101B2000709332048093330490933404C11108C03D
:101B300062E070E081E29DE00E94360D892B29F081
:101B4000C09135048C2FCF91089581E080933504A6
:101B5000F7CF90915304943029F580934204709309
:101B60004404609343049093E9008FEF9091E80060
:101B7000815095FD06C095ED9A95F1F70000811111
:101B8000F5CF8091E80085FF0DC050E040E063E0B4
:101B900070E082E494E00E94C0078091E8008E77B4
:101BA0008093E8000895BC0184E00C94A90DBC0169
:101BB00083E00C94A90DCF93DF93EC0181E0809337
:101BC000E9008FEF9091E800815095FD06C095EDFA
:101BD0009A95F1F700008111F5CF8091E80085FF1B
:101BE00014C050E040E068E070E0CE010E94C00701
:101BF0008091E8008E778093E80088E0FE01A9E4F8
:101C0000B4E001900D928A95E1F7DF91CF910895AC
:101C10009F92AF92BF92CF92DF92EF92FF920F937B
:101C20001F93CF93DF937C015B016A018091E002F7
:101C300001E010E08A3010F40AE010E0C1E0D0E0EA
:101C4000F894B501C701F6010995982E0E94160A6D
:101C5000911004C021960C171D076CF4892DDF919B
:101C6000CF911F910F91FF90EF90DF90CF90BF9099
:101C7000AF909F900895CC9F9001CD9F300D300D77
:101C8000112490E080E045E34A95F1F700000196C9
:101C900082179307C1F7D4CF8091AB02811110C096
:101CA0008091D80080618093D8008AE18A95F1F70D
:101CB00000C08091D90080FF0AC081E08093AB0210
:101CC00081E09091AB02913009F080E0089582E0CC
:101CD0008093AB020E94700710925304F1CF0E94D0
:101CE0004C0E882351F0E0913904F0913A0430977A
:101CF00021F00190F081E02D099480E008951F9378
:101D0000CF93DF93182FEB010E94B10C8FE99FE076
:101D10000197F1F700C000002197C1F7812FDF91F3
:101D2000CF911F910C94780C4F925F926F927F929B
:101D30008F929F92AF92BF92CF92DF92EF92FF92DB
:101D40000F931F93CF93DF93CDB7DEB7CE5DD1094D
:101D50000FB6F894DEBF0FBECDBF509077019091C3
:101D60005E0490FF5DC080904A0390904B03811405
:101D7000910409F068C0E7E9F7E09E012F5F3F4F4B
:101D8000BE0161527F4FC901A4914A2F50E0DA0190
:101D9000AA0FBB1FA40FB51FA45BBC4FCD90DD9055
:101DA000EC90D901CD92DD92ED929D0131966A17AA
:101DB0007B0751F72091760143E0249F800D911D10
:101DC0001124539A2BB1277F3BB138605FB7F89449
:101DD000BC01549E600D711D11248617970709F0F0
:101DE0008EC05FBF8FE594E00197F1F700C000005F
:101DF000C252DF4F0FB6F894DEBF0FBECDBFDF91EA
:101E0000CF911F910F91FF90EF90DF90CF90BF90F7
:101E1000AF909F908F907F906F905F904F900895BC
:101E2000809178012091790133E0839FF0011124A2
:101E3000E45BFC4F821708F096CF11821082128269
:101E40008F5F3396F7CF90FF96CFD12CC12C6624AD
:101E50006394712C53E0452E8091490393010C2C1F
:101E600001C0220F0A94EAF7822309F43FC0F60169
:101E7000EE0FFF1FE80DF91DE590F490E114F10459
:101E800009F479CF45E050E0B701CE0101960E94F8
:101E90003D3209810F3F51F18A81800F9927991FA7
:101EA0008B34910514F08AE490E05C01AA0CBB1C11
:101EB0008A0D9B1DDC01A45BBC4F5D01049D80016C
:101EC0001124045B1C4F0A151B0520F0B5E0EB0E36
:101ED000F11CD8CF4D81413A08F040EA98016C815D
:101EE0008B810E947E090D5F1F4FEDCFEFEFCE1A61
:101EF000DE0AF8E0CF16D10409F0AECF3CCFFC01EA
:101F00004191CF01E8E03BB9000000C047FF2BB989
:101F1000440F000000C000C000C02BB900C0EA950B
:101F200091F75BCFEEE5F4E080818E7F8083E6E47D
:101F3000F3E08281816082832FEF80E792E021507D
:101F400080409040E1F700C000000C94940EECE358
:101F5000F2E086E0DF011D928A95E9F70C94510CBE
:101F60001F93CF93DF93CDB7DEB7AA970FB6F89440
:101F7000DEBF0FBECDBF85E594E02091F100DC010E
:101F80002D93CD01B4E08D359B07B9F780915604B0
:101F9000833009F471C0B8F4813009F448C082304C
:101FA00009F4B4C08091E80083FF3CC180915504DE
:101FB000909156049A3008F035C1E92FF0E0E95DC0
:101FC000F84C0C94D7318A3009F48FC08B3009F467
:101FD00070C0893039F780915504813219F78091AA
:101FE000590490915A04009711F00297D9F6809104
:101FF000E800877F8093E8008091E80082FF37C087
:102000009091F3008091F200029729F48091F10001
:102010008B7F813021F48091F1008093480480917E
:10202000E8008B778093E8000E94EA07BBCF80919D
:102030005504813A09F0B6CF8091E800877F8093FC
:10204000E8008091590490915A04892B61F468E06A
:1020500089E494E070E00E949C088091E8008B770E
:102060008093E8009FCF60E090E080E0F3CF809124
:1020700053048111C1CF96CF80915504813A09F064
:1020800091CF8091590490915A04892B09F08ACFFD
:102090008091E800877F8093E8008091E80080FFCE
:1020A000FCCF80917B018093F1008091E8008E77D6
:1020B000B9CF80915504813209F074CF80915904D1
:1020C00090915A04892B09F06DCF8091E800877FA9
:1020D0008093E8000E94EA078091570480937B0177
:1020E000109246040E94A70F5DCF80915504813263
:1020F00009F058CF8091E800877F8093E8000E9424
:10210000EA0780915804809347044CCF809155048E
:10211000813A09F047CF8091E800877F8093E800FB
:102120008091E80080FFFCCF80914704BCCF8038CD
:1021300099F0823809F076C0809159048F70873009
:1021400008F070C08093E9008091EB0085FB882740
:1021500080F91092E90006C08091510490915204D8
:10216000911182609091E800977F9093E8008093AE
:10217000F1001092F1008091E8008E77B5C18823BC
:1021800009F4A2C1823009F04DC080915704811139
:10219000A6C1809159048F702FEF280F263008F0C8
:1021A00041C08093E9002091EB0020FF98C193305B
:1021B00031F48091EB0080628093EB0090C19091AC
:1021C000EB0090619093EB0021E030E001C0220F22
:1021D0008A95EAF72093EA001092EA008091EB00DA
:1021E0008860EACF81111EC0109157041F7780913B
:1021F000E3008078812B8093E3008091E800877F63
:102200008093E8000E94EA078091E80080FFFCCFFD
:102210008091E30080688093E30082E0111183E005
:10222000809353048091E80083FF0AC08091E80006
:10223000877F8093E8008091EB0080628093EB00C1
:10224000AA960FB6F894DEBF0FBECDBFDF91CF9137
:102250001F9108958058823028F7209157043091BB
:1022600058042C3DE3E03E07A1F583E08A838AE22F
:1022700089834FB7F894DE01139620E03EE051E2E7
:10228000E32FF0E050935700E49120FF03C0E29564
:10229000EF703F5FEF708E2F90E0EA30C0F0C7968E
:1022A0008D939D932F5F243159F74FBF8091E800A4
:1022B000877F8093E8006AE270E0CE0101960E9479
:1022C0009C088091E8008B778093E800ABCFC096A4
:1022D000E7CF8091590490915A04432F55274330FA
:1022E000510509F44AC078F54130510509F47AC026
:1022F0008BE590E0E5E2FDE04230510509F092CF38
:102300002091E800277F2093E80020915B04309122
:102310005C048217930708F49C0140E02115310505
:1023200009F065C0411163C08091E80082FDC9CF0A
:1023300080915304882329F2853019F28091E800B6
:1023400083FFF2CFBECF4132510509F43CC0423287
:10235000510509F067CF8330910508F063CFFC0188
:10236000EE0FFF1FE55DFD4F0190F081E02D885DD0
:102370009D4FDC018C9190E01AC03327213031054C
:10238000D1F02115310561F02230310509F04ACF35
:10239000E2E9FDE0E4918E2F90E0E2E9FDE007C084
:1023A000E4ECFDE0E4918E2F90E0E4ECFDE000979A
:1023B00009F438CFA5CFE2EBFDE0E4918E2F90E059
:1023C000E2EBFDE0F4CF8330910508F02BCF880FCE
:1023D000991FFC01EF5CFD4F0190F081E02D89E039
:1023E00090E08ECF82E190E0E0E8FDE089CF80913F
:1023F0005304882309F465CF853009F462CF8091B6
:10240000E80083FD5ECF8091E80082FD8DCF809152
:10241000E80080FF83CF9091F3008091F2002115B6
:10242000310519F08830910550F041E0089709F026
:1024300040E08091E8008E778093E8006FCF449170
:102440004093F1003196215031090196E8CF803850
:1024500009F0E8CE8091E800877F8093E8008091C2
:1024600054048093F10087CE8111DCCE1091570483
:10247000123008F0D7CE8091E800877F8093E80083
:10248000109354040E94EA07112311F084E005C060
:102490008091E30087FDFACF81E08093530442E00E
:1024A00061EC81E00E94090842E261EC84E00E9454
:1024B000090842E261EC82E00E94090842E260EC15
:1024C00083E00E940908AECE80915704813009F064
:1024D000A9CE81E0933009F080E0809352041092FD
:1024E000E9008091E800877F8093E8000E94EA0776
:1024F00099CE1F93CF93DF93162FC0916506D0918D
:1025000066068A30D1F420912A04CE018556944083
:10251000622F70E00E948431281B822F66E00E94A7
:102520009831C82FC15020F4DF91CF911F910895A9
:1025300060E080E20E947912F5CF8D30E9F4C55653
:10254000D44020912A04622F70E0CE010E94843191
:10255000281B822F9E01280F311D2115324018F0B3
:1025600080E0D0E0C0E0C80FD11DCB59DB4FD09345
:102570006606C0936506D8CF96E0FE01ABE2B4E0F4
:1025800001900D929A95E1F7803E90F186E0FE0170
:1025900011928A95E9F7C0916506D09166061111EE
:1025A00033C046E050E0BE018BE294E00E94463228
:1025B0009E0125563440892B91F52A5F3F4F40916B
:1025C0002A04642F70E0C9010E948431481B463000
:1025D00010F4240F311D211572E0370710F030E0A0
:1025E00020E02B593B4F30936606209365069CCF25
:1025F000F6E08F9FB00111246F51784F46E050E014
:10260000CE010E943D32C7CF9E012A5F3F4FFE019F
:102610002E173F0731F2808180958193F9CFC90150
:1026200045E0969587954A95E1F741E050E0BA017B
:1026300002C0660F771F8A95E2F7CB0160916304B1
:1026400070916404862B972BB9016B5F7F4FE5E097
:1026500076956795EA95E1F702C0440F551F6A9594
:10266000E2F7842B952B9093640480936304A5CFA9
:10267000FF920F931F93CF93DF93EC01F62EFC0193
:1026800001900020E9F78F0101501109C017D1070F
:1026900030F0DF91CF911F910F91FF9008956F2D32
:1026A00089910E947912F2CFCF93DF93C3EED2E0EB
:1026B00060E0CE010E9402352196C11584E0D80762
:1026C000B9F7DF91CF9108956F927F928F929F9289
:1026D000AF92BF92CF92DF92EF92FF920F931F9330
:1026E000CF93DF9381EEC82E87E0D82E91ECE92EB0
:1026F000F12CE701CC58D10936011BC0F5018590BA
:102700009490692DC8010E940235682DC801019678
:102710000E94023582E0A80EB11C0E5F1F4FC01749
:10272000D10761F78EE0680E711C2E96CE15DF057D
:1027300029F08E010E5011095301E0CF7E018CE883
:10274000E80EF11C8CE8C80ED11C8DE7E81683E07A
:10275000F80679F6DF91CF911F910F91FF90EF90DE
:10276000DF90CF90BF90AF909F908F907F906F90B1
:102770000895CF93C82F6FEF811161E283E290E05B
:102780000E9402356FEFC11169E084E290E00E947F
:1027900002356FEFC11164E185E290E0CF910C94B6
:1027A000023580E00E94B91360E086E290E00E946A
:1027B00002350E9464130E94541381E00C94B913F3
:1027C0000F931F93CF93DF93C42FD0E0CC0FDD1F67
:1027D0002EE0629FC00DD11D11243CE8839FC00DE7
:1027E000D11D1124CE0187960E94EE34082F10E0EF
:1027F000102F0027CE0188960E94EE349801282BD6
:10280000C901DF91CF911F910F910895462F853017
:1028100038F47A3028F4673018F4672F0C94E013FA
:1028200090E080E00895CF92DF92FF920F931F9384
:10283000CF93DF936C0100915D0480919C02082B83
:10284000C7E0D0E010E0FC2EC8010C2E02C0959528
:1028500087950A94E2F780FD0CC02197A0F7F12C30
:102860008F2DDF91CF911F910F91FF90DF90CF902F
:102870000895B6018C2F0E9406140E94720A0197D7
:1028800061F3EECFCF93DF93EC010E941314BE01EE
:102890000E940614DF91CF910C94720AFC01808192
:1028A00091810E944214292F2F7092959F7092500F
:1028B0009E3078F4E92FF0E0EF5CF84C0C94D731BF
:1028C000803F19F020F4883E20F481E00895843F91
:1028D000E1F380E00895883EC0F3813FD1F7F5CF62
:1028E000822F869586958695089583E290E00E94D2
:1028F000EE34813289F484E290E00E94EE34893033
:1029000059F485E290E00E94EE3491E0843109F0C0
:1029100090E0892F8170089580E0FCCFCF92DF9204
:10292000EF92FF926B017C010E946809B701A6013A
:1029300088E090E0FF90EF90DF90CF900C941435FA
:10294000AF92BF92CF92DF92EF92FF920F931F93BD
:10295000CF93DF9300D00F92CDB7DEB7082FF62EBE
:10296000142FE22E80915E0480FF4FC0E82FE69581
:10297000AE2FB0E0A45EBD4F9C91909346038E7F36
:10298000823009F056C0413A08F040EA9E012F5FBC
:102990003F4F6F2D802F0E947E0980915E0480FF43
:1029A00011C02B8139814A81809178019091790100
:1029B00053E0859FF0011124E45BFC4F891798F1E7
:1029C0000E94940E80915F04801308C0809160047F
:1029D0008F1104C080916104811729F08091480310
:1029E00082608093480300935F04F0926004109328
:1029F0006104EE2051F060915E0470915F0480915B
:102A00006004909161040E948E140F900F900F90BB
:102A1000DF91CF911F910F91FF90EF90DF90CF90BA
:102A2000BF90AF9008954183308322838F5F3396A8
:102A3000C5CF923039F6E2508E2F8170D82EE695B0
:102A4000F0E0EE56F84FA590B490C12CBB246091F5
:102A50007A01C61608F0B4CF2C2D30E0A29EC0013A
:102A6000A39E900DB29E900D112470E00E948431BF
:102A7000802FD11016C0860F40917801420F532F3E
:102A8000511D9A01220F331F240F351F245B3C4F29
:102A9000412F113A08F040EA6F2D0E947E09C3943D
:102AA000D6CF861BE9CFEEE5F4E0438121E1421B5E
:102AB00008F440E021E0628181810C94A014EEE5ED
:102AC000F4E0438121E1420F08F44FEF21E06281FD
:102AD00081810C94A014EEE5F4E0628121E1621B97
:102AE00008F460E021E0438181810C94A014EEE5BC
:102AF000F4E0628121E1620F08F46FEF21E043818D
:102B000081810C94A014EEE5F4E0818121E0438101
:102B1000628188500C94A014EEE5F4E0818121E0FC
:102B200043816281885F0C94A014809162048823A1
:102B300019F081508093620460915E0470915F048B
:102B400080916004909161040C948E1480916204D1
:102B5000833018F48F5F8093620460915E047091FB
:102B60005F0480916004909161040C948E149091A4
:102B70005E0490FF27C0917081111DC092609093F8
:102B80005E0480914803816080934803662351F07E
:102B900060915E0470915F04809160049091610483
:102BA0000E948E1420E04091610460916004809145
:102BB0005F040C94A0148C3010F09661E0CF880F65
:102BC000982BDDCF089521E030E0A90102C0440F29
:102BD000551F8A95E2F7CA0120914903662391F0B7
:102BE000822B80934903809148038061809348033E
:102BF00080914703811109C080915E0460E0869551
:102C00000C94B71580958223ECCF0895CF93DF9372
:102C1000C82FC17082FBDD27D0F981FB662760F9E0
:102C200085E00E94E31561E06C2786E00E94E315D1
:102C30006D2F87E0DF91CF910C94E3150F931F93D5
:102C4000CF93C82F61E08111682F617080E00E94EE
:102C5000E315C1FB662760F9C11101C060E081E0A6
:102C60000E94E315C2FB662760F9C11101C060E054
:102C700082E00E94E315C3FB662760F9C11101C021
:102C800060E083E00E94E315C4FB662760F9C11190
:102C900001C060E084E00E94E3154C2F50E070E03A
:102CA00060E0DB01CA01F4E0B695A795979587959A
:102CB000FA95D1F70097A105B10549F1AC01BD0125
:102CC00084E08A019B01E2E03695279517950795E8
:102CD000EA95D1F7011511052105310519F08E5F2F
:102CE000B901A8017695679557954795452B462BD1
:102CF000472B09F08F5F823009F158F4882391F057
:102D00008130B9F08C2FCF911F910F91089580E001
:102D1000D8CF8330C1F08430A9F720E040E56FEFD1
:102D20008AED04C020E040E56FEF82E30E94A0142A
:102D3000E9CF20E040E56FEF8CEFF8CF20E040E5F1
:102D40006FEF80E5F3CF20E040E56FEF86E7EECF51
:102D50000E941E1680935D040C94510C80915D04BA
:102D6000982F9670963019F488600C94A816877F77
:102D7000FCCF21E030E001C0220F8A95EAF72095D0
:102D800080915D0482230C94A81621E030E001C0FC
:102D9000220F8A95EAF780915D04822B0C94A81685
:102DA00080915E048695815009F48BE061E00C947B
:102DB000B71580915E0486958F5F8C3008F081E0B6
:102DC00061E00C94B71580915E0480FF07C0869582
:102DD00082588F77893010F40C94D91661E082E024
:102DE0000C94B715EEE5F4E083E0808311828FEF59
:102DF000828380EA83831482A6E4B3E012968C91E6
:102E00001297836012968C93608171818281938185
:102E10000C948E1469EE7EEF90E080E00E942035E5
:102E200060E082E090E00E94023560E083E090E0A4
:102E30000E94023510929C0260E084E090E00E94C3
:102E4000023560E082E290E00E94023560E085E0B9
:102E500090E00E94023560E086E090E00E9402353A
:102E60006FEF87E090E00E94023540E050E0BA0149
:102E700088E090E00E94143560E08DE090E00E94D0
:102E8000023540E050E0BA0188E190E00E9414353C
:102E900060E087E190E00E94023540E050E0BA0136
:102EA0008CE190E00E94143570E060E080E290E0F8
:102EB0000E94203540E050E0BA0188E190E00E9495
:102EC000143580E00E94B9130E94D11340E050E015
:102ED000BA018FE090E00E94143540E050E0BA0162
:102EE00083E190E00C9414350F931F93CF93DF93FD
:102EF00000D000D0CDB7DEB74091D0025091D102C2
:102F00006091D2027091D3022FB7F89480913E0461
:102F100090913F04A0914004B09141042FBF841BC5
:102F2000950BA60BB70B84369105A105B10588F169
:102F30000E944C0E882379F10E94FE086E5F7F4F3D
:102F40008F4F9F4F69837A838B839C8380912B0162
:102F500090912C0187549D4F40912A0150E04530BB
:102F6000510510F044E050E0BE016F5F7F4F0E94BA
:102F7000533284E090E00E94D030892BD9F40E9433
:102F8000FE086093D0027093D1028093D202909396
:102F9000D30281E010C00E94FE080091E10210916E
:102FA000E2022091E3023091E402600F711F821F60
:102FB000931FC4CF80E00F900F900F900F90DF9180
:102FC000CF911F910F9108958F929F92AF92BF92D0
:102FD000CF92DF92EF92FF920F931F93CF93DF93E5
:102FE000EB0188809980AA80BB809FB7F894C0903D
:102FF0003E04D0903F04E0904004F09041049FBF15
:10300000C818D908EA08FB0894E6C916D104E104F7
:10301000F10410F4442311F1E82E082E000CFF08EF
:103020009AE08902F0011124E050FF4F83819481DE
:1030300087549D4F428150E00417150708F4A801FA
:10304000B9010E945332C7010E94D030892BA1F4EC
:103050000E94FE08688379838A839B8381E0DF91E5
:10306000CF911F910F91FF90EF90DF90CF90BF9085
:10307000AF909F908F90089580E0F1CF0F931F93B2
:10308000CF93DF930F92CDB7DEB78091350489835C
:103090002091CF0290E041E02817190609F440E0A2
:1030A00001E010E09E012F5F3F4F6CED72E087E082
:1030B0000E94E4170F90DF91CF911F910F91089517
:1030C0000F931F93CF93DF930F92CDB7DEB780910D
:1030D000FC02898341E09091CE02981301C040E048
:1030E00001E010E09E012F5F3F4F68ED72E086E047
:1030F0000E94E4170F90DF91CF911F910F910895D7
:103100000F931F93CF93DF93CDB7DEB729970FB6F9
:10311000F894DEBF0FBECDBF85E0EEE5F4E0DE0142
:10312000119601900D928A95E1F780914603909156
:103130004703A0914803B09149038E839F83A887DA
:10314000B98741E08885811101C040E009E010E0C5
:103150009E012F5F3F4F64ED72E085E00E94E4170F
:1031600081111092480329960FB6F894DEBF0FBE66
:10317000CDBFDF91CF911F910F9108956F927F92F4
:103180008F929F92AF92BF92CF92DF92EF92FF9277
:103190000F931F93CF93DF930F92CDB7DEB7862E99
:1031A0005A016901682E880F7708C3010E94D03048
:1031B000892B09F088C08AE0869DF001879DF00D7B
:1031C0001124E050FF4F458150E04115510511F0A9
:1031D00041E050E08AE0869DF001879DF00D1124CA
:1031E000E050FF4F6681778167547D4FCE01019695
:1031F0000E945332F50140815181628173812FB762
:10320000F89480913E0490913F04A0914004B091C5
:1032100041042FBF841B950BA60BB70B8436910579
:10322000A105B10540F4B701C8010E944D0999817B
:10323000891709F44FC0082C000C9908C4010E949A
:10324000D030892B91F0B12C8B2D0F90DF91CF9145
:103250001F910F91FF90EF90DF90CF90BF90AF90B4
:103260009F908F907F906F9008958AE0889DF001E5
:10327000899DF00D1124E050FF4F458150E0E41688
:10328000F50608F4A7018AE0889DF001899DF00DFC
:103290001124E050FF4F6681778167547D4FC6014E
:1032A0000E945332B701C8010E944D0999818913C8
:1032B000CACF0E94FE08F5016083718382839383E5
:1032C000BB24B394C1CFB12CA701B801C6010E94A1
:1032D0005332BACFBB24B394F7CFCF92DF92EF92A1
:1032E000FF920F931F93CF93DF9300D000D00F92E4
:1032F000CDB7DEB76B0185E0E82EF12C0AEB12E0CA
:103300009E012F5F3F4F41EB52E061E080E00E9461
:10331000BE18882349F095E0FE013196ACEAB2E090
:1033200001900D929A95E1F795E0ECEAF2E0D60172
:1033300001900D929A95E1F70F900F900F900F90DA
:103340000F90DF91CF911F910F91FF90EF90DF9041
:10335000CF90089590E080E00E94FC34893E9E4F1B
:1033600011F40C94751480E008951F920F920FB61B
:103370000F9211242F933F934F935F936F937F93FB
:103380008F939F93AF93BF93CF93DF93EF93FF936D
:10339000D091E900DF708091EC00C82FC17080FDF2
:1033A000C0E81092E9008091F000877F8093F000E0
:1033B00078940E94B00F1092E9008091F00088602C
:1033C0008093F000CD2BCF70C093E900FF91EF9177
:1033D000DF91CF91BF91AF919F918F917F916F912D
:1033E0005F914F913F912F910F900FBE0F901F90C3
:1033F00018951F920F920FB60F9211242F933F939F
:103400004F935F936F937F938F939F93AF93BF93EC
:10341000EF93FF938091E10082FF09C08091E20069
:1034200082FF05C08091E1008B7F8093E100809155
:10343000DA0080FF24C08091D80080FF20C08091F6
:10344000DA008E7F8093DA008091D90080FF9BC0E4
:1034500080E189BD82E189BD09B400FEFDCF81E034
:103460008093530480914504811109C00E94700724
:103470000E943B088091E20084608093E20080918A
:10348000E10080FF17C08091E20080FF13C08091AF
:10349000E2008E7F8093E2008091E2008061809361
:1034A000E2008091D80080628093D80019BC85E04A
:1034B000809353048091E10084FF29C08091E20051
:1034C00084FF25C080E189BD82E189BD89B5982F3F
:1034D000917080FFFBCF8091D8008F7D8093D800C2
:1034E0008091E1008F7E8093E1008091E2008F7EE9
:1034F0008093E2008091E20081608093E2008091FD
:103500005404882309F445C084E0809353048091D7
:10351000E10083FF27C08091E20083FF23C08091F8
:10352000E100877F8093E10082E080935304109252
:1035300054048091E1008E7F8093E1008091E2004D
:103540008E7F8093E2008091E20080618093E200B0
:1035500042E060E080E00E9409088091F00088600D
:103560008093F000FF91EF91BF91AF919F918F9168
:103570007F916F915F914F913F912F910F900FBE6F
:103580000F901F90189519BC109253041092450487
:1035900076CF8091E30087FD93E090935304B7CFFB
:1035A00078941F921FB61F9211248F939F93AF930D
:1035B000BF9380913E0490913F04A0914004B0914C
:1035C00041040196A11DB11D80933E0490933F04D8
:1035D000A0934004B0934104BF91AF919F918F910C
:1035E0001F901FBE1F9018959C014FB7F8948091B3
:1035F0003E0490913F04A0914004B09141044FBF1C
:10360000821B930B08952FB7F89480913E049091FC
:103610003F04A0914004B09141042FBF08958F92C0
:103620009F92AF92BF92CF92DF92EF92FF920F9351
:103630001F93CF93DF93CDB7DEB72F970FB6F894D4
:10364000DEBF0FBECDBF8E010F5F1F4F8AE0D801D6
:103650001D928A95E9F787E5C82E81E0D82EF12CD6
:10366000E12CAA24A394B12CF60181916F018F3F24
:1036700009F44AC0F894E82FE295EF70F0E021A138
:103680008F70A50102C0440F551F8A95E2F7CA0149
:10369000922F982B91A392A18095892382A30E94B7
:1036A000160A00C0E0E5F1E030E020E0912C419105
:1036B0004F3F09F47FC0A42FA295AF70B0E0909661
:1036C0008C9190E04F7002C0959587954A95E2F7EE
:1036D00080FD70C08A2D022E01C0880F0A94EAF77F
:1036E000982A2F5F3F4F2730310509F7F6013197B0
:1036F00080818F3F11F00E94180A50EA5A95F1F725
:10370000F801EE0DFF1D90828FEFE81AF80A95E0A0
:10371000E916F10409F0A8CF4AE050E0B80187EEBD
:1037200092E00E9446327C01892B41F08AE0F80148
:10373000A7EEB2E001900D928A95E1F71091F202A6
:10374000E114F104C9F181E080939F020E94031B00
:1037500090939E0280939D0280919D0290919E0283
:103760000E94F41A069778F0A7EEB2E0E12FF0E09D
:10377000E45CFC4F8CEE92E02D9121938A179B071D
:10378000D9F710929F0281E090E0EF28C9F02F96C0
:103790000FB6F894DEBF0FBECDBFDF91CF911F9162
:1037A0000F91FF90EF90DF90CF90BF90AF909F90E0
:1037B0008F90089580E094CF80919F028111CCCFAB
:1037C0000E944C0EB82EE091F2028E01055F1F4F51
:1037D000882309F4D3C085E0D8011D928A95E9F7C2
:1037E000F0E09F01245C3C4F79018091E002AE0142
:1037F000405F5F4F6A018A3008F098C04DE659E19A
:10380000B801C7010E94080E882309F4A6C04BE046
:1038100056E2B801C7010E94080E882309F49DC032
:1038200044E757E1B801C7010E94080E882309F454
:1038300094C040E858E1B801C7010E94080E8823EF
:1038400009F48BC040E658E1B801C7010E94080E98
:10385000882309F482C04EE358E1B801C7010E94F1
:10386000080E882309F479C01092E002E091F10279
:10387000F0E0AF01445C5C4FD80110E0FA01919197
:10388000AF018D91981731F09F0121503109F90155
:1038900080831B2DAC15BD0589F78091A202909104
:1038A000A3020E94F41A893E934060F16091FC02E9
:1038B000E62EF12C662777276E197F09072E000C5C
:1038C000880B990B0E94EB3527EA39E747E45DE363
:1038D0000E94B8364B015C01B701FF0C880B990BB5
:1038E0000E94EB359B01AC01C501B4010E94373544
:1038F0000E94BA356093FC020E94031B9093A302BE
:103900008093A2028091A602882371F08091A40284
:103910009091A5020E94F41A893E934028F082EE0D
:103920000E94780C1092A602812F31CF8091A002C4
:103930009091A1020E94F41A843F914008F05ECF5A
:10394000E091F102F0E0E45CFC4FD80111921D928D
:10395000AC15BD05D9F71B2DA0CF8091E0028F3F9C
:1039600031F08F5F8093E0028A3008F47FCF0E94AD
:10397000031B9093A1028093A002E2CFF0E0E45CED
:10398000FC4FF89485E0AAEBB2E001900D928A9585
:10399000E1F765E070E08AEB92E00E944D098093C8
:1039A000B9020E94160AF894E091FA02F0E0E95098
:1039B000FD4F80818B878093C00261E070E0C80179
:1039C0000E944D098093BF020E94160AF894C0908D
:1039D000C102D090C202E090C302F090C402809174
:1039E000A7029091A802A091A902B091AA02C816BC
:1039F000D906EA06FB06D1F0C092A702D092A8022F
:103A0000E092A902F092AA020E944C0E81110EC00F
:103A10000E94FE08C61AD70AE80AF90AC092E10213
:103A2000D092E202E092E302F092E4020E94160ACF
:103A3000F8948091CC02882321F184FF04C09091F6
:103A4000CD029093490380FF0DC08091C50280FF95
:103A50002CC090915E04916090935E0460E0869526
:103A60000E94B7158091CC0281FF09C020E04091EF
:103A7000C8026091C7028091C6020E94A0141092F1
:103A8000CC020E94160AF8948091CE028093FC0228
:103A90000E94160AF8948091CF02882349F00E9470
:103AA000810D0E94160A80E072CE0E94920FDACF3A
:103AB0000E94660DF6CF5F926F927F928F929F92D7
:103AC000AF92BF92CF92DF92EF92FF920F931F932C
:103AD000CF93DF9300D000D00F92CDB7DEB76C014B
:103AE000FC0183819481892B31F08081918189232C
:103AF0008F3F09F082C50F900F900F900F900F909D
:103B0000DF91CF911F910F91FF90EF90DF90CF90B9
:103B1000BF90AF909F908F907F906F905F9008952F
:103B20000E941314182F682F89819A810E94250CF6
:103B300069817A81812F0E9406148C01F6018281AD
:103B4000882309F463C0C80190568115F0E29F07ED
:103B500050F0905E811520E1920728F0915C81156C
:103B60009F4108F0A5C0C80199279C012450310944
:103B70002432310520F08B970E9708F047C08091D2
:103B8000A2029091A3020097D9F10E94F41A9C011D
:103B900050E040E060E67AEE80E090E00E94B831CC
:103BA000CA01B90125E030E040E050E00E94B831A0
:103BB000E090FC022F3F310519F010F02FEF30E0BC
:103BC000F12C2E193F09B90190E080E00E94E935FF
:103BD00027EA39E747E45DE30E94B8360E94A3353F
:103BE0004B015C01B701FF0C880B990B0E94EB3570
:103BF000A50194010E9437350E94BA356093FC02FA
:103C00000E94031B9093A3028093A202F60182817B
:103C1000882309F4E6C4C80182519F45409708F003
:103C200071C48FEF93E00E94EE34025193EEA92EFF
:103C300092E0B92E81115FCF011143C01C821B821B
:103C4000662463948AE0582E85010F5F1F4FC501DB
:103C50000E94EE3489831A82882309F44CCF9FEFA7
:103C6000980F9330E8F58A83698232E0A30EB11C85
:103C7000C8010E94EE348B83882309F43CCF8E0167
:103C80000F5F1F4FF80120812223F1F2213009F04C
:103C900061C091818281913029F50E5F1F4F6AE0EA
:103CA00070E0893311F460E570E00E947F0E20C05F
:103CB00090E080E00F3F110511F008F056CFC801E9
:103CC00054CFA114F4E0BF0609F415CFC5010E943A
:103CD000EE34811101C001502FEFA21AB20AACCF0D
:103CE0005801CDCF923039F40E5F1F4F0E94B10CB6
:103CF0000F5F1F4FC7CF933029F40E5F1F4F0E94F5
:103D0000780CF6CF943019F00F5F1F4FF1CF0E5F94
:103D10001F4F30E020E0B8016F5F7F4FF801418115
:103D20008053990B8A30910550F02150310900F3EE
:103D30008FE99FE00197F1F700C00000F6CF529E97
:103D4000F001539EF00D11249C012E0F3F1F842F74
:103D50008B01E1CFE22FF0E0E054FE4F7490822F10
:103D600086958695869590E0FC01E055FE4FE4909F
:103D70002770F12C022E02C0F594E7940A94E2F722
:103D8000E1E0EE22FF24FC01E056FE4FC490D12C6E
:103D9000022E02C0D594C7940A94E2F7F1E0CF2234
:103DA000DD24FC01E057FE4F8490912C02C09594D5
:103DB00087942A95E2F721E082229924E114F10404
:103DC00019F081EE0E94B10CC114D10419F086EEF5
:103DD0000E94B10C39E36AE070E0731202C060E542
:103DE00070E0872D0E947F0ECD2819F086EE0E948C
:103DF000780CEF2819F081EE0E94780C892809F4DC
:103E000077CF6AE070E08CE250CF81E00E94C51667
:103E100003C081E00E94B9160F900F900F900F9091
:103E20000F90DF91CF911F910F91FF90EF90DF9056
:103E3000CF90BF90AF909F908F907F906F905F904A
:103E40000C94AE1682E0E2CF013E110509F49AC04F
:103E5000043E110509F07CC3882309F4CEC081E03B
:103E60008093FD0275C30238FFE51F0709F459C0AE
:103E700000F500383FE51307B9F101384FE51407A5
:103E800009F066C3882309F445C08091A602811118
:103E900006C081E08093A60282EE0E94B10C0E94CF
:103EA000031B9093A5028093A40281EE0E94B10CA3
:103EB0002DC003385FE5150709F447C004389FE5B6
:103EC000190709F045C3882309F482C08091430291
:103ED000882309F45AC0809144020E94780C80EE35
:103EE0000E94B10C8AE25EC08823B9F08091A602DC
:103EF000811106C081E08093A60282EE0E94B10C7F
:103F00000E94031B9093A5028093A4028BE20E945F
:103F1000B10C1EC381EE0E94780C8BE20E94780CDB
:103F200017C3882309F414C381EE0E94B10C83EEF9
:103F30000E94B10C8FE40E94B10C8FE40E94780CB7
:103F400083EE0E94780C81EEE9CF882309F400C348
:103F500081EE0E94B10C83EE0E94B10C80E50E94BC
:103F6000B10C80E5EBCF809346021093450200939D
:103F70004402882321F081E08093FE02E9C210927E
:103F8000FE02E6C280934302F0CF8091460288236E
:103F900009F4A8CF809144020E94780C80EE0E9420
:103FA000B10C8CE40F900F900F900F900F90DF9159
:103FB000CF911F910F91FF90EF90DF90CF90BF9026
:103FC000AF909F908F907F906F905F900C94B10C0A
:103FD0008AE20E94780C8CE40E94780C80EE0E94A9
:103FE000780C80914302811105C08091460288239C
:103FF00009F481CD80914402D5CF1092FD02A8C270
:10400000882331F081E08093000310926E01A0C2FA
:10401000109200039DC2073C2CE5120709F4AEC0C4
:1040200008F4A7C0083C4CE5140709F4ACC0093CEF
:104030001C4509F0ADC243E555E16FE575E179C076
:10404000043DECE51E07A8F40E3CFCE51F0708F054
:1040500052CD0C3C2CE5120709F49FC045E955E10F
:1040600066EA75E10D3C1C4508F463C061E081E03F
:1040700046C0053D4CE5140709F43DCD08F492C057
:104080000D351D4509F437CD83C280915E0480FF54
:1040900031C08E7F80935E0460915E0470915F04F6
:1040A00080916004909161040E948E148091480375
:1040B0008160809348039FEFE0E7F2E09150E04099
:1040C000F040E1F700C000000F900F900F900F90AC
:1040D0000F90DF91CF911F910F91FF90EF90DF90A4
:1040E000CF90BF90AF909F908F907F906F905F9098
:1040F0000C94940E816080935E0461E086950F902D
:104100000F900F900F900F90DF91CF911F910F9113
:10411000FF90EF90DF90CF90BF90AF909F908F90E7
:104120007F906F905F900C94B71540ED56E169ED6C
:1041300076E10F900F900F900F900F90DF91CF913D
:104140001F910F91FF90EF90DF90CF90BF90AF90B5
:104150009F908F907F906F905F900C94630949EDD2
:1041600056E160ED76E1E5CF43E855E16CE875E1B5
:10417000E0CF4CE855E163E875E1DBCF4BE655E174
:1041800067E775E1D6CF47E755E16BE675E1D1CF3B
:104190004FE555E163E575E1CCCF46EA55E165E9C8
:1041A00075E1C7CF0F900F900F900F900F90DF9198
:1041B000CF911F910F91FF90EF90DF90CF90BF9024
:1041C000AF909F908F907F906F905F900C94E316CC
:1041D0000E3D1C4509F0DCC10F900F900F900F9021
:1041E0000F90DF91CF911F910F91FF90EF90DF9093
:1041F000CF90BF90AF909F908F907F906F905F9087
:104200000C940A17C8010E94FD0BF82ECFC1092F8C
:104210000F70907F11F00295007F812F2223C9F04B
:10422000002369F090E2910F983010F011110BC04B
:1042300080914604082B009346040E94DC0B812FDA
:104240000E94B10C17C080919B02082B00939B0227
:10425000F4CF0E94780C002369F00095105E1830AE
:1042600010F0B11027C08091460408230093460443
:104270000E94DC0B98E0E91AF108E4E0EE16F10484
:1042800008F039CC0E946F0E0F900F900F900F9096
:104290000F90DF91CF911F910F91FF90EF90DF90E2
:1042A000CF90BF90AF909F908F907F906F905F90D6
:1042B0000C94061680919B02082300939B02D8CF92
:1042C000892F8F70907F903211F08295807FF1E07E
:1042D000BF120CC0222329F0333060F60E946E0C0E
:1042E000C9CF323038F60E94630CC4CF222341F08C
:1042F0003323A1F340FFA3CF4F70F6014583EECFE8
:10430000332389F3193309F0F5C0FFEF27EE33E0CB
:10431000F15020403040E1F700C00000812F0E94A2
:10432000780CA8CF892F86958695837061F08130AF
:1043300009F0A0CF812F9370211102C090E080E09E
:104340000E940A0997CF812F9370211102C090E03B
:1043500080E00E9420098ECF892F8370A1F5211162
:1043600089CF812F829586958770880F880F412F7E
:104370004F70082E01C0440F0A94EAF7212F2071D4
:1043800014FF07C02FE030E001C0220F8A95EAF742
:104390002095969596959370923081F0822F842B7C
:1043A000933030F480919C02913029F0242B8223A9
:1043B0000E945F0C5FCF842B822BFACF242B80913D
:1043C0009C028227F5CF8695222311F0892F8170D8
:1043D000882309F44FCF812F829586958770880FA7
:1043E000880F412F4F70082E01C0440F0A94EAF73E
:1043F000212F207114FF07C02FE030E001C0220FF1
:104400008A95EAF72095969596959370923081F06B
:10441000822F842B933030F480915D04913029F009
:10442000242B82230E94A81625CF842B822BFACF1F
:10443000242B80915D048227F5CF092F0F70222352
:1044400029F0802F0E94C516812F48CF812F0E940E
:10445000630C802F0E94B9160DCF812FE1EF1E173C
:1044600089F1E11750F0F0EF1F17B9F02223B1F1F5
:104470003111E5CE892F8F7129C042EF141749F110
:1044800053EF1513F3CF80E0222361F29F7181E097
:1044900001C0880F9A95EAF7C5CF222379F0323010
:1044A00008F0E8CE292F2F7181E090E001C0880F3D
:1044B0002A95EAF790915D048927B4CF333008F04C
:1044C000D9CEF0CF892F8F71222321F20E94C516F9
:1044D000D1CE892F8F712223C9F3BCCF332379F03A
:1044E000893341F48FEF97EEE3E081509040E04054
:1044F000E1F712CF8FE39CE90197F1F70DCF892FF8
:104500008F71A8CF0031FFE51F0709F47ECC013180
:104510002FE5120709F496CC0E94FE08609305036C
:10452000709306038093070390930803F60182813A
:10453000053E110509F417CD08F095CC003E110594
:1045400009F48ACC08F080CC0C32110509F458CD5E
:10455000F601928191113CCE8091460482720A3C10
:10456000FCE51F0709F414CE08F06ACD053C3CE5D4
:10457000130709F4F9CD08F04ECD033C5CE51507AF
:1045800009F4D3CD08F0EBCD023C1C4509F47DCDF8
:10459000F60100811181992309F434CEC8010E94EB
:1045A0001314F82E682FC8010E94250CB8018F2D16
:1045B0000E9406140E94720A182FB82EF60122815A
:1045C0004581342F32953F70892F82958F70E82E68
:1045D000F12C8C3008F04ECEF701E15CF84C0C94D5
:1045E000D73100313FE5130709F413CC01314FE512
:1045F000140709F09BCF82E00DCC85E0DE01119617
:1046000001900D928A95E1F7F601228189819A81C4
:10461000211186CA0E94FD0B182F8ACA1F93CF93BF
:10462000DF9380916702807FA9F4809164028823E0
:1046300089F080919902D091680260916202709134
:104640006302A0916502B0916602C62FC72316E0EF
:10465000D81304C0DF91CF911F91089590E0109777
:1046600011F0CF3F19F401968770F2CF189F900197
:10467000199F300D1124F901E759FD4F418147136E
:10468000F2CF40814613EFCF42814111ECCF4381FD
:1046900054814A1B5B0B403A510528F78091670211
:1046A0008F70806180936702F901E259FD4F80812C
:1046B0008F708061808382E692E00E945B1DDF91B3
:1046C000CF911F910C94F30BAF92BF92CF92DF92D8
:1046D000EF92FF920F931F93CF93DF93CDB7DEB787
:1046E00061970FB6F894DEBF0FBECDBF8C0185E099
:1046F000F801DE011D9601900D928A95E1F7F8010F
:10470000E28082E6A82E82E0B82E60916502709168
:1047100066026115710509F432C1909162024091FF
:104720006302892F84238F3F09F429C120813181BD
:10473000C380D480F0906402F601E61BF70BFF20E3
:1047400009F4E8C080916702582F507FE03AF105E4
:1047500008F0ABC0511177C0FE2C431321C0921357
:104760001FC0E1101DC08F70806180936702C5017A
:104770000E945B1D80916702F80185838F2D6196F1
:104780000FB6F894DEBF0FBECDBFDF91CF911F9162
:104790000F91FF90EF90DF90CF90BF90AF90089572
:1047A000CD2829F0822F83238F3F09F003C180E0B9
:1047B000F82FF170DF2E80FF3CC08091990240916C
:1047C000680256E0841315C02D873E878D859E852F
:1047D0000E944214292F22952F702230F0F02430AD
:1047E00018F59F70F1F0F8019581907FD1F4D12CEC
:1047F0001EC090E0589FF001599FF00D1124E75919
:10480000FD4F6181361306C06081261303C06281AB
:10481000E6120FC001968770D5CF9F7011F08823E4
:1048200031F3805E883018F3C8010E945B1DFD2CB7
:10483000A5CFEE2009F4A2CF80916702816080931A
:104840006702F12C9BCF431306C0921304C0F801FA
:10485000EE2009F479C0C8010E944E14882309F1A2
:10486000EE20F9F080916702803270F020916202B0
:104870003091630238872F831986DB86CA868C873E
:10488000CE0107960E945B1D86E0F801A2E6B2E029
:1048900001900D928A95E1F70E940E23FF24F39474
:1048A0006DCFC8010E945B1DF9CF51110AC082E68D
:1048B00092E00E945B1D86E0F50111928A95E9F76E
:1048C000C0CF43130FC092130DC0E1100BC0F8010D
:1048D0008583C8010E945B1D86E0F50111928A95CF
:1048E000E9F74CCFC8010E944E148823D1F2EE2084
:1048F000C1F280916702803238F2209162023091D9
:1049000063023A8329831B82DD82CC828E83CE01AF
:104910000196B8CFE03AF105F8F6FE2CEE2009F248
:1049200043131FC092131DC08091670280FD10C009
:10493000982F907F69F0F8018583903F31F0982F90
:10494000907F905F8F70892B8583C8010E945B1DCB
:1049500086E0F801A2E6B2E001900D928A95E1F7B7
:104960000DCFC8010E944E1481118ECF8091670235
:10497000816080936702C8010E945B1DFFCEEE201C
:1049800009F48FCFC8010E944E14F82E882309F431
:1049900088CF86E0F801A2E6B2E001900D928A95F8
:1049A000E1F780916202909163020E9442140E949A
:1049B0000E23E4CE81E08E25FBCE1F93CF93DF93B1
:1049C000CDB7DEB767970FB6F894DEBF0FBECDBF89
:1049D0004B8B5C8B6D8B7E8B8F8B611110929B024E
:1049E0001A8A198A85E0FE017396DE011D960190F0
:1049F0000D928A95E1F786E0FE013D96DE0117965D
:104A000001900D928A95E1F7CE0107960E946423EA
:104A1000882389F016E080919902909168028913A9
:104A20004BC067960FB6F894DEBF0FBECDBFDF91C7
:104A3000CF911F91089586E0FE013796DE01119611
:104A400001900D928A95E1F78A859B85892B11F358
:104A50008F81988589238F3FE9F22091680230E0A9
:104A6000C901019687709927409199024817190644
:104A700081F4109246040E94A70F109268021092CF
:104A8000990286E0E2E6F2E0DF011D928A95E9F7FD
:104A9000C1CF96E0929FD001939FB00D1124A759EA
:104AA000BD4FFE01319601900D929A95E1F78093EA
:104AB00068020E94F30BAECF819FC0011124875979
:104AC0009D4F0E946423882309F4ABCF8091990203
:104AD00090E0019687709927809399029CCF0F935D
:104AE0001F93CF93DF93CDB7DEB7A8970FB6F89497
:104AF000DEBF0FBECDBF81114DC006E0662359F168
:104B00000CA311E01DA31EA30E94031B8160782F3C
:104B100098A78FA34CA15DA16EA188A50E94DD245A
:104B20000F8F18A319A20E94031B8160782F9BA3EB
:104B30008AA34F8D58A169A18BA10E94DD2481E039
:104B4000A8960FB6F894DEBF0FBECDBFDF91CF9110
:104B50001F910F9108950A8F13E01B8F81E08C8FB6
:104B60000E94031B8160782F9E8F8D8F4A8D5B8DF5
:104B70006C8D8E8D0E94DD240D8B1E8B1F8A0E94F2
:104B8000031B8160782F998F888F4D895E896F898B
:104B9000898DD3CF813099F66623F1F016E0188B1A
:104BA000198B8A8B0E94031B8160782F9C8B8B8BC7
:104BB000488959896A898C890E94DD241B871C8752
:104BC0001D860E94031B8160782F9F878E874B85EF
:104BD0005C856D858F85B1CF06E00E8318E01F835D
:104BE00088870E94031B8160782F9A8789874E816E
:104BF0005F8168858A850E94DD2409831A831B8270
:104C00000E94031B8160782F9D838C8349815A8188
:104C10006B818D8192CFCF92DF92EF92FF920F93B3
:104C20001F93CF93DF930F92CDB7DEB7EE24E394BB
:104C3000F12C00EC12E09E012F5F3F4F45EB52E05C
:104C400063E082E00E94BE18082F882321F1C09003
:104C5000F4028C2D90E09C0129503D4F790119817F
:104C6000F9018081181BD12E80E00AC0DA94F70187
:104C700080818F5F808360E08C2D0E946F25802F64
:104C80001D14A4F3912F17FD90E0191B11110EC0F4
:104C900081110E94DA0B802F0F90DF91CF911F912D
:104CA0000F91FF90EF90DF90CF9008951F5FF70175
:104CB00080818150808361E08C2D0E946F25802F40
:104CC000E5CF1F921FB61F9211248F939F93AF932E
:104CD000BF9380913D04811113C080913E04909157
:104CE0003F04A0914004B09141044196A11DB11D23
:104CF00080933E0490933F04A0934004B0934104FA
:104D0000BF91AF919F918F911F901FBE1F901895DB
:104D1000CDB7DEB7E0970FB6F894DEBF0FBECDBFBC
:104D200084B7877F84BF0FB6F894A8958091600000
:104D3000886180936000109260000FBE80E890E070
:104D40000FB6F89480936100909361000FBE85B711
:104D5000806885BF85B7806885BF84E19AE09093BD
:104D60003902809338020E9470070E943B088091AC
:104D7000E20084608093E200789480915304882359
:104D8000A1F01091E9001F709091EC00892F8170C3
:104D900090FD80E8182B1092E9008091E80083FDD7
:104DA0000E94B00F1F701093E90082E084BD93E071
:104DB00095BD9AEF97BD80936E001092E10210921C
:104DC000E2021092E3021092E4020E947514811133
:104DD00002C00E94D1130E944C0E80936101809109
:104DE0006101882309F4C6C01092760185E28093A0
:104DF00077010E944C0E81110E94C32F80916101A6
:104E000081112FC0FE01359686E0DF011D928A9543
:104E1000E9F786E6898387E98A8386EC8B8384E3D6
:104E20008C8385E38D833497A7E5B1E0CE010B96A3
:104E300021912D938E179F07D9F787E0ECE7F1E0DA
:104E4000DE01919601900D928A95E1F7FE01B196EF
:104E5000A0E5B1E0CE01889621912D938E179F0792
:104E6000D9F78091610195E0811190E09093F20271
:104E700085E0891B8093F10207E511E08CE5E82EBF
:104E800081E0F82EF80181918F018F3F11F00E948F
:104E9000180AE016F106B1F700E511E0B7E5EB2ED0
:104EA000B1E0FB2ED8018D918D018F3F11F00E9452
:104EB000180AE016F106B1F7E7EEF2E081EF92E0B2
:104EC000ACE3B3E011921D928E179F07D9F70E94B1
:104ED000AA19811102C00E940A1782E090E00E9484
:104EE000EE348093310384E090E00E94EE34182F7A
:104EF00082E290E00E94EE34982F812F9093E60298
:104F00008093E5020E940F1BEFE7FBEB3197F1F76F
:104F100000C000000E940F1B80913C0380FF2EC048
:104F20006FEF7FEF90E080E00E94203581E080937A
:104F3000E00080E28093D8001092C9008FE19EE4E7
:104F40000197F1F700C0000087E090EBDC0180934F
:104F5000670690936806A0936906B0936A0688E195
:104F60009CE00FB6F894A895809360000FBE9093D4
:104F70006000FFCF85E28093760139CF83E090E037
:104F80000E94EE340E945F0C80915D040E941E1608
:104F90000E944C0E811102C00E94C62F83E08093B4
:104FA0002C0380E280932A040E945B2E6DE070E067
:104FB00083E592E00E94360D892BE9F580912C0360
:104FC00063E070E081FDFCC180E592E00E94360D57
:104FD000892B89F56DE070E080E492E00E94360D47
:104FE000892B49F50E94FE086058774C8E4F9F4FE1
:104FF00060933104709332048093330490933404AB
:10500000E5E6F4E080E092E0DF019C011D92215092
:105010003040E1F7F0936606E09365068FEF9FEF6F
:10502000909364048093630481E0809336048093BA
:10503000350410922D038091F302811136C00E9435
:10504000AA19811104C00E940A170E94F21688E072
:1050500090E00E94F63460935E0470935F04809346
:1050600060049093610480914803836080934803B7
:105070006E7F71F40E94F21688E090E00E94F63490
:1050800060935E0470935F04809360049093610466
:105090000E94680980915E0480FF04C060E08695EC
:1050A0000E94B71581E08093F30280916101811124
:1050B00006C084EF80936D0185EF80936C01209191
:1050C0006D01A22FA295AF70B0E091963C9191979F
:1050D0002F7081E090E0BC01022E01C0660F0A949F
:1050E000EAF7462F4095432391964C9391979296D9
:1050F0003C919297362B92963C93929740916C01FB
:10510000E42FE295EF70F0E031A14F70042E01C062
:10511000880F0A94EAF7982F9095932391A392A170
:10512000892B82A390968C9190E002C095958795EB
:105130002A95E2F7817020A130E002C035952795CD
:105140004A95E2F792E020FF90E0892B8093FB02E2
:105150009091610181E098279093FA02891B8093D6
:10516000F40280E692E090934B0380934A0360E060
:105170008AE00E94B71582E691E090933A0480930A
:105180003904A0E46A2ECE0101967C01809153047B
:10519000DD24D39400E112E1853009F45EC10E9460
:1051A0000F1BC82E81110E94FE08E2E3F3E0ACE37E
:1051B000B3E010E000E0902EBD9081918B1509F4D2
:1051C0006FC18B25A12CDD24D3949D2D982309F448
:1051D00062C10E944C0E882399F0A9A29AA2BD2018
:1051E00081E009F480E08BA30E94031B8160782F8B
:1051F0009DA38CA349A15AA16BA18DA10E94DD247E
:10520000F801EE5CFC4F8081D826D0828091FB02B1
:10521000E82FEE0FEE0F90916D01A92FA295AF70C0
:10522000B0E090962C9130E09F7002C035952795A4
:105230009A95E2F72170332790916C01A92FA295DE
:10524000AF70B0E090964C9150E09F7002C05595C1
:1052500047959A95E2F7CA018170992740FF02C0ED
:1052600082E090E0822B8E2B8093FB021091FA0259
:105270008F70E82FF0E0EC5FFD4F80819091F90294
:10528000890F8093F902D12C84306CF0E12FF0E08B
:10529000E950FD4F80818F5F808360E0812F0E9405
:1052A0006F25DD24D3948091F9028D3F6CF4E12FBA
:1052B000F0E0E950FD4F80818150808361E0812FD3
:1052C0000E946F25DD24D3948091F902082E000CF2
:1052D000990B64E070E00E94A4318093F902D11030
:1052E0000E94DA0B80913604882351F180912E03BD
:1052F00090912F030E94F41AC29708F0E8C0209101
:105300006304309164042115310509F046C280918F
:1053100035048823A9F00E94FE0800913104109101
:1053200032042091330430913404601B710B820BE2
:10533000930B6F3F7F4F8F4F9F4710F40E94660D76
:10534000C11001C0D1100E94810D0E946F0E90917A
:105350003003891731F00E946F0E809330030E9452
:10536000061680915304843009F010CF83E08093B7
:10537000E9008091E80082FF09CF8091E80090E089
:1053800085FF0CC00E948F0730E2C32ED12C8E0106
:105390000F5F1F4F882309F4E1C291E08091E8007C
:1053A0008B778093E800992309F4F0CEE981E150EE
:1053B000E33108F035C3F0E0E55BF84C0C94D731ED
:1053C0008DE492E003CE80915304843009F435C01B
:1053D0000E94660D80E00E9406168091F6028111FF
:1053E00009C0D092F60280915E0481708093F5022C
:1053F0000E94920F10923D04A8E1B0E00FB6F8941D
:10540000A895A09360000FBE6092600083B7817F73
:10541000846083BF83B7816083BF7894889583B7A6
:105420008E7F83BF0FB6F894A89580916000886145
:1054300080936000109260000FBE80915204882318
:1054400061F00E940F1BECE3F3E08191811112C423
:1054500026E433E02E173F07C1F7809153048530CF
:1054600009F4B1CF109246040E94A70F0E946F0E5C
:105470000E9406161092F6028091F502882309F424
:105480008ECE80915E04816080935E0460E086959C
:105490000E94B71584CEA394DD0C37E0A31295CEFD
:1054A0000F5F1F4F0A30110509F085CE8FEF88A7D7
:1054B00089A71AA60E94031B8160782F9CA78BA73F
:1054C00048A559A56AA58CA50E94DD249FCE0E94FF
:1054D000031B90932F0380932E0360E080E00E94D3
:1054E00036098091FC0290E090930B0380930A03AD
:1054F0000E946F0E809309030E944C0E882331F1A5
:1055000040910503509106036091070370910803D1
:105510002FB7F89480913E0490913F04A0914004ED
:10552000B09141042FBF841B950BA60BB70B8133A1
:105530009547A105B10540F00E94660D80913604A3
:10554000882309F4E4CEDBCE0E94810D0E944C0E2C
:1055500062E0882309F4E2C080E00E94360960E03E
:1055600083E891E00E94381363E080E00E943609EE
:1055700080915D040E94250D823009F499C008F0E5
:105580008EC0882309F494C0813009F497C066E086
:1055900080E00E94360960E081EA91E00E943813C1
:1055A00067E080E00E9436096091090366956170AA
:1055B00086EA91E00E94381368E080E00E94360994
:1055C00060910903609561708BEA91E00E94381345
:1055D00069E080E00E9436096091090362FB66275A
:1055E00060F98FEA91E00E943813409101035091D5
:1055F000020360910303709104032FB7F894809124
:105600003E0490913F04A0914004B09141042FBF0B
:10561000841B950BA60BB70B8D329140A105B105EC
:1056200008F48CCF0E94FE0860930103709302037C
:10563000809303039093040380910003811104C0BD
:1056400080916E01811142C06FE080E00E943609B6
:1056500060E084EB91E00E9438136CE080E00E94EF
:10566000360981E080936E018091FF0290E00196FF
:10567000817099278093FF0221E030E0281B390BCD
:1056800040E6429FC001439F900D11242091FE02ED
:10569000222351F18E589A4F0E942D074FCF83300D
:1056A00089F0843009F073CF60E085E991E003C0B0
:1056B00060E089E891E00E94381369CF60E08FE8EC
:1056C00091E0F9CF60E08BE991E0F5CF6CE080E00C
:1056D0000E94360960E084EB91E00E9438136DE08F
:1056E00080E00E943609C0CF2091FD02222319F0EC
:1056F0008E549B4FD1CF20910A0330910B032B3056
:1057000031051CF48E509C4FC7CF293231051CF453
:105710008E5C9C4FC1CF8E589D4FBECF80E00E94C3
:10572000360960E08AEB91E00E94381363E080E084
:105730000E94360960E080EC91E00E94381367E037
:1057400080E00E94360982E396E00E942D076DE01A
:1057500080E00E94360980910B038F9380910A03A9
:105760008F9386EC91E09F938F93FF92EF920E942C
:105770005C3260E0C7010E9438136EE080E00E9456
:10578000360960E08CEC91E00E9438130F900F9086
:105790000F900F900F900F90D1CE80912D0361E06C
:1057A00070E08111B4CD082F10E01B01082E02C05B
:1057B000220C331C0A94E2F7A90142215321452B04
:1057C00009F448C090912C0390FD46C08295880F43
:1057D00080768093710198013695279536952795A7
:1057E00020937401815E809372011092750124E60A
:1057F00030E047E050E06FE671E088E70E940A2F52
:10580000892B09F084CDA801E5E0440F551FEA95E6
:10581000E1F780912C0380FD2DC04B595B4F04E6CE
:1058200010E020E230E060E488E70E94312F892B0D
:1058300009F06DCD0E94810DC10180959095209059
:105840006304309064042822392230926404209248
:1058500063045DCD8F5FA7CF880F880F880F80937B
:10586000710110927401895F8093720183E08093CB
:105870007501BDCFECE0F3E080E2DF011D928A9577
:10588000E9F7E8E1F2E0F8ABEFA764E1462E62E069
:10589000562E77E0A72E99249394AFA5B8A96D91C1
:1058A000B8ABAFA7F20181912F01840F952F911D05
:1058B0009C012B593B4F3EA72DA7E62FF0E0E45F5C
:1058C000FC4F30E020E07A2C721AB92C022E01C075
:1058D000BB0C0A94EAF70DA51EA590E0D8018D91A6
:1058E0008D018B21672D691B6770862E062E000C9B
:1058F000770BB82F01C0BB0F8A94EAF78B2E7195F6
:10590000619571096770772701C086956A95EAF7F6
:10591000882A8081882A80829F5F9830F9F62F5FDD
:105920003F4F31962830310571F6ECE1F2E02FA5BA
:1059300038A9E217F30709F0B0CF04E610E020E23F
:1059400030E04CE053E06FCF8091F100D8018D93AF
:105950008D01B1E0CB1AD10809F41FCD8091E80088
:1059600085FDF2CF8091E8008B778093E8000E945C
:105970008F07882399F311CD1A8289E08B8311C098
:105980008A81823009F48EC1833089F1813009F037
:1059900047C00E94FE080E94DD316B837C838D83AB
:1059A0009E8380915304843009F0F0CB1091E9007C
:1059B0001F709091EC00892F817090FD80E8182B6A
:1059C00082E08093E9008091E80080FF0CC050E005
:1059D00040E060E270E0C7010E94C0078091E800EB
:1059E0008E778093E8001F701093E900CFCBDE0123
:1059F0001396ECE3F3E081918D9323E0E634F20714
:105A0000D1F7CFCF8A81823059F46B817C818D812F
:105A10009E810E94DD3186E290E00E940235C1CF76
:105A20008FEF8983BECF4C816B818A810E94E01306
:105A30009827892798279E838D83B3CF0D811E8158
:105A40001027012710278A81CB803EE0C39E60018A
:105A500011249CE8899FC00CD11C11248C8190E0FA
:105A6000880F991FC80ED91E612FC60187960E9404
:105A70000235602FC6018896D0CF0E94641391CF63
:105A80008A818138C1F060F4803809F08ACF20E043
:105A90004B816091600480915F040E94A01481CFCB
:105AA0008238E9F0833809F07CCF20E0409161042E
:105AB0006C818B81F2CF60E08B810E94B7158B8166
:105AC000811103C00E94920F6CCF80915E048160AF
:105AD00080935E0460E086950E94B71562CF8B814B
