:100000000C9449060C9490060C9490060C940732BC
:100010000C9490060C9490060C9490060C94900608
:100020000C9490060C9490060C943C1A0C94F819BD
:100030000C94D5260C9490060C9490060C94900683
:100040000C9490060C9490060C9490060C949006D8
:100050000C9490060C94131B0C9490060C94900630
:100060000C9490060C9490060C9490060C949006B8
:100070000C9490060C9490060C9490060C949006A8
:100080000C9490060C9490060C9490060C94900698
:100090000C9490060C9490060C9490060C94900688
:1000A0000C9490060C9490060C94900637032B64E5
:1000B000AAFF000000001C032B64AAFF0000000040
:1000C00004032B64AAFF000000000000D7FF78FFA4
:1000D00000000000000080FF64FF0000000000003E
:1000E0005FFF5AFF000000000000FCFF7DFF0000E2
:1000F000000000005FFF5AFF000000000501090238
:10010000A10185020901A1000509190129081500AD
:100110002501950875018102050109300931158114
:10012000257F95027508810609381581257F95017F
:1001300075088106050C0A38021581257F95017521
:10014000088106C0C005010980A101850319012AA3
:10015000B700150126B700950175108100C0050C88
:100160000901A101850419012AA002150126A00296
:10017000950175108100C00660FF0961A101096247
:10018000150026FF009520750881020963150026D9
:10019000FF00952075089102C005010906A101051F
:1001A0000719E029E71500250195087501810295D9
:1001B00001750881010507190029FF150026FF00B8
:1001C0009506750881000508190129059505750131
:1001D0009102950175039101C0000000000000002C
:1001E000000000000000000000000000000000000F
:1001F000000000000000000000000000007E0F0072
:10020000D4FFFFFFC70000007800000000000000DE
:10021000002A2B2800000000000000000000000061
:100220000000000029000000002C1E3420212224A0
:10023000342627252E362D3738271E1F202122232E
:100240002425263333362E37381F040506070809C0
:100250000A0B0C0D0E0F1011121314151617181986
:100260001A1B1C1D2F3130232D35040506070809E4
:100270000A0B0C0D0E0F1011121314151617181966
:100280001A1B1C1D2F3130354C00DA02815AD9F16E
:10029000DB20A4A62EAF00A0C000A1C800AED58070
:1002A000A81FD300408D142000F200E800DE00D427
:1002B00000CA00C000B600AC000000000000000052
:1002C0000000000000E0F0F0F8F8CCCCF8F8F0F016
:1002D00060000000000000000000000000000000BE
:1002E00000000000000F3F7FFCF9F1E1C181000038
:1002F00000000000000000000000000000000000FE
:100300000C387060E0E0F0F0F8F9FFFFFFFFFF7ECF
:100310001C000000000000000000000000000000C1
:100320000000000000E0F0F0F8F8CCCCF8F8F0F0B5
:10033000600000000000000000000000000000005D
:1003400000000000000F3F7FFCF9F1E1C1810000D7
:10035000010102060C040000000000000000000083
:1003600000387C60E0E0F0F0F8F9FFFFFFFFFF7E6F
:100370001C00000000000000000000000000000061
:10038000000000000000000000000000000000006D
:100390000000000000000000000000000000CCF899
:1003A00070000000000000C0F0F8F87CFCEEE6FCF5
:1003B000FC7878B00000000000000000003F7FF1F2
:1003C000F8F87C7CF8F0F0F1E7EFEFFEFEFEFCFCC5
:1003D000F8F06000010306020000000000000000C9
:1003E000000000000000000000000000000000000D
:1003F0000000000000000000000000000080E0F8A5
:100400001C000000000000C0F0F8F87CFCEEE6FCE8
:10041000FC7878300000000000000000003F7FF012
:10042000F8F87C7CF8F0F0F1E7EFEFFEFEFEFCFC64
:10043000F8F0600000000000000000000000000074
:1004400080C0C0E0E03070E0E0C0C080000000008C
:100450000000000000000000000000000000001F7D
:100460007FFFFFE7E7EFEFCFCB83830100000000C2
:1004700000000000000000000000000000061C3822
:1004800078F1E3E3E7F7F7FFFFFFFF7F3E000000AF
:10049000000000000000000000000000000000005C
:1004A0000000000000000000000000000080C0E02C
:1004B000E060E0C0C080800000000000000000009C
:1004C0000000000020F8FEFFFFFF9F0F0E1F1F3FE0
:1004D0003F7EE683030F43439088080000031E3CE1
:1004E00078F0E0E0F0F0FBFFFFFF7F7F38000000D6
:1004F0000000000000000000000000000004F6B84A
:10050000F8D8F0E0C000000080C0E0E0F0F0F0F0CB
:10051000E0E0C080000000000000000080C0E1F3C7
:10052000FB7F1F0F0000F0FFFF3F03010000008072
:10053000C1F3FF7F1F000080C0E0301E3F3F7FF906
:10054000F0F070783C3F1F0F03000000001C3F7F5D
:100550007FFBF1F0783C1E0F030000000101010158
:10056000010101010102020202020202020203036E
:10057000030303030303040404040404040505053E
:100580000505060606060607070707070808080800
:10059000090909090A0A0A0B0B0B0C0C0C0D0D0DAD
:1005A0000E0E0E0F0F0F1010111111121213131443
:1005B00014151516161717181819191A1A1B1B1CBB
:1005C0001D1D1E1E1F202021222223242425262615
:1005D000272829292A2B2C2D2D2E2F30313232334A
:1005E0003435363738393A3B3C3D3E3F4041424353
:1005F0004445464748494A4C4D4E4F505153545537
:100600005658595A5B5D5E5F616264656668696BE6
:100610006C6D6F7072737577787A7B7D7E80828364
:100620008587888A8C8E8F91939596989A9C9EA0A8
:10063000A2A3A5A7A9ABADAFB1B3B5B7BABCBEC0B5
:10064000C2C4C6C9CBCDCFD1D4D6D8DBDDDFE2E47E
:10065000E7E9EBEEF0F3F5F8FAFDFFFFAA7F55406E
:100660001C1004010D190A24232221201F1E1D1B0A
:100670001A18171615141312110F0E0C0B09080770
:1006800006050302002D3945483C303F2526272822
:10069000292A2B2C2E2F31323334353637383A3B3A
:1006A0003D3E404142434446474907087F08070012
:1006B0003E5B4F5B3E003E6B4F6B3E001C3E7C3E04
:1006C0001C00183C7E3C18001C577D571C001C5E0B
:1006D0007F5E1C0000183C180000FFE7C3E7FF0026
:1006E000001824180000FFE7DBE7FF0030483A0657
:1006F0000E00262979292600407F05050700407F46
:1007000005253F005A3CE73C5A007F3E1C1C080070
:10071000081C1C3E7F0014227F2214005F5F005FD4
:100720005F0006097F017F00006689956A006060AE
:100730006060600094A2FFA2940008047E04080098
:1007400010207E20100008082A1C0800081C2A0817
:1007500008001E10101010000C1E0C1E0C0030386B
:100760003E383000060E3E0E06000000000000007D
:1007700000005F000000000700070000147F147FE6
:100780001400242A7F2A12002313086462003649C9
:1007900056205000000807030000001C2241000002
:1007A0000041221C00002A1C7F1C2A0008083E0869
:1007B00008000080703000000808080808000000E9
:1007C000606000002010080402003E5149453E00D0
:1007D00000427F4000007249494946002141494D8D
:1007E00033001814127F10002745454539003C4A54
:1007F000494931004121110907003649494936006C
:10080000464949291E000000140000000040340041
:1008100000000008142241001414141414000041B4
:10082000221408000201590906003E415D594E009C
:100830007C1211127C007F49494936003E414141FA
:1008400022007F4141413E007F49494941007F09E3
:10085000090901003E41415173007F0808087F00EB
:1008600000417F4100002040413F01007F081422E9
:1008700041007F40404040007F021C027F007F0417
:1008800008107F003E4141413E007F0909090600F2
:100890003E4151215E007F091929460026494949F8
:1008A000320003017F0103003F4040403F001F2012
:1008B00040201F003F4038403F006314081463008D
:1008C0000304780403006159494D4300007F41410E
:1008D0004100020408102000004141417F00040251
:1008E00001020400404040404000000307080000AF
:1008F0002054547840007F2844443800384444440D
:100900002800384444287F00385454541800000804
:100910007E09020018A4A49C78007F0804047800D3
:1009200000447D4000002040403D00007F102844EE
:10093000000000417F4000007C04780478007C08BF
:1009400004047800384444443800FC182424180077
:1009500018242418FC007C0804040800485454544B
:10096000240004043F4424003C4040207C001C2020
:1009700040201C003C4030403C00442810284400EB
:100980004C9090907C004464544C440000083641E4
:10099000000000007700000000413608000002015E
:1009A000020402003C2623263C0000000000000058
:1009B000404040F0F8F8FF38FFF8F83FF8F8FF380B
:1009C000FFF8F8F040404000000000000080C0C088
:1009D000C0800000C0C08000000080C0C000C0C057
:1009E000000080C0C00000000000C0C0C0C0C00047
:1009F000C0C0000000000000000000000000000077
:100A000000000000000000000000000000000000E6
:100A100000000000000000000000000000000000D6
:100A2000000000000000000000C0F0F8FC3E1E06C0
:100A3000010000007F4141417F007F4141417F0033
:100A40000080C0E07E5B4F5BFEC00000C000DCD7D2
:100A5000DEDEDED7DC00C000000000000000000089
:100A60000000000000000000000000000000000086
:100A7000494949FFFFFFFFE0DFBFBF00BFBFDFE025
:100A8000FFFFFFFF49494900000000001F3F606071
:100A9000E0BF1F007F7F071E381E077F7F007F7F1C
:100AA0000E1F3B716000000000007F7F0C0C0C00EB
:100AB0007E7E007F7E0303007F7E03037E7E030332
:100AC0007F7E000F3E703C063C703E0F00327B493B
:100AD000493F7E007F7E0303001E3F69696F260049
:100AE000000000000000000000030F1F3F3C787072
:100AF000600000007F4141417F007F4141417F0014
:100B0000307B7F7830202030787F3B0003000F7FE0
:100B10000F0F0F7F0F000300000000000000000017
:100B200000000000000000000000000000000000C5
:100B3000010101070F0F7F0F7F0F0F7E0F0F7F0F38
:100B40007F0F0F07010101000000000000000000FE
:100B50000001010000000000000000000000000093
:100B60000000000000000000000000000000000085
:100B70000000000000000000000000000000000075
:100B80000000000000000000000000000000000065
:100B90000000000000000000000000000000000055
:100BA0000000000000000000000000000000000045
:100BB0000000000000000000000000000000000035
:100BC0000000000000000000000000000000000025
:100BD0000000000000000000000000000000000015
:100BE0000000000000000000000000AF00AE09029D
:100BF0005B00030100A0FA090400000103010100E9
:100C00000921110100012240000705810308000AA3
:100C10000904010002030000000921110100012262
:100C200022000705820320000107050303200001BD
:100C30000904020001030000000921110100012242
:100C40007B000705840320000A1201000200000057
:100C50000832FC87120200010200011E0353006FDC
:100C6000006C00610072006900750073005F005342
:100C7000006F0066006C006500000010034B00650B
:100C8000007900680069007600650000000403092F
:100C9000040011241FBECFEFDAE0DEBFCDBF04B6E3
:100CA00003FE27C080916F0690917006A091710697
:100CB000B09172068730904BA740B04BD1F41092A0
:100CC0006F0610927006109271061092720614BE92
:100CD00084B7877F84BF0FB6F894A8958091600091
:100CE000886180936000109260000FBEE0E0F8E33E
:100CF000099512E0A0E0B1E0E6E7FDE602C005904C
:100D00000D92A632B107D9F726E0A6E2B2E001C003
:100D10001D92AF36B207E1F70E94FC260C94823692
:100D20000C940000CF93DF9340916D0650916E06B6
:100D30004D5654409A01205A3F4F21303240C0F066
:100D400020E032E0241B350B60916B0470916C0441
:100D5000FC01CA01240F351FC1E0D0E082179307C0
:100D600050F070936C0460936B04DF91CF91089501
:100D700020E630E0E9CF4491DC01A359BB4F5C9100
:100D8000451781F04C93AC01A5E056954795AA957F
:100D9000E1F7DE0102C0AA0FBB1F4A95E2F7AD01E1
:100DA0006A2B752B01963196D9CFE8EDF0E0808162
:100DB0008E7F80831092E2001092DA001092E100A0
:100DC000A0EEB0E08C9181608C9380818F778083DE
:100DD00019BCA7EDB0E08C918E7F8C9380818F7EC3
:100DE000808310924D0408952091E4003091E50035
:100DF00095E6A9012091EC00822F817020FF06C0AA
:100E00008091E80080FF06C080E008952091E8000E
:100E100022FD1AC080915B04882389F0853089F017
:100E20008091EB0085FD0FC02091E4003091E5003A
:100E300042175307F9F29150E1F684E0089582E0F9
:100E4000089583E0089581E00895EF92FF920F9353
:100E50001F93CF937C018B010E94F406C82F811150
:100E600017C08091E80085FD0BC08091E8008E7767
:100E70008093E8000E94F406882399F3C82F08C0E5
:100E8000F70181917F018093F1000150110949F729
:100E90008C2FCF911F910F91FF90EF90089580912B
:100EA0005D0487FF13C08091E80082FF06C0809137
:100EB000E8008B778093E80004C080915B04811187
:100EC000F2CF089580915B048823D9F38091E800E4
:100ED00080FFF8CF8091E8008E77ECCF982F909329
:100EE000E900242F762F50E0891731F07091EC0043
:100EF0002091ED005091F00021FD07C09F5F9730D9
:100F000071F78093E90081E008953091EB003E7F16
:100F10003093EB003091ED003D7F3093ED00309148
:100F2000EB0031603093EB007093EC002093ED0008
:100F30005093F0002091EE0027FDE0CF80E008956F
:100F4000CF92DF92EF92FF920F931F93CF93DF9395
:100F5000C8EDD0E088818F7E8883E7EDF0E0808166
:100F60008160808384E082BF81E080934D0488812A
:100F70008E7F888302EE10E0F80110821092DA0072
:100F800081EEC82ED12CF601108288818F7788835C
:100F900088818068888388818F7D888319BC1092BE
:100FA0005B0410925C0410925A041092590490EE63
:100FB000E92EF12CF70180818B7F8083888181600D
:100FC000888342E060E080E00E946E07F601808145
:100FD0008E7F8083F801808181608083808188603A
:100FE0008083F70180818E7F808388818061888300
:100FF000DF91CF911F910F91FF90EF90DF90CF90F5
:101000000895FC018091630490916404861797070A
:10101000A0F06115710529F49091E8009E779093F6
:10102000E80090E06115710551F4911108C08091BC
:10103000E80082FF34C080E00895BC01F2CF8091C7
:101040005B048823C1F18530C1F18091E80083FD04
:1010500030C08091E80082FDEACF8091E80080FFF7
:10106000E1CF8091F3002091F200382F61157105D6
:1010700019F02830310558F091E02830310509F099
:1010800090E02091E8002E772093E800CBCF81916B
:101090008093F100615071092F5F3F4FE7CF80913E
:1010A0005B04882341F0853041F08091E80083FFA4
:1010B000BECF81E0089582E0089583E00895809195
:1010C000500408952FB7F894609146047091470436
:1010D00080914804909149042FBF089520914304C2
:1010E000309144042817390771F090934404809399
:1010F0004304E0914104F0914204309721F00084D0
:10110000F185E02D0994089520913F043091400429
:101110002817390771F09093400480933F04E091C1
:101120004104F0914204309721F00680F781E02DD0
:10113000099408952091320436E0839FC001112460
:10114000629F800D911D1124811522E0920714F0F9
:1011500090E080E083599B4F90936E0680936D06DC
:101160000895FC01680F791F8FEF91E32191822789
:1011700028E030E087FF09C0880F89272150310916
:10118000C9F7E617F70791F70895880FF7CFFA0127
:10119000811101C0FB01099480916604982F9E7F04
:1011A00061F4817082608093660480916904813A61
:1011B00018F080EA8093690408958831B0F3817053
:1011C0008661F1CFAF92BF92DF92EF92FF920F93C1
:1011D0001F93CF93DF93082F162FE901E42FF0E040
:1011E000E55AFA4F611110C0E4915E2F4E2F4983EA
:1011F000E8835A83DF91CF911F910F91FF90EF9079
:10120000DF90BF90AF900895E62EF12C4491D42E3C
:10121000E42FF0E026E0829FC00111242FEF30E0A0
:10122000B9010E948133802F90E0880F991F55E506
:10123000569FD001579FB00D11248A1B9B0B982FEE
:10124000990F890F5901AE18BF08AE9ED001AF9E0D
:10125000B00DBE9EB00D11245B2F189F800111248C
:10126000012F11275901A01AB10AAE9E8001AF9E2D
:10127000100DBE9E100D11245901A81AB108AE9C84
:10128000C001AF9C900DBE9C900D1124892F992711
:10129000281B390B2E9FC0012F9F900D3E9F900D54
:1012A0001124E92F62307105A1F050F46115710528
:1012B00009F49DCF6130710581F0EB2F512F97CF4D
:1012C0006430710569F080F06630710509F48FCFE4
:1012D000F4CFE42F4B2F592F8ACFE42F412F87CF04
:1012E000EB2F542F492F83CF4B2F5D2DE12F7FCF35
:1012F00080E0089578940895F894E82FE295EF70CF
:10130000F0E031A1282F2F7081E090E001C0880F1C
:101310002A95EAF7982F9095932391A392A1892B70
:1013200082A30C947A099091CF0292FF06C0282FD5
:1013300028712830F9F4877F846093FF06C0282F36
:1013400028712831F1F4877E84612091D00220FF3A
:1013500006C0382F38713830D9F4877F816021FF7B
:1013600006C0282F28712831D1F4877E816194FD31
:10137000877E0895282F24712430F9F68B7F8860AA
:10138000DCCF282F2471243101F78B7E8861DDCFDB
:10139000382F3171313019F78E7F8860E0CF282FD8
:1013A0002171213121F78E7E8861E1CFCF93DF93C8
:1013B000EC018238910581F1B0F58133910509F492
:1013C00091C020F58932910509F485C08A9709F406
:1013D00090C0C11521E5D20708F0AAC0C11530E5BB
:1013E000D30708F0F2C0CF3BD10508F089C0C83A56
:1013F000D10508F0DFC0C53AD10508F0D3C0C4302C
:10140000D105F8F4C130D105E1F040C08533910534
:1014100009F45AC0C997E9F68091CF02837089F028
:10142000C0EED0E00EC0833E910599F170F4803E8D
:10143000910501F1823E910561F68091CF0282FD16
:1014400021C0CE01DF91CF910895863E910561F1D3
:10145000873E910571F1843E910509F0BACF8091E4
:10146000D00281FFEECF8091CF02C7EED0E084FDA5
:101470000DC0E7CF8091CF0280FDF7C09091D002E0
:1014800090FFDFCFC3EED0E084FFDBCFD0E0C0E041
:10149000D8CF8091CF0282FDEBC09091D00290FD19
:1014A000BFCF84FFCECFF2CF8091CF0283FDDDCFBF
:1014B000C8CF8091CF0283FDDEC09091D00291FF12
:1014C000F0CFC4EED0E0BDCF8091CF0285FFB9CF81
:1014D000C9E2D0E0B6CF8091CF0285FFB2CFC5E39D
:1014E000D0E0AFCF8091CF0286FFABCFCAE2D0E091
:1014F000A8CF8091CF0286FFA4CFC1E3D0E0A1CFD7
:10150000C11540E2D40760F4C11581E0D80708F0A6
:1015100098CFCE01815E9109079708F492CFB6CF9C
:10152000C11590E4D90708F4B1CFDF70D06A89CF34
:10153000C11524E5D20778F4C11533E5D30708F0C7
:1015400072C0C11542E5D40708F05CC0DC2FCC277F
:10155000C16FD06A76CFC1158AE5D80778F4C11576
:1015600099E5D90708F073C0C11528E5D20708F43A
:101570008DCFDC2FCC27C06FD06A63CFCE019056C1
:101580008115904208F082CF8D2F8F710E949309B0
:1015900090E0982F882788279F719C012C2BE901C8
:1015A000D0624FCFC55AD0E0C154DE4FC881D0E0E1
:1015B000D06447CFC85AD0E0CC0FDD1FCE53DE4FEA
:1015C0000990D881C02DD4643CCFCE0164E09695BB
:1015D00087956A95E1F783702C2F269526952370C1
:1015E00040E2249F90011124382B8C2F8370C1E09E
:1015F000D0E002C0CC0FDD1F8A95E2F7C22BD32BBF
:10160000DC681FCFCE018370992721E030E002C053
:10161000220F331F8A95E2F7C695C69580E2C89FD0
:10162000E0011124EBCFCE018370992721E030E057
:1016300002C0220F331F8A95E2F7C695C69590E245
:10164000C99FE0011124C22BD32BDA68FACE8C2F6C
:101650008F700E94930934E0D695C7953A95E1F7CB
:10166000CF709C2FEC01D069ECCEC9E3D0E0E9CE7D
:10167000C2EED0E0E6CEC6EED0E0E3CE0C94620837
:1016800080914E0490918902892B90918802892B38
:1016900080932802E0914104F0914204309731F0A8
:1016A0000280F381E02D88E292E009940895809110
:1016B000870290915602981301C008958F5F87703A
:1016C000FACF27E0929F800D1124982F977086956E
:1016D0008695869523E0829FF0011124EB5CFD4FF7
:1016E00050E040E080E0219130E0092E02C03695C4
:1016F00027950A94E2F721703327042E01C0220FA8
:101700000A94EAF7822B4F5F5F4F4330510559F738
:10171000089527E0929F800D1124982F977041E043
:1017200001C0440F9A95EAF786958695869593E0D1
:10173000899FF0011124EB5CFD4F90E080E070E0A8
:101740005191DF0111979B01082E02C03695279514
:101750000A94E2F7217021952527242325272C932D
:1017600001968330910561F7089590E080E00E9432
:10177000840890E080E00E946E0810928902109226
:1017800088020C94400B80938A020C94B50B88233A
:1017900041F0809590914E04892380934E040C94DF
:1017A000400B0895882339F090914E04982B909324
:1017B0004E040C94400B08958823B1F19CEF980FD0
:1017C000913A70F4EAE2F2E09191891303C0DF01EB
:1017D00011971C9242E0E033F407B1F70C94400BF0
:1017E00090E2980F983088F4877021E030E0A901EA
:1017F00002C0440F551F8A95E2F7CA018095909167
:101800004E04892380934E04E9CF9BE5980F9330D3
:1018100020F490E080E00C948408885A873120F40A
:1018200090E080E00C946E0808950F931F93CF937F
:10183000C82F882309F469C08CEF8C0F813AB0F56A
:101840000AE212E080E392E0F8012191C21701F16F
:1018500022E0E033F207C9F7EFEF80E0D8019D9175
:101860008D01C91781F0EF3F19F4911101C0E82FE4
:101870008F5F863099F7EF3F31F00E2E000CFF0B93
:10188000E85DFD4FC283CF911F910F910C94400BE7
:10189000EAE2F2E02191C21303C0DF0111971C922A
:1018A0008E179F07B9F70E94400BD6CF80E28C0FAE
:1018B000883068F4C77021E030E001C0220FCA957B
:1018C000EAF780914E04822B80934E04DCCFEBE547
:1018D000EC0FE33050F4F0E0E154FE4F808190E0F3
:1018E000CF911F910F910C948408C85AC73168F4A6
:1018F000EC2FF0E0EE0FFF1FEE53FE4F8081918141
:10190000CF911F910F910C946E08CF911F910F9161
:101910000895982F92959F7011F0892F94E0282FA9
:101920002695269511F09E5F822F869509F09F5F80
:10193000892F0895CF93DF93CDB7DEB762970FB6A7
:10194000F894DEBF0FBECDBF96E0E9E1F3E0DE0123
:10195000179601900D929A95E1F796E0FE01379661
:10196000DE011D9601900D929A95E1F798858823E6
:10197000E9F0962B9E8786E0FE013D96DE011196EA
:1019800001900D928A95E1F786E0FE013196A9E17A
:10199000B3E001900D928A95E1F762960FB6F89444
:1019A000DEBF0FBECDBFDF91CF9108956095962326
:1019B000E1CFDC01FB0180819181803891054CF001
:1019C0008FE78C93808191818F57910991838083D8
:1019D000089581382FEF92073CF481E88C93808141
:1019E000918181589F4FF2CF8C931182108208957C
:1019F000681708F5861B682F21E0469FA001112477
:101A0000649FF001659FF00D1124409159015091A0
:101A10005A01E49FC001E59F900DF49F900D1124A1
:101A2000880F892F881F990B9195222319F0919582
:101A3000819591090895681B20E0DFCF0F931F93D4
:101A4000CF93DF9300D000D0CDB7DEB789836A8310
:101A50004B831C8204E610E024E030E0AE014F5FCF
:101A60005F4F60E084E10E94DF300F900F900F9095
:101A70000F90DF91CF911F910F91089580912703CF
:101A8000882329F047E669E98BE20C941E0D6091EA
:101A9000590170915A0190E080E00E94223520E0C7
:101AA00030E040E05CE30E94153620E030E040E8A2
:101AB0005FE30E94EE34882321F047EC6BE180E085
:101AC000E4CF41E265EA89EDE0CFCF92DF92EF9279
:101AD000FF920F931F93CF93DF936C017B0164E61A
:101AE00070E088E70E94C72FEC0197FD12C010E05C
:101AF00000E0F601E00FF11F849164E670E00E94BF
:101B00004130EC01892B29F40F5F1F4F0E151F0583
:101B100081F70E945B31CE01DF91CF911F910F9130
:101B2000FF90EF90DF90CF90089580913D049091C9
:101B30003E04911103C091E089270895882369F03C
:101B400062E070E08CEE9BE00E94650D892B19F03D
:101B500080913D04089510923D0480913D04EBCFA7
:101B6000CF93C0913D0480913E048823D1F00E9420
:101B700062086058774C8E4F9F4F60933904709382
:101B80003A0480933B0490933C04C11108C062E086
:101B900070E08AEE9BE00E94650D892B29F0C091D0
:101BA0003D048C2FCF91089581E080933D04F7CFC1
:101BB00090915B04943029F580934A0470934C040F
:101BC00060934B049093E9008FEF9091E80081506F
:101BD00095FD06C095ED9A95F1F700008111F5CFBE
:101BE0008091E80085FF0DC050E040E063E070E0C8
:101BF0008AE494E00E9425078091E8008E77809324
:101C0000E8000895BC0184E00C94D80DBC0183E089
:101C10000C94D80D9C0184E08093E9009FEF8091A3
:101C2000E800915085FD06C085ED8A95F1F700002A
:101C30009111F5CF8091E80085FF0CC050E040E0A5
:101C400066E070E0C9010E9425078091E8008E7768
:101C50008093E8000895CF93DF93EC0181E08093B7
:101C6000E9008FEF9091E800815095FD06C095ED59
:101C70009A95F1F700008111F5CF8091E80085FF7A
:101C800014C050E040E068E070E0CE010E942507FB
:101C90008091E8008E778093E80088E0FE01A1E55E
:101CA000B4E001900D928A95E1F7DF91CF9108950C
:101CB0009F92AF92BF92CF92DF92EF92FF920F93DB
:101CC0001F93CF93DF937C015B016A018091CA026D
:101CD00001E010E08A3010F40AE010E0C1E0D0E04A
:101CE000F894B501C701F6010995982E0E947A096A
:101CF000911004C021960C171D076CF4892DDF91FB
:101D0000CF911F910F91FF90EF90DF90CF90BF90F8
:101D1000AF909F900895CC9F9001CD9F300D300DD6
:101D2000112490E080E045E34A95F1F70000019628
:101D300082179307C1F7D4CF80919A02811110C006
:101D40008091D80080618093D8008AE18A95F1F76C
:101D500000C08091D90080FF0AC081E080939A0280
:101D600081E090919A02913009F080E0089582E03C
:101D700080939A020E94D50610925B04F1CF0E94D4
:101D80009C0E882351F0E0914104F0914204309779
:101D900021F00190F081E02D099480E008951F93D7
:101DA000CF93DF93182FEB010E94150C8FE99FE072
:101DB0000197F1F700C000002197C1F7812FDF9153
:101DC000CF911F910C94DC0B4F925F926F927F9298
:101DD0008F929F92AF92BF92CF92DF92EF92FF923B
:101DE0000F931F93CF93DF93CDB7DEB7CE5DD109AD
:101DF0000FB6F894DEBF0FBECDBF5090700190912A
:101E0000660490FF5DC0809052039090530381144C
:101E1000910409F068C0E0E6F6E09E012F5F3F4FB5
:101E2000BE0161527F4FC901A4914A2F50E0DA01EF
:101E3000AA0FBB1FA40FB51FAC5ABC4FCD90DD90AD
:101E4000EC90D901CD92DD92ED929D0131966A1709
:101E50007B0751F720916F0143E0249F800D911D76
:101E60001124539A2BB1277F3BB138605FB7F894A8
:101E7000BC01549E600D711D11248617970709F04F
:101E80008EC05FBF8FE594E00197F1F700C00000BE
:101E9000C252DF4F0FB6F894DEBF0FBECDBFDF9149
:101EA000CF911F910F91FF90EF90DF90CF90BF9057
:101EB000AF909F908F907F906F905F904F9008951C
:101EC000809171012091720133E0839FF001112410
:101ED000EC5AFC4F821708F096CF118210821282C2
:101EE0008F5F3396F7CF90FF96CFD12CC12C66240D
:101EF0006394712C53E0452E8091510393010C2C77
:101F000001C0220F0A94EAF7822309F43FC0F601C8
:101F1000EE0FFF1FE80DF91DE590F490E114F104B8
:101F200009F479CF45E050E0B701CE0101960E9457
:101F3000033409810F3F51F18A81800F9927991F3E
:101F40008B34910514F08AE490E05C01AA0CBB1C70
:101F50008A0D9B1DDC01AC5ABC4F5D01049D8001C4
:101F600011240C5A1C4F0A151B0520F0B5E0EB0E8E
:101F7000F11CD8CF4D81413A08F040EA98016C81BC
:101F80008B810E94E2080D5F1F4FEDCFEFEFCE1A5D
:101F9000DE0AF8E0CF16D10409F0AECF3CCFFC0149
:101FA0004191CF01E8E03BB9000000C047FF2BB9E9
:101FB000440F000000C000C000C02BB900C0EA956B
:101FC00091F75BCFE6E6F4E080818E7F8083EEE4DC
:101FD000F3E08281816082832FEF80E792E02150DD
:101FE00080409040E1F700C000000C94E40EEAE26B
:101FF000F2E086E0DF011D928A95E9F70C94B50BBB
:102000001F93CF93DF93CDB7DEB7AA970FB6F8949F
:10201000DEBF0FBECDBF8DE594E02091F100DC0165
:102020002D93CD01B4E085369B07B9F780915E040E
:10203000833009F471C0B8F4813009F448C08230AB
:1020400009F4B4C08091E80083FF3CC180915D0435
:1020500090915E049A3008F035C1E92FF0E0EC571A
:10206000F94C0C94D4338A3009F48FC08B3009F4C6
:1020700070C0893039F780915D04813219F7809101
:10208000610490916204009711F00297D9F6809153
:10209000E800877F8093E8008091E80082FF37C0E6
:1020A0009091F3008091F200029729F48091F10061
:1020B0008B7F813021F48091F100809350048091D6
:1020C000E8008B778093E8000E944F07BBCF809198
:1020D0005D04813A09F0B6CF8091E800877F809354
:1020E000E8008091610490916204892B61F468E0BA
:1020F00081E594E070E00E9401088091E8008B7710
:102100008093E8009FCF60E090E080E0F3CF809183
:102110005B048111C1CF96CF80915D04813A09F0B3
:1021200091CF8091610490916204892B09F08ACF4C
:102130008091E800877F8093E8008091E80080FF2D
:10214000FCCF809174018093F1008091E8008E773C
:10215000B9CF80915D04813209F074CF8091610420
:1021600090916204892B09F06DCF8091E800877F00
:102170008093E8000E944F0780915F048093740170
:1021800010924E040E94F70F5DCF80915D04813262
:1021900009F058CF8091E800877F8093E8000E9483
:1021A0004F078091600480934F044CCF80915D0471
:1021B000813A09F047CF8091E800877F8093E8005B
:1021C0008091E80080FFFCCF80914F04BCCF803825
:1021D00099F0823809F076C0809161048F70873061
:1021E00008F070C08093E9008091EB0085FB8827A0
:1021F00080F91092E90006C08091590490915A0428
:10220000911182609091E800977F9093E80080930D
:10221000F1001092F1008091E8008E77B5C188231B
:1022200009F4A2C1823009F04DC080915F04811190
:10223000A6C1809161048F702FEF280F263008F01F
:1022400041C08093E9002091EB0020FF98C19330BA
:1022500031F48091EB0080628093EB0090C190910B
:10226000EB0090619093EB0021E030E001C0220F81
:102270008A95EAF72093EA001092EA008091EB0039
:102280008860EACF81111EC010915F041F77809192
:10229000E3008078812B8093E3008091E800877FC2
:1022A0008093E8000E944F078091E80080FFFCCFF8
:1022B0008091E30080688093E30082E0111183E065
:1022C00080935B048091E80083FF0AC08091E8005E
:1022D000877F8093E8008091EB0080628093EB0021
:1022E000AA960FB6F894DEBF0FBECDBFDF91CF9197
:1022F0001F9108958058823028F720915F04309113
:1023000060042C3DE3E03E07A1F583E08A838AE286
:1023100089834FB7F894DE01139620E03EE051E246
:10232000E32FF0E050935700E49120FF03C0E295C3
:10233000EF703F5FEF708E2F90E0EA30C0F0C796ED
:102340008D939D932F5F243159F74FBF8091E80003
:10235000877F8093E8006AE270E0CE0101960E94D8
:1023600001088091E8008B778093E800ABCFC0969E
:10237000E7CF8091610490916204432F5527433049
:10238000510509F44AC078F54130510509F47AC085
:102390008BE590E0EEEEFBE04230510509F092CF84
:1023A0002091E800277F2093E8002091630430917A
:1023B00064048217930708F49C0140E0211531055D
:1023C00009F065C0411163C08091E80082FDC9CF6A
:1023D00080915B04882329F2853019F28091E8000E
:1023E00083FFF2CFBECF4132510509F43CC04232E7
:1023F000510509F067CF8330910508F063CFFC01E8
:10240000EE0FFF1FE75EFD4F0190F081E02D8A5E29
:102410009D4FDC018C9190E01AC0332721303105AB
:10242000D1F02115310561F02230310509F04ACF94
:10243000EBE5FCE0E4918E2F90E0EBE5FCE007C0DB
:10244000EDE8FCE0E4918E2F90E0EDE8FCE00097F1
:1024500009F438CFA5CFEBE7FCE0E4918E2F90E0B4
:10246000EBE7FCE0F4CF8330910508F02BCF880F29
:10247000991FFC01E15EFD4F0190F081E02D89E0A4
:1024800090E08ECF82E190E0E9E4FCE089CF80919A
:102490005B04882309F465CF853009F462CF80910D
:1024A000E80083FD5ECF8091E80082FD8DCF8091B2
:1024B000E80080FF83CF9091F3008091F200211516
:1024C000310519F08830910550F041E0089709F086
:1024D00040E08091E8008E778093E8006FCF4491D0
:1024E0004093F1003196215031090196E8CF8038B0
:1024F00009F0E8CE8091E800877F8093E800809122
:102500005C048093F10087CE8111DCCE10915F04D2
:10251000123008F0D7CE8091E800877F8093E800E2
:1025200010935C040E944F07112311F084E005C052
:102530008091E30087FDFACF81E080935B0442E065
:1025400061EC81E00E946E0742E261EC84E00E944F
:102550006E0742E261EC82E00E946E0742E260ECAC
:1025600083E00E946E07AECE80915F04813009F057
:10257000A9CE81E0933009F080E080935A04109254
:10258000E9008091E800877F8093E8000E944F0770
:1025900099CE1F93CF93DF93162FC0916D06D091E4
:1025A0006E068A30D1F420913204CE018D569440CB
:1025B000622F70E00E948133281B822F66E00E9408
:1025C0009533C82FC15020F4DF91CF911F9108950A
:1025D00060E080E20E94C912F5CF8D30E9F4CD565B
:1025E000D44020913204622F70E0CE010E948133EA
:1025F000281B822F9E01280F311D2115324018F013
:1026000080E0D0E0C0E0C80FD11DC359DB4FD093AC
:102610006E06C0936D06D8CF96E0FE01A3E3B4E04A
:1026200001900D929A95E1F7803E90F186E0FE01CF
:1026300011928A95E9F7C0916D06D0916E0611113D
:1026400033C046E050E0BE0183E394E00E940C34C6
:102650009E012D563440892B91F52A5F3F4F4091C2
:102660003204642F70E0C9010E948133481B463058
:1026700010F4240F311D211572E0370710F030E0FF
:1026800020E023593B4F30936E0620936D069CCF7C
:10269000F6E08F9FB00111246655794F46E050E077
:1026A000CE010E940334C7CF9E012A5F3F4FFE0137
:1026B0002E173F0731F2808180958193F9CFC901B0
:1026C00045E0969587954A95E1F741E050E0BA01DB
:1026D00002C0660F771F8A95E2F7CB0160916B0409
:1026E00070916C04862B972BB9016B5F7F4FE5E0EF
:1026F00076956795EA95E1F702C0440F551F6A95F4
:10270000E2F7842B952B90936C0480936B04A5CFF8
:10271000FF920F931F93CF93DF93EC01F62EFC01F2
:1027200001900020E9F78F0101501109C017D1076E
:1027300030F0DF91CF911F910F91FF9008956F2D91
:1027400089910E94C912F2CFCF93DF93C3EED2E0FA
:1027500060E0CE010E9436342196C11584E0D8078E
:10276000B9F7DF91CF9108956F927F928F929F92E8
:10277000AF92BF92CF92DF92EF92FF920F931F938F
:10278000CF93DF938AEAC82E86E0D82E91ECE92E0B
:10279000F12CE701CC58D10936011BC0F501859019
:1027A0009490692DC8010E943634682DC8010196A5
:1027B0000E94363482E0A80EB11C0E5F1F4FC01776
:1027C000D10761F78EE0680E711C2E96CE15DF05DD
:1027D00029F08E010E5011095301E0CF7E018CE8E3
:1027E000E80EF11C8CE8C80ED11C8DE7E81683E0DA
:1027F000F80679F6DF91CF911F910F91FF90EF903E
:10280000DF90CF90BF90AF909F908F907F906F9010
:102810000895CF93C82F6FEF811161E283E290E0BA
:102820000E9436346FEFC11161E184E290E00E94B2
:1028300036346FEFC11163E085E290E0CF910C94E4
:10284000363480E00E94091460E086E290E00E9445
:1028500036340E94B4130E94A41381E00C9409142E
:102860000F931F93CF93DF93C42FD0E0CC0FDD1FC6
:102870002EE0629FC00DD11D11243CE8839FC00D46
:10288000D11D1124CE0187960E942234082F10E01A
:10289000102F0027CE0188960E9422349801282B01
:1028A000C901DF91CF911F910F910895462F853077
:1028B00038F47A3028F4673018F4672F0C94301409
:1028C00090E080E00895CF92DF92FF920F931F93E4
:1028D000CF93DF936C010091650480918A02082BED
:1028E000C7E0D0E010E0FC2EC8010C2E02C0959588
:1028F00087950A94E2F780FD0CC02197A0F7F12C90
:102900008F2DDF91CF911F910F91FF90DF90CF908E
:102910000895B6018C2F0E9456140E94D609019783
:1029200061F3EECFCF93DF93EC010E946314BE01FD
:102930000E945614DF91CF910C94D609FC0180813E
:1029400091810E949214292F2F7092959F7092501E
:102950009E3078F4E92FF0E0E257F94C0C94D43330
:10296000803F19F020F4883E20F481E00895843FF0
:10297000E1F380E00895883EC0F3813FD1F7F5CFC1
:10298000822F869586958695089583E290E00E9431
:102990002234813289F484E290E00E942234813131
:1029A00059F485E290E00E94223491E0833009F0EE
:1029B00090E0892F8170089580E0FCCFCF92DF9264
:1029C000EF92FF926B017C010E94CC08B701A60137
:1029D00088E090E0FF90EF90DF90CF900C94483427
:1029E000AF92BF92CF92DF92EF92FF920F931F931D
:1029F000CF93DF9300D00F92CDB7DEB7082FF62E1E
:102A0000142FE22E8091660480FF4FC0E82FE695D8
:102A1000AE2FB0E0A65FBD4F9C9190934E038E7F8A
:102A2000823009F056C0413A08F040EA9E012F5F1B
:102A30003F4F6F2D802F0E94E2088091660480FF37
:102A400011C02B8139814A8180917101909172016D
:102A500053E0859FF0011124EC5AFC4F891798F13F
:102A60000E94E40E80916704801308C0809168047E
:102A70008F1104C080916904811729F0809150035F
:102A800082608093500300936704F092680410936F
:102A90006904EE2051F060916604709167048091A2
:102AA0006804909169040E94DE140F900F900F90BB
:102AB000DF91CF911F910F91FF90EF90DF90CF901A
:102AC000BF90AF9008954183308322838F5F339608
:102AD000C5CF923039F6E2508E2F8170D82EE69510
:102AE000F0E0E55AF94FA590B490C12CBB24609159
:102AF0007301C61608F0B4CF2C2D30E0A29EC001A1
:102B0000A39E900DB29E900D112470E00E9481331F
:102B1000802FD11016C0860F40917101420F532FA4
:102B2000511D9A01220F331F240F351F2C5A3C4F81
:102B3000412F113A08F040EA6F2D0E94E208C39439
:102B4000D6CF861BE9CFE6E6F4E0438121E1421BC4
:102B500008F440E021E0628181810C94F014E6E603
:102B6000F4E0438121E1420F08F44FEF21E062815C
:102B700081810C94F014E6E6F4E0628121E1621BAD
:102B800008F460E021E0438181810C94F014E6E6D2
:102B9000F4E0628121E1620F08F46FEF21E04381EC
:102BA00081810C94F014E6E6F4E0818121E0438118
:102BB000628188500C94F014E6E6F4E0818121E013
:102BC00043816281885F0C94F01480916A048823A9
:102BD00019F0815080936A046091660470916704D3
:102BE00080916804909169040C94DE1480916A04C9
:102BF000833018F48F5F80936A046091660470914B
:102C0000670480916804909169040C94DE1490919B
:102C1000660490FF27C0917081111DC0926090934F
:102C2000660480915003816080935003662351F0C5
:102C300060916604709167048091680490916904C2
:102C40000E94DE1420E04091690460916804809144
:102C500067040C94F0148C3010F09661E0CF880F6C
:102C6000982BDDCF089521E030E0A90102C0440F88
:102C7000551F8A95E2F7CA0120915103662391F00E
:102C8000822B809351038091500380618093500385
:102C900080914F03811109C08091660460E08695A0
:102CA0000C94071680958223ECCF0895CF93DF9381
:102CB000C82FC17082FBDD27D0F981FB662760F940
:102CC00085E00E94331661E06C2786E00E9433168F
:102CD0006D2F87E0DF91CF910C9433160F931F93E4
:102CE000CF93C82F61E08111682F617080E00E944E
:102CF0003316C1FB662760F9C11101C060E081E0B5
:102D00000E943316C2FB662760F9C11101C060E062
:102D100082E00E943316C3FB662760F9C11101C02F
:102D200060E083E00E943316C4FB662760F9C1119E
:102D300001C060E084E00E9433164C2F50E070E048
:102D400060E0DB01CA01F4E0B695A79597958795F9
:102D5000FA95D1F70097A105B10549F1AC01BD0184
:102D600084E08A019B01E2E0369527951795079547
:102D7000EA95D1F7011511052105310519F08E5F8E
:102D8000B901A8017695679557954795452B462B30
:102D9000472B09F08F5F8230A1F158F48823D1F0DE
:102DA000813041F18C2FCF911F910F91089580E0D8
:102DB000D8CF833059F18430A9F720E040E56FEF98
:102DC0008AED0E94F01480910001882359F310923B
:102DD00027030DC020E040E56FEF82E30E94F0146E
:102DE00080910001882399F381E0809327030E945A
:102DF0003E0DD8CF20E040E56FEF8CEF0E94F0143D
:102E0000D1CF20E040E56FEF80E5F8CF20E040E54E
:102E10006FEF86E7F3CF0E946E16809365040C94E3
:102E2000B50B80916504982F9670963019F48860E0
:102E30000C940B17877FFCCF21E030E001C0220FFC
:102E40008A95EAF720958091650482230C940B17EC
:102E500021E030E001C0220F8A95EAF780916504F5
:102E6000822B0C940B17809166048695815009F48F
:102E70008BE061E00C9407168091660486958F5F65
:102E80008C3008F081E061E00C94071680916604B4
:102E900080FF07C0869582588F77893010F40C9494
:102EA0003C1761E082E00C940716E6E6F4E083E06C
:102EB000808311828FEF828380EA83831482AEE461
:102EC000B3E012968C911297836012968C93608176
:102ED0007181828193810C94DE1469EE7EEF90E023
:102EE00080E00E94543460E082E090E00E9436343A
:102EF00060E083E090E00E94363410928A0260E045
:102F000084E090E00E94363460E082E290E00E942B
:102F1000363460E085E090E00E94363460E086E080
:102F200090E00E9436346FEF87E090E00E943634E4
:102F300040E050E0BA0188E090E00E94483460E050
:102F40008DE090E00E94363440E050E0BA0188E124
:102F500090E00E94483460E087E190E00E943634BF
:102F600040E050E0BA018CE190E00E94483470E00B
:102F700060E080E290E00E94543440E050E0BA010A
:102F800088E190E00E94483480E00E9409140E9489
:102F9000211440E050E0BA018FE090E00E944834F4
:102FA00040E050E0BA0183E190E00C9448340F9384
:102FB0001F93CF93DF9300D000D0CDB7DEB7409101
:102FC000BE025091BF026091C0027091C1022FB742
:102FD000F8948091460490914704A0914804B091E0
:102FE00049042FBF841B950BA60BB70B84369105A4
:102FF000A105B10588F10E949C0E882379F10E94F9
:1030000062086E5F7F4F8F4F9F4F69837A838B83F8
:103010009C8380912C0190912D0188559D4F40916A
:103020002B0150E04530510510F044E050E0BE0166
:103030006F5F7F4F0E94193484E090E00E94CD3290
:10304000892BD9F40E9462086093BE027093BF027C
:103050008093C0029093C10281E010C00E94620878
:103060000091CB021091CC022091CD023091CE0282
:10307000600F711F821F931FC4CF80E00F900F90CD
:103080000F900F90DF91CF911F910F9108958F9224
:103090009F92AF92BF92CF92DF92EF92FF920F93E7
:1030A0001F93CF93DF93EB0188809980AA80BB8028
:1030B0009FB7F894C0904604D0904704E09048042D
:1030C000F09049049FBFC818D908EA08FB0894E6A5
:1030D000C916D104E104F10410F4442311F1E82EDF
:1030E000082E000CFF089AE08902F0011124EF5F1E
:1030F000FE4F8381948188559D4F428150E0041793
:10310000150708F4A801B9010E941934C7010E94EB
:10311000CD32892BA1F40E946208688379838A8367
:103120009B8381E0DF91CF911F910F91FF90EF90F2
:10313000DF90CF90BF90AF909F908F90089580E0E8
:10314000F1CF0F931F93CF93DF930F92CDB7DEB7DD
:1031500080913D0489832091BD0290E041E02817D1
:10316000190609F440E001E010E09E012F5F3F4F97
:1031700066EC72E086E00E9447180F90DF91CF91D5
:103180001F910F9108950F931F93CF93DF93CDB7A6
:10319000DEB729970FB6F894DEBF0FBECDBF85E02E
:1031A000E6E6F4E0DE01119601900D928A95E1F7D2
:1031B00080914E0390914F03A0915003B091510321
:1031C0008E839F83A887B98741E08885811101C0DC
:1031D00040E009E010E09E012F5F3F4F62EC72E09B
:1031E00085E00E94471881111092500329960FB66E
:1031F000F894DEBF0FBECDBFDF91CF911F910F912D
:1032000008956F927F928F929F92AF92BF92CF92CA
:10321000DF92EF92FF920F931F93CF93DF930F9262
:10322000CDB7DEB7862E5A016901682E880F770860
:10323000C3010E94CD32892B09F088C08AE0869DA7
:10324000F001879DF00D1124EF5FFE4F458150E0A6
:103250004115510511F041E050E08AE0869DF001F2
:10326000879DF00D1124EF5FFE4F668177816855D1
:103270007D4FCE0101960E941934F50140815181A4
:10328000628173812FB7F89480914604909147042E
:10329000A0914804B09149042FBF841B950BA60B45
:1032A000B70B84369105A105B10540F4B701C801FB
:1032B0000E94B1089981891709F44FC0082C000CAD
:1032C0009908C4010E94CD32892B91F0B12C8B2D2D
:1032D0000F90DF91CF911F910F91FF90EF90DF90B2
:1032E000CF90BF90AF909F908F907F906F900895F8
:1032F0008AE0889DF001899DF00D1124EF5FFE4F5B
:10330000458150E0E416F50608F4A7018AE0889D9F
:10331000F001899DF00D1124EF5FFE4F66817781EA
:1033200068557D4FC6010E941934B701C8010E943B
:10333000B10899818913CACF0E946208F5016083A0
:10334000718382839383BB24B394C1CFB12CA70133
:10335000B801C6010E941934BACFBB24B394F7CF89
:10336000CF92DF92EF92FF920F931F93CF93DF9351
:1033700000D000D00F92CDB7DEB76B0185E0E82E0C
:10338000F12C09EA12E09E012F5F3F4F40EA52E024
:1033900061E080E00E940119882349F095E0FE0178
:1033A0003196ABE9B2E001900D929A95E1F795E084
:1033B000EBE9F2E0D60101900D929A95E1F70F90BA
:1033C0000F900F900F900F90DF91CF911F910F9161
:1033D000FF90EF90DF90CF90089590E080E00E9402
:1033E0003034893E9E4F11F40C94C51480E008954A
:1033F0001F920F920FB60F9211242F933F934F936A
:103400005F936F937F938F939F93AF93BF93CF936C
:10341000DF93EF93FF93D091E900DF708091EC0090
:10342000C82FC17080FDC0E81092E9008091F000C3
:10343000877F8093F00078940E9400101092E9003A
:103440008091F00088608093F000CD2BCF70C09306
:10345000E900FF91EF91DF91CF91BF91AF919F91E3
:103460008F917F916F915F914F913F912F910F902D
:103470000FBE0F901F9018951F920F920FB60F92CC
:1034800011242F933F934F935F936F937F938F9369
:103490009F93AF93BF93EF93FF938091E10082FFDF
:1034A00009C08091E20082FF05C08091E1008B7F1E
:1034B0008093E1008091DA0080FF24C08091D800E1
:1034C00080FF20C08091DA008E7F8093DA008091A7
:1034D000D90080FF9BC080E189BD82E189BD09B42C
:1034E00000FEFDCF81E080935B0480914D0481114B
:1034F00009C00E94D5060E94A0078091E200846066
:103500008093E2008091E10080FF17C08091E2008B
:1035100080FF13C08091E2008E7F8093E200809153
:10352000E20080618093E2008091D8008062809305
:10353000D80019BC85E080935B048091E10084FF92
:1035400029C08091E20084FF25C080E189BD82E12D
:1035500089BD89B5982F917080FFFBCF8091D800ED
:103560008F7D8093D8008091E1008F7E8093E10071
:103570008091E2008F7E8093E2008091E200816082
:103580008093E20080915C04882309F445C084E0C4
:1035900080935B048091E10083FF27C08091E2006B
:1035A00083FF23C08091E100877F8093E10082E068
:1035B00080935B0410925C048091E1008E7F809385
:1035C000E1008091E2008E7F8093E2008091E20032
:1035D00080618093E20042E060E080E00E946E073C
:1035E0008091F00088608093F000FF91EF91BF918F
:1035F000AF919F918F917F916F915F914F913F918B
:103600002F910F900FBE0F901F90189519BC10921C
:103610005B0410924D0476CF8091E30087FD93E028
:1036200090935B04B7CF78941F921FB61F9211241A
:103630008F939F93AF93BF938091460490914704DB
:10364000A0914804B09149040196A11DB11D809339
:10365000460490934704A0934804B0934904BF9153
:10366000AF919F918F911F901FBE1F9018959C0145
:103670004FB7F8948091460490914704A091480474
:10368000B09149044FBF821B930B08952FB7F89454
:103690008091460490914704A0914804B091490458
:1036A0002FBF08958F929F92AF92BF92CF92DF92D9
:1036B000EF92FF920F931F93CF93DF93CDB7DEB7B7
:1036C0002F970FB6F894DEBF0FBECDBF8E010F5FF0
:1036D0001F4F8AE0D8011D928A95E9F78EE4C82E23
:1036E00081E0D82EF12CE12CAA24A394B12CF60170
:1036F00081916F018F3F09F44AC0F894E82FE29559
:10370000EF70F0E021A18F70A50102C0440F551F9A
:103710008A95E2F7CA01922F982B91A392A18095E6
:10372000892382A30E947A0900C0E7E4F1E030E037
:1037300020E0912C41914F3F09F47EC0A42FA29527
:10374000AF70B0E090968C9190E04F7002C095956C
:1037500087954A95E2F780FD6FC08A2D022E01C041
:10376000880F0A94EAF7982A2F5F3F4F27303105D8
:1037700009F7F601319780818F3F11F00E947C0993
:1037800050EA5A95F1F7F801EE0DFF1D90828FEF88
:10379000E81AF80A95E0E916F10409F0A8CF4AE022
:1037A00050E0B80181ED92E00E940C347C01892B3D
:1037B00041F08AE0F801A1EDB2E001900D928A9506
:1037C000E1F71091DC02E114F104C1F181E0809392
:1037D0008D020E94461B90938C0280938B028091F5
:1037E0008B0290918C020E94371B069770F0A1ED1E
:1037F000B2E0E12FF0E0EC5BFC4F8D91819322E091
:10380000A63DB207D1F710928D0281E090E0EF283B
:10381000C9F02F960FB6F894DEBF0FBECDBFDF9173
:10382000CF911F910F91FF90EF90DF90CF90BF90BD
:10383000AF909F908F90089580E095CF80918D02FA
:103840008111CDCF0E949C0EB82EE091DC028E013A
:10385000055F1F4F882309F4CAC085E0D8011D9277
:103860008A95E9F7F0E09F012C5B3C4F790180914C
:10387000CA02AE01405F5F4F6A018A3008F08FC014
:1038800040EB59E1B801C7010E94580E882309F4A2
:103890009DC04FE756E2B801C7010E94580E882329
:1038A00009F494C047ED57E1B801C7010E94580ED2
:1038B000882309F48BC043EC58E1B801C7010E948A
:1038C000580E882309F482C041EA58E1B801C701C3
:1038D0000E94580E882309F479C01092CA02E09120
:1038E000DB02F0E0AF014C5B5C4FD80110E0FA0165
:1038F0009191AF018D91981731F09F0121503109BD
:10390000F90180831B2DAC15BD0589F780919102CB
:10391000909192020E94371B893E934060F1609122
:103920009002E62EF12C662777276E197F09072E65
:10393000000C880B990B0E94243527EA39E747E4ED
:103940005DE30E9415364B015C01B701FF0C880B4B
:10395000990B0E9424359B01AC01C501B4010E9462
:103960006B340E94F334609390020E94461B909344
:1039700092028093910280919502882371F0809148
:103980009302909194020E94371B893E934028F045
:1039900082EE0E94DC0B10929502812F3ACF80912B
:1039A0008E0290918F020E94371B843F914008F055
:1039B00067CFE091DB02F0E0EC5BFC4FD8011192A5
:1039C0001D92AC15BD05D9F71B2DA0CF8091CA0261
:1039D0008F3F31F08F5F8093CA028A3008F47FCF27
:1039E0000E94461B90938F0280938E02E2CFF0E0FC
:1039F000EC5BFC4FF89485E0A9EAB2E001900D92EF
:103A00008A95E1F765E070E089EA92E00E94B108EA
:103A10008093A8020E947A09F894E091E402F0E011
:103A2000EF51FD4F80818B878093AF0261E070E0A2
:103A3000C8010E94B1088093AE020E947A09F894EE
:103A4000C090B002D090B102E090B202F090B30208
:103A50008091960290919702A0919802B09199025C
:103A6000C816D906EA06FB06D1F0C0929602D0929B
:103A70009702E0929802F09299020E949C0E8111A6
:103A80000EC00E946208C61AD70AE80AF90AC09254
:103A9000CB02D092CC02E092CD02F092CE020E94F4
:103AA0007A09F8948091BB02882321F184FF04C035
:103AB0009091BC029093510380FF0DC08091B4029D
:103AC00080FF25C09091660491609093660460E049
:103AD00086950E9407168091BB0281FF09C020E0F5
:103AE0004091B7026091B6028091B5020E94F01435
:103AF0001092BB020E947A09F8948091BD0288233B
:103B000049F00E94B00D0E947A0980E082CE0E94A6
:103B1000E20FE1CF0E94950DF6CF5F926F927F92F8
:103B20008F929F92AF92BF92CF92DF92EF92FF92CD
:103B30000F931F93CF93DF9300D000D00F92CDB798
:103B4000DEB76C01FC0183819481892B31F0808187
:103B5000918189238F3F09F0C4C50F900F900F907A
:103B60000F900F90DF91CF911F910F91FF90EF90E9
:103B7000DF90CF90BF90AF909F908F907F906F908D
:103B80005F9008950E946314182F682F89819A818D
:103B90000E94890B69817A81812F0E9456148C01C1
:103BA000F6018281882309F463C0C801905681150B
:103BB000F0E29F0750F0905E811520E1920728F017
:103BC000915C81159F4108F0A6C0C80199279C010E
:103BD000245031092432310520F08B970E9708F0DC
:103BE00047C080919102909192020097D9F10E9472
:103BF000371B9C0150E040E060E67AEE80E090E008
:103C00000E94B533CA01B90125E030E040E050E040
:103C10000E94B533E09090022F3F310519F010F06B
:103C20002FEF30E0F12C2E193F09B90190E080E030
:103C30000E94223527EA39E747E45DE30E94153602
:103C40000E94D7344B015C01B701FF0C880B990B24
:103C50000E942435A50194010E946B340E94F33424
:103C6000609390020E94461B90939202809391026F
:103C7000F6018281882309F429C5980122513F4524
:103C80002031310508F0F7C48FEF93E00E94223411
:103C9000025193EEA92E92E0B92E81115ECF01114F
:103CA00043C01C821B82662463948AE0582E8501DF
:103CB0000F5F1F4FC5010E94223489831A82882317
:103CC00009F44BCF9FEF980F9330E8F58A83698210
:103CD00032E0A30EB11CC8010E9422348B838823DA
:103CE00009F43BCF8E010F5F1F4FF8012081222383
:103CF000F1F2213009F061C091818281913029F582
:103D00000E5F1F4F6AE070E0893311F460E570E0E8
:103D10000E94CF0E20C090E080E00F3F110511F00F
:103D200008F055CFC80153CFA114F4E0BF0609F441
:103D300014CFC5010E942234811101C001502FEF20
:103D4000A21AB20AACCF5801CDCF923039F40E5F2F
:103D50001F4F0E94150C0F5F1F4FC7CF933029F4E0
:103D60000E5F1F4F0E94DC0BF6CF943019F00F5FEF
:103D70001F4FF1CF0E5F1F4F30E020E0B8016F5FA3
:103D80007F4FF80141818053990B8A30910550F0A3
:103D90002150310900F38FE99FE00197F1F700C04E
:103DA0000000F6CF529EF001539EF00D11249C01AD
:103DB0002E0F3F1F842F8B01E1CFE22FF0E0E75F52
:103DC000FD4F7490822F86958695869590E0FC0134
:103DD000E750FE4FE4902770F12C022E02C0F594BC
:103DE000E7940A94E2F7E1E0EE22FF24FC01E751B8
:103DF000FE4FC490D12C022E02C0D594C7940A94D1
:103E0000E2F7F1E0CF22DD24FC01E752FE4F84907F
:103E1000912C02C0959487942A95E2F721E08222A2
:103E20009924E114F10419F081EE0E94150CC114DB
:103E3000D10419F086EE0E94150C39E36AE070E0B7
:103E4000731202C060E570E0872D0E94CF0ECD286E
:103E500019F086EE0E94DC0BEF2819F081EE0E942B
:103E6000DC0B892809F477CF6AE070E08CE250CF50
:103E700081E00E94281703C081E00E941C170F9068
:103E80000F900F900F900F90DF91CF911F910F9196
:103E9000FF90EF90DF90CF90BF90AF909F908F906A
:103EA0007F906F905F900C94111782E0E2CF043FF7
:103EB000110509F455C108F057C1053E110509F473
:103EC000DDC0F601928191113CC280914E04827254
:103ED0000A3CFCE51F0709F414C208F06AC1053C5E
:103EE0003CE5130709F4F9C108F04EC1033C5CE559
:103EF000150709F4D3C108F0EBC1023C1C4509F4D5
:103F00007DC1F60100811181992309F434C2C801F1
:103F10000E946314F82E682FC8010E94890BB80113
:103F20008F2D0E9456140E94D609182FB82EF60124
:103F300022814581342F32953F70892F82958F7071
:103F4000E82EF12C8C3008F04EC2F701E456F94C03
:103F50000C94D43303384FE5140709F481C018F5E5
:103F600001389FE5190709F44AC008F065C0003818
:103F7000FFE51F0709F0A5CF882309F459C08091F8
:103F80009502811106C081E08093950282EE0E9425
:103F9000150C0E94461B90939402809393028BE22F
:103FA0000E94150C8ECF05382FE5120709F4BEC00C
:103FB00008F476C006384FE5140709F082CF88234D
:103FC00009F4CEC06091590170915A0190E080E0EF
:103FD0000E94223520E030E040E05CE30E9415368C
:103FE00020E030E040E85FE30E94EE348111B5C08C
:103FF00080EE90E090935A0180935901A1C08823EC
:10400000A1F080919502811106C081E08093950214
:1040100082EE0E94150C0E94461B9093940280939E
:10402000930281EE0E94150CBACF81EE0E94DC0B48
:104030008BE20E94DC0B45CF882309F442CF81EE4E
:104040000E94150C83EE0E94150C8FE40E94150C43
:104050008FE40E94DC0B83EE0E94DC0B81EEE9CF43
:10406000882309F42ECF81EE0E94150C83EE0E9466
:10407000150C80E50E94150C80E5EBCF809334028F
:104080001093330200933202882321F081E0809361
:10409000E70217CF1092E70214CF80933102F0CFDE
:1040A000882379F180913102882349F0809132028E
:1040B0000E94DC0B80EE0E94150C8AE20CC08091FD
:1040C00034028823D1F3809132020E94DC0B80EE0F
:1040D0000E94150C8CE40F900F900F900F900F9092
:1040E000DF91CF911F910F91FF90EF90DF90CF90D4
:1040F000BF90AF909F908F907F906F905F900C9447
:10410000150C8AE20E94DC0B8CE40E94DC0B80EE32
:104110000E94DC0B80913102811105C08091340234
:10412000882309F41ACD80913202D5CF8823C1F0BB
:1041300080912703882339F0109227031092000101
:104140000E943E0DBECE809100018111F7CF81E02B
:104150008093270380930001F3CF80E890E04ACF5B
:1041600061E00E949A0CADCE62E0FBCF64E0F9CF33
:10417000882321F081E08093E602A3CE1092E6022C
:10418000A0CE1092E9029DCE073C2CE5120709F45F
:10419000AEC008F4A7C0083C4CE5140709F4ACC055
:1041A000093C1C4509F0ADCE43EA55E16FEA75E1E3
:1041B00079C0043DECE51E07A8F40E3CFCE51F07A2
:1041C00008F0CBCC0C3C2CE5120709F49FC045EE5F
:1041D00055E166EF75E10D3C1C4508F463C061E0F4
:1041E00081E046C0053D4CE5140709F4B6CC08F45F
:1041F00092C00D351D4509F4B0CC83CE8091660484
:1042000080FF31C08E7F8093660460916604709158
:10421000670480916804909169040E94DE14809183
:1042200050038160809350039FEFE0E7F2E09150EC
:10423000E040F040E1F700C000000F900F900F90B9
:104240000F900F90DF91CF911F910F91FF90EF9002
:10425000DF90CF90BF90AF909F908F907F906F90A6
:104260005F900C94E40E81608093660461E0869513
:104270000F900F900F900F900F90DF91CF911F91A3
:104280000F91FF90EF90DF90CF90BF90AF909F90F5
:104290008F907F906F905F900C94071643E357E1E7
:1042A0006CE377E10F900F900F900F900F90DF91DC
:1042B000CF911F910F91FF90EF90DF90CF90BF9023
:1042C000AF909F908F907F906F905F900C94C708F5
:1042D0004CE357E163E377E1E5CF43ED55E16CED66
:1042E00075E1E0CF4CED55E163ED75E1DBCF4BEBD4
:1042F00055E167EC75E1D6CF47EC55E16BEB75E125
:10430000D1CF4FEA55E163EA75E1CCCF46EF55E1F5
:1043100065EE75E1C7CF0F900F900F900F900F9043
:10432000DF91CF911F910F91FF90EF90DF90CF9091
:10433000BF90AF909F908F907F906F905F900C9404
:1043400046170E3D1C4509F0DCCD0F900F900F90E5
:104350000F900F90DF91CF911F910F91FF90EF90F1
:10436000DF90CF90BF90AF909F908F907F906F9095
:104370005F900C946D17C8010E94610BF82ECFCD91
:10438000092F0F70907F11F00295007F812F22235B
:10439000C9F0002369F090E2910F983010F01111EC
:1043A0000BC080914E04082B00934E040E94400BDA
:1043B000812F0E94150C17C080918902082B009351
:1043C0008902F4CF0E94DC0B002369F00095105E97
:1043D000183010F0B11027C080914E0408230093CC
:1043E0004E040E94400B98E0E91AF108E4E0EE1652
:1043F000F10408F0B2CB0E94BF0E0F900F900F9007
:104400000F900F90DF91CF911F910F91FF90EF9040
:10441000DF90CF90BF90AF909F908F907F906F90E4
:104420005F900C94561680918902082300938902AC
:10443000D8CF892F8F70907F903211F08295807F36
:10444000F1E0BF120CC0222329F0333060F60E9445
:10445000D20BC9CF323038F60E94C70BC4CF22230B
:1044600041F03323A1F340FFA3CF4F70F601458302
:10447000EECF332389F3193309F0F5C0FFEF27EEB0
:1044800033E0F15020403040E1F700C00000812FC0
:104490000E94DC0BA8CF892F86958695837061F0EA
:1044A000813009F0A0CF812F9370211102C090E0DC
:1044B00080E00E946E0897CF812F9370211102C077
:1044C00090E080E00E9484088ECF892F8370A1F550
:1044D000211189CF812F829586958770880F880F4B
:1044E000412F4F70082E01C0440F0A94EAF7212F84
:1044F000207114FF07C02FE030E001C0220F8A9521
:10450000EAF72095969596959370923081F0822FD8
:10451000842B933030F480918A02913029F0242B3F
:1045200082230E94C30B5FCF842B822BFACF242BD4
:1045300080918A028227F5CF8695222311F0892F58
:104540008170882309F44FCF812F829586958770DB
:10455000880F880F412F4F70082E01C0440F0A9416
:10456000EAF7212F207114FF07C02FE030E001C0CF
:10457000220F8A95EAF7209596959695937092303A
:1045800081F0822F842B933030F480916504913038
:1045900029F0242B82230E940B1725CF842B822BFA
:1045A000FACF242B809165048227F5CF092F0F7055
:1045B000222329F0802F0E942817812F48CF812F96
:1045C0000E94C70B802F0E941C170DCF812FE1EF97
:1045D0001E1789F1E11750F0F0EF1F17B9F02223F1
:1045E000B1F13111E5CE892F8F7129C042EF141737
:1045F00049F153EF1513F3CF80E0222361F29F714D
:1046000081E001C0880F9A95EAF7C5CF222379F09F
:10461000323008F0E8CE292F2F7181E090E001C000
:10462000880F2A95EAF7909165048927B4CF333033
:1046300008F0D9CEF0CF892F8F71222321F20E946A
:104640002817D1CE892F8F712223C9F3BCCF3323F2
:1046500079F0893341F48FEF97EEE3E08150904099
:10466000E040E1F712CF8FE39CE90197F1F70DCF1E
:10467000892F8F71A8CF0031FFE51F0709F4F8CB10
:1046800001312FE5120709F410CC063F110509F49A
:104690006DCD08F05FCC043E110509F469CD08F03A
:1046A00006CC003E110509F463CD013E110509F465
:1046B000F4CC0C32110509F004CC882309F461CD47
:1046C00081E08093E90210926701FBCB00313FE566
:1046D000130709F4D1CB01314FE51407B1F682E09D
:1046E000CCCB85E0DE01119601900D928A95E1F721
:1046F000F601228189819A81211144CA0E94610BAD
:10470000182F48CA1F93CF93DF9380915502807F63
:10471000A9F480915202882389F080918702D09178
:1047200056026091500270915102A0915302B091D3
:104730005402C62FC72316E0D81304C0DF91CF91CF
:104740001F91089590E0109711F0CF3F19F4019652
:104750008770F2CF189F9001199F300D1124F90135
:10476000E95AFD4F41814713F2CF40814613EFCF05
:1047700042814111ECCF438154814A1B5B0B403A8B
:10478000510528F7809155028F7080618093550202
:10479000F901E45AFD4F80818F708061808380E54C
:1047A00092E00E948D1DDF91CF911F910C94570BC9
:1047B000AF92BF92CF92DF92EF92FF920F931F932F
:1047C000CF93DF93CDB7DEB761970FB6F894DEBF16
:1047D0000FBECDBF8C0185E0F801DE011D96019072
:1047E0000D928A95E1F7F801E28080E5A82E82E03B
:1047F000B82E60915302709154026115710509F44D
:1048000032C19091500240915102892F84238F3FF1
:1048100009F429C120813181C380D480F0905202F3
:10482000F601E61BF70BFF2009F4E8C08091550262
:10483000582F507FE03AF10508F0ABC0511177C016
:10484000FE2C431321C092131FC0E1101DC08F70B6
:10485000806180935502C5010E948D1D8091550293
:10486000F80185838F2D61960FB6F894DEBF0FBED9
:10487000CDBFDF91CF911F910F91FF90EF90DF900F
:10488000CF90BF90AF900895CD2829F0822F832339
:104890008F3F09F003C180E0F82FF170DF2E80FF19
:1048A0003CC0809187024091560256E0841315C0A7
:1048B0002D873E878D859E850E949214292F2295F3
:1048C0002F702230F0F0243018F59F70F1F0F801CD
:1048D0009581907FD1F4D12C1EC090E0589FF001BB
:1048E000599FF00D1124E95AFD4F6181361306C01E
:1048F0006081261303C06281E6120FC001968770A3
:10490000D5CF9F7011F0882331F3805E883018F383
:10491000C8010E948D1DFD2CA5CFEE2009F4A2CF69
:1049200080915502816080935502F12C9BCF4313F7
:1049300006C0921304C0F801EE2009F479C0C80142
:104940000E949E14882309F1EE20F9F0809155020F
:10495000803270F0209150023091510238872F83BD
:104960001986DB86CA868C87CE0107960E948D1D2C
:1049700086E0F801A0E5B2E001900D928A95E1F79A
:104980000E948223FF24F3946DCFC8010E948D1DE5
:10499000F9CF51110AC080E592E00E948D1D86E09A
:1049A000F50111928A95E9F7C0CF43130FC0921316
:1049B0000DC0E1100BC0F8018583C8010E948D1D58
:1049C00086E0F50111928A95E9F74CCFC8010E9463
:1049D0009E148823D1F2EE20C1F2809155028032DC
:1049E00038F220915002309151023A8329831B8280
:1049F000DD82CC828E83CE010196B8CFE03AF105FC
:104A0000F8F6FE2CEE2009F243131FC092131DC0CE
:104A10008091550280FD10C0982F907F69F0F801B9
:104A20008583903F31F0982F907F905F8F70892B16
:104A30008583C8010E948D1D86E0F801A0E5B2E0E3
:104A400001900D928A95E1F70DCFC8010E949E1446
:104A500081118ECF80915502816080935502C801EB
:104A60000E948D1DFFCEEE2009F48FCFC8010E9459
:104A70009E14F82E882309F488CF86E0F801A0E57B
:104A8000B2E001900D928A95E1F7809150029091E9
:104A900051020E9492140E948223E4CE81E08E256E
:104AA000FBCE1F93CF93DF93CDB7DEB767970FB6DB
:104AB000F894DEBF0FBECDBF4B8B5C8B6D8B7E8BB6
:104AC0008F8B6111109289021A8A198A85E0FE0182
:104AD0007396DE011D9601900D928A95E1F786E0AE
:104AE000FE013D96DE01179601900D928A95E1F741
:104AF000CE0107960E94D823882389F016E0809182
:104B000087029091560289134BC067960FB6F894AE
:104B1000DEBF0FBECDBFDF91CF911F91089586E01C
:104B2000FE013796DE01119601900D928A95E1F70C
:104B30008A859B85892B11F38F81988589238F3FE7
:104B4000E9F22091560230E0C90101968770992759
:104B5000409187024817190681F410924E040E9472
:104B6000F70F109256021092870286E0E0E5F2E01D
:104B7000DF011D928A95E9F7C1CF96E0929FD0019F
:104B8000939FB00D1124A95ABD4FFE01319601909B
:104B90000D929A95E1F7809356020E94570BAECF83
:104BA000819FC0011124895A9D4F0E94D8238823D8
:104BB00009F4ABCF8091870290E001968770992726
:104BC000809387029CCF0F931F93CF93DF93CDB732
:104BD000DEB7A8970FB6F894DEBF0FBECDBF811128
:104BE0004DC006E0662359F10CA311E01DA31EA3DE
:104BF0000E94461B8160782F98A78FA34CA15DA1CE
:104C00006EA188A50E9451250F8F18A319A20E949A
:104C1000461B8160782F9BA38AA34F8D58A169A161
:104C20008BA10E94512581E0A8960FB6F894DEBFB3
:104C30000FBECDBFDF91CF911F910F9108950A8FC5
:104C400013E01B8F81E08C8F0E94461B8160782FC0
:104C50009E8F8D8F4A8D5B8D6C8D8E8D0E94512520
:104C60000D8B1E8B1F8A0E94461B8160782F998FA7
:104C7000888F4D895E896F89898DD3CF813099F670
:104C80006623F1F016E0188B198B8A8B0E94461B65
:104C90008160782F9C8B8B8B488959896A898C8994
:104CA0000E9451251B871C871D860E94461B816020
:104CB000782F9F878E874B855C856D858F85B1CFDB
:104CC00006E00E8318E01F8388870E94461B8160E0
:104CD000782F9A8789874E815F8168858A850E94AF
:104CE000512509831A831B820E94461B8160782FFD
:104CF0009D838C8349815A816B818D8192CFCF9224
:104D0000DF92EF92FF920F931F93CF93DF930F9257
:104D1000CDB7DEB7EE24E394F12C0FEA12E09E014A
:104D20002F5F3F4F44EA52E063E082E00E940119A6
:104D3000082F882321F1C090DE028C2D90E09C0189
:104D40002F513D4F79011981F9018081181BD12E16
:104D500080E00AC0DA94F70180818F5F808360E091
:104D60008C2D0E94E325802F1D14A4F3912F17FD95
:104D700090E0191B11110EC081110E943E0B802F73
:104D80000F90DF91CF911F910F91FF90EF90DF90E7
:104D9000CF9008951F5FF70180818150808361E08B
:104DA0008C2D0E94E325802FE5CF1F921FB61F9206
:104DB00011248F939F93AF93BF93809145048111EA
:104DC00013C08091460490914704A0914804B0918B
:104DD00049044196A11DB11D809346049093470458
:104DE000A0934804B0934904BF91AF919F918F91D4
:104DF0001F901FBE1F901895CDB7DEB7E3970FB673
:104E0000F894DEBF0FBECDBF84B7877F84BF0FB6D7
:104E1000F894A8958091600088618093600010925A
:104E200060000FBE80E890E00FB6F89480936100B8
:104E3000909361000FBE85B7806885BF85B7806895
:104E400085BF88E799E090932702809326020E940D
:104E5000D5060E94A0078091E20084608093E20062
:104E6000789480915B048823A1F01091E9001F7071
:104E70009091EC00892F817090FD80E8182B1092A2
:104E8000E9008091E80083FD0E9400101F701093DC
:104E9000E90082E084BD93E095BD9AEF97BD8093D1
:104EA0006E001092CB021092CC021092CD021092A2
:104EB000CE020E94C514811102C00E9421140E94DA
:104EC0009C0E8093580180915801882309F4C6C034
:104ED00010926F0185E2809370010E949C0E8111F7
:104EE0000E94C0318091580181112FC0FE0135967A
:104EF00086E0DF011D928A95E9F786E6898387E9D6
:104F00008A8386EC8B8384E38C8385E38D8334975B
:104F1000AEE4B1E0CE010B9621912D938E179F0741
:104F2000D9F787E0E5E7F1E0DE01919601900D9277
:104F30008A95E1F7FE01B196A7E4B1E0CE0188962B
:104F400021912D938E179F07D9F78091580195E0F5
:104F5000811190E09093DC0285E0891B8093DB0255
:104F60000EE411E0A3E5EA2EA1E0FA2EF80181910A
:104F70008F018F3F11F00E947C09E016F106B1F716
:104F800007E411E0FEE4EF2EF1E0FF2ED8018D9151
:104F90008D018F3F11F00E947C09E016F106B1F7F8
:104FA000E1EDF2E08BED92E0A4E4B3E011921D920A
:104FB0008E179F07D9F70E94ED19811102C00E9438
:104FC0006D1782E090E00E9422348093390384E0E0
:104FD00090E00E942234182F82E290E00E94223456
:104FE000982F812F9093D0028093CF020E94521B62
:104FF000EFE7FBEB3197F1F700C000000E94521B76
:105000008091440380FF2EC06FEF7FEF90E080E03F
:105010000E94543481E08093E00080E28093D800C5
:105020001092C9008FE19EE40197F1F700C00000E3
:1050300087E090EBDC0180936F0690937006A0935D
:105040007106B093720688E19CE00FB6F894A895BB
:10505000809360000FBE90936000FFCF85E2809345
:105060006F0139CF83E090E00E9422340E94C30B8D
:10507000809165040E946E160E949C0E811102C0F0
:105080000E94C33183E080930F0380E28093320457
:105090000E94C12F6DE070E08CE992E00E94650DE6
:1050A000892BE9F580910F0363E070E081FD97C2E1
:1050B00089E992E00E94650D892B89F56DE070E029
:1050C00089E892E00E94650D892B49F50E946208EB
:1050D0006058774C8E4F9F4F6093390470933A0419
:1050E00080933B0490933C04EDE6F4E080E092E092
:1050F000DF019C011D9221503040E1F7F0936E06D4
:10510000E0936D068FEF9FEF90936C0480936B0498
:1051100081E080933E0480933D04109210038091BF
:10512000DD02811136C00E94ED19811104C00E9478
:105130006D170E94551788E090E00E942A34609312
:105140006604709367048093680490936904809167
:1051500050038360809350036E7F71F40E94551753
:1051600088E090E00E942A3460936604709367049C
:1051700080936804909369040E94CC08809166042F
:1051800080FF04C060E086950E94071681E080934E
:10519000DD0280915801811106C084EF8093660181
:1051A00085EF8093650120916601A22FA295AF70D3
:1051B000B0E091963C9191972F7081E090E0BC0116
:1051C000022E01C0660F0A94EAF7462F409543234A
:1051D00091964C93919792963C919297362B9296FA
:1051E0003C93929740916501E42FE295EF70F0E0D7
:1051F00031A14F70042E01C0880F0A94EAF7982F4E
:105200009095932391A392A1892B82A390968C9140
:1052100090E002C0959587952A95E2F7817020A1CC
:1052200030E002C0359527954A95E2F792E020FFDD
:1052300090E0892B8093E5028091580111E081274D
:105240008093E402312F381B3093DE020E94C12F7D
:1052500040E060E080E00E941E0D89EA92E09093B9
:1052600053038093520360E08AE00E94071681E0B6
:105270000E940B1780EE90E090935A0180935901A1
:10528000109327030E943E0D8BE591E0909342041A
:1052900080934104E0E46E2E80915B04FF24F3943C
:1052A00000E112E1853009F4ECC10E94521BE82EA6
:1052B00081110E946208EAE3F3E0A4E4B3E010E0A5
:1052C00000E0B02EDD9081918D1509F4FEC18D2591
:1052D000C12CFF24F394982F9F2109F4F1C10E945F
:1052E0009C0E882399F0C8A6B9A6DF2081E009F4B6
:1052F00080E08AA70E94461B8160782F9CA78BA71D
:1053000048A559A56AA58CA50E945125F801E65C1F
:10531000FC4F8081F826F0828091E502E82FEE0FA5
:10532000EE0F90916601A92FA295AF70B0E0909614
:105330002C9130E09F7002C0359527959A95E2F741
:105340002170332790916501A92FA295AF70B0E02D
:1053500090964C9150E09F7002C0559547959A9554
:10536000E2F7CA018170992740FF02C082E090E015
:10537000822B8E2B8093E5021091E4028F70E82F30
:10538000F0E0EE50FE4F80819091E302890F809310
:10539000E302F12C84306CF0E12FF0E0EF51FD4F8F
:1053A00080818F5F808360E0812F0E94E325FF244E
:1053B000F3948091E3028D3F6CF4E12FF0E0EF5124
:1053C000FD4F80818150808361E0812F0E94E32521
:1053D000FF24F3948091E302082E000C990B64E003
:1053E00070E00E94A1338093E302F1100E943E0B13
:1053F00080913E04882351F1809111039091120312
:105400000E94371BC29708F077C120916B0430913E
:105410006C042115310509F08CC280913D0488236C
:10542000A9F00E9462080091390410913A04209179
:105430003B0430913C04601B710B820B930B6F3F5C
:105440007F4F8F4F9F4710F40E94950DE11001C0D0
:10545000F1100E94B00D809137038A3008F0A1C38B
:1054600080913503909136030E94371B089708F40A
:1054700098C304E610E025E030E040E353E064E048
:1054800084E10E940C31892B09F05CC31092370330
:1054900020912703222359F0809132039091330306
:1054A000982789279827909333038093320386E0C7
:1054B000E9E1F3E0DE01919601900D928A95E1F722
:1054C00086E0FE01B196DE01119601900D928A955B
:1054D000E1F786E0FE013196AAE2B3E001900D9279
:1054E0008A95E1F78091340387FD29C380912803D1
:1054F00090912903009709F01CC3609130038091BB
:1055000031030091320310913303222309F4E4C2E2
:1055100041E00E94F80C2091250330912603281BBE
:10552000390B309326032093250341E0602F812F10
:105530000E94F80C2091230330912403820F931FC3
:10554000909324038093230363E273E08FE293E05C
:105550000E94D90C65E273E08EE293E00E94D90CC0
:1055600010922C0310922D0386E0EAE2F3E0DE01B4
:10557000119601900D928A95E1F786E0FE01319631
:10558000A9E1B3E001900D928A95E1F730911B03F8
:1055900020911C0390911D0380911E0370911503AF
:1055A000609116034091170350911803F0911A036C
:1055B000E0911403FE13CCC2332311F07313C8C25D
:1055C000222311F02613C4C2882311F08513C0C210
:1055D000992319F081E04913BCC280E0BAC286E980
:1055E00092E068CD80915B04843009F43AC00E9457
:1055F000950D40E060E080E00E941E0D80E00E947A
:1056000056168091E002811109C0F092E00280916B
:10561000660481708093DF020E94E20F10924504BD
:1056200088E190E00FB6F894A895809360000FBED3
:105630006092600083B7817F846083BF83B781609D
:1056400083BF7894889583B78E7F83BF0FB6F89415
:10565000A89580916000886180936000109260003E
:105660000FBE80915A04882361F00E94521BE4E42B
:10567000F3E08191811164C4AEE4B3E0AE17BF07DB
:10568000C1F780915B04853009F4ACCF10924E04D1
:105690000E94F70F0E94BF0E0E9456161092E00261
:1056A0008091DF02882349F08091660481608093B5
:1056B000660460E086950E9407160E943E0DF5CDB7
:1056C000C394FF0C27E0C21206CE0F5F1F4F0A30B3
:1056D000110509F0F6CD8FEF8DA78EA71FA60E94AA
:1056E000461B8160782F99AB88AB4DA55EA56FA551
:1056F00089A90E94512510CE0E94461B9093120347
:105700008093110360E080E00E949A080E94BF0E1F
:105710008093EE020E949C0E8823D1F02FB7F8945C
:105720008091460490914704A0914804B0914904A7
:105730002FBF81339547A105B10540F00E94950D1B
:1057400080913E04882309F468CE5FCE0E94B00D9C
:105750000E949C0E882309F4D3C061E080E00E947F
:105760009A0860E08CE791E00E94881362E080E094
:105770000E949A08809165040E94890C823009F485
:1057800099C008F08EC0882309F494C0813009F4D0
:1057900097C065E080E00E949A0860E08AE991E0A5
:1057A0000E94881366E080E00E949A086091EE02F1
:1057B000669561708FE991E00E94881367E080E050
:1057C0000E949A086091EE026095617084EA91E00F
:1057D0000E94881368E080E00E949A086091EE02BF
:1057E00062FB662760F988EA91E00E948813409185
:1057F000EA025091EB026091EC027091ED022FB73A
:10580000F8948091460490914704A0914804B09187
:1058100049042FBF841B950BA60BB70B8D3291400B
:10582000A105B10508F48CCF0E9462086093EA02DA
:105830007093EB028093EC029093ED028091E90269
:10584000811104C080916701811142C06DE080E048
:105850000E949A0860E08DEA91E00E9488136AE055
:1058600080E00E949A0881E0809367018091E802BD
:1058700090E00196817099278093E80221E030E062
:10588000281B390B40E6429FC001439F900D112415
:105890002091E702222351F1855C9B4F0E949206E2
:1058A0004FCF833089F0843009F073CF60E08EE809
:1058B00091E003C060E082E891E00E94881369CF24
:1058C00060E088E891E0F9CF60E084E991E0F5CF0D
:1058D0006AE080E00E949A0860E08DEA91E00E9410
:1058E00088136BE080E00E949A08C0CF2091E60206
:1058F000222319F085589C4FD1CF85549D4FCECF90
:1059000064E080E00E949A0860E083EB91E00E94EE
:10591000881365E080E00E949A0860E089EB91E0DE
:105920000E94881369E080E00E949A088BEF94E05F
:10593000B5CF8091100361E070E081116ECD082F2A
:1059400010E02B01082E02C0440C551C0A94E2F70B
:10595000A90144215521452B09F448C090910F031A
:1059600090FD46C08295880F807680936A019801E9
:10597000369527953695279520936D01815E809306
:105980006B0110926E0124E630E047E050E068E6DB
:1059900071E088E70E94B830892B09F03ECDA8015C
:1059A00065E0440F551F6A95E1F780910F0380FD74
:1059B0002DC043595B4F04E610E020E230E060E484
:1059C00088E70E94DF30892B09F027CD0E94B00DB7
:1059D000C2018095909540906B0450906C044822D1
:1059E000592250926C0440926B0417CD8F5FA7CF61
:1059F000880F880F880F80936A0110926D01895F6C
:105A000080936B0183E080936E01BDCFEFEEF2E0F7
:105A100080E2DF011D928A95E9F7E6E0F2E0FBAB58
:105A2000EAAB02E012E037E0A32E99249394AAA9EE
:105A3000BBA92D91BBABAAABF80121908F01240E1D
:105A4000352E311CC10183599B4F1C01E22FF0E020
:105A5000E151FD4F30E020E07A2C721AB92C022E71
:105A600001C0BB0C0A94EAF7610190E0D6018D9168
:105A70006D018B21672D691B6770862E062E000C29
:105A8000770BB82F01C0BB0F8A94EAF78B2E719564
:105A9000619571096770772701C086956A95EAF765
:105AA000882A8081882A80829F5F9830F9F62F5F4C
:105AB0003F4F31962830310579F6EAE0F2E02AA925
:105AC0003BA9E217F30709F0B2CF04E610E020E2A9
:105AD00030E04FEE52E073CF45E00E94F80C209189
