:100000000C94E8050C942F060C942F060C943F30AA
:100010000C942F060C942F060C942F060C942F068C
:100020000C942F060C942F060C9462210C941E2124
:100030000C9461260C942F060C942F060C942F061A
:100040000C942F060C942F060C942F060C942F065C
:100050000C942F060C943B220C942F060C942F0624
:100060000C942F060C942F060C942F060C942F063C
:100070000C942F060C942F060C942F060C942F062C
:100080000C942F060C942F060C942F060C942F061C
:100090000C942F060C942F060C942F060C942F060C
:1000A0000C942F060C942F060C942F0605010902C0
:1000B000A10185020901A1000509190129081500FE
:1000C0002501950875018102050109300931158165
:1000D000257F95027508810609381581257F9501D0
:1000E00075088106050C0A38021581257F95017572
:1000F000088106C0C005010980A101850319012AF4
:10010000B700150126B700950175108100C0050CD8
:100110000901A101850419012AA002150126A002E6
:10012000950175108100C00660FF0961A101096297
:10013000150026FF00952075088102096315002629
:10014000FF00952075089102C005010906A101056F
:100150000719E029E7150025019508750181029529
:1001600001750881010507190029FF150026FF0008
:100170009506750881000508190129059505750181
:100180009102950175039101C0000000000000007C
:10019000000000000000000000000000000000005F
:1001A000000000000000000000000000007E0F00C2
:1001B000D4FFFFFFC700000078000000000000002F
:1001C000002A2B28000000000000000000000000B2
:1001D0000000000029000000002C1E3420212224F1
:1001E000342627252E362D3738271E1F202122237F
:1001F0002425263333362E37381F04050607080911
:100200000A0B0C0D0E0F10111213141516171819D6
:100210001A1B1C1D2F3130232D3504050607080934
:100220000A0B0C0D0E0F10111213141516171819B6
:100230001A1B1C1D2F3130354C00DA02815AD9F1BE
:10024000DB20A4A62EAF00A0C000A1C800AED580C0
:10025000A81FD300408D1420000000000000000003
:10026000000000E0F0F0F8F8CCCCF8F8F0F0600016
:10027000000000000000000000000000000000007E
:100280000000000F3F7FFCF9F1E1C1810000000098
:1002900000000000000000000000000000000C381A
:1002A0007060E0E0F0F0F8F9FFFFFFFFFF7E1C0058
:1002B000000000000000000000000000000000003E
:1002C000000000E0F0F0F8F8CCCCF8F8F0F06000B6
:1002D000000000000000000000000000000000001E
:1002E0000000000F3F7FFCF9F1E1C1810000010136
:1002F00002060C04000000000000000000000038AE
:100300007C60E0E0F0F0F8F9FFFFFFFFFF7E1C00EB
:1003100000000000000000000000000000000000DD
:1003200000000000000000000000000000000000CD
:10033000000000000000000000000000CCF8700089
:100340000000000000C0F0F8F87CFCEEE6FCFC7851
:1003500078B00000000000000000003F7FF1F8F8D6
:100360007C7CF8F0F0F1E7EFEFFEFEFEFCFCF8F02D
:100370006000010306020000000000000000000011
:10038000000000000000000000000000000000006D
:10039000000000000000000000000080E0F81C00E9
:1003A0000000000000C0F0F8F87CFCEEE6FCFC78F1
:1003B00078300000000000000000003F7FF0F8F8F7
:1003C0007C7CF8F0F0F1E7EFEFFEFEFEFCFCF8F0CD
:1003D000600000000000000000000000000080C07D
:1003E000C0E0E03070E0E0C0C0800000000000002D
:1003F000000000000000000000000000001F7FFF60
:10040000FFE7E7EFEFCFCB838301000000000000A0
:100410000000000000000000000000061C3878F119
:10042000E3E3E7F7F7FFFFFFFF7F3E000000000078
:1004300000000000000000000000000000000000BC
:10044000000000000000000000000080C0E0E0604C
:10045000E0C0C0808000000000000000000000003C
:10046000000020F8FEFFFFFF9F0F0E1F1F3F3F7E83
:10047000E683030F43439088080000031E3C78F096
:10048000E0E0F0F0FBFFFFFF7F7F3800000000009E
:100490000000000000000000000001010101010156
:1004A000010101020202020202020202030303032B
:1004B00003030303040404040404040505050505FB
:1004C00006060606060707070707080808080909B9
:1004D00009090A0A0A0B0B0B0C0C0C0D0D0D0E0E64
:1004E0000E0F0F0F101011111112121313141415F7
:1004F0001516161717181819191A1A1B1B1C1D1D6B
:100500001E1E1F20202122222324242526262728C0
:1005100029292A2B2C2D2D2E2F30313232333435F0
:10052000363738393A3B3C3D3E3F404142434445F3
:10053000464748494A4C4D4E4F50515354555658D2
:10054000595A5B5D5E5F616264656668696B6C6D7C
:100550006F7072737577787A7B7D7E8082838587F2
:10056000888A8C8E8F91939596989A9C9EA0A2A330
:10057000A5A7A9ABADAFB1B3B5B7BABCBEC0C2C435
:10058000C6C9CBCDCFD1D4D6D8DBDDDFE2E4E7E9F5
:10059000EBEEF0F3F5F8FAFDFFFFAA7F55401C10D3
:1005A00004010D190A24232221201F1E1D1B1A18C5
:1005B000171615141312110F0E0C0B090807060558
:1005C0000302002D3945483C303F25262728292A9B
:1005D0002B2C2E2F31323334353637383A3B3D3ED3
:1005E000404142434446474907087F0807003E5BB5
:1005F0004F5B3E003E6B4F6B3E001C3E7C3E1C0042
:10060000183C7E3C18001C577D571C001C5E7F5E0A
:100610001C0000183C180000FFE7C3E7FF000018AB
:1006200024180000FFE7DBE7FF0030483A060E0021
:10063000262979292600407F05050700407F0525EA
:100640003F005A3CE73C5A007F3E1C1C0800081C37
:100650001C3E7F0014227F2214005F5F005F5F005A
:1006600006097F017F00006689956A00606060600E
:10067000600094A2FFA2940008047E0408001020E9
:100680007E20100008082A1C0800081C2A08080000
:100690001E10101010000C1E0C1E0C0030383E38BE
:1006A0003000060E3E0E06000000000000000000B4
:1006B0005F000000000700070000147F147F140093
:1006C000242A7F2A12002313086462003649562028
:1006D0005000000807030000001C224100000041F8
:1006E000221C00002A1C7F1C2A0008083E08080063
:1006F00000807030000008080808080000006060F2
:1007000000002010080402003E5149453E0000420E
:100710007F4000007249494946002141494D33005C
:100720001814127F10002745454539003C4A4949B5
:10073000310041211109070036494949360046492F
:1007400049291E0000001400000000403400000091
:10075000000814224100141414141400004122143F
:1007600008000201590906003E415D594E007C1205
:1007700011127C007F49494936003E414141220027
:100780007F4141413E007F49494941007F090909B4
:1007900001003E41415173007F0808087F0000417D
:1007A0007F4100002040413F01007F0814224100AA
:1007B0007F40404040007F021C027F007F04081001
:1007C0007F003E4141413E007F09090906003E414C
:1007D00051215E007F091929460026494949320006
:1007E00003017F0103003F4040403F001F204020A5
:1007F0001F003F4038403F006314081463000304A7
:10080000780403006159494D4300007F4141410094
:10081000020408102000004141417F00040201024F
:1008200004004040404040000003070800002054FE
:10083000547840007F284444380038444444280019
:10084000384444287F0038545454180000087E0966
:10085000020018A4A49C78007F08040478000044D7
:100860007D4000002040403D00007F1028440000F3
:1008700000417F4000007C04780478007C08040478
:100880007800384444443800FC1824241800182404
:100890002418FC007C080404080048545454240024
:1008A00004043F4424003C4040207C001C204020A5
:1008B0001C003C4030403C004428102844004C9030
:1008C00090907C004464544C440000083641000081
:1008D0000000770000000041360800000201020419
:1008E00002003C2623263C0000000000000040409F
:1008F00040F0F8F8FF38FFF8F83FF8F8FF38FFF855
:10090000F8F040404000000000000080C0C0C080FF
:100910000000C0C08000000080C0C000C0C0000057
:1009200080C0C00000000000C0C0C0C0C000C0C087
:1009300000000000000000000000000000000000B7
:1009400000000000000000000000000000000000A7
:100950000000000000000000000000000000000097
:1009600000000000000000C0F0F8FC3E1E06010080
:1009700000007F4141417F007F4141417F00008075
:10098000C0E07E5B4F5BFEC00000C000DCD7DEDE57
:10099000DED7DC00C0000000000000000000000006
:1009A00000000000000000000000000000004949B5
:1009B00049FFFFFFFFE0DFBFBF00BFBFDFE0FFFF7A
:1009C000FFFF49494900000000001F3F6060E0BF91
:1009D0001F007F7F071E381E077F7F007F7F0E1F4F
:1009E0003B716000000000007F7F0C0C0C007E7EDD
:1009F000007F7E0303007F7E03037E7E03037F7EF2
:100A0000000F3E703C063C703E0F00327B49493F70
:100A10007E007F7E0303001E3F69696F2600000091
:100A200000000000000000030F1F3F3C78706000D2
:100A300000007F4141417F007F4141417F00307B89
:100A40007F7830202030787F3B0003000F7F0F0F2E
:100A50000F7F0F00030000000000000000000000F6
:100A60000000000000000000000000000000010184
:100A700001070F0F7F0F7F0F0F7E0F0F7F0F7F0F6D
:100A80000F0701010100000000000000000000014C
:100A90000100000000000000000000000000000055
:100AA0000000000000000000000000000000000046
:100AB0000000000000000000000000000000000036
:100AC0000000000000000000000000000000000026
:100AD0000000000000000000000000000000000016
:100AE0000000000000000000000000000000000006
:100AF00000000000000000000000000000000000F6
:100B000000000000000000000000000000000000E5
:100B100000000000000000000000000000000000D5
:100B2000000000000000000000AF00AE09025B0002
:100B3000030100A0FA0904000001030101000921DA
:100B4000110100012240000705810308000A090481
:100B5000010002030000000921110100012222000E
:100B60000705820320000107050303200001090493
:100B700002000103000000092111010001227B0095
:100B80000705840320000A12010002000000083259
:100B9000FC87120200010200011E0353006F006C6B
:100BA00000610072006900750073005F0053006F00
:100BB0000066006C006500000010034B00650079C2
:100BC0000068006900760065000000040309040065
:100BD00011241FBECFEFDAE0DEBFCDBF04B603FEA7
:100BE00027C080917A0690917B06A0917C06B091F7
:100BF0007D068730904BA740B04BD1F410927A0617
:100C000010927B0610927C0610927D0614BE84B76B
:100C1000877F84BF0FB6F894A895809160008861A3
:100C200080936000109260000FBEE0E0F8E3099549
:100C300012E0A0E0B1E0E6E9F7E602C005900D920F
:100C4000A833B107D9F726E0A8E3B2E001C01D92AE
:100C5000AA37B207E1F70E9488260C9492330C94CD
:100C60000000CF93DF934091780650917906485762
:100C700054409A01205A3F4F21303240C0F020E0CA
:100C800032E0241B350B6091760470917704FC01EF
:100C9000CA01240F351FC1E0D0E08217930750F03E
:100CA0007093770460937604DF91CF91089520E6E6
:100CB00030E0E9CF4491DC01A858BB4F5C91451767
:100CC00081F04C93AC01A5E056954795AA95E1F7C4
:100CD000DE0102C0AA0FBB1F4A95E2F7AD016A2BE5
:100CE000752B01963196D9CFE8EDF0E080818E7FAB
:100CF00080831092E2001092DA001092E100A0EEE0
:100D0000B0E08C9181608C9380818F77808319BC57
:100D1000A7EDB0E08C918E7F8C9380818F7E808355
:100D200010927A0308952091E4003091E50095E651
:100D3000A9012091EC00822F817020FF06C08091D4
:100D4000E80080FF06C080E008952091E80022FDC1
:100D50001AC080918803882389F0853089F08091BA
:100D6000EB0085FD0FC02091E4003091E5004217B3
:100D70005307F9F29150E1F684E0089582E0089576
:100D800083E0089581E00895EF92FF920F931F93FF
:100D9000CF937C018B010E949306C82F811117C04D
:100DA0008091E80085FD0BC08091E8008E778093EC
:100DB000E8000E949306882399F3C82F08C0F70122
:100DC00081917F018093F1000150110949F78C2F27
:100DD000CF911F910F91FF90EF90089580918A031A
:100DE00087FF13C08091E80082FF06C08091E80071
:100DF0008B778093E80004C0809188038111F2CF43
:100E00000895809188038823D9F38091E80080FFBA
:100E1000F8CF8091E8008E77ECCF982F9093E9007F
:100E2000242F762F50E0891731F07091EC0020913B
:100E3000ED005091F00021FD07C09F5F973071F7E2
:100E40008093E90081E008953091EB003E7F30937C
:100E5000EB003091ED003D7F3093ED003091EB00E1
:100E600031603093EB007093EC002093ED005093D1
:100E7000F0002091EE0027FDE0CF80E00895CF92B2
:100E8000DF92EF92FF920F931F93CF93DF93C8ED02
:100E9000D0E088818F7E8883E7EDF0E080818160FB
:100EA000808384E082BF81E080937A0388818E7F93
:100EB000888302EE10E0F80110821092DA0081EED1
:100EC000C82ED12CF601108288818F778883888183
:100ED0008068888388818F7D888319BC10928803FD
:100EE00010928903109287031092860390EEE92EE8
:100EF000F12CF70180818B7F8083888181608883DA
:100F000042E060E080E00E940D07F60180818E7F64
:100F10008083F80180818160808380818860808304
:100F2000F70180818E7F8083888180618883DF9153
:100F3000CF911F910F91FF90EF90DF90CF90089588
:100F4000FC01809190039091910386179707A0F080
:100F50006115710529F49091E8009E779093E8005F
:100F600090E06115710551F4911108C08091E8007D
:100F700082FF34C080E00895BC01F2CF80918803E5
:100F80008823C1F18530C1F18091E80083FD30C034
:100F90008091E80082FDEACF8091E80080FFE1CFF8
:100FA0008091F3002091F200382F6115710519F03E
:100FB0002830310558F091E02830310509F090E0F3
:100FC0002091E8002E772093E800CBCF8191809389
:100FD000F100615071092F5F3F4FE7CF8091880387
:100FE000882341F0853041F08091E80083FFBECF37
:100FF00081E0089582E0089583E008950895809146
:101000007D030895CF92DF92EF92FF922FB7F8946D
:10101000C0907303D0907403E0907503F090760352
:101020002FBFA7019601261B370B480B590BCA018E
:10103000B901FF90EF90DF90CF9008952FB7F8940B
:10104000609173037091740380917503909176039E
:101050002FBF08952091700330917103281739072D
:1010600071F09093710380937003E0916E03F0919F
:101070006F03309721F00084F185E02D09940895E5
:1010800020916C0330916D032817390771F090930C
:101090006D0380936C03E0916E03F0916F033097C2
:1010A00021F00680F781E02D0994089520915E03D8
:1010B00036E0839FC0011124629F800D911D112491
:1010C000811522E0920714F090E080E088589B4F51
:1010D00090937906809378060895FC01680F791F34
:1010E0008FEF91E32191822728E030E087FF09C04C
:1010F000880F892721503109C9F7E617F70791F7BB
:101100000895880FF7CFFA01811101C0FB010994FE
:1011100080917104982F9E7F61F48170826080932A
:10112000710480917404813A18F080EA8093740409
:1011300008958831B0F381708661F1CFAF92BF928C
:10114000DF92EF92FF920F931F93CF93DF93082FBD
:10115000162FE901E42FF0E0E756FB4F611110C0B4
:10116000E4915E2F4E2F4983E8835A83DF91CF911C
:101170001F910F91FF90EF90DF90BF90AF90089577
:10118000E62EF12C4491D42EE42FF0E026E0829F4D
:10119000C00111242FEF30E0B9010E94B931802F36
:1011A00090E0880F991F55E5569FD001579FB00DCD
:1011B00011248A1B9B0B982F990F890F5901AE1888
:1011C000BF08AE9ED001AF9EB00DBE9EB00D1124E3
:1011D0005B2F189F80011124012F11275901A01A9C
:1011E000B10AAE9E8001AF9E100DBE9E100D11245F
:1011F0005901A81AB108AE9CC001AF9C900DBE9CCD
:10120000900D1124892F9927281B390B2E9FC0017F
:101210002F9F900D3E9F900D1124E92F6230710594
:10122000A1F050F46115710509F49DCF613071058D
:1012300081F0EB2F512F97CF6430710569F080F06A
:101240006630710509F48FCFF4CFE42F4B2F592F5F
:101250008ACFE42F412F87CFEB2F542F492F83CFF5
:101260004B2F5D2DE12F7FCF80E008957894089576
:10127000F894E82FE295EF70F0E031A1282F2F705D
:1012800081E090E001C0880F2A95EAF7982F9095A9
:10129000932391A392A1892B82A30C943609909158
:1012A000E80292FF06C0282F28712830F9F4877FC2
:1012B000846093FF06C0282F28712831F1F4877EBF
:1012C00084612091E90220FF06C0382F3871383040
:1012D000D9F4877F816021FF06C0282F287128312B
:1012E000D1F4877E816194FD877E0895282F247133
:1012F0002430F9F68B7F8860DCCF282F24712431CD
:1013000001F78B7E8861DDCF382F3171313019F7CD
:101310008E7F8860E0CF282F2171213121F78E7ECA
:101320008861E1CFCF93DF93EC018238910581F1A1
:10133000B0F58133910509F491C020F5893291050A
:1013400009F485C08A9709F490C0C11521E5D20738
:1013500008F0AAC0C11530E5D30708F0F2C0CF3BB2
:10136000D10508F089C0C83AD10508F0DFC0C53AF8
:10137000D10508F0D3C0C430D105F8F4C130D1058F
:10138000E1F040C08533910509F45AC0C997E9F6E8
:101390008091E802837089F0C0EED0E00EC0833EF9
:1013A000910599F170F4803E910501F1823E91051D
:1013B00061F68091E80282FD21C0CE01DF91CF91DC
:1013C0000895863E910561F1873E910571F1843E55
:1013D000910509F0BACF8091E90281FFEECF8091AB
:1013E000E802C7EED0E084FD0DC0E7CF8091E802AF
:1013F00080FDF7C09091E90290FFDFCFC3EED0E00F
:1014000084FFDBCFD0E0C0E0D8CF8091E80282FD3E
:10141000EBC09091E90290FDBFCF84FFCECFF2CF19
:101420008091E80283FDDDCFC8CF8091E80283FD83
:10143000DEC09091E90291FFF0CFC4EED0E0BDCFC5
:101440008091E80285FFB9CFC9E2D0E0B6CF8091A4
:10145000E80285FFB2CFC5E3D0E0AFCF8091E802CC
:1014600086FFABCFCAE2D0E0A8CF8091E80286FF2A
:10147000A4CFC1E3D0E0A1CFC11540E2D40760F40E
:10148000C11581E0D80708F098CFCE01815E91099F
:10149000079708F492CFB6CFC11590E4D90708F4A6
:1014A000B1CFDF70D06A89CFC11524E5D20778F4B7
:1014B000C11533E5D30708F072C0C11542E5D40762
:1014C00008F05CC0DC2FCC27C16FD06A76CFC11585
:1014D0008AE5D80778F4C11599E5D90708F073C0F3
:1014E000C11528E5D20708F48DCFDC2FCC27C06FBB
:1014F000D06A63CFCE0190568115904208F082CF1A
:101500008D2F8F710E944F0990E0982F8827882790
:101510009F719C012C2BE901D0624FCFC55AD0E0BE
:10152000C653DE4FC881D0E0D06447CFC85AD0E060
:10153000CC0FDD1FC353DE4F0990D881C02DD4647A
:101540003CCFCE0164E0969587956A95E1F783706C
:101550002C2F26952695237040E2249F900111247C
:10156000382B8C2F8370C1E0D0E002C0CC0FDD1F80
:101570008A95E2F7C22BD32BDC681FCFCE01837094
:10158000992721E030E002C0220F331F8A95E2F74D
:10159000C695C69580E2C89FE0011124EBCFCE012D
:1015A0008370992721E030E002C0220F331F8A9513
:1015B000E2F7C695C69590E2C99FE0011124C22BBF
:1015C000D32BDA68FACE8C2F8F700E944F0934E04B
:1015D000D695C7953A95E1F7CF709C2FEC01D0696D
:1015E000ECCEC9E3D0E0E9CEC2EED0E0E6CEC6EE66
:1015F000D0E0E3CE0C941E0880917B0390919C0276
:10160000892B90919B02892B80933A02E0916E0383
:10161000F0916F03309731F00280F381E02D8AE37F
:1016200092E00994089580919A029091690298132A
:1016300001C008958F5F8770FACF27E0929F800DD9
:101640001124982F977086958695869523E0829F22
:10165000F0011124E85BFD4F50E040E080E0219173
:1016600030E0092E02C0369527950A94E2F72170E2
:101670003327042E01C0220F0A94EAF7822B4F5F12
:101680005F4F4330510559F7089527E0929F800D31
:101690001124982F977041E001C0440F9A95EAF702
:1016A00086958695869593E0899FF0011124E85BE5
:1016B000FD4F90E080E070E05191DF0111979B01B8
:1016C000082E02C0369527950A94E2F721702195DD
:1016D0002527242325272C9301968330910561F734
:1016E000089590E080E00E94400890E080E00E9431
:1016F0002A0810929C0210929B020C94FC0A809380
:10170000D6020C94710B882341F0809590917B0355
:10171000892380937B030C94FC0A0895882339F075
:1017200090917B03982B90937B030C94FC0A089573
:101730008823B1F19CEF980F913A70F4ECE3F2E05A
:101740009191891303C0DF0111971C9242E0E234AA
:10175000F407B1F70C94FC0A90E2980F983088F4E3
:10176000877021E030E0A90102C0440F551F8A951F
:10177000E2F7CA01809590917B03892380937B03D4
:10178000E9CF9BE5980F933020F490E080E00C9433
:101790004008885A873120F490E080E00C942A08B1
:1017A00008950F931F93CF93C82F882309F469C01E
:1017B0008CEF8C0F813AB0F50CE312E082E492E0FA
:1017C000F8012191C21701F122E0E234F207C9F7D2
:1017D000EFEF80E0D8019D918D01C91781F0EF3FB7
:1017E00019F4911101C0E82F8F5F863099F7EF3F10
:1017F00031F00E2E000CFF0BE65CFD4FC283CF9143
:101800001F910F910C94FC0AECE3F2E02191C213BA
:1018100003C0DF0111971C928E179F07B9F70E9432
:10182000FC0AD6CF80E28C0F883068F4C77021E0C4
:1018300030E001C0220FCA95EAF780917B03822B2A
:1018400080937B03DCCFEBE5EC0FE33050F4F0E06A
:10185000E653FE4F808190E0CF911F910F910C9441
:101860004008C85AC73168F4EC2FF0E0EE0FFF1FB4
:10187000E353FE4F80819181CF911F910F910C9482
:101880002A08CF911F910F910895982F92959F70DC
:1018900011F0892F94E0282F2695269511F09E5F50
:1018A000822F869509F09F5F892F0895CF93DF934C
:1018B000CDB7DEB762970FB6F894DEBF0FBECDBFCF
:1018C00096E0ECE4F3E0DE01179601900D929A9514
:1018D000E1F796E0FE013796DE011D9601900D922C
:1018E0009A95E1F798858823E9F0962B9E8786E004
:1018F000FE013D96DE01119601900D928A95E1F769
:1019000086E0FE013196ACE4B3E001900D928A9539
:10191000E1F762960FB6F894DEBF0FBECDBFDF9140
:10192000CF91089560959623E1CF809377037093CC
:10193000790360937803809188038430F9F480936D
:10194000E9008FEF9091E800815095FD06C095ED7C
:101950009A95F1F700008111F5CF8091E80085FF9D
:101960000DC050E040E063E070E087E793E00E9444
:10197000C4068091E8008E778093E8000895BC014A
:1019800084E00C94950CBC0183E00C94950C9C01B4
:1019900084E08093E9009FEF8091E800915085FDFD
:1019A00006C085ED8A95F1F700009111F5CF809181
:1019B000E80085FF0CC050E040E066E070E0C9013F
:1019C0000E94C4068091E8008E778093E800089515
:1019D000CF93DF93EC0181E08093E9008FEF90914A
:1019E000E800815095FD06C095ED9A95F1F700004D
:1019F0008111F5CF8091E80085FF14C050E040E0F0
:101A000068E070E0CE010E94C4068091E8008E7705
:101A10008093E80088E0FE01AEE7B3E001900D920C
:101A20008A95E1F7DF91CF910895CF92DF92EF92FF
:101A30000F931F93CF93DF93CDB7DEB7CE5DD10960
:101A40000FB6F894DEBF0FBECDBF609187018091C5
:101A5000710480FF4CC0EEE9F5E09E012F5F3F4F1F
:101A60008E0101521F4FC901A4914A2F50E0DA01A3
:101A7000AA0FBB1FA40FB51FAD56BC4FCD90DD9074
:101A8000EC90D901CD92DD92ED929D013196A01797
:101A9000B10751F72091860143E0249F800D911DED
:101AA0001124539A2BB1277F3BB138605FB7F8946C
:101AB000FC01649FE00DF11D1124BF0186179707FB
:101AC00049F55FBFEFE5F4E03197F1F700C00000A2
:101AD000C252DF4F0FB6F894DEBF0FBECDBFDF910D
:101AE000CF911F910F91EF90DF90CF90089580914B
:101AF00088019091890123E0829FF0011124ED5625
:101B0000FC4F891708F0A7CF1182108212828F5FD5
:101B10003396F7CFDC014D91CD01E8E03BB90000F1
:101B200000C047FF2BB9440F000000C000C000C038
:101B30002BB900C0EA9591F7C1CF0F931F93CF93B4
:101B4000DF9300D00F92CDB7DEB7182F062F80910C
:101B5000710480FF22C09E012F5F3F4F40EA64E680
:101B60008BE20E949E081017C0F48B8199812A8114
:101B700033E0139FF0011124ED56FC4F2183908335
:101B800082831F5F33960113F9CF0E94150D8FE9F1
:101B90009FE00197F1F700C000000F900F900F90A9
:101BA000DF91CF911F910F910895CF93DF93C82FAD
:101BB000D82FD17081FF04C067E084E00E949D0DA2
:101BC000D11104C06FE18CE10E949D0DC2FF06C0DF
:101BD00063E180E1DF91CF910C949D0DDF91CF9176
:101BE0000895E1E7F4E080818E7F8083EBE5F3E008
:101BF0008281816082832FEF80E792E021508040D4
:101C00009040E1F700C000000C94150D9F92AF9238
:101C1000BF92CF92DF92EF92FF920F931F93CF93D9
:101C2000DF937C015B016A018091E30201E010E037
:101C30008A3010F40AE010E0C1E0D0E0F894B50179
:101C4000C701F6010995982E0E943609911004C02B
:101C500021960C171D076CF4892DDF91CF911F91F0
:101C60000F91FF90EF90DF90CF90BF90AF909F903B
:101C70000895CC9F9001CD9F300D300D112490E040
:101C800080E045E34A95F1F700000196821793073B
:101C9000C1F7D4CF8091A902811110C08091D800E2
:101CA00080618093D8008AE18A95F1F700C0809125
:101CB000D90080FF0AC081E08093A90281E0909161
:101CC000A902913009F080E0089582E08093A90292
:101CD0000E94740610928803F1CF0E944A0E81116F
:101CE00003C080916B030895E0916E03F0916F0340
:101CF000309721F00190F081E02D099480E0089563
:101D00001F93CF93DF93182FEB010E94D10B8FE924
:101D10009FE00197F1F700C000002197C1F7812FE4
:101D2000DF91CF911F910C94980B0F931F93CF933A
:101D3000DF9300D000D0CDB7DEB789836A834B83B1
:101D40001C8204E610E024E030E0AE014F5F5F4FFC
:101D500060E084E10E94172F0F900F900F900F907A
:101D6000DF91CF911F910F91089580918301882376
:101D700029F047E669E98BE20C94950E80914302C5
:101D800047EC6BE18823C1F341E265EA89EDF4CFCA
:101D9000CF92DF92EF92FF920F931F93CF93DF9337
:101DA0006C017B0164E670E088E70E94FF2DEC0186
:101DB00097FD12C010E000E0F601E00FF11F8491E2
:101DC00064E670E00E94792EEC01892B29F40F5F04
:101DD0001F4F0E151F0581F70E94932FCE01DF9133
:101DE000CF911F910F91FF90EF90DF90CF900895CA
:101DF0008091690390916A03911103C091E0892752
:101E00000895882369F062E070E08AE29BE00E9416
:101E1000C80E892B19F08091690308951092690307
:101E200080916903EBCFCF93C091690380916A03DE
:101E30008823D1F00E941E086058774C8E4F9F4F28
:101E400060936503709366038093670390936803C0
:101E5000C11108C062E070E088E29BE00E94C80EF9
:101E6000892B29F0C09169038C2FCF91089581E0CF
:101E700080936903F7CFCF93DF93C3EED2E060E0A6
:101E8000CE010E942D322196C11584E0D807B9F702
:101E9000DF91CF9108956F927F928F929F92AF9230
:101EA000BF92CF92DF92EF92FF920F931F93CF9347
:101EB000DF938CE2C82E8BE0D82E91ECE92EF12C2A
:101EC000E701CC58D10936011BC0F50185909490EB
:101ED000692DC8010E942D32682DC80101960E940B
:101EE0002D3282E0A80EB11C0E5F1F4FC017D10724
:101EF00061F78EE0680E711C2E96CE15DF0529F075
:101F00008E010E5011095301E0CF7E018CE8E80EDE
:101F1000F11C8CE8C80ED11C8DE7E81683E0F806AA
:101F200079F6DF91CF911F910F91FF90EF90DF90A5
:101F3000CF90BF90AF909F908F907F906F900895BB
:101F4000CF93C82F6FEF811161E283E290E00E948E
:101F50002D32C1110CC0CFEF6C2F84E290E00E94B3
:101F60002D326C2F85E290E0CF910C942D32C2E19E
:101F7000F3CF80E00E94A00F60E086E290E00E9434
:101F80002D320E944B0F0E943B0F81E00C94A00F5A
:101F90000F931F93CF93DF93C42FD0E0CC0FDD1F9F
:101FA0002EE0629FC00DD11D11243CE8839FC00D1F
:101FB000D11D1124CE0187960E941932082F10E0FE
:101FC000102F0027CE0188960E9419329801282BE5
:101FD000C901DF91CF911F910F910895462F853050
:101FE00038F47A3028F4673018F4672F0C94C80F4F
:101FF00090E080E00895CF92DF92FF920F931F93BD
:10200000CF93DF936C01009192038091D602082B4D
:10201000C7E0D0E010E0FC2EC8010C2E02C0959560
:1020200087950A94E2F780FD0CC02197A0F7F12C68
:102030008F2DDF91CF911F910F91FF90DF90CF9067
:102040000895B6018C2F0E94EE0F0E94920901970D
:1020500061F3EECFCF93DF93EC010E94FB0FBE0143
:102060000E94EE0FDF91CF910C949209FC018081C8
:1020700091810E942A10292F2F7092959F70925063
:102080009E3078F4E92FF0E0EC56FC4C0C94ED31E6
:10209000803F19F020F4883E20F481E00895843FC9
:1020A000E1F380E00895883EC0F3813FD1F7F5CF9A
:1020B000822F869586958695089583E290E00E940A
:1020C0001932813289F484E290E00E94193282311F
:1020D00059F485E290E00E94193291E0823109F0D2
:1020E00090E0892F8170089580E0FCCF1F93CF93FB
:1020F000DF93CDB7DEB768970FB6F894DEBF0FBE9B
:10210000CDBF40914C0350914D0360914E037091AF
:102110004F0380915003909151030E947A222093A3
:102120004C0330934D036093500370935103142F6D
:10213000119510934E03652F619560934F0386E0D0
:10214000ECE4F3E0DE01179601900D928A95E1F739
:1021500086E0FE013796DE01119601900D928A9578
:10216000E1F79B858C85209183012223B1F07727AD
:1021700061950CF47095072E000C880B990B0E944A
:1021800099322AE939E949E95EE30E94FD320E9469
:102190006132962F812F60E010E01B836C839D835A
:1021A0008E8386E0FE013196DE011D9601900D9230
:1021B0008A95E1F786E0FE013D96DE015396019097
:1021C0000D928A95E1F786E0FE017396DE01119685
:1021D00001900D928A95E1F786E0FE013196ACE41C
:1021E000B3E001900D928A95E1F786E0ECE4F3E02C
:1021F000DE01179601900D928A95E1F786E0E6E4FC
:10220000F3E0DE01119601900D928A95E1F746E028
:1022100050E0BE016F5F7F4FCE0107960E940332F0
:10222000892B79F0E0916E03F0916F03309749F0BC
:1022300082E080934C030480F581E02D8CE493E0F0
:10224000099510924E0310924F0310925003109272
:10225000510386E0ECE4F3E0A6E4B3E001900D92D4
:102260008A95E1F768960FB6F894DEBF0FBECDBF32
:10227000DF91CF911F910895ECE3F2E086E0DF015A
:102280001D928A95E9F70C94710B1F93CF93DF93FE
:10229000CDB7DEB7AA970FB6F894DEBF0FBECDBF9D
:1022A0008AE893E02091F100DC012D93CD01B3E0A9
:1022B00082399B07B9F780918B03833009F472C090
:1022C000B8F4813009F449C0823009F4B5C0809176
:1022D000E80083FF8DC280918A0390918B039A302E
:1022E00008F086C2E92FF0E0EE55FC4C0C94ED317D
:1022F0008A3009F490C08B3009F471C0893039F705
:1023000080918A03813219F780918E0390918F0317
:10231000009711F00297D9F68091E800877F8093AB
:10232000E8008091E80082FF38C09091F30080912E
:10233000F200029731F48091F100813011F0863083
:1023400021F48091F10080937D038091E8008B77E8
:102350008093E8000E94EE06BACF80918A03813A0A
:1023600009F0B5CF8091E800877F8093E8008091E5
:102370008E0390918F03892B61F468E08EE793E0E0
:1023800070E00E94A0078091E8008B778093E800BE
:102390009ECF60E090E080E0F3CF809188038111D0
:1023A000C0CF95CF80918A03813A09F090CF809178
:1023B0008E0390918F03892B09F089CF8091E800DB
:1023C000877F8093E8008091E80080FFFCCF8091B8
:1023D0008B018093F1008091E8008E77B9CF8091D6
:1023E0008A03813209F073CF80918E0390918F031D
:1023F000892B09F06CCF8091E800877F8093E800FB
:102400000E94EE0680918C0380938B0110927B03D7
:102410000E943C115CCF80918A03813209F057CF32
:102420008091E800877F8093E8000E94EE0680910B
:102430008D0380937C034BCF80918A03813A09F00E
:1024400046CF8091E800877F8093E8008091E80084
:1024500080FFFCCF80917C03BCCF803899F082381C
:1024600009F0C6C180918E038F70873008F0C0C11B
:102470008093E9008091EB0085FB882780F910921A
:10248000E90006C0809186039091870391118260D4
:102490009091E800977F9093E8008093F10010926C
:1024A000F1008091E8008E779FC1882309F48DC1E7
:1024B000823009F09DC180918C03811190C180917F
:1024C0008E038F702FEF280F263008F091C1809374
:1024D000E9002091EB0020FF82C1933031F480911C
:1024E000EB0080628093EB007AC19091EB009061E9
:1024F0009093EB0021E030E001C0220F8A95EAF7CB
:102500002093EA001092EA008091EB008860EACF05
:1025100081116EC110918C031F778091E300807848
:10252000812B8093E3008091E800877F8093E8000F
:102530000E94EE068091E80080FFFCCF8091E300CE
:1025400080688093E30082E0111183E08093880328
:102550004FC18058823008F04BC120918C033091DC
:102560008D032C3DE3E03E07A1F583E08A838AE2F8
:1025700089834FB7F894DE01139620E03EE051E2E4
:10258000E32FF0E050935700E49120FF03C0E29561
:10259000EF703F5FEF708E2F90E0EA30C0F0C7968B
:1025A0008D939D932F5F243159F74FBF8091E800A1
:1025B000877F8093E8006AE270E0CE0101960E9476
:1025C000A0078091E8008B778093E80011C1C09646
:1025D000E7CF80918E0390918F03432F552743308F
:1025E000510509F44AC078F54130510509F47AC023
:1025F0008BE590E0ECE2FBE04230510509F0F8C0D9
:102600002091E800277F2093E800209190033091EB
:1026100091038217930708F49C0140E021153105CE
:1026200009F065C0411163C08091E80082FDC9CF07
:1026300080918803882329F2853019F28091E8007F
:1026400083FFF2CFBECF4132510509F43CC0423284
:10265000510509F0CDC08330910508F0C9C0FC01D7
:10266000EE0FFF1FE45DFD4F0190F081E02D875DCF
:102670009D4FDC018C9190E01AC033272130310549
:10268000D1F02115310561F02230310509F0B0C0DB
:10269000E9E9FBE0E4918E2F90E0E9E9FBE007C077
:1026A000EBECFBE0E4918E2F90E0EBECFBE000978D
:1026B00009F49EC0A5CFE9EBFBE0E4918E2F90E0FA
:1026C000E9EBFBE0F4CF8330910508F091C0880F6F
:1026D000991FFC01EE5CFD4F0190F081E02D89E037
:1026E00090E08ECF82E190E0E7E8FBE089CF809137
:1026F0008803882309F465CF853009F462CF80917F
:10270000E80083FD5ECF8091E80082FD8DCF80914F
:10271000E80080FF83CF9091F3008091F2002115B3
:10272000310519F08830910550F041E0089709F023
:1027300040E08091E8008E778093E8006FCF44916D
:102740004093F1003196215031090196E8CF80384D
:1027500009F04EC08091E800877F8093E800809167
:1027600089038093F1009DCE811142C010918C03AA
:102770001230F0F58091E800877F8093E800109395
:1027800089030E94EE06112311F084E005C08091B8
:10279000E30087FDFACF81E08093880342E061EC9B
:1027A00081E00E940D0742E261EC84E00E940D0787
:1027B00042E261EC82E00E940D0742E260EC83E0BD
:1027C0000E940D078091880313C080918C03813093
:1027D00079F481E0933009F080E0809387031092D0
:1027E000E9008091E800877F8093E8000E94EE0670
:1027F0008091E80083FF0AC08091E800877F809382
:10280000E8008091EB0080628093EB00AA960FB6FF
:10281000F894DEBF0FBECDBFDF91CF911F91089519
:102820001F93CF93DF93162FC0917806D09179062E
:102830008A30D1F420915E03CE0188579440622FF4
:1028400070E00E94B931281B822F66E00E94CD31D2
:10285000C82FC15020F4DF91CF911F91089560E0FF
:1028600080E20E941014F5CF8D30E9F4C857D440AF
:1028700020915E03622F70E0CE010E94B931281BC7
:10288000822F9E01280F311D2115324018F080E063
:10289000D0E0C0E0C80FD11DC858DB4FD0937906F7
:1028A000C0937806D8CF96E0FE01AFE5B3E0019083
:1028B0000D929A95E1F7803E90F186E0FE0111922B
:1028C0008A95E9F7C0917806D0917906111133C045
:1028D00046E050E0BE018FE593E00E9403329E0186
:1028E00028573440892B91F52A5F3F4F40915E0372
:1028F000642F70E0C9010E94B931481B463010F4C2
:10290000240F311D211572E0370710F030E020E070
:1029100028583B4F30937906209378069CCFF6E0F9
:102920008F9FB001112468517A4F46E050E0CE01EC
:102930000E94FA31C7CF9E012A5F3F4FFE012E173A
:102940003F0731F2808180958193F9CFC90145E03D
:10295000969587954A95E1F741E050E0BA0102C0AB
:10296000660F771F8A95E2F7CB016091760470912C
:102970007704862B972BB9016B5F7F4FE5E0769547
:102980006795EA95E1F702C0440F551F6A95E2F793
:10299000842B952B9093770480937604A5CFFF9298
:1029A0000F931F93CF93DF93EC01F62EFC01019060
:1029B0000020E9F78F0101501109C017D10730F04D
:1029C000DF91CF911F910F91FF9008956F2D899105
:1029D0000E941014F2CFCF92DF92EF92FF926B0120
:1029E0007C010E948808B701A60188E090E0FF9072
:1029F000EF90DF90CF900C943F32AF92BF92CF9286
:102A0000DF92EF92FF920F931F93CF93DF9300D04B
:102A10000F92CDB7DEB7082FF62E142FE22E80913D
:102A2000710480FF4FC0E82FE695AE2FB0E0A35EA3
:102A3000BD4F9C9190935B038E7F823009F056C00E
:102A4000413A08F040EA9E012F5F3F4F6F2D802FE3
:102A50000E949E088091710480FF11C02B813981F2
:102A60004A81809188019091890153E0859FF0010E
:102A70001124ED56FC4F891798F10E94150D809195
:102A80007204801308C0809173048F1104C0809178
:102A90007404811729F080915D03826080935D0347
:102AA00000937204F092730410937404EE2051F0BA
:102AB0006091710470917204809173049091740418
:102AC0000E94EB140F900F900F90DF91CF911F9108
:102AD0000F91FF90EF90DF90CF90BF90AF9008954F
:102AE0004183308322838F5F3396C5CF923039F68E
:102AF000E2508E2F8170D82EE695F0E0E756FA4F1F
:102B0000A590B490C12CBB2460918A01C61608F030
:102B1000B4CF2C2D30E0A29EC001A39E900DB29E9A
:102B2000900D112470E00E94B931802FD11016C091
:102B3000860F40918801420F532F511D9A01220F99
:102B4000331F240F351F2D563C4F412F113A08F0EB
:102B500040EA6F2D0E949E08C394D6CF861BE9CF12
:102B6000E1E7F4E0438121E1421B08F440E021E089
:102B7000628181810C94FD14E1E7F4E0438121E15D
:102B8000420F08F44FEF21E0628181810C94FD1423
:102B9000E1E7F4E0628121E1621B08F460E021E0FA
:102BA000438181810C94FD14E1E7F4E0628121E12D
:102BB000620F08F46FEF21E0438181810C94FD14D2
:102BC000E1E7F4E0818121E04381628188500C9447
:102BD000FD14E1E7F4E0818121E043816281885FB7
:102BE0000C94FD14CF93C82F0E94450C823081F1C4
:102BF00038F48823B1F0813021F18C2FCF910895E2
:102C0000833059F18430C9F720E040E56FEF8AED59
:102C10000E94FD1480910001882379F310928301B2
:102C20000DC020E040E56FEF82E30E94FD1480912B
:102C30000001882399F381E0809383010E94B50EFF
:102C4000DCCF20E040E56FEF8CEF0E94FD14D5CF84
:102C500020E040E56FEF80E5F8CF20E040E56FEF42
:102C600086E7F3CF0E94F215809392030C94710BC8
:102C700080919203982F9670963019F488600C9486
:102C80003216877FFCCF21E030E001C0220F8A9509
:102C9000EAF720958091920382230C94321621E06A
:102CA00030E001C0220F8A95EAF780919203822BCF
:102CB0000C94321680917504882319F0815080930A
:102CC0007504609171047091720480917304909105
:102CD00074040C94EB1480917504833018F48F5FA6
:102CE00080937504609171047091720480917304F3
:102CF000909174040C94EB149091710490FF27C090
:102D0000917081111DC092609093710480915D0358
:102D1000816080935D03662351F06091710470912E
:102D2000720480917304909174040E94EB1420E06B
:102D30004091740460917304809172040C94FD14AA
:102D40008C3010F09661E0CF880F982BDDCF08957E
:102D5000809171048695815009F48BE061E00C94B8
:102D60007C168091710486958F5F8C3008F081E02D
:102D700061E00C947C168091710480FF07C08695F9
:102D800082588F77893010F40C94B11661E082E09C
:102D90000C947C16E1E7F4E083E0808311828FEFEE
:102DA000828380EA83831482ABE5B3E012968C9130
:102DB0001297836012968C936081718182819381D6
:102DC0000C94EB140E94F92D40E060E080E00C943C
:102DD000950E69EE7EEF90E080E00E944B3260E05D
:102DE00082E090E00E942D3260E083E090E00E945B
:102DF0002D321092D60260E084E090E00E942D32E5
:102E000060E082E290E00E942D3260E085E090E098
:102E10000E942D3260E086E090E00E942D326FEF3C
:102E200087E090E00E942D3240E050E0BA0188E057
:102E300090E00E943F3260E08DE090E00E942D32F1
:102E400040E050E0BA0188E190E00E943F3260E04B
:102E500087E190E00E942D3240E050E0BA018CE121
:102E600090E00E943F3270E060E080E290E00E94DB
:102E70004B3240E050E0BA0188E190E00E943F32DE
:102E800080E00E94A00F0E94B90F40E050E0BA011C
:102E90008FE090E00E943F3240E050E0BA0183E1D1
:102EA00090E00C943F325F926F927F928F929F924C
:102EB000AF92BF92CF92DF92EF92FF920F931F9348
:102EC000CF93DF9300D000D00F92CDB7DEB77C0157
:102ED000FC0183819481892B31F080819181892348
:102EE0008F3F09F01EC50F900F900F900F900F901D
:102EF000DF91CF911F910F91FF90EF90DF90CF90D6
:102F0000BF90AF909F908F907F906F905F9008954B
:102F10000E94FB0F182F682F89819A810E94450B10
:102F200069817A81812F0E94EE0F8C01F7018281E5
:102F3000882309F4EAC4C80182519F45409708F0EC
:102F400071C48FEF93E00E941932025193EEA92EC3
:102F500092E0B92E8111C7CF01113AC01C821B82A9
:102F6000662463948AE0582E85010F5F1F4FC501C8
:102F70000E94193289831A82882309F4B4CF9FEF03
:102F8000980F9330A0F58A83698232E0A30EB11CBA
:102F9000C8010E9419328B83882309F4A4CF8E01C3
:102FA0000F5F1F4FF80120812223F1F2213009F039
:102FB00058C0918182819130E1F40E5F1F4F6AE029
:102FC00070E0893311F460E570E00E94800E17C054
:102FD000A114F4E0BF0609F486CFC5010E9419329E
:102FE000811101C001502FEFA21AB20AB5CF5801CA
:102FF000D6CF923039F40E5F1F4F0E94D10B0F5F76
:103000001F4FD0CF933029F40E5F1F4F0E94980BB3
:10301000F6CF943019F00F5F1F4FF1CF0E5F1F4FA7
:1030200030E020E0B8016F5F7F4FF80141818053AD
:10303000990B8A30910550F02150310900F38FE946
:103040009FE00197F1F700C00000F6CF529EF0011B
:10305000539EF00D11249C012E0F3F1F842F8B01D6
:10306000E1CFE22FF0E0E754FE4F7490822F869577
:103070008695869590E0FC01E755FE4FE490277019
:10308000F12C022E02C0F594E7940A94E2F7E1E0F5
:10309000EE22FF24FC01E756FE4FC490D12C022EF5
:1030A00002C0D594C7940A94E2F7F1E0CF22DD2460
:1030B000FC01E757FE4F8490912C02C095948794B1
:1030C0002A95E2F721E082229924E114F10419F013
:1030D00081EE0E94D10BC114D10419F086EE0E943A
:1030E000D10B39E36AE070E0731202C060E570E072
:1030F000872D0E94800ECD2819F086EE0E94980B35
:10310000EF2819F081EE0E94980B892809F477CFF7
:103110006AE070E08CE259CF81E00E944F1603C054
:1031200081E00E9443160F900F900F900F900F9028
:10313000DF91CF911F910F91FF90EF90DF90CF9093
:10314000BF90AF909F908F907F906F905F900C9406
:10315000381682E0E2CF053E110509F45DC0043F58
:10316000110509F4D2C0043E110509F085C3882376
:1031700009F4D3C081E08093FF027EC30338FFE5EA
:103180001F07E1F1F8F4063F110509F4C4C0023845
:103190003FE5130709F070C3882309F46DC381EE7E
:1031A0000E94D10B83EE0E94D10B8FE40E94D10BC1
:1031B0008FE40E94980B83EE0E94980B81EE0E9490
:1031C000980B5AC305384FE5140709F47DC0B0F1D8
:1031D00006389FE5190709F04FC3882309F495C005
:1031E00080914302882309F486C080EE90E090939A
:1031F0008501809384011092430274C0882309F4EE
:103200003BC381EE0E94D10B83EE0E94D10B80E57F
:103210000E94D10B80E5CDCF8093470210934602E8
:1032200000934502882321F081E08093000324C3AA
:103230001092000321C380934402F0CF882379F1D8
:1032400080914402882349F0809145020E94980BA6
:1032500080EE0E94D10B8AE20CC080914702882345
:10326000D1F3809145020E94980B80EE0E94D10B11
:103270008CE40F900F900F900F900F90DF91CF91F3
:103280001F910F91FF90EF90DF90CF90BF90AF9084
:103290009F908F907F906F905F900C94D10B8AE2FB
:1032A0000E94980B8CE40E94980B80EE0E94980B71
:1032B00080914402811105C080914702882309F45E
:1032C00012CE80914502D5CF8823F9F080918301F9
:1032D000811104C080910001882339F0109283018C
:1032E000109200010E94B50EC7C281E08093830155
:1032F00080930001F7CF86E690E09093850180935C
:10330000840181E080934302EDCF61E00E94560C7E
:10331000B3C262E0FBCF64E0F9CF1092FF02ACC20F
:10332000882331F081E08093020310927B01A4C2D4
:1033300010920203A1C2073C2CE5120709F4AEC0AB
:1033400008F4A7C0083C4CE5140709F4ACC0093CDC
:103350001C4509F0B1C240EB55E16CEB75E179C059
:10336000043DECE51E07A8F40E3CFCE51F0708F041
:10337000BACD0C3C2CE5120709F49FC04AE556E192
:103380006BE676E10D3C1C4508F463C061E081E02A
:1033900046C0053D4CE5140709F4A5CD08F492C0DC
:1033A0000D351D4509F49FCD87C28091710480FFC2
:1033B00031C08E7F809371046091710470917204AA
:1033C00080917304909174040E94EB1480915D03CA
:1033D000816080935D039FEFE0E7F2E09150E04071
:1033E000F040E1F700C000000F900F900F900F9099
:1033F0000F90DF91CF911F910F91FF90EF90DF9091
:10340000CF90BF90AF909F908F907F906F905F9084
:103410000C94150D81608093710461E086950F9086
:103420000F900F900F900F90DF91CF911F910F9100
:10343000FF90EF90DF90CF90BF90AF909F908F90D4
:103440007F906F905F900C947C1648EA56E161EB98
:1034500076E10F900F900F900F900F90DF91CF912A
:103460001F910F91FF90EF90DF90CF90BF90AF90A2
:103470009F908F907F906F905F900C94830841EBAA
:1034800056E168EA76E1E5CF40EE55E169EE75E197
:10349000E0CF49EE55E160EE75E1DBCF48EC55E158
:1034A00064ED75E1D6CF44ED55E168EC75E1D1CF1F
:1034B0004CEB55E160EB75E1CCCF4BE656E16AE5AC
:1034C00076E1C7CF0F900F900F900F900F90DF9184
:1034D000CF911F910F91FF90EF90DF90CF90BF9011
:1034E000AF909F908F907F906F905F900C94BB16E1
:1034F0000E3D1C4509F0E0C10F900F900F900F900A
:103500000F90DF91CF911F910F91FF90EF90DF907F
:10351000CF90BF90AF909F908F907F906F905F9073
:103520000C94E916C8010E941D0BD82ED3C1092F97
:103530000F70907F11F00295007F812F2223C9F038
:10354000002369F090E2910F983010F011110BC038
:1035500080917B03082B00937B030E94FC0A812F40
:103560000E94D10B17C080919C02082B00939C02F3
:10357000F4CF0E94980B002369F00095105E18307C
:1035800010F0B11027C080917B03082300937B03C8
:103590000E94FC0A98E0C91AD108E4E0CE16D104D2
:1035A00008F0A1CC0E946D0E0F900F900F900F901D
:1035B0000F90DF91CF911F910F91FF90EF90DF90CF
:1035C000CF90BF90AF909F908F907F906F905F90C3
:1035D0000C94D50D80919C02082300939C02D8CFB7
:1035E000892F8F70907F903211F08295807FF1E06B
:1035F000BF120CC0222329F0333060F60E948E0BDC
:10360000C9CF323038F60E94830BC4CF222341F059
:103610003323A1F340FFA3CF4F70F7014583EECFD3
:10362000332389F3193309F0F5C0FFEF27EE33E0B8
:10363000F15020403040E1F700C00000812F0E948F
:10364000980BA8CF892F86958695837061F081307D
:1036500009F0A0CF812F9370211102C090E080E08B
:103660000E942A0897CF812F9370211102C090E009
:1036700080E00E9440088ECF892F8370A1F5211130
:1036800089CF812F829586958770880F880F412F6B
:103690004F70082E01C0440F0A94EAF7212F2071C1
:1036A00014FF07C02FE030E001C0220F8A95EAF72F
:1036B0002095969596959370923081F0822F842B69
:1036C000933030F48091D602913029F0242B82235C
:1036D0000E947F0B5FCF842B822BFACF242B80910B
:1036E000D6028227F5CF8695222311F0892F81708B
:1036F000882309F44FCF812F829586958770880F94
:10370000880F412F4F70082E01C0440F0A94EAF72A
:10371000212F207114FF07C02FE030E001C0220FDD
:103720008A95EAF72095969596959370923081F058
:10373000822F842B933030F480919203913029F0C2
:10374000242B82230E94321625CF842B822BFACF82
:10375000242B809192038227F5CF092F0F7022230B
:1037600029F0802F0E944F16812F48CF812F0E9471
:10377000830B802F0E9443160DCF812FE1EF1E1780
:1037800089F1E11750F0F0EF1F17B9F02223B1F1E2
:103790003111E5CE892F8F7129C042EF141749F1FD
:1037A00053EF1513F3CF80E0222361F29F7181E084
:1037B00001C0880F9A95EAF7C5CF222379F03230FD
:1037C00008F0E8CE292F2F7181E090E001C0880F2A
:1037D0002A95EAF7909192038927B4CF333008F005
:1037E000D9CEF0CF892F8F71222321F20E944F165C
:1037F000D1CE892F8F712223C9F3BCCF332379F027
:10380000893341F48FEF97EEE3E081509040E04040
:10381000E1F712CF8FE39CE90197F1F70DCF892FE4
:103820008F71A8CF0031FFE51F0709F475CC013176
:103830002FE5120709F48DCC0E941E086093070340
:10384000709308038093090390930A03F701828120
:10385000053F110509F45DCD08F090CC013E11053E
:1038600009F4E9CC08F077CC0C32110509F458CDF5
:10387000003E110509F47BCCF7019281911138CEFD
:1038800080917B0382720A3CFCE51F0709F410CE8D
:1038900008F066CD053C3CE5130709F4F5CD08F0CA
:1038A0004ACD033C5CE5150709F4CFCD08F0E7CD20
:1038B000023C1C4509F479CDF7010081118199235F
:1038C00009F430CEC8010E94FB0FD82E682FC80122
:1038D0000E94450BB8018D2D0E94EE0F0E949209A7
:1038E000182FB82EF70122814581342F32953F7071
:1038F000892F82958F70C82ED12C8C3008F04ACE3B
:10390000F601E455FC4C0C94ED3100313FE5130712
:1039100009F406CC01314FE5140709F097CF82E096
:1039200000CC85E0DE01119601900D928A95E1F7B9
:10393000F701228189819A812111EACA0E941D0B17
:10394000182FEECA1F93CF93DF9380916802807F78
:10395000A9F480916502882389F080919A02D09120
:1039600069026091630270916402A0916602B09155
:103970006702C62FC72316E0D81304C0DF91CF918A
:103980001F91089590E0109711F0CF3F19F4019620
:103990008770F2CF189F9001199F300D1124F90103
:1039A000E659FD4F41814713F2CF40814613EFCFD7
:1039B00042814111ECCF438154814A1B5B0B403A59
:1039C000510528F7809168028F70806180936802AA
:1039D000F901E159FD4F80818F708061808383E61A
:1039E00092E00E945317DF91CF911F910C94130B1B
:1039F000AF92BF92CF92DF92EF92FF920F931F93FD
:103A0000CF93DF93CDB7DEB761970FB6F894DEBFE3
:103A10000FBECDBF8C0185E0F801DE011D9601903F
:103A20000D928A95E1F7F801E28083E6A82E82E004
:103A3000B82E60916602709167026115710509F4F4
:103A400032C19091630240916402892F84238F3F99
:103A500009F429C120813181C380D480F0906502AE
:103A6000F601E61BF70BFF2009F4E8C0809168021D
:103A7000582F507FE03AF10508F0ABC0511177C0E4
:103A8000FE2C431321C092131FC0E1101DC08F7084
:103A9000806180936802C5010E945317809168027B
:103AA000F80185838F2D61960FB6F894DEBF0FBEA7
:103AB000CDBFDF91CF911F910F91FF90EF90DF90DD
:103AC000CF90BF90AF900895CD2829F0822F832307
:103AD0008F3F09F003C180E0F82FF170DF2E80FFE7
:103AE0003CC080919A024091690256E0841315C04F
:103AF0002D873E878D859E850E942A10292F22952D
:103B00002F702230F0F0243018F59F70F1F0F8019A
:103B10009581907FD1F4D12C1EC090E0589FF00188
:103B2000599FF00D1124E659FD4F6181361306C0EF
:103B30006081261303C06281E6120FC00196877070
:103B4000D5CF9F7011F0882331F3805E883018F351
:103B5000C8010E945317FD2CA5CFEE2009F4A2CF77
:103B600080916802816080936802F12C9BCF43139F
:103B700006C0921304C0F801EE2009F479C0C80110
:103B80000E943610882309F1EE20F9F08091680236
:103B9000803270F0209163023091640238872F8365
:103BA0001986DB86CA868C87CE0107960E9453173A
:103BB00086E0F801A3E6B2E001900D928A95E1F764
:103BC0000E94A21CFF24F3946DCFC8010E945317DA
:103BD000F9CF51110AC083E692E00E94531786E0A4
:103BE000F50111928A95E9F7C0CF43130FC09213E4
:103BF0000DC0E1100BC0F8018583C8010E94531766
:103C000086E0F50111928A95E9F74CCFC8010E9430
:103C100036108823D1F2EE20C1F280916802803202
:103C200038F220916302309164023A8329831B8227
:103C3000DD82CC828E83CE010196B8CFE03AF105C9
:103C4000F8F6FE2CEE2009F243131FC092131DC09C
:103C50008091680280FD10C0982F907F69F0F80174
:103C60008583903F31F0982F907F905F8F70892BE4
:103C70008583C8010E94531786E0F801A3E6B2E0ED
:103C800001900D928A95E1F70DCFC8010E94361080
:103C900081118ECF80916802816080936802C80193
:103CA0000E945317FFCEEE2009F48FCFC8010E9467
:103CB0003610F82E882309F488CF86E0F801A3E6B1
:103CC000B2E001900D928A95E1F7809163029091A4
:103CD00064020E942A100E94A21CE4CE81E08E257C
:103CE000FBCE1F93CF93DF93CDB7DEB767970FB6A9
:103CF000F894DEBF0FBECDBF4B8B5C8B6D8B7E8B84
:103D00008F8B611110929C021A8A198A85E0FE013C
:103D10007396DE011D9601900D928A95E1F786E07B
:103D2000FE013D96DE01179601900D928A95E1F70E
:103D3000CE0107960E94F81C882389F016E0809136
:103D40009A029091690289134BC067960FB6F89456
:103D5000DEBF0FBECDBFDF91CF911F91089586E0EA
:103D6000FE013796DE01119601900D928A95E1F7DA
:103D70008A859B85892B11F38F81988589238F3FB5
:103D8000E9F22091690230E0C90101968770992714
:103D900040919A024817190681F410927B030E9401
:103DA0003C111092690210929A0286E0E3E6F2E07A
:103DB000DF011D928A95E9F7C1CF96E0929FD0016D
:103DC000939FB00D1124A659BD4FFE01319601906D
:103DD0000D929A95E1F7809369020E94130BAECF82
:103DE000819FC001112486599D4F0E94F81C882391
:103DF00009F4ABCF80919A0290E0019687709927E1
:103E000080939A029CCF0F931F93CF93DF9300D0A0
:103E100000D0CDB7DEB76091CE027091CF02809115
:103E2000D0029091D1020E9402086436710581058A
:103E3000910588F10E944A0E882379F10E941E089C
:103E40006E5F7F4F8F4F9F4F69837A838B839C83F5
:103E500080912C0190912D0189549D4F40912B010F
:103E600050E04530510510F044E050E0BE016F5F76
:103E70007F4F0E94103284E090E00E940531892B30
:103E8000D9F40E941E086093CE027093CF028093F3
:103E9000D0029093D10281E010C00E941E080091D0
:103EA000E4021091E5022091E6023091E702600FF2
:103EB000711F821F931FC4CF80E00F900F900F904F
:103EC0000F90DF91CF911F910F910895BF92CF92E4
:103ED000DF92EF92FF920F931F93CF93DF93B82E51
:103EE000EB01F42E6901688179818A819B810E94AE
:103EF0000208643671058105910510F4FF2019F15F
:103F0000EB2C0B2C000CFF088B2D9AE08902F001A2
:103F10001124EF5FFE4F8381948189549D4F42812C
:103F200050E00417150708F4A801B6010E941032EA
:103F3000C7010E940531892B89F40E941E086883FD
:103F400079838A839B8381E0DF91CF911F910F91C9
:103F5000FF90EF90DF90CF90BF90089580E0F4CF76
:103F60000F931F93CF93DF93CDB7DEB728970FB68C
:103F7000F894DEBF0FBECDBF85E0E1E7F4E0DE01DF
:103F8000119601900D928A95E1F780915B039091D3
:103F90005C03A0915D038E839F83A88741E08885A1
:103FA000811101C040E008E010E09E012F5F3F4F0B
:103FB0006FED72E088E00E94661F811110925D0330
:103FC00028960FB6F894DEBF0FBECDBFDF91CF911C
:103FD0001F910F9108950F931F93CF93DF930F922B
:103FE000CDB7DEB70E946D0E898341E09091C50286
:103FF000981301C040E001E010E09E012F5F3F4FA9
:104000006BED72E087E00E94661F0F90DF91CF9109
:104010001F910F9108950F931F9341E09091C30258
:1040200080919203981301C040E001E010E022E982
:1040300033E067ED72E085E00E94661F882389F017
:1040400041E09091C4028091D602981301C040E0F3
:1040500001E010E026ED32E062ED72E086E00E94C1
:10406000661F1F910F9108956F927F928F929F927A
:10407000AF92BF92CF92DF92EF92FF920F931F9376
:10408000CF93DF930F92CDB7DEB7862E5A01690129
:10409000682E880F7708C3010E940531892B09F02B
:1040A0007BC08AE0869DF001879DF00D1124EF5FB3
:1040B000FE4F458150E04115510511F041E050E0BF
:1040C0008AE0869DF001879DF00D1124EF5FFE4F81
:1040D0006681778169547D4FCE0101960E9410322E
:1040E000F50160817181828193810E9402086436AA
:1040F00071058105910540F4B701C8010E946D0862
:104100009981891709F44FC0082C000C9908C40143
:104110000E940531892B91F0B12C8B2D0F90DF91EE
:10412000CF911F910F91FF90EF90DF90CF90BF90B4
:10413000AF909F908F907F906F9008958AE0889DB8
:10414000F001899DF00D1124EF5FFE4F458150E095
:10415000E416F50608F4A7018AE0889DF001899D20
:10416000F00D1124EF5FFE4F6681778169547D4F1A
:10417000C6010E941032B701C8010E946D089981E2
:104180008913CACF0E941E08F50160837183828360
:104190009383BB24B394C1CFB12CA701B801C6014E
:1041A0000E941032BACFBB24B394F7CFCF92DF92E4
:1041B000EF92FF920F931F93CF93DF9300D000D025
:1041C0000F92CDB7DEB76B0185E0E82EF12C08EB3E
:1041D00012E09E012F5F3F4F4FEA52E061E080E026
:1041E0000E943420882349F095E0FE013196AAEA26
:1041F000B2E001900D929A95E1F795E0EAEAF2E0DB
:10420000D60101900D929A95E1F70F900F900F90C3
:104210000F900F90DF91CF911F910F91FF90EF9032
:10422000DF90CF90089590E080E00E942732893E91
:104230009E4F11F40C945D1080E008951F920F9230
:104240000FB60F9211242F933F934F935F936F9369
:104250007F938F939F93AF93BF93CF93DF93EF930E
:10426000FF93D091E900DF708091EC00C82FC170FE
:1042700080FDC0E81092E9008091F000877F809374
:10428000F00078940E9445111092E9008091F000AE
:1042900088608093F000CD2BCF70C093E900FF9130
:1042A000EF91DF91CF91BF91AF919F918F917F91CE
:1042B0006F915F914F913F912F910F900FBE0F9093
:1042C0001F9018951F920F920FB60F9211242F93E3
:1042D0003F934F935F936F937F938F939F93AF938E
:1042E000BF93EF93FF938091E10082FF09C080911B
:1042F000E20082FF05C08091E1008B7F8093E100A6
:104300008091DA0080FF24C08091D80080FF20C017
:104310008091DA008E7F8093DA008091D90080FF4F
:104320009DC080E189BD82E189BD09B400FEFDCF59
:1043300081E08093880380917A03811109C00E94F3
:1043400074060E943F078091E20084608093E2003F
:104350008091E10080FF17C08091E20080FF13C0D0
:104360008091E2008E7F8093E2008091E200806184
:104370008093E2008091D80080628093D80019BCBD
:1043800085E0809388038091E10084FF2BC08091B9
:10439000E20084FF27C080E189BD82E189BD89B543
:1043A000982F917080FFFBCF8091D8008F7D8093F4
:1043B000D8008091E1008F7E8093E1008091E2003F
:1043C0008F7E8093E2008091E20081608093E20022
:1043D00080918903882309F447C084E0809388038F
:1043E000809188038091E10083FF27C08091E200E3
:1043F00083FF23C08091E100877F8093E10082E00A
:1044000080938803109289038091E1008E7F8093CE
:10441000E1008091E2008E7F8093E2008091E200D3
:1044200080618093E20042E060E080E00E940D073E
:104430008091F00088608093F000FF91EF91BF9130
:10444000AF919F918F917F916F915F914F913F912C
:104450002F910F900FBE0F901F90189519BC1092BE
:10446000880310927A0374CF8091E30087FD93E074
:1044700090938803B5CF78941F921FB61F92112492
:104480008F939F93AF93BF93809173039091740325
:10449000A0917503B09176030196A11DB11D809383
:1044A000730390937403A0937503B0937603BF9145
:1044B000AF919F918F911F901FBE1F9018959C01E7
:1044C0004FB7F8948091730390917403A091750392
:1044D000B09176034FBF821B930B08952FB7F894CA
:1044E0008091730390917403A0917503B09176034A
:1044F0002FBF0895AF92BF92DF92EF92FF920F937A
:104500001F93CF93DF93CDB7DEB761970FB6F894C3
:10451000DEBF0FBECDBF4C87888B998BE52ED62E84
:10452000F72E5E0127E0A20EB11C85E0F501119285
:104530008A95E9F780915A038A3008F095C08091F6
:104540005803909159030E945F22089708F48CC089
:1045500004E610E025E030E0A50164E084E10E947B
:10456000442F892B09F0DBC010925A038B8587FDFD
:10457000D1C0E894E0F880915603909157030097DA
:1045800009F0C2C08F819885891708F091C0981BE7
:10459000892F41E02091840130918501889FC001DD
:1045A000112455E0589FF001599FF00D1124E29F0E
:1045B000B001E39F700DF29F700D1124660F672FFD
:1045C000661F770B7195442319F0719561957109F8
:1045D0008091540390915503680F791F89859A85BE
:1045E000891708F068C0981B892F41E0889FC00197
:1045F000112455E0589FF001599FF00D1124E29FBE
:10460000C001E39F900DF29F900D1124880F892F18
:10461000881F990B9195442319F0919581959109E3
:104620002091520330915303820F931F603871051C
:104630000CF444C06F577109709355036093540391
:104640003FE7D32E803891050CF44BC08F5791096A
:1046500090935303809352039FE7F92E0E946E229A
:104660009093590380935803ED86DE86FF8686E09B
:10467000FE013C96DE01119601900D928A95E1F7BC
:1046800029813A814B815C816D817E8180E090E05F
:1046900061960FB6F894DEBF0FBECDBFDF91CF910C
:1046A0001F910F91FF90EF90DF90BF90AF90089512
:1046B000891B40E06FCF891B40E098CF6138FFEF46
:1046C0007F074CF461587F4F7093550360935403F8
:1046D00021E8D22EB7CFD62E109255031092540354
:1046E000B1CF81382FEF92074CF481589F4F9093B0
:1046F00053038093520381E8F82EB0CFF82E109226
:10470000530310925203AACF0197909357038093BB
:104710005603A4CF6894E0F884E190E0F6CF80914E
:104720005A038F5F80935A0399CF9F92AF92BF92A3
:10473000CF92DF92EF92FF920F931F93CF93DF936D
:10474000CDB7DEB764970FB6F894DEBF0FBECDBF0E
:104750008E010F5F1F4F8AE0D8011D928A95E9F7FD
:1047600092E6C92E91E0D92EF12CE12CAA24A39433
:10477000B12CF60181916F018F3F09F444C0F89488
:10478000E82FE295EF70F0E021A18F70A50102C043
:10479000440F551F8A95E2F7CA01922F982B91A3D7
:1047A00092A18095892382A30E94360900C0EBE57F
:1047B000F1E0912C31E021912F3F09F478C0A22F34
:1047C000A295AF70B0E090968C9190E02F7002C0EF
:1047D000959587952A95E2F780FD69C0832F982AE1
:1047E000330F51E0E236F50731F7F601319780815A
:1047F0008F3F11F00E94380980EA8A95F1F7F8019D
:10480000EE0DFF1D9082AFEFEA1AFA0AB5E0EB1643
:10481000F10409F0AECF4AE050E0B8018AEE92E030
:104820000E9403327C01892B41F08AE0F801AAEE54
:10483000B2E001900D928A95E1F71091F502E11432
:10484000F104B9F181E080939F020E946E2290935F
:104850009E0280939D0280919D0290919E020E94F3
:104860005F22069770F0AAEEB2E0E12FF0E0E45C80
:10487000FC4F8D91819322E0AF3EB207D1F71092A9
:104880009F0281E090E0EF28C1F064960FB6F894A3
:10489000DEBF0FBECDBFDF91CF911F910F91FF9073
:1048A000EF90DF90CF90BF90AF909F90089580E001
:1048B00096CF80919F028111CECF0E944A0ED82EB2
:1048C000E091F502882309F4D2C07E0140E1E40EB4
:1048D000F11C85E0D7011D928A95E9F70E2F10E0B3
:1048E000045C1C4F8091E3028A3008F089C046EDD9
:1048F00050E2B701C8010E94060E882309F4A3C044
:104900004BE056E2B701C8010E94060E882309F465
:104910009AC043E05FE1B701C8010E94060E8823F8
:1049200009F491C04BE050E2B701C8010E94060EA5
:10493000882309F488C04BEE5FE1B701C8010E94EB
:10494000060E882309F47FC040EB5FE1B701C80180
:104950000E94060E882309F476C01092E30280912B
:10496000F40290E045E050E0B701845C9C4F0E9467
:10497000033221E02093A802892B09F057C0D12CE3
:1049800082EAE82E82E0F82E10E000E0D7018D9157
:104990007D018823D1F08695F80109F465C0E150C6
:1049A000FE4F808191819C878B871D860E946E229D
:1049B0008160782F9F878E87F701319710824B8512
:1049C0005C856D858F850E94711E0E5F1F4F0430C0
:1049D0001105E1F6609107037091080380910903C6
:1049E00090910A030E94020861367A4E8105910572
:1049F00028F040E060E080E00E94950E8D2D45CFCC
:104A00008091A0029091A1020E945F22843F914078
:104A100008F06DCF8091A802882309F4B0CF85E01B
:104A2000F70111928A95E9F71092A802A091F40279
:104A3000B0E0A45CBC4F85E0FE01709601900D9241
:104A40008A95E1F79DCF8091E3028F3F31F08F5F30
:104A50008093E3028A3008F482CF0E946E22909302
:104A6000A1028093A002D6CFE550FE4F9ACFF0E08E
:104A7000E45CFC4FF89485E0A8EBB2E001900D9265
:104A80008A95E1F765E070E088EB92E00E946D089E
:104A90008093B7020E943609F894E091FD02F0E09D
:104AA000E650FD4F80818B878093BE0261E070E00D
:104AB000CE010B960E946D088093BD020E943609BC
:104AC000F894C090BF02D090C002E090C102F09074
:104AD000C2028091A4029091A502A091A602B09179
:104AE000A702C816D906EA06FB06D1F0C092A402B6
:104AF000D092A502E092A602F092A7020E944A0E6E
:104B000081110EC00E941E08C61AD70AE80AF90AC7
:104B1000C092E402D092E502E092E602F092E7024F
:104B20000E943609F8948091C30280939203809189
:104B3000C4028093D6020E943609F8948091C5027F
:104B400080936B030E943609F8948091CD028823EC
:104B5000F1F080FF0DC08091C60280FF1CC09091D3
:104B6000710491609093710460E086950E947C16B8
:104B70008091CD0281FF09C020E04091C90260917F
:104B8000C8028091C7020E94FD141092CD020E94BB
:104B9000360980E07ACE0E94F10DEACFEF92FF92C3
:104BA0000F931F93CF93DF9300D000D00F92CDB718
:104BB000DEB7162FE82EF12CC701880F991F662348
:104BC00039F181509E4FFC01808191819A838983C4
:104BD00001E00B830E946E228160782F9D838C837D
:104BE000F701EE55FD4F0127110F102B108349815E
:104BF0005A816B818D810F900F900F900F900F90C5
:104C0000DF91CF911F910F91FF90EF900C94711E47
:104C100085509E4FD8CFCF92DF92EF92FF920F93A5
:104C20001F93CF93DF930F92CDB7DEB7EE24E394BB
:104C3000F12C0EEB12E09E012F5F3F4F43EB52E051
:104C400063E082E00E943420082F882321F1C09085
:104C5000F7028C2D90E09C0126503D4F790119817F
:104C6000F9018081181BD12E80E00AC0DA94F70187
:104C700080818F5F808360E08C2D0E94CE25802F05
:104C80001D14A4F3912F17FD90E0191B11110EC0F4
:104C900081110E94FA0A802F0F90DF91CF911F910E
:104CA0000F91FF90EF90DF90CF9008951F5FF70175
:104CB00080818150808361E08C2D0E94CE25802FE1
:104CC000E5CF1F921FB61F9211248F939F93AF932E
:104CD000BF9380917203811113C0809173039091EF
:104CE0007403A0917503B09176034196A11DB11D87
:104CF0008093730390937403A0937503B09376032A
:104D0000BF91AF919F918F911F901FBE1F901895DB
:104D1000CDB7DEB7E0970FB6F894DEBF0FBECDBFBC
:104D200084B7877F84BF0FB6F894A8958091600000
:104D3000886180936000109260000FBE80E890E070
:104D40000FB6F89480936100909361000FBE85B711
:104D5000806885BF85B7806885BF84E399E09093BC
:104D60003902809338020E9474060E943F078091A6
:104D7000E20084608093E200789480918803882325
:104D8000A1F01091E9001F709091EC00892F8170C3
:104D900090FD80E8182B1092E9008091E80083FDD7
:104DA0000E9445111F701093E90082E084BD93E0DA
:104DB00095BD9AEF97BD80936E001092E402109219
:104DC000E5021092E6021092E7020E945D10811146
:104DD00002C00E94B90F0E944A0E91E08927809379
:104DE0006C0180916C01882309F4C9C0109286017E
:104DF00085E2809387010E944A0E81110E94F82F5C
:104E000080916C0181112FC0FE01359686E0DF0193
:104E10001D928A95E9F786E6898387E98A8386EC7D
:104E20008B8384E38C8385E38D833497A2E6B1E0A2
:104E3000CE010B9621912D938E179F07D9F787E00E
:104E4000ECE8F1E0DE01919601900D928A95E1F790
:104E5000FE01B196ABE5B1E0CE01889621912D938C
:104E60008E179F07D9F780916C0195E0811190E032
:104E70009093F50285E0891B8093F40202E611E02D
:104E800087E6E82E81E0F82EF80181918F018F3FAF
:104E900011F00E943809E016F106B1F70BE511E0B8
:104EA000B2E6EB2EB1E0FB2ED8018D918D018F3F44
:104EB00011F00E943809E016F106B1F78AE0ECE340
:104EC000F3E0DF01282F1D922A95E9F7EAEEF2E0E0
:104ED000DF011D928A95E9F70E941321811102C01A
:104EE0000E94E91682E090E00E941932809331031B
:104EF00084E090E00E941932182F82E290E00E9434
:104F00001932982F812F9093E9028093E8020E9432
:104F10009523EFE7FBEB3197F1F700C000000E940B
:104F2000952380913C0380FF2EC06FEF7FEF90E0D0
:104F300080E00E944B3281E08093E00080E2809329
:104F4000D8001092C9008FE19EE40197F1F700C0EC
:104F5000000087E090EBDC0180937A0690937B065B
:104F6000A0937C06B0937D0688E19CE00FB6F89490
:104F7000A895809360000FBE90936000FFCF85E2FC
:104F80008093860136CF83E090E00E9419320E9420
:104F90007F0B809192030E94F2150E944A0E8111AC
:104FA00002C00E94FB2F83E080932C0380E2809359
:104FB0005E030E94F92D6DE070E08CE492E00E94A7
:104FC000C80E892BE9F580912C0363E070E081FD28
:104FD00005C289E492E00E94C80E892B89F56DE034
:104FE00070E089E392E00E94C80E892B49F50E9487
:104FF0001E086058774C8E4F9F4F609365037093E7
:1050000066038093670390936803E8E7F4E080E029
:1050100092E0DF019C011D9221503040E1F7F093B6
:105020007906E09378068FEF9FEF90937704809353
:10503000760481E080936A038093690310922D03C4
:105040008091F602811136C00E941321811104C0A3
:105050000E94E9160E94CA1688E090E00E94213260
:10506000609371047093720480937304909374043A
:1050700080915D03836080935D036E7F71F40E9475
:10508000CA1688E090E00E94213260937104709308
:10509000720480937304909374040E948808809132
:1050A000710480FF04C060E086950E947C1681E058
:1050B0008093F60280916C01811106C084EF809389
:1050C0007A0185EF8093790120917A01A22FA29530
:1050D000AF70B0E091963C9191972F7081E090E095
:1050E000BC01022E01C0660F0A94EAF7462F4095D4
:1050F000432391964C93919792963C919297362B9D
:1051000092963C93929740917901E42FE295EF704B
:10511000F0E031A14F70042E01C0880F0A94EAF725
:10512000982F9095932391A392A1892B82A3909677
:105130008C9190E002C0959587952A95E2F7817051
:1051400020A130E002C0359527954A95E2F792E01C
:1051500020FF90E0892B8093FE0290916C0181E00A
:1051600098279093FD02891B8093F7020E94E21614
:1051700060E08AE00E947C1681E00E94321680EE98
:1051800090E090938501809384010E94B50E8DE696
:1051900091E090936F0380936E03A0E46A2E809158
:1051A0008803FF24F39400E112E1853009F465C11E
:1051B0000E949523E82E81110E941E08FCE32F2EE9
:1051C000F3E03F2EE2E3F3E0D10110E000E0B02E87
:1051D000DD9081918D1509F474C18D25C12CFF24BA
:1051E000F3949F2D982309F467C10E944A0E8823E7
:1051F00099F0C9A2BAA2DF2081E009F480E08BA374
:105200000E946E228160782F9DA38CA349A15AA190
:105210006BA18DA10E94711EF801EE5CFC4F808194
:10522000F826F0828091FE02E82FEE0FEE0F9091AB
:105230007A01A92FA295AF70B0E090962C9130E042
:105240009F7002C0359527959A95E2F72170332714
:1052500090917901A92FA295AF70B0E090964C91F2
:1052600050E09F7002C0559547959A95E2F7CA01A4
:105270008170992740FF02C082E090E0822B8E2B44
:105280008093FE021091FD028F70E82FF0E0EB5F3B
:10529000FD4F80819091FC02890F8093FC02F12CDC
:1052A00084306CF0E12FF0E0E650FD4F80818F5F9D
:1052B000808360E0812F0E94CE25FF24F3948091AB
:1052C000FC028D3F6CF4E12FF0E0E650FD4F808151
:1052D0008150808361E0812F0E94CE25FF24F394CA
:1052E0008091FC02082E000C990B64E070E00E9493
:1052F000D9318093FC02F1100E94FA0A80916A036E
:10530000882351F180912E0390912F030E945F22F8
:10531000C29708F0EDC020917604309177042115F2
:10532000310509F0D7C1809169038823A9F00E9453
:105330001E08009165031091660320916703309168
:105340006803601B710B820B930B6F3F7F4F8F4F76
:105350009F4710F40E94F80EE11001C0F1100E9466
:10536000130F0E9476100E946D0E909130038917E2
:1053700031F00E946D0E809330030E94D50D809114
:105380008803843009F00BCF83E08093E90080919B
:10539000E80082FF04CF8091E80090E085FF0CC018
:1053A0000E94930630E2E32EF12C8E010F5F1F4F17
:1053B000882309F46EC291E08091E8008B77809396
:1053C000E800992309F4EBCEE981E150E33108F0DC
:1053D000C4C2F0E0E854FC4C0C94ED3186E492E059
:1053E000FACD80918803843009F437C080E00E94B0
:1053F000D50D8091F902811109C0F092F9028091D6
:10540000710481708093F8020E94F10D0E94F80EE1
:105410000E9476101092720388E190E00FB6F89423
:10542000A895809360000FBE6092600083B7817F73
:10543000846083BF83B7816083BF7894889583B786
:105440008E7F83BF0FB6F894A89580916000886125
:1054500080936000109260000FBE809187038823C4
:1054600061F00E949523ECE3F3E081918111A0C3E8
:10547000A6E4B3E0AE17BF07C1F78091880385307B
:1054800009F4AFCF10927B030E943C110E946D0E75
:105490000E94D50D1092F9028091F802882349F0FC
:1054A0008091710481608093710460E086950E9410
:1054B0007C160E94B50E7CCEC394FF0C27E0C2126E
:1054C00090CE0F5F1F4F0A30110509F080CE8FEF8D
:1054D00088A789A71AA60E946E228160782F9CA7B0
:1054E0008BA748A559A56AA58CA50E94711E9ACEC6
:1054F0000E946E2290932F0380932E0360E080E041
:105500000E9456080E946D0E80930B030E944A0E63
:105510008823D1F0609107037091080380910903FB
:1055200090910A030E940208613375478105910535
:1055300040F00E94F80E80916A03882309F4F3CEAC
:10554000EACE0E94130FF7CF61E080E00E94560878
:1055500060E083E991E00E94CF1462E080E00E9465
:105560005608809192030E94450C823009F48CC049
:1055700008F081C0882309F487C0813009F48AC00B
:1055800065E080E00E94560860E081EB91E00E94B7
:10559000CF1466E080E00E94560860910B03669588
:1055A000617086EB91E00E94CF1467E080E00E947A
:1055B000560860910B03609561708BEB91E00E943F
:1055C000CF1468E080E00E94560860910B0362FBF4
:1055D000662760F98FEB91E00E94CF14609103037E
:1055E0007091040380910503909106030E940208C4
:1055F0006D3271408105910508F49DCF0E941E080F
:105600006093030370930403809305039093060350
:1056100080910203811104C080917B01811142C0FD
:105620006DE080E00E94560860E084EC91E00E940A
:10563000CF146AE080E00E94560881E080937B01ED
:105640008091010390E00196817099278093010376
:1056500021E030E0281B390B40E6429FC001439F08
:10566000900D112420910003222351F187529C4F69
:105670000E94310660CF833089F0843009F080CFFA
:1056800060E085EA91E003C060E089E991E00E9472
:10569000CF1476CF60E08FE991E0F9CF60E08BEA3C
:1056A00091E0F5CF6AE080E00E94560860E084EC6B
:1056B00091E00E94CF146BE080E00E945608C0CFBA
:1056C0002091FF02222319F0875E9C4FD1CF875A89
:1056D0009D4FCECF80912D0361E070E0811123CEEC
:1056E000082F10E02B01082E02C0440C551C0A9410
:1056F000E2F7A90144215521452B09F448C09091B6
:105700002C0390FD46C08295880F807680937E01A1
:105710009801369527953695279520938101815ECE
:1057200080937F011092820124E630E047E050E050
:105730006CE771E088E70E94F02E892B09F0F3CD29
:10574000A80175E0440F551F7A95E1F780912C036D
:1057500080FD2DC048585B4F04E610E020E230E0A9
:1057600060E488E70E94172F892B09F0DCCD0E94A6
:10577000130FC20180959095409076045090770465
:10578000482259225092770440927604CCCD8F5F04
:10579000A7CF880F880F880F80937E011092810118
:1057A000895F80937F0183E080938201BDCFECE02D
:1057B000F3E080E2DF011D928A95E9F7E9E1F2E08A
:1057C000F8ABEFA705E112E067E0A62E99249394C9
:1057D000AFA5B8A96D91B8ABAFA7F80181918F01C2
:1057E000840F952F911D9C0128583B4F3EA72DA754
:1057F000E62FF0E0E45FFC4F30E020E07A2C721AF4
:10580000B92C022E01C0BB0C0A94EAF7CDA4DEA489
:1058100090E0D6018D916D018B21672D691B67701A
:10582000862E062E000C770BB82F01C0BB0F8A9472
:10583000EAF78B2E7195619571096770772701C022
:1058400086956A95EAF7882A8081882A80829F5FF8
:105850009830F9F62F5F3F4F31962830310571F6B9
:10586000EDE1F2E02FA538A9E217F30709F0B0CF78
:1058700004E610E020E230E04CE053E071CF80918C
:10588000F100D8018D938D01B1E0EB1AF10809F414
:1058900092CD8091E80085FDF2CF8091E8008B7772
:1058A0008093E8000E949306882399F384CD1A829E
:1058B00089E08B8311C08A81823009F491C18330E1
:1058C00091F1813009F049C00E941E080E94F33115
:1058D0006B837C838D839E8380918803843009F061
:1058E0005ECC1091E9001F709091EC00892F8170BF
:1058F00090FD80E8182B82E08093E9008091E80019
:1059000080FF0DC050E040E060E270E0CE01019603
:105910000E94C4068091E8008E778093E8001F7093
:105920001093E9003CCCFE013396D1018D911D010D
:105930008193B6E42B16B3E03B06B9F7CDCF8A814D
:10594000823059F46B817C818D819E810E94F3317C
:1059500086E290E00E942D32BFCF8FEF8983BCCFCB
:105960004C816B818A810E94C80F982789279827CC
:105970009E838D83B1CFED80FE80FE24EF24FE2434
:105980008A810B81EEE00E9F80011124FCE88F9F3D
:10599000000D111D11248C8190E0880F991F080FB4
:1059A000191F6F2DC80187960E942D326E2DC801D8
:1059B0008896D0CF0E944B0F8FCF8A818138C1F05B
:1059C00060F4803809F088CF20E04B816091730447
:1059D000809172040E94FD147FCF8238E9F08338F1
:1059E00009F07ACF20E0409174046C818B81F2CF72
:1059F00060E08B810E947C168B81811103C00E9424
:105A0000F10D6ACF8091710481608093710460E030
:105A100086950E947C1660CF8B81809375045CCF45
:105A20008A81813899F030F4803809F055CF80911F
:105A300074043FCF823891F0833809F04DCF8091C4
:105A400072048B83809173048C8346CF80917104A0
:105A500080FF02C086952DCF80E02BCF809175040A
:105A600028CF6091710470917204809173049091B9
:105A700074040E94EB1430CF80E18A832DCF81E043
:105A80008A838DE116CFCA80DB80DC24CD24DC2420
:105A90008E010F5F1F4FEC80E00EF12EF11CC6014E
:105AA0008D519D4F0E151F0509F416CF2DE1C2161D
:105AB00021E0D20658F40E941932D80114968C9332
:105AC000FFEFCF1ADF0A0F5F1F4FE9CFF8011482F3
:105AD000F7CF0A811B811027012710279E012F5F16
