:100000000C9418060C945F060C945F060C943D3318
:100010000C945F060C945F060C945F060C945F06CC
:100020000C945F060C945F060C94771A0C94331AA8
:100030000C94F8280C945F060C945F060C945F06F1
:100040000C945F060C945F060C945F060C945F069C
:100050000C945F060C94501B0C945F060C945F0686
:100060000C945F060C945F060C945F060C945F067C
:100070000C945F060C945F060C945F060C945F066C
:100080000C945F060C945F060C945F060C945F065C
:100090000C945F060C945F060C945F060C945F064C
:1000A0000C945F060C945F060C945F060501090230
:1000B000A10185020901A1000509190129081500FE
:1000C0002501950875018102050109300931158165
:1000D000257F95027508810609381581257F9501D0
:1000E00075088106050C0A38021581257F95017572
:1000F000088106C0C005010980A101850319012AF4
:10010000B700150126B700950175108100C0050CD8
:100110000901A101850419012AA002150126A002E6
:10012000950175108100C00660FF0961A101096297
:10013000150026FF00952075088102096315002629
:10014000FF00952075089102C005010906A101056F
:100150000719E029E7150025019508750181029529
:1001600001750881010507190029FF150026FF0008
:100170009506750881000508190129059505750181
:100180009102950175039101C0000000000000007C
:10019000000000000000000000000000000000005F
:1001A000000000000000000000000000007E0F00C2
:1001B000D4FFFFFFC700000078000000000000002F
:1001C000002A2B28000000000000000000000000B2
:1001D0000000000029000000002C1E3420212224F1
:1001E000342627252E362D3738271E1F202122237F
:1001F0002425263333362E37381F04050607080911
:100200000A0B0C0D0E0F10111213141516171819D6
:100210001A1B1C1D2F3130232D3504050607080934
:100220000A0B0C0D0E0F10111213141516171819B6
:100230001A1B1C1D2F3130354C00DA02815AD9F1BE
:10024000DB20A4A62EAF00A0C000A1C800AED580C0
:10025000A81FD300408D1420000000000000000003
:10026000000000E0F0F0F8F8CCCCF8F8F0F0600016
:10027000000000000000000000000000000000007E
:100280000000000F3F7FFCF9F1E1C1810000000098
:1002900000000000000000000000000000000C381A
:1002A0007060E0E0F0F0F8F9FFFFFFFFFF7E1C0058
:1002B000000000000000000000000000000000003E
:1002C000000000E0F0F0F8F8CCCCF8F8F0F06000B6
:1002D000000000000000000000000000000000001E
:1002E0000000000F3F7FFCF9F1E1C1810000010136
:1002F00002060C04000000000000000000000038AE
:100300007C60E0E0F0F0F8F9FFFFFFFFFF7E1C00EB
:1003100000000000000000000000000000000000DD
:1003200000000000000000000000000000000000CD
:10033000000000000000000000000000CCF8700089
:100340000000000000C0F0F8F87CFCEEE6FCFC7851
:1003500078B00000000000000000003F7FF1F8F8D6
:100360007C7CF8F0F0F1E7EFEFFEFEFEFCFCF8F02D
:100370006000010306020000000000000000000011
:10038000000000000000000000000000000000006D
:10039000000000000000000000000080E0F81C00E9
:1003A0000000000000C0F0F8F87CFCEEE6FCFC78F1
:1003B00078300000000000000000003F7FF0F8F8F7
:1003C0007C7CF8F0F0F1E7EFEFFEFEFEFCFCF8F0CD
:1003D000600000000000000000000000000080C07D
:1003E000C0E0E03070E0E0C0C0800000000000002D
:1003F000000000000000000000000000001F7FFF60
:10040000FFE7E7EFEFCFCB838301000000000000A0
:100410000000000000000000000000061C3878F119
:10042000E3E3E7F7F7FFFFFFFF7F3E000000000078
:1004300000000000000000000000000000000000BC
:10044000000000000000000000000080C0E0E0604C
:10045000E0C0C0808000000000000000000000003C
:10046000000020F8FEFFFFFF9F0F0E1F1F3F3F7E83
:10047000E683030F43439088080000031E3C78F096
:10048000E0E0F0F0FBFFFFFF7F7F3800000000009E
:10049000000000000000000000000004F6B8F8D8DA
:1004A000F0E0C000000080C0E0E0F0F0F0F0E0E03C
:1004B000C080000000000000000080C0E1F3FB7F6E
:1004C0001F0F0000F0FFFF3F030100000080C1F399
:1004D000FF7F1F000080C0E0301E3F3F7FF9F0F03B
:1004E00070783C3F1F0F03000000001C3F7F7FFB24
:1004F000F1F0783C1E0F0300000001010101010131
:1005000001010102020202020202020203030303CA
:10051000030303030404040404040405050505059A
:100520000606060606070707070708080808090958
:1005300009090A0A0A0B0B0B0C0C0C0D0D0D0E0E03
:100540000E0F0F0F10101111111212131314141596
:100550001516161717181819191A1A1B1B1C1D1D0A
:100560001E1E1F2020212222232424252626272860
:1005700029292A2B2C2D2D2E2F3031323233343590
:10058000363738393A3B3C3D3E3F40414243444593
:10059000464748494A4C4D4E4F5051535455565872
:1005A000595A5B5D5E5F616264656668696B6C6D1C
:1005B0006F7072737577787A7B7D7E808283858792
:1005C000888A8C8E8F91939596989A9C9EA0A2A3D0
:1005D000A5A7A9ABADAFB1B3B5B7BABCBEC0C2C4D5
:1005E000C6C9CBCDCFD1D4D6D8DBDDDFE2E4E7E995
:1005F000EBEEF0F3F5F8FAFDFFFFAA7F55401C1073
:1006000004010D190A24232221201F1E1D1B1A1864
:10061000171615141312110F0E0C0B0908070605F7
:100620000302002D3945483C303F25262728292A3A
:100630002B2C2E2F31323334353637383A3B3D3E72
:10064000404142434446474907087F0807003E5B54
:100650004F5B3E003E6B4F6B3E001C3E7C3E1C00E1
:10066000183C7E3C18001C577D571C001C5E7F5EAA
:100670001C0000183C180000FFE7C3E7FF0000184B
:1006800024180000FFE7DBE7FF0030483A060E00C1
:10069000262979292600407F05050700407F05258A
:1006A0003F005A3CE73C5A007F3E1C1C0800081CD7
:1006B0001C3E7F0014227F2214005F5F005F5F00FA
:1006C00006097F017F00006689956A0060606060AE
:1006D000600094A2FFA2940008047E040800102089
:1006E0007E20100008082A1C0800081C2A080800A0
:1006F0001E10101010000C1E0C1E0C0030383E385E
:100700003000060E3E0E0600000000000000000053
:100710005F000000000700070000147F147F140032
:10072000242A7F2A120023130864620036495620C7
:100730005000000807030000001C22410000004197
:10074000221C00002A1C7F1C2A0008083E08080002
:100750000080703000000808080808000000606091
:1007600000002010080402003E5149453E000042AE
:100770007F4000007249494946002141494D3300FC
:100780001814127F10002745454539003C4A494955
:1007900031004121110907003649494936004649CF
:1007A00049291E0000001400000000403400000031
:1007B00000081422410014141414140000412214DF
:1007C00008000201590906003E415D594E007C12A5
:1007D00011127C007F49494936003E4141412200C7
:1007E0007F4141413E007F49494941007F09090954
:1007F00001003E41415173007F0808087F0000411D
:100800007F4100002040413F01007F081422410049
:100810007F40404040007F021C027F007F040810A0
:100820007F003E4141413E007F09090906003E41EB
:1008300051215E007F0919294600264949493200A5
:1008400003017F0103003F4040403F001F20402044
:100850001F003F4038403F00631408146300030446
:10086000780403006159494D4300007F4141410034
:10087000020408102000004141417F0004020102EF
:10088000040040404040400000030708000020549E
:10089000547840007F2844443800384444442800B9
:1008A000384444287F0038545454180000087E0906
:1008B000020018A4A49C78007F0804047800004477
:1008C0007D4000002040403D00007F102844000093
:1008D00000417F4000007C04780478007C08040418
:1008E0007800384444443800FC18242418001824A4
:1008F0002418FC007C0804040800485454542400C4
:1009000004043F4424003C4040207C001C20402044
:100910001C003C4030403C004428102844004C90CF
:1009200090907C004464544C440000083641000020
:1009300000007700000000413608000002010204B8
:1009400002003C2623263C0000000000000040403E
:1009500040F0F8F8FF38FFF8F83FF8F8FF38FFF8F4
:10096000F8F040404000000000000080C0C0C0809F
:100970000000C0C08000000080C0C000C0C00000F7
:1009800080C0C00000000000C0C0C0C0C000C0C027
:100990000000000000000000000000000000000057
:1009A0000000000000000000000000000000000047
:1009B0000000000000000000000000000000000037
:1009C00000000000000000C0F0F8FC3E1E06010020
:1009D00000007F4141417F007F4141417F00008015
:1009E000C0E07E5B4F5BFEC00000C000DCD7DEDEF7
:1009F000DED7DC00C00000000000000000000000A6
:100A00000000000000000000000000000000494954
:100A100049FFFFFFFFE0DFBFBF00BFBFDFE0FFFF19
:100A2000FFFF49494900000000001F3F6060E0BF30
:100A30001F007F7F071E381E077F7F007F7F0E1FEE
:100A40003B716000000000007F7F0C0C0C007E7E7C
:100A5000007F7E0303007F7E03037E7E03037F7E91
:100A6000000F3E703C063C703E0F00327B49493F10
:100A70007E007F7E0303001E3F69696F2600000031
:100A800000000000000000030F1F3F3C7870600072
:100A900000007F4141417F007F4141417F00307B29
:100AA0007F7830202030787F3B0003000F7F0F0FCE
:100AB0000F7F0F0003000000000000000000000096
:100AC0000000000000000000000000000000010124
:100AD00001070F0F7F0F7F0F0F7E0F0F7F0F7F0F0D
:100AE0000F070101010000000000000000000001EC
:100AF00001000000000000000000000000000000F5
:100B000000000000000000000000000000000000E5
:100B100000000000000000000000000000000000D5
:100B200000000000000000000000000000000000C5
:100B300000000000000000000000000000000000B5
:100B400000000000000000000000000000000000A5
:100B50000000000000000000000000000000000095
:100B60000000000000000000000000000000000085
:100B70000000000000000000000000000000000075
:100B8000000000000000000000AF00AE09025B00A2
:100B9000030100A0FA09040000010301010009217A
:100BA000110100012240000705810308000A090421
:100BB00001000203000000092111010001222200AE
:100BC0000705820320000107050303200001090433
:100BD00002000103000000092111010001227B0035
:100BE0000705840320000A120100020000000832F9
:100BF000FC87120200010200011E0353006F006C0B
:100C000000610072006900750073005F0053006F9F
:100C10000066006C006500000010034B0065007961
:100C20000068006900760065000000040309040004
:100C300011241FBECFEFDAE0DEBFCDBF04B603FE46
:100C400027C08091720690917306A0917406B091AE
:100C500075068730904BA740B04BD1F410927206C6
:100C600010927306109274061092750614BE84B723
:100C7000877F84BF0FB6F894A89580916000886143
:100C800080936000109260000FBEE0E0F8E30995E9
:100C900012E0A0E0B1E0ECEAFDE602C005900D92A2
:100CA000A233B107D9F726E0A2E3B2E001C01D925A
:100CB000A237B207E1F70E941F290C9490360C94DA
:100CC0000000CF93DF93409170065091710640571A
:100CD00054409A01205A3F4F21303240C0F020E06A
:100CE00032E0241B350B60916E0470916F04FC019F
:100CF000CA01240F351FC1E0D0E08217930750F0DE
:100D000070936F0460936E04DF91CF91089520E695
:100D100030E0E9CF4491DC01A059BB4F5C9145170D
:100D200081F04C93AC01A5E056954795AA95E1F763
:100D3000DE0102C0AA0FBB1F4A95E2F7AD016A2B84
:100D4000752B01963196D9CFE8EDF0E080818E7F4A
:100D500080831092E2001092DA001092E100A0EE7F
:100D6000B0E08C9181608C9380818F77808319BCF7
:100D7000A7EDB0E08C918E7F8C9380818F7E8083F5
:100D80001092720308952091E4003091E50095E6F9
:100D9000A9012091EC00822F817020FF06C0809174
:100DA000E80080FF06C080E008952091E80022FD61
:100DB0001AC080918003882389F0853089F0809162
:100DC000EB0085FD0FC02091E4003091E500421753
:100DD0005307F9F29150E1F684E0089582E0089516
:100DE00083E0089581E00895EF92FF920F931F939F
:100DF000CF937C018B010E94C306C82F811117C0BD
:100E00008091E80085FD0BC08091E8008E7780938B
:100E1000E8000E94C306882399F3C82F08C0F70191
:100E200081917F018093F1000150110949F78C2FC6
:100E3000CF911F910F91FF90EF90089580918203C1
:100E400087FF13C08091E80082FF06C08091E80010
:100E50008B778093E80004C0809180038111F2CFEA
:100E60000895809180038823D9F38091E80080FF62
:100E7000F8CF8091E8008E77ECCF982F9093E9001F
:100E8000242F762F50E0891731F07091EC002091DB
:100E9000ED005091F00021FD07C09F5F973071F782
:100EA0008093E90081E008953091EB003E7F30931C
:100EB000EB003091ED003D7F3093ED003091EB0081
:100EC00031603093EB007093EC002093ED00509371
:100ED000F0002091EE0027FDE0CF80E00895CF9252
:100EE000DF92EF92FF920F931F93CF93DF93C8EDA2
:100EF000D0E088818F7E8883E7EDF0E0808181609B
:100F0000808384E082BF81E08093720388818E7F3A
:100F1000888302EE10E0F80110821092DA0081EE70
:100F2000C82ED12CF601108288818F778883888122
:100F30008068888388818F7D888319BC10928003A4
:100F40001092810310927F0310927E0390EEE92E9F
:100F5000F12CF70180818B7F808388818160888379
:100F600042E060E080E00E943D07F60180818E7FD4
:100F70008083F801808181608083808188608083A4
:100F8000F70180818E7F8083888180618883DF91F3
:100F9000CF911F910F91FF90EF90DF90CF90089528
:100FA000FC01809188039091890386179707A0F030
:100FB0006115710529F49091E8009E779093E800FF
:100FC00090E06115710551F4911108C08091E8001D
:100FD00082FF34C080E00895BC01F2CF809180038D
:100FE0008823C1F18530C1F18091E80083FD30C0D4
:100FF0008091E80082FDEACF8091E80080FFE1CF98
:101000008091F3002091F200382F6115710519F0DD
:101010002830310558F091E02830310509F090E092
:101020002091E8002E772093E800CBCF8191809328
:10103000F100615071092F5F3F4FE7CF809180032E
:10104000882341F0853041F08091E80083FFBECFD6
:1010500081E0089582E0089583E0089508958091E5
:1010600075030895CF92DF92EF92FF922FB7F89415
:10107000C0906B03D0906C03E0906D03F0906E0312
:101080002FBFA7019601261B370B480B590BCA012E
:10109000B901FF90EF90DF90CF9008952FB7F894AB
:1010A00060916B0370916C0380916D0390916E035E
:1010B0002FBF0895209168033091690328173907DD
:1010C00071F09093690380936803E0916603F09157
:1010D0006703309721F00084F185E02D099408958D
:1010E00020916403309165032817390771F09093BC
:1010F000650380936403E0916603F0916703309782
:1011000021F00680F781E02D09940895811520E5EE
:101110009207F8F48115E0E49E0788F5893391057C
:1011200070F48C32910548F48430910580F08E3152
:10113000910518F08897039750F480E0089584365D
:101140009105D9F320F0805E91090897B0F381E012
:101150001BC08115F9E59F0750F4811528E592071A
:10116000A0F491558F3F910509F088F7E6CF8115DE
:10117000EAE59E0710F390568115904240F7FB0177
:101180009581907F81E0C9F20895FB019581907F60
:1011900081E0903291F6F8CF2091530336E0839F9F
:1011A000C0011124629F800D911D1124811522E040
:1011B000920714F090E080E080599B4F9093710665
:1011C000809370060895FC01680F791F8FEF91E3FB
:1011D0002191822728E030E087FF09C0880F892706
:1011E00021503109C9F7E617F70791F70895880FDD
:1011F000F7CFFA01811101C0FB01099480916904C4
:10120000982F9E7F61F48170826080936904809141
:101210006C04813A18F080EA80936C040895883158
:10122000B0F381708661F1CFAF92BF92DF92EF92FF
:10123000FF920F931F93CF93DF93082F162FE9018F
:10124000E42FF0E0E750FB4F611110C0E4915E2FF6
:101250004E2F4983E8835A83DF91CF911F910F91DD
:10126000FF90EF90DF90BF90AF900895E62EF12CA5
:101270004491D42EE42FF0E026E0829FC001112497
:101280002FEF30E0B9010E94B734802F90E0880F33
:10129000991F55E5569FD001579FB00D11248A1B09
:1012A0009B0B982F990F890F5901AE18BF08AE9E5E
:1012B000D001AF9EB00DBE9EB00D11245B2F189FC4
:1012C00080011124012F11275901A01AB10AAE9EE5
:1012D0008001AF9E100DBE9E100D11245901A81A59
:1012E000B108AE9CC001AF9C900DBE9C900D112426
:1012F000892F9927281B390B2E9FC0012F9F900DF6
:101300003E9F900D1124E92F62307105A1F050F439
:101310006115710509F49DCF6130710581F0EB2FE6
:10132000512F97CF6430710569F080F066307105F8
:1013300009F48FCFF4CFE42F4B2F592F8ACFE42F0E
:10134000412F87CFEB2F542F492F83CF4B2F5D2D6C
:10135000E12F7FCF80E0089578940895F894E82FE6
:10136000E295EF70F0E031A1282F2F7081E090E03E
:1013700001C0880F2A95EAF7982F9095932391A39F
:1013800092A1892B82A30C94AC099091DB0292FF6D
:1013900006C0282F28712830F9F4877F846093FFD6
:1013A00006C0282F28712831F1F4877E84612091AE
:1013B000DC0220FF06C0382F38713830D9F4877F1F
:1013C000816021FF06C0282F28712831D1F4877E43
:1013D000816194FD877E0895282F24712430F9F6C9
:1013E0008B7F8860DCCF282F2471243101F78B7E1E
:1013F0008861DDCF382F3171313019F78E7F8860E9
:10140000E0CF282F2171213121F78E7E8861E1CF35
:10141000CF93DF93EC018238910581F1B0F58133F0
:10142000910509F491C020F58932910509F485C030
:101430008A9709F490C0C11521E5D20708F0AAC027
:10144000C11530E5D30708F0F2C0CF3BD10508F055
:1014500089C0C83AD10508F0DFC0C53AD10508F007
:10146000D3C0C430D105F8F4C130D105E1F040C09B
:101470008533910509F45AC0C997E9F68091DB02DA
:10148000837089F0C0EED0E00EC0833E910599F1E3
:1014900070F4803E910501F1823E910561F68091E4
:1014A000DB0282FD21C0CE01DF91CF910895863EFF
:1014B000910561F1873E910571F1843E910509F036
:1014C000BACF8091DC0281FFEECF8091DB02C7EEC4
:1014D000D0E084FD0DC0E7CF8091DB0280FDF7C036
:1014E0009091DC0290FFDFCFC3EED0E084FFDBCF32
:1014F000D0E0C0E0D8CF8091DB0282FDEBC09091BC
:10150000DC0290FDBFCF84FFCECFF2CF8091DB0213
:1015100083FDDDCFC8CF8091DB0283FDDEC09091DB
:10152000DC0291FFF0CFC4EED0E0BDCF8091DB02B2
:1015300085FFB9CFC9E2D0E0B6CF8091DB0285FF4D
:10154000B2CFC5E3D0E0AFCF8091DB0286FFABCF57
:10155000CAE2D0E0A8CF8091DB0286FFA4CFC1E32E
:10156000D0E0A1CFC11540E2D40760F4C11581E0FD
:10157000D80708F098CFCE01815E9109079708F44B
:1015800092CFB6CFC11590E4D90708F4B1CFDF7080
:10159000D06A89CFC11524E5D20778F4C11533E5A7
:1015A000D30708F072C0C11542E5D40708F05CC04B
:1015B000DC2FCC27C16FD06A76CFC1158AE5D8075A
:1015C00078F4C11599E5D90708F073C0C11528E56D
:1015D000D20708F48DCFDC2FCC27C06FD06A63CF41
:1015E000CE0190568115904208F082CF8D2F8F71D9
:1015F0000E94C50990E0982F882788279F719C0139
:101600002C2BE901D0624FCFC55AD0E0CD53DE4F2D
:10161000C881D0E0D06447CFC85AD0E0CC0FDD1FDE
:10162000CA53DE4F0990D881C02DD4643CCFCE017F
:1016300064E0969587956A95E1F783702C2F26953F
:101640002695237040E2249F90011124382B8C2F83
:101650008370C1E0D0E002C0CC0FDD1F8A95E2F7B5
:10166000C22BD32BDC681FCFCE018370992721E0DA
:1016700030E002C0220F331F8A95E2F7C695C69567
:1016800080E2C89FE0011124EBCFCE01837099273F
:1016900021E030E002C0220F331F8A95E2F7C695A1
:1016A000C69590E2C99FE0011124C22BD32BDA68C2
:1016B000FACE8C2F8F700E94C50934E0D695C7955D
:1016C0003A95E1F7CF709C2FEC01D069ECCEC9E3DD
:1016D000D0E0E9CEC2EED0E0E6CEC6EED0E0E3CE7A
:1016E0000C944E088091730390919702892B9091EE
:1016F0009602892B80933402E0916603F091670390
:10170000309731F00280F381E02D84E392E0099478
:1017100008958091950290916402981301C00895F4
:101720008F5F8770FACF27E0929F800D1124982F4A
:10173000977086958695869523E0829FF001112407
:10174000ED5BFD4F50E040E080E0219130E0092E5C
:1017500002C0369527950A94E2F721703327042EAC
:1017600001C0220F0A94EAF7822B4F5F5F4F43308C
:10177000510559F7089527E0929F800D1124982F65
:10178000977041E001C0440F9A95EAF786958695D7
:10179000869593E0899FF0011124ED5BFD4F90E069
:1017A00080E070E05191DF0111979B01082E02C08B
:1017B000369527950A94E2F7217021952527242351
:1017C00025272C9301968330910561F7089590E0C9
:1017D00080E00E94700890E080E00E945A08109219
:1017E0009702109296020C94720B809398020C94BC
:1017F000E70B882341F080959091730389238093B0
:1018000073030C94720B0895882339F0909173033D
:10181000982B909373030C94720B08958823B1F165
:101820009CEF980F913A70F4E6E3F2E091918913FE
:1018300003C0DF0111971C9242E0EC33F407B1F7CB
:101840000C94720B90E2980F983088F4877021E026
:1018500030E0A90102C0440F551F8A95E2F7CA0182
:10186000809590917303892380937303E9CF9BE55F
:10187000980F933020F490E080E00C947008885A20
:10188000873120F490E080E00C945A0808950F937B
:101890001F93CF93C82F882309F469C08CEF8C0F56
:1018A000813AB0F506E312E08CE392E0F801219171
:1018B000C21701F122E0EC33F207C9F7EFEF80E045
:1018C000D8019D918D01C91781F0EF3F19F4911155
:1018D00001C0E82F8F5F863099F7EF3F31F00E2E71
:1018E000000CFF0BEC5CFD4FC283CF911F910F9159
:1018F0000C94720BE6E3F2E02191C21303C0DF0106
:1019000011971C928E179F07B9F70E94720BD6CFC2
:1019100080E28C0F883068F4C77021E030E001C0AD
:10192000220FCA95EAF780917303822B8093730389
:10193000DCCFEBE5EC0FE33050F4F0E0ED53FE4F7D
:10194000808190E0CF911F910F910C947008C85A3C
:10195000C73168F4EC2FF0E0EE0FFF1FEA53FE4FA3
:1019600080819181CF911F910F910C945A08CF9152
:101970001F910F910895982F92959F7011F0892FC4
:1019800094E0282F2695269511F09E5F822F86954C
:1019900009F09F5F892F0895CF93DF93CDB7DEB70E
:1019A00062970FB6F894DEBF0FBECDBF96E0EFE3AF
:1019B000F3E0DE01179601900D929A95E1F796E01B
:1019C000FE013796DE011D9601900D929A95E1F782
:1019D00098858823E9F0962B9E8786E0FE013D9648
:1019E000DE01119601900D928A95E1F786E0FE01E5
:1019F0003196AFE3B3E001900D928A95E1F76296DC
:101A00000FB6F894DEBF0FBECDBFDF91CF91089522
:101A100060959623E1CF80936F0370937103609379
:101A20007003809180038430F9F48093E9008FEF94
:101A30009091E800815095FD06C095ED9A95F1F7DB
:101A400000008111F5CF8091E80085FF0DC050E0C6
:101A500040E063E070E08FE693E00E94F40680913E
:101A6000E8008E778093E8000895BC0184E00C9430
:101A70000B0DBC0183E00C940B0D9C0184E0809362
:101A8000E9009FEF8091E800915085FD06C085ED4B
:101A90008A95F1F700009111F5CF8091E80085FF5C
:101AA0000CC050E040E066E070E0C9010E94F4061E
:101AB0008091E8008E778093E8000895CF93DF93BC
:101AC000EC0181E08093E9008FEF9091E800815074
:101AD00095FD06C095ED9A95F1F700008111F5CFBF
:101AE0008091E80085FF14C050E040E068E070E0BD
:101AF000CE010E94F4068091E8008E778093E80082
:101B000088E0FE01A6E7B3E001900D928A95E1F727
:101B1000DF91CF910895CF92DF92EF920F931F93B1
:101B2000CF93DF93CDB7DEB7CE5DD1090FB6F89472
:101B3000DEBF0FBECDBF609174018091690480FF4C
:101B40004CC0EEEFF5E09E012F5F3F4F8E0101523A
:101B50001F4FC901A4914A2F50E0DA01AA0FBB1F01
:101B6000A40FB51FA557BC4FCD90DD90EC90D901C7
:101B7000CD92DD92ED929D013196A017B10751F7FC
:101B80002091730143E0249F800D911D1124539AED
:101B90002BB1277F3BB138605FB7F894FC01649F9D
:101BA000E00DF11D1124BF018617970749F55FBFAE
:101BB000EFE5F4E03197F1F700C00000C252DF4FCB
:101BC0000FB6F894DEBF0FBECDBFDF91CF911F914E
:101BD0000F91EF90DF90CF900895809175019091D3
:101BE000760123E0829FF0011124E557FC4F89170D
:101BF00008F0A7CF1182108212828F5F3396F7CF41
:101C0000DC014D91CD01E8E03BB9000000C047FF89
:101C10002BB9440F000000C000C000C02BB900C0A9
:101C2000EA9591F7C1CF0F931F93CF93DF9300D025
:101C30000F92CDB7DEB7182F062F8091690480FF71
:101C400022C09E012F5F3F4F40EA64E68BE20E9474
:101C500014091017C0F48B8199812A8133E0139FF6
:101C6000F0011124E557FC4F2183908382831F5F8D
:101C700033960113F9CF0E948B0D8FE99FE00197F6
:101C8000F1F700C000000F900F900F90DF91CF91FF
:101C90001F910F910895CF93DF93C82FD82FD17044
:101CA00081FF04C067E084E00E94130ED11104C0DC
:101CB0006FE18CE10E94130EC2FF06C063E180E178
:101CC000DF91CF910C94130EDF91CF910895E9E647
:101CD000F4E080818E7F8083EEE4F3E08281816096
:101CE00082832FEF80E792E0215080409040E1F71F
:101CF00000C000000C948B0D9F92AF92BF92CF92C8
:101D0000DF92EF92FF920F931F93CF93DF937C01AB
:101D10005B016A018091D60201E010E08A3010F484
:101D20000AE010E0C1E0D0E0F894B501C701F60187
:101D30000995982E0E94AC09911004C021960C17A9
:101D40001D076CF4892DDF91CF911F910F91FF90AA
:101D5000EF90DF90CF90BF90AF909F900895CC9F71
:101D60009001CD9F300D300D112490E080E045E3CF
:101D70004A95F1F70000019682179307C1F7D4CF77
:101D80008091A702811110C08091D800806180935A
:101D9000D8008AE18A95F1F700C08091D90080FFD0
:101DA0000AC081E08093A70281E09091A702913060
:101DB00009F080E0089582E08093A7020E94A406C3
:101DC00010928003F1CF0E94C00E882351F0E09161
:101DD0006603F0916703309721F00190F081E02DC8
:101DE000099480E008951F93CF93DF93182FEB01A0
:101DF0000E94470C8FE99FE00197F1F700C00000B7
:101E00002197C1F7812FDF91CF911F910C940E0C78
:101E10000F931F93CF93DF9300D000D0CDB7DEB7E1
:101E200089836A834B831C8204E610E024E030E05F
:101E3000AE014F5F5F4F60E084E10E9415320F906A
:101E40000F900F900F90DF91CF911F910F910895F8
:101E500080917001882329F047E669E98BE20C94B0
:101E6000080F80913D0247EC6BE18823C1F341E20A
:101E700065EA89EDF4CFCF92DF92EF92FF920F9354
:101E80001F93CF93DF936C017B0164E670E088E7DA
:101E90000E94FD30EC0197FD12C010E000E0F60159
:101EA000E00FF11F849164E670E00E947731EC014D
:101EB000892B29F40F5F1F4F0E151F0581F70E9414
:101EC0009132CE01DF91CF911F910F91FF90EF9052
:101ED000DF90CF90089580915E0390915F03911100
:101EE00003C091E089270895882369F062E070E0DB
:101EF0008AE89BE00E943B0F892B19F080915E03DA
:101F0000089510925E0380915E03EBCFCF93C09152
:101F10005E0380915F038823D1F00E944E086058D1
:101F2000774C8E4F9F4F60935A0370935B0380935F
:101F30005C0390935D03C11108C062E070E088E823
:101F40009BE00E943B0F892B29F0C0915E038C2FF0
:101F5000CF91089581E080935E03F7CFCF93DF9315
:101F6000C3EED2E060E0CE010E942B352196C11570
:101F700084E0D807B9F7DF91CF9108956F927F92EF
:101F80008F929F92AF92BF92CF92DF92EF92FF9289
:101F90000F931F93CF93DF938CE8C82E8BE0D82E3E
:101FA00091ECE92EF12CE701CC58D10936011BC088
:101FB000F50185909490692DC8010E942B35682DFC
:101FC000C80101960E942B3582E0A80EB11C0E5F5D
:101FD0001F4FC017D10761F78EE0680E711C2E9657
:101FE000CE15DF0529F08E010E5011095301E0CF07
:101FF0007E018CE8E80EF11C8CE8C80ED11C8DE740
:10200000E81683E0F80679F6DF91CF911F910F91E2
:10201000FF90EF90DF90CF90BF90AF909F908F9008
:102020007F906F900895CF93C82F6FEF811162E278
:1020300083E290E00E942B356FEFC11161E084E2F2
:1020400090E00E942B356FEFC11162E085E290E0D5
:10205000CF910C942B3580E00E94131060E086E253
:1020600090E00E942B350E94BE0F0E94AE0F81E0CF
:102070000C9413100F931F93CF93DF93C42FD0E0D2
:10208000CC0FDD1F2EE0629FC00DD11D11243CE856
:10209000839FC00DD11D1124CE0187960E94173554
:1020A000082F10E0102F0027CE0188960E941735C8
:1020B0009801282BC901DF91CF911F910F910895AD
:1020C000462F853038F47A3028F4673018F4672FBB
:1020D0000C943A1090E080E00895CF92DF92FF9246
:1020E0000F931F93CF93DF936C0100918A0380912C
:1020F0009802082BC7E0D0E010E0FC2EC8010C2E9F
:1021000002C0959587950A94E2F780FD0CC021974F
:10211000A0F7F12C8F2DDF91CF911F910F91FF90A0
:10212000DF90CF900895B6018C2F0E9460100E941E
:10213000080A019761F3EECFCF93DF93EC010E9481
:102140006D10BE010E946010DF91CF910C94080ABF
:10215000FC01808191810E949C10292F2F70929503
:102160009F7092509E3078F4E92FF0E0EE56F94CD3
:102170000C94EB34803F19F020F4883E20F481E089
:102180000895843FE1F380E00895883EC0F3813FE5
:10219000D1F7F5CF822F869586958695089583E2AF
:1021A00090E00E941735823289F484E290E00E9428
:1021B0001735813059F485E290E00E94173591E09F
:1021C000823009F090E0892F8170089580E0FCCF83
:1021D0001F93CF93DF93CDB7DEB768970FB6F89410
:1021E000DEBF0FBECDBF40913F03509140036091D1
:1021F00041037091420380914303909144030E94F4
:102200008F1B20933F0330934003609343037093ED
:102210004403142F119510934103652F619560932A
:10222000420386E0EFE3F3E0DE01179601900D92A2
:102230008A95E1F786E0FE013796DE01119601905E
:102240000D928A95E1F79B858C8520917001222360
:10225000B1F0772761950CF47095072E000C880B70
:10226000990B0E9497352AE939E949E95EE30E9412
:10227000FB350E945F35962F812F60E010E01B83B5
:102280006C839D838E8386E0FE013196DE011D9670
:1022900001900D928A95E1F786E0FE013D96DE0100
:1022A000539601900D928A95E1F786E0FE017396B0
:1022B000DE01119601900D928A95E1F786E0FE010C
:1022C0003196AFE3B3E001900D928A95E1F786E095
:1022D000EFE3F3E0DE01179601900D928A95E1F7A6
:1022E00086E0E9E3F3E0DE01119601900D928A9514
:1022F000E1F746E050E0BE016F5F7F4FCE010796E9
:102300000E940135892B79F0E0916603F091670313
:10231000309749F082E080933F030480F581E02DFF
:102320008FE393E0099510924103109242031092BB
:1023300043031092440386E0EFE3F3E0A9E3B3E044
:1023400001900D928A95E1F768960FB6F894DEBF7A
:102350000FBECDBFDF91CF911F910895E6E3F2E06C
:1023600086E0DF011D928A95E9F70C94E70B1F9335
:10237000CF93DF93CDB7DEB7AA970FB6F894DEBF41
:102380000FBECDBF82E893E02091F100DC012D93D8
:10239000CD01B3E08A389B07B9F78091830383307E
:1023A00009F472C0B8F4813009F449C0823009F4EC
:1023B000B5C08091E80083FF8DC280918203909127
:1023C00083039A3008F086C2E92FF0E0E056F94C1A
:1023D0000C94EB348A3009F490C08B3009F471C04E
:1023E000893039F780918203813219F78091860311
:1023F00090918703009711F00297D9F68091E80039
:10240000877F8093E8008091E80082FF38C0909138
:10241000F3008091F200029731F48091F100813055
:1024200011F0863021F48091F10080937503809142
:10243000E8008B778093E8000E941E07BACF809156
:102440008203813A09F0B5CF8091E800877F8093BD
:10245000E8008091860390918703892B61F468E0FE
:1024600086E793E070E00E94D0078091E8008B77C8
:102470008093E8009ECF60E090E080E0F3CF809111
:1024800080038111C0CF95CF80918203813A09F0FA
:1024900090CF8091860390918703892B09F089CF93
:1024A0008091E800877F8093E8008091E80080FFBA
:1024B000FCCF809178018093F1008091E8008E77C5
:1024C000B9CF80918203813209F073CF8091860366
:1024D00090918703892B09F06CCF8091E800877F6A
:1024E0008093E8000E941E07809184038093780106
:1024F000109273030E94AE115CCF809182038132EF
:1025000009F057CF8091E800877F8093E8000E9410
:102510001E0780918503809374034BCF80918203C3
:10252000813A09F046CF8091E800877F8093E800E8
:102530008091E80080FFFCCF80917403BCCF80388D
:1025400099F0823809F0C6C1809186038F70873078
:1025500008F0C0C18093E9008091EB0085FB8827DB
:1025600080F91092E90006C080917E0390917F036C
:10257000911182609091E800977F9093E80080939A
:10258000F1001092F1008091E8008E779FC18823BE
:1025900009F48DC1823009F09DC1809184038111BD
:1025A00090C1809186038F702FEF280F263008F09E
:1025B00091C18093E9002091EB0020FF82C193300C
:1025C00031F48091EB0080628093EB007AC19091AE
:1025D000EB0090619093EB0021E030E001C0220F0E
:1025E0008A95EAF72093EA001092EA008091EB00C6
:1025F0008860EACF81116EC1109184031F778091AA
:10260000E3008078812B8093E3008091E800877F4E
:102610008093E8000E941E078091E80080FFFCCFB5
:102620008091E30080688093E30082E0111183E0F1
:10263000809380034FC18058823008F04BC12091B5
:102640008403309185032C3DE3E03E07A1F583E050
:102650008A838AE289834FB7F894DE01139620E0DB
:102660003EE051E2E32FF0E050935700E49120FF69
:1026700003C0E295EF703F5FEF708E2F90E0EA307D
:10268000C0F0C7968D939D932F5F243159F74FBFAC
:102690008091E800877F8093E8006AE270E0CE01D5
:1026A00001960E94D0078091E8008B778093E80024
:1026B00011C1C096E7CF8091860390918703432F85
:1026C00055274330510509F44AC078F5413051058A
:1026D00009F47AC08BE590E0ECE8FBE0423051056C
:1026E00009F0F8C02091E800277F2093E8002091AE
:1026F0008803309189038217930708F49C0140E016
:102700002115310509F065C0411163C08091E800D1
:1027100082FDC9CF80918003882329F2853019F288
:102720008091E80083FFF2CFBECF4132510509F41A
:102730003CC04232510509F0CDC08330910508F00C
:10274000C9C0FC01EE0FFF1FEB5DFD4F0190F08152
:10275000E02D8E5D9D4FDC018C9190E01AC03327F7
:1027600021303105D1F02115310561F022303105DC
:1027700009F0B0C0E9EFFBE0E4918E2F90E0E9EFC3
:10278000FBE007C0EBE2FCE0E4918E2F90E0EBE28F
:10279000FCE0009709F49EC0A5CFE9E1FCE0E491DC
:1027A0008E2F90E0E9E1FCE0F4CF8330910508F052
:1027B00091C0880F991FFC01E55DFD4F0190F081EC
:1027C000E02D89E090E08ECF82E190E0E7EEFBE043
:1027D00089CF80918003882309F465CF853009F47F
:1027E00062CF8091E80083FD5ECF8091E80082FD9A
:1027F0008DCF8091E80080FF83CF9091F30080918E
:10280000F2002115310519F08830910550F041E0B2
:10281000089709F040E08091E8008E778093E80007
:102820006FCF44914093F1003196215031090196C8
:10283000E8CF803809F04EC08091E800877F809310
:10284000E800809181038093F1009DCE811142C008
:10285000109184031230F0F58091E800877F809317
:10286000E800109381030E941E07112311F084E0F9
:1028700005C08091E30087FDFACF81E0809380035B
:1028800042E061EC81E00E943D0742E261EC84E0BD
:102890000E943D0742E261EC82E00E943D0742E275
:1028A00060EC83E00E943D078091800313C080911B
:1028B0008403813079F481E0933009F080E08093E3
:1028C0007F031092E9008091E800877F8093E80001
:1028D0000E941E078091E80083FF0AC08091E800F3
:1028E000877F8093E8008091EB0080628093EB000B
:1028F000AA960FB6F894DEBF0FBECDBFDF91CF9181
:102900001F9108951F93CF93DF93162FC0917006E8
:10291000D09171068A30D1F420915303CE018057B3
:102920009440622F70E00E94B734281B822F66E02B
:102930000E94CB34C82FC15020F4DF91CF911F915A
:10294000089560E080E20E948214F5CF8D30E9F4B2
:10295000C057D44020915303622F70E0CE010E94F3
:10296000B734281B822F9E01280F311D21153240BC
:1029700018F080E0D0E0C0E0C80FD11DC059DB4F97
:10298000D0937106C0937006D8CF96E0FE01A4E5FF
:10299000B3E001900D929A95E1F7803E90F186E0C8
:1029A000FE0111928A95E9F7C0917006D0917106E7
:1029B000111133C046E050E0BE0184E593E00E946F
:1029C00001359E0120573440892B91F52A5F3F4FF6
:1029D00040915303642F70E0C9010E94B734481B33
:1029E000463010F4240F311D211572E0370710F026
:1029F00030E020E020593B4F309371062093700661
:102A00009CCFF6E08F9FB0011124685B794F46E0C0
:102A100050E0CE010E94F834C7CF9E012A5F3F4F9D
:102A2000FE012E173F0731F2808180958193F9CF07
:102A3000C90145E0969587954A95E1F741E050E058
:102A4000BA0102C0660F771F8A95E2F7CB01609149
:102A50006E0470916F04862B972BB9016B5F7F4FCB
:102A6000E5E076956795EA95E1F702C0440F551FBA
:102A70006A95E2F7842B952B90936F0480936E04F4
:102A8000A5CFFF920F931F93CF93DF93EC01F62E08
:102A9000FC0101900020E9F78F0101501109C017D6
:102AA000D10730F0DF91CF911F910F91FF900895E2
:102AB0006F2D89910E948214F2CFE1E5F3E08083CB
:102AC000618324E630E042E050E0BF0184EB0C94E7
:102AD000EE31CF93C82F60E08CE00E945D156C2F23
:102AE00084E00E945D1561E08CE0CF910C945D154F
:102AF000CF92DF92EF92FF926B017C010E94FE0861
:102B0000B701A60188E090E0FF90EF90DF90CF90B2
:102B10000C943D35AF92BF92CF92DF92EF92FF922D
:102B20000F931F93CF93DF9300D00F92CDB7DEB7F3
:102B3000082FF62E142FE22E8091690480FF4FC0DB
:102B4000E82FE695AE2FB0E0AA5EBD4F9C91909322
:102B50004E038E7F823009F056C0413A08F040EAB9
:102B60009E012F5F3F4F6F2D802F0E94140980918F
:102B7000690480FF11C02B8139814A8180917501E0
:102B80009091760153E0859FF0011124E557FC4FA9
:102B9000891798F10E948B0D80916A04801308C0F8
:102BA00080916B048F1104C080916C04811729F00F
:102BB0008091500382608093500300936A04F092E6
:102BC0006B0410936C04EE2051F0609169047091D5
:102BD0006A0480916B0490916C040E9478150F90A8
:102BE0000F900F90DF91CF911F910F91FF90EF9079
:102BF000DF90CF90BF90AF900895418330832283C0
:102C00008F5F3396C5CF923039F6E2508E2F8170A8
:102C1000D82EE695F0E0E750FA4FA590B490C12C7D
:102C2000BB2460917701C61608F0B4CF2C2D30E09C
:102C3000A29EC001A39E900DB29E900D112470E043
:102C40000E94B734802FD11016C0860F40917501B5
:102C5000420F532F511D9A01220F331F240F351F8E
:102C600025573C4F412F113A08F040EA6F2D0E9442
:102C70001409C394D6CF861BE9CF20E00C948A15A3
:102C8000CF93C82F0E94BB0C823099F138F488236F
:102C9000C1F0813029F18C2FCF910895833081F1DB
:102CA0008430C9F740E56FEF8AED0E943D1687E05A
:102CB0000E94691580910001882369F310927001C8
:102CC0000CC040E56AEA83E70E943D16809100014E
:102CD0008823A1F381E0809370010E94280FDBCF4D
:102CE00040E56FEF8CEF0E943D1685E40E94691568
:102CF000D2CF40E56FEF80E50E943D1685E2F6CF2A
:102D000040E56FEF80EA0E943D168FE1EFCF0E9411
:102D1000401680938A030C94E70B80918A03982FC6
:102D20009670963019F488600C948716877FFCCFD4
:102D300021E030E001C0220F8A95EAF720958091CA
:102D40008A0382230C94871621E030E001C0220F11
:102D50008A95EAF780918A03822B0C948716E9E61C
:102D6000F4E0438121E1421B08F440E021E062816C
:102D700081810C948A15E9E6F4E0438121E1420F58
:102D800008F44FEF21E0628181810C948A15E9E615
:102D9000F4E0628121E1621B08F460E021E04381FC
:102DA00081810C948A15E9E6F4E0628121E1620FE9
:102DB00008F46FEF21E0438181810C948A15E9E6E4
:102DC000F4E0818121E04381628188500C948A156E
:102DD000E9E6F4E0818121E043816281885F0C941F
:102DE0008A1580916D04882319F0815080936D04B9
:102DF0006091690470916A0480916B0490916C04F5
:102E00000C94781580916D04833018F48F5F809353
:102E10006D046091690470916A0480916B049091D3
:102E20006C040C9478159091690490FF26C0917001
:102E300081111CC09260909369048091500381605D
:102E400080935003662351F06091690470916A0485
:102E500080916B0490916C040E94781540916C04F1
:102E600060916B0480916A040C943D168C3010F0D4
:102E70009661E1CF880F982BDECF08958091690489
:102E80008695815009F48BE061E00C9413178091D2
:102E9000690486958F5F8C3008F081E061E00C94C6
:102EA00013178091690480FF07C0869582588F7739
:102EB000893010F40C94471761E082E00C941317EA
:102EC000E9E6F4E083E0808311828FEF828380EA79
:102ED00083831482AEE4B3E012968C9112978360E0
:102EE00012968C9360817181828193810C94781504
:102EF000AB01BC0188E190E00C943D35CF93C82F25
:102F0000E2E6F3E0982F990F990F990F808187706F
:102F1000892B8083E3E6F3E09C2F9295969597703A
:102F20008081887F892B8083609160037091610329
:102F300080916203909163030E9478176C2F82E066
:102F4000CF910C945D15E0E6F3E089E8808311826F
:102F500082818C7F82836091600370916103809194
:102F60006203909163030C947817E0E6F3E08081AC
:102F70008E7F808360916003709161038091620312
:102F8000909163030C947817E0E6F3E08081816010
:102F900080836091600370916103809162039091DE
:102FA00063030C9478170E94F73040E060E080E003
:102FB0000C94080F69EE7EEF90E080E00E944935A6
:102FC00060E082E090E00E942B3560E083E090E0DA
:102FD0000E942B351092980260E084E090E00E94FD
:102FE0002B3560E082E290E00E942B3560E085E0C6
:102FF00090E00E942B3560E086E090E00E942B3547
:103000006FEF87E090E00E942B3540E050E0BA017E
:1030100088E090E00E943D3560E08DE090E00E9405
:103020002B3540E050E0BA0188E190E00E943D3548
:1030300060E087E190E00E942B3540E050E0BA016B
:103040008CE190E00E943D3570E060E080E290E02D
:103050000E9449350E94A31780E00E9413100E942D
:103060002B1040E050E0BA018FE090E00E943D3527
:1030700040E050E0BA0183E190E00C943D350F93BD
:103080001F93CF93DF9300D000D0CDB7DEB7609110
:10309000CA027091CB028091CC029091CD020E9425
:1030A0003208643671058105910588F10E94C00ED1
:1030B000882379F10E944E086E5F7F4F8F4F9F4F9C
:1030C00069837A838B839C8380912D0190912E015B
:1030D0008B549D4F40912C0150E04530510510F02C
:1030E00044E050E0BE016F5F7F4F0E940E3584E0E8
:1030F00090E00E940334892BD9F40E944E0860931B
:10310000CA027093CB028093CC029093CD0281E0EF
:1031100010C00E944E080091D7021091D802209151
:10312000D9023091DA02600F711F821F931FC4CF42
:1031300080E00F900F900F900F90DF91CF911F9133
:103140000F910895BF92CF92DF92EF92FF920F936B
:103150001F93CF93DF93B82EEB01F42E69016881A2
:1031600079818A819B810E943208643671058105CC
:10317000910510F4FF2019F1EB2C0B2C000CFF082B
:103180008B2D9AE08902F0011124EE5FFE4F8381BE
:1031900094818B549D4F428150E00417150708F429
:1031A000A801B6010E940E35C7010E940334892B85
:1031B00089F40E944E08688379838A839B8381E027
:1031C000DF91CF911F910F91FF90EF90DF90CF9003
:1031D000BF90089580E0F4CF0F931F93CF93DF93B8
:1031E0000F92CDB7DEB780915E0389832091C9022B
:1031F00090E041E02817190609F440E001E010E0F2
:103200009E012F5F3F4F62ED72E086E00E94A218A0
:103210000F90DF91CF911F910F9108950F931F93FE
:10322000CF93DF93CDB7DEB728970FB6F894DEBF04
:103230000FBECDBF85E0E9E6F4E0DE011196019016
:103240000D928A95E1F780914E0390914F03A091E2
:1032500050038E839F83A88741E08885811101C038
:1032600040E008E010E09E012F5F3F4F6EEC72E0FF
:1032700085E00E94A21881111092500328960FB683
:10328000F894DEBF0FBECDBFDF91CF911F910F919C
:1032900008956F927F928F929F92AF92BF92CF923A
:1032A000DF92EF92FF920F931F93CF93DF930F92D2
:1032B000CDB7DEB7862E5A016901682E880F7708D0
:1032C000C3010E940334892B09F07BC08AE0869DEC
:1032D000F001879DF00D1124EE5FFE4F458150E017
:1032E0004115510511F041E050E08AE0869DF00162
:1032F000879DF00D1124EE5FFE4F668177816B5440
:103300007D4FCE0101960E940E35F50160817181DD
:10331000828193810E94320864367105810591058E
:1033200040F4B701C8010E94E3089981891709F4A4
:103330004FC0082C000C9908C4010E940334892B4B
:1033400091F0B12C8B2D0F90DF91CF911F910F91A8
:10335000FF90EF90DF90CF90BF90AF909F908F90B5
:103360007F906F9008958AE0889DF001899DF00D0F
:103370001124EE5FFE4F458150E0E416F50608F497
:10338000A7018AE0889DF001899DF00D1124EE5F70
:10339000FE4F668177816B547D4FC6010E940E35CA
:1033A000B701C8010E94E30899818913CACF0E941E
:1033B0004E08F5016083718382839383BB24B394A9
:1033C000C1CFB12CA701B801C6010E940E35BACFFA
:1033D000BB24B394F7CFCF92DF92EF92FF920F937B
:1033E0001F93CF93DF9300D000D00F92CDB7DEB7FD
:1033F0006B0185E0E82EF12C06EB12E09E012F5FB9
:103400003F4F4DEA52E061E080E00E944919882375
:1034100049F095E0FE013196A8EAB2E001900D92E4
:103420009A95E1F795E0E8EAF2E0D60101900D9275
:103430009A95E1F70F900F900F900F900F90DF91FA
:10344000CF911F910F91FF90EF90DF90CF90089553
:1034500090E080E00E942535893E9E4F11F40C9447
:10346000CF1080E008951F920F920FB60F92112493
:103470002F933F934F935F936F937F938F939F937C
:10348000AF93BF93CF93DF93EF93FF93D091E90076
:10349000DF708091EC00C82FC17080FDC0E81092F1
:1034A000E9008091F000877F8093F00078940E947B
:1034B000B7111092E9008091F00088608093F000CD
:1034C000CD2BCF70C093E900FF91EF91DF91CF91A9
:1034D000BF91AF919F918F917F916F915F914F912C
:1034E0003F912F910F900FBE0F901F9018951F9234
:1034F0000F920FB60F9211242F933F934F935F9328
:103500006F937F938F939F93AF93BF93EF93FF93AB
:103510008091E10082FF09C08091E20082FF05C036
:103520008091E1008B7F8093E1008091DA0080FF41
:1035300024C08091D80080FF20C08091DA008E7F67
:103540008093DA008091D90080FF9DC080E189BD21
:1035500082E189BD09B400FEFDCF81E08093800344
:1035600080917203811109C00E94A4060E946F0716
:103570008091E20084608093E2008091E10080FF0E
:1035800017C08091E20080FF13C08091E2008E7F1F
:103590008093E2008091E20080618093E20080915C
:1035A000D80080628093D80019BC85E080938003A6
:1035B0008091E10084FF2BC08091E20084FF27C04E
:1035C00080E189BD82E189BD89B5982F917080FF26
:1035D000FBCF8091D8008F7D8093D8008091E1004F
:1035E0008F7E8093E1008091E2008F7E8093E200E5
:1035F0008091E20081608093E200809181038823C2
:1036000009F447C084E08093800380918003809117
:10361000E10083FF27C08091E20083FF23C08091F7
:10362000E100877F8093E10082E080938003109225
:1036300081038091E1008E7F8093E1008091E20020
:103640008E7F8093E2008091E20080618093E200AF
:1036500042E060E080E00E943D078091F0008860D9
:103660008093F000FF91EF91BF91AF919F918F9167
:103670007F916F915F914F913F912F910F900FBE6E
:103680000F901F90189519BC10928003109272032E
:1036900074CF8091E30087FD93E090938003B5CFD2
:1036A00078941F921FB61F9211248F939F93AF930C
:1036B000BF9380916B0390916C03A0916D03B091C7
:1036C0006E030196A11DB11D80936B0390936C0353
:1036D000A0936D03B0936E03BF91AF919F918F91B3
:1036E0001F901FBE1F9018959C014FB7F8948091B2
:1036F0006B0390916C03A0916D03B0916E034FBF6B
:10370000821B930B08952FB7F89480916B039091CF
:103710006C03A0916D03B0916E032FBF0895AF921B
:10372000BF92DF92EF92FF920F931F93CF93DF939D
:10373000CDB7DEB761970FB6F894DEBF0FBECDBF31
:103740004C87888B998BE52ED62EF72E5E0127E0CD
:10375000A20EB11C85E0F50111928A95E9F78091DE
:103760004D038A3008F095C080914B0390914C0333
:103770000E94741B089708F48CC004E610E025E052
:1037800030E0A50164E084E10E944232892B09F017
:10379000DEC010924D038B8587FDD1C0E894E0F820
:1037A0008091490390914A03009709F0C2C08F812C
:1037B0009885891708F091C0981B892F41E02091C6
:1037C000710130917201889FC001112455E0589F0A
:1037D000F001599FF00D1124E29FB001E39F700D9D
:1037E000F29F700D1124660F672F661F770B71957E
:1037F000442319F071956195710980914703909167
:103800004803680F791F89859A85891708F068C071
:10381000981B892F41E0889FC001112455E0589FD3
:10382000F001599FF00D1124E29FC001E39F900D1C
:10383000F29F900D1124880F892F881F990B919565
:10384000442319F091958195910920914503309178
:103850004603820F931F603871050CF444C06F5704
:10386000710970934803609347033FE7D32E803874
:1038700091050CF44BC08F579109909346038093A8
:1038800045039FE7F92E0E94831B90934C0380937E
:103890004B03ED86DE86FF8686E0FE013C96DE0168
:1038A000119601900D928A95E1F729813A814B8119
:1038B0005C816D817E8180E090E061960FB6F89426
:1038C000DEBF0FBECDBFDF91CF911F910F91FF9053
:1038D000EF90DF90BF90AF900895891B40E06FCFCD
:1038E000891B40E098CF6138FFEF7F074CF46158A7
:1038F0007F4F709348036093470321E8D22EB7CFE0
:10390000D62E1092480310924703B1CF81382FEF83
:1039100092074CF481589F4F909346038093450340
:1039200081E8F82EB0CFF82E10924603109245038E
:10393000AACF019790934A0380934903A4CF689438
:10394000E0F884E00E94691584E190E0F3CF809173
:103950004D038F5F80934D0396CF5F926F927F925E
:103960008F929F92AF92BF92CF92DF92EF92FF928F
:103970000F931F93CF93DF9300D000D00F92CDB75A
:10398000DEB77C01FC0183819481892B31F0808139
:10399000918189238F3F09F0DDC60F900F900F9022
:1039A0000F900F90DF91CF911F910F91FF90EF90AB
:1039B000DF90CF90BF90AF909F908F907F906F904F
:1039C0005F9008950E946D10182F682F89819A8149
:1039D0000E94BB0B69817A81812F0E9460108C014B
:1039E000F7018281882361F0F801E65EFC45ED3045
:1039F000F10530F4E655F94C0C94EB340E94C417F1
:103A0000D0906003D0FE1CC08D2D86958370F70189
:103A10009281992309F460C1823090F4B701C80102
:103A20000E948608882361F0D694D694D69480911B
:103A3000610383708295880F807E8D290E946915AD
:103A4000F7018281882309F47AC6C80182519F4513
:103A5000409708F036C68FEF93E00E941735025169
:103A600093EEA92E92E0B92E811197CF011138C1A2
:103A70001C821B82662463948AE0582E85010F5FA6
:103A80001F4FC5010E94173589831A82882309F4C4
:103A900084CF9FEF980F933008F031C18A836982F9
:103AA00032E0A30EB11CC8010E9417358B83882316
:103AB00009F473CF8E010F5F1F4FF801208122237D
:103AC000E9F2213009F055C191818281913009F0EC
:103AD00018C10E5F1F4F6AE070E0893311F460E592
:103AE00070E00E94F30E13C10E94B51789CF809138
:103AF000600380FF0DC00E94B51760916003709154
:103B0000610380916203909163030E94781778CFDC
:103B10000E94C417F2CF0E94A31772CF9091600346
:103B2000892F86958F5F8370880F997F892B80936B
:103B30006003982F9670963001F7897F8093600319
:103B4000DCCF90916103892F8B7F92FF84608093FB
:103B50006103D3CF80916003982F969596959695A3
:103B60008091610383708295880F807E892B8C37CA
:103B700098F48F5F282F220F220F220F909160035D
:103B80009770922B909360038295869583709091A5
:103B900061039C7F892BDBCF81E0ECCF80916003B8
:103BA000982F96959695969580916103837082954E
:103BB000880F807E892B11F08150DCCF8BE7DACF24
:103BC00030916103932F9695969596952091620377
:103BD000822F83708295880F807E892B90E00196DA
:103BE000482F440F440F440F3770342B3093610338
:103BF00035E0969587953A95E1F783702C7F822B77
:103C0000809362037ACF30916103932F96959695B6
:103C1000969520916203822F83708295880F807E13
:103C2000892B8150990BDCCF8091620382FF12C0F7
:103C30008B7F809362036091600370916103809138
:103C40006203909163030E94781760E081E00E9414
:103C50005D15D6CE8460809362036091600370919D
:103C6000610380916203909163030E94781760E082
:103C70008CE00E945D1564E182E00E945D1565E0C4
:103C800081E00E945D1561E08CE0E1CF80916203EC
:103C9000982F969596959695809163038295880FB7
:103CA000807E892B883720F4865F0E947E17A8CEFD
:103CB00088E7FBCF80916203982F9695969596950D
:103CC000809163038295880F807E892B843110F068
:103CD0008A50EBCF84E1E9CF882309F4B1CE9ECEA0
:103CE000A114F4E0BF0609F458CEC5010E941735AF
:103CF000811101C001502FEFA21AB20AB7CE5801AC
:103D0000D9CE923039F40E5F1F4F0E94470C0F5FDF
:103D10001F4FD3CE933029F40E5F1F4F0E940E0C1D
:103D2000F6CF943019F00F5F1F4FF1CF0E5F1F4F8A
:103D300030E020E0B8016F5F7F4FF8014181805390
:103D4000990B8A30910550F02150310900F38FE929
:103D50009FE00197F1F700C00000F6CF529EF001FE
:103D6000539EF00D11249C012E0F3F1F842F8B01B9
:103D7000E1CFE22FF0E0E754FE4F7490822F86955A
:103D80008695869590E0FC01E755FE4FE4902770FC
:103D9000F12C022E02C0F594E7940A94E2F7E1E0D8
:103DA000EE22FF24FC01E756FE4FC490D12C022ED8
:103DB00002C0D594C7940A94E2F7F1E0CF22DD2443
:103DC000FC01E757FE4F8490912C02C09594879494
:103DD0002A95E2F721E082229924E114F10419F0F6
:103DE00081EE0E94470CC114D10419F086EE0E94A6
:103DF000470C39E36AE070E0731202C060E570E0DE
:103E0000872D0E94F30ECD2819F086EE0E940E0C2D
:103E1000EF2819F081EE0E940E0C892809F477CF63
:103E20006AE070E08CE25DCE81E00E94A41603C0DF
:103E300081E00E9498160F900F900F900F900F90B6
:103E4000DF91CF911F910F91FF90EF90DF90CF9076
:103E5000BF90AF909F908F907F906F905F900C94E9
:103E60008D1682E0E2CF003E110509F457C008F03C
:103E70004DC00C32110509F487C1F70192819111EF
:103E800086C28091730382720A3CFCE51F0709F425
:103E90005EC208F0B4C1053C3CE5130709F443C217
:103EA00008F098C1033C5CE5150709F41DC208F051
:103EB00035C2023C1C4509F4C7C1F70100811181DC
:103EC000992309F47EC2C8010E946D10D82E682F74
:103ED000C8010E94BB0BB8018D2D0E9460100E948A
:103EE000080A182FB82EF70122814581342F329508
:103EF0003F70892F82958F70C82ED12C8C3008F09E
:103F000098C2F601E954F94C0C94EB34013E1105CA
:103F100009F4A5C0043E110509F0AFCF882309F4C8
:103F200030C181E08093F20280918A030E94BB0C31
:103F3000813009F0A2CF83E30E9469159ECF033838
:103F4000FFE51F0709F46EC060F5053F110509F490
:103F500014C140F4043F110509F08FCF61E00E94C5
:103F6000CC0C8BCF063F110509F409C102383FE59F
:103F7000130709F082CF882309F47FCF81EE0E94D6
:103F8000470C83EE0E94470C8FE40E94470C8FE49D
:103F90000E940E0C83EE0E940E0C81EE0E940E0C0D
:103FA0006CCF05384FE5140709F4B5C008F45AC0C2
:103FB00006389FE5190709F4C6C00738EFE51E0764
:103FC00009F05BCF882309F4E8CC87E20E94470C14
:103FD000FFEF28EA31E0F15020403040E1F700C027
:103FE00000008CE20E94470C87E20E940E0C8BE1DD
:103FF0000E94470C4FEF50EE80E04150504080400F
:10400000E1F700C000008CE20E940E0C8BE10E94E0
:104010000E0C40E56FEF84EB0E943D1681E080932B
:104020003E02BBCC882309F428CF81EE0E94470CC6
:1040300083EE0E94470C80E50E94470C80E5A8CFE4
:10404000809342021093410200934002882321F0A2
:1040500081E08093F30211CF1092F3020ECF809390
:104060003F02F0CF882379F180913F02882349F005
:10407000809140020E940E0C80EE0E94470C8AE262
:104080000CC0809142028823D1F3809140020E94AB
:104090000E0C80EE0E94470C8CE40F900F900F9056
:1040A0000F900F90DF91CF911F910F91FF90EF90A4
:1040B000DF90CF90BF90AF909F908F907F906F9048
:1040C0005F900C94470C8AE20E940E0C8CE40E94D4
:1040D0000E0C80EE0E940E0C80913F02811105C0F3
:1040E00080914202882309F458CC80914002D5CFB8
:1040F000882309F4C2CE80913E02882309F4BDCE04
:104100000E94831B9093A1028093A00210923E0212
:1041100010920101B2CE882309F420CF8091700162
:10412000811104C080910001882339F01092700140
:10413000109200010E94280FA0CE81E080937001B0
:1041400080930001F7CF882309F408CF80913D02C6
:10415000882349F080EE90E0909372018093710182
:1041600010923D02E7CF86E690E090937201809333
:10417000710181E080933D02DDCF62E0F0CE64E02A
:10418000EECE1092F20279CE882331F081E0809356
:10419000F5021092680171CE1092F5026ECE88235E
:1041A00049F080918A030E94BB0C813019F482E3AC
:1041B0000E946915F7018281882309F4B2C28091B7
:1041C0008A030E94BB0C813009F0ABC284E30E94D9
:1041D0006915A7C2073C2CE5120709F4AEC008F424
:1041E000A7C0083C4CE5140709F4ACC0093C1C45C9
:1041F00009F063CE4FEA56E16BEB76E179C0043DFE
:10420000ECE51E07A8F40E3CFCE51F0708F0C5CB43
:104210000C3C2CE5120709F49FC041EF56E162E027
:1042200077E10D3C1C4508F463C061E081E046C0C5
:10423000053D4CE5140709F4B0CB08F492C00D35E8
:104240001D4509F4AACB39CE8091690480FF31C0A5
:104250008E7F809369046091690470916A048091F3
:104260006B0490916C040E947815809150038160DA
:10427000809350039FEFE0E7F2E09150E040F04080
:10428000E1F700C000000F900F900F900F900F907B
:10429000DF91CF911F910F91FF90EF90DF90CF9022
:1042A000BF90AF909F908F907F906F905F900C9495
:1042B0008B0D81608093690461E086950F900F906B
:1042C0000F900F900F90DF91CF911F910F91FF9062
:1042D000EF90DF90CF90BF90AF909F908F907F90A6
:1042E0006F905F900C9413174EE357E167E477E10A
:1042F0000F900F900F900F900F90DF91CF911F9123
:104300000F91FF90EF90DF90CF90BF90AF909F9074
:104310008F907F906F905F900C94F90847E457E17D
:104320006EE377E1E5CF4FED56E168EE76E1E0CF61
:1043300048EE56E16FED76E1DBCF47EC56E163EDF9
:1043400076E1D6CF43ED56E167EC76E1D1CF4BEB8A
:1043500056E16FEA76E1CCCF42E057E161EF76E1DA
:10436000C7CF0F900F900F900F900F90DF91CF91CC
:104370001F910F91FF90EF90DF90CF90BF90AF9083
:104380009F908F907F906F905F900C9451170E3D8F
:104390001C4509F092CD0F900F900F900F900F9049
:1043A000DF91CF911F910F91FF90EF90DF90CF9011
:1043B000BF90AF909F908F907F906F905F900C9484
:1043C000DA17C8010E94930BD82E85CD092F0F70E4
:1043D000907F11F00295007F812F2223C9F00023E6
:1043E00069F090E2910F983010F011110BC080919C
:1043F0007303082B009373030E94720B812F0E949A
:10440000470C17C080919702082B00939702F4CFB6
:104410000E940E0C002369F00095105E183010F019
:10442000B11027C0809173030823009373030E9487
:10443000720B98E0C91AD108E4E0CE16D10408F056
:10444000ACCA0E94E30E0F900F900F900F900F9048
:10445000DF91CF911F910F91FF90EF90DF90CF9060
:10446000BF90AF909F908F907F906F905F900C94D3
:104470004B0E80919702082300939702D8CF892F83
:104480008F70907F903211F08295807FF1E0BF12A3
:104490000CC0222329F0333060F60E94040CC9CFEF
:1044A000323038F60E94F90BC4CF222341F0332377
:1044B000A1F340FFA3CF4F70F7014583EECF332325
:1044C00089F3193309F0F5C0FFEF27EE33E0F1501F
:1044D00020403040E1F700C00000812F0E940E0C08
:1044E000A8CF892F86958695837061F0813009F079
:1044F000A0CF812F9370211102C090E080E00E9434
:104500005A0897CF812F9370211102C090E080E06C
:104510000E9470088ECF892F8370A1F5211189CF59
:10452000812F829586958770880F880F412F4F7055
:10453000082E01C0440F0A94EAF7212F207114FFBE
:1045400007C02FE030E001C0220F8A95EAF72095DE
:10455000969596959370923081F0822F842B9330AC
:1045600030F480919802913029F0242B82230E940C
:10457000F50B5FCF842B822BFACF242B80919802EE
:104580008227F5CF8695222311F0892F8170882309
:1045900009F44FCF812F829586958770880F880FF9
:1045A000412F4F70082E01C0440F0A94EAF7212FC3
:1045B000207114FF07C02FE030E001C0220F8A9560
:1045C000EAF72095969596959370923081F0822F18
:1045D000842B933030F480918A03913029F0242B7E
:1045E00082230E94871625CF842B822BFACF242B7F
:1045F00080918A038227F5CF092F0F70222329F09B
:10460000802F0E94A416812F48CF812F0E94F90B82
:10461000802F0E9498160DCF812FE1EF1E1789F190
:10462000E11750F0F0EF1F17B9F02223B1F131116B
:10463000E5CE892F8F7129C042EF141749F153EF4E
:104640001513F3CF80E0222361F29F7181E001C056
:10465000880F9A95EAF7C5CF222379F0323008F017
:10466000E8CE292F2F7181E090E001C0880F2A95B4
:10467000EAF790918A038927B4CF333008F0D9CE76
:10468000F0CF892F8F71222321F20E94A416D1CE60
:10469000892F8F712223C9F3BCCF332379F089335B
:1046A00041F48FEF97EEE3E081509040E040E1F776
:1046B00012CF8FE39CE90197F1F70DCF892F8F710E
:1046C000A8CF0031FFE51F0709F4AECB01312FE57C
:1046D000120709F4C6CB0E944E086093FA02709349
:1046E000FB028093FC029093FD02F7018281053E5C
:1046F000110509F4A5CC08F022CC0132110508F00F
:10470000B2CB0E31110508F0F3CC0A30110509F4D3
:1047100046CD0531110509F44DCD0930110509F0DB
:10472000ACCBF7018281882309F4A7CB80918A035F
:104730000E94BB0C813009F0A0CB81E3FDCB00319E
:104740003FE5130709F474CB01314FE5140769F60F
:1047500082E06FCB85E0DE01119601900D928A9583
:10476000E1F7F701228189819A8121112BC90E94E9
:10477000930B182F2FC91F93CF93DF938091630260
:10478000807FA9F480916002882389F0809195024E
:10479000D091640260915E0270915F02A09161020B
:1047A000B0916202C62FC72316E0D81304C0DF9170
:1047B000CF911F91089590E0109711F0CF3F19F419
:1047C00001968770F2CF189F9001199F300D112428
:1047D000F901EB59FD4F41814713F2CF4081461358
:1047E000EFCF42814111ECCF438154814A1B5B0BD7
:1047F000403A510528F7809163028F708061809361
:104800006302F901E659FD4F80818F7080618083DA
:104810008EE592E00E94AD1CDF91CF911F910C9428
:10482000890BAF92BF92CF92DF92EF92FF920F93DC
:104830001F93CF93DF93CDB7DEB761970FB6F89490
:10484000DEBF0FBECDBF8C0185E0F801DE011D96F5
:1048500001900D928A95E1F7F801E2808EE5A82E8D
:1048600082E0B82E6091610270916202611571055B
:1048700009F432C190915E0240915F02892F842336
:104880008F3F09F429C120813181C380D480F09009
:104890006002F601E61BF70BFF2009F4E8C08091E7
:1048A0006302582F507FE03AF10508F0ABC0511178
:1048B00077C0FE2C431321C092131FC0E1101DC00E
:1048C0008F70806180936302C5010E94AD1C80914E
:1048D0006302F80185838F2D61960FB6F894DEBFD1
:1048E0000FBECDBFDF91CF911F910F91FF90EF9041
:1048F000DF90CF90BF90AF900895CD2829F0822F00
:1049000083238F3F09F003C180E0F82FF170DF2E81
:1049100080FF3CC0809195024091640256E0841370
:1049200015C02D873E878D859E850E949C10292F5E
:1049300022952F702230F0F0243018F59F70F1F09E
:10494000F8019581907FD1F4D12C1EC090E0589F42
:10495000F001599FF00D1124EB59FD4F6181361381
:1049600006C06081261303C06281E6120FC0019663
:104970008770D5CF9F7011F0882331F3805E883027
:1049800018F3C8010E94AD1CFD2CA5CFEE2009F440
:10499000A2CF80916302816080936302F12C9BCF50
:1049A000431306C0921304C0F801EE2009F479C045
:1049B000C8010E94A810882309F1EE20F9F0809127
:1049C0006302803270F020915E0230915F0238877E
:1049D0002F831986DB86CA868C87CE0107960E94B4
:1049E000AD1C86E0F801AEE5B2E001900D928A952B
:1049F000E1F70E94BB23FF24F3946DCFC8010E940E
:104A0000AD1CF9CF51110AC08EE592E00E94AD1C99
:104A100086E0F50111928A95E9F7C0CF43130FC0E4
:104A200092130DC0E1100BC0F8018583C8010E94EC
:104A3000AD1C86E0F50111928A95E9F74CCFC801CB
:104A40000E94A8108823D1F2EE20C1F28091630267
:104A5000803238F220915E0230915F023A832983DE
:104A60001B82DD82CC828E83CE010196B8CFE03AE4
:104A7000F105F8F6FE2CEE2009F243131FC0921345
:104A80001DC08091630280FD10C0982F907F69F057
:104A9000F8018583903F31F0982F907F905F8F7061
:104AA000892B8583C8010E94AD1C86E0F801AEE524
:104AB000B2E001900D928A95E1F70DCFC8010E94F6
:104AC000A81081118ECF8091630281608093630270
:104AD000C8010E94AD1CFFCEEE2009F48FCFC801A3
:104AE0000E94A810F82E882309F488CF86E0F801E8
:104AF000AEE5B2E001900D928A95E1F780915E02F9
:104B000090915F020E949C100E94BB23E4CE81E042
:104B10008E25FBCE1F93CF93DF93CDB7DEB767977C
:104B20000FB6F894DEBF0FBECDBF4B8B5C8B6D8B89
:104B30007E8B8F8B6111109297021A8A198A85E0F9
:104B4000FE017396DE011D9601900D928A95E1F7A4
:104B500086E0FE013D96DE01179601900D928A9542
:104B6000E1F7CE0107960E941124882389F016E010
:104B7000809195029091640289134BC067960FB69D
:104B8000F894DEBF0FBECDBFDF91CF911F91089586
:104B900086E0FE013796DE01119601900D928A950E
:104BA000E1F78A859B85892B11F38F81988589236D
:104BB0008F3FE9F22091640230E0C90101968770CD
:104BC0009927409195024817190681F410927303B2
:104BD0000E94AE11109264021092950286E0EEE5FA
:104BE000F2E0DF011D928A95E9F7C1CF96E0929F2E
:104BF000D001939FB00D1124AB59BD4FFE013196EA
:104C000001900D929A95E1F7809364020E94890BBE
:104C1000AECF819FC00111248B599D4F0E9411245A
:104C2000882309F4ABCF8091950290E001968770BC
:104C30009927809395029CCF7F928F929F92AF92FB
:104C4000BF92CF92DF92EF92FF920F931F93CF9379
:104C5000DF93CDB7DEB764970FB6F894DEBF0FBE13
:104C6000CDBF8E010F5F1F4F8AE0D8011D928A953C
:104C7000E9F79FE4C92E91E0D92EF12CE12CAA246A
:104C8000A394B12C3FE4832E31E0932EF601819161
:104C90006F018F3F09F443C0F894E82FE295EF705D
:104CA000F0E021A18F70A50102C0440F551F8A9525
:104CB000E2F7CA01922F982B91A392A180958923A4
:104CC00082A30E94AC0900C0E8E4F1E0712C31E05D
:104CD00021912F3F09F479C0A22FA295AF70B0E0C7
:104CE00090968C9190E02F7002C0959587952A95AB
:104CF000E2F780FD6AC0832F782A330F8E169F0655
:104D000039F7F601319780818F3F11F00E94AE098B
:104D100050EA5A95F1F7F801EE0DFF1D70828FEF02
:104D2000E81AF80AA5E0EA16F10409F0AFCF4AE064
:104D300050E0B8018DED92E00E9401357C01892B95
:104D400041F08AE0F801ADEDB2E001900D928A9554
:104D5000E1F71091E802E114F104C9F181E08093D8
:104D60009B020E94831B90939A02809399028091E8
:104D7000990290919A020E94741B069770F0ADED13
:104D8000B2E0E12FF0E0E15DFC4F8D91819322E0F4
:104D9000A23EB207D1F710929B0281E090E0EF288B
:104DA000D1F064960FB6F894DEBF0FBECDBFDF9191
:104DB000CF911F910F91FF90EF90DF90CF90BF9018
:104DC000AF909F908F907F90089580E095CF8091D5
:104DD0009B028111CCCF0E94C00ED82EE091E80238
:104DE000882309F4E1C07E0140E1E40EF11C85E076
:104DF000D7011D928A95E9F70E2F10E0015D1C4F37
:104E00008091D6028A3008F098C04BEE59E1B70184
:104E1000C8010E947C0E882309F4B2C042EA58E21D
:104E2000B701C8010E947C0E882309F4A9C04FE392
:104E300058E1B701C8010E947C0E882309F4A0C084
:104E40004EE059E1B701C8010E947C0E882309F4A5
:104E500097C04CEE58E1B701C8010E947C0E882330
:104E600009F48EC01092D6028091E70290E045E0EE
:104E700050E0B701815D9C4F0E94013521E02093F5
:104E8000A602892B09F06FC0D12C809101018111FC
:104E900014C08091A0029091A1020E94741B813ADB
:104EA0009F4058F040E56FEF8CEF0E943D1681E087
:104EB000809301018CE00E9469158EE9E82E82E062
:104EC000F82E10E000E0D7018D917D018823D1F00C
:104ED0008695F80109F465C0E850FE4F8081918104
:104EE0009C878B871D860E94831B8160782F9F87FC
:104EF0008E87F701319710824B855C856D858F8594
:104F00000E948A250E5F1F4F04301105E1F6609163
:104F1000FA027091FB028091FC029091FD020E94C6
:104F2000320861367A4E8105910528F040E060E054
:104F300080E00E94080F8D2D34CF80919C029091CB
:104F40009D020E94741B843F914008F05ECF8091C7
:104F5000A602882309F498CF85E0F70111928A957B
:104F6000E9F71092A602A091E702B0E0A15DBC4F64
:104F700085E0FE01709601900D928A95E1F785CF4C
:104F80008091D6028F3F31F08F5F8093D6028A30B6
:104F900008F46ACF0E94831B90939D0280939C0229
:104FA000D6CFEC50FE4F9ACFF0E0E15DFC4FF89485
:104FB00085E0A6EBB2E001900D928A95E1F765E0FD
:104FC00070E086EB92E00E94E3088093B5020E94B5
:104FD000AC09F894E091F002F0E0E351FD4F8081DC
:104FE0008B878093BC0261E070E0CE010B960E943B
:104FF000E3088093BB020E94AC09F894C090BD0204
:10500000D090BE02E090BF02F090C0028091A20258
:105010009091A302A091A402B091A502C816D9064E
:10502000EA06FB06D1F0C092A202D092A302E0925F
:10503000A402F092A5020E94C00E81110EC00E942F
:105040004E08C61AD70AE80AF90AC092D702D092C7
:10505000D802E092D902F092DA020E94AC09F894E8
:105060008091C8028823F1F080FF0DC08091C102B9
:1050700080FF25C09091690491609093690460E07D
:1050800086950E9413178091C80281FF09C020E015
:105090004091C4026091C3028091C2020E948A15AD
:1050A0001092C8020E94AC09F8948091C90288232A
:1050B00049F00E94860F0E94AC0980E072CE0E94E7
:1050C000670EE1CF0E946B0FF6CFEF92FF920F9326
:1050D0001F93CF93DF9300D000D00F92CDB7DEB7F0
:1050E000162FE82EF12CC701880F991F662339F17E
:1050F00088509E4FFC01808191819A83898301E0D1
:105100000B830E94831B8160782F9D838C83F70122
:10511000E256FD4F0127110F102B108349815A8150
:105120006B818D810F900F900F900F900F90DF91FA
:10513000CF911F910F91FF90EF900C948A258C5086
:105140009E4FD8CFCF92DF92EF92FF920F931F9393
:10515000CF93DF930F92CDB7DEB7EE24E394F12C1B
:105160000CEB12E09E012F5F3F4F41EB52E063E0FA
:1051700082E00E944919082F882321F1C090EA0299
:105180008C2D90E09C0123513D4F79011981F9014B
:105190008081181BD12E80E00AC0DA94F70180814B
:1051A0008F5F808360E08C2D0E946528802F1D1406
:1051B000A4F3912F17FD90E0191B11110EC081115E
:1051C0000E94700B802F0F90DF91CF911F910F9154
:1051D000FF90EF90DF90CF9008951F5FF7018081DF
:1051E0008150808361E08C2D0E946528802FE5CF5F
:1051F0001F921FB61F9211248F939F93AF93BF935B
:1052000080916A03811113C080916B0390916C03AC
:10521000A0916D03B0916E034196A11DB11D8093C5
:105220006B0390936C03A0936D03B0936E03BF91D7
:10523000AF919F918F911F901FBE1F901895CDB772
:10524000DEB7E0970FB6F894DEBF0FBECDBF84B7D0
:10525000877F84BF0FB6F894A8958091600088611D
:1052600080936000109260000FBE80E890E00FB65F
:10527000F89480936100909361000FBE85B78068B9
:1052800085BF85B7806885BF8AEA99E0909333022D
:10529000809332020E94A4060E946F078091E20070
:1052A00084608093E2007894809180038823A1F049
:1052B0001091E9001F709091EC00892F817090FD92
:1052C00080E8182B1092E9008091E80083FD0E948D
:1052D000B7111F701093E90082E084BD93E095BD83
:1052E0009AEF97BD80936E001092D7021092D80269
:1052F0001092D9021092DA020E94CF10811102C0DE
:105300000E942B100E94C00E809359018091590178
:10531000882309F4C9C01092730185E28093740157
:105320000E94C00E81110E94F632809159018111B4
:105330002FC0FE01359686E0DF011D928A95E9F7C0
:1053400086E6898387E98A8386EC8B8384E38C8372
:1053500085E38D833497AFE4B1E0CE010B962191C4
:105360002D938E179F07D9F787E0E9E7F1E0DE017B
:10537000919601900D928A95E1F7FE01B196A8E40D
:10538000B1E0CE01889621912D938E179F07D9F712
:105390008091590195E0811190E09093E80285E0B9
:1053A000891B8093E7020FE411E084E5E82E81E099
:1053B000F82EF80181918F018F3F11F00E94AE0904
:1053C000E016F106B1F708E411E0BFE4EB2EB1E01E
:1053D000FB2ED8018D918D018F3F11F00E94AE09F7
:1053E000E016F106B1F78AE0EFE2F3E0DF01282FE3
:1053F0001D922A95E9F7EDEDF2E0DF011D928A9505
:10540000E9F70E94281A811102C00E94DA1782E08F
:1054100090E00E9417358093240384E090E00E947E
:105420001735182F82E290E00E941735982F812FB0
:105430009093DC028093DB020E941C26EFE7FBEBDB
:105440003197F1F700C000000E941C2680912F03C5
:1054500080FF2EC06FEF7FEF90E080E00E94493523
:1054600081E08093E00080E28093D8001092C90030
:105470008FE19EE40197F1F700C0000087E090EB18
:10548000DC018093720690937306A0937406B09328
:10549000750688E19CE00FB6F894A89580936000AB
:1054A0000FBE90936000FFCF85E28093730136CFEB
:1054B00083E090E00E9417350E94F50B80918A03EB
:1054C0000E9440160E94281A811102C00E94DA1719
:1054D00088E190E00E941F35609360037093610340
:1054E0008093620390936303672B682B692B11F4FD
:1054F0000E94A3170E94F73067E081E00E945D15CB
:1055000065E586E10E945D1563E687E10E945D1511
:1055100060EA8AE10E945D1569E98BE10E945D15F0
:1055200065EF8CE10E945D1560EA8DE10E945D15DA
:1055300060E38EE10E945D1566E083E00E945D15E8
:1055400061E08CE00E945D1560E081E00E945D15E5
:1055500060E08CE00E945D156FE084E00E945D15C4
:1055600061E08CE00E945D150E94C00E811102C0B6
:105570000E94F93283E080931F0380E280935303FB
:105580000E94F7306DE070E08CE492E00E943B0FE7
:10559000892BE9F580911F0363E070E081FD05C26E
:1055A00089E492E00E943B0F892B89F56DE070E061
:1055B00089E392E00E943B0F892B49F50E944E0837
:1055C0006058774C8E4F9F4F60935A0370935B03E4
:1055D00080935C0390935D03E0E7F4E080E092E069
:1055E000DF019C011D9221503040E1F7F0937106DC
:1055F000E09370068FEF9FEF90936F0480936E049B
:1056000081E080935F0380935E031092200380917A
:10561000E902811136C00E94281A811104C00E943B
:10562000DA170E94601788E090E00E941F356093AF
:10563000690470936A0480936B0490936C04809166
:1056400050038360809350036E7F71F40E94601753
:1056500088E090E00E941F356093690470936A04AB
:1056600080936B0490936C040E94FE0880916904FF
:1056700080FF04C060E086950E94131781E080934C
:10568000E90280915901811106C084EF809367017E
:1056900085EF8093660120916701A22FA295AF70DC
:1056A000B0E091963C9191972F7081E090E0BC0121
:1056B000022E01C0660F0A94EAF7462F4095432355
:1056C00091964C93919792963C919297362B929605
:1056D0003C93929740916601E42FE295EF70F0E0E1
:1056E00031A14F70042E01C0880F0A94EAF7982F59
:1056F0009095932391A392A1892B82A390968C914C
:1057000090E002C0959587952A95E2F7817020A1D7
:1057100030E002C0359527954A95E2F792E020FFE8
:1057200090E0892B8093F1029091590181E09827B4
:105730009093F002891B8093EA020E94D31760E0E5
:105740008AE00E94131781E00E94871680EE90E0A5
:1057500090937201809371010E94280F8AE591E075
:105760009093670380936603A0E46A2E8091800380
:10577000FF24F39400E112E1853009F465C10E9431
:105780001C26E82E81110E944E08FFE22F2EF3E026
:105790003F2EE5E2F3E0D10110E000E0B02EDD9015
:1057A00081918D1509F474C18D25C12CFF24F394CA
:1057B000982F9F2109F467C10E94C00E882399F099
:1057C000C9A2BAA2DF2081E009F480E08BA30E9485
:1057D000831B8160782F9DA38CA349A15AA16BA143
:1057E0008DA10E948A25F801EB5DFC4F8081F8268F
:1057F000F0828091F102E82FEE0FEE0F9091670199
:10580000A92FA295AF70B0E090962C9130E09F70D8
:1058100002C0359527959A95E2F72170332790912C
:105820006601A92FA295AF70B0E090964C9150E020
:105830009F7002C0559547959A95E2F7CA0181700D
:10584000992740FF02C082E090E0822B8E2B80934C
:10585000F1021091F0028F70E82FF0E0E250FE4F5D
:1058600080819091EF02890F8093EF02F12C8430B8
:105870006CF0E12FF0E0E351FD4F80818F5F80837A
:1058800060E0812F0E946528FF24F3948091EF024D
:105890008D3F6CF4E12FF0E0E351FD4F80818150AA
:1058A000808361E0812F0E946528FF24F39480911A
:1058B000EF02082E000C990B64E070E00E94D734D0
:1058C0008093EF02F1100E94700B80915F03882398
:1058D00051F180912103909122030E94741BC29781
:1058E00008F0EDC020916E0430916F042115310550
:1058F00009F0F0C180915E038823A9F00E944E0850
:1059000000915A0310915B0320915C0330915D0379
:10591000601B710B820B930B6F3F7F4F8F4F9F4725
:1059200010F40E946B0FE11001C0F1100E94860F6D
:105930000E94E8100E94E30E90912303891731F032
:105940000E94E30E809323030E944B0E80918003FC
:10595000843009F00BCF83E08093E9008091E80068
:1059600082FF04CF8091E80090E085FF0CC00E9488
:10597000C30630E2E32EF12C8E010F5F1F4F882308
:1059800009F487C291E08091E8008B778093E8006A
:10599000992309F4EBCEE981E150E33108F0DDC24F
:1059A000F0E0ED53F94C0C94EB3486E492E0FACD40
:1059B00080918003843009F437C080E00E944B0E50
:1059C0008091EC02811109C0F092EC02809169048F
:1059D00081708093EB020E94670E0E946B0F0E9401
:1059E000E81010926A0388E190E00FB6F894A89549
:1059F000809360000FBE6092600083B7817F8460F7
:105A000083BF83B7816083BF7894889583B78E7F87
:105A100083BF0FB6F894A895809160008861809349
:105A20006000109260000FBE80917F03882361F0B8
:105A30000E941C26EFE2F3E081918111B7C3A9E334
:105A4000B3E0AE17BF07C1F780918003853009F43A
:105A5000AFCF109273030E94AE110E94E30E0E941A
:105A60004B0E1092EC028091EB02882349F080915A
:105A7000690481608093690460E086950E94131731
:105A80000E94280F7CCEC394FF0C27E0C21290CE58
:105A90000F5F1F4F0A30110509F080CE8FEF88A7E6
:105AA00089A71AA60E94831B8160782F9CA78BA7C9
:105AB00048A559A56AA58CA50E948A259ACE0E9460
:105AC000831B909322038093210360E080E00E9477
:105AD000CC080E94E30E8093FE020E94C00E882331
