:100000000C9418060C945F060C945F060C94AE30AA
:100010000C945F060C945F060C945F060C945F06CC
:100020000C945F060C945F060C94B3190C946F1932
:100030000C94BB260C945F060C945F060C945F0630
:100040000C945F060C945F060C945F060C945F069C
:100050000C945F060C948C1A0C945F060C945F064B
:100060000C945F060C945F060C945F060C945F067C
:100070000C945F060C945F060C945F060C945F066C
:100080000C945F060C945F060C945F060C945F065C
:100090000C945F060C945F060C945F060C945F064C
:1000A0000C945F060C945F060C945F060501090230
:1000B000A10185020901A1000509190129081500FE
:1000C0002501950875018102050109300931158165
:1000D000257F95027508810609381581257F9501D0
:1000E00075088106050C0A38021581257F95017572
:1000F000088106C0C005010980A101850319012AF4
:10010000B700150126B700950175108100C0050CD8
:100110000901A101850419012AA002150126A002E6
:10012000950175108100C00660FF0961A101096297
:10013000150026FF00952075088102096315002629
:10014000FF00952075089102C005010906A101056F
:100150000719E029E7150025019508750181029529
:1001600001750881010507190029FF150026FF0008
:100170009506750881000508190129059505750181
:100180009102950175039101C0000000000000007C
:10019000000000000000000000000000000000005F
:1001A000000000000000000000000000007E0F00C2
:1001B000D4FFFFFFC700000078000000000000002F
:1001C000002A2B28000000000000000000000000B2
:1001D0000000000029000000002C1E3420212224F1
:1001E000342627252E362D3738271E1F202122237F
:1001F0002425263333362E37381F04050607080911
:100200000A0B0C0D0E0F10111213141516171819D6
:100210001A1B1C1D2F3130232D3504050607080934
:100220000A0B0C0D0E0F10111213141516171819B6
:100230001A1B1C1D2F3130354C00DA02815AD9F1BE
:10024000DB20A4A62EAF00A0C000A1C800AED580C0
:10025000A81FD300408D1420000000000000000003
:10026000000000E0F0F0F8F8CCCCF8F8F0F0600016
:10027000000000000000000000000000000000007E
:100280000000000F3F7FFCF9F1E1C1810000000098
:1002900000000000000000000000000000000C381A
:1002A0007060E0E0F0F0F8F9FFFFFFFFFF7E1C0058
:1002B000000000000000000000000000000000003E
:1002C000000000E0F0F0F8F8CCCCF8F8F0F06000B6
:1002D000000000000000000000000000000000001E
:1002E0000000000F3F7FFCF9F1E1C1810000010136
:1002F00002060C04000000000000000000000038AE
:100300007C60E0E0F0F0F8F9FFFFFFFFFF7E1C00EB
:1003100000000000000000000000000000000000DD
:1003200000000000000000000000000000000000CD
:10033000000000000000000000000000CCF8700089
:100340000000000000C0F0F8F87CFCEEE6FCFC7851
:1003500078B00000000000000000003F7FF1F8F8D6
:100360007C7CF8F0F0F1E7EFEFFEFEFEFCFCF8F02D
:100370006000010306020000000000000000000011
:10038000000000000000000000000000000000006D
:10039000000000000000000000000080E0F81C00E9
:1003A0000000000000C0F0F8F87CFCEEE6FCFC78F1
:1003B00078300000000000000000003F7FF0F8F8F7
:1003C0007C7CF8F0F0F1E7EFEFFEFEFEFCFCF8F0CD
:1003D000600000000000000000000000000080C07D
:1003E000C0E0E03070E0E0C0C0800000000000002D
:1003F000000000000000000000000000001F7FFF60
:10040000FFE7E7EFEFCFCB838301000000000000A0
:100410000000000000000000000000061C3878F119
:10042000E3E3E7F7F7FFFFFFFF7F3E000000000078
:1004300000000000000000000000000000000000BC
:10044000000000000000000000000080C0E0E0604C
:10045000E0C0C0808000000000000000000000003C
:10046000000020F8FEFFFFFF9F0F0E1F1F3F3F7E83
:10047000E683030F43439088080000031E3C78F096
:10048000E0E0F0F0FBFFFFFF7F7F3800000000009E
:10049000000000000000000000000004F6B8F8D8DA
:1004A000F0E0C000000080C0E0E0F0F0F0F0E0E03C
:1004B000C080000000000000000080C0E1F3FB7F6E
:1004C0001F0F0000F0FFFF3F030100000080C1F399
:1004D000FF7F1F000080C0E0301E3F3F7FF9F0F03B
:1004E00070783C3F1F0F03000000001C3F7F7FFB24
:1004F000F1F0783C1E0F0300000001010101010131
:1005000001010102020202020202020203030303CA
:10051000030303030404040404040405050505059A
:100520000606060606070707070708080808090958
:1005300009090A0A0A0B0B0B0C0C0C0D0D0D0E0E03
:100540000E0F0F0F10101111111212131314141596
:100550001516161717181819191A1A1B1B1C1D1D0A
:100560001E1E1F2020212222232424252626272860
:1005700029292A2B2C2D2D2E2F3031323233343590
:10058000363738393A3B3C3D3E3F40414243444593
:10059000464748494A4C4D4E4F5051535455565872
:1005A000595A5B5D5E5F616264656668696B6C6D1C
:1005B0006F7072737577787A7B7D7E808283858792
:1005C000888A8C8E8F91939596989A9C9EA0A2A3D0
:1005D000A5A7A9ABADAFB1B3B5B7BABCBEC0C2C4D5
:1005E000C6C9CBCDCFD1D4D6D8DBDDDFE2E4E7E995
:1005F000EBEEF0F3F5F8FAFDFFFFAA7F55401C1073
:1006000004010D190A24232221201F1E1D1B1A1864
:10061000171615141312110F0E0C0B0908070605F7
:100620000302002D3945483C303F25262728292A3A
:100630002B2C2E2F31323334353637383A3B3D3E72
:10064000404142434446474907087F0807003E5B54
:100650004F5B3E003E6B4F6B3E001C3E7C3E1C00E1
:10066000183C7E3C18001C577D571C001C5E7F5EAA
:100670001C0000183C180000FFE7C3E7FF0000184B
:1006800024180000FFE7DBE7FF0030483A060E00C1
:10069000262979292600407F05050700407F05258A
:1006A0003F005A3CE73C5A007F3E1C1C0800081CD7
:1006B0001C3E7F0014227F2214005F5F005F5F00FA
:1006C00006097F017F00006689956A0060606060AE
:1006D000600094A2FFA2940008047E040800102089
:1006E0007E20100008082A1C0800081C2A080800A0
:1006F0001E10101010000C1E0C1E0C0030383E385E
:100700003000060E3E0E0600000000000000000053
:100710005F000000000700070000147F147F140032
:10072000242A7F2A120023130864620036495620C7
:100730005000000807030000001C22410000004197
:10074000221C00002A1C7F1C2A0008083E08080002
:100750000080703000000808080808000000606091
:1007600000002010080402003E5149453E000042AE
:100770007F4000007249494946002141494D3300FC
:100780001814127F10002745454539003C4A494955
:1007900031004121110907003649494936004649CF
:1007A00049291E0000001400000000403400000031
:1007B00000081422410014141414140000412214DF
:1007C00008000201590906003E415D594E007C12A5
:1007D00011127C007F49494936003E4141412200C7
:1007E0007F4141413E007F49494941007F09090954
:1007F00001003E41415173007F0808087F0000411D
:100800007F4100002040413F01007F081422410049
:100810007F40404040007F021C027F007F040810A0
:100820007F003E4141413E007F09090906003E41EB
:1008300051215E007F0919294600264949493200A5
:1008400003017F0103003F4040403F001F20402044
:100850001F003F4038403F00631408146300030446
:10086000780403006159494D4300007F4141410034
:10087000020408102000004141417F0004020102EF
:10088000040040404040400000030708000020549E
:10089000547840007F2844443800384444442800B9
:1008A000384444287F0038545454180000087E0906
:1008B000020018A4A49C78007F0804047800004477
:1008C0007D4000002040403D00007F102844000093
:1008D00000417F4000007C04780478007C08040418
:1008E0007800384444443800FC18242418001824A4
:1008F0002418FC007C0804040800485454542400C4
:1009000004043F4424003C4040207C001C20402044
:100910001C003C4030403C004428102844004C90CF
:1009200090907C004464544C440000083641000020
:1009300000007700000000413608000002010204B8
:1009400002003C2623263C0000000000000040403E
:1009500040F0F8F8FF38FFF8F83FF8F8FF38FFF8F4
:10096000F8F040404000000000000080C0C0C0809F
:100970000000C0C08000000080C0C000C0C00000F7
:1009800080C0C00000000000C0C0C0C0C000C0C027
:100990000000000000000000000000000000000057
:1009A0000000000000000000000000000000000047
:1009B0000000000000000000000000000000000037
:1009C00000000000000000C0F0F8FC3E1E06010020
:1009D00000007F4141417F007F4141417F00008015
:1009E000C0E07E5B4F5BFEC00000C000DCD7DEDEF7
:1009F000DED7DC00C00000000000000000000000A6
:100A00000000000000000000000000000000494954
:100A100049FFFFFFFFE0DFBFBF00BFBFDFE0FFFF19
:100A2000FFFF49494900000000001F3F6060E0BF30
:100A30001F007F7F071E381E077F7F007F7F0E1FEE
:100A40003B716000000000007F7F0C0C0C007E7E7C
:100A5000007F7E0303007F7E03037E7E03037F7E91
:100A6000000F3E703C063C703E0F00327B49493F10
:100A70007E007F7E0303001E3F69696F2600000031
:100A800000000000000000030F1F3F3C7870600072
:100A900000007F4141417F007F4141417F00307B29
:100AA0007F7830202030787F3B0003000F7F0F0FCE
:100AB0000F7F0F0003000000000000000000000096
:100AC0000000000000000000000000000000010124
:100AD00001070F0F7F0F7F0F0F7E0F0F7F0F7F0F0D
:100AE0000F070101010000000000000000000001EC
:100AF00001000000000000000000000000000000F5
:100B000000000000000000000000000000000000E5
:100B100000000000000000000000000000000000D5
:100B200000000000000000000000000000000000C5
:100B300000000000000000000000000000000000B5
:100B400000000000000000000000000000000000A5
:100B50000000000000000000000000000000000095
:100B60000000000000000000000000000000000085
:100B70000000000000000000000000000000000075
:100B8000000000000000000000AF00AE09025B00A2
:100B9000030100A0FA09040000010301010009217A
:100BA000110100012240000705810308000A090421
:100BB00001000203000000092111010001222200AE
:100BC0000705820320000107050303200001090433
:100BD00002000103000000092111010001227B0035
:100BE0000705840320000A120100020000000832F9
:100BF000FC87120200010200011E0353006F006C0B
:100C000000610072006900750073005F0053006F9F
:100C10000066006C006500000010034B0065007961
:100C20000068006900760065000000040309040004
:100C300011241FBECFEFDAE0DEBFCDBF04B603FE46
:100C400027C080916C0690916D06A0916E06B091C0
:100C50006F068730904BA740B04BD1F410926C06D2
:100C600010926D0610926E0610926F0614BE84B735
:100C7000877F84BF0FB6F894A89580916000886143
:100C800080936000109260000FBEE0E0F8E30995E9
:100C900012E0A0E0B1E0E4E7F8E602C005900D92B2
:100CA000A233B107D9F726E0A2E3B2E001C01D925A
:100CB000AC36B207E1F70E94E2260C9401340C94A2
:100CC0000000CF93DF9340916A0650916B064A561D
:100CD00054409A01205A3F4F21303240C0F020E06A
:100CE00032E0241B350B6091680470916904FC01AB
:100CF000CA01240F351FC1E0D0E08217930750F0DE
:100D00007093690460936804DF91CF91089520E6A1
:100D100030E0E9CF4491DC01A659BB4F5C91451707
:100D200081F04C93AC01A5E056954795AA95E1F763
:100D3000DE0102C0AA0FBB1F4A95E2F7AD016A2B84
:100D4000752B01963196D9CFE8EDF0E080818E7F4A
:100D500080831092E2001092DA001092E100A0EE7F
:100D6000B0E08C9181608C9380818F77808319BCF7
:100D7000A7EDB0E08C918E7F8C9380818F7E8083F5
:100D800010926C0308952091E4003091E50095E6FF
:100D9000A9012091EC00822F817020FF06C0809174
:100DA000E80080FF06C080E008952091E80022FD61
:100DB0001AC080917A03882389F0853089F0809168
:100DC000EB0085FD0FC02091E4003091E500421753
:100DD0005307F9F29150E1F684E0089582E0089516
:100DE00083E0089581E00895EF92FF920F931F939F
:100DF000CF937C018B010E94C306C82F811117C0BD
:100E00008091E80085FD0BC08091E8008E7780938B
:100E1000E8000E94C306882399F3C82F08C0F70191
:100E200081917F018093F1000150110949F78C2FC6
:100E3000CF911F910F91FF90EF90089580917C03C7
:100E400087FF13C08091E80082FF06C08091E80010
:100E50008B778093E80004C080917A038111F2CFF0
:100E6000089580917A038823D9F38091E80080FF68
:100E7000F8CF8091E8008E77ECCF982F9093E9001F
:100E8000242F762F50E0891731F07091EC002091DB
:100E9000ED005091F00021FD07C09F5F973071F782
:100EA0008093E90081E008953091EB003E7F30931C
:100EB000EB003091ED003D7F3093ED003091EB0081
:100EC00031603093EB007093EC002093ED00509371
:100ED000F0002091EE0027FDE0CF80E00895CF9252
:100EE000DF92EF92FF920F931F93CF93DF93C8EDA2
:100EF000D0E088818F7E8883E7EDF0E0808181609B
:100F0000808384E082BF81E080936C0388818E7F40
:100F1000888302EE10E0F80110821092DA0081EE70
:100F2000C82ED12CF601108288818F778883888122
:100F30008068888388818F7D888319BC10927A03AA
:100F400010927B03109279031092780390EEE92EB1
:100F5000F12CF70180818B7F808388818160888379
:100F600042E060E080E00E943D07F60180818E7FD4
:100F70008083F801808181608083808188608083A4
:100F8000F70180818E7F8083888180618883DF91F3
:100F9000CF911F910F91FF90EF90DF90CF90089528
:100FA000FC01809182039091830386179707A0F03C
:100FB0006115710529F49091E8009E779093E800FF
:100FC00090E06115710551F4911108C08091E8001D
:100FD00082FF34C080E00895BC01F2CF80917A0393
:100FE0008823C1F18530C1F18091E80083FD30C0D4
:100FF0008091E80082FDEACF8091E80080FFE1CF98
:101000008091F3002091F200382F6115710519F0DD
:101010002830310558F091E02830310509F090E092
:101020002091E8002E772093E800CBCF8191809328
:10103000F100615071092F5F3F4FE7CF80917A0334
:10104000882341F0853041F08091E80083FFBECFD6
:1010500081E0089582E0089583E0089508958091E5
:101060006F030895CF92DF92EF92FF922FB7F8941B
:10107000C0906503D0906603E0906703F09068032A
:101080002FBFA7019601261B370B480B590BCA012E
:10109000B901FF90EF90DF90CF9008952FB7F894AB
:1010A0006091650370916603809167039091680376
:1010B0002FBF0895209162033091630328173907E9
:1010C00071F09093630380936203E0916003F09169
:1010D0006103309721F00084F185E02D0994089593
:1010E00020915E0330915F032817390771F09093C8
:1010F0005F0380935E03E0916003F091610330979A
:1011000021F00680F781E02D099408952091510384
:1011100036E0839FC0011124629F800D911D112430
:10112000811522E0920714F090E080E086599B4FF1
:1011300090936B0680936A060895FC01680F791FEF
:101140008FEF91E32191822728E030E087FF09C0EB
:10115000880F892721503109C9F7E617F70791F75A
:101160000895880FF7CFFA01811101C0FB0109949E
:1011700080916304982F9E7F61F4817082608093D8
:10118000630480916604813A18F080EA80936604D3
:1011900008958831B0F381708661F1CFAF92BF922C
:1011A000DF92EF92FF920F931F93CF93DF93082F5D
:1011B000162FE901E42FF0E0E750FB4F611110C05A
:1011C000E4915E2F4E2F4983E8835A83DF91CF91BC
:1011D0001F910F91FF90EF90DF90BF90AF90089517
:1011E000E62EF12C4491D42EE42FF0E026E0829FED
:1011F000C00111242FEF30E0B9010E942832802F66
:1012000090E0880F991F55E5569FD001579FB00D6C
:1012100011248A1B9B0B982F990F890F5901AE1827
:10122000BF08AE9ED001AF9EB00DBE9EB00D112482
:101230005B2F189F80011124012F11275901A01A3B
:10124000B10AAE9E8001AF9E100DBE9E100D1124FE
:101250005901A81AB108AE9CC001AF9C900DBE9C6C
:10126000900D1124892F9927281B390B2E9FC0011F
:101270002F9F900D3E9F900D1124E92F6230710534
:10128000A1F050F46115710509F49DCF613071052D
:1012900081F0EB2F512F97CF6430710569F080F00A
:1012A0006630710509F48FCFF4CFE42F4B2F592FFF
:1012B0008ACFE42F412F87CFEB2F542F492F83CF95
:1012C0004B2F5D2DE12F7FCF80E008957894089516
:1012D000F894E82FE295EF70F0E031A1282F2F70FD
:1012E00081E090E001C0880F2A95EAF7982F909549
:1012F000932391A392A1892B82A30C9466099091C8
:10130000DB0292FF06C0282F28712830F9F4877F6E
:10131000846093FF06C0282F28712831F1F4877E5E
:1013200084612091DC0220FF06C0382F38713830EC
:10133000D9F4877F816021FF06C0282F28712831CA
:10134000D1F4877E816194FD877E0895282F2471D2
:101350002430F9F68B7F8860DCCF282F247124316C
:1013600001F78B7E8861DDCF382F3171313019F76D
:101370008E7F8860E0CF282F2171213121F78E7E6A
:101380008861E1CFCF93DF93EC018238910581F141
:10139000B0F58133910509F491C020F589329105AA
:1013A00009F485C08A9709F490C0C11521E5D207D8
:1013B00008F0AAC0C11530E5D30708F0F2C0CF3B52
:1013C000D10508F089C0C83AD10508F0DFC0C53A98
:1013D000D10508F0D3C0C430D105F8F4C130D1052F
:1013E000E1F040C08533910509F45AC0C997E9F688
:1013F0008091DB02837089F0C0EED0E00EC0833EA6
:10140000910599F170F4803E910501F1823E9105BC
:1014100061F68091DB0282FD21C0CE01DF91CF9188
:101420000895863E910561F1873E910571F1843EF4
:10143000910509F0BACF8091DC0281FFEECF809157
:10144000DB02C7EED0E084FD0DC0E7CF8091DB0268
:1014500080FDF7C09091DC0290FFDFCFC3EED0E0BB
:1014600084FFDBCFD0E0C0E0D8CF8091DB0282FDEB
:10147000EBC09091DC0290FDBFCF84FFCECFF2CFC6
:101480008091DB0283FDDDCFC8CF8091DB0283FD3D
:10149000DEC09091DC0291FFF0CFC4EED0E0BDCF72
:1014A0008091DB0285FFB9CFC9E2D0E0B6CF809151
:1014B000DB0285FFB2CFC5E3D0E0AFCF8091DB0286
:1014C00086FFABCFCAE2D0E0A8CF8091DB0286FFD7
:1014D000A4CFC1E3D0E0A1CFC11540E2D40760F4AE
:1014E000C11581E0D80708F098CFCE01815E91093F
:1014F000079708F492CFB6CFC11590E4D90708F446
:10150000B1CFDF70D06A89CFC11524E5D20778F456
:10151000C11533E5D30708F072C0C11542E5D40701
:1015200008F05CC0DC2FCC27C16FD06A76CFC11524
:101530008AE5D80778F4C11599E5D90708F073C092
:10154000C11528E5D20708F48DCFDC2FCC27C06F5A
:10155000D06A63CFCE0190568115904208F082CFB9
:101560008D2F8F710E947F0990E0982F8827882700
:101570009F719C012C2BE901D0624FCFC55AD0E05E
:10158000CD53DE4FC881D0E0D06447CFC85AD0E0F9
:10159000CC0FDD1FCA53DE4F0990D881C02DD46413
:1015A0003CCFCE0164E0969587956A95E1F783700C
:1015B0002C2F26952695237040E2249F900111241C
:1015C000382B8C2F8370C1E0D0E002C0CC0FDD1F20
:1015D0008A95E2F7C22BD32BDC681FCFCE01837034
:1015E000992721E030E002C0220F331F8A95E2F7ED
:1015F000C695C69580E2C89FE0011124EBCFCE01CD
:101600008370992721E030E002C0220F331F8A95B2
:10161000E2F7C695C69590E2C99FE0011124C22B5E
:10162000D32BDA68FACE8C2F8F700E947F0934E0BA
:10163000D695C7953A95E1F7CF709C2FEC01D0690C
:10164000ECCEC9E3D0E0E9CEC2EED0E0E6CEC6EE05
:10165000D0E0E3CE0C944E0880916D0390919702F8
:10166000892B90919602892B80933402E09160033C
:10167000F0916103309731F00280F381E02D84E333
:1016800092E00994089580919502909164029813D4
:1016900001C008958F5F8770FACF27E0929F800D79
:1016A0001124982F977086958695869523E0829FC2
:1016B000F0011124ED5BFD4F50E040E080E021910E
:1016C00030E0092E02C0369527950A94E2F7217082
:1016D0003327042E01C0220F0A94EAF7822B4F5FB2
:1016E0005F4F4330510559F7089527E0929F800DD1
:1016F0001124982F977041E001C0440F9A95EAF7A2
:1017000086958695869593E0899FF0011124ED5B7F
:10171000FD4F90E080E070E05191DF0111979B0157
:10172000082E02C0369527950A94E2F7217021957C
:101730002527242325272C9301968330910561F7D3
:10174000089590E080E00E94700890E080E00E94A0
:101750005A0810929702109296020C942C0B8093C8
:1017600098020C94A10B882341F0809590916D0311
:10177000892380936D030C942C0B0895882339F0F2
:1017800090916D03982B90936D030C942C0B0895FE
:101790008823B1F19CEF980F913A70F4E6E3F2E000
:1017A0009191891303C0DF0111971C9242E0EC3341
:1017B000F407B1F70C942C0B90E2980F983088F452
:1017C000877021E030E0A90102C0440F551F8A95BF
:1017D000E2F7CA01809590916D03892380936D0390
:1017E000E9CF9BE5980F933020F490E080E00C94D3
:1017F0007008885A873120F490E080E00C945A08F1
:1018000008950F931F93CF93C82F882309F469C0BD
:101810008CEF8C0F813AB0F506E312E08CE392E096
:10182000F8012191C21701F122E0EC33F207C9F768
:10183000EFEF80E0D8019D918D01C91781F0EF3F56
:1018400019F4911101C0E82F8F5F863099F7EF3FAF
:1018500031F00E2E000CFF0BEC5CFD4FC283CF91DC
:101860001F910F910C942C0BE6E3F2E02191C2132F
:1018700003C0DF0111971C928E179F07B9F70E94D2
:101880002C0BD6CF80E28C0F883068F4C77021E033
:1018900030E001C0220FCA95EAF780916D03822BD8
:1018A00080936D03DCCFEBE5EC0FE33050F4F0E018
:1018B000ED53FE4F808190E0CF911F910F910C94DA
:1018C0007008C85AC73168F4EC2FF0E0EE0FFF1F24
:1018D000EA53FE4F80819181CF911F910F910C941B
:1018E0005A08CF911F910F910895982F92959F704C
:1018F00011F0892F94E0282F2695269511F09E5FF0
:10190000822F869509F09F5F892F0895CF93DF93EB
:10191000CDB7DEB762970FB6F894DEBF0FBECDBF6E
:1019200096E0EFE3F3E0DE01179601900D929A95B1
:10193000E1F796E0FE013796DE011D9601900D92CB
:101940009A95E1F798858823E9F0962B9E8786E0A3
:10195000FE013D96DE01119601900D928A95E1F708
:1019600086E0FE013196AFE3B3E001900D928A95D7
:10197000E1F762960FB6F894DEBF0FBECDBFDF91E0
:10198000CF91089560959623E1CF8093690370937A
:101990006B0360936A0380917A038430F9F4809337
:1019A000E9008FEF9091E800815095FD06C095ED1C
:1019B0009A95F1F700008111F5CF8091E80085FF3D
:1019C0000DC050E040E063E070E089E693E00E94E3
:1019D000F4068091E8008E778093E8000895BC01BA
:1019E00084E00C94C50CBC0183E00C94C50C9C01F4
:1019F00084E08093E9009FEF8091E800915085FD9D
:101A000006C085ED8A95F1F700009111F5CF809120
:101A1000E80085FF0CC050E040E066E070E0C901DE
:101A20000E94F4068091E8008E778093E800089584
:101A3000CF93DF93EC0181E08093E9008FEF9091E9
:101A4000E800815095FD06C095ED9A95F1F70000EC
:101A50008111F5CF8091E80085FF14C050E040E08F
:101A600068E070E0CE010E94F4068091E8008E7775
:101A70008093E80088E0FE01A0E7B3E001900D92BA
:101A80008A95E1F7DF91CF910895CF92DF92EF929F
:101A90000F931F93CF93DF93CDB7DEB7CE5DD10900
:101AA0000FB6F894DEBF0FBECDBF60917401809178
:101AB000630480FF4CC0EEEFF5E09E012F5F3F4FC7
:101AC0008E0101521F4FC901A4914A2F50E0DA0143
:101AD000AA0FBB1FA40FB51FAB57BC4FCD90DD9015
:101AE000EC90D901CD92DD92ED929D013196A01737
:101AF000B10751F72091730143E0249F800D911DA0
:101B00001124539A2BB1277F3BB138605FB7F8940B
:101B1000FC01649FE00DF11D1124BF01861797079A
:101B200049F55FBFEFE5F4E03197F1F700C0000041
:101B3000C252DF4F0FB6F894DEBF0FBECDBFDF91AC
:101B4000CF911F910F91EF90DF90CF9008958091EA
:101B500075019091760123E0829FF0011124EB57EB
:101B6000FC4F891708F0A7CF1182108212828F5F75
:101B70003396F7CFDC014D91CD01E8E03BB9000091
:101B800000C047FF2BB9440F000000C000C000C0D8
:101B90002BB900C0EA9591F7C1CF0F931F93CF9354
:101BA000DF9300D00F92CDB7DEB7182F062F8091AC
:101BB000630480FF22C09E012F5F3F4F40EA64E62E
:101BC0008BE20E94CE081017C0F48B8199812A8184
:101BD00033E0139FF0011124EB57FC4F21839083D6
:101BE00082831F5F33960113F9CF0E94450D8FE961
:101BF0009FE00197F1F700C000000F900F900F9049
:101C0000DF91CF911F910F910895CF93DF93C82F4C
:101C1000D82FD17081FF04C067E084E00E94CD0D11
:101C2000D11104C06FE18CE10E94CD0DC2FF06C04E
:101C300063E180E1DF91CF910C94CD0DDF91CF91E5
:101C40000895E3E6F4E080818E7F8083EEE4F3E0A4
:101C50008281816082832FEF80E792E02150804073
:101C60009040E1F700C000000C94450D9F92AF92A8
:101C7000BF92CF92DF92EF92FF920F931F93CF9379
:101C8000DF937C015B016A018091D60201E010E0E4
:101C90008A3010F40AE010E0C1E0D0E0F894B50119
:101CA000C701F6010995982E0E946609911004C09B
:101CB00021960C171D076CF4892DDF91CF911F9190
:101CC0000F91FF90EF90DF90CF90BF90AF909F90DB
:101CD0000895CC9F9001CD9F300D300D112490E0E0
:101CE00080E045E34A95F1F70000019682179307DB
:101CF000C1F7D4CF8091A702811110C08091D80084
:101D000080618093D8008AE18A95F1F700C08091C4
:101D1000D90080FF0AC081E08093A70281E0909102
:101D2000A702913009F080E0089582E08093A70235
:101D30000E94A40610927A03F1CF0E947A0E8823A3
:101D400051F0E0916003F0916103309721F0019030
:101D5000F081E02D099480E008951F93CF93DF93E5
:101D6000182FEB010E94010C8FE99FE00197F1F71A
:101D700000C000002197C1F7812FDF91CF911F9103
:101D80000C94C80B0F931F93CF93DF9300D000D018
:101D9000CDB7DEB789836A834B831C8204E610E0EB
:101DA00024E030E0AE014F5F5F4F60E084E10E94CD
:101DB000862F0F900F900F900F90DF91CF911F9172
:101DC0000F91089580917001882329F047E669E911
:101DD0008BE20C94C20E80913D0247EC6BE18823AC
:101DE000C1F341E265EA89EDF4CFCF92DF92EF9241
:101DF000FF920F931F93CF93DF936C017B0164E6F7
:101E000070E088E70E946E2EEC0197FD12C010E092
:101E100000E0F601E00FF11F849164E670E00E949B
:101E2000E82EEC01892B29F40F5F1F4F0E151F05BB
:101E300081F70E940230CE01DF91CF911F910F9167
:101E4000FF90EF90DF90CF90089580915C03909188
:101E50005D03911103C091E089270895882369F0FB
:101E600062E070E08AE89BE00E94F50E892B19F091
:101E700080915C03089510925C0380915C03EBCF2A
:101E8000CF93C0915C0380915D038823D1F00E94C1
:101E90004E086058774C8E4F9F4F60935803709355
:101EA000590380935A0390935B03C11108C062E009
:101EB00070E088E89BE00E94F50E892B29F0C09124
:101EC0005C038C2FCF91089581E080935C03F7CF62
:101ED000CF93DF93C3EED2E060E0CE010E949C324C
:101EE0002196C11584E0D807B9F7DF91CF91089505
:101EF0006F927F928F929F92AF92BF92CF92DF921A
:101F0000EF92FF920F931F93CF93DF938CE8C82E2D
:101F10008BE0D82E91ECE92EF12CE701CC58D109B9
:101F200036011BC0F50185909490692DC8010E946F
:101F30009C32682DC80101960E949C3282E0A80E56
:101F4000B11C0E5F1F4FC017D10761F78EE0680EFE
:101F5000711C2E96CE15DF0529F08E010E50110949
:101F60005301E0CF7E018CE8E80EF11C8CE8C80E2E
:101F7000D11C8DE7E81683E0F80679F6DF91CF9162
:101F80001F910F91FF90EF90DF90CF90BF90AF9097
:101F90009F908F907F906F900895CF93C82F6FEF91
:101FA000811162E283E290E00E949C326FEFC111E6
:101FB00064E084E290E00E949C326FEFC11163E123
:101FC00085E290E0CF910C949C3280E00E94CD0F8E
:101FD00060E086E290E00E949C320E94780F0E94AE
:101FE000680F81E00C94CD0F0F931F93CF93DF9375
:101FF000C42FD0E0CC0FDD1F2EE0629FC00DD11D9D
:1020000011243CE8839FC00DD11D1124CE01879679
:102010000E948832082F10E0102F0027CE018896EA
:102020000E9488329801282BC901DF91CF911F911E
:102030000F910895462F853038F47A3028F46730B0
:1020400018F4672F0C94F40F90E080E00895CF927D
:10205000DF92FF920F931F93CF93DF936C01009158
:10206000840380919802082BC7E0D0E010E0FC2E9A
:10207000C8010C2E02C0959587950A94E2F780FD61
:102080000CC02197A0F7F12C8F2DDF91CF911F91DC
:102090000F91FF90DF90CF900895B6018C2F0E9492
:1020A0001A100E94C209019761F3EECFCF93DF931C
:1020B000EC010E942710BE010E941A10DF91CF91FF
:1020C0000C94C209FC01808191810E945610292F35
:1020D0002F7092959F7092509E3078F4E92FF0E027
:1020E000ED5FFB4C0C945C32803F19F020F4883E8D
:1020F00020F481E00895843FE1F380E00895883E74
:10210000C0F3813FD1F7F5CF822F869586958695CE
:10211000089583E290E00E948832823289F484E25A
:1021200090E00E948832843059F485E290E00E9469
:10213000883291E0833109F090E0892F8170089511
:1021400080E0FCCF1F93CF93DF93CDB7DEB76897C6
:102150000FB6F894DEBF0FBECDBF40913F03509144
:102160004003609141037091420380914303909139
:1021700044030E94CB1A20933F03309340036093A3
:10218000430370934403642F152F1195109341035B
:102190004093420386E0EFE3F3E0DE0117960190FF
:1021A0000D928A95E1F786E0FE013796DE011196E1
:1021B00001900D928A95E1F79B858C8520917001A5
:1021C0002223B1F0772761950CF47095072E000C4F
:1021D000880B990B0E9408332AE939E949E95EE343
:1021E0000E946C330E94D032962F812F60E010E065
:1021F0001B836C839D838E8386E0FE013196DE0116
:102200001D9601900D928A95E1F786E0FE013D96BC
:10221000DE01539601900D928A95E1F786E0FE016A
:102220007396DE01119601900D928A95E1F786E092
:10223000FE013196AFE3B3E001900D928A95E1F78C
:1022400086E0EFE3F3E0DE01179601900D928A95A8
:10225000E1F786E0E9E3F3E0DE01119601900D92EB
:102260008A95E1F746E050E0BE016F5F7F4FCE01F7
:1022700007960E947232892B79F0E0916003F09109
:102280006103309749F082E080933F030480F58139
:10229000E02D8FE393E009951092410310924203E1
:1022A000109243031092440386E0EFE3F3E0A9E3C6
:1022B000B3E001900D928A95E1F768960FB6F89415
:1022C000DEBF0FBECDBFDF91CF911F910895E6E332
:1022D000F2E086E0DF011D928A95E9F70C94A10BEC
:1022E0001F93CF93DF93CDB7DEB7AA970FB6F894BD
:1022F000DEBF0FBECDBF8CE793E02091F100DC0183
:102300002D93CD01B3E084389B07B9F780917D030D
:10231000833009F472C0B8F4813009F449C08230C6
:1023200009F4B5C08091E80083FF8DC280917C03E1
:1023300090917D039A3008F086C2E92FF0E0EF5EBD
:10234000FB4C0C945C328A3009F490C08B3009F459
:1023500071C0893039F780917C03813219F78091FF
:10236000800390918103009711F00297D9F6809134
:10237000E800877F8093E8008091E80082FF38C002
:102380009091F3008091F200029731F48091F10076
:10239000813011F0863021F48091F10080936F0339
:1023A0008091E8008B778093E8000E941E07BACFE7
:1023B00080917C03813A09F0B5CF8091E800877F56
:1023C0008093E8008091800390918103892B61F4D0
:1023D00068E080E793E070E00E94D0078091E80019
:1023E0008B778093E8009ECF60E090E080E0F3CFB1
:1023F00080917A038111C0CF95CF80917C03813A7F
:1024000009F090CF8091800390918103892B09F08E
:1024100089CF8091E800877F8093E8008091E80071
:1024200080FFFCCF809178018093F1008091E800DB
:102430008E77B9CF80917C03813209F073CF809180
:10244000800390918103892B09F06CCF8091E80083
:10245000877F8093E8000E941E0780917E0380930F
:10246000780110926D030E9467115CCF80917C030C
:10247000813209F057CF8091E800877F8093E80090
:102480000E941E0780917F0380936E034BCF809143
:102490007C03813A09F046CF8091E800877F8093E2
:1024A000E8008091E80080FFFCCF80916E03BCCFF4
:1024B000803899F0823809F0C6C1809180038F700E
:1024C000873008F0C0C18093E9008091EB0085FB64
:1024D000882780F91092E90006C0809178039091D6
:1024E0007903911182609091E800977F9093E800C2
:1024F0008093F1001092F1008091E8008E779FC1E7
:10250000882309F48DC1823009F09DC180917E033A
:10251000811190C1809180038F702FEF280F26309A
:1025200008F091C18093E9002091EB0020FF82C167
:10253000933031F48091EB0080628093EB007AC19C
:102540009091EB0090619093EB0021E030E001C0AE
:10255000220F8A95EAF72093EA001092EA00809110
:10256000EB008860EACF81116EC110917E031F7766
:102570008091E3008078812B8093E3008091E800D4
:10258000877F8093E8000E941E078091E80080FF0B
:10259000FCCF8091E30080688093E30082E011111A
:1025A00083E080937A034FC18058823008F04BC19A
:1025B00020917E0330917F032C3DE3E03E07A1F59F
:1025C00083E08A838AE289834FB7F894DE01139609
:1025D00020E03EE051E2E32FF0E050935700E49119
:1025E00020FF03C0E295EF703F5FEF708E2F90E009
:1025F000EA30C0F0C7968D939D932F5F243159F731
:102600004FBF8091E800877F8093E8006AE270E026
:10261000CE0101960E94D0078091E8008B778093CD
:10262000E80011C1C096E7CF8091800390918103AB
:10263000432F55274330510509F44AC078F54130FE
:10264000510509F47AC08BE590E0ECE8FBE04230FC
:10265000510509F0F8C02091E800277F2093E80099
:1026600020918203309183038217930708F49C0121
:1026700040E02115310509F065C0411163C080912A
:10268000E80082FDC9CF80917A03882329F2853042
:1026900019F28091E80083FFF2CFBECF413251059D
:1026A00009F43CC04232510509F0CDC08330910598
:1026B00008F0C9C0FC01EE0FFF1FEB5DFD4F01905C
:1026C000F081E02D8E5D9D4FDC018C9190E01AC071
:1026D000332721303105D1F02115310561F0223049
:1026E000310509F0B0C0E9EFFBE0E4918E2F90E0F6
:1026F000E9EFFBE007C0EBE2FCE0E4918E2F90E015
:10270000EBE2FCE0009709F49EC0A5CFE9E1FCE014
:10271000E4918E2F90E0E9E1FCE0F4CF8330910565
:1027200008F091C0880F991FFC01E55DFD4F0190F5
:10273000F081E02D89E090E08ECF82E190E0E7EE3D
:10274000FBE089CF80917A03882309F465CF853037
:1027500009F462CF8091E80083FD5ECF8091E800AC
:1027600082FD8DCF8091E80080FF83CF9091F300B0
:102770008091F2002115310519F08830910550F053
:1027800041E0089709F040E08091E8008E7780935F
:10279000E8006FCF44914093F10031962150310908
:1027A0000196E8CF803809F04EC08091E800877F1D
:1027B0008093E80080917B038093F1009DCE81118E
:1027C00042C010917E031230F0F58091E800877FBF
:1027D0008093E80010937B030E941E07112311F0E1
:1027E00084E005C08091E30087FDFACF81E080930B
:1027F0007A0342E061EC81E00E943D0742E261EC35
:1028000084E00E943D0742E261EC82E00E943D07C5
:1028100042E260EC83E00E943D0780917A0313C09E
:1028200080917E03813079F481E0933009F080E07B
:10283000809379031092E9008091E800877F80936C
:10284000E8000E941E078091E80083FF0AC0809183
:10285000E800877F8093E8008091EB00806280939E
:10286000EB00AA960FB6F894DEBF0FBECDBFDF9186
:10287000CF911F9108951F93CF93DF93162FC0918F
:102880006A06D0916B068A30D1F420915103CE01B3
:102890008A569440622F70E00E942832281B822FB3
:1028A00066E00E943C32C82FC15020F4DF91CF91E6
:1028B0001F91089560E080E20E943B14F5CF8D30B7
:1028C000E9F4CA56D44020915103622F70E0CE0142
:1028D0000E942832281B822F9E01280F311D2115AE
:1028E000324018F080E0D0E0C0E0C80FD11DC659DA
:1028F000DB4FD0936B06C0936A06D8CF96E0FE01FB
:10290000A2E5B3E001900D929A95E1F7803E90F137
:1029100086E0FE0111928A95E9F7C0916A06D0918E
:102920006B06111133C046E050E0BE0182E593E032
:102930000E9472329E012A563440892B91F52A5FFB
:102940003F4F40915103642F70E0C9010E9428322B
:10295000481B463010F4240F311D211572E0370753
:1029600010F030E020E026593B4F30936B06209367
:102970006A069CCFF6E08F9FB0011124685B794F07
:1029800046E050E0CE010E946932C7CF9E012A5F27
:102990003F4FFE012E173F0731F2808180958193D2
:1029A000F9CFC90145E0969587954A95E1F741E051
:1029B00050E0BA0102C0660F771F8A95E2F7CB019B
:1029C0006091680470916904862B972BB9016B5F45
:1029D0007F4FE5E076956795EA95E1F702C0440FF1
:1029E000551F6A95E2F7842B952B90936904809389
:1029F0006804A5CFFF920F931F93CF93DF93EC0151
:102A0000F62EFC0101900020E9F78F010150110919
:102A1000C017D10730F0DF91CF911F910F91FF9038
:102A200008956F2D89910E943B14F2CFCF92DF92CF
:102A3000EF92FF926B017C010E94B808B701A601DA
:102A400088E090E0FF90EF90DF90CF900C94AE3252
:102A5000AF92BF92CF92DF92EF92FF920F931F93AC
:102A6000CF93DF9300D00F92CDB7DEB7082FF62EAD
:102A7000142FE22E8091630480FF4FC0E82FE6956B
:102A8000AE2FB0E0AA5EBD4F9C9190934E038E7F17
:102A9000823009F056C0413A08F040EA9E012F5FAB
:102AA0003F4F6F2D802F0E94CE088091630480FFDE
:102AB00011C02B8139814A818091750190917601F5
:102AC00053E0859FF0011124EB57FC4F891798F1D3
:102AD0000E94450D80916404801308C080916504B4
:102AE0008F1104C080916604811729F080915003F2
:102AF00082608093500300936404F0926504109305
:102B00006604EE2051F0609163047091640480913A
:102B10006504909166040E9416150F900F900F9017
:102B2000DF91CF911F910F91FF90EF90DF90CF90A9
:102B3000BF90AF9008954183308322838F5F339697
:102B4000C5CF923039F6E2508E2F8170D82EE6959F
:102B5000F0E0E750FA4FA590B490C12CBB246091EF
:102B60007701C61608F0B4CF2C2D30E0A29EC0012C
:102B7000A39E900DB29E900D112470E00E94283209
:102B8000802FD11016C0860F40917501420F532F30
:102B9000511D9A01220F331F240F351F2B573C4F15
:102BA000412F113A08F040EA6F2D0E94CE08C394DD
:102BB000D6CF861BE9CF20E00C942815CF93C82FE1
:102BC0000E94750C823069F138F48823A9F08130B5
:102BD00011F18C2FCF910895833039F18430C9F7EA
:102BE00040E56FEF8AED0E94DB158091000188239C
:102BF00081F3109270010CC040E56AEA83E70E94FD
:102C0000DB15809100018823A1F381E0809370019E
:102C10000E94E20EDECF40E56FEF8CEF0E94DB15E5
:102C2000D8CF40E56FEF80E5F9CF40E56FEF80EA60
:102C3000F5CF0E94DE15809384030C94A10B809144
:102C40008403982F9670963019F488600C941916A6
:102C5000877FFCCF21E030E001C0220F8A95EAF7A0
:102C600020958091840382230C94191621E030E092
:102C700001C0220F8A95EAF780918403822B0C947D
:102C80001916E3E6F4E0438121E1421B08F440E039
:102C900021E0628181810C942815E3E6F4E0438110
:102CA00021E1420F08F44FEF21E0628181810C9411
:102CB0002815E3E6F4E0628121E1621B08F460E09C
:102CC00021E0438181810C942815E3E6F4E06281E0
:102CD00021E1620F08F46FEF21E0438181810C94C0
:102CE0002815E3E6F4E0818121E043816281885088
:102CF0000C942815E3E6F4E0818121E043816281B0
:102D0000885F0C94281580916704882319F08150FE
:102D100080936704609163047091640480916504FA
:102D2000909166040C94161580916704833018F412
:102D30008F5F809367046091630470916404809155
:102D40006504909166040C9416159091630490FFAD
:102D500026C0917081111CC0926090936304809191
:102D60005003816080935003662351F060916304A7
:102D70007091640480916504909166040E94161518
:102D80004091660460916504809164040C94DB15A5
:102D90008C3010F09661E1CF880F982BDECF08952C
:102DA000809163048695815009F48BE061E00C9476
:102DB000A5168091630486958F5F8C3008F081E0C2
:102DC00061E00C94A5168091630480FF07C086958E
:102DD00082588F77893010F40C94D91661E082E024
:102DE0000C94A516E3E6F4E083E0808311828FEF74
:102DF000828380EA83831482AEE4B3E012968C91DE
:102E00001297836012968C93608171818281938185
:102E10000C9416150E94682E40E060E080E00C944F
:102E2000C20E69EE7EEF90E080E00E94BA3260E070
:102E300082E090E00E949C3260E083E090E00E949B
:102E40009C321092980260E084E090E00E949C32F4
:102E500060E082E290E00E949C3260E085E090E0D9
:102E60000E949C3260E086E090E00E949C326FEF0E
:102E700087E090E00E949C3240E050E0BA0188E098
:102E800090E00E94AE3260E08DE090E00E949C32C3
:102E900040E050E0BA0188E190E00E94AE3260E08C
:102EA00087E190E00E949C3240E050E0BA018CE162
:102EB00090E00E94AE3270E060E080E290E00E941C
:102EC000BA3240E050E0BA0188E190E00E94AE32B0
:102ED00080E00E94CD0F0E94E50F40E050E0BA0173
:102EE0008FE090E00E94AE3240E050E0BA0183E112
:102EF00090E00C94AE320F931F93CF93DF9300D0EA
:102F000000D0CDB7DEB76091CA027091CB0280913C
:102F1000CC029091CD020E94320864367105810581
:102F2000910588F10E947A0E882379F10E944E085B
:102F30006E5F7F4F8F4F9F4F69837A838B839C8314
:102F400080912D0190912E018B549D4F40912C0129
:102F500050E04530510510F044E050E0BE016F5F95
:102F60007F4F0E947F3284E090E00E947431892B71
:102F7000D9F40E944E086093CA027093CB028093EA
:102F8000CC029093CD0281E010C00E944E080091C7
:102F9000D7021091D8022091D9023091DA02600F45
:102FA000711F821F931FC4CF80E00F900F900F906E
:102FB0000F90DF91CF911F910F910895BF92CF9203
:102FC000DF92EF92FF920F931F93CF93DF93B82E70
:102FD000EB01F42E6901688179818A819B810E94CD
:102FE0003208643671058105910510F4FF2019F14E
:102FF000EB2C0B2C000CFF088B2D9AE08902F001C2
:103000001124EE5FFE4F838194818B549D4F42814A
:1030100050E00417150708F4A801B6010E947F329A
:10302000C7010E947431892B89F40E944E0868837D
:1030300079838A839B8381E0DF91CF911F910F91E8
:10304000FF90EF90DF90CF90BF90089580E0F4CF95
:103050000F931F93CF93DF930F92CDB7DEB780917D
:103060005C0389832091C90290E041E0281719068A
:1030700009F440E001E010E09E012F5F3F4F62ED58
:1030800072E086E00E94DE170F90DF91CF911F91D2
:103090000F9108950F931F93CF93DF93CDB7DEB7B2
:1030A00028970FB6F894DEBF0FBECDBF85E0E3E6EC
:1030B000F4E0DE01119601900D928A95E1F780917E
:1030C0004E0390914F03A09150038E839F83A88756
:1030D00041E08885811101C040E008E010E09E01D8
:1030E0002F5F3F4F6EEC72E085E00E94DE1781118A
:1030F0001092500328960FB6F894DEBF0FBECDBFD6
:10310000DF91CF911F910F9108956F927F928F92CF
:103110009F92AF92BF92CF92DF92EF92FF920F9366
:103120001F93CF93DF930F92CDB7DEB7862E5A0150
:103130006901682E880F7708C3010E947431892BBA
:1031400009F07BC08AE0869DF001879DF00D112477
:10315000EE5FFE4F458150E04115510511F041E011
:1031600050E08AE0869DF001879DF00D1124EE5F0E
:10317000FE4F668177816B547D4FCE0101960E9490
:103180007F32F50160817181828193810E943208D2
:10319000643671058105910540F4B701C8010E94AC
:1031A0009D089981891709F44FC0082C000C9908D3
:1031B000C4010E947431892B91F0B12C8B2D0F909A
:1031C000DF91CF911F910F91FF90EF90DF90CF9003
:1031D000BF90AF909F908F907F906F9008958AE0FE
:1031E000889DF001899DF00D1124EE5FFE4F458111
:1031F00050E0E416F50608F4A7018AE0889DF00186
:10320000899DF00D1124EE5FFE4F668177816B542E
:103210007D4FC6010E947F32B701C8010E949D0800
:1032200099818913CACF0E944E08F501608371838A
:1032300082839383BB24B394C1CFB12CA701B8017F
:10324000C6010E947F32BACFBB24B394F7CFCF928E
:10325000DF92EF92FF920F931F93CF93DF9300D0F3
:1032600000D00F92CDB7DEB76B0185E0E82EF12CD0
:1032700006EB12E09E012F5F3F4F4DEA52E061E006
:1032800080E00E948518882349F095E0FE01319680
:10329000A8EAB2E001900D929A95E1F795E0E8EA8C
:1032A000F2E0D60101900D929A95E1F70F900F9000
:1032B0000F900F900F90DF91CF911F910F91FF9082
:1032C000EF90DF90CF90089590E080E00E949632DA
:1032D000893E9E4F11F40C94891080E008951F924E
:1032E0000F920FB60F9211242F933F934F935F933A
:1032F0006F937F938F939F93AF93BF93CF93DF93FE
:10330000EF93FF93D091E900DF708091EC00C82F1C
:10331000C17080FDC0E81092E9008091F000877FC5
:103320008093F00078940E9470111092E9008091CF
:10333000F00088608093F000CD2BCF70C093E9003F
:10334000FF91EF91DF91CF91BF91AF919F918F91BD
:103350007F916F915F914F913F912F910F900FBE91
:103360000F901F9018951F920F920FB60F92112475
:103370002F933F934F935F936F937F938F939F937D
:10338000AF93BF93EF93FF938091E10082FF09C059
:103390008091E20082FF05C08091E1008B7F8093E5
:1033A000E1008091DA0080FF24C08091D80080FF86
:1033B00020C08091DA008E7F8093DA008091D9005E
:1033C00080FF9DC080E189BD82E189BD09B400FE16
:1033D000FDCF81E080937A0380916C03811109C055
:1033E0000E94A4060E946F078091E200846080938F
:1033F000E2008091E10080FF17C08091E20080FF31
:1034000013C08091E2008E7F8093E2008091E20001
:1034100080618093E2008091D80080628093D80020
:1034200019BC85E080937A038091E10084FF2BC072
:103430008091E20084FF27C080E189BD82E189BDDF
:1034400089B5982F917080FFFBCF8091D8008F7D38
:103450008093D8008091E1008F7E8093E10080917D
:10346000E2008F7E8093E2008091E2008160809391
:10347000E20080917B03882309F447C084E08093B5
:103480007A0380917A038091E10083FF27C08091C5
:10349000E20083FF23C08091E100877F8093E100F9
:1034A00082E080937A0310927B038091E1008E7F0B
:1034B0008093E1008091E2008E7F8093E200809112
:1034C000E20080618093E20042E060E080E00E94E0
:1034D0003D078091F00088608093F000FF91EF91AC
:1034E000BF91AF919F918F917F916F915F914F911C
:1034F0003F912F910F900FBE0F901F90189519BC00
:1035000010927A0310926C0374CF8091E30087FDD0
:1035100093E090937A03B5CF78941F921FB61F92D1
:1035200011248F939F93AF93BF93809165039091E4
:103530006603A0916703B09168030196A11DB11DB8
:103540008093650390936603A0936703B093680329
:10355000BF91AF919F918F911F901FBE1F901895A3
:103560009C014FB7F8948091650390916603A091F8
:103570006703B09168034FBF821B930B08952FB769
:10358000F8948091650390916603A0916703B091D0
:1035900068032FBF0895AF92BF92DF92EF92FF9220
:1035A0000F931F93CF93DF93CDB7DEB761970FB61D
:1035B000F894DEBF0FBECDBF4C87888B998BE52E6C
:1035C000D62EF72E5E0127E0A20EB11C85E0F50194
:1035D00011928A95E9F780914D038A3008F095C0E1
:1035E00080914B0390914C030E94B01A089708F405
:1035F0008CC004E610E025E030E0A50164E084E141
:103600000E94B32F892B09F0DBC010924D038B85EC
:1036100087FDD1C0E894E0F88091490390914A0376
:10362000009709F0C2C08F819885891708F091C072
:10363000981B892F41E02091710130917201889F80
:10364000C001112455E0589FF001599FF00D11243D
:10365000E29FB001E39F700DF29F700D1124660F81
:10366000672F661F770B7195442319F0719561954B
:1036700071098091470390914803680F791F8985EC
:103680009A85891708F068C0981B892F41E0889FA8
:10369000C001112455E0589FF001599FF00D1124ED
:1036A000E29FC001E39F900DF29F900D1124880FBF
:1036B000892F881F990B9195442319F09195819535
:1036C00091092091450330914603820F931F603882
:1036D00071050CF444C06F577109709348036093EF
:1036E00047033FE7D32E803891050CF44BC08F572A
:1036F000910990934603809345039FE7F92E0E941A
:10370000BF1A90934C0380934B03ED86DE86FF86B1
:1037100086E0FE013C96DE01119601900D928A959D
:10372000E1F729813A814B815C816D817E8180E066
:1037300090E061960FB6F894DEBF0FBECDBFDF916B
:10374000CF911F910F91FF90EF90DF90BF90AF90BE
:103750000895891B40E06FCF891B40E098CF613806
:10376000FFEF7F074CF461587F4F709348036093DD
:10377000470321E8D22EB7CFD62E109248031092DD
:103780004703B1CF81382FEF92074CF481589F4FF8
:10379000909346038093450381E8F82EB0CFF82E2E
:1037A0001092460310924503AACF019790934A03C3
:1037B00080934903A4CF6894E0F884E190E0F6CFC9
:1037C00080914D038F5F80934D0399CF5F926F92ED
:1037D0007F928F929F92AF92BF92CF92DF92EF92A1
:1037E000FF920F931F93CF93DF9300D000D00F92DF
:1037F000CDB7DEB77C01FC0183819481892B31F048
:103800008081918189238F3F09F06AC50F900F90C5
:103810000F900F900F90DF91CF911F910F91FF901C
:10382000EF90DF90CF90BF90AF909F908F907F9060
:103830006F905F9008950E942710182F682F89813C
:103840009A810E94750B69817A81812F0E941A10DA
:103850008C01F7018281882309F436C5C8018251A1
:103860009F45409708F0BAC48FEF93E00E948832DA
:10387000025193EEA92E92E0B92E8111C7CF01110A
:103880003AC01C821B82662463948AE0582E85010C
:103890000F5F1F4FC5010E94883289831A828823D7
:1038A00009F4B4CF9FEF980F9330A0F58A83698213
:1038B00032E0A30EB11CC8010E9488328B8388239A
:1038C00009F4A4CF8E010F5F1F4FF801208122233E
:1038D000F1F2213009F058C0918182819130E1F4F8
:1038E0000E5F1F4F6AE070E0893311F460E570E00D
:1038F0000E94AD0E17C0A114F4E0BF0609F486CFF4
:10390000C5010E948832811101C001502FEFA21A17
:10391000B20AB5CF5801D6CF923039F40E5F1F4F9F
:103920000E94010C0F5F1F4FD0CF933029F40E5F20
:103930001F4F0E94C80BF6CF943019F00F5F1F4F36
:10394000F1CF0E5F1F4F30E020E0B8016F5F7F4F77
:10395000F80141818053990B8A30910550F0215034
:10396000310900F38FE99FE00197F1F700C00000F3
:10397000F6CF529EF001539EF00D11249C012E0FA4
:103980003F1F842F8B01E1CFE22FF0E0E754FE4F81
:103990007490822F86958695869590E0FC01E75578
:1039A000FE4FE4902770F12C022E02C0F594E794AC
:1039B0000A94E2F7E1E0EE22FF24FC01E756FE4F15
:1039C000C490D12C022E02C0D594C7940A94E2F779
:1039D000F1E0CF22DD24FC01E757FE4F8490912CCB
:1039E00002C0959487942A95E2F721E082229924D7
:1039F000E114F10419F081EE0E94010CC114D1040C
:103A000019F086EE0E94010C39E36AE070E073124F
:103A100002C060E570E0872D0E94AD0ECD2819F040
:103A200086EE0E94C80BEF2819F081EE0E94C80BA9
:103A3000892809F477CF6AE070E08CE259CF81E001
:103A40000E94361603C081E00E942A160F900F9044
:103A50000F900F900F90DF91CF911F910F91FF90DA
:103A6000EF90DF90CF90BF90AF909F908F907F901E
:103A70006F905F900C941F1682E0E2CF043E110518
:103A800009F421C1053E110509F47DC0013E11056F
:103A900009F0D1C380933F0278C00338FFE51F07C8
:103AA00009F463C008F5063F110509F40AC108F4DA
:103AB00006C102383FE5130709F0BDC3882309F4A6
:103AC000BAC381EE0E94010C83EE0E94010C8FE4C8
:103AD0000E94010C8FE40E94C80B83EE0E94C80B69
:103AE00081EE0E94C80BA7C305384FE5140709F4FF
:103AF000B2C008F457C006389FE5190709F4C2C0E0
:103B00000738EFE51E0709F096C3882309F47ECE37
:103B100087E20E94010CFFEF28EA31E0F1502040DB
:103B20003040E1F700C000008CE20E94010C87E207
:103B30000E94C80B8BE10E94010C4FEF50EE80E019
:103B4000415050408040E1F700C000008CE20E94EC
:103B5000C80B8BE10E94C80B40E56FEF84EB0E941D
:103B6000DB1581E080933E0251CE882309F463C3C4
:103B700081EE0E94010C83EE0E94010C80E50E9400
:103B8000010C80E5A8CF809342021093410200937C
:103B90004002882321F081E08093F3024CC310920D
:103BA000F30249C3882379F180913F02882349F0C9
:103BB000809140020E94C80B80EE0E94010C8AE2B4
:103BC0000CC0809142028823D1F3809140020E9470
:103BD000C80B80EE0E94010C8CE40F900F900F90A8
:103BE0000F900F90DF91CF911F910F91FF90EF9069
:103BF000DF90CF90BF90AF909F908F907F906F900D
:103C00005F900C94010C8AE20E94C80B8CE40E9425
:103C1000C80B80EE0E94C80B80913F02811105C045
:103C200080914202882309F4F1CD80914002D5CFE2
:103C3000882309F400C380913E02882309F4FBC263
:103C40000E94BF1A9093A1028093A00210923E029C
:103C500010920101F0C2882371F1809170018111ED
:103C600004C080910001882339F0109270011092F5
:103C700000010E94E20EDFC281E080937001809318
:103C80000001F7CF8823B9F080913D02882349F0E5
:103C900080EE90E0909372018093710110923D024A
:103CA000E8CF86E690E0909372018093710181E005
:103CB00080933D02DECF61E00E94860CBCC262E0D0
:103CC000FBCF64E0F9CF882321F081E08093F202FA
:103CD000B2C21092F202AFC2882331F081E0809329
:103CE000F50210926801A7C21092F502A4C2073C27
:103CF0002CE5120709F4AEC008F4A7C0083C4CE557
:103D0000140709F4ACC0093C1C4509F0B4C241E4F5
:103D100056E16DE476E179C0043DECE51E07A8F4B8
:103D20000E3CFCE51F0708F071CD0C3C2CE512079A
:103D300009F49FC043E856E164E976E10D3C1C4577
:103D400008F463C061E081E046C0053D4CE514071E
:103D500009F45CCD08F492C00D351D4509F456CD2B
:103D60008AC28091630480FF31C08E7F8093630498
:103D7000609163047091640480916504909166047D
:103D80000E941615809150038160809350039FEF2D
:103D9000E0E7F2E09150E040F040E1F700C00000C1
:103DA0000F900F900F900F900F90DF91CF911F9178
:103DB0000F91FF90EF90DF90CF90BF90AF909F90CA
:103DC0008F907F906F905F900C94450D81608093F1
:103DD000630461E086950F900F900F900F900F9005
:103DE000DF91CF911F910F91FF90EF90DF90CF90D7
:103DF000BF90AF909F908F907F906F905F900C944A
:103E0000A51640ED56E169ED76E10F900F900F9009
:103E10000F900F90DF91CF911F910F91FF90EF9036
:103E2000DF90CF90BF90AF909F908F907F906F90DA
:103E30005F900C94B30849ED56E160ED76E1E5CF73
:103E400041E756E16AE776E1E0CF4AE756E161E70C
:103E500076E1DBCF49E556E165E676E1D6CF45E68A
:103E600056E169E576E1D1CF4DE456E161E476E1D2
:103E7000CCCF44E956E163E876E1C7CF0F900F90CD
:103E80000F900F900F90DF91CF911F910F91FF90A6
:103E9000EF90DF90CF90BF90AF909F908F907F90EA
:103EA0006F905F900C94E3160E3D1C4509F0E3C142
:103EB0000F900F900F900F900F90DF91CF911F9167
:103EC0000F91FF90EF90DF90CF90BF90AF909F90B9
:103ED0008F907F906F905F900C941117C8010E9493
:103EE0004D0BD82ED6C1092F0F70907F11F002957F
:103EF000007F812F2223C9F0002369F090E2910F07
:103F0000983010F011110BC080916D03082B0093B5
:103F10006D030E942C0B812F0E94010C17C0809111
:103F20009702082B00939702F4CF0E94C80B00233E
:103F300069F00095105E183010F0B11027C0809124
:103F40006D03082300936D030E942C0B98E0C91A9F
:103F5000D108E4E0CE16D10408F058CC0E949D0EA2
:103F60000F900F900F900F900F90DF91CF911F91B6
:103F70000F91FF90EF90DF90CF90BF90AF909F9008
:103F80008F907F906F905F900C94050E80919702B8
:103F9000082300939702D8CF892F8F70907F90329B
:103FA00011F08295807FF1E0BF120CC0222329F02E
:103FB000333060F60E94BE0BC9CF323038F60E9413
:103FC000B30BC4CF222341F03323A1F340FFA3CF8F
:103FD0004F70F7014583EECF332389F3193309F08E
:103FE000F5C0FFEF27EE33E0F15020403040E1F71D
:103FF00000C00000812F0E94C80BA8CF892F869592
:104000008695837061F0813009F0A0CF812F937085
:10401000211102C090E080E00E945A0897CF812FC2
:104020009370211102C090E080E00E9470088ECF52
:10403000892F8370A1F5211189CF812F82958695D3
:104040008770880F880F412F4F70082E01C0440FD2
:104050000A94EAF7212F207114FF07C02FE030E007
:1040600001C0220F8A95EAF7209596959695937050
:10407000923081F0822F842B933030F4809198021B
:10408000913029F0242B82230E94AF0B5FCF842B29
:10409000822BFACF242B809198028227F5CF869528
:1040A000222311F0892F8170882309F44FCF812FAB
:1040B000829586958770880F880F412F4F70082E44
:1040C00001C0440F0A94EAF7212F207114FF07C0A2
:1040D0002FE030E001C0220F8A95EAF720959695EF
:1040E00096959370923081F0822F842B933030F428
:1040F00080918403913029F0242B82230E94191689
:1041000025CF842B822BFACF242B80918403822706
:10411000F5CF092F0F70222329F0802F0E94361629
:10412000812F48CF812F0E94B30B802F0E942A1627
:104130000DCF812FE1EF1E1789F1E11750F0F0EF5D
:104140001F17B9F02223B1F13111E5CE892F8F71FC
:1041500029C042EF141749F153EF1513F3CF80E054
:10416000222361F29F7181E001C0880F9A95EAF7DE
:10417000C5CF222379F0323008F0E8CE292F2F71F5
:1041800081E090E001C0880F2A95EAF790918403BE
:104190008927B4CF333008F0D9CEF0CF892F8F7173
:1041A000222321F20E943616D1CE892F8F7122232D
:1041B000C9F3BCCF332379F0893341F48FEF97EE05
:1041C000E3E081509040E040E1F712CF8FE39CE9BB
:1041D0000197F1F70DCF892F8F71A8CF0031FFE53F
:1041E0001F0709F42CCC01312FE5120709F444CC48
:1041F0000E944E086093FA027093FB028093FC02C7
:104200009093FD02F7018281043F110509F453CD1B
:1042100008F043CC003E110509F455CD08F02ECC32
:104220000E31110540F00132110508F401CD0C32B8
:10423000110509F451CDF7019281911135CE80918C
:104240006D0382720A3CFCE51F0709F40DCE08F0ED
:1042500063CD053C3CE5130709F4F2CD08F047CDEA
:10426000033C5CE5150709F4CCCD08F0E4CD023C35
:104270001C4509F476CDF70100811181992309F4D9
:104280002DCEC8010E942710D82E682FC8010E9489
:10429000750BB8018D2D0E941A100E94C209182FAB
:1042A000B82EF70122814581342F32953F70892F36
:1042B00082958F70C82ED12C8C3008F047CEF60135
:1042C000E55EFB4C0C945C3200313FE5130709F4CA
:1042D000BACB01314FE5140709F094CF82E0B4CB9B
:1042E00085E0DE01119601900D928A95E1F7F701C4
:1042F000228189819A8121119ECA0E944D0B182F1B
:10430000A2CA1F93CF93DF9380916302807FA9F4A9
:1043100080916002882389F080919502D091640297
:1043200060915E0270915F02A0916102B0916202A1
:10433000C62FC72316E0D81304C0DF91CF911F9179
:10434000089590E0109711F0CF3F19F4019687700F
:10435000F2CF189F9001199F300D1124F901EB59EC
:10436000FD4F41814713F2CF40814613EFCF428189
:104370004111ECCF438154814A1B5B0B403A5105FC
:1043800028F7809163028F70806180936302F90146
:10439000E659FD4F80818F70806180838EE592E0C9
:1043A0000E94E61BDF91CF911F910C94430BAF92BB
:1043B000BF92CF92DF92EF92FF920F931F93CF9312
:1043C000DF93CDB7DEB761970FB6F894DEBF0FBEAF
:1043D000CDBF8C0185E0F801DE011D9601900D92A4
:1043E0008A95E1F7F801E2808EE5A82E82E0B82EEA
:1043F00060916102709162026115710509F432C128
:1044000090915E0240915F02892F84238F3F09F4CF
:1044100029C120813181C380D480F0906002F601EF
:10442000E61BF70BFF2009F4E8C080916302582FC8
:10443000507FE03AF10508F0ABC0511177C0FE2C77
:10444000431321C092131FC0E1101DC08F70806103
:1044500080936302C5010E94E61B80916302F8010C
:1044600085838F2D61960FB6F894DEBF0FBECDBF4A
:10447000DF91CF911F910F91FF90EF90DF90CF9040
:10448000BF90AF900895CD2829F0822F83238F3FCE
:1044900009F003C180E0F82FF170DF2E80FF3CC0EF
:1044A000809195024091640256E0841315C02D87D7
:1044B0003E878D859E850E945610292F22952F704C
:1044C0002230F0F0243018F59F70F1F0F80195815A
:1044D000907FD1F4D12C1EC090E0589FF001599FDD
:1044E000F00D1124EB59FD4F6181361306C0608138
:1044F000261303C06281E6120FC001968770D5CFE4
:104500009F7011F0882331F3805E883018F3C80162
:104510000E94E61BFD2CA5CFEE2009F4A2CF8091CE
:104520006302816080936302F12C9BCF431306C02A
:10453000921304C0F801EE2009F479C0C8010E946A
:104540006210882309F1EE20F9F080916302803235
:1045500070F020915E0230915F0238872F831986B8
:10456000DB86CA868C87CE0107960E94E61B86E012
:10457000F801AEE5B2E001900D928A95E1F70E9454
:104580008121FF24F3946DCFC8010E94E61BF9CF6F
:1045900051110AC08EE592E00E94E61B86E0F5010B
:1045A00011928A95E9F7C0CF43130FC092130DC043
:1045B000E1100BC0F8018583C8010E94E61B86E06C
:1045C000F50111928A95E9F74CCFC8010E9462105B
:1045D0008823D1F2EE20C1F280916302803238F25A
:1045E00020915E0230915F023A8329831B82DD8233
:1045F000CC828E83CE010196B8CFE03AF105F8F671
:10460000FE2CEE2009F243131FC092131DC08091AF
:10461000630280FD10C0982F907F69F0F8018583B8
:10462000903F31F0982F907F905F8F70892B85831A
:10463000C8010E94E61B86E0F801AEE5B2E00190F9
:104640000D928A95E1F70DCFC8010E946210811189
:104650008ECF80916302816080936302C8010E94C3
:10466000E61BFFCEEE2009F48FCFC8010E94621036
:10467000F82E882309F488CF86E0F801AEE5B2E091
:1046800001900D928A95E1F780915E0290915F0210
:104690000E9456100E948121E4CE81E08E25FBCE3F
:1046A0001F93CF93DF93CDB7DEB767970FB6F8941C
:1046B000DEBF0FBECDBF4B8B5C8B6D8B7E8B8F8B2C
:1046C0006111109297021A8A198A85E0FE01739689
:1046D000DE011D9601900D928A95E1F786E0FE01BC
:1046E0003D96DE01179601900D928A95E1F7CE0175
:1046F00007960E94D721882389F016E080919502C1
:104700009091640289134BC067960FB6F894DEBF90
:104710000FBECDBFDF91CF911F91089586E0FE01BE
:104720003796DE01119601900D928A95E1F78A8500
:104730009B85892B11F38F81988589238F3FE9F21F
:104740002091640230E0C901019687709927409159
:1047500095024817190681F410926D030E946711A3
:10476000109264021092950286E0EEE5F2E0DF011D
:104770001D928A95E9F7C1CF96E0929FD001939F51
:10478000B00D1124AB59BD4FFE01319601900D9231
:104790009A95E1F7809364020E94430BAECF819F0C
:1047A000C00111248B599D4F0E94D721882309F401
:1047B000ABCF8091950290E0019687709927809306
:1047C00095029CCF7F928F929F92AF92BF92CF9291
:1047D000DF92EF92FF920F931F93CF93DF93CDB7AA
:1047E000DEB764970FB6F894DEBF0FBECDBF8E0163
:1047F0000F5F1F4F8AE0D8011D928A95E9F79FE469
:10480000C92E91E0D92EF12CE12CAA24A394B12C2D
:104810003FE4832E31E0932EF60181916F018F3FAB
:1048200009F443C0F894E82FE295EF70F0E021A17D
:104830008F70A50102C0440F551F8A95E2F7CA0187
:10484000922F982B91A392A18095892382A30E94F5
:10485000660900C0E8E4F1E0712C31E021912F3FBE
:1048600009F479C0A22FA295AF70B0E090968C9118
:1048700090E02F7002C0959587952A95E2F780FD0C
:104880006AC0832F782A330F8E169F0639F7F601F8
:10489000319780818F3F11F00E94680950EA5A9544
:1048A000F1F7F801EE0DFF1D70828FEFE81AF80A9C
:1048B000A5E0EA16F10409F0AFCF4AE050E0B801F4
:1048C0008DED92E00E9472327C01892B41F08AE0EA
:1048D000F801ADEDB2E001900D928A95E1F71091EB
:1048E000E802E114F104C9F181E080939B020E9487
:1048F000BF1A90939A0280939902809199029091A5
:104900009A020E94B01A069770F0ADEDB2E0E12F66
:10491000F0E0E15DFC4F8D91819322E0A23EB20771
:10492000D1F710929B0281E090E0EF28D1F06496DD
:104930000FB6F894DEBF0FBECDBFDF91CF911F91B0
:104940000F91FF90EF90DF90CF90BF90AF909F902E
:104950008F907F90089580E095CF80919B02811188
:10496000CCCF0E947A0ED82EE091E802882309F479
:10497000DEC07E0140E1E40EF11C85E0D7011D920E
:104980008A95E9F70E2F10E0015D1C4F8091D60249
:104990008A3008F095C047E259E1B701C8010E948A
:1049A000360E882309F4AFC045E656E2B701C801C8
:1049B0000E94360E882309F4A6C04BE757E1B701E1
:1049C000C8010E94360E882309F49DC04AE458E1CC
:1049D000B701C8010E94360E882309F494C048E24A
:1049E00058E1B701C8010E94360E882309F48BC034
:1049F0001092D6028091E70290E045E050E0B701C6
:104A0000815D9C4F0E94723221E02093A602892B87
:104A100009F06CC0D12C80910101811111C08091ED
:104A2000A0029091A1020E94B01A813A9F4040F0EA
:104A300040E56FEF8CEF0E94DB1581E08093010170
:104A40008EE9E82E82E0F82E10E000E0D7018D918B
:104A50007D018823D1F08695F80109F465C0E850FE
:104A6000FE4F808191819C878B871D860E94BF1A93
:104A70008160782F9F878E87F701319710824B8551
:104A80005C856D858F850E9450230E5F1F4F04301B
:104A90001105E1F66091FA027091FB028091FC022F
:104AA0009091FD020E94320861367A4E810591058F
:104AB00028F040E060E080E00E94C20E8D2D37CFEC
:104AC00080919C0290919D020E94B01A843F914077
:104AD00008F061CF8091A602882309F49BCF85E07E
:104AE000F70111928A95E9F71092A602A091E702C8
:104AF000B0E0A15DBC4F85E0FE01709601900D9283
:104B00008A95E1F788CF8091D6028F3F31F08F5F91
:104B10008093D6028A3008F46DCF0E94BF1A90931A
:104B20009D0280939C02D6CFEC50FE4F9ACFF0E0CE
:104B3000E15DFC4FF89485E0A6EBB2E001900D92A8
:104B40008A95E1F765E070E086EB92E00E949D08AF
:104B50008093B5020E946609F894E091F002F0E0BB
:104B6000E351FD4F80818B878093BC0261E070E050
:104B7000CE010B960E949D088093BB020E9466099D
:104B8000F894C090BD02D090BE02E090BF02F090B9
:104B9000C0028091A2029091A302A091A402B091C0
:104BA000A502C816D906EA06FB06D1F0C092A202F9
:104BB000D092A302E092A402F092A5020E947A0E83
:104BC00081110EC00E944E08C61AD70AE80AF90AD7
:104BD000C092D702D092D802E092D902F092DA02C3
:104BE0000E946609F8948091C8028823F1F080FF42
:104BF0000DC08091C10280FF25C090916304916037
:104C00009093630460E086950E94A5168091C80287
:104C100081FF09C020E04091C4026091C3028091ED
:104C2000C2020E9428151092C8020E946609F894D8
:104C30008091C902882349F00E94400F0E946609B2
:104C400080E075CE0E94210EE1CF0E94250FF6CFA5
:104C5000EF92FF920F931F93CF93DF9300D000D07A
:104C60000F92CDB7DEB7162FE82EF12CC701880FB3
:104C7000991F662339F188509E4FFC0180819181F4
:104C80009A83898301E00B830E94BF1A8160782F89
:104C90009D838C83F701E256FD4F0127110F102BE6
:104CA000108349815A816B818D810F900F900F90F5
:104CB0000F900F90DF91CF911F910F91FF90EF9088
:104CC0000C9450238C509E4FD8CFCF92DF92EF920E
:104CD000FF920F931F93CF93DF930F92CDB7DEB761
:104CE000EE24E394F12C0CEB12E09E012F5F3F4F7A
:104CF00041EB52E063E082E00E948518082F882390
:104D000021F1C090EA028C2D90E09C0123513D4F8F
:104D100079011981F9018081181BD12E80E00AC028
:104D2000DA94F70180818F5F808360E08C2D0E9490
:104D30002826802F1D14A4F3912F17FD90E0191B36
:104D400011110EC081110E942A0B802F0F90DF914C
:104D5000CF911F910F91FF90EF90DF90CF9008952A
:104D60001F5FF70180818150808361E08C2D0E945C
:104D70002826802FE5CF1F921FB61F9211248F93F4
:104D80009F93AF93BF9380916403811113C080916F
:104D9000650390916603A0916703B0916803419603
:104DA000A11DB11D8093650390936603A0936703D3
:104DB000B0936803BF91AF919F918F911F901FBED9
:104DC0001F901895CDB7DEB7E0970FB6F894DEBF09
:104DD0000FBECDBF84B7877F84BF0FB6F894A89568
:104DE00080916000886180936000109260000FBE27
:104DF00080E890E00FB6F894809361009093610092
:104E00000FBE85B7806885BF85B7806885BF84E69B
:104E100099E090933302809332020E94A4060E948C
:104E20006F078091E20084608093E2007894809123
:104E30007A038823A1F01091E9001F709091EC0093
:104E4000892F817090FD80E8182B1092E9008091E5
:104E5000E80083FD0E9470111F701093E90082E04A
:104E600084BD93E095BD9AEF97BD80936E0010923C
:104E7000D7021092D8021092D9021092DA020E9440
:104E80008910811102C00E94E50F0E947A0E809362
:104E9000590180915901882309F4C9C01092730106
:104EA00085E2809374010E947A0E81110E9467301E
:104EB0008091590181112FC0FE01359686E0DF01F6
:104EC0001D928A95E9F786E6898387E98A8386ECCD
:104ED0008B8384E38C8385E38D833497AFE4B1E0E7
:104EE000CE010B9621912D938E179F07D9F787E05E
:104EF000E9E7F1E0DE01919601900D928A95E1F7E4
:104F0000FE01B196A8E4B1E0CE01889621912D93DF
:104F10008E179F07D9F78091590195E0811190E094
:104F20009093E80285E0891B8093E7020FE411E08B
:104F300084E5E82E81E0F82EF80181918F018F3F02
:104F400011F00E946809E016F106B1F708E411E0DB
:104F5000BFE4EB2EB1E0FB2ED8018D918D018F3F88
:104F600011F00E946809E016F106B1F78AE0EFE25D
:104F7000F3E0DF01282F1D922A95E9F7EDEDF2E02D
:104F8000DF011D928A95E9F70E946419811102C020
:104F90000E94111782E090E00E94883280932403DF
:104FA00084E090E00E948832182F82E290E00E9414
:104FB0008832982F812F9093DC028093DB020E942D
:104FC000E223EFE7FBEB3197F1F700C000000E940E
:104FD000E22380912F0380FF2EC06FEF7FEF90E0E0
:104FE00080E00E94BA3281E08093E00080E280930A
:104FF000D8001092C9008FE19EE40197F1F700C03C
:10500000000087E090EBDC0180936C0690936D06C6
:10501000A0936E06B0936F0688E19CE00FB6F894FB
:10502000A895809360000FBE90936000FFCF85E24B
:105030008093730136CF83E090E00E9488320E9413
:10504000AF0B809184030E94DE150E947A0E8111BD
:1050500002C00E946A3083E080931F0380E2809345
:1050600051030E94682E6DE070E08CE492E00E9493
:10507000F50E892BE9F580911F0363E070E081FD57
:1050800005C289E492E00E94F50E892B89F56DE056
:1050900070E089E392E00E94F50E892B49F50E94A9
:1050A0004E086058774C8E4F9F4F60935803709313
:1050B000590380935A0390935B03EAE6F4E080E09F
:1050C00092E0DF019C011D9221503040E1F7F09306
:1050D0006B06E0936A068FEF9FEF909369048093CD
:1050E000680481E080935D0380935C031092200349
:1050F0008091E902811136C00E946419811104C0B7
:105100000E9411170E94F21688E090E00E949032EF
:1051100060936304709364048093650490936604C1
:10512000809150038360809350036E7F71F40E94DE
:10513000F21688E090E00E949032609363047093CE
:10514000640480936504909366040E94B80880917B
:10515000630480FF04C060E086950E94A51681E08C
:105160008093E90280915901811106C084EF8093F8
:10517000670185EF8093660120916701A22FA295B8
:10518000AF70B0E091963C9191972F7081E090E0E4
:10519000BC01022E01C0660F0A94EAF7462F409523
:1051A000432391964C93919792963C919297362BEC
:1051B00092963C93929740916601E42FE295EF70AE
:1051C000F0E031A14F70042E01C0880F0A94EAF775
:1051D000982F9095932391A392A1892B82A39096C7
:1051E0008C9190E002C0959587952A95E2F78170A1
:1051F00020A130E002C0359527954A95E2F792E06C
:1052000020FF90E0892B8093F1029091590181E079
:1052100098279093F002891B8093EA020E940A1754
:1052200060E08AE00E94A51681E00E94191680EED7
:1052300090E090937201809371010E94E20E8AE5E2
:1052400091E09093610380936003A0E46A2E8091C3
:105250007A03FF24F39400E112E1853009F465C17B
:105260000E94E223E82E81110E944E08FFE22F2EB9
:10527000F3E03F2EE5E2F3E0D10110E000E0B02ED4
:10528000DD9081918D1509F474C18D25C12CFF2409
:10529000F3949F2D982309F467C10E947A0E882306
:1052A00099F0C9A2BAA2DF2081E009F480E08BA3C3
:1052B0000E94BF1A8160782F9DA38CA349A15AA197
:1052C0006BA18DA10E945023F801EB5DFC4F808102
:1052D000F826F0828091F102E82FEE0FEE0F909108
:1052E0006701A92FA295AF70B0E090962C9130E0A5
:1052F0009F7002C0359527959A95E2F72170332764
:1053000090916601A92FA295AF70B0E090964C9154
:1053100050E09F7002C0559547959A95E2F7CA01F3
:105320008170992740FF02C082E090E0822B8E2B93
:105330008093F1021091F0028F70E82FF0E0E250BC
:10534000FE4F80819091EF02890F8093EF02F12C44
:1053500084306CF0E12FF0E0E351FD4F80818F5FEE
:10536000808360E0812F0E942826FF24F39480919F
:10537000EF028D3F6CF4E12FF0E0E351FD4F8081AF
:105380008150808361E0812F0E942826FF24F394BE
:105390008091EF02082E000C990B64E070E00E94EF
:1053A00048328093EF02F1100E942A0B80915D0336
:1053B000882351F180912103909122030E94B01A19
:1053C000C29708F0EDC0209168043091690421155E
:1053D000310509F0F0C180915C038823A9F00E9497
:1053E0004E08009158031091590320915A033091AF
:1053F0005B03601B710B820B930B6F3F7F4F8F4FD3
:105400009F4710F40E94250FE11001C0F1100E9487
:10541000400F0E94A2100E949D0E909123038917B5
:1054200031F00E949D0E809323030E94050E80910F
:105430007A03843009F00BCF83E08093E9008091F8
:10544000E80082FF04CF8091E80090E085FF0CC067
:105450000E94C30630E2E32EF12C8E010F5F1F4F36
:10546000882309F487C291E08091E8008B778093CC
:10547000E800992309F4EBCEE981E150E33108F02B
:10548000DDC2F0E0E95DFB4C0C945C3286E492E016
:10549000FACD80917A03843009F437C080E00E940D
:1054A000050E8091EC02811109C0F092EC0280910E
:1054B000630481708093EB020E94210E0E94250FED
:1054C0000E94A2101092640388E190E00FB6F89455
:1054D000A895809360000FBE6092600083B7817FC3
:1054E000846083BF83B7816083BF7894889583B7D6
:1054F0008E7F83BF0FB6F894A89580916000886175
:1055000080936000109260000FBE80917903882321
:1055100061F00E94E223EFE2F3E081918111B7C3D1
:10552000A9E3B3E0AE17BF07C1F780917A038530D6
:1055300009F4AFCF10926D030E9467110E949D0E77
:105540000E94050E1092EC028091EB02882349F034
:105550008091630481608093630460E086950E947B
:10556000A5160E94E20E7CCEC394FF0C27E0C21267
:1055700090CE0F5F1F4F0A30110509F080CE8FEFDC
:1055800088A789A71AA60E94BF1A8160782F9CA7B6
:105590008BA748A559A56AA58CA50E9450239ACE31
:1055A0000E94BF1A909322038093210360E080E061
:1055B0000E9486080E949D0E8093FE020E947A0E31
:1055C000882309F4DFC06091FA027091FB02809198
:1055D000FC029091FD020E943208613375478105FB
:1055E000910540F00E94250F80915D03882309F406
:1055F000F2CEE9CE0E94400F61E080E00E94860872
:1056000060E080E891E00E94FA1462E080E00E948D
:105610008608809184030E94750C823009F48CC046
:1056200008F081C0882309F487C0813009F48AC05A
:1056300065E080E00E94860860E08EE991E00E94CB
:10564000FA1466E080E00E9486086091FE0266958A
:10565000617083EA91E00E94FA1467E080E00E94A2
:1056600086086091FE026095617088EA91E00E9470
:10567000FA1468E080E00E9486086091FE0262FBF6
:10568000662760F98CEA91E00E94FA146091F602B4
:105690007091F7028091F8029091F9020E9432080D
:1056A0006D3271408105910508F49ECF0E944E082D
:1056B0006093F6027093F7028093F8029093F902D8
:1056C0008091F502811104C080916801811142C06E
:1056D0006DE080E00E94860860E081EB91E00E942E
:1056E000FA146AE080E00E94860881E080936801F5
:1056F0008091F40290E00196817099278093F402E2
:1057000021E030E0281B390B40E6429FC001439F57
:10571000900D11242091F302222351F187529C4FC6
:105720000E94610661CF833089F0843009F080CF18
:1057300060E082E991E003C060E086E891E00E94C9
:10574000FA1476CF60E08CE891E0F9CF60E088E968
:1057500091E0F5CF6AE080E00E94860860E081EB8E
:1057600091E00E94FA146BE080E00E948608C0CFAE
:105770002091F202222319F0875E9C4FD1CF875AE5
:105780009D4FCECF64E080E00E94860860E087EB0A
:1057900091E00E94FA1465E080E00E94860860E0D3
:1057A0008DEB91E00E94FA1469E080E00E94860887
:1057B00089E994E0B5CF8091200361E070E0811128
:1057C0000ACE082F10E02B01082E02C0440C551CF5
:1057D0000A94E2F7A90144215521452B09F448C058
:1057E00090911F0390FD46C08295880F807680932C
:1057F0006B019801369527953695279520936E0174
:10580000815E80936C0110926F0124E630E047E0E6
:1058100050E069E671E088E70E945F2F892B09F06C
:10582000DACDA80175E0440F551F7A95E1F7809114
:105830001F0380FD2DC046595B4F04E610E020E2B7
:1058400030E060E488E70E94862F892B09F0C3CD01
:105850000E94400FC201809590954090680450903E
:105860006904482259225092690440926804B3CDD9
:105870008F5FA7CF880F880F880F80936B011092DE
:105880006E01895F80936C0183E080936F01BDCFCF
:10589000EFEFF2E080E2DF011D928A95E9F7E2E1A5
:1058A000F2E0F8ABEFA70EE012E067E0A62E992435
:1058B0009394AFA5B8A96D91B8ABAFA7F80181914A
:1058C0008F01840F952F911D9C0126593B4F3EA7B8
:1058D0002DA7E62FF0E0E150FD4F30E020E07A2CDC
:1058E000721AB92C022E01C0BB0C0A94EAF7CDA49F
:1058F000DEA490E0D6018D916D018B21672D691B8F
:105900006770862E062E000C770BB82F01C0BB0FD8
:105910008A94EAF78B2E71956195710967707727E4
:1059200001C086956A95EAF7882A8081882A808254
:105930009F5F9830F9F62F5F3F4F31962830310541
:1059400071F6E6E1F2E02FA538A9E217F30709F0B6
:10595000B0CF04E610E020E230E04FEF52E071CF2C
:105960008091F100D8018D938D01B1E0EB1AF1081F
:1059700009F479CD8091E80085FDF2CF8091E800AF
:105980008B778093E8000E94C306882399F36BCD40
:105990001A8289E08B8311C08A81823009F48FC119
:1059A000833091F1813009F049C00E944E080E9475
:1059B00062326B837C838D839E8380917A038430F3
:1059C00009F045CC1091E9001F709091EC00892FEF
:1059D000817090FD80E8182B82E08093E90080912F
:1059E000E80080FF0DC050E040E060E270E0CE01D2
:1059F00001960E94F4068091E8008E778093E8007B
:105A00001F701093E90023CCFE013396D1018D91D4
:105A10001D018193B9E32B16B3E03B06B9F7CDCF57
:105A20008A81823059F46B817C818D819E810E94B4
:105A3000623286E290E00E949C32BFCF8FEF898372
:105A4000BCCF4C816B818A810E94F40F98278927F3
:105A500098279E838D83B1CFED80FE80FE24EF24B6
:105A6000FE248A810B81EEE00E9F80011124FCE868
:105A70008F9F000D111D11248C8190E0880F991FBC
:105A8000080F191F6F2DC80187960E949C326E2D3A
:105A9000C8018896D0CF0E94780F8FCF8A81813835
:105AA000B1F058F4803809F088CF4B8160916504DB
:105AB000809164040E94DB1580CF8238E1F0833846
:105AC00009F07BCF409166046C818B81F3CF60E05D
:105AD0008B810E94A5168B81811103C00E94210E2B
