:100000000C94E8050C942F060C942F060C94753074
:100010000C942F060C942F060C942F060C942F068C
:100020000C942F060C942F060C9483210C943F21E2
:100030000C9497260C942F060C942F060C942F06E4
:100040000C942F060C942F060C942F060C942F065C
:100050000C942F060C945C220C942F060C942F0603
:100060000C942F060C942F060C942F060C942F063C
:100070000C942F060C942F060C942F060C942F062C
:100080000C942F060C942F060C942F060C942F061C
:100090000C942F060C942F060C942F060C942F060C
:1000A0000C942F060C942F060C942F0605010902C0
:1000B000A10185020901A1000509190129081500FE
:1000C0002501950875018102050109300931158165
:1000D000257F95027508810609381581257F9501D0
:1000E00075088106050C0A38021581257F95017572
:1000F000088106C0C005010980A101850319012AF4
:10010000B700150126B700950175108100C0050CD8
:100110000901A101850419012AA002150126A002E6
:10012000950175108100C00660FF0961A101096297
:10013000150026FF00952075088102096315002629
:10014000FF00952075089102C005010906A101056F
:100150000719E029E7150025019508750181029529
:1001600001750881010507190029FF150026FF0008
:100170009506750881000508190129059505750181
:100180009102950175039101C0000000000000007C
:10019000000000000000000000000000000000005F
:1001A000000000000000000000000000007E0F00C2
:1001B000D4FFFFFFC700000078000000000000002F
:1001C000002A2B28000000000000000000000000B2
:1001D0000000000029000000002C1E3420212224F1
:1001E000342627252E362D3738271E1F202122237F
:1001F0002425263333362E37381F04050607080911
:100200000A0B0C0D0E0F10111213141516171819D6
:100210001A1B1C1D2F3130232D3504050607080934
:100220000A0B0C0D0E0F10111213141516171819B6
:100230001A1B1C1D2F3130354C00DA02815AD9F1BE
:10024000DB20A4A62EAF00A0C000A1C800AED580C0
:10025000A81FD300408D1420000000000000000003
:10026000000000E0F0F0F8F8CCCCF8F8F0F0600016
:10027000000000000000000000000000000000007E
:100280000000000F3F7FFCF9F1E1C1810000000098
:1002900000000000000000000000000000000C381A
:1002A0007060E0E0F0F0F8F9FFFFFFFFFF7E1C0058
:1002B000000000000000000000000000000000003E
:1002C000000000E0F0F0F8F8CCCCF8F8F0F06000B6
:1002D000000000000000000000000000000000001E
:1002E0000000000F3F7FFCF9F1E1C1810000010136
:1002F00002060C04000000000000000000000038AE
:100300007C60E0E0F0F0F8F9FFFFFFFFFF7E1C00EB
:1003100000000000000000000000000000000000DD
:1003200000000000000000000000000000000000CD
:10033000000000000000000000000000CCF8700089
:100340000000000000C0F0F8F87CFCEEE6FCFC7851
:1003500078B00000000000000000003F7FF1F8F8D6
:100360007C7CF8F0F0F1E7EFEFFEFEFEFCFCF8F02D
:100370006000010306020000000000000000000011
:10038000000000000000000000000000000000006D
:10039000000000000000000000000080E0F81C00E9
:1003A0000000000000C0F0F8F87CFCEEE6FCFC78F1
:1003B00078300000000000000000003F7FF0F8F8F7
:1003C0007C7CF8F0F0F1E7EFEFFEFEFEFCFCF8F0CD
:1003D000600000000000000000000000000080C07D
:1003E000C0E0E03070E0E0C0C0800000000000002D
:1003F000000000000000000000000000001F7FFF60
:10040000FFE7E7EFEFCFCB838301000000000000A0
:100410000000000000000000000000061C3878F119
:10042000E3E3E7F7F7FFFFFFFF7F3E000000000078
:1004300000000000000000000000000000000000BC
:10044000000000000000000000000080C0E0E0604C
:10045000E0C0C0808000000000000000000000003C
:10046000000020F8FEFFFFFF9F0F0E1F1F3F3F7E83
:10047000E683030F43439088080000031E3C78F096
:10048000E0E0F0F0FBFFFFFF7F7F3800000000009E
:100490000000000000000000000001010101010156
:1004A000010101020202020202020202030303032B
:1004B00003030303040404040404040505050505FB
:1004C00006060606060707070707080808080909B9
:1004D00009090A0A0A0B0B0B0C0C0C0D0D0D0E0E64
:1004E0000E0F0F0F101011111112121313141415F7
:1004F0001516161717181819191A1A1B1B1C1D1D6B
:100500001E1E1F20202122222324242526262728C0
:1005100029292A2B2C2D2D2E2F30313232333435F0
:10052000363738393A3B3C3D3E3F404142434445F3
:10053000464748494A4C4D4E4F50515354555658D2
:10054000595A5B5D5E5F616264656668696B6C6D7C
:100550006F7072737577787A7B7D7E8082838587F2
:10056000888A8C8E8F91939596989A9C9EA0A2A330
:10057000A5A7A9ABADAFB1B3B5B7BABCBEC0C2C435
:10058000C6C9CBCDCFD1D4D6D8DBDDDFE2E4E7E9F5
:10059000EBEEF0F3F5F8FAFDFFFFAA7F55401C10D3
:1005A00004010D190A24232221201F1E1D1B1A18C5
:1005B000171615141312110F0E0C0B090807060558
:1005C0000302002D3945483C303F25262728292A9B
:1005D0002B2C2E2F31323334353637383A3B3D3ED3
:1005E000404142434446474907087F0807003E5BB5
:1005F0004F5B3E003E6B4F6B3E001C3E7C3E1C0042
:10060000183C7E3C18001C577D571C001C5E7F5E0A
:100610001C0000183C180000FFE7C3E7FF000018AB
:1006200024180000FFE7DBE7FF0030483A060E0021
:10063000262979292600407F05050700407F0525EA
:100640003F005A3CE73C5A007F3E1C1C0800081C37
:100650001C3E7F0014227F2214005F5F005F5F005A
:1006600006097F017F00006689956A00606060600E
:10067000600094A2FFA2940008047E0408001020E9
:100680007E20100008082A1C0800081C2A08080000
:100690001E10101010000C1E0C1E0C0030383E38BE
:1006A0003000060E3E0E06000000000000000000B4
:1006B0005F000000000700070000147F147F140093
:1006C000242A7F2A12002313086462003649562028
:1006D0005000000807030000001C224100000041F8
:1006E000221C00002A1C7F1C2A0008083E08080063
:1006F00000807030000008080808080000006060F2
:1007000000002010080402003E5149453E0000420E
:100710007F4000007249494946002141494D33005C
:100720001814127F10002745454539003C4A4949B5
:10073000310041211109070036494949360046492F
:1007400049291E0000001400000000403400000091
:10075000000814224100141414141400004122143F
:1007600008000201590906003E415D594E007C1205
:1007700011127C007F49494936003E414141220027
:100780007F4141413E007F49494941007F090909B4
:1007900001003E41415173007F0808087F0000417D
:1007A0007F4100002040413F01007F0814224100AA
:1007B0007F40404040007F021C027F007F04081001
:1007C0007F003E4141413E007F09090906003E414C
:1007D00051215E007F091929460026494949320006
:1007E00003017F0103003F4040403F001F204020A5
:1007F0001F003F4038403F006314081463000304A7
:10080000780403006159494D4300007F4141410094
:10081000020408102000004141417F00040201024F
:1008200004004040404040000003070800002054FE
:10083000547840007F284444380038444444280019
:10084000384444287F0038545454180000087E0966
:10085000020018A4A49C78007F08040478000044D7
:100860007D4000002040403D00007F1028440000F3
:1008700000417F4000007C04780478007C08040478
:100880007800384444443800FC1824241800182404
:100890002418FC007C080404080048545454240024
:1008A00004043F4424003C4040207C001C204020A5
:1008B0001C003C4030403C004428102844004C9030
:1008C00090907C004464544C440000083641000081
:1008D0000000770000000041360800000201020419
:1008E00002003C2623263C0000000000000040409F
:1008F00040F0F8F8FF38FFF8F83FF8F8FF38FFF855
:10090000F8F040404000000000000080C0C0C080FF
:100910000000C0C08000000080C0C000C0C0000057
:1009200080C0C00000000000C0C0C0C0C000C0C087
:1009300000000000000000000000000000000000B7
:1009400000000000000000000000000000000000A7
:100950000000000000000000000000000000000097
:1009600000000000000000C0F0F8FC3E1E06010080
:1009700000007F4141417F007F4141417F00008075
:10098000C0E07E5B4F5BFEC00000C000DCD7DEDE57
:10099000DED7DC00C0000000000000000000000006
:1009A00000000000000000000000000000004949B5
:1009B00049FFFFFFFFE0DFBFBF00BFBFDFE0FFFF7A
:1009C000FFFF49494900000000001F3F6060E0BF91
:1009D0001F007F7F071E381E077F7F007F7F0E1F4F
:1009E0003B716000000000007F7F0C0C0C007E7EDD
:1009F000007F7E0303007F7E03037E7E03037F7EF2
:100A0000000F3E703C063C703E0F00327B49493F70
:100A10007E007F7E0303001E3F69696F2600000091
:100A200000000000000000030F1F3F3C78706000D2
:100A300000007F4141417F007F4141417F00307B89
:100A40007F7830202030787F3B0003000F7F0F0F2E
:100A50000F7F0F00030000000000000000000000F6
:100A60000000000000000000000000000000010184
:100A700001070F0F7F0F7F0F0F7E0F0F7F0F7F0F6D
:100A80000F0701010100000000000000000000014C
:100A90000100000000000000000000000000000055
:100AA0000000000000000000000000000000000046
:100AB0000000000000000000000000000000000036
:100AC0000000000000000000000000000000000026
:100AD0000000000000000000000000000000000016
:100AE0000000000000000000000000000000000006
:100AF00000000000000000000000000000000000F6
:100B000000000000000000000000000000000000E5
:100B100000000000000000000000000000000000D5
:100B2000000000000000000000AF00AE09025B0002
:100B3000030100A0FA0904000001030101000921DA
:100B4000110100012240000705810308000A090481
:100B5000010002030000000921110100012222000E
:100B60000705820320000107050303200001090493
:100B700002000103000000092111010001227B0095
:100B80000705840320000A12010002000000083259
:100B9000FC87120200010200011E0353006F006C6B
:100BA00000610072006900750073005F0053006F00
:100BB0000066006C006500000010034B00650079C2
:100BC0000068006900760065000000040309040065
:100BD00011241FBECFEFDAE0DEBFCDBF04B603FEA7
:100BE00027C08091890690918A06A0918B06B091CA
:100BF0008C068730904BA740B04BD1F410928906F9
:100C000010928A0610928B0610928C0614BE84B73E
:100C1000877F84BF0FB6F894A895809160008861A3
:100C200080936000109260000FBEE0E0F8E3099549
:100C300012E0A0E0B1E0E2E0F8E602C005900D921B
:100C4000A234B107D9F726E0A2E4B2E001C01D92B8
:100C5000A938B207E1F70E94BE260C94C8330C9461
:100C60000000CF93DF934091870650918806475844
:100C700054409A01205A3F4F21303240C0F020E0CA
:100C800032E0241B350B6091850470918604FC01D1
:100C9000CA01240F351FC1E0D0E08217930750F03E
:100CA0007093860460938504DF91CF91089520E6C8
:100CB00030E0E9CF4491DC01A957BB4F5C91451767
:100CC00081F04C93AC01A5E056954795AA95E1F7C4
:100CD000DE0102C0AA0FBB1F4A95E2F7AD016A2BE5
:100CE000752B01963196D9CFE8EDF0E080818E7FAB
:100CF00080831092E2001092DA001092E100A0EEE0
:100D0000B0E08C9181608C9380818F77808319BC57
:100D1000A7EDB0E08C918E7F8C9380818F7E808355
:100D20001092890308952091E4003091E50095E642
:100D3000A9012091EC00822F817020FF06C08091D4
:100D4000E80080FF06C080E008952091E80022FDC1
:100D50001AC080919703882389F0853089F08091AB
:100D6000EB0085FD0FC02091E4003091E5004217B3
:100D70005307F9F29150E1F684E0089582E0089576
:100D800083E0089581E00895EF92FF920F931F93FF
:100D9000CF937C018B010E949306C82F811117C04D
:100DA0008091E80085FD0BC08091E8008E778093EC
:100DB000E8000E949306882399F3C82F08C0F70122
:100DC00081917F018093F1000150110949F78C2F27
:100DD000CF911F910F91FF90EF900895809199030B
:100DE00087FF13C08091E80082FF06C08091E80071
:100DF0008B778093E80004C0809197038111F2CF34
:100E00000895809197038823D9F38091E80080FFAB
:100E1000F8CF8091E8008E77ECCF982F9093E9007F
:100E2000242F762F50E0891731F07091EC0020913B
:100E3000ED005091F00021FD07C09F5F973071F7E2
:100E40008093E90081E008953091EB003E7F30937C
:100E5000EB003091ED003D7F3093ED003091EB00E1
:100E600031603093EB007093EC002093ED005093D1
:100E7000F0002091EE0027FDE0CF80E00895CF92B2
:100E8000DF92EF92FF920F931F93CF93DF93C8ED02
:100E9000D0E088818F7E8883E7EDF0E080818160FB
:100EA000808384E082BF81E08093890388818E7F84
:100EB000888302EE10E0F80110821092DA0081EED1
:100EC000C82ED12CF601108288818F778883888183
:100ED0008068888388818F7D888319BC10929703EE
:100EE00010929803109296031092950390EEE92EBB
:100EF000F12CF70180818B7F8083888181608883DA
:100F000042E060E080E00E940D07F60180818E7F64
:100F10008083F80180818160808380818860808304
:100F2000F70180818E7F8083888180618883DF9153
:100F3000CF911F910F91FF90EF90DF90CF90089588
:100F4000FC0180919F039091A00386179707A0F062
:100F50006115710529F49091E8009E779093E8005F
:100F600090E06115710551F4911108C08091E8007D
:100F700082FF34C080E00895BC01F2CF80919703D6
:100F80008823C1F18530C1F18091E80083FD30C034
:100F90008091E80082FDEACF8091E80080FFE1CFF8
:100FA0008091F3002091F200382F6115710519F03E
:100FB0002830310558F091E02830310509F090E0F3
:100FC0002091E8002E772093E800CBCF8191809389
:100FD000F100615071092F5F3F4FE7CF8091970378
:100FE000882341F0853041F08091E80083FFBECF37
:100FF00081E0089582E0089583E008950895809146
:101000008C030895CF92DF92EF92FF922FB7F8945E
:10101000C0908203D0908303E0908403F090850316
:101020002FBFA7019601261B370B480B590BCA018E
:10103000B901FF90EF90DF90CF9008952FB7F8940B
:101040006091820370918303809184039091850362
:101050002FBF089520917F0330918003281739070F
:1010600071F09093800380937F03E0917D03F09172
:101070007E03309721F00084F185E02D09940895D6
:1010800020917B0330917C032817390771F09093EE
:101090007C0380937B03E0917D03F0917E03309786
:1010A00021F00680F781E02D0994089520916D03C9
:1010B00036E0839FC0011124629F800D911D112491
:1010C000811522E0920714F090E080E089579B4F51
:1010D00090938806809387060895FC01680F791F16
:1010E0008FEF91E32191822728E030E087FF09C04C
:1010F000880F892721503109C9F7E617F70791F7BB
:101100000895880FF7CFFA01811101C0FB010994FE
:1011100080918004982F9E7F61F48170826080931B
:10112000800480918304813A18F080EA80938304DC
:1011300008958831B0F381708661F1CFAF92BF928C
:10114000DF92EF92FF920F931F93CF93DF93082FBD
:10115000162FE901E42FF0E0E756FB4F611110C0B4
:10116000E4915E2F4E2F4983E8835A83DF91CF911C
:101170001F910F91FF90EF90DF90BF90AF90089577
:10118000E62EF12C4491D42EE42FF0E026E0829F4D
:10119000C00111242FEF30E0B9010E94EF31802F00
:1011A00090E0880F991F55E5569FD001579FB00DCD
:1011B00011248A1B9B0B982F990F890F5901AE1888
:1011C000BF08AE9ED001AF9EB00DBE9EB00D1124E3
:1011D0005B2F189F80011124012F11275901A01A9C
:1011E000B10AAE9E8001AF9E100DBE9E100D11245F
:1011F0005901A81AB108AE9CC001AF9C900DBE9CCD
:10120000900D1124892F9927281B390B2E9FC0017F
:101210002F9F900D3E9F900D1124E92F6230710594
:10122000A1F050F46115710509F49DCF613071058D
:1012300081F0EB2F512F97CF6430710569F080F06A
:101240006630710509F48FCFF4CFE42F4B2F592F5F
:101250008ACFE42F412F87CFEB2F542F492F83CFF5
:101260004B2F5D2DE12F7FCF80E008957894089576
:10127000F894E82FE295EF70F0E031A1282F2F705D
:1012800081E090E001C0880F2A95EAF7982F9095A9
:10129000932391A392A1892B82A30C943609909158
:1012A000F70292FF06C0282F28712830F9F4877FB3
:1012B000846093FF06C0282F28712831F1F4877EBF
:1012C00084612091F80220FF06C0382F3871383031
:1012D000D9F4877F816021FF06C0282F287128312B
:1012E000D1F4877E816194FD877E0895282F247133
:1012F0002430F9F68B7F8860DCCF282F24712431CD
:1013000001F78B7E8861DDCF382F3171313019F7CD
:101310008E7F8860E0CF282F2171213121F78E7ECA
:101320008861E1CFCF93DF93EC018238910581F1A1
:10133000B0F58133910509F491C020F5893291050A
:1013400009F485C08A9709F490C0C11521E5D20738
:1013500008F0AAC0C11530E5D30708F0F2C0CF3BB2
:10136000D10508F089C0C83AD10508F0DFC0C53AF8
:10137000D10508F0D3C0C430D105F8F4C130D1058F
:10138000E1F040C08533910509F45AC0C997E9F6E8
:101390008091F702837089F0C0EED0E00EC0833EEA
:1013A000910599F170F4803E910501F1823E91051D
:1013B00061F68091F70282FD21C0CE01DF91CF91CD
:1013C0000895863E910561F1873E910571F1843E55
:1013D000910509F0BACF8091F80281FFEECF80919C
:1013E000F702C7EED0E084FD0DC0E7CF8091F70291
:1013F00080FDF7C09091F80290FFDFCFC3EED0E000
:1014000084FFDBCFD0E0C0E0D8CF8091F70282FD2F
:10141000EBC09091F80290FDBFCF84FFCECFF2CF0A
:101420008091F70283FDDDCFC8CF8091F70283FD65
:10143000DEC09091F80291FFF0CFC4EED0E0BDCFB6
:101440008091F70285FFB9CFC9E2D0E0B6CF809195
:10145000F70285FFB2CFC5E3D0E0AFCF8091F702AE
:1014600086FFABCFCAE2D0E0A8CF8091F70286FF1B
:10147000A4CFC1E3D0E0A1CFC11540E2D40760F40E
:10148000C11581E0D80708F098CFCE01815E91099F
:10149000079708F492CFB6CFC11590E4D90708F4A6
:1014A000B1CFDF70D06A89CFC11524E5D20778F4B7
:1014B000C11533E5D30708F072C0C11542E5D40762
:1014C00008F05CC0DC2FCC27C16FD06A76CFC11585
:1014D0008AE5D80778F4C11599E5D90708F073C0F3
:1014E000C11528E5D20708F48DCFDC2FCC27C06FBB
:1014F000D06A63CFCE0190568115904208F082CF1A
:101500008D2F8F710E944F0990E0982F8827882790
:101510009F719C012C2BE901D0624FCFC55AD0E0BE
:10152000CC52DE4FC881D0E0D06447CFC85AD0E05B
:10153000CC0FDD1FC952DE4F0990D881C02DD46475
:101540003CCFCE0164E0969587956A95E1F783706C
:101550002C2F26952695237040E2249F900111247C
:10156000382B8C2F8370C1E0D0E002C0CC0FDD1F80
:101570008A95E2F7C22BD32BDC681FCFCE01837094
:10158000992721E030E002C0220F331F8A95E2F74D
:10159000C695C69580E2C89FE0011124EBCFCE012D
:1015A0008370992721E030E002C0220F331F8A9513
:1015B000E2F7C695C69590E2C99FE0011124C22BBF
:1015C000D32BDA68FACE8C2F8F700E944F0934E04B
:1015D000D695C7953A95E1F7CF709C2FEC01D0696D
:1015E000ECCEC9E3D0E0E9CEC2EED0E0E6CEC6EE66
:1015F000D0E0E3CE0C941E0880918A039091A6025D
:10160000892B9091A502892B80934402E0917D0360
:10161000F0917E03309731F00280F381E02D84E475
:1016200092E0099408958091A40290917302981316
:1016300001C008958F5F8770FACF27E0929F800DD9
:101640001124982F977086958695869523E0829F22
:10165000F0011124EE5AFD4F50E040E080E021916E
:1016600030E0092E02C0369527950A94E2F72170E2
:101670003327042E01C0220F0A94EAF7822B4F5F12
:101680005F4F4330510559F7089527E0929F800D31
:101690001124982F977041E001C0440F9A95EAF702
:1016A00086958695869593E0899FF0011124EE5AE0
:1016B000FD4F90E080E070E05191DF0111979B01B8
:1016C000082E02C0369527950A94E2F721702195DD
:1016D0002527242325272C9301968330910561F734
:1016E000089590E080E00E94400890E080E00E9431
:1016F0002A081092A6021092A5020C94FC0A80936C
:10170000E1020C94710B882341F0809590918A033B
:10171000892380938A030C94FC0A0895882339F066
:1017200090918A03982B90938A030C94FC0A089555
:101730008823B1F19CEF980F913A70F4E6E4F2E05F
:101740009191891303C0DF0111971C9242E0EC34A0
:10175000F407B1F70C94FC0A90E2980F983088F4E3
:10176000877021E030E0A90102C0440F551F8A951F
:10177000E2F7CA01809590918A03892380938A03B6
:10178000E9CF9BE5980F933020F490E080E00C9433
:101790004008885A873120F490E080E00C942A08B1
:1017A00008950F931F93CF93C82F882309F469C01E
:1017B0008CEF8C0F813AB0F506E412E08CE492E0F5
:1017C000F8012191C21701F122E0EC34F207C9F7C8
:1017D000EFEF80E0D8019D918D01C91781F0EF3FB7
:1017E00019F4911101C0E82F8F5F863099F7EF3F10
:1017F00031F00E2E000CFF0BEC5BFD4FC283CF913E
:101800001F910F910C94FC0AE6E4F2E02191C213BF
:1018100003C0DF0111971C928E179F07B9F70E9432
:10182000FC0AD6CF80E28C0F883068F4C77021E0C4
:1018300030E001C0220FCA95EAF780918A03822B1B
:1018400080938A03DCCFEBE5EC0FE33050F4F0E05B
:10185000EC52FE4F808190E0CF911F910F910C943C
:101860004008C85AC73168F4EC2FF0E0EE0FFF1FB4
:10187000E952FE4F80819181CF911F910F910C947D
:101880002A08CF911F910F910895982F92959F70DC
:1018900011F0892F94E0282F2695269511F09E5F50
:1018A000822F869509F09F5F892F0895CF93DF934C
:1018B000CDB7DEB762970FB6F894DEBF0FBECDBFCF
:1018C00096E0EBE5F3E0DE01179601900D929A9514
:1018D000E1F796E0FE013796DE011D9601900D922C
:1018E0009A95E1F798858823E9F0962B9E8786E004
:1018F000FE013D96DE01119601900D928A95E1F769
:1019000086E0FE013196ABE5B3E001900D928A9539
:10191000E1F762960FB6F894DEBF0FBECDBFDF9140
:10192000CF91089560959623E1CF809386037093BD
:10193000880360938703809197038430F9F4809340
:10194000E9008FEF9091E800815095FD06C095ED7C
:101950009A95F1F700008111F5CF8091E80085FF9D
:101960000DC050E040E063E070E086E893E00E9444
:10197000C4068091E8008E778093E8000895BC014A
:1019800084E00C94950CBC0183E00C94950C9C01B4
:1019900084E08093E9009FEF8091E800915085FDFD
:1019A00006C085ED8A95F1F700009111F5CF809181
:1019B000E80085FF0CC050E040E066E070E0C9013F
:1019C0000E94C4068091E8008E778093E800089515
:1019D000CF93DF93EC0181E08093E9008FEF90914A
:1019E000E800815095FD06C095ED9A95F1F700004D
:1019F0008111F5CF8091E80085FF14C050E040E0F0
:101A000068E070E0CE010E94C4068091E8008E7705
:101A10008093E80088E0FE01ADE8B3E001900D920C
:101A20008A95E1F7DF91CF910895CF92DF92EF92FF
:101A30000F931F93CF93DF93CDB7DEB7CE5DD10960
:101A40000FB6F894DEBF0FBECDBF609191018091BB
:101A5000800480FF4CC0EEE9F5E09E012F5F3F4F10
:101A60008E0101521F4FC901A4914A2F50E0DA01A3
:101A7000AA0FBB1FA40FB51FAE55BC4FCD90DD9074
:101A8000EC90D901CD92DD92ED929D013196A01797
:101A9000B10751F72091900143E0249F800D911DE3
:101AA0001124539A2BB1277F3BB138605FB7F8946C
:101AB000FC01649FE00DF11D1124BF0186179707FB
:101AC00049F55FBFEFE5F4E03197F1F700C00000A2
:101AD000C252DF4F0FB6F894DEBF0FBECDBFDF910D
:101AE000CF911F910F91EF90DF90CF90089580914B
:101AF00092019091930123E0829FF0011124EE5511
:101B0000FC4F891708F0A7CF1182108212828F5FD5
:101B10003396F7CFDC014D91CD01E8E03BB90000F1
:101B200000C047FF2BB9440F000000C000C000C038
:101B30002BB900C0EA9591F7C1CF0F931F93CF93B4
:101B4000DF9300D00F92CDB7DEB7182F062F80910C
:101B5000800480FF22C09E012F5F3F4F40EA64E671
:101B60008BE20E949E081017C0F48B8199812A8114
:101B700033E0139FF0011124EE55FC4F2183908335
:101B800082831F5F33960113F9CF0E94150D8FE9F1
:101B90009FE00197F1F700C000000F900F900F90A9
:101BA000DF91CF911F910F910895CF93DF93C82FAD
:101BB000D82FD17081FF04C067E084E00E949D0DA2
:101BC000D11104C06FE18CE10E949D0DC2FF06C0DF
:101BD00063E180E1DF91CF910C949D0DDF91CF9176
:101BE0000895E0E8F4E080818E7F8083EAE6F3E008
:101BF0008281816082832FEF80E792E021508040D4
:101C00009040E1F700C000000C94150D9F92AF9238
:101C1000BF92CF92DF92EF92FF920F931F93CF93D9
:101C2000DF937C015B016A018091F20201E010E028
:101C30008A3010F40AE010E0C1E0D0E0F894B50179
:101C4000C701F6010995982E0E943609911004C02B
:101C500021960C171D076CF4892DDF91CF911F91F0
:101C60000F91FF90EF90DF90CF90BF90AF909F903B
:101C70000895CC9F9001CD9F300D300D112490E040
:101C800080E045E34A95F1F700000196821793073B
:101C9000C1F7D4CF8091B302811110C08091D800D8
:101CA00080618093D8008AE18A95F1F700C0809125
:101CB000D90080FF0AC081E08093B30281E0909157
:101CC000B302913009F080E0089582E08093B3027E
:101CD0000E94740610929703F1CF0E944A0E811160
:101CE00003C080917A030895E0917D03F0917E0313
:101CF000309721F00190F081E02D099480E0089563
:101D00001F93CF93DF93182FEB010E94D10B8FE924
:101D10009FE00197F1F700C000002197C1F7812FE4
:101D2000DF91CF911F910C94980B0F931F93CF933A
:101D3000DF9300D000D0CDB7DEB789836A834B83B1
:101D40001C8204E610E024E030E0AE014F5F5F4FFC
:101D500060E084E10E944D2F0F900F900F900F9044
:101D6000DF91CF911F910F91089580918D0188236C
:101D700029F047E669E98BE20C94950E80914D02BB
:101D800047EC6BE18823C1F341E265EA89EDF4CFCA
:101D9000CF92DF92EF92FF920F931F93CF93DF9337
:101DA0006C017B0164E670E088E70E94352EEC014F
:101DB00097FD12C010E000E0F601E00FF11F8491E2
:101DC00064E670E00E94AF2EEC01892B29F40F5FCE
:101DD0001F4F0E151F0581F70E94C92FCE01DF91FD
:101DE000CF911F910F91FF90EF90DF90CF900895CA
:101DF0008091780390917903911103C091E0892734
:101E00000895882369F062E070E08AE29BE00E9416
:101E1000C80E892B19F080917803089510927803E9
:101E200080917803EBCFCF93C091780380917903B1
:101E30008823D1F00E941E086058774C8E4F9F4F28
:101E40006093740370937503809376039093770384
:101E5000C11108C062E070E088E29BE00E94C80EF9
:101E6000892B29F0C09178038C2FCF91089581E0C0
:101E700080937803F7CFCF93DF93C3EED2E060E097
:101E8000CE010E9463322196C11584E0D807B9F7CC
:101E9000DF91CF9108956F927F928F929F92AF9230
:101EA000BF92CF92DF92EF92FF920F931F93CF9347
:101EB000DF938CE2C82E8BE0D82E91ECE92EF12C2A
:101EC000E701CC58D10936011BC0F50185909490EB
:101ED000692DC8010E946332682DC80101960E94D5
:101EE000633282E0A80EB11C0E5F1F4FC017D107EE
:101EF00061F78EE0680E711C2E96CE15DF0529F075
:101F00008E010E5011095301E0CF7E018CE8E80EDE
:101F1000F11C8CE8C80ED11C8DE7E81683E0F806AA
:101F200079F6DF91CF911F910F91FF90EF90DF90A5
:101F3000CF90BF90AF909F908F907F906F900895BB
:101F4000CF93C82F6FEF811161E283E290E00E948E
:101F500063326FEFC11162E184E290E00E9463326C
:101F60006FEFC11161E185E290E0CF910C94633293
:101F700080E00E94A00F60E086E290E00E94633261
:101F80000E944B0F0E943B0F81E00C94A00F0F9317
:101F90001F93CF93DF93C42FD0E0CC0FDD1F2EE033
:101FA000629FC00DD11D11243CE8839FC00DD11D3F
:101FB0001124CE0187960E944F32082F10E0102F77
:101FC0000027CE0188960E944F329801282BC90124
:101FD000DF91CF911F910F910895462F853038F4EE
:101FE0007A3028F4673018F4672F0C94C70F90E00C
:101FF00080E00895CF92DF92FF920F931F93CF93CB
:10200000DF936C010091A1038091E102082BC7E0EE
:10201000D0E010E0FC2EC8010C2E02C095958795EB
:102020000A94E2F780FD0CC02197A0F7F12C8F2DC8
:10203000DF91CF911F910F91FF90DF90CF90089586
:10204000B6018C2F0E94ED0F0E949209019761F357
:10205000EECFCF93DF93EC010E94FA0FBE010E94F6
:10206000ED0FDF91CF910C949209FC018081918159
:102070000E942910292F2F7092959F7092509E30A8
:1020800078F4E92FF0E0E653FC4C0C942332803FC7
:1020900019F020F4883E20F481E00895843FE1F3B4
:1020A00080E00895883EC0F3813FD1F7F5CF822FBD
:1020B000869586958695089583E290E00E944F323A
:1020C000813289F484E290E00E944F32823159F4E7
:1020D00085E290E00E944F3291E0813109F090E07A
:1020E000892F8170089580E0FCCF1F93CF93DF93F9
:1020F000CDB7DEB768970FB6F894DEBF0FBECDBF81
:1021000040915B0350915C0360915D0370915E03AD
:1021100080915F03909160030E949B2220935B0358
:1021200030935C0360935F0370936003142F1195E9
:1021300010935D03652F619560935E0386E0EBE588
:10214000F3E0DE01179601900D928A95E1F786E0A3
:10215000FE013796DE01119601900D928A95E1F706
:102160009B858C8520918D012223B1F07727619585
:102170000CF47095072E000C880B990B0E94CF323F
:102180002AE939E949E95EE30E9433330E94973234
:10219000962F812F60E010E01B836C839D838E83DC
:1021A00086E0FE013196DE011D9601900D928A9522
:1021B000E1F786E0FE013D96DE01539601900D9217
:1021C0008A95E1F786E0FE017396DE011196019093
:1021D0000D928A95E1F786E0FE013196ABE5B3E01A
:1021E00001900D928A95E1F786E0EBE5F3E0DE01E0
:1021F000179601900D928A95E1F786E0E5E5F3E008
:10220000DE01119601900D928A95E1F746E050E0CB
:10221000BE016F5F7F4FCE0107960E943932892B36
:1022200079F0E0917D03F0917E03309749F082E0F0
:1022300080935B030480F581E02D8BE593E00995A5
:1022400010925D0310925E0310925F031092600380
:1022500086E0EBE5F3E0A5E5B3E001900D928A9509
:10226000E1F768960FB6F894DEBF0FBECDBFDF91E1
:10227000CF911F910895E6E4F2E086E0DF011D9220
:102280008A95E9F70C94710B1F93CF93DF93CDB729
:10229000DEB7AA970FB6F894DEBF0FBECDBF89E9AF
:1022A00093E02091F100DC012D93CD01B3E0813A60
:1022B0009B07B9F780919A03833009F472C0B8F490
:1022C000813009F449C0823009F4B5C08091E8003A
:1022D00083FF8DC28091990390919A039A3008F000
:1022E00086C2E92FF0E0E852FC4C0C9423328A308D
:1022F00009F490C08B3009F471C0893039F78091AE
:102300009903813219F780919D0390919E03009764
:1023100011F00297D9F68091E800877F8093E8005A
:102320008091E80082FF38C09091F3008091F20024
:10233000029731F48091F100813011F0863021F460
:102340008091F10080938C038091E8008B778093DB
:10235000E8000E94EE06BACF80919903813A09F015
:10236000B5CF8091E800877F8093E80080919D033E
:1023700090919E03892B61F468E08DE893E070E012
:102380000E94A0078091E8008B778093E8009ECFA1
:1023900060E090E080E0F3CF809197038111C0CF9F
:1023A00095CF80919903813A09F090CF80919D0358
:1023B00090919E03892B09F089CF8091E800877F57
:1023C0008093E8008091E80080FFFCCF8091950128
:1023D0008093F1008091E8008E77B9CF80919903C6
:1023E000813209F073CF80919D0390919E03892BD8
:1023F00009F06CCF8091E800877F8093E8000E940D
:10240000EE0680919B038093950110928A030E94AF
:102410003B115CCF80919903813209F057CF8091B5
:10242000E800877F8093E8000E94EE0680919C037D
:1024300080938B034BCF80919903813A09F046CF6B
:102440008091E800877F8093E8008091E80080FF1A
:10245000FCCF80918B03BCCF803899F0823809F093
:10246000C6C180919D038F70873008F0C0C18093F2
:10247000E9008091EB0085FB882780F91092E90044
:1024800006C080919503909196039111826090917E
:10249000E800977F9093E8008093F1001092F1009C
:1024A0008091E8008E779FC1882309F48DC1823026
:1024B00009F09DC180919B03811190C180919D0382
:1024C0008F702FEF280F263008F091C18093E9001C
:1024D0002091EB0020FF82C1933031F48091EB001A
:1024E00080628093EB007AC19091EB0090619093B1
:1024F000EB0021E030E001C0220F8A95EAF720933B
:10250000EA001092EA008091EB008860EACF811126
:102510006EC110919B031F778091E3008078812B1F
:102520008093E3008091E800877F8093E8000E9419
:10253000EE068091E80080FFFCCF8091E300806888
:102540008093E30082E0111183E0809397034FC1F1
:102550008058823008F04BC120919B0330919C033E
:102560002C3DE3E03E07A1F583E08A838AE289837C
:102570004FB7F894DE01139620E03EE051E2E32FDE
:10258000F0E050935700E49120FF03C0E295EF7014
:102590003F5FEF708E2F90E0EA30C0F0C7968D93CA
:1025A0009D932F5F243159F74FBF8091E800877FBB
:1025B0008093E8006AE270E0CE0101960E94A007D5
:1025C0008091E8008B778093E80011C1C096E7CF37
:1025D00080919D0390919E03432F552743305105D1
:1025E00009F44AC078F54130510509F47AC08BE509
:1025F00090E0ECE2FBE04230510509F0F8C0209198
:10260000E800277F2093E80020919F033091A003EA
:102610008217930708F49C0140E02115310509F069
:1026200065C0411163C08091E80082FDC9CF8091EF
:102630009703882329F2853019F28091E80083FFFF
:10264000F2CFBECF4132510509F43CC042325105B0
:1026500009F0CDC08330910508F0C9C0FC01EE0F30
:10266000FF1FEA5CFD4F0190F081E02D8D5C9D4FD6
:10267000DC018C9190E01AC0332721303105D1F074
:102680002115310561F02230310509F0B0C0E9E9CA
:10269000FBE0E4918E2F90E0E9E9FBE007C0EBEC72
:1026A000FBE0E4918E2F90E0EBECFBE0009709F467
:1026B0009EC0A5CFE9EBFBE0E4918E2F90E0E9EB23
:1026C000FBE0F4CF8330910508F091C0880F991F8B
:1026D000FC01E45CFD4F0190F081E02D89E090E089
:1026E0008ECF82E190E0E7E8FBE089CF809197030D
:1026F000882309F465CF853009F462CF8091E80022
:1027000083FD5ECF8091E80082FD8DCF8091E8004F
:1027100080FF83CF9091F3008091F2002115310565
:1027200019F08830910550F041E0089709F040E039
:102730008091E8008E778093E8006FCF44914093BA
:10274000F1003196215031090196E8CF803809F027
:102750004EC08091E800877F8093E80080919803C5
:102760008093F1009DCE811142C010919B031230E5
:10277000F0F58091E800877F8093E800109398033C
:102780000E94EE06112311F084E005C08091E30061
:1027900087FDFACF81E08093970342E061EC81E00E
:1027A0000E940D0742E261EC84E00E940D0742E2C4
:1027B00061EC82E00E940D0742E260EC83E00E943F
:1027C0000D078091970313C080919B03813079F4AA
:1027D00081E0933009F080E0809396031092E90045
:1027E0008091E800877F8093E8000E94EE06809148
:1027F000E80083FF0AC08091E800877F8093E800AB
:102800008091EB0080628093EB00AA960FB6F8945B
:10281000DEBF0FBECDBFDF91CF911F9108951F93F3
:10282000CF93DF93162FC0918706D09188068A3008
:10283000D1F420916D03CE0187589440622F70E04F
:102840000E94EF31281B822F66E00E940332C82FBE
:10285000C15020F4DF91CF911F91089560E080E294
:102860000E940F14F5CF8D30E9F4C758D440209161
:102870006D03622F70E0CE010E94EF31281B822F82
:102880009E01280F311D2115324018F080E0D0E064
:10289000C0E0C80FD11DC957DB4FD0938806C09345
:1028A0008706D8CF96E0FE01AEE6B3E001900D9228
:1028B0009A95E1F7803E90F186E0FE0111928A95AB
:1028C000E9F7C0918706D0918806111133C046E020
:1028D00050E0BE018EE693E00E9439329E012758F7
:1028E0003440892B91F52A5F3F4F40916D03642F4F
:1028F00070E0C9010E94EF31481B463010F4240FEC
:10290000311D211572E0370710F030E020E0295723
:102910003B4F30938806209387069CCFF6E08F9F2D
:10292000B001112468517A4F46E050E0CE010E9478
:102930003032C7CF9E012A5F3F4FFE012E173F075F
:1029400031F2808180958193F9CFC90145E0969558
:1029500087954A95E1F741E050E0BA0102C0660F61
:10296000771F8A95E2F7CB01609185047091860408
:10297000862B972BB9016B5F7F4FE5E076956795C6
:10298000EA95E1F702C0440F551F6A95E2F7842BE0
:10299000952B9093860480938504A5CFFF920F9387
:1029A0001F93CF93DF93EC01F62EFC0101900020E2
:1029B000E9F78F0101501109C017D10730F0DF91FD
:1029C000CF911F910F91FF9008956F2D89910E94D3
:1029D0000F14F2CFCF92DF92EF92FF926B017C0146
:1029E0000E948808B701A60188E090E0FF90EF9070
:1029F000DF90CF900C947532AF92BF92CF92DF925E
:102A0000EF92FF920F931F93CF93DF9300D00F921B
:102A1000CDB7DEB7082FF62E142FE22E809180045A
:102A200080FF4FC0E82FE695AE2FB0E0A95DBD4F07
:102A30009C9190936A038E7F823009F056C0413A90
:102A400008F040EA9E012F5F3F4F6F2D802F0E94BC
:102A50009E088091800480FF11C02B8139814A81BA
:102A6000809192019091930153E0859FF001112490
:102A7000EE55FC4F891798F10E94150D8091810445
:102A8000801308C0809182048F1104C08091830458
:102A9000811729F080916C03826080936C0300930E
:102AA0008104F092820410938304EE2051F060912F
:102AB00080047091810480918204909183040E942B
:102AC000EA140F900F900F90DF91CF911F910F910B
:102AD000FF90EF90DF90CF90BF90AF90089541832B
:102AE000308322838F5F3396C5CF923039F6E25020
:102AF0008E2F8170D82EE695F0E0E756FA4FA5901C
:102B0000B490C12CBB2460919401C61608F0B4CFD8
:102B10002C2D30E0A29EC001A39E900DB29E900D80
:102B2000112470E00E94EF31802FD11016C0860F63
:102B300040919201420F532F511D9A01220F331FD2
:102B4000240F351F2E553C4F412F113A08F040EA13
:102B50006F2D0E949E08C394D6CF861BE9CFE0E874
:102B6000F4E0438121E1421B08F440E021E062816E
:102B700081810C94FC14E0E8F4E0438121E1420FF0
:102B800008F44FEF21E0628181810C94FC14E0E8AD
:102B9000F4E0628121E1621B08F460E021E04381FE
:102BA00081810C94FC14E0E8F4E0628121E1620F81
:102BB00008F46FEF21E0438181810C94FC14E0E87C
:102BC000F4E0818121E04381628188500C94FC14FF
:102BD000E0E8F4E0818121E043816281885F0C9428
:102BE000FC14CF93C82F0E94450C823081F138F439
:102BF0008823B1F0813021F18C2FCF91089583305B
:102C000059F18430C9F720E040E56FEF8AED0E946A
:102C1000FC1480910001882379F310928D010DC07E
:102C200020E040E56FEF82E30E94FC1480910001F8
:102C3000882399F381E080938D010E94B50EDCCF4B
:102C400020E040E56FEF8CEF0E94FC14D5CF20E030
:102C500040E56FEF80E5F8CF20E040E56FEF86E7D5
:102C6000F3CF0E94F1158093A1030C94710B809116
:102C7000A103982F9670963019F488600C94311641
:102C8000877FFCCF21E030E001C0220F8A95EAF770
:102C900020958091A10382230C94311621E030E02D
:102CA00001C0220F8A95EAF78091A103822B0C9430
:102CB000311680918404882319F081508093840414
:102CC00060918004709181048091820490918304CA
:102CD0000C94EA1480918404833018F48F5F8093FD
:102CE00084046091800470918104809182049091A9
:102CF00083040C94EA149091800490FF27C0917093
:102D000081111DC092609093800480916C0381605A
:102D100080936C03662351F060918004709181046C
:102D200080918204909183040E94EA1420E04091F3
:102D3000830460918204809181040C94FC148C3093
:102D400010F09661E0CF880F982BDDCF0895809129
:102D500080048695815009F48BE061E00C947B1629
:102D60008091800486958F5F8C3008F081E061E06F
:102D70000C947B168091800480FF07C08695825852
:102D80008F77893010F40C94B01661E082E00C94D7
:102D90007B16E0E8F4E083E0808311828FEF82838A
:102DA00080EA83831482AAE6B3E012968C9112978C
:102DB000836012968C9360817181828193810C94DF
:102DC000EA140E942F2E40E060E080E00C94950E03
:102DD00069EE7EEF90E080E00E94813260E082E068
:102DE00090E00E94633260E083E090E00E946332F2
:102DF0001092E10260E084E090E00E94633260E0C3
:102E000082E290E00E94633260E085E090E00E9400
:102E1000633260E086E090E00E9463326FEF87E00B
:102E200090E00E94633240E050E0BA0188E090E018
:102E30000E94753260E08DE090E00E94633240E0D5
:102E400050E0BA0188E190E00E94753260E087E1CD
:102E500090E00E94633240E050E0BA018CE190E0E3
:102E60000E94753270E060E080E290E00E94813262
:102E700040E050E0BA0188E190E00E94753280E0C5
:102E80000E94A00F0E94B80F40E050E0BA018FE00E
:102E900090E00E94753240E050E0BA0183E190E09A
:102EA0000C9475325F926F927F928F929F92AF9245
:102EB000BF92CF92DF92EF92FF920F931F93CF9327
:102EC000DF9300D000D00F92CDB7DEB77C01FC01BC
:102ED00083819481892B31F08081918189238F3F77
:102EE00009F01EC50F900F900F900F900F90DF917B
:102EF000CF911F910F91FF90EF90DF90CF90BF90F7
:102F0000AF909F908F907F906F905F9008950E94F8
:102F1000FA0F182F682F89819A810E94450B6981C9
:102F20007A81812F0E94ED0F8C01F7018281882325
:102F300009F4EAC4C80182519F45409708F071C462
:102F40008FEF93E00E944F32025193EEA92E92E050
:102F5000B92E8111C7CF01113AC01C821B82662491
:102F600063948AE0582E85010F5F1F4FC5010E94B0
:102F70004F3289831A82882309F4B4CF9FEF980FC8
:102F80009330A0F58A83698232E0A30EB11CC80198
:102F90000E944F328B83882309F4A4CF8E010F5FE8
:102FA0001F4FF80120812223F1F2213009F058C08F
:102FB000918182819130E1F40E5F1F4F6AE070E0F1
:102FC000893311F460E570E00E94800E17C0A114EF
:102FD000F4E0BF0609F486CFC5010E944F3281118B
:102FE00001C001502FEFA21AB20AB5CF5801D6CFB7
:102FF000923039F40E5F1F4F0E94D10B0F5F1F4FAD
:10300000D0CF933029F40E5F1F4F0E94980BF6CF5C
:10301000943019F00F5F1F4FF1CF0E5F1F4F30E05C
:1030200020E0B8016F5F7F4FF80141818053990B19
:103030008A30910550F02150310900F38FE99FE06B
:103040000197F1F700C00000F6CF529EF001539EA9
:10305000F00D11249C012E0F3F1F842F8B01E1CF17
:10306000E22FF0E0E754FE4F7490822F869586950C
:10307000869590E0FC01E755FE4FE4902770F12C17
:10308000022E02C0F594E7940A94E2F7E1E0EE2202
:10309000FF24FC01E756FE4FC490D12C022E02C043
:1030A000D594C7940A94E2F7F1E0CF22DD24FC0125
:1030B000E757FE4F8490912C02C0959487942A95EF
:1030C000E2F721E082229924E114F10419F081EE63
:1030D0000E94D10BC114D10419F086EE0E94D10BCD
:1030E00039E36AE070E0731202C060E570E0872D9A
:1030F0000E94800ECD2819F086EE0E94980BEF28D2
:1031000019F081EE0E94980B892809F477CF6AE0C4
:1031100070E08CE259CF81E00E944E1603C081E03E
:103120000E9442160F900F900F900F900F90DF911A
:10313000CF911F910F91FF90EF90DF90CF90BF90B4
:10314000AF909F908F907F906F905F900C94371608
:1031500082E0E2CF053E110509F45DC0043F110590
:1031600009F4D2C0043E110509F085C3882309F48F
:10317000D3C081E080930E037EC30338FFE51F07B1
:10318000E1F1F8F4063F110509F4C4C002383FE547
:10319000130709F070C3882309F46DC381EE0E9400
:1031A000D10B83EE0E94D10B8FE40E94D10B8FE4F0
:1031B0000E94980B83EE0E94980B81EE0E94980B60
:1031C0005AC305384FE5140709F47DC0B0F106383D
:1031D0009FE5190709F04FC3882309F495C0809132
:1031E0004D02882309F486C080EE90E090938F0111
:1031F00080938E0110924D0274C0882309F43BC362
:1032000081EE0E94D10B83EE0E94D10B80E50E94DB
:10321000D10B80E5CDCF80935102109350020093E3
:103220004F02882321F081E080930F0324C3109282
:103230000F0321C380934E02F0CF882379F1809150
:103240004E02882349F080914F020E94980B80EE35
:103250000E94D10B8AE20CC0809151028823D1F3E5
:1032600080914F020E94980B80EE0E94D10B8CE45B
:103270000F900F900F900F900F90DF91CF911F91B3
:103280000F91FF90EF90DF90CF90BF90AF909F9005
:103290008F907F906F905F900C94D10B8AE20E9488
:1032A000980B8CE40E94980B80EE0E94980B809102
:1032B0004E02811105C080915102882309F412CE7B
:1032C00080914F02D5CF8823F9F080918D01811133
:1032D00004C080910001882339F010928D01109272
:1032E00000010E94B50EC7C281E080938D018093DA
:1032F0000001F7CF86E690E090938F0180938E01D6
:1033000081E080934D02EDCF61E00E94560CB3C284
:1033100062E0FBCF64E0F9CF10920E03ACC28823C9
:1033200031F081E08093110310928501A4C21092C4
:103330001103A1C2073C2CE5120709F4AEC008F442
:10334000A7C0083C4CE5140709F4ACC0093C1C4577
:1033500009F0B1C24FEA55E16BEB75E179C0043D6C
:10336000ECE51E07A8F40E3CFCE51F0708F0BACDFB
:103370000C3C2CE5120709F49FC049E556E16AE6CA
:1033800076E10D3C1C4508F463C061E081E046C075
:10339000053D4CE5140709F4A5CD08F492C00D35A0
:1033A0001D4509F49FCD87C28091800480FF31C004
:1033B0008E7F80938004609180047091810480915D
:1033C0008204909183040E94EA1480916C038160CE
:1033D00080936C039FEFE0E7F2E09150E040F04013
:1033E000E1F700C000000F900F900F900F900F902A
:1033F000DF91CF911F910F91FF90EF90DF90CF90D1
:10340000BF90AF909F908F907F906F905F900C9443
:10341000150D81608093800461E086950F900F9078
:103420000F900F900F90DF91CF911F910F91FF9010
:10343000EF90DF90CF90BF90AF909F908F907F9054
:103440006F905F900C947B1647EA56E160EB76E153
:103450000F900F900F900F900F90DF91CF911F91D1
:103460000F91FF90EF90DF90CF90BF90AF909F9023
:103470008F907F906F905F900C94830840EB56E1A3
:1034800067EA76E1E5CF4FED55E168EE75E1E0CF13
:1034900048EE55E16FED75E1DBCF47EC55E163EDAB
:1034A00075E1D6CF43ED55E167EC75E1D1CF4BEB3C
:1034B00055E16FEA75E1CCCF4AE656E169E576E180
:1034C000C7CF0F900F900F900F900F90DF91CF917B
:1034D0001F910F91FF90EF90DF90CF90BF90AF9032
:1034E0009F908F907F906F905F900C94BA160E3DD6
:1034F0001C4509F0E0C10F900F900F900F900F90B6
:10350000DF91CF911F910F91FF90EF90DF90CF90BF
:10351000BF90AF909F908F907F906F905F900C9432
:10352000E816C8010E941D0BD82ED3C1092F0F70B9
:10353000907F11F00295007F812F2223C9F0002394
:1035400069F090E2910F983010F011110BC080914A
:103550008A03082B00938A030E94FC0A812F0E9491
:10356000D10B17C08091A602082B0093A602F4CFBE
:103570000E94980B002369F00095105E183010F03F
:10358000B11027C080918A03082300938A030E9408
:10359000FC0A98E0C91AD108E4E0CE16D10408F07C
:1035A000A1CC0E946D0E0F900F900F900F900F9076
:1035B000DF91CF911F910F91FF90EF90DF90CF900F
:1035C000BF90AF909F908F907F906F905F900C9482
:1035D000D50D8091A60208230093A602D8CF892F8B
:1035E0008F70907F903211F08295807FF1E0BF1252
:1035F0000CC0222329F0333060F60E948E0BC9CF15
:10360000323038F60E94830BC4CF222341F033239B
:10361000A1F340FFA3CF4F70F7014583EECF3323D3
:1036200089F3193309F0F5C0FFEF27EE33E0F150CD
:1036300020403040E1F700C00000812F0E94980B2D
:10364000A8CF892F86958695837061F0813009F027
:10365000A0CF812F9370211102C090E080E00E94E2
:103660002A0897CF812F9370211102C090E080E04B
:103670000E9440088ECF892F8370A1F5211189CF38
:10368000812F829586958770880F880F412F4F7004
:10369000082E01C0440F0A94EAF7212F207114FF6D
:1036A00007C02FE030E001C0220F8A95EAF720958D
:1036B000969596959370923081F0822F842B93305B
:1036C00030F48091E102913029F0242B82230E9472
:1036D0007F0B5FCF842B822BFACF242B8091E102CA
:1036E0008227F5CF8695222311F0892F81708823B8
:1036F00009F44FCF812F829586958770880F880FA8
:10370000412F4F70082E01C0440F0A94EAF7212F71
:10371000207114FF07C02FE030E001C0220F8A950E
:10372000EAF72095969596959370923081F0822FC6
:10373000842B933030F48091A103913029F0242B15
:1037400082230E94311625CF842B822BFACF242B83
:103750008091A1038227F5CF092F0F70222329F032
:10376000802F0E944E16812F48CF812F0E94830BFD
:10377000802F0E9442160DCF812FE1EF1E1789F195
:10378000E11750F0F0EF1F17B9F02223B1F131111A
:10379000E5CE892F8F7129C042EF141749F153EFFD
:1037A0001513F3CF80E0222361F29F7181E001C005
:1037B000880F9A95EAF7C5CF222379F0323008F0C6
:1037C000E8CE292F2F7181E090E001C0880F2A9563
:1037D000EAF79091A1038927B4CF333008F0D9CE0E
:1037E000F0CF892F8F71222321F20E944E16D1CE65
:1037F000892F8F712223C9F3BCCF332379F089330A
:1038000041F48FEF97EEE3E081509040E040E1F724
:1038100012CF8FE39CE90197F1F70DCF892F8F71BC
:10382000A8CF0031FFE51F0709F475CC01312FE562
:10383000120709F48DCC0E941E0860931603709342
:1038400017038093180390931903F7018281053FB2
:10385000110509F45DCD08F090CC013E110509F485
:10386000E9CC08F077CC0C32110509F458CD003EB4
:10387000110509F47BCCF7019281911138CE80912A
:103880008A0382720A3CFCE51F0709F410CE08F097
:1038900066CD053C3CE5130709F4F5CD08F04ACDAB
:1038A000033C5CE5150709F4CFCD08F0E7CD023CF9
:1038B0001C4509F479CDF70100811181992309F4A0
:1038C00030CEC8010E94FA0FD82E682FC8010E947E
:1038D000450BB8018D2D0E94ED0F0E949209182F03
:1038E000B82EF70122814581342F32953F70892F00
:1038F00082958F70C82ED12C8C3008F04ACEF601FC
:10390000EE51FC4C0C94233200313FE5130709F4CF
:1039100006CC01314FE5140709F097CF82E000CCC7
:1039200085E0DE01119601900D928A95E1F7F7018D
:10393000228189819A812111EACA0E941D0B182FC8
:10394000EECA1F93CF93DF9380917202807FA9F418
:1039500080916F02882389F08091A402D091730234
:1039600060916D0270916E02A0917002B09171022F
:10397000C62FC72316E0D81304C0DF91CF911F9143
:10398000089590E0109711F0CF3F19F401968770D9
:10399000F2CF189F9001199F300D1124F901EC58B6
:1039A000FD4F41814713F2CF40814613EFCF428153
:1039B0004111ECCF438154814A1B5B0B403A5105C6
:1039C00028F7809172028F70806180937202F901F2
:1039D000E758FD4F80818F70806180838DE692E093
:1039E0000E945217DF91CF911F910C94130BAF924D
:1039F000BF92CF92DF92EF92FF920F931F93CF93DC
:103A0000DF93CDB7DEB761970FB6F894DEBF0FBE78
:103A1000CDBF8C0185E0F801DE011D9601900D926D
:103A20008A95E1F7F801E2808DE6A82E82E0B82EB3
:103A300060917002709171026115710509F432C1D3
:103A400090916D0240916E02892F84238F3F09F47B
:103A500029C120813181C380D480F0906F02F601AA
:103A6000E61BF70BFF2009F4E8C080917202582F83
:103A7000507FE03AF10508F0ABC0511177C0FE2C41
:103A8000431321C092131FC0E1101DC08F708061CD
:103A900080937202C5010E94521780917202F80150
:103AA00085838F2D61960FB6F894DEBF0FBECDBF14
:103AB000DF91CF911F910F91FF90EF90DF90CF900A
:103AC000BF90AF900895CD2829F0822F83238F3F98
:103AD00009F003C180E0F82FF170DF2E80FF3CC0B9
:103AE0008091A4024091730256E0841315C02D8783
:103AF0003E878D859E850E942910292F22952F7043
:103B00002230F0F0243018F59F70F1F0F801958123
:103B1000907FD1F4D12C1EC090E0589FF001599FA6
:103B2000F00D1124EC58FD4F6181361306C0608101
:103B3000261303C06281E6120FC001968770D5CFAD
:103B40009F7011F0882331F3805E883018F3C8012C
:103B50000E945217FD2CA5CFEE2009F4A2CF809130
:103B60007202816080937202F12C9BCF431306C0D6
:103B7000921304C0F801EE2009F479C0C8010E9434
:103B80003510882309F1EE20F9F08091720280321D
:103B900070F020916D0230916E0238872F83198664
:103BA000DB86CA868C87CE0107960E94521786E074
:103BB000F801ADE6B2E001900D928A95E1F70E941E
:103BC000A11CFF24F3946DCFC8010E945217F9CFB6
:103BD00051110AC08DE692E00E94521786E0F5016D
:103BE00011928A95E9F7C0CF43130FC092130DC00D
:103BF000E1100BC0F8018583C8010E94521786E0CE
:103C0000F50111928A95E9F74CCFC8010E94351051
:103C10008823D1F2EE20C1F280917202803238F214
:103C200020916D0230916E023A8329831B82DD82DE
:103C3000CC828E83CE010196B8CFE03AF105F8F63A
:103C4000FE2CEE2009F243131FC092131DC0809179
:103C5000720280FD10C0982F907F69F0F801858373
:103C6000903F31F0982F907F905F8F70892B8583E4
:103C7000C8010E94521786E0F801ADE6B2E001905B
:103C80000D928A95E1F70DCFC8010E943510811180
:103C90008ECF80917202816080937202C8010E946F
:103CA0005217FFCEEE2009F48FCFC8010E943510C5
:103CB000F82E882309F488CF86E0F801ADE6B2E05B
:103CC00001900D928A95E1F780916D0290916E02BC
:103CD0000E9429100E94A11CE4CE81E08E25FBCE1B
:103CE0001F93CF93DF93CDB7DEB767970FB6F894E6
:103CF000DEBF0FBECDBF4B8B5C8B6D8B7E8B8F8BF6
:103D000061111092A6021A8A198A85E0FE01739643
:103D1000DE011D9601900D928A95E1F786E0FE0185
:103D20003D96DE01179601900D928A95E1F7CE013E
:103D300007960E94F71C882389F016E08091A40260
:103D40009091730289134BC067960FB6F894DEBF4B
:103D50000FBECDBFDF91CF911F91089586E0FE0188
:103D60003796DE01119601900D928A95E1F78A85CA
:103D70009B85892B11F38F81988589238F3FE9F2E9
:103D80002091730230E0C901019687709927409114
:103D9000A4024817190681F410928A030E943B116D
:103DA000109273021092A40286E0EDE6F2E0DF01C9
:103DB0001D928A95E9F7C1CF96E0929FD001939F1B
:103DC000B00D1124AC58BD4FFE01319601900D92FB
:103DD0009A95E1F7809373020E94130BAECF819FF7
:103DE000C00111248C589D4F0E94F71C882309F4B0
:103DF000ABCF8091A40290E00196877099278093C1
:103E0000A4029CCF0F931F93CF93DF9300D000D0D9
:103E1000CDB7DEB76091D9027091DA028091DB02F2
:103E20009091DC020E9402086436710581059105BB
:103E300088F10E944A0E882379F10E941E086E5F65
:103E40007F4F8F4F9F4F69837A838B839C838091B1
:103E50002C0190912D018F539D4F40912B0150E0EB
:103E60004530510510F044E050E0BE016F5F7F4FD8
:103E70000E94463284E090E00E943B31892BD9F4C5
:103E80000E941E086093D9027093DA028093DB02CD
:103E90009093DC0281E010C00E941E080091F302A2
:103EA0001091F4022091F5023091F602600F711F1B
:103EB000821F931FC4CF80E00F900F900F900F9040
:103EC000DF91CF911F910F910895BF92CF92DF9212
:103ED000EF92FF920F931F93CF93DF93B82EEB01D6
:103EE000F42E6901688179818A819B810E94020890
:103EF000643671058105910510F4FF2019F1EB2C52
:103F00000B2C000CFF088B2D9AE08902F001112484
:103F1000EF5FFE4F838194818F539D4F428150E02C
:103F20000417150708F4A801B6010E944632C7011C
:103F30000E943B31892B89F40E941E086883798393
:103F40008A839B8381E0DF91CF911F910F91FF9036
:103F5000EF90DF90CF90BF90089580E0F4CF0F9363
:103F60001F93CF93DF930F92CDB7DEB78091780385
:103F700089832091D80290E041E02817190609F4BE
:103F800040E001E010E09E012F5F3F4F6EEE72E0D7
:103F900089E00E94651F0F90DF91CF911F910F91D3
:103FA00008950F931F93CF93DF93CDB7DEB7289774
:103FB0000FB6F894DEBF0FBECDBF85E0E0E8F4E0B9
:103FC000DE01119601900D928A95E1F780916A03C6
:103FD00090916B03A0916C038E839F83A88741E02F
:103FE0008885811101C040E008E010E09E012F5F4C
:103FF0003F4F6AEE72E088E00E94651F81111092C7
:104000006C0328960FB6F894DEBF0FBECDBFDF91CC
:10401000CF911F910F9108950F931F93CF93DF932B
:104020000F92CDB7DEB70E946D0E898341E090916B
:10403000CF02981301C040E001E010E09E012F5F25
:104040003F4F66EE72E087E00E94651F0F90DF91A0
:10405000CF911F910F9108950F931F9341E090917D
:10406000CD028091A103981301C040E001E010E06F
:1040700021EA33E062EE72E085E00E94651F88234A
:1040800089F041E09091CE028091E102981301C045
:1040900040E001E010E021EE32E06DED72E086E0FC
:1040A0000E94651F1F910F9108956F927F928F92CA
:1040B0009F92AF92BF92CF92DF92EF92FF920F93B7
:1040C0001F93CF93DF930F92CDB7DEB7862E5A01A1
:1040D0006901682E880F7708C3010E943B31892B44
:1040E00009F07BC08AE0869DF001879DF00D1124C8
:1040F000EF5FFE4F458150E04115510511F041E061
:1041000050E08AE0869DF001879DF00D1124EF5F5D
:10411000FE4F668177816F537D4FCE0101960E94DD
:104120004632F50160817181828193810E9402088B
:10413000643671058105910540F4B701C8010E94FC
:104140006D089981891709F44FC0082C000C990853
:10415000C4010E943B31892B91F0B12C8B2D0F9023
:10416000DF91CF911F910F91FF90EF90DF90CF9053
:10417000BF90AF909F908F907F906F9008958AE04E
:10418000889DF001899DF00D1124EF5FFE4F458160
:1041900050E0E416F50608F4A7018AE0889DF001D6
:1041A000899DF00D1124EF5FFE4F668177816F537B
:1041B0007D4FC6010E944632B701C8010E946D08BA
:1041C00099818913CACF0E941E08F501608371830B
:1041D00082839383BB24B394C1CFB12CA701B801D0
:1041E000C6010E944632BACFBB24B394F7CFCF9218
:1041F000DF92EF92FF920F931F93CF93DF9300D044
:1042000000D00F92CDB7DEB76B0185E0E82EF12C20
:1042100002EC12E09E012F5F3F4F49EB52E061E05C
:1042200080E00E945520882349F095E0FE013196F8
:10423000A4EBB2E001900D929A95E1F795E0E4EBE2
:10424000F2E0D60101900D929A95E1F70F900F9050
:104250000F900F900F90DF91CF911F910F91FF90D2
:10426000EF90DF90CF90089590E080E00E945D3263
:10427000893E9E4F11F40C945C1080E008951F92CB
:104280000F920FB60F9211242F933F934F935F938A
:104290006F937F938F939F93AF93BF93CF93DF934E
:1042A000EF93FF93D091E900DF708091EC00C82F6D
:1042B000C17080FDC0E81092E9008091F000877F16
:1042C0008093F00078940E9444111092E90080914C
:1042D000F00088608093F000CD2BCF70C093E90090
:1042E000FF91EF91DF91CF91BF91AF919F918F910E
:1042F0007F916F915F914F913F912F910F900FBEE2
:104300000F901F9018951F920F920FB60F921124C5
:104310002F933F934F935F936F937F938F939F93CD
:10432000AF93BF93EF93FF938091E10082FF09C0A9
:104330008091E20082FF05C08091E1008B7F809335
:10434000E1008091DA0080FF24C08091D80080FFD6
:1043500020C08091DA008E7F8093DA008091D900AE
:1043600080FF9DC080E189BD82E189BD09B400FE66
:10437000FDCF81E08093970380918903811109C06B
:104380000E9474060E943F078091E200846080933F
:10439000E2008091E10080FF17C08091E20080FF81
:1043A00013C08091E2008E7F8093E2008091E20052
:1043B00080618093E2008091D80080628093D80071
:1043C00019BC85E0809397038091E10084FF2BC0A6
:1043D0008091E20084FF27C080E189BD82E189BD30
:1043E00089B5982F917080FFFBCF8091D8008F7D89
:1043F0008093D8008091E1008F7E8093E1008091CE
:10440000E2008F7E8093E2008091E20081608093E1
:10441000E20080919803882309F447C084E08093E8
:104420009703809197038091E10083FF27C08091DB
:10443000E20083FF23C08091E100877F8093E10049
:1044400082E080939703109298038091E1008E7F21
:104450008093E1008091E2008E7F8093E200809162
:10446000E20080618093E20042E060E080E00E9430
:104470000D078091F00088608093F000FF91EF912C
:10448000BF91AF919F918F917F916F915F914F916C
:104490003F912F910F900FBE0F901F90189519BC50
:1044A000109297031092890374CF8091E30087FDE7
:1044B00093E090939703B5CF78941F921FB61F9205
:1044C00011248F939F93AF93BF9380918203909118
:1044D0008303A0918403B09185030196A11DB11DB2
:1044E0008093820390938303A0938403B093850306
:1044F000BF91AF919F918F911F901FBE1F901895F4
:104500009C014FB7F8948091820390918303A0910E
:104510008403B09185034FBF821B930B08952FB77F
:10452000F8948091820390918303A0918403B091C9
:1045300085032FBF0895AF92BF92DF92EF92FF9253
:104540000F931F93CF93DF93CDB7DEB761970FB66D
:10455000F894DEBF0FBECDBF4C87888B998BE52EBC
:10456000D62EF72E5E0127E0A20EB11C85E0F501E4
:1045700011928A95E9F7809169038A3008F095C015
:1045800080916703909168030E948022089708F445
:104590008CC004E610E025E030E0A50164E084E191
:1045A0000E947A2F892B09F0DBC0109269038B855A
:1045B00087FDD1C0E894E0F880916503909166038F
:1045C000009709F0C2C08F819885891708F091C0C3
:1045D000981B892F41E020918E0130918F01889F97
:1045E000C001112455E0589FF001599FF00D11248E
:1045F000E29FB001E39F700DF29F700D1124660FD2
:10460000672F661F770B7195442319F0719561959B
:1046100071098091630390916403680F791F898504
:104620009A85891708F068C0981B892F41E0889FF8
:10463000C001112455E0589FF001599FF00D11243D
:10464000E29FC001E39F900DF29F900D1124880F0F
:10465000892F881F990B9195442319F09195819585
:1046600091092091610330916203820F931F60389A
:1046700071050CF444C06F57710970936403609323
:1046800063033FE7D32E803891050CF44BC08F575E
:10469000910990936203809361039FE7F92E0E9432
:1046A0008F229093680380936703ED86DE86FF86F2
:1046B00086E0FE013C96DE01119601900D928A95EE
:1046C000E1F729813A814B815C816D817E8180E0B7
:1046D00090E061960FB6F894DEBF0FBECDBFDF91BC
:1046E000CF911F910F91FF90EF90DF90BF90AF900F
:1046F0000895891B40E06FCF891B40E098CF613857
:10470000FFEF7F074CF461587F4F70936403609311
:10471000630321E8D22EB7CFD62E109264031092F5
:104720006303B1CF81382FEF92074CF481589F4F2C
:10473000909362038093610381E8F82EB0CFF82E46
:104740001092620310926103AACF019790936603BF
:1047500080936503A4CF6894E0F884E190E0F6CFFD
:10476000809169038F5F8093690399CF9F92AF9285
:10477000BF92CF92DF92EF92FF920F931F93CF934E
:10478000DF93CDB7DEB764970FB6F894DEBF0FBEE8
:10479000CDBF8E010F5F1F4F8AE0D8011D928A9511
:1047A000E9F79CE6C92E91E0D92EF12CE12CAA2440
:1047B000A394B12CF60181916F018F3F09F444C09D
:1047C000F894E82FE295EF70F0E021A18F70A50139
:1047D00002C0440F551F8A95E2F7CA01922F982B09
:1047E00091A392A18095892382A30E94360900C0DB
:1047F000E5E6F1E0912C31E021912F3F09F478C0FA
:10480000A22FA295AF70B0E090968C9190E02F709F
:1048100002C0959587952A95E2F780FD69C0832FA0
:10482000982A330F51E0EC36F50731F7F60131974E
:1048300080818F3F11F00E94380980EA8A95F1F754
:10484000F801EE0DFF1D9082AFEFEA1AFA0AB5E00B
:10485000EB16F10409F0AECF4AE050E0B80189EF61
:1048600092E00E9439327C01892B41F08AE0F80104
:10487000A9EFB2E001900D928A95E1F7109104033F
:10488000E114F104B9F181E08093A9020E948F2222
:104890009093A8028093A7028091A7029091A8020A
:1048A0000E948022069770F0A9EFB2E0E12FF0E0BD
:1048B000E55BFC4F8D91819322E0AE3FB207D1F7CB
:1048C0001092A90281E090E0EF28C1F064960FB643
:1048D000F894DEBF0FBECDBFDF91CF911F910F9136
:1048E000FF90EF90DF90CF90BF90AF909F90089592
:1048F00080E096CF8091A9028111CECF0E944A0E0E
:10490000D82EE0910403882309F4DBC07E0140E146
:10491000E40EF11C85E0D7011D928A95E9F70E2F70
:1049200010E0055B1C4F8091F2028A3008F092C0C3
:1049300047EF50E2B701C8010E94060E882309F430
:10494000ACC041E456E2B701C8010E94060E8823BC
:1049500009F4A3C042E05FE1B701C8010E94060E5E
:10496000882309F49AC04CE250E2B701C8010E94C2
:10497000060E882309F491C04CE050E2B701C8014B
:104980000E94060E882309F488C041ED5FE1B7015B
:10499000C8010E94060E882309F47FC04FEA5FE138
:1049A000B701C8010E94060E882309F476C0109250
:1049B000F2028091030390E045E050E0B701855B8F
:1049C0009C4F0E94393221E02093B202892B09F0DA
:1049D00057C0D12C8CEAE82E82E0F82E10E000E0DF
:1049E000D7018D917D018823D1F08695F80109F4D6
:1049F00065C0E75FFD4F808191819C878B871D8615
:104A00000E948F228160782F9F878E87F7013197D0
:104A100010824B855C856D858F850E94701E0E5FB0
:104A20001F4F04301105E1F66091160370911703D2
:104A300080911803909119030E94020861367A4E02
:104A40008105910528F040E060E080E00E94950E2D
:104A50008D2D3CCF8091AA029091AB020E948022C2
:104A6000843F914008F064CF8091B202882309F41A
:104A7000B0CF85E0F70111928A95E9F71092B20262
:104A8000A0910303B0E0A55BBC4F85E0FE017096EA
:104A900001900D928A95E1F79DCF8091F2028F3FB0
:104AA00031F08F5F8093F2028A3008F482CF0E9447
:104AB0008F229093AB028093AA02D6CFEB5FFD4F7B
:104AC0009ACFF0E0E55BFC4FF89485E0A2ECB2E011
:104AD00001900D928A95E1F765E070E082EC92E03A
:104AE0000E946D088093C1020E943609F894E091FB
:104AF0000C03F0E0E75FFC4F80818B878093C80256
:104B000061E070E0CE010B960E946D088093C702B1
:104B10000E943609F894C090C902D090CA02E09071
:104B2000CB02F090CC028091AE029091AF02A091A6
:104B3000B002B091B102C816D906EA06FB06D1F060
:104B4000C092AE02D092AF02E092B002F092B102F7
:104B50000E944A0E81110EC00E941E08C61AD70A72
:104B6000E80AF90AC092F302D092F402E092F50248
:104B7000F092F6020E943609F8948091CD0280935B
:104B8000A1038091CE028093E1020E943609F8943D
:104B90008091CF0280937A030E943609F894809125
:104BA000D7028823F1F080FF0DC08091D00280FFF2
:104BB00025C09091800491609093800460E0869578
:104BC0000E947B168091D70281FF09C020E04091AE
:104BD000D3026091D2028091D1020E94FC14109203
:104BE000D7020E943609F8948091D802882349F0B0
:104BF0000E94130F0E94360980E068CE0E94F10DDA
:104C0000E1CF0E94F80EF6CFEF92FF920F931F9321
:104C1000CF93DF9300D000D00F92CDB7DEB7162F21
:104C2000E82EF12CC701880F991F662339F1875FA1
:104C30009D4FFC01808191819A83898301E00B83E0
:104C40000E948F228160782F9D838C83F701E45529
:104C5000FD4F0127110F102B108349815A816B8161
:104C60008D810F900F900F900F900F90DF91CF914B
:104C70001F910F91FF90EF900C94701E8B5F9D4FD2
:104C8000D8CFCF92DF92EF92FF920F931F93CF93E3
:104C9000DF930F92CDB7DEB7EE24E394F12C08EC4E
:104CA00012E09E012F5F3F4F4DEB52E063E082E048
:104CB0000E945520082F882321F1C09006038C2DD7
:104CC00090E09C01275F3C4F79011981F9018081B7
:104CD000181BD12E80E00AC0DA94F70180818F5F23
:104CE000808360E08C2D0E940426802F1D14A4F385
:104CF000912F17FD90E0191B11110EC081110E9418
:104D0000FA0A802F0F90DF91CF911F910F91FF90A2
:104D1000EF90DF90CF9008951F5FF7018081815061
:104D2000808361E08C2D0E940426802FE5CF1F92A6
:104D30001FB61F9211248F939F93AF93BF938091BF
:104D40008103811113C08091820390918303A0910C
:104D50008403B09185034196A11DB11D8093820308
:104D600090938303A0938403B0938503BF91AF9185
:104D70009F918F911F901FBE1F901895CDB7DEB7E2
:104D8000E0970FB6F894DEBF0FBECDBF84B7877F24
:104D900084BF0FB6F894A8958091600088618093D5
:104DA0006000109260000FBE80E890E00FB6F894AB
:104DB00080936100909361000FBE85B7806885BFC6
:104DC00085B7806885BF84E399E090934302809320
:104DD00042020E9474060E943F078091E2008460B4
:104DE0008093E2007894809197038823A1F010913A
:104DF000E9001F709091EC00892F817090FD80E890
:104E0000182B1092E9008091E80083FD0E94441164
:104E10001F701093E90082E084BD93E095BD9AEF86
:104E200097BD80936E001092F3021092F4021092DC
:104E3000F5021092F6020E945C10811102C00E94DD
:104E4000B80F0E944A0E91E08927809376018091E5
:104E50007601882309F4C9C01092900185E28093FD
:104E600091010E944A0E81110E942E30809176019C
:104E700081112FC0FE01359686E0DF011D928A95D3
:104E8000E9F786E6898387E98A8386EC8B8384E366
:104E90008C8385E38D833497ACE6B1E0CE010B962D
:104EA00021912D938E179F07D9F787E0E6E9F1E06E
:104EB000DE01919601900D928A95E1F7FE01B1967F
:104EC000A5E6B1E0CE01889621912D938E179F071C
:104ED000D9F78091760195E0811190E090930403D9
:104EE00085E0891B809303030CE611E081E7E82E3F
:104EF00081E0F82EF80181918F018F3F11F00E941F
:104F00003809E016F106B1F705E611E0BCE6EB2E34
:104F1000B1E0FB2ED8018D918D018F3F11F00E94E1
:104F20003809E016F106B1F78AE0EBE4F3E0DF01BF
:104F3000282F1D922A95E9F7E9EFF2E0DF011D9293
:104F40008A95E9F70E943421811102C00E94E81677
:104F500082E090E00E944F328093400384E090E032
:104F60000E944F32182F82E290E00E944F32982F19
:104F7000812F9093F8028093F7020E94B623EFE707
:104F8000FBEB3197F1F700C000000E94B62380913F
:104F90004B0380FF2EC06FEF7FEF90E080E00E9418
:104FA000813281E08093E00080E28093D80010920B
:104FB000C9008FE19EE40197F1F700C0000087E08F
:104FC00090EBDC018093890690938A06A0938B0670
:104FD000B0938C0688E19CE00FB6F894A895809376
:104FE00060000FBE90936000FFCF85E28093900138
:104FF00036CF83E090E00E944F320E947F0B809179
:10500000A1030E94F1150E944A0E811102C00E9464
:10501000313083E080933B0380E280936D030E94F4
:105020002F2E6DE070E08CE492E00E94C80E892B78
:10503000E9F580913B0363E070E081FD05C289E4FE
:1050400092E00E94C80E892B89F56DE070E089E33B
:1050500092E00E94C80E892B49F50E941E086058F4
:10506000774C8E4F9F4F60937403709375038093BA
:10507000760390937703E7E8F4E080E092E0DF01C5
:105080009C011D9221503040E1F7F0938806E09397
:1050900087068FEF9FEF909386048093850481E0CD
:1050A000809379038093780310923C0380910503E9
:1050B000811136C00E943421811104C00E94E8167B
:1050C0000E94C91688E090E00E94573260938004E5
:1050D00070938104809382049093830480916C0385
:1050E000836080936C036E7F71F40E94C91688E020
:1050F00090E00E9457326093800470938104809303
:105100008204909383040E9488088091800480FF29
:1051100004C060E086950E947B1681E080930503C1
:1051200080917601811106C084EF8093840185EF20
:105130008093830120918401A22FA295AF70B0E0EB
:1051400091963C9191972F7081E090E0BC01022EE6
:1051500001C0660F0A94EAF7462F409543239196C3
:105160004C93919792963C919297362B92963C93C2
:10517000929740918301E42FE295EF70F0E031A126
:105180004F70042E01C0880F0A94EAF7982F90956B
:10519000932391A392A1892B82A390968C9190E066
:1051A00002C0959587952A95E2F7817020A130E09D
:1051B00002C0359527954A95E2F792E020FF90E0EE
:1051C000892B80930D039091760181E0982790932D
:1051D0000C03891B809306030E94E11660E08AE0BD
:1051E0000E947B1681E00E94311680EE90E0909341
:1051F0008F0180938E010E94B50E87E791E0909316
:105200007E0380937D03A0E46A2E80919703FF24A0
:10521000F39400E112E1853009F465C10E94B623E0
:10522000E82E81110E941E08FBE42F2EF3E03F2E92
:10523000E1E4F3E0D10110E000E0B02EDD908191D7
:105240008D1509F474C18D25C12CFF24F3949F2D75
:10525000982309F467C10E944A0E882399F0C9A2D5
:10526000BAA2DF2081E009F480E08BA30E948F22A4
:105270008160782F9DA38CA349A15AA16BA18DA118
:105280000E94701EF801EF5BFC4F8081F826F082CF
:1052900080910D03E82FEE0FEE0F90918401A92F5E
:1052A000A295AF70B0E090962C9130E09F7002C054
:1052B000359527959A95E2F72170332790918301D0
:1052C000A92FA295AF70B0E090964C9150E09F70DE
:1052D00002C0559547959A95E2F7CA0181709927C2
:1052E00040FF02C082E090E0822B8E2B80930D0362
:1052F00010910C038F70E82FF0E0E15FFD4F80818B
:1053000090910B03890F80930B03F12C84306CF088
:10531000E12FF0E0E75FFC4F80818F5F808360E0EA
:10532000812F0E940426FF24F39480910B038D3F6C
:105330006CF4E12FF0E0E75FFC4F808181508083C7
:1053400061E0812F0E940426FF24F39480910B03D7
:10535000082E000C990B64E070E00E940F328093DD
:105360000B03F1100E94FA0A80917903882351F10E
:1053700080913D0390913E030E948022C29708F0E5
:10538000EDC020918504309186042115310509F086
:10539000D7C1809178038823A9F00E941E0800914C
:1053A0007403109175032091760330917703601B8D
:1053B000710B820B930B6F3F7F4F8F4F9F4710F402
:1053C0000E94F80EE11001C0F1100E94130F0E941C
:1053D00075100E946D0E90913F03891731F00E9465
:1053E0006D0E80933F030E94D50D8091970384300A
:1053F00009F00BCF83E08093E9008091E80082FF01
:1054000004CF8091E80090E085FF0CC00E949306D5
:1054100030E2E32EF12C8E010F5F1F4F882309F439
:105420006EC291E08091E8008B778093E800992329
:1054300009F4EBCEE981E150E33108F0C4C2F0E0B9
:10544000E251FC4C0C94233286E492E0FACD809138
:105450009703843009F437C080E00E94D50D809115
:105460000803811109C0F0920803809180048170C3
:10547000809307030E94F10D0E94F80E0E947510A0
:105480001092810388E190E00FB6F894A89580937C
:1054900060000FBE6092600083B7817F846083BF2D
:1054A00083B7816083BF7894889583B78E7F83BFED
:1054B0000FB6F894A8958091600088618093600091
:1054C000109260000FBE80919603882361F00E94C5
:1054D000B623EBE4F3E081918111A0C3A5E5B3E02D
:1054E000AE17BF07C1F780919703853009F4AFCF9E
:1054F00010928A030E943B110E946D0E0E94D50DEE
:105500001092080380910703882349F0809180045A
:1055100081608093800460E086950E947B160E94E3
:10552000B50E7CCEC394FF0C27E0C21290CE0F5F65
:105530001F4F0A30110509F080CE8FEF88A789A789
:105540001AA60E948F228160782F9CA78BA748A55E
:1055500059A56AA58CA50E94701E9ACE0E948F2222
:1055600090933E0380933D0360E080E00E945608E4
:105570000E946D0E80931A030E944A0E8823D1F078
:10558000609116037091170380911803909119038D
:105590000E940208613375478105910540F00E9421
:1055A000F80E80917903882309F4F3CEEACE0E94A5
:1055B000130FF7CF61E080E00E94560860E08DE9AC
:1055C00091E00E94CE1462E080E00E945608809133
:1055D000A1030E94450C823009F48CC008F081C000
:1055E000882309F487C0813009F48AC065E080E02F
:1055F0000E94560860E08BEB91E00E94CE1466E0BA
:1056000080E00E94560860911A036695617080ECF4
:1056100091E00E94CE1467E080E00E9456086091FD
:105620001A036095617085EC91E00E94CE1468E0E9
:1056300080E00E94560860911A0362FB662760F9B9
:1056400089EC91E00E94CE146091120370911303D3
:1056500080911403909115030E9402086D327140ED
:105660008105910508F49DCF0E941E0860931203E6
:105670007093130380931403909315038091110387
:10568000811104C080918501811142C06DE080E0EC
:105690000E94560860E08EEC91E00E94CE146AE011
:1056A00080E00E94560881E080938501809110037C
:1056B00090E00196817099278093100321E030E0FB
:1056C000281B390B40E6429FC001439F900D1124D7
:1056D00020910F03222351F187529C4F0E943106E3
:1056E00060CF833089F0843009F080CF60E08FEAAA
:1056F00091E003C060E083EA91E00E94CE1476CF8F
:1057000060E089EA91E0F9CF60E085EB91E0F5CFC8
:105710006AE080E00E94560860E08EEC91E00E9412
:10572000CE146BE080E00E945608C0CF20910E039B
:10573000222319F0875E9C4FD1CF875A9D4FCECF41
:1057400080913C0361E070E0811123CE082F10E0CE
:105750002B01082E02C0440C551C0A94E2F7A90143
:1057600044215521452B09F448C090913B0390FDFD
:1057700046C08295880F807680938801980136957F
:1057800027953695279520938B01815E809389011B
:1057900010928C0124E630E047E050E066E871E0CA
:1057A00088E70E94262F892B09F0F3CDA80175E028
:1057B000440F551F7A95E1F780913B0380FD2DC082
:1057C00049575B4F04E610E020E230E060E488E7F0
:1057D0000E944D2F892B09F0DCCD0E94130FC201CE
:1057E00080959095409085045090860448225922D7
:1057F0005092860440928504CCCD8F5FA7CF880F4E
:10580000880F880F8093880110928B01895F8093A5
:10581000890183E080938C01BDCFEBE1F3E080E26E
:10582000DF011D928A95E9F7E3E2F2E0F8ABEFA71A
:105830000FE112E067E0A62E99249394AFA5B8A9D2
:105840006D91B8ABAFA7F80181918F01840F952FAF
:10585000911D9C0129573B4F3EA72DA7E62FF0E055
:10586000E55EFC4F30E020E07A2C721AB92C022E53
:1058700001C0BB0C0A94EAF7CDA4DEA490E0D601E7
:105880008D916D018B21672D691B6770862E062E09
:10589000000C770BB82F01C0BB0F8A94EAF78B2E50
:1058A0007195619571096770772701C086956A9532
:1058B000EAF7882A8081882A80829F5F9830F9F6EB
:1058C0002F5F3F4F31962830310571F6E7E2F2E065
:1058D0002FA538A9E217F30709F0B0CF04E610E0CE
:1058E00020E230E04BE153E071CF8091F100D8012C
:1058F0008D938D01B1E0EB1AF10809F492CD8091FE
:10590000E80085FDF2CF8091E8008B778093E80076
:105910000E949306882399F384CD1A8289E08B83B1
:1059200011C08A81823009F491C1833091F18130B4
:1059300009F049C00E941E080E9429326B837C83B3
:105940008D839E8380919703843009F05ECC109103
:10595000E9001F709091EC00892F817090FD80E824
:10596000182B82E08093E9008091E80080FF0DC051
:1059700050E040E060E270E0CE0101960E94C40673
:105980008091E8008E778093E8001F701093E90003
:105990003CCCFE013396D1018D911D018193B5E57B
:1059A0002B16B3E03B06B9F7CDCF8A81823059F48C
:1059B0006B817C818D819E810E94293286E290E0FC
:1059C0000E946332BFCF8FEF8983BCCF4C816B8144
:1059D0008A810E94C70F9827892798279E838D83E5
:1059E000B1CFED80FE80FE24EF24FE248A810B815E
:1059F000EEE00E9F80011124FCE88F9F000D111D29
:105A000011248C8190E0880F991F080F191F6F2DAA
:105A1000C80187960E9463326E2DC8018896D0CF48
:105A20000E944B0F8FCF8A818138C1F060F480389B
:105A300009F088CF20E04B8160918204809181043D
:105A40000E94FC147FCF8238E9F0833809F07ACFC6
:105A500020E0409183046C818B81F2CF60E08B81E8
:105A60000E947B168B81811103C00E94F10D6ACFC9
:105A70008091800481608093800460E086950E941C
:105A80007B1660CF8B81809384045CCF8A818138C0
:105A900099F030F4803809F055CF809183043FCFDE
:105AA000823891F0833809F04DCF809181048B8347
:105AB000809182048C8346CF8091800480FF02C055
:105AC00086952DCF80E02BCF8091840428CF6091E4
:105AD00080047091810480918204909183040E94DB
