:100000000C9449060C9490060C9490060C94D733EB
:100010000C9490060C9490060C9490060C94900608
:100020000C9490060C9490060C94001B0C94BC1A33
:100030000C9437280C9490060C9490060C9490061F
:100040000C9490060C9490060C9490060C949006D8
:100050000C9490060C94D71B0C9490060C9490066C
:100060000C9490060C9490060C9490060C949006B8
:100070000C9490060C9490060C9490060C949006A8
:100080000C9490060C9490060C9490060C94900698
:100090000C9490060C9490060C9490060C94900688
:1000A0000C9490060C9490060C94900637032B64E5
:1000B000AAFF000000001C032B64AAFF0000000040
:1000C00004032B64AAFF000000000000D7FF78FFA4
:1000D00000000000000080FF64FF0000000000003E
:1000E0005FFF5AFF000000000000FCFF7DFF0000E2
:1000F000000000005FFF5AFF000000000501090238
:10010000A10185020901A1000509190129081500AD
:100110002501950875018102050109300931158114
:10012000257F95027508810609381581257F95017F
:1001300075088106050C0A38021581257F95017521
:10014000088106C0C005010980A101850319012AA3
:10015000B700150126B700950175108100C0050C88
:100160000901A101850419012AA002150126A00296
:10017000950175108100C00660FF0961A101096247
:10018000150026FF009520750881020963150026D9
:10019000FF00952075089102C005010906A101051F
:1001A0000719E029E71500250195087501810295D9
:1001B00001750881010507190029FF150026FF00B8
:1001C0009506750881000508190129059505750131
:1001D0009102950175039101C0000000000000002C
:1001E000000000000000000000000000000000000F
:1001F000000000000000000000000000007E0F0072
:10020000D4FFFFFFC70000007800000000000000DE
:10021000002A2B2800000000000000000000000061
:100220000000000029000000002C1E3420212224A0
:10023000342627252E362D3738271E1F202122232E
:100240002425263333362E37381F040506070809C0
:100250000A0B0C0D0E0F1011121314151617181986
:100260001A1B1C1D2F3130232D35040506070809E4
:100270000A0B0C0D0E0F1011121314151617181966
:100280001A1B1C1D2F3130354C00DA02815AD9F16E
:10029000DB20A4A62EAF00A0C000A1C800AED58070
:1002A000A81FD300408D142000F200E800DE00D427
:1002B00000CA00C000B600AC000000000000000052
:1002C0000000000000E0F0F0F8F8CCCCF8F8F0F016
:1002D00060000000000000000000000000000000BE
:1002E00000000000000F3F7FFCF9F1E1C181000038
:1002F00000000000000000000000000000000000FE
:100300000C387060E0E0F0F0F8F9FFFFFFFFFF7ECF
:100310001C000000000000000000000000000000C1
:100320000000000000E0F0F0F8F8CCCCF8F8F0F0B5
:10033000600000000000000000000000000000005D
:1003400000000000000F3F7FFCF9F1E1C1810000D7
:10035000010102060C040000000000000000000083
:1003600000387C60E0E0F0F0F8F9FFFFFFFFFF7E6F
:100370001C00000000000000000000000000000061
:10038000000000000000000000000000000000006D
:100390000000000000000000000000000000CCF899
:1003A00070000000000000C0F0F8F87CFCEEE6FCF5
:1003B000FC7878B00000000000000000003F7FF1F2
:1003C000F8F87C7CF8F0F0F1E7EFEFFEFEFEFCFCC5
:1003D000F8F06000010306020000000000000000C9
:1003E000000000000000000000000000000000000D
:1003F0000000000000000000000000000080E0F8A5
:100400001C000000000000C0F0F8F87CFCEEE6FCE8
:10041000FC7878300000000000000000003F7FF012
:10042000F8F87C7CF8F0F0F1E7EFEFFEFEFEFCFC64
:10043000F8F0600000000000000000000000000074
:1004400080C0C0E0E03070E0E0C0C080000000008C
:100450000000000000000000000000000000001F7D
:100460007FFFFFE7E7EFEFCFCB83830100000000C2
:1004700000000000000000000000000000061C3822
:1004800078F1E3E3E7F7F7FFFFFFFF7F3E000000AF
:10049000000000000000000000000000000000005C
:1004A0000000000000000000000000000080C0E02C
:1004B000E060E0C0C080800000000000000000009C
:1004C0000000000020F8FEFFFFFF9F0F0E1F1F3FE0
:1004D0003F7EE683030F43439088080000031E3CE1
:1004E00078F0E0E0F0F0FBFFFFFF7F7F38000000D6
:1004F0000000000000000000000000000004F6B84A
:10050000F8D8F0E0C000000080C0E0E0F0F0F0F0CB
:10051000E0E0C080000000000000000080C0E1F3C7
:10052000FB7F1F0F0000F0FFFF3F03010000008072
:10053000C1F3FF7F1F000080C0E0301E3F3F7FF906
:10054000F0F070783C3F1F0F03000000001C3F7F5D
:100550007FFBF1F0783C1E0F030000000101010158
:10056000010101010102020202020202020203036E
:10057000030303030303040404040404040505053E
:100580000505060606060607070707070808080800
:10059000090909090A0A0A0B0B0B0C0C0C0D0D0DAD
:1005A0000E0E0E0F0F0F1010111111121213131443
:1005B00014151516161717181819191A1A1B1B1CBB
:1005C0001D1D1E1E1F202021222223242425262615
:1005D000272829292A2B2C2D2D2E2F30313232334A
:1005E0003435363738393A3B3C3D3E3F4041424353
:1005F0004445464748494A4C4D4E4F505153545537
:100600005658595A5B5D5E5F616264656668696BE6
:100610006C6D6F7072737577787A7B7D7E80828364
:100620008587888A8C8E8F91939596989A9C9EA0A8
:10063000A2A3A5A7A9ABADAFB1B3B5B7BABCBEC0B5
:10064000C2C4C6C9CBCDCFD1D4D6D8DBDDDFE2E47E
:10065000E7E9EBEEF0F3F5F8FAFDFFFFAA7F55406E
:100660001C1004010D190A24232221201F1E1D1B0A
:100670001A18171615141312110F0E0C0B09080770
:1006800006050302002D3945483C303F2526272822
:10069000292A2B2C2E2F31323334353637383A3B3A
:1006A0003D3E404142434446474907087F08070012
:1006B0003E5B4F5B3E003E6B4F6B3E001C3E7C3E04
:1006C0001C00183C7E3C18001C577D571C001C5E0B
:1006D0007F5E1C0000183C180000FFE7C3E7FF0026
:1006E000001824180000FFE7DBE7FF0030483A0657
:1006F0000E00262979292600407F05050700407F46
:1007000005253F005A3CE73C5A007F3E1C1C080070
:10071000081C1C3E7F0014227F2214005F5F005FD4
:100720005F0006097F017F00006689956A006060AE
:100730006060600094A2FFA2940008047E04080098
:1007400010207E20100008082A1C0800081C2A0817
:1007500008001E10101010000C1E0C1E0C0030386B
:100760003E383000060E3E0E06000000000000007D
:1007700000005F000000000700070000147F147FE6
:100780001400242A7F2A12002313086462003649C9
:1007900056205000000807030000001C2241000002
:1007A0000041221C00002A1C7F1C2A0008083E0869
:1007B00008000080703000000808080808000000E9
:1007C000606000002010080402003E5149453E00D0
:1007D00000427F4000007249494946002141494D8D
:1007E00033001814127F10002745454539003C4A54
:1007F000494931004121110907003649494936006C
:10080000464949291E000000140000000040340041
:1008100000000008142241001414141414000041B4
:10082000221408000201590906003E415D594E009C
:100830007C1211127C007F49494936003E414141FA
:1008400022007F4141413E007F49494941007F09E3
:10085000090901003E41415173007F0808087F00EB
:1008600000417F4100002040413F01007F081422E9
:1008700041007F40404040007F021C027F007F0417
:1008800008107F003E4141413E007F0909090600F2
:100890003E4151215E007F091929460026494949F8
:1008A000320003017F0103003F4040403F001F2012
:1008B00040201F003F4038403F006314081463008D
:1008C0000304780403006159494D4300007F41410E
:1008D0004100020408102000004141417F00040251
:1008E00001020400404040404000000307080000AF
:1008F0002054547840007F2844443800384444440D
:100900002800384444287F00385454541800000804
:100910007E09020018A4A49C78007F0804047800D3
:1009200000447D4000002040403D00007F102844EE
:10093000000000417F4000007C04780478007C08BF
:1009400004047800384444443800FC182424180077
:1009500018242418FC007C0804040800485454544B
:10096000240004043F4424003C4040207C001C2020
:1009700040201C003C4030403C00442810284400EB
:100980004C9090907C004464544C440000083641E4
:10099000000000007700000000413608000002015E
:1009A000020402003C2623263C0000000000000058
:1009B000404040F0F8F8FF38FFF8F83FF8F8FF380B
:1009C000FFF8F8F040404000000000000080C0C088
:1009D000C0800000C0C08000000080C0C000C0C057
:1009E000000080C0C00000000000C0C0C0C0C00047
:1009F000C0C0000000000000000000000000000077
:100A000000000000000000000000000000000000E6
:100A100000000000000000000000000000000000D6
:100A2000000000000000000000C0F0F8FC3E1E06C0
:100A3000010000007F4141417F007F4141417F0033
:100A40000080C0E07E5B4F5BFEC00000C000DCD7D2
:100A5000DEDEDED7DC00C000000000000000000089
:100A60000000000000000000000000000000000086
:100A7000494949FFFFFFFFE0DFBFBF00BFBFDFE025
:100A8000FFFFFFFF49494900000000001F3F606071
:100A9000E0BF1F007F7F071E381E077F7F007F7F1C
:100AA0000E1F3B716000000000007F7F0C0C0C00EB
:100AB0007E7E007F7E0303007F7E03037E7E030332
:100AC0007F7E000F3E703C063C703E0F00327B493B
:100AD000493F7E007F7E0303001E3F69696F260049
:100AE000000000000000000000030F1F3F3C787072
:100AF000600000007F4141417F007F4141417F0014
:100B0000307B7F7830202030787F3B0003000F7FE0
:100B10000F0F0F7F0F000300000000000000000017
:100B200000000000000000000000000000000000C5
:100B3000010101070F0F7F0F7F0F0F7E0F0F7F0F38
:100B40007F0F0F07010101000000000000000000FE
:100B50000001010000000000000000000000000093
:100B60000000000000000000000000000000000085
:100B70000000000000000000000000000000000075
:100B80000000000000000000000000000000000065
:100B90000000000000000000000000000000000055
:100BA0000000000000000000000000000000000045
:100BB0000000000000000000000000000000000035
:100BC0000000000000000000000000000000000025
:100BD0000000000000000000000000000000000015
:100BE0000000000000000000000000AF00AE09029D
:100BF0005B00030100A0FA090400000103010100E9
:100C00000921110100012240000705810308000AA3
:100C10000904010002030000000921110100012262
:100C200022000705820320000107050303200001BD
:100C30000904020001030000000921110100012242
:100C40007B000705840320000A1201000200000057
:100C50000832FC87120200010200011E0353006FDC
:100C6000006C00610072006900750073005F005342
:100C7000006F0066006C006500000010034B00650B
:100C8000007900680069007600650000000403092F
:100C9000040011241FBECFEFDAE0DEBFCDBF04B6E3
:100CA00003FE27C08091800690918106A091820664
:100CB000B09183068730904BA740B04BD1F410928F
:100CC000800610928106109282061092830614BE4E
:100CD00084B7877F84BF0FB6F894A8958091600091
:100CE000886180936000109260000FBEE0E0F8E33E
:100CF000099512E0A0E0B1E0E6ECFEE602C0059046
:100D00000D92AE32B107D9F726E0AEE2B2E001C0F3
:100D10001D92A038B207E1F70E945E280C941D379F
:100D20000C940000CF93DF9340917E0650917F0694
:100D30004E5754409A01205A3F4F21303240C0F064
:100D400020E032E0241B350B60917C0470917D041F
:100D5000FC01CA01240F351FC1E0D0E082179307C0
:100D600050F070937D0460937C04DF91CF910895DF
:100D700020E630E0E9CF4491DC01A258BB4F5C9102
:100D8000451781F04C93AC01A5E056954795AA957F
:100D9000E1F7DE0102C0AA0FBB1F4A95E2F7AD01E1
:100DA0006A2B752B01963196D9CFE8EDF0E0808162
:100DB0008E7F80831092E2001092DA001092E100A0
:100DC000A0EEB0E08C9181608C9380818F778083DE
:100DD00019BCA7EDB0E08C918E7F8C9380818F7EC3
:100DE000808310925E0408952091E4003091E50024
:100DF00095E6A9012091EC00822F817020FF06C0AA
:100E00008091E80080FF06C080E008952091E8000E
:100E100022FD1AC080916C04882389F0853089F006
:100E20008091EB0085FD0FC02091E4003091E5003A
:100E300042175307F9F29150E1F684E0089582E0F9
:100E4000089583E0089581E00895EF92FF920F9353
:100E50001F93CF937C018B010E94F406C82F811150
:100E600017C08091E80085FD0BC08091E8008E7767
:100E70008093E8000E94F406882399F3C82F08C0E5
:100E8000F70181917F018093F1000150110949F729
:100E90008C2FCF911F910F91FF90EF90089580912B
:100EA0006E0487FF13C08091E80082FF06C0809126
:100EB000E8008B778093E80004C080916C04811176
:100EC000F2CF089580916C048823D9F38091E800D3
:100ED00080FFF8CF8091E8008E77ECCF982F909329
:100EE000E900242F762F50E0891731F07091EC0043
:100EF0002091ED005091F00021FD07C09F5F9730D9
:100F000071F78093E90081E008953091EB003E7F16
:100F10003093EB003091ED003D7F3093ED00309148
:100F2000EB0031603093EB007093EC002093ED0008
:100F30005093F0002091EE0027FDE0CF80E008956F
:100F4000CF92DF92EF92FF920F931F93CF93DF9395
:100F5000C8EDD0E088818F7E8883E7EDF0E0808166
:100F60008160808384E082BF81E080935E04888119
:100F70008E7F888302EE10E0F80110821092DA0072
:100F800081EEC82ED12CF601108288818F7788835C
:100F900088818068888388818F7D888319BC1092BE
:100FA0006C0410926D0410926B0410926A0490EE1F
:100FB000E92EF12CF70180818B7F8083888181600D
:100FC000888342E060E080E00E946E07F601808145
:100FD0008E7F8083F801808181608083808188603A
:100FE0008083F70180818E7F808388818061888300
:100FF000DF91CF911F910F91FF90EF90DF90CF90F5
:101000000895FC01809174049091750486179707E8
:10101000A0F06115710529F49091E8009E779093F6
:10102000E80090E06115710551F4911108C08091BC
:10103000E80082FF34C080E00895BC01F2CF8091C7
:101040006C048823C1F18530C1F18091E80083FDF3
:1010500030C08091E80082FDEACF8091E80080FFF7
:10106000E1CF8091F3002091F200382F61157105D6
:1010700019F02830310558F091E02830310509F099
:1010800090E02091E8002E772093E800CBCF81916B
:101090008093F100615071092F5F3F4FE7CF80913E
:1010A0006C04882341F0853041F08091E80083FF93
:1010B000BECF81E0089582E0089583E00895809195
:1010C000610408952FB7F894609157047091580403
:1010D0008091590490915A042FBF0895209154048F
:1010E000309155042817390771F090935504809377
:1010F0005404E0915204F0915304309721F000849D
:10110000F185E02D09940895209150043091510407
:101110002817390771F09093510480935004E0919F
:101120005204F0915304309721F00680F781E02DAE
:10113000099408952091430436E0839FC00111244F
:10114000629F800D911D1124811522E0920714F0F9
:1011500090E080E082589B4F90937F0680937E06BC
:101160000895883E9105C8F4803E910548F48B327D
:10117000910540F48832910518F404974A9758F481
:1011800080E008958C32910530F089339105C0F3E9
:1011900084369105A9F381E011C0811522E59207FB
:1011A00070F48115E1E59E0758F790548115904140
:1011B00090F7FB019581907F81E011F308958115EF
:1011C00028E5920740F38115E9E59E0728F090563F
:1011D0008115904270F3DFCFFB019581907F81E014
:1011E000903271F6EBCFFC01680F791F8FEF91E31E
:1011F0002191822728E030E087FF09C0880F8927E6
:1012000021503109C9F7E617F70791F70895880FBC
:10121000F7CFFA01811101C0FB0109948091770495
:10122000982F9E7F61F48170826080937704809113
:101230007A04813A18F080EA80937A04089588311C
:10124000B0F381708661F1CFAF92BF92DF92EF92DF
:10125000FF920F931F93CF93DF93082F162FE9016F
:10126000E42FF0E0E55AFA4F611110C0E4915E2FCF
:101270004E2F4983E8835A83DF91CF911F910F91BD
:10128000FF90EF90DF90BF90AF900895E62EF12C85
:101290004491D42EE42FF0E026E0829FC001112477
:1012A0002FEF30E0B9010E945135802F90E0880F78
:1012B000991F55E5569FD001579FB00D11248A1BE9
:1012C0009B0B982F990F890F5901AE18BF08AE9E3E
:1012D000D001AF9EB00DBE9EB00D11245B2F189FA4
:1012E00080011124012F11275901A01AB10AAE9EC5
:1012F0008001AF9E100DBE9E100D11245901A81A39
:10130000B108AE9CC001AF9C900DBE9C900D112405
:10131000892F9927281B390B2E9FC0012F9F900DD5
:101320003E9F900D1124E92F62307105A1F050F419
:101330006115710509F49DCF6130710581F0EB2FC6
:10134000512F97CF6430710569F080F066307105D8
:1013500009F48FCFF4CFE42F4B2F592F8ACFE42FEE
:10136000412F87CFEB2F542F492F83CF4B2F5D2D4C
:10137000E12F7FCF80E0089578940895F894E82FC6
:10138000E295EF70F0E031A1282F2F7081E090E01E
:1013900001C0880F2A95EAF7982F9095932391A37F
:1013A00092A1892B82A30C94BC099091D60292FF42
:1013B00006C0282F28712830F9F4877F846093FFB6
:1013C00006C0282F28712831F1F4877E846120918E
:1013D000D70220FF06C0382F38713830D9F4877F04
:1013E000816021FF06C0282F28712831D1F4877E23
:1013F000816194FD877E0895282F24712430F9F6A9
:101400008B7F8860DCCF282F2471243101F78B7EFD
:101410008861DDCF382F3171313019F78E7F8860C8
:10142000E0CF282F2171213121F78E7E8861E1CF15
:10143000CF93DF93EC018238910581F1B0F58133D0
:10144000910509F491C020F58932910509F485C010
:101450008A9709F490C0C11521E5D20708F0AAC007
:10146000C11530E5D30708F0F2C0CF3BD10508F035
:1014700089C0C83AD10508F0DFC0C53AD10508F0E7
:10148000D3C0C430D105F8F4C130D105E1F040C07B
:101490008533910509F45AC0C997E9F68091D602BF
:1014A000837089F0C0EED0E00EC0833E910599F1C3
:1014B00070F4803E910501F1823E910561F68091C4
:1014C000D60282FD21C0CE01DF91CF910895863EE4
:1014D000910561F1873E910571F1843E910509F016
:1014E000BACF8091D70281FFEECF8091D602C7EEAE
:1014F000D0E084FD0DC0E7CF8091D60280FDF7C01B
:101500009091D70290FFDFCFC3EED0E084FFDBCF16
:10151000D0E0C0E0D8CF8091D60282FDEBC09091A0
:10152000D70290FDBFCF84FFCECFF2CF8091D602FD
:1015300083FDDDCFC8CF8091D60283FDDEC09091C0
:10154000D70291FFF0CFC4EED0E0BDCF8091D6029C
:1015500085FFB9CFC9E2D0E0B6CF8091D60285FF32
:10156000B2CFC5E3D0E0AFCF8091D60286FFABCF3C
:10157000CAE2D0E0A8CF8091D60286FFA4CFC1E313
:10158000D0E0A1CFC11540E2D40760F4C11581E0DD
:10159000D80708F098CFCE01815E9109079708F42B
:1015A00092CFB6CFC11590E4D90708F4B1CFDF7060
:1015B000D06A89CFC11524E5D20778F4C11533E587
:1015C000D30708F072C0C11542E5D40708F05CC02B
:1015D000DC2FCC27C16FD06A76CFC1158AE5D8073A
:1015E00078F4C11599E5D90708F073C0C11528E54D
:1015F000D20708F48DCFDC2FCC27C06FD06A63CF21
:10160000CE0190568115904208F082CF8D2F8F71B8
:101610000E94D50990E0982F882788279F719C0108
:101620002C2BE901D0624FCFC55AD0E0C154DE4F18
:10163000C881D0E0D06447CFC85AD0E0CC0FDD1FBE
:10164000CE53DE4F0990D881C02DD4643CCFCE015B
:1016500064E0969587956A95E1F783702C2F26951F
:101660002695237040E2249F90011124382B8C2F63
:101670008370C1E0D0E002C0CC0FDD1F8A95E2F795
:10168000C22BD32BDC681FCFCE018370992721E0BA
:1016900030E002C0220F331F8A95E2F7C695C69547
:1016A00080E2C89FE0011124EBCFCE01837099271F
:1016B00021E030E002C0220F331F8A95E2F7C69581
:1016C000C69590E2C99FE0011124C22BD32BDA68A2
:1016D000FACE8C2F8F700E94D50934E0D695C7952D
:1016E0003A95E1F7CF709C2FEC01D069ECCEC9E3BD
:1016F000D0E0E9CEC2EED0E0E6CEC6EED0E0E3CE5A
:101700000C94620880915F0490919102892B9091D2
:101710009002892B80933002E0915204F09153049F
:10172000309731F00280F381E02D80E392E009945C
:10173000089580918F0290915E02981301C00895E0
:101740008F5F8770FACF27E0929F800D1124982F2A
:10175000977086958695869523E0829FF0011124E7
:10176000E35CFD4F50E040E080E0219130E0092E45
:1017700002C0369527950A94E2F721703327042E8C
:1017800001C0220F0A94EAF7822B4F5F5F4F43306C
:10179000510559F7089527E0929F800D1124982F45
:1017A000977041E001C0440F9A95EAF786958695B7
:1017B000869593E0899FF0011124E35CFD4F90E052
:1017C00080E070E05191DF0111979B01082E02C06B
:1017D000369527950A94E2F7217021952527242331
:1017E00025272C9301968330910561F7089590E0A9
:1017F00080E00E94840890E080E00E946E081092D1
:101800009102109290020C94820B809392020C949D
:10181000F70B882341F0809590915F048923809392
:101820005F040C94820B0895882339F090915F0433
:10183000982B90935F040C94820B08958823B1F148
:101840009CEF980F913A70F4E2E3F2E091918913E2
:1018500003C0DF0111971C9242E0E833F407B1F7AF
:101860000C94820B90E2980F983088F4877021E0F6
:1018700030E0A90102C0440F551F8A95E2F7CA0162
:10188000809590915F04892380935F04E9CF9BE565
:10189000980F933020F490E080E00C948408885AEC
:1018A000873120F490E080E00C946E0808950F9347
:1018B0001F93CF93C82F882309F469C08CEF8C0F36
:1018C000813AB0F502E312E088E392E0F801219159
:1018D000C21701F122E0E833F207C9F7EFEF80E029
:1018E000D8019D918D01C91781F0EF3F19F4911135
:1018F00001C0E82F8F5F863099F7EF3F31F00E2E51
:10190000000CFF0BE05DFD4FC283CF911F910F9143
:101910000C94820BE2E3F2E02191C21303C0DF01D9
:1019200011971C928E179F07B9F70E94820BD6CF92
:1019300080E28C0F883068F4C77021E030E001C08D
:10194000220FCA95EAF780915F04822B80935F048F
:10195000DCCFEBE5EC0FE33050F4F0E0E154FE4F68
:10196000808190E0CF911F910F910C948408C85A08
:10197000C73168F4EC2FF0E0EE0FFF1FEE53FE4F7F
:1019800080819181CF911F910F910C946E08CF911E
:101990001F910F910895982F92959F7011F0892FA4
:1019A00094E0282F2695269511F09E5F822F86952C
:1019B00009F09F5F892F0895DC01FB0180819181EF
:1019C000803891054CF08FE78C93808191818F57FF
:1019D000910991838083089581382FEF92073CF419
:1019E00081E88C938081918181589F4FF2CF8C93B5
:1019F000118210820895681708F5861B682F21E070
:101A0000469FA0011124649FF001659FF00D1124F1
:101A10004091590150915A01E49FC001E59F900DFA
:101A2000F49F900D1124880F892F881F990B919591
:101A3000222319F09195819591090895681B20E062
:101A4000DFCF0F931F93CF93DF9300D000D0CDB79C
:101A5000DEB789836A834B831C8204E610E024E0AE
:101A600030E0AE014F5F5F4F60E084E10E94AF3233
:101A70000F900F900F900F90DF91CF911F910F91CA
:101A8000089580913203882329F047E669E98BE2C3
:101A90000C94210D6091590170915A0190E080E001
:101AA0000E94FE3520E030E040E05CE30E945F36BB
:101AB00020E030E040E85FE30E94F935882321F020
:101AC00047EC6BE180E0E4CF41E265EA89EDE0CFED
:101AD000CF92DF92EF92FF920F931F93CF93DF93FA
:101AE0006C017B0164E670E088E70E949731EC01AD
:101AF00097FD12C010E000E0F601E00FF11F8491A5
:101B000064E670E00E941132EC01892B29F40F5F2A
:101B10001F4F0E151F0581F70E942B33CE01DF9159
:101B2000CF911F910F91FF90EF90DF90CF9008958C
:101B300080914E0490914F04911103C091E0892748
:101B40000895882369F062E070E08CEE9BE00E94CB
:101B5000680D892B19F080914E04089510924E045F
:101B600080914E04EBCFCF93C0914E0480914F04EF
:101B70008823D1F00E9462086058774C8E4F9F4FA7
:101B800060934A0470934B0480934C0490934D04EB
:101B9000C11108C062E070E08AEE9BE00E94680D0F
:101BA000892B29F0C0914E048C2FCF91089581E0AC
:101BB00080934E04F7CF90916C04943029F5809374
:101BC0005B0470935D0460935C049093E9008FEF75
:101BD0009091E800815095FD06C095ED9A95F1F73A
:101BE00000008111F5CF8091E80085FF0DC050E025
:101BF00040E063E070E08BE594E00E94250780916F
:101C0000E8008E778093E8000895BC0184E00C948E
:101C1000DB0DBC0183E00C94DB0D9C0184E0809320
:101C2000E9009FEF8091E800915085FD06C085EDA9
:101C30008A95F1F700009111F5CF8091E80085FFBA
:101C40000CC050E040E066E070E0C9010E9425074A
:101C50008091E8008E778093E8000895CF93DF931A
:101C6000EC0181E08093E9008FEF9091E8008150D2
:101C700095FD06C095ED9A95F1F700008111F5CF1D
:101C80008091E80085FF14C050E040E068E070E01B
:101C9000CE010E9425078091E8008E778093E800AE
:101CA00088E0FE01A2E6B4E001900D928A95E1F78A
:101CB000DF91CF9108959F92AF92BF92CF92DF9222
:101CC000EF92FF920F931F93CF93DF937C015B0101
:101CD0006A018091D10201E010E08A3010F40AE03C
:101CE00010E0C1E0D0E0F894B501C701F601099514
:101CF000982E0E94BC09911004C021960C171D0754
:101D00006CF4892DDF91CF911F910F91FF90EF908F
:101D1000DF90CF90BF90AF909F900895CC9F90019F
:101D2000CD9F300D300D112490E080E045E34A95C1
:101D3000F1F70000019682179307C1F7D4CF809185
:101D4000A102811110C08091D80080618093D800D9
:101D50008AE18A95F1F700C08091D90080FF0AC01E
:101D600081E08093A10281E09091A102913009F07D
:101D700080E0089582E08093A1020E94D50610922F
:101D80006C04F1CF0E949F0E882351F0E091520421
:101D9000F0915304309721F00190F081E02D0994E7
:101DA00080E008951F93CF93DF93182FEB010E94DB
:101DB000570C8FE99FE00197F1F700C000002197D1
:101DC000C1F7812FDF91CF911F910C941E0C4F9280
:101DD0005F926F927F928F929F92AF92BF92CF92BB
:101DE000DF92EF92FF920F931F93CF93DF93CDB7C4
:101DF000DEB7CE5DD1090FB6F894DEBF0FBECDBF02
:101E0000509070019091770490FF5DC080905D03C9
:101E100090905E038114910409F068C0E0E6F6E05A
:101E20009E012F5F3F4FBE0161527F4FC901A491B8
:101E30004A2F50E0DA01AA0FBB1FA40FB51FA15A09
:101E4000BC4FCD90DD90EC90D901CD92DD92ED921A
:101E50009D0131966A177B0751F720916F0143E08E
:101E6000249F800D911D1124539A2BB1277F3BB1E4
:101E700038605FB7F894BC01549E600D711D112449
:101E80008617970709F08EC05FBF8FE594E0019732
:101E9000F1F700C00000C252DF4F0FB6F894DEBF6A
:101EA0000FBECDBFDF91CF911F910F91FF90EF90AB
:101EB000DF90CF90BF90AF909F908F907F906F906A
:101EC0005F904F900895809171012091720133E0ED
:101ED000839FF0011124E15AFC4F821708F096CF3E
:101EE0001182108212828F5F3396F7CF90FF96CFC8
:101EF000D12CC12C66246394712C53E0452E809123
:101F00005C0393010C2C01C0220F0A94EAF7822390
:101F100009F43FC0F601EE0FFF1FE80DF91DE59033
:101F2000F490E114F10409F479CF45E050E0B701F1
:101F3000CE0101960E94923509810F3F51F18A81AD
:101F4000800F9927991F8B34910514F08AE490E053
:101F50005C01AA0CBB1C8A0D9B1DDC01A15ABC4F65
:101F60005D01049D80011124015A1C4F0A151B05B7
:101F700020F0B5E0EB0EF11CD8CF4D81413A08F0CE
:101F800040EA98016C818B810E9424090D5F1F4FEC
:101F9000EDCFEFEFCE1ADE0AF8E0CF16D10409F04C
:101FA000AECF3CCFFC014191CF01E8E03BB900004E
:101FB00000C047FF2BB9440F000000C000C000C0A4
:101FC0002BB900C0EA9591F75BCFE7E7F4E0808199
:101FD0008E7F8083E9E5F3E08281816082832FEF49
:101FE00080E792E0215080409040E1F700C000007F
:101FF0000C94E70EE2E3F2E086E0DF011D928A95A1
:10200000E9F70C94F70B1F93CF93DF93CDB7DEB7AF
:10201000AA970FB6F894DEBF0FBECDBF8EE694E050
:102020002091F100DC012D93CD01B4E086379B07B0
:10203000B9F780916F04833009F471C0B8F481302E
:1020400009F448C0823009F4B4C08091E80083FFED
:102050003CC180916E0490916F049A3008F035C1B4
:10206000E92FF0E0E15EF84C0C9485358A3009F4F4
:102070008FC08B3009F470C0893039F780916E04BD
:10208000813219F78091720490917304009711F0D6
:102090000297D9F68091E800877F8093E8008091CD
:1020A000E80082FF37C09091F3008091F200029720
:1020B00029F48091F1008B7F813021F48091F1002F
:1020C000809361048091E8008B778093E8000E9400
:1020D0004F07BBCF80916E04813A09F0B6CF809153
:1020E000E800877F8093E8008091720490917304E8
:1020F000892B61F468E082E694E070E00E940108B8
:102100008091E8008B778093E8009FCF60E090E0BB
:1021100080E0F3CF80916C048111C1CF96CF809184
:102120006E04813A09F091CF80917204909173040A
:10213000892B09F08ACF8091E800877F8093E8009F
:102140008091E80080FFFCCF809174018093F100C2
:102150008091E8008E77B9CF80916E04813209F0CA
:1021600074CF8091720490917304892B09F06DCF24
:102170008091E800877F8093E8000E944F0780915C
:1021800070048093740110925F040E94FA0F5DCF77
:1021900080916E04813209F058CF8091E800877FEA
:1021A0008093E8000E944F0780917104809360043F
:1021B0004CCF80916E04813A09F047CF8091E800BE
:1021C000877F8093E8008091E80080FFFCCF8091BA
:1021D0006004BCCF803899F0823809F076C08091D5
:1021E00072048F70873008F070C08093E90080918E
:1021F000EB0085FB882780F91092E90006C08091EA
:102200006A0490916B04911182609091E800977F2D
:102210009093E8008093F1001092F1008091E80023
:102220008E77B5C1882309F4A2C1823009F04DC070
:10223000809170048111A6C1809172048F702FEF7C
:10224000280F263008F041C08093E9002091EB0070
:1022500020FF98C1933031F48091EB00806280932D
:10226000EB0090C19091EB0090619093EB0021E026
:1022700030E001C0220F8A95EAF72093EA0010921D
:10228000EA008091EB008860EACF81111EC01091B6
:1022900070041F778091E3008078812B8093E300A6
:1022A0008091E800877F8093E8000E944F0780912B
:1022B000E80080FFFCCF8091E30080688093E3001A
:1022C00082E0111183E080936C048091E80083FF29
:1022D0000AC08091E800877F8093E8008091EB003E
:1022E00080628093EB00AA960FB6F894DEBF0FBE13
:1022F000CDBFDF91CF911F9108958058823028F78C
:1023000020917004309171042C3DE3E03E07A1F56B
:1023100083E08A838AE289834FB7F894DE011396BB
:1023200020E03EE051E2E32FF0E050935700E491CB
:1023300020FF03C0E295EF703F5FEF708E2F90E0BB
:10234000EA30C0F0C7968D939D932F5F243159F7E3
:102350004FBF8091E800877F8093E8006AE270E0D9
:10236000CE0101960E9401088091E8008B7780934E
:10237000E800ABCFC096E7CF8091720490917304D0
:10238000432F55274330510509F44AC078F54130B1
:10239000510509F47AC08BE590E0EEEEFBE04230A7
:1023A000510509F092CF2091E800277F2093E800A3
:1023B00020917404309175048217930708F49C01EE
:1023C00040E02115310509F065C0411163C08091DD
:1023D000E80082FDC9CF80916C04882329F2853002
:1023E00019F28091E80083FFF2CFBECF4132510550
:1023F00009F43CC04232510509F067CF83309105A2
:1024000008F063CFFC01EE0FFF1FEF5DFD4F019061
:10241000F081E02D825E9D4FDC018C9190E01AC02E
:10242000332721303105D1F02115310561F02230FB
:10243000310509F04ACFEBE5FCE0E4918E2F90E006
:10244000EBE5FCE007C0EDE8FCE0E4918E2F90E0C6
:10245000EDE8FCE0009709F438CFA5CFEBE7FCE00E
:10246000E4918E2F90E0EBE7FCE0F4CF8330910510
:1024700008F02BCF880F991FFC01E95DFD4F0190FB
:10248000F081E02D89E090E08ECF82E190E0E9E4F8
:10249000FCE089CF80916C04882309F465CF8530F6
:1024A00009F462CF8091E80083FD5ECF8091E8005F
:1024B00082FD8DCF8091E80080FF83CF9091F30063
:1024C0008091F2002115310519F08830910550F006
:1024D00041E0089709F040E08091E8008E77809312
:1024E000E8006FCF44914093F100319621503109BB
:1024F0000196E8CF803809F0E8CE8091E800877F28
:102500008093E80080916D048093F10087CE811163
:10251000DCCE10917004123008F0D7CE8091E80024
:10252000877F8093E80010936D040E944F0711236A
:1025300011F084E005C08091E30087FDFACF81E0CF
:1025400080936C0442E061EC81E00E946E0742E2FD
:1025500061EC84E00E946E0742E261EC82E00E943E
:102560006E0742E260EC83E00E946E07AECE80917F
:102570007004813009F0A9CE81E0933009F080E049
:1025800080936B041092E9008091E800877F80932C
:10259000E8000E944F0799CE1F93CF93DF93162F29
:1025A000C0917E06D0917F068A30D1F420914304F9
:1025B000CE018E579440622F70E00E945135281B47
:1025C000822F66E00E946535C82FC15020F4DF914C
:1025D000CF911F91089560E080E20E94CC12F5CF68
:1025E0008D30E9F4CE57D44020914304622F70E03F
:1025F000CE010E945135281B822F9E01280F311DCC
:102600002115324018F080E0D0E0C0E0C80FD11DA5
:10261000C258DB4FD0937F06C0937E06D8CF96E09A
:10262000FE01A4E4B4E001900D929A95E1F7803E9A
:1026300090F186E0FE0111928A95E9F7C0917E063D
:10264000D0917F06111133C046E050E0BE0184E412
:1026500094E00E949B359E012E573440892B91F5C2
:102660002A5F3F4F40914304642F70E0C9010E94EC
:102670005135481B463010F4240F311D211572E0EE
:10268000370710F030E020E022583B4F30937F06B0
:1026900020937E069CCFF6E08F9FB00111246655F3
:1026A000794F46E050E0CE010E949235C7CF9E019F
:1026B0002A5F3F4FFE012E173F0731F28081809540
:1026C0008193F9CFC90145E0969587954A95E1F741
:1026D00041E050E0BA0102C0660F771F8A95E2F729
:1026E000CB0160917C0470917D04862B972BB901FE
:1026F0006B5F7F4FE5E076956795EA95E1F702C05D
:10270000440F551F6A95E2F7842B952B90937D0417
:1027100080937C04A5CFFF920F931F93CF93DF93F9
:10272000EC01F62EFC0101900020E9F78F01015029
:102730001109C017D10730F0DF91CF911F910F9190
:10274000FF9008956F2D89910E94CC12F2CFE1E4A1
:10275000F4E08083618324E630E042E050E0BF0192
:1027600084EB0C948832CF93C82F60E08CE00E94F9
:10277000A7136C2F84E00E94A71361E08CE0CF9137
:102780000C94A7131F93CF93DF93CDB7DEB7629757
:102790000FB6F894DEBF0FBECDBF96E0E4E2F3E0E3
:1027A000DE01179601900D929A95E1F796E0FE01F1
:1027B0003796DE011D9601900D929A95E1F71885E6
:1027C000882309F1162B84E00E94B3131E8786E04C
:1027D000FE013D96DE01119601900D928A95E1F77A
:1027E00086E0FE013196A4E2B3E001900D928A9555
:1027F000E1F762960FB6F894DEBF0FBECDBFDF9152
:10280000CF911F91089560951623E0CFCF93DF936A
:10281000C3EED2E060E0CE010E94C5352196C1151D
:1028200084E0D807B9F7DF91CF9108956F927F9236
:102830008F929F92AF92BF92CF92DF92EF92FF92D0
:102840000F931F93CF93DF938AEAC82E86E0D82E8A
:1028500091ECE92EF12CE701CC58D10936011BC0CF
:10286000F50185909490692DC8010E94C535682DA9
:10287000C80101960E94C53582E0A80EB11C0E5F0A
:102880001F4FC017D10761F78EE0680E711C2E969E
:10289000CE15DF0529F08E010E5011095301E0CF4E
:1028A0007E018CE8E80EF11C8CE8C80ED11C8DE787
:1028B000E81683E0F80679F6DF91CF911F910F912A
:1028C000FF90EF90DF90CF90BF90AF909F908F9050
:1028D0007F906F900895CF93C82F6FEF811161E2C1
:1028E00083E290E00E94C5356FEFC11161E184E29F
:1028F00090E00E94C5356FEFC11166E285E290E07D
:10290000CF910C94C53580E00E946B1460E086E2A4
:1029100090E00E94C5350E9416140E94061481E0C2
:102920000C946B140F931F93CF93DF93C42FD0E0BD
:10293000CC0FDD1F2EE0629FC00DD11D11243CE89D
:10294000839FC00DD11D1124CE0187960E94B13501
:10295000082F10E0102F0027CE0188960E94B13575
:102960009801282BC901DF91CF911F910F910895F4
:10297000462F853038F47A3028F4673018F4672F02
:102980000C94921490E080E00895CF92DF92FF9231
:102990000F931F93CF93DF936C0100917604809186
:1029A0009202082BC7E0D0E010E0FC2EC8010C2EEC
:1029B00002C0959587950A94E2F780FD0CC0219797
:1029C000A0F7F12C8F2DDF91CF911F910F91FF90E8
:1029D000DF90CF900895B6018C2F0E94B8140E940A
:1029E000180A019761F3EECFCF93DF93EC010E94B9
:1029F000C514BE010E94B814DF91CF910C94180A3F
:102A0000FC01808191810E94F414292F2F709295EE
:102A10009F7092509E3078F4E92FF0E0E75DF84C1B
:102A20000C948535803F19F020F4883E20F481E035
:102A30000895843FE1F380E00895883EC0F3813F2C
:102A4000D1F7F5CF822F869586958695089583E2F6
:102A500090E00E94B135813289F484E290E00E94D6
:102A6000B135813159F485E290E00E94B13591E0B1
:102A7000863209F090E0892F8170089580E0FCCFC4
:102A8000CF92DF92EF92FF926B017C010E940E09C0
:102A9000B701A60188E090E0FF90EF90DF90CF9023
:102AA0000C94D735AF92BF92CF92DF92EF92FF9204
:102AB0000F931F93CF93DF9300D00F92CDB7DEB764
:102AC000082FF62E142FE22E8091770480FF4FC03E
:102AD000E82FE695AE2FB0E0AE5EBD4F9C9190938F
:102AE00059038E7F823009F056C0413A08F040EA1F
:102AF0009E012F5F3F4F6F2D802F0E9424098091F0
:102B0000770480FF11C02B8139814A818091710146
:102B10009091720153E0859FF0011124E15AFC4F1E
:102B2000891798F10E94E70E80917804801308C0FD
:102B3000809179048F1104C080917A04811729F063
:102B400080915B03826080935B0300937804F09232
:102B5000790410937A04EE2051F06091770470911B
:102B600078048091790490917A040E9440150F9026
:102B70000F900F90DF91CF911F910F91FF90EF90E9
:102B8000DF90CF90BF90AF90089541833083228330
:102B90008F5F3396C5CF923039F6E2508E2F817019
:102BA000D82EE695F0E0E55AF94FA590B490C12CE7
:102BB000BB2460917301C61608F0B4CF2C2D30E011
:102BC000A29EC001A39E900DB29E900D112470E0B4
:102BD0000E945135802FD11016C0860F409171018F
:102BE000420F532F511D9A01220F331F240F351FFF
:102BF000215A3C4F412F113A08F040EA6F2D0E94B4
:102C00002409C394D6CF861BE9CFE7E7F4E04381DC
:102C100021E1421B08F440E021E0628181810C94B3
:102C20005215E7E7F4E0438121E1420F08F44FEF4A
:102C300021E0628181810C945215E7E7F4E0628122
:102C400021E1621B08F460E021E0438181810C9462
:102C50005215E7E7F4E0628121E1620F08F46FEFBB
:102C600021E0438181810C945215E7E7F4E08181F2
:102C700021E04381628188500C945215E7E7F4E02B
:102C8000818121E043816281885F0C94521580919B
:102C90007B04882319F0815080937B046091770432
:102CA000709178048091790490917A040C94401585
:102CB00080917B04833018F48F5F80937B04609154
:102CC0007704709178048091790490917A040C943F
:102CD00040159091770490FF27C0917081111DC01D
:102CE00092609093770480915B03816080935B0393
:102CF000662351F060917704709178048091790493
:102D000090917A040E94401520E040917A046091ED
:102D10007904809178040C9452158C3010F09661EF
:102D2000E0CF880F982BDDCF089521E030E0A90196
:102D300002C0440F551F8A95E2F7CA0120915C0337
:102D4000662391F0822B80935C0380915B0380610A
:102D500080935B0380915A03811109C080917704AD
:102D600060E086950C94691680958223ECCF0895D7
:102D7000CF93DF93C82FC17082FBDD27D0F981FB91
:102D8000662760F985E00E94951661E06C2786E071
:102D90000E9495166D2F87E0DF91CF910C949516C8
:102DA0000F931F93CF93C82F61E08111682F61703B
:102DB00080E00E949516C1FB662760F9C11101C031
:102DC00060E081E00E949516C2FB662760F9C111A0
:102DD00001C060E082E00E949516C3FB662760F99F
:102DE000C11101C060E083E00E949516C4FB662714
:102DF00060F9C11101C060E084E00E9495164C2F7B
:102E000050E070E060E0DB01CA01F4E0B695A79500
:102E100097958795FA95D1F70097A105B10549F1E6
:102E2000AC01BD0184E08A019B01E2E03695279563
:102E300017950795EA95D1F701151105210531057B
:102E400019F08E5FB901A80176956795579547955A
:102E5000452B462B472B09F08F5F8230D1F158F478
:102E60008823E9F0813059F18C2FCF911F910F9178
:102E7000089580E0D8CF8330A1F18430A9F720E015
:102E800040E56FEF8AED0E94521587E00E94B31370
:102E900080910001882341F3109232030DC020E09D
:102EA00040E56FEF82E30E94521580910001882374
:102EB00099F381E0809332030E94410DD5CF20E049
:102EC00040E56FEF8CEF0E94521585E40E94B3132A
:102ED000CBCF20E040E56FEF80E50E94521585E200
:102EE000F5CF20E040E56FEF86E70E9452158FE1B5
:102EF000EDCF0E94D016809376040C94F70B80914E
:102F00007604982F9670963019F488600C9479178F
:102F1000877FFCCF21E030E001C0220F8A95EAF7DD
:102F200020958091760482230C94791721E030E07B
:102F300001C0220F8A95EAF780917604822B0C94C7
:102F40007917809177048695815009F48BE061E0D0
:102F50000C9469168091770486958F5F8C3008F009
:102F600081E061E00C9469168091770480FF07C0CE
:102F7000869582588F77893010F40C94AA1761E0F7
:102F800082E00C946916E7E7F4E083E08083118225
:102F90008FEF828380EA83831482A9E5B3E01296DF
:102FA0008C911297836012968C93608171818281DB
:102FB00093810C944015AB01BC0188E190E00C9426
:102FC000D735CF93C82FEFE3F4E0982F990F990FDF
:102FD000990F80818770892B8083E0E4F4E09C2F37
:102FE0009295969597708081887F892B80836091D8
:102FF0003D0470913E0480913F04909140040E94F2
:10300000DB176C2F82E0CF910C94A713EDE3F4E073
:1030100089E88083118282818C7F828360913D0464
:1030200070913E0480913F04909140040C94DB1712
:10303000EDE3F4E080818E7F808360913D047091A8
:103040003E0480913F04909140040C94DB17EDE323
:10305000F4E080818160808360913D0470913E0442
:1030600080913F04909140040C94DB1769EE7EEF51
:1030700090E080E00E94E33560E082E090E00E9412
:10308000C53560E083E090E00E94C5351092920261
:1030900060E084E090E00E94C53560E082E290E06C
:1030A0000E94C53560E085E090E00E94C53560E093
:1030B00086E090E00E94C5356FEF87E090E00E94C7
:1030C000C53540E050E0BA0188E090E00E94D73575
:1030D00060E08DE090E00E94C53540E050E0BA012C
:1030E00088E190E00E94D73560E087E190E00E949F
:1030F000C53540E050E0BA018CE190E00E94D73540
:1031000070E060E080E290E00E94E3350E940618E3
:1031100080E00E946B140E94831440E050E0BA01EA
:103120008FE090E00E94D73540E050E0BA0183E1A3
:1031300090E00C94D7350F931F93CF93DF9300D07B
:1031400000D0CDB7DEB74091C5025091C602609164
:10315000C7027091C8022FB7F894809157049091DC
:103160005804A0915904B0915A042FBF841B950BA9
:10317000A60BB70B84369105A105B10588F10E9415
:103180009F0E882379F10E9462086E5F7F4F8F4FF8
:103190009F4F69837A838B839C8380912C019091CC
:1031A0002D0181559D4F40912B0150E04530510537
:1031B00010F044E050E0BE016F5F7F4F0E94A835E1
:1031C00084E090E00E949D34892BD9F40E9462082B
:1031D0006093C5027093C6028093C7029093C802A1
:1031E00081E010C00E9462080091D2021091D302C7
:1031F0002091D4023091D502600F711F821F931F5E
:10320000C4CF80E00F900F900F900F90DF91CF917F
:103210001F910F9108958F929F92AF92BF92CF927C
:10322000DF92EF92FF920F931F93CF93DF93EB0107
:1032300088809980AA80BB809FB7F894C09057047B
:10324000D0905804E0905904F0905A049FBFC818D9
:10325000D908EA08FB0894E6C916D104E104F10490
:1032600010F4442311F1E82E082E000CFF089AE018
:103270008902F0011124EF5FFE4F83819481815513
:103280009D4F428150E00417150708F4A801B901C9
:103290000E94A835C7010E949D34892BA1F40E9489
:1032A0006208688379838A839B8381E0DF91CF9171
:1032B0001F910F91FF90EF90DF90CF90BF90AF9054
:1032C0009F908F90089580E0F1CF0F931F93CF933D
:1032D000DF930F92CDB7DEB780914E0489832091A2
:1032E000C40290E041E02817190609F440E001E02B
:1032F00010E09E012F5F3F4F6DEC72E086E00E9470
:103300000B190F90DF91CF911F910F9108950F939B
:103310001F93CF93DF93CDB7DEB729970FB6F894FD
:10332000DEBF0FBECDBF85E0E7E7F4E0DE0111961A
:1033300001900D928A95E1F78091590390915A037B
:10334000A0915B03B0915C038E839F83A887B987AC
:1033500041E08885811101C040E009E010E09E0154
:103360002F5F3F4F69EC72E085E00E940B198111DD
:1033700010925B0329960FB6F894DEBF0FBECDBF47
:10338000DF91CF911F910F9108956F927F928F924D
:103390009F92AF92BF92CF92DF92EF92FF920F93E4
:1033A0001F93CF93DF930F92CDB7DEB7862E5A01CE
:1033B0006901682E880F7708C3010E949D34892B0C
:1033C00009F088C08AE0869DF001879DF00D1124E8
:1033D000EF5FFE4F458150E04115510511F041E08E
:1033E00050E08AE0869DF001879DF00D1124EF5F8B
:1033F000FE4F6681778161557D4FCE0101960E9417
:10340000A835F50140815181628173812FB7F8940D
:103410008091570490915804A0915904B0915A0496
:103420002FBF841B950BA60BB70B84369105A10506
:10343000B10540F4B701C8010E94F30899818917CA
:1034400009F44FC0082C000C9908C4010E949D3457
:10345000892B91F0B12C8B2D0F90DF91CF911F9183
:103460000F91FF90EF90DF90CF90BF90AF909F9023
:103470008F907F906F9008958AE0889DF001899DDC
:10348000F00D1124EF5FFE4F458150E0E416F50684
:1034900008F4A7018AE0889DF001899DF00D1124B0
:1034A000EF5FFE4F6681778161557D4FC6010E94B7
:1034B000A835B701C8010E94F30899818913CACFC2
:1034C0000E946208F5016083718382839383BB2429
:1034D000B394C1CFB12CA701B801C6010E94A83591
:1034E000BACFBB24B394F7CFCF92DF92EF92FF9283
:1034F0000F931F93CF93DF9300D000D00F92CDB7DF
:10350000DEB76B0185E0E82EF12C00EB12E09E01A6
:103510002F5F3F4F47EA52E061E080E00E94C5190B
:10352000882349F095E0FE013196A2EAB2E00190CD
:103530000D929A95E1F795E0E2EAF2E0D60101906A
:103540000D929A95E1F70F900F900F900F900F90BA
:10355000DF91CF911F910F91FF90EF90DF90CF906F
:10356000089590E080E00E94BF35893E9E4F11F49F
:103570000C94271580E008951F920F920FB60F92BA
:1035800011242F933F934F935F936F937F938F9368
:103590009F93AF93BF93CF93DF93EF93FF93D0911C
:1035A000E900DF708091EC00C82FC17080FDC0E899
:1035B0001092E9008091F000877F8093F00078946A
:1035C0000E9403101092E9008091F00088608093BF
:1035D000F000CD2BCF70C093E900FF91EF91DF9108
:1035E000CF91BF91AF919F918F917F916F915F919B
:1035F0004F913F912F910F900FBE0F901F901895F4
:103600001F920F920FB60F9211242F933F934F9357
:103610005F936F937F938F939F93AF93BF93EF933A
:10362000FF938091E10082FF09C08091E20082FF58
:1036300005C08091E1008B7F8093E1008091DA00EA
:1036400080FF24C08091D80080FF20C08091DA00E4
:103650008E7F8093DA008091D90080FF9BC080E14B
:1036600089BD82E189BD09B400FEFDCF81E0809370
:103670006C0480915E04811109C00E94D5060E94ED
:10368000A0078091E20084608093E2008091E100D5
:1036900080FF17C08091E20080FF13C08091E2009C
:1036A0008E7F8093E2008091E20080618093E2004F
:1036B0008091D80080628093D80019BC85E0809307
:1036C0006C048091E10084FF29C08091E20084FFB6
:1036D00025C080E189BD82E189BD89B5982F9170AF
:1036E00080FFFBCF8091D8008F7D8093D8008091A0
:1036F000E1008F7E8093E1008091E2008F7E8093D5
:10370000E2008091E20081608093E20080916D048C
:10371000882309F445C084E080936C048091E10023
:1037200083FF27C08091E20083FF23C08091E100E6
:10373000877F8093E10082E080936C0410926D0497
:103740008091E1008E7F8093E1008091E2008E7F86
:103750008093E2008091E20080618093E20042E089
:1037600060E080E00E946E078091F00088608093A6
:10377000F000FF91EF91BF91AF919F918F917F9159
:103780006F915F914F913F912F910F900FBE0F90CE
:103790001F90189519BC10926C0410925E0476CF9D
:1037A0008091E30087FD93E090936C04B7CF789409
:1037B0001F921FB61F9211248F939F93AF93BF93B5
:1037C0008091570490915804A0915904B0915A04E3
:1037D0000196A11DB11D8093570490935804A093A6
:1037E0005904B0935A04BF91AF919F918F911F904C
:1037F0001FBE1F9018959C014FB7F89480915704F5
:1038000090915804A0915904B0915A044FBF821B63
:10381000930B08952FB7F894809157049091580412
:10382000A0915904B0915A042FBF08955F926F92EE
:103830007F928F929F92AF92BF92CF92DF92EF9240
:10384000FF920F931F93CF93DF9300D000D00F927E
:10385000CDB7DEB77C01FC0183819481892B31F0E7
:103860008081918189238F3F09F0C8C60F900F9006
:103870000F900F900F90DF91CF911F910F91FF90BC
:10388000EF90DF90CF90BF90AF909F908F907F9000
:103890006F905F9008950E94C514182F682F89813A
:1038A0009A810E94CB0B69817A81812F0E94B81482
:1038B0008C01F7018281882361F0F801E65EFC4506
:1038C000ED30F10530F4E95CF84C0C9485350E943C
:1038D0002718D0903D04D0FE1CC08D2D8695837096
:1038E000F7019281992309F460C1823090F4B70105
:1038F000C8010E94B108882361F0D694D694D6946A
:1039000080913E0483708295880F807E8D290E946D
:10391000B313F7018281882309F465C6C801825177
:103920009F45409708F021C68FEF93E00E94B13584
:10393000025193EEA92E92E0B92E811197CF011179
:1039400038C11C821B82662463948AE0582E85014C
:103950000F5F1F4FC5010E94B13589831A828823EA
:1039600009F484CF9FEF980F933008F031C18A8318
:10397000698232E0A30EB11CC8010E94B1358B836D
:10398000882309F473CF8E010F5F1F4FF801208148
:103990002223E9F2213009F055C1918182819130D1
:1039A00009F018C10E5F1F4F6AE070E0893311F40F
:1039B00060E570E00E94D20E13C10E94181889CFF2
:1039C00080913D0480FF0DC00E94181860913D0455
:1039D00070913E0480913F04909140040E94DB1757
:1039E00078CF0E942718F2CF0E94061872CF9091CC
:1039F0003D04892F86958F5F8370880F997F892B6F
:103A000080933D04982F9670963001F7897F8093BC
:103A10003D04DCCF90913E04892F8B7F92FF846020
:103A200080933E04D3CF80913D04982F9695969530
:103A3000969580913E0483708295880F807E892BB5
:103A40008C3798F48F5F282F220F220F220F90912E
:103A50003D049770922B90933D04829586958370D8
:103A600090913E049C7F892BDBCF81E0ECCF80914D
:103A70003D04982F96959695969580913E04837077
:103A80008295880F807E892B11F08150DCCF8BE7E7
:103A9000DACF30913E04932F969596959695209186
:103AA0003F04822F83708295880F807E892B90E05F
:103AB0000196482F440F440F440F3770342B309336
:103AC0003E0435E0969587953A95E1F783702C7F13
:103AD000822B80933F047ACF30913E04932F9695AA
:103AE0009695969520913F04822F83708295880F3A
:103AF000807E892B8150990BDCCF80913F0482FF1F
:103B000012C08B7F80933F0460913D0470913E040E
:103B100080913F04909140040E94DB1760E081E0B7
:103B20000E94A713D6CE846080933F0460913D0429
:103B300070913E0480913F04909140040E94DB17F5
:103B400060E08CE00E94A71364E182E00E94A7136A
:103B500065E081E00E94A71361E08CE0E1CF8091F5
:103B60003F04982F9695969596958091400482955E
:103B7000880F807E892B883720F4865F0E94E117AA
:103B8000A8CE88E7FBCF80913F04982F9695969515
:103B90009695809140048295880F807E892B843190
:103BA00010F08A50EBCF84E1E9CF882309F4B1CE3D
:103BB0009ECEA114F4E0BF0609F458CEC5010E94C0
:103BC000B135811101C001502FEFA21AB20AB7CE50
:103BD0005801D9CE923039F40E5F1F4F0E94570C16
:103BE0000F5F1F4FD3CE933029F40E5F1F4F0E94FB
:103BF0001E0CF6CF943019F00F5F1F4FF1CF0E5F00
:103C00001F4F30E020E0B8016F5F7F4FF801418126
:103C10008053990B8A30910550F02150310900F3FF
:103C20008FE99FE00197F1F700C00000F6CF529EA8
:103C3000F001539EF00D11249C012E0F3F1F842F85
:103C40008B01E1CFE22FF0E0E75FFD4F7490822F10
:103C500086958695869590E0FC01E750FE4FE490AE
:103C60002770F12C022E02C0F594E7940A94E2F733
:103C7000E1E0EE22FF24FC01E751FE4FC490D12C7D
:103C8000022E02C0D594C7940A94E2F7F1E0CF2245
:103C9000DD24FC01E752FE4F8490912C02C09594E4
:103CA00087942A95E2F721E082229924E114F10415
:103CB00019F081EE0E94570CC114D10419F086EE60
:103CC0000E94570C39E36AE070E0731202C060E5AD
:103CD00070E0872D0E94D20ECD2819F086EE0E944A
:103CE0001E0CEF2819F081EE0E941E0C892809F4A1
:103CF00077CF6AE070E08CE25DCE81E00E9496179B
:103D000003C081E00E948A170F900F900F900F90D0
:103D10000F90DF91CF911F910F91FF90EF90DF9067
:103D2000CF90BF90AF909F908F907F906F905F905B
:103D30000C947F1782E0E2CF013E110509F404C123
:103D400008F04DC0003E110509F469C1F7019281E8
:103D5000911171C280915F0482720A3CFCE51F07D9
:103D600009F449C208F09FC1053C3CE5130709F47A
:103D70002EC208F083C1033C5CE5150709F408C2B4
:103D800008F020C2023C1C4509F4B2C1F7010081D1
:103D90001181992309F469C2C8010E94C514D82E63
:103DA000682FC8010E94CB0BB8018D2D0E94B8145A
:103DB0000E94180A182FB82EF70122814581342F4E
:103DC00032953F70892F82958F70C82ED12C8C3000
:103DD00008F083C2F601EC5BF84C0C948535043E88
:103DE000110509F41CC1053E110509F0AFCF809300
:103DF0003C0210933B0200933A02882309F4A1C0CD
:103E000081E08093EE02A2CF0238FFE51F0709F49C
:103E100076C038F5063F110509F4FFC008F4FBC071
:103E200000383FE5130709F44DC001384FE514078A
:103E300009F08CCF882309F45BC080919C0281112A
:103E400006C081E080939C0282EE0E94570C0E9483
:103E50000A1C90939B0280939A0281EE0E94570C59
:103E600043C004385FE5150709F471C008F45BC06E
:103E70000538EFE51E0709F4B0C00638FFE51F0757
:103E800009F064CF882309F4C2C060915901709190
:103E90005A0190E080E00E94FE3520E030E040E0F2
:103EA0005CE30E945F3620E030E040E85FE30E9480
:103EB000F9358111A9C080EE90E090935A0180936A
:103EC000590195C08823B9F080919C02811106C0E8
:103ED00081E080939C0282EE0E94570C0E940A1C93
:103EE00090939B0280939A028BE20E94570C2ECFF4
:103EF00081EE0E941E0C8BE20E941E0C27CF8823AD
:103F000009F424CF81EE0E94570C83EE0E94570CD7
:103F10008FE40E94570C8FE40E941E0C83EE0E94D7
:103F20001E0C81EEE9CF882309F410CF81EE0E94A8
:103F3000570C83EE0E94570C80E50E94570C80E5D9
:103F4000EBCF1092EE0202CF8093390252CF88233A
:103F500079F180913902882349F080913A020E94D8
:103F60001E0C80EE0E94570C8AE20CC080913C022D
:103F70008823D1F380913A020E941E0C80EE0E94A9
:103F8000570C8CE40F900F900F900F900F90DF91D3
:103F9000CF911F910F91FF90EF90DF90CF90BF9046
:103FA000AF909F908F907F906F905F900C94570C84
:103FB0008AE20E941E0C8CE40E941E0C80EE0E947D
:103FC0001E0C80913902811105C080913C0288232A
:103FD00009F44CCC80913A02D5CF8823C1F080916E
:103FE0003203882339F010923203109200010E94AC
:103FF000410DACCE809100018111F7CF81E080931B
:10400000320380930001F3CF80E890E056CF61E067
:104010000E94C2139BCE62E0FBCF64E0F9CF8823FD
:1040200021F081E08093ED0291CE1092ED028ECED0
:10403000882331F081E08093F0021092670186CEF0
:104040001092F00283CE882349F0809176040E947A
:10405000CB0C813019F482E30E94B313F701828103
:10406000882309F4B0C2809176040E94CB0C813081
:1040700009F0A9C284E30E94B313A5C2073C2CE552
:10408000120709F4AEC008F4A7C0083C4CE51407B9
:1040900009F4ACC0093C1C4509F078CE45E056E176
:1040A00061E176E179C0043DECE51E07A8F40E3C21
:1040B000FCE51F0708F0DACB0C3C2CE5120709F4ED
:1040C0009FC047E456E168E576E10D3C1C4508F4E5
:1040D00063C061E081E046C0053D4CE5140709F48A
:1040E000C5CB08F492C00D351D4509F4BFCB4ECEAB
:1040F0008091770480FF31C08E7F80937704609138
:104100007704709178048091790490917A040E94E8
:10411000401580915B03816080935B039FEFE0E734
:10412000F2E09150E040F040E1F700C000000F9055
:104130000F900F900F900F90DF91CF911F910F91E3
:10414000FF90EF90DF90CF90BF90AF909F908F90B7
:104150007F906F905F900C94E70E8160809377045E
:1041600061E086950F900F900F900F900F90DF9168
:10417000CF911F910F91FF90EF90DF90CF90BF9064
:10418000AF909F908F907F906F905F900C94691686
:1041900041EA57E16AEA77E10F900F900F900F9094
:1041A0000F90DF91CF911F910F91FF90EF90DF90D3
:1041B000CF90BF90AF909F908F907F906F905F90C7
:1041C0000C9409094AEA57E161EA77E1E5CF45E352
:1041D00056E16EE376E1E0CF4EE356E165E376E14A
:1041E000DBCF4DE156E169E276E1D6CF49E256E117
:1041F0006DE176E1D1CF41E156E165E076E1CCCFEA
:1042000048E556E167E476E1C7CF0F900F900F9035
:104210000F900F90DF91CF911F910F91FF90EF9032
:10422000DF90CF90BF90AF909F908F907F906F90D6
:104230005F900C94B4170E3D1C4509F0A7CD0F906C
:104240000F900F900F900F90DF91CF911F910F91D2
:10425000FF90EF90DF90CF90BF90AF909F908F90A6
:104260007F906F905F900C943618C8010E94A30B4A
:10427000D82E9ACD092F0F70907F11F00295007FF4
:10428000812F2223C9F0002369F090E2910F98302A
:1042900010F011110BC080915F04082B00935F0494
:1042A0000E94820B812F0E94570C17C080919102AF
:1042B000082B00939102F4CF0E941E0C002369F09A
:1042C0000095105E183010F0B11027C080915F0487
:1042D000082300935F040E94820B98E0C91AD1085A
:1042E000E4E0CE16D10408F0C1CA0E94C20E0F90BD
:1042F0000F900F900F900F90DF91CF911F910F9122
:10430000FF90EF90DF90CF90BF90AF909F908F90F5
:104310007F906F905F900C94B81680919102082363
:1043200000939102D8CF892F8F70907F903211F037
:104330008295807FF1E0BF120CC0222329F0333038
:1043400060F60E94140CC9CF323038F60E94090C76
:10435000C4CF222341F03323A1F340FFA3CF4F70FA
:10436000F7014583EECF332389F3193309F0F5C004
:10437000FFEF27EE33E0F15020403040E1F700C07E
:104380000000812F0E941E0CA8CF892F869586954C
:10439000837061F0813009F0A0CF812F93702111DB
:1043A00002C090E080E00E946E0897CF812F93704A
:1043B000211102C090E080E00E9484088ECF892FF6
:1043C0008370A1F5211189CF812F82958695877001
:1043D000880F880F412F4F70082E01C0440F0A9498
:1043E000EAF7212F207114FF07C02FE030E001C051
:1043F000220F8A95EAF720959695969593709230BC
:1044000081F0822F842B933030F48091920291308E
:1044100029F0242B82230E94050C5FCF842B822B52
:10442000FACF242B809192028227F5CF8695222302
:1044300011F0892F8170882309F44FCF812F829545
:1044400086958770880F880F412F4F70082E01C006
:10445000440F0A94EAF7212F207114FF07C02FE0C0
:1044600030E001C0220F8A95EAF72095969596953F
:104470009370923081F0822F842B933030F48091AE
:104480007604913029F0242B82230E94791725CFBE
:10449000842B822BFACF242B809176048227F5CFB0
:1044A000092F0F70222329F0802F0E949617812F49
:1044B00048CF812F0E94090C802F0E948A170DCFB0
:1044C000812FE1EF1E1789F1E11750F0F0EF1F1770
:1044D000B9F02223B1F13111E5CE892F8F7129C0B6
:1044E00042EF141749F153EF1513F3CF80E0222365
:1044F00061F29F7181E001C0880F9A95EAF7C5CFFC
:10450000222379F0323008F0E8CE292F2F7181E094
:1045100090E001C0880F2A95EAF7909176048927E8
:10452000B4CF333008F0D9CEF0CF892F8F7122234A
:1045300021F20E949617D1CE892F8F712223C9F3C1
:10454000BCCF332379F0893341F48FEF97EEE3E06A
:1045500081509040E040E1F712CF8FE39CE9019752
:10456000F1F70DCF892F8F71A8CF0031FFE51F071D
:1045700009F4C3CB01312FE5120709F4DBCB0E940C
:1045800062086093F5027093F6028093F7029093AD
:10459000F802F7018281043F110509F438CD08F0D3
:1045A00033CC0C32110509F443CD08F0C5CB0A30E9
:1045B000110509F448CD0531110509F44FCD093035
:1045C000110509F0C3CBF7018281882309F4BECB22
:1045D000809176040E94CB0C813009F0B7CB81E347
:1045E0000E94B313B3CB00313FE5130709F489CB25
:1045F00001314FE5140769F682E084CB85E0DE01E6
:10460000119601900D928A95E1F7F7012281898137
:104610009A81211140C90E94A30B182F44C91F93EE
:10462000CF93DF9380915D02807FA9F480915A023D
:10463000882389F080918F02D0915E0260915802A8
:1046400070915902A0915B02B0915C02C62FC72302
:1046500016E0D81304C0DF91CF911F91089590E028
:10466000109711F0CF3F19F401968770F2CF189F81
:104670009001199F300D1124F901E15AFD4F41813C
:104680004713F2CF40814613EFCF42814111ECCF67
:10469000438154814A1B5B0B403A510528F78091B6
:1046A0005D028F70806180935D02F901EC59FD4FCE
:1046B00080818F708061808388E592E00E94161C63
:1046C000DF91CF911F910C94990BAF92BF92CF9233
:1046D000DF92EF92FF920F931F93CF93DF93CDB7AB
:1046E000DEB761970FB6F894DEBF0FBECDBF8C0169
:1046F00085E0F801DE011D9601900D928A95E1F7A3
:10470000F801E28088E5A82E82E0B82E60915B0275
:1047100070915C026115710509F432C190915802E3
:1047200040915902892F84238F3F09F429C12081A8
:104730003181C380D480F0905A02F601E61BF70B5A
:10474000FF2009F4E8C080915D02582F507FE03AC5
:10475000F10508F0ABC0511177C0FE2C431321C006
:1047600092131FC0E1101DC08F70806180935D02A5
:10477000C5010E94161C80915D02F80185838F2D72
:1047800061960FB6F894DEBF0FBECDBFDF91CF911B
:104790001F910F91FF90EF90DF90CF90BF90AF905F
:1047A0000895CD2829F0822F83238F3F09F003C17C
:1047B00080E0F82FF170DF2E80FF3CC080918F02E7
:1047C00040915E0256E0841315C02D873E878D858B
:1047D0009E850E94F414292F22952F702230F0F02C
:1047E000243018F59F70F1F0F8019581907FD1F495
:1047F000D12C1EC090E0589FF001599FF00D11245C
:10480000E15AFD4F6181361306C06081261303C053
:104810006281E6120FC001968770D5CF9F7011F0AC
:10482000882331F3805E883018F3C8010E94161C7B
:10483000FD2CA5CFEE2009F4A2CF80915D0281600E
:1048400080935D02F12C9BCF431306C0921304C0EA
:10485000F801EE2009F479C0C8010E9400158823F0
:1048600009F1EE20F9F080915D02803270F0209124
:1048700058023091590238872F831986DB86CA8601
:104880008C87CE0107960E94161C86E0F801A8E5E9
:10489000B2E001900D928A95E1F70E940F23FF2468
:1048A000F3946DCFC8010E94161CF9CF51110AC0B4
:1048B00088E592E00E94161C86E0F50111928A9527
:1048C000E9F7C0CF43130FC092130DC0E1100BC026
:1048D000F8018583C8010E94161C86E0F50111923B
:1048E0008A95E9F74CCFC8010E9400158823D1F2C0
:1048F000EE20C1F280915D02803238F220915802A0
:10490000309159023A8329831B82DD82CC828E83C7
:10491000CE010196B8CFE03AF105F8F6FE2CEE2074
:1049200009F243131FC092131DC080915D0280FDE8
:1049300010C0982F907F69F0F8018583903F31F087
:10494000982F907F905F8F70892B8583C8010E947C
:10495000161C86E0F801A8E5B2E001900D928A9558
:10496000E1F70DCFC8010E94001581118ECF809113
:104970005D02816080935D02C8010E94161CFFCE1B
:10498000EE2009F48FCFC8010E940015F82E88236D
:1049900009F488CF86E0F801A8E5B2E001900D9215
:1049A0008A95E1F780915802909159020E94F4147F
:1049B0000E940F23E4CE81E08E25FBCE1F93CF9380
:1049C000DF93CDB7DEB767970FB6F894DEBF0FBEA3
:1049D000CDBF4B8B5C8B6D8B7E8B8F8B611110925F
:1049E00091021A8A198A85E0FE017396DE011D96EE
:1049F00001900D928A95E1F786E0FE013D96DE0179
:104A0000179601900D928A95E1F7CE0107960E94C4
:104A10006523882389F016E080918F0290915E02D1
:104A200089134BC067960FB6F894DEBF0FBECDBF9B
:104A3000DF91CF911F91089586E0FE013796DE0148
:104A4000119601900D928A95E1F78A859B85892BB5
:104A500011F38F81988589238F3FE9F220915E02BF
:104A600030E0C90101968770992740918F0248175D
:104A7000190681F410925F040E94FA0F10925E02F0
:104A800010928F0286E0E8E5F2E0DF011D928A9540
:104A9000E9F7C1CF96E0929FD001939FB00D11240A
:104AA000A15ABD4FFE01319601900D929A95E1F702
:104AB00080935E020E94990BAECF819FC0011124AA
:104AC000815A9D4F0E946523882309F4ABCF8091C2
:104AD0008F0290E001968770992780938F029CCF78
:104AE0009F92AF92BF92CF92DF92EF92FF920F937D
:104AF0001F93CF93DF93CDB7DEB764970FB6F894CB
:104B0000DEBF0FBECDBF8E010F5F1F4F8AE0D80101
:104B10001D928A95E9F79EE4C92E91E0D92EF12CD9
:104B2000E12CAA24A394B12CF60181916F018F3F4F
:104B300009F44AC0F894E82FE295EF70F0E021A163
:104B40008F70A50102C0440F551F8A95E2F7CA0174
:104B5000922F982B91A392A18095892382A30E94E2
:104B6000BC0900C0E7E4F1E030E020E0912C419185
:104B70004F3F09F47DC0A42FA295AF70B0E090968E
:104B80008C9190E04F7002C0959587954A95E2F719
:104B900080FD6EC08A2D022E01C0880F0A94EAF7AC
:104BA000982A2F5F3F4F2730310509F7F6013197DB
:104BB00080818F3F11F00E94BE0950EA5A95F1F7AB
:104BC000F801EE0DFF1D90828FEFE81AF80A95E0CC
:104BD000E916F10409F0A8CF4AE050E0B80188EDE9
:104BE00092E00E949B357C01892B41F08AE0F8011C
:104BF000A8EDB2E001900D928A95E1F71091E302E1
:104C0000E114F104B9F181E0809395020E940A1C3D
:104C100090939402809393028091930290919402D6
:104C20000E94FB1B069770F0A8EDB2E0E12FF0E0C8
:104C3000E15BFC4F8D91819322E0AD3DB207D1F74E
:104C40001092950281E090E0EF28C1F064960FB6D3
:104C5000F894DEBF0FBECDBFDF91CF911F910F91B2
:104C6000FF90EF90DF90CF90BF90AF909F9008950E
:104C700080E096CF809195028111CECF0E949F0E49
:104C8000B82EE091E302882309F4C7C08E01005FCB
:104C90001F4F85E0D8011D928A95E9F7F0E09F014A
:104CA000215B3C4F79018091D102AE014B5E5F4F99
:104CB0006A018A3008F086C044E75AE1B801C701AA
:104CC0000E945B0E882309F494C041EE57E2B801BC
:104CD000C7010E945B0E882309F48BC04BE958E1A1
:104CE000B801C7010E945B0E882309F482C047E81F
:104CF00059E1B801C7010E945B0E882309F479C00D
:104D000045E659E1B801C7010E945B0E882309F40A
:104D100070C01092D102E091E202F0E0AF01415B7D
:104D20005C4FD80110E0FA019191AF018D91981775
:104D300031F09F0121503109F90180831B2DCA16E2
:104D4000DB0689F780919C02882371F080919A029A
:104D500090919B020E94FB1B893E934028F082EEBB
:104D60000E941E0C10929C0288E9C82E82E0D82E68
:104D7000F12CE12CD6018D916D018823D1F086951F
:104D8000F70109F447C0EC50FE4F808191819C8768
:104D90008B871D860E940A1C8160782F9F878E87D3
:104DA000F601319710824B855C856D858F850E9459
:104DB000DE24B2E0EB0EF11CE4E0EE16F104D1F6D5
:104DC000812F44CF80919602909197020E94FB1B05
:104DD000843F914008F070CFA091E202B0E0A15B67
:104DE000BC4FF8011D921192CE16DF06D9F71B2D8C
:104DF000A9CF8091D1028F3F31F08F5F8093D10294
:104E00008A3008F488CF0E940A1C909397028093FE
:104E10009602E2CFE051FE4FB8CFF0E0E15BFC4FED
:104E2000F89485E0A0EBB2E001900D928A95E1F74D
:104E300065E070E080EB92E00E94F3088093AF029F
:104E40000E94BC09F894E091EB02F0E0E851FD4FBC
:104E500080818B878093B60261E070E0CE010B9673
:104E60000E94F3088093B5020E94BC09F894C09098
:104E7000B702D090B802E090B902F090BA028091E7
:104E80009D0290919E02A0919F02B091A002C8162F
:104E9000D906EA06FB06D1F0C0929D02D0929E028E
:104EA000E0929F02F092A0020E949F0E81110EC01C
:104EB0000E946208C61AD70AE80AF90AC092D2020A
:104EC000D092D302E092D402F092D5020E94BC09A3
:104ED000F8948091C202882321F184FF04C090914C
:104EE000C30290935C0380FF0DC08091BB0280FFE2
:104EF00025C09091770491609093770460E0869547
:104F00000E9469168091C20281FF09C020E0409191
:104F1000BE026091BD028091BC020E9452151092A7
:104F2000C2020E94BC09F8948091C402882349F00F
:104F30000E94B30D0E94BC0980E088CE0E94E50F5C
:104F4000E1CF0E94980DF6CFEF92FF920F931F933F
:104F5000CF93DF9300D000D00F92CDB7DEB7162FDE
:104F6000E82EF12CC701880F991F662339F18C5068
:104F70009E4FFC01808191819A83898301E00B839C
:104F80000E940A1C8160782F9D838C83F701E8566C
:104F9000FD4F0127110F102B108349815A816B811E
:104FA0008D810F900F900F900F900F90DF91CF9108
:104FB0001F910F91FF90EF900C94DE2480519E4F33
:104FC000D8CFCF92DF92EF92FF920F931F93CF93A0
:104FD000DF930F92CDB7DEB7EE24E394F12C06EB0E
:104FE00012E09E012F5F3F4F4BEA52E063E082E008
:104FF0000E94C519082F882321F1C090E5028C2D4D
:1050000090E09C0128513D4F79011981F90180817F
:10501000181BD12E80E00AC0DA94F70180818F5FDF
:10502000808360E08C2D0E94A427802F1D14A4F3A0
:10503000912F17FD90E0191B11110EC081110E94D4
:10504000800B802F0F90DF91CF911F910F91FF90D8
:10505000EF90DF90CF9008951F5FF701808181501E
:10506000808361E08C2D0E94A427802FE5CF1F92C2
:105070001FB61F9211248F939F93AF93BF9380917C
:105080005604811113C08091570490915804A09147
:105090005904B0915A044196A11DB11D8093570443
:1050A00090935804A0935904B0935A04BF91AF91C0
:1050B0009F918F911F901FBE1F901895CDB7DEB79F
:1050C000E9970FB6F894DEBF0FBECDBF84B7877FD8
:1050D00084BF0FB6F894A895809160008861809392
:1050E0006000109260000FBE80E890E00FB6F89468
:1050F00080936100909361000FBE85B7806885BF83
:1051000085B7806885BF8AEB99E090932F028093E2
:105110002E020E94D5060E94A0078091E2008460C2
:105120008093E200789480916C048823A1F0109120
:10513000E9001F709091EC00892F817090FD80E84C
:10514000182B1092E9008091E80083FD0E94031063
:105150001F701093E90082E084BD93E095BD9AEF43
:1051600097BD80936E001092D2021092D3021092DB
:10517000D4021092D5020E942715811102C00E940C
:1051800083140E949F0E80935801809158018823B8
:1051900009F4C6C010926F0185E2809370010E94ED
:1051A0009F0E81110E9490338091580181112FC070
:1051B000FE01359686E0DF011D928A95E9F786E6C5
:1051C000898387E98A8386EC8B8384E38C8385E3F8
:1051D0008D833497AEE4B1E0CE010B9621912D93EF
:1051E0008E179F07D9F787E0E5E7F1E0DE0191969A
:1051F00001900D928A95E1F7FE01B196A7E4B1E026
:10520000CE01889621912D938E179F07D9F7809113
:10521000580195E0811190E09093E30285E0891BAD
:105220008093E2020EE411E0A3E5EA2EA1E0FA2E5B
:10523000F80181918F018F3F11F00E94BE09E016A5
:10524000F106B1F707E411E0FEE4EF2EF1E0FF2EE6
:10525000D8018D918D018F3F11F00E94BE09E0169B
:10526000F106B1F7E8EDF2E082EE92E0AFE4B3E0F0
:1052700011921D928E179F07D9F70E94B11A8111C2
:1052800002C00E94361882E090E00E94B1358093FF
:10529000440384E090E00E94B135182F82E290E050
:1052A0000E94B135982F812F9093D7028093D60218
:1052B0000E947025EFE7FBEB3197F1F700C000008B
:1052C0000E94702580914F0380FF2EC06FEF7FEF0B
:1052D00090E080E00E94E33581E08093E00080E28E
:1052E0008093D8001092C9008FE19EE40197F1F7F6
:1052F00000C0000087E090EBDC0180938006909373
:105300008106A0938206B093830688E19CE00FB6E5
:10531000F894A895809360000FBE90936000FFCF33
:1053200085E280936F0139CF83E090E00E94B13530
:105330000E94050C809176040E94D0160E94B11A3A
:10534000811102C00E94361888E190E00E94B935B0
:1053500060933D0470933E0480933F049093400417
:10536000672B682B692B11F40E9406180E9491315B
:1053700067E081E00E94A71365E586E10E94A7131C
:1053800063E687E10E94A71360EA8AE10E94A713FF
:1053900069E98BE10E94A71365EF8CE10E94A713D6
:1053A00060EA8DE10E94A71360E38EE10E94A713DB
:1053B00066E083E00E94A71361E08CE00E94A713DF
:1053C00060E081E00E94A71360E08CE00E94A713D8
:1053D0006FE084E00E94A71361E08CE00E94A713B5
:1053E0000E949F0E811102C00E94933383E080933C
:1053F0001A0380E2809343040E9491316DE070E0D3
:105400008CE992E00E94680D892BE9F580911A03DE
:1054100063E070E081FD9EC289E992E00E94680D20
:10542000892B89F56DE070E089E892E00E94680DB3
:10543000892B49F50E9462086058774C8E4F9F4F28
:1054400060934A0470934B0480934C0490934D04F2
:10545000EEE7F4E080E092E0DF019C011D92215034
:105460003040E1F7F0937F06E0937E068FEF9FEFE9
:1054700090937D0480937C0481E080934F0480931B
:105480004E0410921B038091E402811136C00E94E9
:10549000B11A811104C00E9436180E94C31788E017
:1054A00090E00E94B93560937704709378048093FC
:1054B000790490937A0480915B03836080935B030B
:1054C0006E7F71F40E94C31788E090E00E94B935A6
:1054D00060937704709378048093790490937A04AE
:1054E0000E940E098091770480FF04C060E08695D9
:1054F0000E94691681E08093E40280915801811135
:1055000006C084EF8093660185EF8093650120914A
:105510006601A22FA295AF70B0E091963C91919751
:105520002F7081E090E0BC01022E01C0660F0A944A
:10553000EAF7462F4095432391964C939197929684
:105540003C919297362B92963C93929740916501AD
:10555000E42FE295EF70F0E031A14F70042E01C00E
:10556000880F0A94EAF7982F9095932391A392A11C
:10557000892B82A390968C9190E002C09595879597
:105580002A95E2F7817020A130E002C03595279579
:105590004A95E2F792E020FF90E0892B8093EC029D
:1055A0008091580111E081278093EB02312F381B45
:1055B0003093E5020E94913140E060E080E00E947B
:1055C000210D60E08AE00E94691689EA92E09093DA
:1055D0005E0380935D0381E00E94791780EE90E086
:1055E00090935A0180935901109332030E94410D08
:1055F0008BE591E090935304809352043E018DE338
:10560000680E711C80916C04FF24F39400E112E198
:10561000853009F4F2C10E947025E82E81110E94A4
:105620006208E5E4F3E0AFE4B3E010E000E0B02EA0
:10563000DD9081918D1509F404C28D25C12CFF24C4
:10564000F394982F9F2109F4F7C10E949F0E88239D
:1056500099F0CEA6BFA6DF2081E009F480E088ABF8
:105660000E940A1C8160782F9AAB89AB4EA55FA57A
:1056700068A98AA90E94DE24F801EB5BFC4F8081B7
:10568000F826F0828091EC02E82FEE0FEE0F909159
:105690006601A92FA295AF70B0E090962C9130E0F2
:1056A0009F7002C0359527959A95E2F721703327B0
:1056B00090916501A92FA295AF70B0E090964C91A2
:1056C00050E09F7002C0559547959A95E2F7CA0140
:1056D0008170992740FF02C082E090E0822B8E2BE0
:1056E0008093EC021091EB028F70E82FF0E0E6500F
:1056F000FE4F80819091EA02890F8093EA02F12C9B
:1057000084306CF0E12FF0E0E851FD4F80818F5F35
:10571000808360E0812F0E94A427FF24F39480916E
:10572000EA028D3F6CF4E12FF0E0E851FD4F8081FB
:105730008150808361E0812F0E94A427FF24F3948D
:105740008091EA02082E000C990B64E070E00E9440
:1057500071358093EA02F1100E94800B80914F0412
:10576000882351F180911C0390911D030E94FB1B23
:10577000C29708F07DC120917C0430917D042115F1
:10578000310509F0A0C280914E048823A9F00E943F
:10579000620800914A0410914B0420914C0430910E
:1057A0004D04601B710B820B930B6F3F7F4F8F4F2C
:1057B0009F4710F40E94980DE11001C0F1100E9463
:1057C000B30D809142038A3008F0BAC38091400340
:1057D000909141030E94FB1B089708F4B1C304E6B3
:1057E00010E025E030E04BE353E064E084E10E9408
:1057F000DC32892B09F075C31092420320913203E9
:10580000222359F080913B0390913C0398278927EC
:10581000982790933C0380933B0386E0E4E2F3E017
:10582000DE01919601900D928A95E1F786E0FE01E6
:10583000B196DE01119601900D928A95E1F786E00E
:10584000FE013196A5E3B3E001900D928A95E1F750
:1058500090913F038091360397FD3AC38E7F8093EA
:1058600036038091330390913403009709F02AC3E3
:1058700060913B0380913C0300913D0310913E03F6
:10588000222309F4F2C241E00E94FB0C2091300374
:1058900030913103820F931F909331038093300333
:1058A00041E0602F812F0E94FB0C20912E0330914C
:1058B0002F03820F931F90932F0380932E0360E397
:1058C00073E08AE393E00E94DC0C6EE273E089E30C
:1058D00093E00E94DC0C109237031092380386E0AC
:1058E000E5E3F3E0DE01119601900D928A95E1F770
:1058F00086E0FE013196A4E2B3E001900D928A9514
:10590000E1F730912603209127039091280380919D
:10591000290370912003609121034091220350914B
:105920002303F0912503E0911F03FE13E0C233230C
:1059300011F07313DCC2222311F02613D8C288237E
:1059400011F08513D4C2992319F081E04913D0C214
:1059500080E0CEC286E992E061CD80916C04843013
:1059600009F43BC00E94980D40E060E080E00E9496
:10597000210D80E00E94B8168091E702811109C0D4
:10598000F092E7028091770481708093E6020E9492
:10599000E50F10925604A8E1B0E0E0E40FB6F894E9
:1059A000A895A09360000FBEE093600083B7817F4D
:1059B000846083BF83B7816083BF7894889583B701
:1059C0008E7F83BF0FB6F894A895809160008861A0
:1059D00080936000109260000FBE80916B0488235A
:1059E00061F00E947025EFE4F3E08191811178C4A9
:1059F00029E533E02E173F07C1F780916C0485300D
:105A000009F4ABCF10925F040E94FA0F0E94C20EFD
:105A10000E94B8161092E7028091E602882349F0AE
:105A20008091770481608093770460E086950E947E
:105A300069160E94410DEFCDC394FF0C37E0C312ED
:105A400000CE0F5F1F4F0A30110509F0F0CD8FEF28
:105A50008BAB8CAB1DAA0E940A1C8160782F9FAB78
:105A60008EAB4BA95CA96DA98FA90E94DE240ACE3A
:105A70000E940A1C90931D0380931C0360E080E049
:105A80000E949A080E94C20E8093F9020E949F0E03
:105A9000882331F14091F5025091F6026091F702AE
:105AA0007091F8022FB7F8948091570490915804A0
:105AB000A0915904B0915A042FBF841B950BA60BDB
:105AC000B70B81339547A105B10540F00E94980DB1
:105AD00080914F04882309F456CE4DCE0E94B30D19
