:100000000C9470030C94B7030C94B7030C94B703CF
:100010000C94B7030C94B7030C94B7030C94B70378
:100020000C94B7030C94B7030C94B6260C94722668
:100030000C94B1270C94B7030C94B7030C94B7033A
:100040000C94B7030C94B7030C94B7030C94B70348
:100050000C94B7030C948D270C94B7030C94B7033E
:100060000C94B7030C94B7030C94B7030C94B70328
:100070000C94B7030C94B7030C94B7030C94B70318
:100080000C94B7030C94B7030C94B7030C94B70308
:100090000C94B7030C94B7030C94B7030C94B703F8
:1000A0000C94B7030C94B7030C94B703570060008B
:1000B000000057005F00000005010980A1018503D1
:1000C00019012AB700150126B700950175108100A6
:1000D000C0050C0901A101850419012AA00215011E
:1000E00026A002950175108100C005010906A10135
:1000F0008505050719E029E7150025019508750113
:1001000081020507190029EF1500250195F07501F9
:1001100081020508190129059505750191029501CE
:1001200075039101C00660FF0961A1010962150014
:1001300026FF009520750881020963150026FF003F
:10014000952075089102C005010906A1010507194E
:10015000E029E715002501950875018102950175D3
:100160000881010507190029FF150026FF009506E3
:100170007508810005081901290595057501910289
:10018000950175039101C00000000000000000000F
:10019000000000000000000000000000000000005F
:1001A00000000000000000000000007E0F00D4FFEF
:1001B000FFFFC70000007800000000000000002AD8
:1001C0002B280000000000000000000000000000DC
:1001D000000029000000002C1E3420212224342697
:1001E00027252E362D3738271E1F20212223242590
:1001F000263333362E37381F0405060708090A0B45
:100200000C0D0E0F101112131415161718191A1BB6
:100210001C1D2F3130232D350405060708090A0B54
:100220000C0D0E0F101112131415161718191A1B96
:100230001C1D2F3130354C00047F3F1F6432146485
:100240003214783C1E1E140A05000101010101014F
:10025000010101020202020202020202030303037D
:10026000030303030404040404040405050505054D
:10027000060606060607070707070808080809090B
:1002800009090A0A0A0B0B0B0C0C0C0D0D0D0E0EB6
:100290000E0F0F0F10101111111212131314141549
:1002A0001516161717181819191A1A1B1B1C1D1DBD
:1002B0001E1E1F2020212222232424252626272813
:1002C00029292A2B2C2D2D2E2F3031323233343543
:1002D000363738393A3B3C3D3E3F40414243444546
:1002E000464748494A4C4D4E4F5051535455565825
:1002F000595A5B5D5E5F616264656668696B6C6DCF
:100300006F7072737577787A7B7D7E808283858744
:10031000888A8C8E8F91939596989A9C9EA0A2A382
:10032000A5A7A9ABADAFB1B3B5B7BABCBEC0C2C487
:10033000C6C9CBCDCFD1D4D6D8DBDDDFE2E4E7E947
:10034000EBEEF0F3F5F8FAFDFFFFAA7F554004034A
:100350000200060708090E0D0C11121314191817C4
:100360001B1C1D201F1E16100B010A0F151A22231D
:10037000252628292A2C2D2F3032333536383A3B82
:100380003D3E4042434547494A4C4E5051535557D4
:10039000595A5C5E6062646668696B6D6F717375F3
:1003A00077797B7D7F81838587898A8C8E909294F3
:1003B00096989A9C9E9FA1A3A5A7A8AAACAEAFB100
:1003C000B3B4B6B8B9BBBCBEBFC1C2C3C5C6C7C94A
:1003D000CACBCCCDCED0D1D2D2D3D4D5D6D7D7D804
:1003E000D9D9DADADBDBDBDCDCDCDCDCDDDDDDDD56
:1003F000DCDCDCDCDCDBDBDBDADAD9D9D8D7D7D65E
:10040000D5D4D3D2D2D1D0CECDCCCBCAC9C7C6C514
:10041000C3C2C1BFBEBCBBB9B8B6B4B3B1AFAEAC5A
:10042000AAA8A7A5A3A19F9E9C9A98969492908E05
:100430008C8A89878583817F7D7B79777573716FDE
:100440006D6B6968666462605E5C5A5957555351BA
:10045000504E4C4A4947454342403E3D3B3A383670
:10046000353332302F2D2C2A2928262523220151DD
:100470002900B2002A0053005400550056005F00C6
:100480006000610057005C005D005E0000005900E4
:100490005A005B0058006200000063000000010089
:1004A0000100010001000100010001000100010044
:1004B0000100010001000100010001000000010035
:1004C00001000100005C01000000010000000100CB
:1004D0000100010001000100010001000100010014
:1004E0000100010001000100010001000000010005
:1004F00001000100010001000000010000000100F6
:1005000001000100010001000100010001000100E3
:1005100001000100010001000100010000000100D4
:1005200001000100010001000000010000000100C5
:1005300001000100010001000100010001000100B3
:1005400001000100010001000100010000000100A4
:100550000100010001000100000001000000010095
:100560000100010001000100010001000100010083
:100570000100010001000100010001000000010074
:100580000100010001000100000001000000010065
:100590000100010001000100010001000100010053
:1005A0000100010001000100010001000000010044
:1005B0000100010001000100000001000000010035
:1005C0000100010001000100010001000100010023
:1005D0000100010001000100010001000000010014
:1005E0000100010001000100000001000000010005
:1005F00001000100010001000100010001000100F3
:1006000001000100010001000100010000000100E3
:1006100001000100010001000000010000000100D4
:1006200001000100010001000100010001000100C2
:1006300001000100010001000100010000000100B3
:10064000010001000100010000000100000009029A
:100650005B00030100A0FA0904000001030101008E
:100660000921110100012240000705810308000A49
:100670000904010002030000000921110100012208
:100680002200070582032000010705030320000163
:1006900009040200010300000009211101000122E8
:1006A0006D000705840320000A120100020000000B
:1006B000084B4121000100010200010A0341004BE7
:1006C000003200310000001203410054004C004190
:1006D000004E0054004900530000000403090400C8
:1006E00011241FBECFEFDAE0DEBFCDBF04B603FE9C
:1006F00027C08091800390918103A0918203B091E3
:1007000083038730904BA740B04BD1F41092800305
:1007100010928103109282031092830314BE84B757
:10072000877F84BF0FB6F894A89580916000886198
:1007300080936000109260000FBEE0E0F8E309953E
:1007400011E0A0E0B1E0E2E5FBE502C005900D920A
:10075000A23BB107D9F723E0A2EBB1E001C01D92A3
:10076000A038B207E1F70E94D8270C94702D0C94A2
:100770000000E8EDF0E080818E7F80831092E2003F
:100780001092DA001092E100A0EEB0E08C9181604E
:100790008C9380818F77808319BCA7EDB0E08C911A
:1007A0008E7F8C9380818F7E80831092E4020895E7
:1007B0002091E4003091E50095E6A9012091EC003C
:1007C000822F817020FF06C08091E80080FF06C064
:1007D00080E008952091E80022FD1AC0809109036D
:1007E000882389F0853089F08091EB0085FD0FC06A
:1007F0002091E4003091E50042175307F9F291503F
:10080000E1F684E0089582E0089583E0089581E0B0
:100810000895EF92FF920F931F93CF937C018B016A
:100820000E94D803C82F811117C08091E80085FD70
:100830000BC08091E8008E778093E8000E94D80377
:10084000882399F3C82F08C0F70181917F01809315
:10085000F1000150110949F78C2FCF911F910F9191
:10086000FF90EF90089580910B0387FF13C0809154
:10087000E80082FF06C08091E8008B778093E80053
:1008800004C0809109038111F2CF0895809109037A
:100890008823D9F38091E80080FFF8CF8091E800A9
:1008A0008E77ECCF982F9093E900242F762F50E08D
:1008B000891731F07091EC002091ED005091F0001B
:1008C00021FD07C09F5F973071F78093E90081E0B9
:1008D00008953091EB003E7F3093EB003091ED00B6
:1008E0003D7F3093ED003091EB0031603093EB00B1
:1008F0007093EC002093ED005093F0002091EE00F7
:1009000027FDE0CF80E00895CF92DF92EF92FF9233
:100910000F931F93CF93DF93C8EDD0E088818F7E34
:100920008883E7EDF0E080818160808384E082BF8E
:1009300081E08093E40288818E7F888302EE10E05C
:10094000F80110821092DA0081EEC82ED12CF60147
:10095000108288818F7788838881806888838881E6
:100960008F7D888319BC1092090310920A0310929C
:1009700008031092070390EEE92EF12CF701808115
:100980008B7F808388818160888342E060E080E0A3
:100990000E945204F60180818E7F8083F80180815D
:1009A00081608083808188608083F70180818E7F71
:1009B0008083888180618883DF91CF911F910F911F
:1009C000FF90EF90DF90CF900895FC01809111038C
:1009D0009091120386179707A0F06115710529F40D
:1009E0009091E8009E779093E80090E06115710582
:1009F00051F4911108C08091E80082FF34C080E07A
:100A00000895BC01F2CF809109038823C1F185309C
:100A1000C1F18091E80083FD30C08091E80082FD43
:100A2000EACF8091E80080FFE1CF8091F300209130
:100A3000F200382F6115710519F02830310558F092
:100A400091E02830310509F090E02091E8002E7700
:100A50002093E800CBCF81918093F1006150710920
:100A60002F5F3F4FE7CF80910903882341F0853006
:100A700041F08091E80083FFBECF81E0089582E0DD
:100A8000089583E00895089508958091E6020895F9
:100A90009C014FB7F8948091DB029091DC02A09109
:100AA000DD02B091DE024FBF821B930B08952FB77A
:100AB000F8948091DB029091DC02A091DD02B0916C
:100AC000DE022FBF08952091D8023091D902281755
:100AD000390771F09093D9028093D802E091D60241
:100AE000F091D702309721F00084F185E02D099430
:100AF00008952091D4023091D5022817390771F05A
:100B00009093D5028093D402E091D602F091D7025F
:100B1000309721F00680F781E02D09940895E09147
:100B2000D602F091D702309721F00190F081E02DAC
:100B3000099480E00895DC016091CC028091CD029F
:100B4000962F891301C00895292F30E0F901EE0F87
:100B5000FF1FEC53FD4F408151814A175B07A1F401
:100B600087E08A9FA0018B9F500D1124435E5E4F4A
:100B700081E0FA0184839613E6CF2F5F3F4F237005
:100B800033272093CC0208952F5F3F4F922F93700D
:100B9000D8CF1092610210926002809122018111DF
:100BA00004C010922101109223018091290181112A
:100BB00004C01092280110922A010895FA018111AF
:100BC00001C0FB01099480917B03982F9E7F61F403
:100BD0008170826080937B0380917E03893C18F052
:100BE00088EC80937E0308958A34B0F38170886422
:100BF000F1CFAF92BF92DF92EF92FF920F931F93CC
:100C0000CF93DF93182F062FE901493C08F048ECF9
:100C1000E42FF0E0E75BFD4F011110C0E4915E2F7F
:100C20004E2F4983E8835A83DF91CF911F910F9113
:100C3000FF90EF90DF90BF90AF900895202F30E0AD
:100C40004491D42EE42EF12C56E0159FC0011124BE
:100C5000EFEFF0E0BF010E947A2C812F90E0880F27
:100C6000991F55E5569FD001579FB00D11248A1B3F
:100C70009B0B982F990F890F5F01A21AB30AAE9CA4
:100C8000D001AF9CB00DBE9CB00D11245B2F089F0E
:100C900080011124012F11275F01A01AB10AAE9C17
:100CA0008001AF9C100DBE9C100D11245F01A81A8D
:100CB000B108A29EC001A39E900DB29E900D11247A
:100CC000892F9927E81BF90BEE9DC001EF9D900D30
:100CD000FE9D900D1124E92F62307105A1F050F4B2
:100CE0006115710509F49DCF6130710581F0EB2F1D
:100CF000512F97CF6430710569F080F0663071052F
:100D000009F48FCFF4CFE42F4B2F592F8ACFE42F44
:100D1000412F87CFEB2F542F492F83CF4B2F5D2DA2
:100D2000E12F7FCF80E00895F894E82FE295EF70EF
:100D3000F0E031A1282F2F7081E090E001C0880FF2
:100D40002A95EAF7982F9095932391A392A1892B46
:100D500082A3789408959091DF0292FF06C0282F15
:100D600028712830F9F4877F846093FF06C0282F0C
:100D700028712831F1F4877E84612091E00220FF00
:100D800006C0382F38713830D9F4877F816021FF51
:100D900006C0282F28712831D1F4877E816194FD07
:100DA000877E0895282F24712430F9F68B7F886080
:100DB000DCCF282F2471243101F78B7E8861DDCFB1
:100DC000382F3171313019F78E7F8860E0CF282FAE
:100DD0002171213121F78E7E8861E1CFCF93DF939E
:100DE000EC0182389105A9F1D8F58133910509F418
:100DF00096C048F58932910509F48AC08A9709F4AA
:100E000095C0C11522E5D20708F0B6C0C11531E57D
:100E1000D30708F026C1C83ED10508F09CC0C03EEB
:100E2000D10560F5C83AD10508F087C0C53AD105AB
:100E300008F0EFC0C130D10509F12097F9F0C430B6
:100E4000D105E0F440C08533910509F45AC0C99733
:100E5000C1F68091DF02837089F0C0EED0E00EC051
:100E6000833E910599F170F4803E910501F1823E37
:100E7000910539F68091DF0282FD21C0CE01DF911C
:100E8000CF910895863E910561F1873E910571F1FC
:100E9000843E910509F0B5CF8091E00281FFEECF4D
:100EA0008091DF02C7EED0E084FD0DC0E7CF8091D6
:100EB000DF0280FD07C19091E00290FFDFCFC3EE1B
:100EC000D0E084FFDBCFD0E0C0E0D8CF8091DF025C
:100ED00082FDFBC09091E00290FDBFCF84FFCECF9A
:100EE000F2CF8091DF0283FDDDCFC8CF8091DF029A
:100EF00083FDEEC09091E00291FFF0CFC4EED0E010
:100F0000BDCF8091DF0285FFB9CFC9E2D0E0B6CF77
:100F10008091DF0285FFB2CFC5E3D0E0AFCF8091F3
:100F2000DF0286FFABCFCAE2D0E0A8CF8091DF021C
:100F300086FFA4CFC1E3D0E0A1CFCF3BD10518F607
:100F4000C85AD0E0CC0FDD1FCA5BDE4F0990D881B4
:100F5000C02DD46493CFC11540E5D40708F064C018
:100F6000C11580E4D80708F05CC0CE019A958115C0
:100F70009F4108F483CFA7CFC11536E5D30718F5F5
:100F8000C11545E5D40708F084C0C11584E5D8072C
:100F900008F07AC09C2F969596959E012370332772
:100FA000C115D34508F462C0C1E0D0E002C0CC0F47
:100FB000DD1F2A95E2F730E2939FC0011124C82B70
:100FC000D92BDA685BCFC1158AE5D80778F4C1154B
:100FD00099E5D90708F068C0C11528E5D20708F4DB
:100FE00072CFDC2FCC27C06FD06A48CFCE0190568D
:100FF0008115904208F067CF8D2F8F710E94AB064C
:1010000090E0982F882788279F719C012C2BE9015D
:1010100049C0C55AD0E0CD5BDE4FC881D0E0D06476
:101020002DCFDF70D06A2ACFCE01E4E09695879568
:10103000EA95E1F783702C2F26952695237040E2E0
:10104000249F90011124382B8C2F8370C1E0D0E0B5
:1010500002C0CC0FDD1F8A95E2F7C22BD32BDC68D0
:101060000DCFDC2FCC27C16FD06A08CFC1E0D0E014
:1010700002C0CC0FDD1F2A95E2F720E2929FC0014B
:101080001124C82BD92BEBCFDC2FCC27C46FD06A0F
:10109000F5CE8C2F0E94AB06C82FD0E0DC2FCC27DA
:1010A000CC27DF71D062EACE8C2F8F700E94AB0606
:1010B00034E0D695C7953A95E1F7CF709C2FEC01B7
:1010C000D069DCCEC9E3D0E0D9CEC2EED0E0D6CE36
:1010D000C6EED0E0D3CE8091310281111092310260
:1010E000089580959091D30298239093D302089508
:1010F0008091D3029091D202892B90913002892B5A
:101100008093B401909131029923A1F0892B8093AF
:10111000B40180914201882341F18091DF0287FF71
:1011200024C08EE1E6EBF1E090E0815000F59111F2
:101130000E946B08E091D602F091D7023097E1F05F
:1011400080914201882359F08091DF0287FF07C018
:101150008091B4018093B50185E08093B401028051
:10116000F381E02D84EB91E0099486E0DBCF2191BF
:101170002223D9F29F5FD9CF0895CF93DF93EC015B
:1011800081E0898B8091D3029F81892B8093D30248
:101190008091D2029885892B8093D2020E94780890
:1011A000EA81FB81309739F06C897D89CE01069602
:1011B000DF91CF910994DF91CF910895EF92FF9243
:1011C0000F931F93CF93DF93EC018A85811139C070
:1011D000EB80FC8087E5F81A26E12E9DC0012F9D4B
:1011E000900D1124DC01A45DBE4F1496ED91FC918D
:1011F0001597309731F054966D917C918E5C9E4F8F
:10120000099586E18E9D80018F9D100D1124045D4E
:101210001E4FF80187810E947108F8018085982F80
:1012200090958091D20289238093D2020E947808FF
:10123000188219861B861E821D821092D10210927E
:10124000D002DF91CF911F910F91FF90EF90089501
:10125000909142019923D1F09091DF0297FF16C03F
:10126000E82FE695E695E695EE31E0F4F0E0EC54F3
:10127000FE4F282F277081E090E001C0880F2A954B
:10128000EAF780959281892382830895E6EBF1E065
:101290009191891303C0DF0111971C9291E0EC3BFF
:1012A000F907B1F70895909142019923C1F0909107
:1012B000DF0297FF14C0E82FE695E695E695EE313C
:1012C000F8F4F0E0EC54FE4F877021E030E001C00C
:1012D000220F8A95EAF78281822B82830895A6EBFA
:1012E000B1E0EFEF90E02D91821751F0EF3F19F44C
:1012F000211101C0E92F9F5F9630A9F7EF3F09F454
:1013000008950E2E000CFF0BEC54FE4FE6CF80919B
:101310002E029091ED01981301C008958F5F8770A0
:10132000FACF990F990F890F982F97708695869508
:10133000869524E0829FF0011124E752FE4F50E091
:1013400040E080E0219130E0092E02C036952795DB
:101350000A94E2F721703327042E01C0220F0A9469
:10136000EAF7822B4F5F5F4F4430510559F70895DC
:10137000990F990F890F982F977041E001C0440F82
:101380009A95EAF786958695869594E0899FF0016F
:101390001124E752FE4F30E020E070E05191DF0170
:1013A0001197CB01022E02C0969587950A94E2F719
:1013B000817081958527842385278C932F5F3F4FEC
:1013C0002430310559F7089590E080E00E947905B6
:1013D00090E080E00E9463051092D20210923002E9
:1013E0000C94780890933302809332020C94E409B1
:1013F000882341F080959091D20289238093D20274
:101400000C9478080895882339F09091D202982B93
:101410009093D2020C9478080895882321F00E94BA
:1014200071080C9478080895882339F09091D302BC
:10143000982B9093D3020C9478080895882309F48C
:101440004BC0823871F40E948F0581FF45C089E34B
:101450000E9453090E94780889E30E9428090C948D
:101460007808833859F40E948F0580FF35C083E5E2
:101470000E9453090E94780883E5EFCF843859F41D
:101480000E948F0582FF28C087E40E9453090E94B2
:10149000780887E4E2CF9CEF980F913AF0F290E25F
:1014A000980F983050F4877091E001C0990F8A9599
:1014B000EAF7892F0E947108D2CF9BE5980F9330ED
:1014C00020F490E080E00C947905885A873120F46C
:1014D00090E080E00C946305089580FD02C0769A48
:1014E0000895769808959C013A9521153F4150F54D
:1014F000FC01EE27F170BC0166277270AC01442735
:1015000054709C012227387094FF0EC080E1EF2BAD
:1015100009F480E0672B09F08062452B09F08064B4
:10152000232B89F08068089581E0EF2B09F480E097
:10153000672B09F08260452B09F08460232B19F09A
:101540008860089580E00895CF93DF93EC010E94B6
:101550001E0ACE010E94730A9E01205E31092830C6
:10156000310510F0CD2B21F4DF91CF910C940D0AB1
:10157000DF91CF910C94F809FC018081813029F42E
:10158000FB01808191810C94A40A823021F4FB013B
:1015900082819381F8CF089590910903943029F5C1
:1015A0008093E1027093E3026093E2029093E9007A
:1015B0008FEF9091E800815095FD06C095ED9A95CA
:1015C000F1F700008111F5CF8091E80085FF0DC093
:1015D00050E040E063E070E081EE92E00E94090498
:1015E0008091E8008E778093E8000895BC0184E044
:1015F0000C94CC0ABC0183E00C94CC0ACF93DF930B
:10160000EC01809142018823B1F18091DF0287FFD4
:1016100032C060E284E08093E9008FEF9091E800AF
:10162000815095FD06C095ED9A95F1F70000811166
:10163000F5CF8091E80085FF1BC08091420170E0EA
:1016400050E040E0811104C050E040E068E070E00C
:10165000CE010E9409048091E8008E778093E80013
:1016600080E2FE01A7EEB2E001900D928A95E1F7CB
:10167000DF91CF91089568E081E0CDCF81E0809344
:10168000E00080E28093D8001092C9008FE19EE4D0
:101690000197F1F700C0000087E090EBDC01809338
:1016A000800390938103A0938203B093830388E126
:1016B0009CE00FB6F894A895809360000FBE9093BD
:1016C0006000FFCFAF92BF92CF92DF92EF921F9355
:1016D000CF93DF93CDB7DEB7C356D1090FB6F894D9
:1016E000DEBF0FBECDBF80917B0380FD0AC0E8E165
:1016F000F3E0118210821282339683E0EB37F80711
:10170000C1F77EE4A72E73E0B72EDE011196AE017D
:101710004C595F4F1A2F7B2FF5018491282F30E011
:10172000C901880F991F820F931F885E9C4FFC018F
:10173000C080D180E280CD92DD92ED92FFEFAF1AB2
:10174000BF0AA417B50741F7209A35B13E7F25B1EE
:1017500021606FB7F894812F972FFC017191CF0111
:10176000E8E025B9000000C077FF35B9770F000029
:1017700000C000C000C035B900C0EA9591F78417D9
:10178000950759F76FBF8FE594E00197F1F700C017
:101790000000CD59DF4F0FB6F894DEBF0FBECDBFAE
:1017A000DF91CF911F91EF90DF90CF90BF90AF90DE
:1017B00008951F93CF93DF9300D00F92CDB7DEB77C
:1017C000142F90917B0390FF1AC09E012F5F3F4F13
:1017D000462F6FEF0E94F905113289F08B819981B4
:1017E000412F50E0FA01EE0FFF1FE40FF51FE85EF6
:1017F000FC4F2A812183908382830E94620B0F9089
:101800000F900F90DF91CF911F910895EF92FF926B
:101810000F931F93CF93DF937C018F2D90E0C8E04F
:10182000009711F4C701C0E09C0154E0369527955C
:101830005A95E1F72115310511F0CC5FC9019C01E2
:1018400036952795369527952115310511F0CE5FF0
:10185000C90196958795892B09F0CF5FC23009F4AD
:101860008AC068F4CC23B1F1C13009F45BC0C70170
:10187000DF91CF911F910F91FF90EF900895C330AA
:1018800009F4AEC0C43099F7CEE1D0E08C2F4C2FD4
:101890004E51D093D501C093D401942F9B7F9130AA
:1018A00089F0942F9E7E9A3069F093ED9C0F9230D0
:1018B00048F09DEC9C0F923028F094EC9C0F9330F4
:1018C00008F0B7C06CE80E94D90B2196CF33D10540
:1018D000E9F6CDCF08E310E01093D5010093D401D1
:1018E000802F9C2F9B7F913081F09C2F9E7E9A3081
:1018F00061F091EF9C0F923040F09BEE9C0F923084
:1019000020F092EE9C0F933050F44C2F6CE80E9424
:10191000D90BCF5F0E5F1F4FC132F1F6A8CF4C2F0E
:1019200060E5F5CF0FE010E0C0E01093D501009323
:10193000D401802F9C2F9B7F913081F09C2F9E7E25
:101940009A3061F091EF9C0F923040F09BEE9C0F2B
:10195000923020F092EE9C0F933050F44C2F6CE8B4
:101960000E94D90BCF5F0E5F1F4FC132F1F67FCFC0
:101970004C2F60E5F5CF0CED10E0C0E00F3F1105F6
:1019800009F030F51093D5010093D4018091D40172
:101990009C2F9B7F913091F09C2F9E7E9A3071F00E
:1019A00091EF9C0F923050F09BEE9C0F923030F0F4
:1019B00092EE9C0F4C2F60E5933010F44C2F6CE8A6
:1019C0000E94D90BCF5F0E5F1F4FC132B9F64FCFC8
:1019D000C8018F5F91099093D5018093D401D6CF30
:1019E00007E810E0C0E01093D5010093D401802FE8
:1019F0009C2F9B7F913081F09C2F9E7E9A3061F0CE
:101A000091EF9C0F923040F09BEE9C0F923020F0B3
:101A100092EE9C0F933050F44C2F6CE80E94D90B3F
:101A2000CF5F0E5F1F4FC132F1F621CF4C2F60E523
:101A3000F5CF60E548CF0E94060C90931403809385
:101A400013030C94E40980911303909114039C01F7
:101A5000267033272630310519F488600C941B0D4D
:101A6000877FFCCF21E030E002C0220F331F8A9530
:101A7000E2F720953095809113039091140382230F
:101A800093230C941B0D90912F02809589238093B2
:101A90002F02282F277039F4282F082E000C330B23
:101AA0009217130621F49091E00292FF07C08595EA
:101AB000859585950E94320D10922F02089521E0A0
:101AC00030E002C0220F331F8A95E2F780911303A2
:101AD00090911403822B932B0C941B0DEF92FF9289
:101AE0000F931F93CF93DF938C01C8E1D3E0F12CC8
:101AF000E12CF801948160917D0380917C03F0E1F9
:101B0000EF16F104FCF49923F9F09E0140917E0355
:101B10000E94F9052FEFE21AF20A239681E2E816F5
:101B2000F10439F70E94620BF801848190E001967C
:101B3000817099278483DF91CF911F910F91FF903E
:101B4000EF900895992309F39E0140E0E1CF8F9231
:101B50009F92AF92BF92CF92DF92EF92FF920F933C
:101B60001F93CF93DF93EC014C81042F10E0980179
:101B7000D8010E94D92C9B01AC010E94EF2C4B0193
:101B80005C01E0E2F0E0E01BF10BA5E5B0E0AC01A8
:101B90009B010E94EF2C6B017C019F01DF010E94E1
:101BA000D12C9B01AC010E94FA2C9B01AC01280DA9
:101BB000391D4A1D5B1DC701B6010E94A22CF22EE1
:101BC000822F90E039E23F15D8F143E0249F900145
:101BD000112435952795122F109598E1C92E93E081
:101BE000D92E00E085E5E82EEF188E2D01FD8F2D12
:101BF0009601412F60917D030E94F9050F5F53E02C
:101C0000C50ED11C013289F70E94620B9C8181E0D4
:101C1000992319F0903219F48FEF80931C01809171
:101C20001C01890F8C83DF91CF911F910F91FF9041
:101C3000EF90DF90CF90BF90AF909F908F900895DE
:101C400025E530E0A901481B590BCA019A01220F72
:101C5000331F280F391F37FFBCCF2F5F3F4FB9CF3E
:101C60000F931F93CF93DF93C8E1D3E0FE0111825E
:101C700010821282339683E0EB37F807C1F710E049
:101C800000E080915E02082E000C990B08171907DE
:101C90008CF180911B01082E000C990B8017910785
:101CA0004CF19E0140917E0360917D0380917C0305
:101CB0000E94F9050F5F1F4F23960132110509F7A6
:101CC0000E94620B80911A0190915E02980F90938E
:101CD0005E0220911B01280F20931B01121614F4A1
:101CE00090321CF0819580931A01DF91CF911F9162
:101CF0000F910895198218821A82DCCFBF92CF9279
:101D0000DF92EF92FF920F931F93CF93DF93FC012B
:101D10008281DD24DA9480FD02C0DD24D39408E1C1
:101D200013E0D0E0C0E021E2B22EF801118210826F
:101D3000128294E0E92EF12CC12C80915D028C0D71
:101D400082320CF43DC06B2D0E946C2C892F082E22
:101D5000000C990B8C179D0791F480917E038E9D4A
:101D6000A0018F9D500D1124559547955595479588
:101D7000980160917D0380917C030E94F905CD0C50
:101D8000F1E0EF1AF108C9F621960D5F1F4FC1323D
:101D9000D10559F60E94620B80915D0291E0D91243
:101DA00015C0811111C080E280935D02DF91CF9157
:101DB0001F910F91FF90EF90DF90CF90BF9008950B
:101DC00087FFC5CF8F5DC3CF8150EECF90E00196E6
:101DD000BE010E948E2CE8CFEF92FF921F93CF930B
:101DE000DF93EC0188E1E82E83E0F82E10E08C818F
:101DF000970140917E0360917D03810F0E94F90558
:101E0000195F83E0E80EF11C173E89F70E94620B10
:101E10009A818C8190FF08C08F5F8C83DF91CF9176
:101E20001F91FF90EF9008958150F7CF90917B0321
:101E300090FF0CC0E8E1F3E0818360834283339636
:101E400093E0EB37F907C1F70C94620B08950F93F9
:101E50001F93CF93DF9300D00F92CDB7DEB78C01E5
:101E600080915F0281110AC09E012F5F3F4F48ECB5
:101E70006FEF0E94F9058A8180935F02F801648107
:101E8000613069F080915F0240E0662361F040E0DC
:101E9000623011F440915F0280E060E004C0609124
:101EA0005F0240E080E00E94160FF801848190E01C
:101EB000019663E070E00E948E2C84830F900F9057
:101EC0000F90DF91CF911F910F910895CF93DF93E2
:101ED00000D00F92CDB7DEB790917B0390FF0AC080
:101EE0009E012F5F3F4F0E94F9054B8169818A81D6
:101EF0000E94160F0F900F900F90DF91CF910895D1
:101F0000CF93DF93EC01EBE7F3E0438162818C81B7
:101F10000E94660F8C818F5F8C83DF91CF91089533
:101F2000CF93DF93EC01EC81F0E0E259FC4F449158
:101F3000EBE7F3E0628181810E94660F8C818F5F05
:101F40008C83DF91CF910895CF93C82F882309F414
:101F5000A6C08238C1F40E948F0581FDA0C089E32C
:101F60000E9453090E9478082FEF81EE94E02150DF
:101F700080409040E1F700C0000089E30E942809FA
:101F8000CF910C9478088338A1F40E948F0580FDCE
:101F900086C083E50E9453090E9478082FEF81EEE6
:101FA00094E0215080409040E1F700C0000083E5BC
:101FB000E5CF8438A1F40E948F0582FD70C087E4CC
:101FC0000E9453090E9478082FEF81EE94E021507F
:101FD00080409040E1F700C0000087E4CFCF8CEF55
:101FE0008C0F813A88F580914201882301F180911C
:101FF000DF0287FF1CC0EC2FE695E695E695F0E042
:10200000EC54FE4F828190E04C2F477021E030E08D
:1020100002C0220F331F4A95E2F782239323892BB4
:1020200079F08C2F0E9428090E94780809C0E6EBFD
:10203000F1E08191C817A9F321E0EC3BF207C9F761
:102040008C2F0E9453099CCF80E28C0F883068F45B
:10205000C77021E030E001C0220FCA95EAF78091F5
:10206000D302822B8093D3028BCFEBE5EC0FE330CE
:1020700040F4F0E0ED5BFE4F808190E0CF910C9456
:102080007905C85AC73158F4EC2FF0E0EE0FFF1F66
:10209000EA5BFE4F80819181CF910C946305CF91D3
:1020A00008951F93CF93DF93182FD0E0C0E08933BA
:1020B00011F4C0E5D0E0812F0E94A40F209731F4E5
:1020C000812FDF91CF911F910C941E0A8FE99FE021
:1020D0000197F1F700C000002197F0CF0F931F93F5
:1020E000CF93DF93C62FD42F022FFC018281882348
:1020F000A1F0609317030E945705909316038093F5
:102100001503C77081E001C0880FCA95EAF7DF9117
:10211000CF911F910F910C94140A809117036813AB
:1021200035C080911503909116030E944805883CA4
:10213000910560F510E21D0FCD17B9F080E28C0F0C
:10214000883040F4C77081E001C0880FCA95EAF773
:102150000E940D0A183048F481E09D2F977001C04D
:10216000880F9A95EAF70E94140A802F0E94511056
:10217000183098F4D77081E001C0880FDA95EAF73B
:10218000DF91CF911F910F910C940D0AC77081E0E0
:1021900001C0880FCA95EAF7F3CFDF91CF911F9165
:1021A0000F910895DF92EF92FF920F931F93CF93B9
:1021B000DF93E82FF0E0E954FE4FD490282F2695C6
:1021C0002695269530E0F901E955FE4F0491877078
:1021D00010E0082E02C0159507950A94E2F70170E9
:1021E0001127F901E956FE4FE490F12C082E02C0A8
:1021F000F594E7940A94E2F791E0E922FF24F901CB
:10220000E957FE4FC491D0E002C0D595C7958A9595
:10221000E2F7C170DD270115110519F081EE0E946A
:10222000A40FE114F10419F086EE0E94A40F8D2D85
:102230000E945110EF2819F086EE0E941E0A012B11
:1022400019F081EE0E941E0ACD2B51F08CE2DF9135
:10225000CF911F910F91FF90EF90DF900C94511050
:10226000DF91CF911F910F91FF90EF90DF90089534
:10227000CF93DF93EC010E94730A9E01205E310927
:102280002830310510F0209739F40E94140A8C2F61
:10229000DF91CF910C94A40F0E94030AF8CFFC01A8
:1022A0008081813029F4FB01808191810C94381167
:1022B000823021F4FB0182819381F8CF0895CF937E
:1022C000DF93EC018881823039F4FB0182819381B4
:1022D0000E94381181E08B87DF91CF910895CF93D1
:1022E000DF93C7E0D2E060E0CE010E94222D21966C
:1022F000C11584E0D807B9F7DF91CF9108956F92A7
:102300007F928F929F92AF92BF92CF92DF92EF9285
:10231000FF920F931F93CF93DF938EE6C82E84E036
:10232000D82E0FE510E0E801E09736011CC0F5015A
:1023300085909490692DC7010E94222D682DC701B8
:1023400001960E94222D82E0A80EB11C82E0E80EC8
:10235000F11CCE15DF0559F788E0680E711C289630
:102360000C171D0731F07E0188E0E81AF1085301CF
:10237000DECF005D1F4F80E3C80ED11C0F3382E01B
:10238000180789F6DF91CF911F910F91FF90EF9081
:10239000DF90CF90BF90AF909F908F907F906F9085
:1023A0000895CF93C82F6FEF811161E283E290E02F
:1023B0000E94222DC1110CC0CFEF6C2F84E290E05F
:1023C0000E94222D6C2F85E290E0CF910C94222D5B
:1023D000C9E0F3CF80E00E94D11160E086E290E096
:1023E0000E94222D0E947F110E946F1181E00C94A7
:1023F000D111CF93C091E002C2FB992790F99817B1
:1024000081F080FBC2F9C093E0026091DF0284E0BA
:1024100090E00E94222D6C2F82E290E0CF910C94EC
:10242000222DCF9108950F931F93CF93DF9328E030
:10243000629FE001112450E0440F551FC40FD51FC7
:1024400030E3839FC00DD11D1124CE0187960E94D9
:102450000E2D082F10E0102F0027CE0188960E9425
:102460000E2D9801282BC901DF91CF911F910F915B
:102470000895462F8A3038F4763028F4643018F402
:10248000672F0C94131290E080E00895BF92CF92D2
:10249000DF92EF92FF920F931F93CF93DF937C0114
:1024A0000091130310911403809132029091330232
:1024B000082B192BCFE0D0E0CC24C394D12CBC2E18
:1024C000C6010C2E02C0880F991F0A94E2F78023E0
:1024D0009123892B71F4219790F7B12C8B2DDF91EB
:1024E000CF911F910F91FF90EF90DF90CF90BF9011
:1024F0000895B7018C2F0E9439120E94EE060197B1
:1025000051F3ECCFCF93DF93EC010E944612BE0152
:102510000E943912DF91CF910C94EE06FC01868166
:102520009781009779F00E94EE06292F2F709295DF
:102530009F7092509E30A0F4E92FF0E0EE58F24DDB
:102540000C94C42C808191810E948212EECF803F36
:1025500019F020F4883E20F481E00895843FE1F3EF
:1025600080E00895883EC0F3813FD1F7F5CF822FF8
:1025700086958695869508951F93CF93DF9300D017
:1025800000D00F92CDB7DEB7FC012681378121152F
:10259000310541F525E0DE01119601900D922A9555
:1025A000E1F7FC01228189819A812223B9F0662317
:1025B000A9F00E944612182F682F89819A810E94E3
:1025C000B80969817A81812F0F900F900F900F9039
:1025D0000F90DF91CF911F910C9439120E949109B5
:1025E000182FEFCFC9010F900F900F900F900F9001
:1025F000DF91CF911F91089583E290E00E940E2D0C
:10260000813289F484E290E00E940E2D893059F4E1
:1026100085E290E00E940E2D91E0893009F090E073
:10262000892F8170089580E0FCCFCF9384E090E003
:102630000E940E2DC82F82E290E00E940E2D982F4E
:102640008C2FCF91089560917B03669570E04BE0ED
:1026500050E08FE091E00E94562D892B19F481E023
:1026600080935C020E945705909356028093550216
:102670000895CF92DF92EF92FF926B017C010E944E
:10268000E305B701A60188E090E0FF90EF90DF90AE
:10269000CF900C94342D5F926F927F928F929F9285
:1026A000AF92BF92CF92DF92EF92FF920F931F9360
:1026B000CF93DF9300D00F92CDB7DEB7182F762ED1
:1026C000042F622E90917B0390FF29C0E92FE6959D
:1026D000AE2FB0E0A258BE4F8C9180935B029E7FDC
:1026E000923081F59E012F5F3F4F812F0E94F905A7
:1026F0004B8169818A810E94160F10937C0370922E
:102700007D0300937E03662051F060917B037091FE
:102710007C0380917D0390917E030E9439130F907A
:102720000F900F90DF91CF911F910F91FF90EF903D
:10273000DF90CF90BF90AF909F908F907F906F90E1
:102740005F900895823019F400917E03D6CF8630D1
:1027500019F410917C03D1CF8930D9F3893169F60E
:10276000E9518E2F8170582EE695F0E0E75BFC4F23
:10277000A590B490BB2488E1E82E83E0F82ED12CFC
:10278000C12C91E2892E912CC601B4010E947A2CB1
:10279000812F511013C0860F9701402F672D0E9483
:1027A000F905CA0CDB1C83E0E80EF11C8BE7E81688
:1027B00083E0F80649F70E94620B9FCF861BECCF9F
:1027C000EBE7F3E0438128E0421B08F440E021E01E
:1027D000628181810C944B13EBE7F3E0438128E0A5
:1027E000420F08F44FEF21E0628181810C944B137A
:1027F000EBE7F3E0628128E0621B08F460E021E08F
:10280000438181810C944B13EBE7F3E0628128E074
:10281000620F08F46FEF21E0438181810C944B1328
:10282000EBE7F3E0818121E04381628188500C94E1
:102830004B13EBE7F3E0818121E043816281885F04
:102840000C944B1380917F03882319F0815080935F
:102850007F0360917B0370917C0380917D03909155
:102860007E030C94391380917F03833018F48F5FBB
:1028700080937F0360917B0370917C0380917D0343
:1028800090917E030C94391390917B0390FF36C096
:102890009170811129C0926090937B03662351F05F
:1028A00060917B0370917C0380917D0390917E0306
:1028B0000E94391360917B03669570E04BE050E015
:1028C0008FE091E00E94562D892BA9F010925C02B6
:1028D00081E08093580220E040917E0360917D0367
:1028E00080917C030C944B13853210F09864D4CF04
:1028F000880F982BD1CF0E942313EACF089580919F
:102900007B038695815009F484E261E00C944414C1
:1029100080917B0386958F5F853208F081E061E0CE
:102920000C94441490917B0390FF07C096959817E0
:1029300020F0961710F40C94881461E00C94441461
:10294000EBE7F3E083E0808311828FEF828388E2FC
:102950008383148260817181828193810C94391305
:1029600069EE7EEF90E080E00E94402D60E082E022
:1029700090E00E94222D60E083E090E00E94222DF2
:10298000109233021092320260E084E090E00E94E4
:10299000222D60E082E290E00E94222D60E085E03E
:1029A00090E00E94222D60E086E090E00E94222DBF
:1029B0006FEF87E090E00E94222D40E050E0BA01E6
:1029C00088E090E00E94342D60E08DE090E00E946D
:1029D000222D40E050E0BA0188E190E00E94342DC1
:1029E00060E087E190E00E94222D40E050E0BA01D3
:1029F0008CE190E00E94342D70E060E080E290E095
:102A00000E94402D40E050E0BA0188E190E00E9431
:102A1000342D80E00E94D1110E94EA1140E050E084
:102A2000BA018FE090E00E94342D40E050E0BA01FE
:102A300083E190E00C94342D90E080E00E941C2D06
:102A4000893E9E4F11F40C94FC1280E00895109280
:102A5000D30280914201E6EBF1E0882359F08091A6
:102A6000DF0287FF07C08EE1DF011D928A95E9F73B
:102A70000C94E40986E0F8CF1F93CF93DF93CDB792
:102A8000DEB7AA970FB6F894DEBF0FBECDBF8BE0BE
:102A900093E02091F100DC012D93CD01B3E083316F
:102AA0009B07B9F780910C03833009F471C0B8F427
:102AB000813009F448C0823009F4B2C08091E80046
:102AC00083FF3AC180910B0390910C039A3008F078
:102AD00033C1E92FF0E0E058F24D0C94C42C8A3059
:102AE00009F48DC08B3009F470C0893039F78091BA
:102AF0000B03813219F780910F0390911003009717
:102B000011F00297D9F68091E800877F8093E80062
:102B10008091E80082FF37C09091F3008091F2002D
:102B2000029729F48091F1008B7F813021F480910C
:102B3000F1008093E6028091E8008B778093E800B3
:102B40000E943304BBCF80910B03813A09F0B6CFCA
:102B50008091E800877F8093E80080910F03909137
:102B60001003892B61F460E287EE92E070E00E942E
:102B7000E5048091E8008B778093E8009FCF60E0C8
:102B800090E080E0F3CF809109038111C1CF96CF0F
:102B900080910B03813A09F091CF80910F039091BE
:102BA0001003892B09F08ACF8091E800877F8093FA
:102BB000E8008091E80080FFFCCF80914201809383
:102BC000F1008091E8008E77B9CF80910B038132BC
:102BD00009F074CF80910F0390911003892B09F0B5
:102BE0006DCF8091E800877F8093E8000E943304D6
:102BF00080910D03809342010E9427155FCF809141
:102C00000B03813209F05ACF8091E800877F8093CF
:102C1000E8000E94330480910E038093E5024ECFBA
:102C200080910B03813A09F049CF8091E800877FBA
:102C30008093E8008091E80080FFFCCF8091E5025E
:102C4000BECF803899F0823809F076C080910F03AA
:102C50008F70873008F070C08093E9008091EB009E
:102C600085FB882780F91092E90006C08091070350
:102C700090910803911182609091E800977F909362
:102C8000E8008093F1001092F1008091E8008E77C7
:102C9000B5C1882309F4A2C1823009F04DC08091EA
:102CA0000D038111A6C180910F038F702FEF280FA4
:102CB000263008F041C08093E9002091EB0020FF0E
:102CC00098C1933031F48091EB0080628093EB00E7
:102CD00090C19091EB0090619093EB0021E030E087
:102CE00001C0220F8A95EAF72093EA001092EA00C9
:102CF0008091EB008860EACF81111EC010910D0316
:102D00001F778091E3008078812B8093E30080918E
:102D1000E800877F8093E8000E9433048091E800F8
:102D200080FFFCCF8091E30080688093E30082E025
:102D3000111183E0809309038091E80083FF0AC0AA
:102D40008091E800877F8093E8008091EB008062AB
:102D50008093EB00AA960FB6F894DEBF0FBECDBFEE
:102D6000DF91CF911F9108958058823028F72091EC
:102D70000D0330910E032C3DE3E03E07A1F583E007
:102D80008A838AE289834FB7F894DE01139620E0A4
:102D90003EE051E2E32FF0E050935700E49120FF32
:102DA00003C0E295EF703F5FEF708E2F90E0EA3046
:102DB000C0F0C7968D939D932F5F243159F74FBF75
:102DC0008091E800877F8093E8006AE270E0CE019E
:102DD00001960E94E5048091E8008B778093E800DB
:102DE000ABCFC096E7CF80910F0390911003432F94
:102DF00055274330510509F44AC078F54130510553
:102E000009F47AC08BE590E0EEE4F6E0423051053B
:102E100009F092CF2091E800277F2093E8002091CD
:102E20001103309112038217930708F49C0140E0CC
:102E30002115310509F065C0411163C08091E8009A
:102E400082FDC9CF80910903882329F2853019F2C8
:102E50008091E80083FFF2CFBECF4132510509F4E3
:102E60003CC04232510509F067CF8330910508F02C
:102E700063CFFC01EE0FFF1FEA55FE4F0190F0817A
:102E8000E02D8D559E4FDC018C9190E01AC03327C8
:102E900021303105D1F02115310561F022303105A5
:102EA00009F04ACFEBEBF6E0E4918E2F90E0EBEBEC
:102EB000F6E007C0EBEDF6E0E4918E2F90E0EBED4D
:102EC000F6E0009709F438CFA5CFE7ECF6E0E491FF
:102ED0008E2F90E0E7ECF6E0F4CF8330910508F018
:102EE0002BCF880F991FFC01E455FE4F0190F08114
:102EF000E02D89E090E08ECF82E190E0E9EAF6E013
:102F000089CF80910903882309F465CF853009F4BE
:102F100062CF8091E80083FD5ECF8091E80082FD62
:102F20008DCF8091E80080FF83CF9091F300809156
:102F3000F2002115310519F08830910550F041E07B
:102F4000089709F040E08091E8008E778093E800D0
:102F50006FCF44914093F100319621503109019691
:102F6000E8CF803809F0E8CE8091E800877F809331
:102F7000E80080910A038093F10087CE8111DCCEB6
:102F800010910D03123008F0D7CE8091E800877FB2
:102F90008093E80010930A030E943304112311F078
:102FA00084E005C08091E30087FDFACF81E0809343
:102FB000090342E061EC81E00E94520442E261ECCC
:102FC00084E00E94520442E261EC82E00E945204DA
:102FD00042E260EC83E00E945204AECE80910D0389
:102FE000813009F0A9CE81E0933009F080E0809330
:102FF00008031092E9008091E800877F8093E80041
:103000000E94330499CE9F92AF92BF92CF92DF92EB
:10301000EF92FF920F931F93CF93DF9300D000D0D6
:10302000CDB7DEB77C01DC0113968D919C9114978E
:10303000892B39F08C9111969C9189238F3F09F04F
:1030400040C60F900F900F900F90DF91CF911F917E
:103050000F91FF90EF90DF90CF90BF90AF909F9037
:103060000895D60116968C9116978823E9F0199643
:103070008D919C910817190739F48091D002909195
:10308000D1020817190781F0F60197861487038784
:103090008189811103C0C6010E94BD08C601069640
:1030A0000E94DE081092D202FFEFAF1ABF0A26E19B
:1030B000C20ED11C1CC6980122513F45203131055A
:1030C00008F0DEC48FEF93E00E940E2D025167E0FE
:1030D000C62E62E0D62E882349F180912F02877098
:1030E00009F4AFCFF7018281882309F4AACF82E0E7
:1030F0000F900F900F900F90DF91CF911F910F9134
:10310000FF90EF90DF90CF90BF90AF909F900C9486
:10311000430DC11434E0D30601F3C6010E940E2D05
:10312000811101C001508FEFC81AD80A0111F1CFE7
:103130001C821B82BB24B3945AE0A52E86010F5F2C
:103140001F4FC6010E940E2D89831A82882329F2FF
:103150009FEF980F933020F58A83B98292E0C90ED1
:10316000D11CC8010E940E2D8B83882309F4B5CF92
:103170008E010F5F1F4FD8018C918823F9F28130A7
:1031800009F046C011969C91119712968C9191303E
:1031900049F40E5F1F4F0E9451100F5F1F4FEBCF7E
:1031A0006801E6CF923029F40E5F1F4F0E94A40FF2
:1031B000F4CF933029F40E5F1F4F0E941E0AEDCF0B
:1031C000943019F00F5F1F4FE8CF0E5F1F4F30E0B4
:1031D00020E0B8016F5F7F4FF80141818053990B68
:1031E0008A30910550F021503109B8F28FE99FE003
:1031F0000197F1F700C00000F6CFA29EF001A39E58
:10320000F00D11249C012E0F3F1F842F8B01E1CF65
:103210000E94D210C2CF81E00E945F0D0E94230D58
:103220005CCF81E00E94320DF9CF82E0F5CF882398
:1032300069F180913902811106C081E080933902E1
:1032400082EE0E94A40F0E9457059093380280934B
:1032500037028BE20E94A40F27C48823A1F080913B
:103260003902811106C081E08093390282EE0E940A
:10327000A40F0E945705909338028093370281EE85
:103280000E94A40FE6CF81EE0E941E0A8BE20E94EC
:103290001E0A0AC4882309F455C4F60181898823CB
:1032A00009F450C4C5018E5C9E4F0E94DE084AC4DA
:1032B00082EE0E94A40F82C488E193E00E9438113C
:1032C00088E193E00E94A40A79C482EE0E94A40FD0
:1032D00087E50E94511072C486EE0E94511088E169
:1032E000F8CF895A85C482EE0E941E0A99C48CE2E6
:1032F0000E9451108091D701882309F491C489E379
:103300000E9451108DC488E2FBCF033FBCE51B0730
:1033100039F188F4083DFCE51F07F1F0093D2CE583
:10332000120751F1073D3CE5130709F07DC426E281
:1033300041EE61EE0DC0053F8CE51807C9F0A0F025
:1033400027E245EE66EE063FACE51A0709F06CC4CD
:10335000C7010E946E10C1CE27E245EE65EEF8CFA0
:1033600026E241EE60EEF4CF27E245EE64EEF0CFC8
:1033700026E241EE62EEECCF28E241E0EFCF809111
:10338000DF02806106303CE5130709F487C008F4CA
:103390008CC08091DF02806281C08091DF028D7FCE
:1033A0000C309CE5190709F479C070F48091DF02B4
:1033B0008C600A30BCE51B0709F470C008F481C0BA
:1033C0008091DF028E7F6AC08091DF02877F0E309E
:1033D000FCE51F0709F462C08091DF028B7F0F308C
:1033E0001C4508F45BC08091DF028F7E57C00B3F05
:1033F0003CE5130709F45DC030F503319CE519077E
:1034000009F46DC078F40131BCE51B0709F463C011
:1034100002311C4509F045C40E9427158091DF0246
:103420008F773CC00531FCE51F0709F460C008F444
:1034300074C08091E00281600A3F1C4509F031C4EC
:103440008093E0022EC40F3F8CE5180709F44BC0AF
:1034500088F48091E0028D7F0D3FACE51A0781F37F
:103460008091E0028E7F0E3F1C4550F38091E00278
:103470008360E6CF0130EDE51E0709F457C008F47C
:1034800042C060E002301D4509F00BC48EE090E0C0
:103490000E94222D06C48091DF0281608093DF02AA
:1034A00000C48091DF028460F9CF8091DF028860E0
:1034B000F5CF8091E0028260C3CF8091DF0280640B
:1034C000EDCF0E9427158091DF028068E7CF8091C1
:1034D000DF028F7DE3CF8091DF028F7BDFCF809192
:1034E000DF02837FDBCF8091E0028C7FA9CF8091C8
:1034F000DF0282FB992790F921E0922790FB82F965
:1035000090FB83F9CBCF8091E002982F909591703A
:103510008E7F892B90FB81F993CF0E942715909184
:10352000DF02892F97FB87F98058B8CF61E0AECFD3
:103530008091D30206313CE5130709F0FCC38A7A77
:1035400091E009F490E09093D801811106C089E2DE
:103550000E9453090E947808C0CD85E3F9CF85E326
:10356000E7C380917B0380FF1BC08E7F80937B032A
:1035700060917B0370917C0380917D0390917E0329
:103580000E94391310925C028FEF90E7A2E0815005
:103590009040A040E1F700C000000E94620B9DCD6A
:1035A000816080937B0361E086950E94441495CDF1
:1035B0004FE754E168E874E10E94DE058ECD48E8EB
:1035C00054E16FE774E1F8CF49E154E160E174E15F
:1035D000F3CF48EF53E164E074E1EECF40EE53E106
:1035E0006CEE73E1E9CF4CEE53E160EE73E1E4CFB2
:1035F00043E354E162E274E1DFCF61E081E0D5CFE3
:1036000065E082E00E94921468CD68E086E0FACF1F
:1036100064E18FE0F7CF67E185E1F4CF62E289E111
:10362000F1CF61E083E2C1CF0B353DE5130701F136
:103630000C351D4509F0AAC38091E00282FB882762
:1036400080F991E089270E94F911A0C30E942715F3
:103650009FEFA4E3BCE09150A040B040E1F700C070
:1036600000000E943E0B0E94B01437CD81E0EBCFEA
:1036700080E0E9CFF701828100811181882369F020
:10368000C8010E944612D82E682FC8010E94B809AE
:10369000B8018D2D0E94391280C3C8010E94910982
:1036A000D82EF6CFE12FEF70CE2E107F19F0C294F6
:1036B00090EFC922DD20C9F0CC2069F080E2800FB4
:1036C000883010F001110BC08091D302C82AC0923B
:1036D000D3020E947808802F0E94A40F16C0809108
:1036E000D202C82AC092D202F4CF802F0E941E0AB2
:1036F000CC2059F080E2800F883010F0011138C0E2
:103700008C2D0E9471080E947808A92DA850BB0B2F
:10371000149720F40E948F050E946D0AAA20A9F038
:1037200080912F0280FD11C0F70112828595859549
:1037300085950E945F0DC7010E94031880912F029A
:103740008595859585950E94320D60E0C7010F90A3
:103750000F900F900F90DF91CF911F910F91FF90DD
:10376000EF90DF90CF90BF90AF909F900C94BC12E1
:10377000C0948091D202C822C092D202C4CFF12F4D
:10378000FF70BF2E107F103219F0B29480EFB82274
:10379000002381F0013099F1DD20F1F1CC20A9F175
:1037A000D70115968C91159780FF95CF8F70159640
:1037B0008C932BC0DD20B1F0909131028B2D892BA1
:1037C000C11003C00E94140AA0CF21E0C212FACF98
:1037D0002091E00222FD99CF981709F496CF8093AB
:1037E000310293CFC11006C00E946B088B2D0E943E
:1037F0000D0A8BCF31E0C31609F487CFF5CFDD205A
:1038000031F085E08C1508F480CF8B2DDBCF94E070
:103810009C1508F47ACFEACFCC2041F3093349F460
:10382000BFEFE7EEF3E0B150E040F040E1F700C059
:103830000000802F0E941E0A68CF812F86958695F2
:10384000837061F0813009F060CFC8019370D110AE
:1038500002C090E080E00E94630557CFC8019370DA
:10386000D11002C090E080E00E9479054ECF812FF8
:10387000837009F03FC0D11048CF402F4295469544
:103880004770440F440F802F8F7090E0042E02C0C9
:10389000880F991F0A94E2F730E020E004FF09C086
:1038A0002FE030E002C0220F331F4A95E2F7209547
:1038B0003095169516951370123099F078F4409162
:1038C000320250913302113039F0822B932B842332
:1038D00095230E94F20919CF842B952B822B932BD1
:1038E000F8CF822B932B2091320230913302822722
:1038F0009327EFCF8695DD2011F0812F81708823EB
:1039000009F403CF402F429546954770440F440F6A
:10391000802F8F7090E0042E02C0880F991F0A94A8
:10392000E2F730E020E004FF09C02FE030E002C001
:10393000220F331F4A95E2F720953095169516957C
:103940001370123099F078F44091130350911403DE
:10395000113039F0822B932B842395230E941B0D69
:10396000D4CE842B952B822B932BF8CF822B932BA9
:10397000209113033091140382279327EFCF1F70F8
:10398000DD2029F0812F0E945F0D802F1BCF802F1B
:103990000E940D0A812F0E94320DB7CE023F09F41A
:1039A00041C060F4003F11F1013FA1F1DD2009F4B5
:1039B00057C0C11090CE812F8F7131C0033FB9F134
:1039C000043FA1F7DD2009F440C01F71812F0E9440
:1039D0005F0D8091E00282FD07C0A8E01A9FC00140
:1039E0001124836080932F02812F19C0DD2069F09C
:1039F00024E02C1508F489CE1F7181E090E002C00C
:103A0000880F991F1A95E2F7B3CF35E03C1508F4FB
:103A10007CCEF2CF812F8F71DD2009F4BCCF0E94C4
:103A20005F0D73CE812F8F71DD20C9F3B4CF90E08D
:103A300080E0DD2009F492CF1F7181E090E002C0A8
:103A4000880F991F1A95E2F789CF81E00E94430DF4
:103A5000B1E0BC1508F059CE82E00E94430D55CE6E
:103A6000CC2059F0093309F0E4CEEFEFF7EE23E074
:103A7000E150F0402040E1F7DACE812F8F718BCFFB
:103A80000031FFE51F0709F4C6CB01312FE512070E
:103A900009F4CBCB0038AFE51A0709F4C8CB0138DD
:103AA000BFE51B0709F4D9CBC80197558F3F910596
:103AB00011F008F047C020910401022E000C330BD6
:103AC0002817390714F480930401F701228136E1A5
:103AD000389F5001399FB00C1124C501845D9E4F61
:103AE0006C01DC0150962C935097928116968C9124
:103AF0001697992309F4CECB1A961C930E93199717
:103B00008F5F16968C930E945705F60196878587DE
:103B10008091310287838091D2029091D302892BC8
:103B200080870190F081E02D309741F0D6015496C6
:103B30006D917C91C5018E5C9E4F09951093D102C9
:103B40000093D002D70112968C91882369F0C801A6
:103B5000815E9C45059740F46FE1600F60933A02E7
:103B60008CE090E00E94222D17FFCFCBF7018281DD
:103B7000882309F459C00E948F058695817080932F
:103B8000D70190913A02913029F4882319F089E302
:103B90000E9451108091D3028093D6011092D302DB
:103BA00080913A02813009F487CB882309F480CBD5
:103BB000823009F48ACB843009F48ECB8FE39CE900
:103BC0000197F1F700C000005801E894B7F84CE005
:103BD000C42ED12CC5010C2C02C0969587950A9451
:103BE000E2F78F7096EF980F963008F47ACB805DED
:103BF0000E94D21094E0C91AD108ACEFCA16AFEFF8
:103C0000DA0641F780913A02813009F470CB8823BB
:103C100009F469CB823009F466CB843009F473CBA4
:103C20008091D6018093D302F7018281882309F421
:103C300077C0109217030230FCE51F0708F478CC18
:103C400006312CE5120730F0C8018A5F9C450997C0
:103C500008F06ECC0E9415139093E0028093DF026F
:103C600000313CE5130709F432CC08F0C0CB083032
:103C70009CE5190709F421CC08F08FCB0430BCE592
:103C80001B0709F40ECC08F07ACB0230FCE51F07C5
:103C900009F401CC8091DF02826003301C4509F4F5
:103CA000FDCB6091DF021091E00284E090E00E9481
:103CB000222D612F82E290E00E94222D0E94271582
:103CC0000CCA61E0C7010E94BC128C01D701129698
:103CD0008C918823A9F0809104018F3F89F07CE2C8
:103CE000C72E71E0D72EB12CA12C992493948091EA
:103CF0000401082E000C990B8A159B050CF0B1C924
:103D0000F70182818111D7C900313FE5130709F41A
:103D100088CA01319FE5190709F0BCCE82E082CA4A
:103D200006311C4599F58091D801811118CC89E2A2
:103D30000E9428090FCC82720C3CECE51E0709F4A6
:103D400057CC08F090C0063C2CE5120709F43CCC97
:103D500008F065C0033C9CE5190709F429CC08F07C
:103D60004FC0023CBCE51B0709F4FBCB0A35BDE59F
:103D70001B0709F47BCC08F057CC0115FCE51F07A5
:103D800009F464CC0E3D1C4509F46DCCD7011696A0
:103D90008D919C91009709F46DCC0E94EE068C01E8
:103DA000D7011296DC9012971596CC90C2943FE002
:103DB000C32280912F028770A1F0AD2CDD2091F0FD
:103DC000812F807F803421F080E2800F883048F09E
:103DD00082E00E94430D80912F028770AA24A39451
:103DE0008111A12C912E92942FE09222BBE0B91563
:103DF00008F48BCCE92DF0E0E657F24D0C94C42C7E
:103E0000043CECE51E0709F4DACB40E154E169E13A
:103E100074E1053CFCE51F0709F4CECBA7CF093CB4
:103E20002CE5120709F4DACB78F4073C9CE5190776
:103E300009F4CFCB44E054E168EF73E1083CACE512
:103E40001A0709F4B9CB92CF0A3CBCE51B0709F469
:103E5000CACB42E254E163E374E10B3CECE51E079C
:103E600009F4AACB83CF013DFCE51F0709F4D0CBB1
:103E7000A0F40E3C3CE5130709F4C2CB08F4BDCB1B
:103E80000F3C9CE5190709F4C0CB6EE089E0003DCA
:103E9000ACE51A0709F4B6CB69CF043DBCE51B07B6
:103EA00009F4BCCB68F4023DFCE51F0709F4B3CB71
:103EB00061E088E1033D2CE5120709F476CB56CF8B
:103EC000053D3CE5130709F4ACCB0D35100709F4AB
:103ED00004C94CCFCF93DF938091EA01807FA1F496
:103EE0008091E701882381F080912E02D091ED012D
:103EF0006091E5017091E601A091E801B091E901BE
:103F0000C62FC723D81303C0DF91CF91089590E047
:103F1000109711F0CF3F19F401968770F3CF9C01F1
:103F200043E0220F331F4A95E1F7F901E251FE4FBA
:103F300041814713F1CF40814613EECF42814111B9
:103F4000EBCF438154814A1B5B0B483C510520F762
:103F50008091EA018F7080618093EA01F901ED5050
:103F6000FE4F80818F708061808385EE91E00E949A
:103F70000318DF91CF910C948709AF92BF92CF9233
:103F8000DF92EF92FF920F931F93CF93DF93CDB702
:103F9000DEB765970FB6F894DEBF0FBECDBF8C01BC
:103FA00085E0F801DE01519601900D928A95E1F7C6
:103FB000F801E28065EEA62E61E0B62E6091E80180
:103FC0007091E9016115710509F468C19091E501ED
:103FD0004091E601892F84238F3F09F45FC120813E
:103FE0003181C380D480F090E701F601E61BF70B26
:103FF000FF2009F41DC18091EA01582F507FE83C51
:10400000F10508F0D0C0511181C0FE2C43132BC024
:10401000921329C06091EB017091EC01F801468187
:10402000578164177507F9F4E1101DC08F70806126
:104030008093EA01C5010E9403188091EA01F8010A
:1040400085838F2D65960FB6F894DEBF0FBECDBF6A
:10405000DF91CF911F910F91FF90EF90DF90CF9064
:10406000BF90AF900895CD2829F0822F83238F3FF2
:1040700009F02FC180E0F82FF170DF2E80FF3CC0E7
:1040800080912E024091ED01841315C0298B3A8B4B
:1040900089899A890E948212292F22952F702230B5
:1040A000F8F0243020F59F70F9F0F8019581907FA9
:1040B000D9F4D12C1FC090E0FC0153E0EE0FFF1F9C
:1040C0005A95E1F7E251FE4F5181351306C05081F8
:1040D000251303C05281E5120FC001968770D4CF1B
:1040E0009F7011F0882329F3805E883010F3C80197
:1040F0000E940318FD2CA5CFEE2009F4A2CF8091D9
:10410000EA0181608093EA01F12C9BCF43131BC02D
:10411000921319C04091EB015091EC01F8012681F6
:1041200037814217530779F4E1100DC08583C80128
:104130000E94031888E0F801A5EEB1E001900D920D
:104140008A95E1F77ECFC8010E948E12882339F14B
:10415000EE2029F18091EA018032A0F02091E50162
:104160003091E6013A8729871B86DD86CC868E87CB
:104170008091EB019091EC01988B8F87CE0109968D
:104180000E94031888E0F801A5EEB1E001900D92BD
:104190008A95E1F70E946A1FFF24F39452CFC80169
:1041A0000E940318F9CF51110AC085EE91E00E94D8
:1041B000031888E0F50111928A95E9F7A5CF43131A
:1041C00018C0921316C04091EB015091EC01F80118
:1041D000268137814217530761F4E1100AC08583B5
:1041E000C8010E94031888E0F50111928A95E9F749
:1041F00028CFC8010E948E12882389F2EE2079F21E
:104200008091EA01803208F4BDCF2091E501309120
:10421000E6013A8329831B82DD82CC828E838091E2
:10422000EB019091EC0198878F83CE010196A8CF86
:10423000E83CF105C0F6FE2CEE2009F4B0CF4313A4
:104240001FC092131DC02091EB013091EC01F801C9
:10425000868197812817390799F49091EA0190FD9A
:1042600069CF907F09F466CF8091EA018583903F02
:1042700009F45DCF982F907F905F8F70892B56CF78
:10428000C8010E948E1281117DCF8091EA01816068
:104290008093EA01C8010E940318D3CEEE2009F4EE
:1042A0007ECFC8010E948E12F82E882309F477CFA2
:1042B00088E0F801A5EEB1E001900D928A95E1F752
:1042C0008091E5019091E6010E9482120E946A1F8E
:1042D000B8CE81E08E25CFCECF93DF93CDB7DEB7BA
:1042E00060970FB6F894DEBF0FBECDBF29873A871F
:1042F0004B875C876D877E878F87988BCE01099669
:104300000E94BD1F811112C088E0FE013996DE01B6
:10431000119601900D928A95E1F78C859D85892BE8
:1043200029F089859A8589238F3FA9F580912E02EE
:104330009091ED0189131CC060960FB6F894DEBF12
:104340000FBECDBFDF91CF91089593E0AA0FBB1FA1
:104350009A95E1F7A251BE4F98E0FE013196019087
:104360000D929A95E1F78093ED010E948709DECFC7
:10437000B8E08B9FC001112482519E4F0E94BD1F47
:104380008823D1F280912E0290E0019687709927C0
:1043900080932E02CBCFA091ED01B0E0CD0101962C
:1043A0008770992720912E022817190671F60E940E
:1043B00027151092ED0110922E0288E0E5EEF1E053
:1043C000DF011D928A95E9F7B1CF0F931F93CF9329
:1043D000DF9380916302E0916202CCE081111AC008
:1043E000DF91CF911F910F910895D1E0DE0FD0930F
:1043F00062020E2F10E0EC9FF0011124EC59FD4FEA
:1044000083819481892B29F08081918189238F3F39
:1044100051F4ED2F80916302E81738F31092630294
:1044200010926202DDCFC09FD001C19FB00D112458
:10443000AC59BD4F16968D919C911797892B29F4F5
:1044400018968D919C91019651F420813181428181
:10445000538164817581868197810E946C21C09F00
:10446000F001C19FF00D1124EC59FD4F148213820D
:10447000D0CF1092CF021092CE0210922B018091D9
:10448000CD028093CC020E94C9050C94E5212F92A5
:104490003F924F925F926F927F928F929F92AF92D4
:1044A000BF92CF92DF92EF92FF920F931F93CF9321
:1044B000DF93C091CC02E7E0FE2E01E010E0FCE0CB
:1044C0002F2EAEEFEA2E8091CD028C1316C00E94E3
:1044D000E521DF91CF911F910F91FF90EF90DF9039
:1044E000CF90BF90AF909F908F907F906F905F9094
:1044F0004F903F902F900C94C905D0E0FE01EE0F35
:10450000FF1FEC53FD4F80819181F89EF001F99ED1
:10451000F00D1124E35EFE4F2481211158C030902C
:104520006302A4E6B2E030E020E0412C5F012315F5
:1045300008F04BC01A966D907C901B97F501808017
:1045400091804FEF5FEF512CC52CD12CF601EE0F6F
:10455000FF1FE80DF91D659174916616770609F441
:10456000A601672B11F05394EFCF4F3F5407B1F1E1
:10457000B80102C0660F771F4A95E2F7462AA801E4
:1045800002C0440F551F5A94E2F741505109441696
:10459000150601F5229EF001239EF00D1124EC5921
:1045A000FD4FF89ED001F99EB00D1124A35EBE4FC1
:1045B00012962D913C91139737832683E082E182F6
:1045C0009187808771E015967C930E949B052196C8
:1045D000C37079CF14961C921E9213972F5F3F4F92
:1045E0001C96A5CFAF92BF92CF92DF92EF92FF922F
:1045F0000F931F93CF93DF9300D000D000D0CDB79F
:10460000DEB78E010F5F1F4F86E0D8011D928A959D
:10461000E9F724E7C22E21E0D22EF12CE12CAA24C6
:10462000A394B12CF60181916F018F3F09F44BC027
:10463000F894E82FE295EF70F0E021A18F70A501CA
:1046400002C0440F551F8A95E2F7CA01922F982B9A
:1046500091A392A18095892382A3789400C0C5017B
:104660000E2C01C0880F0A94EAF7382F282F2095C6
:1046700068E771E0F801DB019D91BD0180819F3FFA
:1046800009F46BC0492F42954F7050E0DA019096C3
:104690004C9150E09F7002C0559547959A95E2F76E
:1046A00040FD5BC0832B80833196B1E06E377B0782
:1046B00011F7F601319780818F3F11F00E94940627
:1046C000E0EAEA95F1F7FFEFEF1AFF0A24E0E216BD
:1046D000F10409F0A7CF46E050E0B8018EE392E084
:1046E0000E94632DDD24D394009709F4D12C892BEB
:1046F000B1F186E0F801AEE3B2E001900D928A9547
:10470000E1F781E0809336020E94570590933502CD
:104710008093340280913402909135020E944805C2
:10472000059708F180913E0280934F0280913F02ED
:104730008093500280914002809351028091410207
:1047400080935202809142028093530280914302EF
:10475000809354021092360206C08223A4CF809127
:1047600036028111D7CF809104018F3F09F06AC0D2
:1047700080912B0181116AC080913902882371F0E8
:1047800080913702909138020E944805893E9340FB
:1047900028F082EE0E941E0A109239028D2D269674
:1047A0000FB6F894DEBF0FBECDBFDF91CF911F9142
:1047B0000F91FF90EF90DF90CF90BF90AF90089552
:1047C000E29EF001E39EF00D1124E45DFE4FA2880D
:1047D000B388A114B10419F498ECA92EB12CE29E6F
:1047E0008001E39E100D1124045D1E4FD801169622
:1047F0008C9116978823C9F01D968D919C910E94EB
:104800004805A816B90688F4FE9C50011124F80149
:104810008189811105C0C501845D9E4F0E94BD083C
:10482000C5018E5C9E4F0E94DE08F3942F2D30E070
:1048300080910401082E000C990B821793070CF04D
:10484000BFCF96CFF12C86E1E82EF0CF8091CE023B
:104850009091CF02009709F48FCF0E9448052091D4
:104860006002309161022817390708F085CF9091D6
:10487000CC028091CD02981759F00E9447221092E5
:104880006102109260021092CF021092CE0274CF99
:104890000E94E5211092CF021092CE020E94C9051B
:1048A0006BCF2F923F924F925F926F927F928F9237
:1048B0009F92AF92BF92CF92DF92EF92FF920F93AF
:1048C0001F93CF93DF93CDB7DEB769970FB6F894F8
:1048D000DEBF0FBECDBF498B5A8B6B8B7C8B8D8B14
:1048E00061111092D2021D861E861F86188A85E0ED
:1048F000FE017196DE01199601900D928A95E1F7FD
:104900008C859D85892B31F089859A8589238F3FF8
:1049100009F0D4C129853A854B855C856D857E85F6
:104920008F8598890E946C21C3C028EFC2162CE5A0
:10493000D20629F4882379F00E943922EBCF39EF8F
:10494000C3163CE5D30639F4882329F080912B0166
:104950008111F2CFC3C10DE111E0E12CB12CA12CEA
:1049600088248394912C2EEF522E44244394F801F2
:104970006081718166246A94762C20E0422F50E099
:10498000FA01EE0FFF1FE60FF71F85919491C816ED
:10499000D90609F43A01892B31F02F5FEFCFAA2411
:1049A000A394B12CE4CFF12CFFEF6F167F0609F42E
:1049B00045C0F8014481F0902B018F2D411180E01A
:1049C000F82FF170FF2EF801258086819B859923B1
:1049D00009F404C1FF2009F401C1211014C0A4018D
:1049E00001C0440F6A94EAF7842B868380916002A9
:1049F000909161028C32914030F44CE251E050933E
:104A0000610240936002C40102C0880F991F2A9579
:104A1000E2F70197F80126812817190679F48091A9
:104A2000CE029091CF02009709F45BC00E94480526
:104A30008D32914008F455C0F8014482EF28095F97
:104A40001F4FAA94AB2809F0AACF8B85882309F4BD
:104A500020C1EE2009F41DC10E9457059093CF029A
:104A60008093CE0280916302883010F591E0980F18
:104A70009093630298E0FE013996DE011196019051
:104A80000D929A95E1F72CE0829FC00111248C5978
:104A90009D4F28E0FE013196DC0101900D922A9590
:104AA000E1F72FEF3FEFFC0131872087D386C286E5
:104AB00069960FB6F894DEBF0FBECDBFDF91CF91E0
:104AC0001F910F91FF90EF90DF90CF90BF90AF902C
:104AD0009F908F907F906F905F904F903F902F901E
:104AE00008958091CC026090CD02982FF0E0E0E034
:104AF000861114C09093CC020E171F0709F49ECFA5
:104B000090E0FC01EE0FFF1FEC53FD4FB182A0823D
:104B10000196837099278093CD0290CF282E312C57
:104B2000F101EE0FFF1FEC53FD4F20813181F7E0C3
:104B3000F29FD001F39FB00D1124A35EBE4F2D91C3
:104B40003C911197398F288F712C60E070E0E72F2E
:104B5000F0E0EE0FFF1F288D398DE20FF31F259136
:104B6000349121153105E1F0F8010190F081E02D3B
:104B7000FF8BEE8B60E005C02417350709F47F2C0E
:104B80006F5FE62FF0E0EE0FFF1F4E895F89E40FA5
:104B9000F51F459154914115510571F77F5FD7CFAE
:104BA0007720C9F0F801671708F0FD0144820E175D
:104BB0001F0721F49093CC02F72C40CF981305C027
:104BC000AE17BF0711F49F5F937091012F5F3F4FA6
:104BD000822F83708DCFF0E0E0E0F7CF90E02110DE
:104BE0001FC0B40102C0660F771F2A95E2F79B0130
:104BF000215031092817390731F4442309F447C0FB
:104C0000C5010E949B05C40101C0880F6A94EAF7A0
:104C1000982F9095F801868189238683F22C0ECFF8
:104C20009C01062C02C0359527950A94E2F7A9014C
:104C300041705527BC016150710986239723892B48
:104C400011F5452B01F1F80182819381892BC1F087
:104C50001B821C821D821E8259825A820E94570525
:104C60008160582F9D838C83F801828193818F838B
:104C7000988729813A814B816D817E810E946C21C8
:104C8000F8011582C0CFF22FF1702F2EBCCF2F2C40
:104C9000BACF9091CC028091CD02981731F00E944A
:104CA0004722EE2009F436CE03CF0E94E521109270
:104CB000CF021092CE020E94C905F3CF61E0CE016F
:104CC00009960E94BC126C018B85F7EFCF16FCE5AC
:104CD000DF0609F02ACE882309F43DCE81E08093D7
:104CE0002B0118CE1F920F920FB60F9211242F9303
:104CF0003F934F935F936F937F938F939F93AF9364
:104D0000BF93CF93DF93EF93FF93D091E900DF70D0
:104D10008091EC00C82FC17080FDC0E81092E900BE
:104D20008091F000877F8093F00078940E943C157A
:104D30001092E9008091F00088608093F000CD2B04
:104D4000CF70C093E900FF91EF91DF91CF91BF91B8
:104D5000AF919F918F917F916F915F914F913F9113
:104D60002F910F900FBE0F901F9018951F920F92CA
:104D70000FB60F9211242F933F934F935F936F932E
:104D80007F938F939F93AF93BF93EF93FF93809104
:104D9000E10082FF09C08091E20082FF05C080919E
:104DA000E1008B7F8093E1008091DA0080FF24C0D6
:104DB0008091D80080FF20C08091DA008E7F8093A0
:104DC000DA008091D90080FF9BC080E189BD82E13B
:104DD00089BD09B400FEFDCF81E080930903809175
:104DE000E402811109C00E94B9030E9484048091E9
:104DF000E20084608093E2008091E10080FF17C0B0
:104E00008091E20080FF13C08091E2008E7F80934A
:104E1000E2008091E20080618093E2008091D800FE
:104E200080628093D80019BC85E08093090380914B
:104E3000E10084FF29C08091E20084FF25C080E169
:104E400089BD82E189BD89B5982F917080FFFBCF24
:104E50008091D8008F7D8093D8008091E1008F7E73
:104E60008093E1008091E2008F7E8093E200809148
:104E7000E20081608093E20080910A03882309F4B4
:104E800045C084E0809309038091E10083FF27C03F
:104E90008091E20083FF23C08091E100877F8093AF
:104EA000E10082E08093090310920A038091E100FF
:104EB0008E7F8093E1008091E2008E7F8093E200FC
:104EC0008091E20080618093E20042E060E080E057
:104ED0000E9452048091F00088608093F000FF915E
:104EE000EF91BF91AF919F918F917F916F915F9162
:104EF0004F913F912F910F900FBE0F901F901895DB
:104F000019BC109209031092E40276CF8091E3005D
:104F100087FD93E090930903B7CF78941F921FB653
:104F20001F9211248F939F93AF93BF938091DB02C5
:104F30009091DC02A091DD02B091DE020196A11DEC
:104F4000B11D8093DB029093DC02A093DD02B0934D
:104F5000DE02BF91AF919F918F911F901FBE1F9056
:104F600018951F921FB61F9211248F939F93AF9392
:104F7000BF938091DA02811113C08091DB0290917E
:104F8000DC02A091DD02B091DE024196A11DB11DAF
:104F90008093DB029093DC02A093DD02B093DE02EB
:104FA000BF91AF919F918F911F901FBE1F90189539
:104FB000CDB7DEB7AA970FB6F894DEBF0FBECDBF50
:104FC00084B7877F84BF0FB6F894A895809160005E
:104FD000886180936000109260000FBE80E890E0CE
:104FE0000FB6F89480936100909361000FBE85B76F
:104FF000806885BF85B7806885BF82E996E0909319
:10500000B3018093B2010E94B9030E94840480918D
:10501000E20084608093E200789480910903882301
:10502000A1F01091E9001F709091EC00892F817020
:1050300090FD80E8182B1092E9008091E80083FD34
:105040000E943C151F701093E90082E084BD93E03C
:1050500095BD9AEF97BD80936E000E94FC1281115E
:1050600002C00E94EA1182E30E94940680EF0E942F
:10507000940686E90E94940687E90E94940608E750
:1050800011E02EE7E22E21E0F22EF80181918F014E
:105090008F3F11F00E949406E016F106B1F7EEE39F
:1050A000F2E084E492E0AFE4B2E011921D928E1738
:1050B0009F07D9F70E941C15811102C00E94B014ED
:1050C00082E090E00E940E2D809348020E9415130A
:1050D0009093E0028093DF020E94F2228FE39CE92A
:1050E0000197F1F700C000000E94F22280914F0268
:1050F00080FF08C06FEF7FEF90E080E00E94402DBE
:105100000E943E0B83E090E00E940E2D90E00E94F2
:10511000F20980911303909114030E94060C6E9A79
:10512000769A8CE090E00E940E2D90E0B0E0A0E036
:1051300080933A0290933B02A0933C02B0933D02CD
:1051400080914402811133C00E941C15811104C05A
:105150000E94B0140E94A01488E090E00E94162DD6
:1051600060937B0370937C0380937D0390937E0315
:105170006E7F71F40E94A01488E090E00E94162DCA
:1051800060937B0370937C0380937D0390937E03F5
:105190000E94E30510925C0280917B0380FF04C0B3
:1051A00060E086950E94441481E0809344028091DF
:1051B0007B03816080937B0361E086950E944414A9
:1051C00060E081E20E94441421E04EE16FEF8AE347
:1051D0000E944B1385E091E09093D7028093D60212
:1051E00018E1E12EF12C00E4C02E8FE492E096E06D
:1051F000D92ED80E80910903BB24B39400E112E1AB
:10520000853009F402C10E94F222882359F08FB739
:10521000F8944091DB025091DC026091DD027091C4
:10522000DE028FBFE9E4F2E0AFE4B2E010E000E0BC
:10523000302F8D919191981709F409C1292F2827B2
:1052400090E0BB24B394422F4B2109F4FBC099A3F7
:105250003AA38B2191E009F490E09BA30E945705AB
:105260008160782F9DA38CA349A15AA16BA18DA128
:105270000E945124F801E75BFD4F8081B826B0827F
:1052800080915C028823D1F180915B02E0917B03E5
:10529000E695E81BE0935702823009F0EFC0F0E09A
:1052A000EB5BFD4FE4910E2F10E0B0E9AB2EBFE0B9
:1052B000BB2E80915802882361F0109258020E9400
:1052C0005705909356028093550210925A021092FD
:1052D00059020E945705E0915502F09156028E1B2B
:1052E0009F0B8F3F9F4750F4E00FF11FF093560242
:1052F000E093550285E592E0F50109950E948F053E
:1053000090914702891731F00E948F0580934702E0
:105310000E946D0A80910903843009F06BCF83E00D
:105320008093E9008091E80082FF64CF8091E800DB
:1053300090E085FF06C00E94D803882309F4F8C0D6
:1053400091E08091E8008B778093E800992309F43D
:1053500051CFE981E150E33108F06CC1F0E0EA5649
:10536000F24D0C94C42C80910903843009F440C0A0
:1053700080E00E946D0A10925C02809146028111C9
:1053800016C0B092460280917B03982F9170909343
:1053900045028E7F80937B039FEFE0E7F2E0915020
:1053A000E040F040E1F700C000000E94620B109264
:1053B000DA020FB6F894A895E09260000FBEC09292
:1053C000600083B7817F846083BF83B7816083BFC0
:1053D0007894889583B78E7F83BF0FB6F894A8958D
:1053E00080916000886180936000109260000FBE21
:1053F00080910803882349F00E94F222EFE4F2E052
:10540000819181114AC2DE12FBCF80910903853060
:1054100009F4A9CF0E9427150E948F050E946D0AEA
:105420001092460280914502882349F080917B03C7
:10543000816080937B0360E086950E9444140E9403
:105440002313E1CE9F5FBB0C943009F0FCCE0F5FBD
:105450001F4F0630110509F0EBCE8FEF8EA38FA3FF
:1054600018A60E9457058160782F9AA789A74EA198
:105470005FA168A58AA50E94512402CF863059F405
:10548000F0E0EE5BFD4FE4910E2F10E0A0E8AA2EB5
:10549000AFE0BA2E0ECF893061F4E695F0E0E15C22
:1054A000FD4FE4910E2F10E0FCEEAF2EFEE0BF2E7C
:1054B00000CF8F3061F4E695F0E0E45CFD4FE491BD
:1054C0000E2F10E0EEE7AE2EEEE0BE2EF2CE8531CE
:1054D00059F4F0E0E75CFD4FE4910E2F10E070E32B
:1054E000A72E7EE0B72EE5CE08E210E047EAA42E14
:1054F0004DE0B42E883109F4DCCE833249F4E7E381
:10550000F2E00591149167E2A62E6FE0B62ED1CE9F
:1055100004EF11E05EE6A52E5DE0B52E843209F4BD
:10552000C8CE00ED17E033E4A32E35E0B32EC1CE94
:1055300000E210E0CE0101965C018091E80085FD5B
:105540000AC08091E8008B778093E8000E94D8031E
:10555000882399F3F5CE8091F100F50181935F01E5
:105560000150110951F7ECCE1A8289E08B832DC0CE
:105570008A81823009F4A7C18330A9F0813009F013
:1055800059C02FB7F8946091DB027091DC028091D2
:10559000DD029091DE022FBF0E94CA2C6B837C83B8
:1055A0008D839E8312C080914F028B838091500225
:1055B0008C83809151028D83809152028E838091E1
:1055C00053028F838091540288878091090384302D
:1055D00009F010CE1091E9001F709091EC00892F16
:1055E000817090FD80E8182B82E08093E900809123
:1055F000E80080FF0DC050E040E060E270E0CE01C6
:1056000001960E9409048091E8008E778093E8005B
:105610001F701093E900EECD8A81823059F46B81BE
:105620007C818D819E810E94CA2C86E290E00E943E
:10563000222DCBCF8FEF8983C8CF4C816B818A819C
:105640000E9413129827892798279E838D83BDCFA8
:10565000AD80BE80BA24AB24BA248A810B81F8E0E5
:105660000F9F8001112420E3829F000D111D112442
:105670008C8190E0880F991F080F191F6B2DC801AE
:1056800087960E94222D6A2DC8018896D0CF0E944D
:105690007F119BCF8A818138C1F060F4803809F096
:1056A00094CF20E04B8160917D0380917C030E9428
:1056B0004B138BCF823859F1833809F086CF20E025
:1056C00040917E036C818B81F2CF60E08B810E94E0
:1056D00044149B8180917B03911111C08E7F809334
:1056E0007B0310925C028FEF90E7E2E081509040E4
:1056F000E040E1F700C000000E94620B66CF8160CD
:1057000080937B0360E086950E9444145ECF8B817A
:1057100080937F035ACF8A81813899F030F48038A2
:1057200009F053CF80917E0321CF823891F08338E6
:1057300009F04BCF80917C038B8380917D038C8318
:1057400044CF80917B0380FF02C086950FCF80E01D
:105750000DCF80917F030ACF60917B0370917C0312
:1057600080917D0390917E030E9439132ECF80E1BA
:105770008A832BCF81E08A8389EFF8CEAA80BB8011
:10578000BA24AB24BA248E010F5F1F4F8C80800E89
:10579000912E911CC501895F9D4F8016910609F4D9
:1057A00014CFF9EFAF16F1E0BF0650F40E940E2DB2
:1057B000F8018483FFEFAF1ABF0A0F5F1F4FEACFD4
:1057C000F8011482F7CF0A811B81102701271027C7
:1057D000CE0101964C01AC80A00EB12EB11CC801C7
:1057E000895F9D4FA016B10609F4EFCE093FE1E0B5
:1057F0001E0720F4F40164810E94222DFFEF8F1A0E
:105800009F0A0F5F1F4FEBCF0E946F11DECE8AE021
:10581000AFCFAA80BB80BA24AB24BA248E010F5F1D
:105820001F4F8C80800E912E911CC501879680168B
:10583000910609F4CACE20EEA21621E0B20650F479
:105840000E940E2DF8018483FFEFAF1ABF0A0F5F8D
:105850001F4FEBCFF8011482F7CF0A811B8110276D
:1058600001271027CE0101964C01AC80A00EB12E6D
:10587000B11CC8018796A016B10609F4A6CE003E59
:10588000E1E01E0720F4F40164810E94222DFFEF65
:105890008F1A9F0A0F5F1F4FECCF09BD19BD09B4C6
:1058A00000FEFDCF8091D8008F7D8093D80080913D
:1058B000E00082608093E0008091E00081FDFCCFF9
:1058C0000E942715A2CD86E290E00E940E2D1B8239
:1058D0001C821D828E8379CE87FB082E062687FDCB
:1058E000819567FD61950E94022D0EF4919507FC4C
:1058F00081950895AA1BBB1B51E107C0AA1FBB1FBE
:10590000A617B70710F0A61BB70B881F991F5A954B
:10591000A9F780959095BC01CD01089597FB072EBE
:1059200016F4009407D077FD09D00E947A2C07FC6A
:1059300005D03EF4909581959F4F0895709561959F
:105940007F4F0895A1E21A2EAA1BBB1BFD010DC0BB
:10595000AA1FBB1FEE1FFF1FA217B307E407F5071F
:1059600020F0A21BB30BE40BF50B661F771F881FFB
:10597000991F1A9469F760957095809590959B0191
:10598000AC01BD01CF010895EE0FFF1F0590F4910A
:10599000E02D099469279627692778278727782794
:1059A00008950E94D92C332312F48A1B9B0B0C946C
:1059B000EA2CA29FB001B39FC001A39F700D811D6F
:1059C0001124911DB29F700D811D1124911D089508
:1059D0000E94D92CB7FF0895821B930B08950E9453
:1059E000D92CA59F900DB49F900DA49F800D911D63
:1059F00011240895B7FF0C94EF2C0E94EF2C821B0A
:105A0000930B0895991B79E004C0991F961708F02D
:105A1000961B881F7A95C9F780950895F999FECF4E
:105A200092BD81BDF89A992780B50895A6E1B0E0AE
:105A300044E050E00C94482DA8E1B0E042E050E092
:105A40000C94482D262FF999FECF92BD81BDF89A6E
:105A5000019700B4021639F01FBA20BD0FB6F894B2
:105A6000FA9AF99A0FBE08950396272F0E94232DC4
:105A70000E94222D252F0E94232D242F0C94232DAC
:105A80000196272F0E94232D0C94222DDC01CB019F
:105A9000FC01F999FECF06C0F2BDE1BDF89A31963E
:105AA00000B40D9241505040B8F70895FC014150A8
:105AB000504030F001900616D1F73197CF0108958C
:105AC000882799270895FB01DC0104C08D9101907E
:105AD000801921F441505040C8F7881B990B089554
